:100000000C94EB1C0C940C1D0C940C1D0C940C1DEE
:100010000C94487E0C940C1D0C94242E0C944C2EA5
:100020000C94742E0C949C2E0C940C1D0C945E2F2E
:100030000C940C1D0C9400600C9461580C948E5818
:100040000C94BB580C94E8580C9415590C944259D4
:100050000C946F590C949C590C94C9590C94F659F2
:100060000C940C1D0C940C1D0C940C1D0C940C1D6C
:100070000C940C1D0C940C1D0C940C1D0C940C1D5C
:100080000C940C1D0C940C1D0C940C1D0C940C1D4C
:100090000C940C1D0C940C1D0C940C1D0C94CB5545
:1000A0000C94FD550C942F560C9461560C940C1D19
:1000B0000C940C1D0C940C1D0C94485F0C94E55B87
:1000C0000C94125C0C943F5C0C946C5C0C94995CEA
:1000D0000C94C65C0C94F35C0C94205D0C944D5D08
:1000E0000C947A5D0C940C1D0C940C1D0C940C1D3E
:1000F0000C940C1D0C940C1D0C940C1D0C940C1DDC
:100100000C940C1D0C940C1D0C940C1D0C940C1DCB
:100110000C940C1D0C940C1D0C940C1D0C9403558C
:100120000C9435550C9467550C9499550C940C1DF2
:100130000C940C1D0C94235A0C94505A0C947D5A18
:100140000C94AA5A0C94D75A0C94045B0C94315B0F
:100150000C945E5B0C948B5B0C94B85B0C940C1D44
:100160000C940C1D0C940C1D0C940C1D0C940C1D6B
:100170000C940C1D0C940C1D0C940C1D0C940C1D5B
:100180000C940C1D0C940C1D0C940C1D0C940C1D4B
:100190000C940C1D0C940C1D0C940C1D0C940C1D3B
:1001A0000C940C1D0C940C1D0C940C1D0C940C1D2B
:1001B0000C94A75D0C94D45D0C94015E0C942E5E9F
:1001C0000C945B5E0C94885E0C940C1D0C940C1DBE
:1001D0000C940C1D0C940C1D0C940C1D0C942F1FD6
:1001E0000C940C1D0C940C1D0C940C1D0C940C1DEB
:1001F0000C940C1D0C942C650C94E46507230723C8
:10020000FE224E244E244E244E244E240723D62470
:100210004E244E244E24D62407230723D624D62446
:1002200007233E6750676267746786679867AA67A7
:1002300005A84CCDB2D44EB93836A9020C50B991AC
:100240008688083CA6AAAA2ABE000000803F0800B3
:100250000000BE922449123EABAAAA2ABECDCCCC45
:100260004C3E00000080BEABAAAAAA3E00000000DF
:10027000BF000000803F0000000000084178D3BBB1
:100280004387D1133D190E3CC3BD4282AD2B3E685E
:10029000EC8276BED98FE1A93E4C80EFFFBE01C44F
:1002A000FF7F3F000000000007634236B79BD8A7DE
:1002B0001A39685618AEBAAB558C1D3CB7CC57638B
:1002C000BD6DEDFD753EF6177231BF000000803F39
:1002D0006E616E00696E660000407A10F35A00A0ED
:1002E000724E18090010A5D4E80000E876481700FF
:1002F00000E40B54020000CA9A3B000000E1F5053F
:10030000000080969800000040420F000000A08688
:1003100001000000102700000000E80300000000BA
:100320006400000000000A0000000000010000005E
:1003300000002C76D888DC674F0823DFC1DFAE5978
:10034000E1B1B796E5E3E453C63AE651997696E80B
:10035000E6C28426EB898C9B62ED407C6FFCEFBC8F
:100360009C9F40F2BAA56FA5F490055A2AF75C93BA
:100370006B6CF9676DC11BFCE0E40D47FEF520E6F0
:10038000B500D0ED902E0300943577050080841ED3
:10039000080000204E0A000000C80C333333330F2E
:1003A000986E12831141EF8D2114893BE65516CFCB
:1003B000FEE6DB18D1844B381BF77C1D901DA4BBD7
:1003C000E424203284725E228100C9F124ECA1E58C
:1003D0003D274E414E494E495459494E46CDCCCC0D
:1003E0003D0AD7233C17B7D13877CC2B329595E609
:1003F000241FB14F0A000020410000C84200401CE9
:100400004620BCBE4CCA1B0E5AAEC59D742B554728
:100410004E53494E463A0041542B43474E53555292
:10042000433D25640D0A0041542B43474E53494E2A
:10043000460D0A0041542B43474E535057523D2519
:10044000640D0A0041542B4753560D0A004154498C
:100450000D0A0041542B4346554E3D25640D0A00BC
:1004600041542B435245473D320D0A0041542B4322
:100470004D45453D320D0A0041542B4946433D321E
:100480002C320D0A0041542B4950523D256C640D0D
:100490000A00496E69743A2053494D383038207348
:1004A00075636365737300496E69743A2053494DEF
:1004B0003830382072657374617274696E67202EEB
:1004C0002E2E00496E69743A2053494D3830382039
:1004D0007374617274696E67202E2E2E0053494D1D
:1004E00038303820736572313A202020626175649B
:1004F00020726174652073796E6365640D0A005320
:10050000494D38303820736572313A202053746178
:100510007274696E672074686520646576696365C6
:10052000202E2E2E0D0A0053494D38303820736589
:1005300072313A20205374617274696E6720746856
:100540006520646576696365202E2E2E0D0A004FA6
:100550004B0041542B43504F57443D310041542BE5
:100560004346554E3D256400584F5F50574D3D253D
:1005700030356C6464203A203078253032780D0AAA
:100580000D0A00317070735F646576696174696F1C
:100590006E3D252B3130662C2000504C4C3A207497
:1005A000696D653D25366C642E2530336C64202BD7
:1005B00020253035642F3330452B36207365632C6E
:1005C00020004779726F5F54656D703D252B303682
:1005D0002E3266432028252B303664290D0A0D0A59
:1005E000004D7A3D252B30372E3366755420282553
:1005F0002B30366429092009004D783D252B3037F2
:100600002E336675542028252B303664292C204D36
:10061000793D252B30372E336675542028252B3015
:100620003664292C2000477A3D252B30372E326640
:100630006470732028253036642909200900477822
:100640003D252B30372E32666470732028252B30E1
:100650003664292C2047793D252B30372E326664AD
:1006600070732028252B303664292C2000417A3DD8
:10067000252B30352E3366672028252B303664290C
:10068000092009000941783D252B30352E33666756
:100690002028252B303664292C2041793D252B300C
:1006A000352E3366672028252B303664292C200010
:1006B000487967726F5F446577506F696E745F54F5
:1006C000656D703D252B30362E3266430D0A00488D
:1006D0007967726F5F54656D703D252B30362E3211
:1006E00066432C20487967726F5F52656C483D25E0
:1006F00030352E326625252C20004261726F5F5105
:100700004E483D25372E3266685061092009004267
:1007100061726F5F54656D703D252B30362E3266E9
:10072000432C204261726F5F503D25372E32666840
:1007300050612C20006D505F54656D703D252B304D
:10074000362E3266430920090055616463343D2525
:100750003464206D562C2055616463353D25346426
:10076000206D562C205573696C3D253464206D56E0
:100770002C200054696D65203D202530366C643A8C
:10078000205576636F3D253464206D562C205535F9
:10079000763D253464206D562C20556261743D25CC
:1007A0003464206D562C20003D3D3D3D3D3D3D3D9A
:1007B0003D3D3D3D3D3D3D3D3D3D3D3D3D3D3D3D69
:1007C0003D3D3D3D3D3D3D0D0A0D0A0046696E64CF
:1007D0004D65534154202D20555342206C6F67675F
:1007E000696E6720737461727465640D0A00256315
:1007F0000D0A3D3D3D3D3D3D3D3D3D3D3D3D3D3D8C
:100800003D3D3D3D3D3D3D3D3D3D3D3D3D3D3D3D18
:100810003D0D0A000D0A0D0A0D0A0000FDF9F6F360
:10082000F0ECE9E6E3DFDCD9D6D2CF00FDFAF6F34F
:10083000F0EDEAE6E3E0DDDAD7D3D000FDFAF7F336
:10084000F0EDEAE7E4E1DEDAD7D4D100FDFAF7F41F
:10085000F1EEEBE7E4E1DEDBD8D5D200FDFAF7F408
:10086000F1EEEBE8E5E2DFDCD9D6D300FDFAF7F4F0
:10087000F1EEEBE8E6E3E0DDDAD7D400FDFAF7F4D9
:10088000F2EFECE9E6E3E0DDDBD8D500FDFAF8F5C0
:10089000F2EFECE9E7E4E1DEDBD9D600FDFAF8F5AA
:1008A000F2EFEDEAE7E4E2DFDCD9D700FDFBF8F593
:1008B000F3F0EDEAE8E5E2E0DDDAD800FDFBF8F57B
:1008C000F3F0EEEBE8E6E3E0DEDBD900FDFBF8F663
:1008D000F3F1EEEBE9E6E4E1DFDCDA00FDFBF8F64C
:1008E000F3F1EEECE9E7E4E2DFDDDA00FEFBF9F636
:1008F000F4F1EFECEAE8E5E3E0DEDB00FEFBF9F61D
:10090000F4F2EFEDEBE8E6E3E1DFDC00FEFBF9F704
:10091000F4F2F0EDEBE9E7E4E2E0DD00FEFBF9F7ED
:10092000F5F2F0EEECE9E7E5E3E0DE00FEFCF9F7D6
:10093000F5F3F1EEECEAE8E6E4E1DF00FEFCFAF7BD
:10094000F5F3F1EFEDEBE9E6E4E2E000FEFCFAF8A6
:10095000F6F4F2EFEDEBE9E7E5E3E100FEFCFAF88F
:10096000F6F4F2F0EEECEAE8E6E4E200FEFCFAF877
:10097000F6F4F2F0EFEDEBE9E7E5E300FEFCFAF860
:10098000F7F5F3F1EFEDEBE9E8E6E400FEFCFBF947
:10099000F7F5F3F1F0EEECEAE8E7E500FEFCFBF931
:1009A000F7F5F4F2F0EEEDEBE9E7E600FEFDFBF91A
:1009B000F8F6F4F2F1EFEDECEAE8E700FEFDFBF902
:1009C000F8F6F5F3F1F0EEECEBE9E800FEFDFBFAEA
:1009D000F8F7F5F3F2F0EFEDECEAE900FEFDFBFAD3
:1009E000F8F7F5F4F2F1EFEEECEBE900FFFDFCFABD
:1009F000F9F7F6F4F3F2F0EFEDECEA00FFFDFCFAA4
:100A0000F9F8F6F5F4F2F1EFEEEDEB00FFFDFCFB8B
:100A1000F9F8F7F5F4F3F2F0EFEEEC00FFFDFCFB74
:100A2000FAF8F7F6F5F3F2F1F0EEED00FFFEFCFB5D
:100A3000FAF9F8F6F5F4F3F2F1EFEE00FFFEFDFB44
:100A4000FAF9F8F7F6F5F4F2F1F0EF00FFFEFDFC2D
:100A5000FBFAF9F7F6F5F4F3F2F1F000FFFEFDFC16
:100A6000FBFAF9F8F7F6F5F4F3F2F100FFFEFDFCFE
:100A7000FBFAF9F8F8F7F6F5F4F3F200FFFEFDFCE7
:100A8000FCFBFAF9F8F7F6F5F5F4F300FFFEFEFDCE
:100A9000FCFBFAF9F9F8F7F6F5F5F400FFFEFEFDB8
:100AA000FCFBFBFAF9F8F8F7F6F5F500FFFFFEFDA1
:100AB000FDFCFBFAFAF9F8F8F7F6F600FFFFFEFD89
:100AC000FDFCFCFBFAFAF9F8F8F7F700FFFFFEFE71
:100AD000FDFDFCFBFBFAFAF9F9F8F800FFFFFEFE5A
:100AE000FDFDFCFCFBFBFAFAF9F9F80000FFFFFE44
:100AF000FEFDFDFCFCFCFBFBFAFAF90000FFFFFE2B
:100B0000FEFEFDFDFDFCFCFBFBFBFA0000FFFFFF12
:100B1000FEFEFEFDFDFDFDFCFCFCFB0000FFFFFFFB
:100B2000FFFEFEFEFEFDFDFDFDFCFC000000FFFFE4
:100B3000FFFFFFFEFEFEFEFEFEFDFD00000000FFCB
:100B4000FFFFFFFFFFFFFFFEFEFEFE0000000000B4
:100B5000000000FFFFFFFFFFFFFFFF00000000009D
:100B60000000000000000000000000000000000085
:100B7000000000010101010101010100000000016C
:100B80000101010101010102020202000000010154
:100B9000010101020202020202030300000101013D
:100BA0000102020202030303030404000001010125
:100BB000020202030303030404040500000101020E
:100BC00002020303030404050505060000010102F7
:100BD00002030304040405050606070001010202DE
:100BE00003030404050506060707080001010202C5
:100BF00003030405050606070708080001010203B0
:100C00000304040506060708080909000101020398
:100C10000304050606070808090A0A000102020380
:100C200004050506070808090A0B0B000102020368
:100C3000040506070708090A0B0B0C000102030450
:100C40000405060708090A0B0B0C0D00010203043A
:100C50000506070808090A0B0C0D0E000102030423
:100C600005060708090A0B0C0D0E0F00010203040C
:100C7000050607090A0B0C0D0E0F100001020305F3
:100C8000060708090A0B0C0E0F10110001020405DB
:100C90000607080A0B0C0D0E0F11120001030405C4
:100CA0000608090A0B0D0E0F1012130001030405AC
:100CB0000708090B0C0D0E10111214000103040695
:100CC00007080A0B0C0E0F1112131500010304067E
:100CD00007090A0C0D0E1011131416000203050665
:100CE00008090B0C0E0F111214151700020305064C
:100CF00008090B0D0E101113141617000203050737
:100D0000080A0B0D0F10121415171800020305071F
:100D1000080A0C0E0F111314161819000204050707
:100D2000090B0C0E1012131517191A0002040507EF
:100D3000090B0D0F1012141618191B0002040608D7
:100D4000090B0D0F11131517181A1C0002040608C1
:100D50000A0C0E1011131517191B1D0002040608AA
:100D60000A0C0E10121416181A1C1E000204060893
:100D70000A0C0E11131517191B1D1F00020406097A
:100D80000B0D0F111315171A1C1E20000204070962
:100D90000B0D0F121416181A1C1F2100020507094B
:100DA0000B0E10121417191B1D2022000205070933
:100DB0000C0E10131517191C1E2023000205070A1C
:100DC0000C0E111315181A1D1F2124000205070A05
:100DD0000C0F111416181B1D202225000305080AEC
:100DE0000D0F121417191C1E212326000305080AD3
:100DF0000D0F1215171A1C1F212426000305080BBE
:100E00000D101215181A1D20222527000305080BA6
:100E10000D101316181B1E20232628000306080B8E
:100E20000E111316191C1E21242729000306080B76
:100E30000E111417191C1F2225272A000306090C5E
:100E40000E1114171A1D202325282B000306090C48
:100E50000F1215181A1D202326292C000306090C31
:100E60000F1215181B1E2124272A2D000306090C1A
:100E70000F1215191C1F2225282B2E000306090D01
:100E8000101316191C1F2226292C2F0003060A0DE9
:100E90001013161A1D202326292D3000803280645D
:100EA000809680C980FB802D815F819281C481F60C
:100EB0008128825B828D82BF82F18224835683885F
:100EC00083BA83ED831F8451848384B684E8841AB3
:100ED000854C857E85B185E385158647867A86AC07
:100EE00086DE86108742877487A787D9870B883D5F
:100EF000886F88A188D488068938896A899C89CEB8
:100F000089008A328A658A978AC98AFB8A2D8B5F13
:100F10008B918BC38BF58B278C598C8B8CBD8CEF75
:100F20008C218D538D858DB78DE98D1B8E4D8E7FD8
:100F30008EB18EE38E158F478F798FAB8FDC8F0E3E
:100F40009040907290A490D690079139916B919DAA
:100F500091CF910092329264929692C792F9922B1D
:100F6000935D938E93C093F293239455948694B893
:100F700094EA941B954D957E95B095E19513964412
:100F8000967696A796D9960A973C976D979F97D095
:100F9000970198339864989598C798F89829995B21
:100FA000998C99BD99EE99209A519A829AB39AE4B4
:100FB0009A159B469B789BA99BDA9B0B9C3C9C6D4E
:100FC0009C9E9CCF9C009D319D629D939DC39DF4F2
:100FD0009D259E569E879EB89EE89E199F4A9F7BA0
:100FE0009FAB9FDC9F0DA03DA06EA09FA0CFA00057
:100FF000A130A161A191A1C2A1F2A123A253A28417
:10100000A2B4A2E4A215A345A375A3A6A3D6A306E2
:10101000A436A467A497A4C7A4F7A427A557A587B7
:10102000A5B7A5E7A517A647A677A6A7A6D7A6079B
:10103000A737A767A797A7C6A7F6A726A856A88584
:10104000A8B5A8E5A814A944A973A9A3A9D2A9027F
:10105000AA31AA61AA90AAC0AAEFAA1EAB4EAB7D84
:10106000ABACABDBAB0BAC3AAC69AC98ACC7ACF699
:10107000AC25AD54AD83ADB2ADE1AD10AE3FAE6EBB
:10108000AE9DAECCAEFAAE29AF58AF86AFB5AFE4E9
:10109000AF12B041B06FB09EB0CCB0FBB029B15828
:1010A000B186B1B4B1E3B111B23FB26DB29CB2CA74
:1010B000B2F8B226B354B382B3B0B3DEB30CB43AD1
:1010C000B468B496B4C3B4F1B41FB54DB57AB5A83D
:1010D000B5D6B503B631B65EB68CB6B9B6E7B614BA
:1010E000B741B76FB79CB7C9B7F6B724B851B87E48
:1010F000B8ABB8D8B805B932B95FB98CB9B9B9E6E7
:10110000B912BA3FBA6CBA99BAC5BAF2BA1FBB4B98
:10111000BB78BBA4BBD1BBFDBB29BC56BC82BCAE5B
:10112000BCDBBC07BD33BD5FBD8BBDB7BDE3BD0F31
:10113000BE3BBE67BE93BEBFBEEBBE16BF42BF6E18
:10114000BF99BFC5BFF0BF1CC047C073C09EC0CA17
:10115000C0F5C020C14CC177C1A2C1CDC1F8C12327
:10116000C24EC279C2A4C2CFC2FAC225C350C37A4A
:10117000C3A5C3D0C3FAC325C44FC47AC4A4C4CF83
:10118000C4F9C423C54EC578C5A2C5CCC5F6C520D3
:10119000C64AC674C69EC6C8C6F2C61CC746C76F36
:1011A000C799C7C3C7ECC716C83FC869C892C8BCAF
:1011B000C8E5C80EC938C961C98AC9B3C9DCC9053F
:1011C000CA2ECA57CA80CAA9CAD2CAFACA23CB4CE5
:1011D000CB74CB9DCBC5CBEECB16CC3FCC67CC8FA5
:1011E000CCB8CCE0CC08CD30CD58CD80CDA8CDD07A
:1011F000CDF8CD20CE48CE6FCE97CEBFCEE6CE0E68
:10120000CF35CF5DCF84CFACCFD3CFFACF21D0496C
:10121000D070D097D0BED0E5D00CD133D159D18089
:10122000D1A7D1CED1F4D11BD241D268D28ED2B5C2
:10123000D2DBD201D328D34ED374D39AD3C0D3E612
:10124000D30CD432D458D47DD4A3D4C9D4EFD4147D
:10125000D53AD55FD585D5AAD5CFD5F4D51AD63F01
:10126000D664D689D6AED6D3D6F8D61DD742D766A1
:10127000D78BD7B0D7D4D7F9D71DD842D866D88A5C
:10128000D8AFD8D3D8F7D81BD93FD963D987D9AB32
:10129000D9CFD9F3D916DA3ADA5EDA81DAA5DAC823
:1012A000DAECDA0FDB32DB56DB79DB9CDBBFDBE22F
:1012B000DB05DC28DC4BDC6DDC90DCB3DCD6DCF859
:1012C000DC1BDD3DDD5FDD82DDA4DDC6DDE9DD0BA0
:1012D000DE2DDE4FDE71DE93DEB4DED6DEF8DE1A02
:1012E000DF3BDF5DDF7EDFA0DFC1DFE2DF04E02583
:1012F000E046E067E088E0A9E0CAE0EBE00CE12D21
:10130000E14DE16EE18EE1AFE1CFE1F0E110E230DD
:10131000E251E271E291E2B1E2D1E2F1E211E330B5
:10132000E350E370E38FE3AFE3CEE3EEE30DE42DB0
:10133000E44CE46BE48AE4A9E4C8E4E7E406E525C8
:10134000E544E562E581E5A0E5BEE5DDE5FBE519FF
:10135000E638E656E674E692E6B0E6CEE6ECE60A55
:10136000E728E745E763E781E79EE7BCE7D9E7F7CA
:10137000E714E831E84EE86BE888E8A5E8C2E8DF62
:10138000E8FCE819E935E952E96EE98BE9A7E9C417
:10139000E9E0E9FCE918EA34EA50EA6CEA88EAA4F0
:1013A000EAC0EADBEAF7EA13EB2EEB4AEB65EB80E7
:1013B000EB9CEBB7EBD2EBEDEB08EC23EC3EEC58FF
:1013C000EC73EC8EECA8ECC3ECDDECF8EC12ED2C3D
:1013D000ED47ED61ED7BED95EDAFEDC9EDE3EDFC96
:1013E000ED16EE30EE49EE63EE7CEE95EEAFEEC814
:1013F000EEE1EEFAEE13EF2CEF45EF5EEF76EF8FB6
:10140000EFA8EFC0EFD9EFF1EF09F022F03AF05278
:10141000F06AF082F09AF0B2F0CAF0E1F0F9F0115F
:10142000F128F140F157F16EF186F19DF1B4F1CB65
:10143000F1E2F1F9F110F226F23DF254F26AF28192
:10144000F297F2AEF2C4F2DAF2F0F206F31CF332E3
:10145000F348F35EF374F389F39FF3B5F3CAF3DF54
:10146000F3F5F30AF41FF434F449F45EF473F488EA
:10147000F49DF4B1F4C6F4DBF4EFF403F518F52CA5
:10148000F540F554F568F57CF590F5A4F5B8F5CC84
:10149000F5DFF5F3F506F61AF62DF640F653F66786
:1014A000F67AF68DF6A0F6B2F6C5F6D8F6EAF6FDAF
:1014B000F610F722F734F747F759F76BF77DF78FF8
:1014C000F7A1F7B3F7C4F7D6F7E8F7F9F70BF81C6D
:1014D000F82EF83FF850F861F872F883F894F8A500
:1014E000F8B6F8C6F8D7F8E7F8F8F808F919F929BE
:1014F000F939F949F959F969F979F989F998F9A89E
:10150000F9B8F9C7F9D7F9E6F9F5F904FA14FA23A5
:10151000FA32FA41FA4FFA5EFA6DFA7CFA8AFA99CF
:10152000FAA7FAB5FAC4FAD2FAE0FAEEFAFCFA0A25
:10153000FB18FB25FB33FB41FB4EFB5CFB69FB7699
:10154000FB83FB91FB9EFBABFBB8FBC4FBD1FBDE3B
:10155000FBEBFBF7FB04FC10FC1CFC29FC35FC41FD
:10156000FC4DFC59FC65FC70FC7CFC88FC93FC9FEA
:10157000FCAAFCB6FCC1FCCCFCD7FCE2FCEDFCF800
:10158000FC03FD0EFD18FD23FD2EFD38FD42FD4D33
:10159000FD57FD61FD6BFD75FD7FFD89FD93FD9C94
:1015A000FDA6FDB0FDB9FDC2FDCCFDD5FDDEFDE71C
:1015B000FDF0FDF9FD02FE0BFE13FE1CFE25FE2DC7
:1015C000FE36FE3EFE46FE4EFE56FE5EFE66FE6E9B
:1015D000FE76FE7EFE85FE8DFE94FE9CFEA3FEAA98
:1015E000FEB2FEB9FEC0FEC7FECEFED4FEDBFEE2BA
:1015F000FEE8FEEFFEF5FEFCFE02FF08FF0EFF1404
:10160000FF1AFF20FF26FF2CFF31FF37FF3CFF4270
:10161000FF47FF4CFF52FF57FF5CFF61FF66FF6A09
:10162000FF6FFF74FF78FF7DFF81FF86FF8AFF8ECB
:10163000FF92FF96FF9AFF9EFFA2FFA6FFA9FFADB4
:10164000FFB0FFB4FFB7FFBBFFBEFFC1FFC4FFC7C2
:10165000FFCAFFCDFFCFFFD2FFD5FFD7FFD9FFDCF9
:10166000FFDEFFE0FFE2FFE4FFE6FFE8FFEAFFEC5A
:10167000FFEEFFEFFFF1FFF2FFF3FFF5FFF6FFF7DD
:10168000FFF8FFF9FFFAFFFBFFFBFFFCFFFDFFFD8B
:10169000FFFEFFFEFFFEFFFEFFFEFFFFFFFEFFFE61
:1016A000FFFEFFFEFFFEFFFDFFFDFFFCFFFBFFFB5C
:1016B000FFFAFFF9FFF8FFF7FFF6FFF5FFF3FFF280
:1016C000FFF1FFEFFFEEFFECFFEAFFE8FFE6FFE4CC
:1016D000FFE2FFE0FFDEFFDCFFD9FFD7FFD5FFD23F
:1016E000FFCFFFCDFFCAFFC7FFC4FFC1FFBEFFBBD7
:1016F000FFB7FFB4FFB0FFADFFA9FFA6FFA2FF9E9B
:10170000FF9AFF96FF92FF8EFF8AFF86FF81FF7D83
:10171000FF78FF74FF6FFF6AFF66FF61FF5CFF5792
:10172000FF52FF4CFF47FF42FF3CFF37FF31FF2CCA
:10173000FF26FF20FF1AFF14FF0EFF08FF02FFFC29
:10174000FEF5FEEFFEE8FEE2FEDBFED4FECEFEC7B7
:10175000FEC0FEB9FEB2FEAAFEA3FE9CFE94FE8D64
:10176000FE85FE7EFE76FE6EFE66FE5EFE56FE4E3A
:10177000FE46FE3EFE36FE2DFE25FE1CFE13FE0B33
:10178000FE02FEF9FDF0FDE7FDDEFDD5FDCCFDC25C
:10179000FDB9FDB0FDA6FD9CFD93FD89FD7FFD75A6
:1017A000FD6BFD61FD57FD4DFD42FD38FD2EFD2316
:1017B000FD18FD0EFD03FDF8FCEDFCE2FCD7FCCCB2
:1017C000FCC1FCB6FCAAFC9FFC93FC88FC7CFC7072
:1017D000FC65FC59FC4DFC41FC35FC29FC1CFC1053
:1017E000FC04FCF7FBEBFBDEFBD1FBC4FBB8FBAB63
:1017F000FB9EFB91FB83FB76FB69FB5CFB4EFB4195
:10180000FB33FB25FB18FB0AFBFCFAEEFAE0FAD2ED
:10181000FAC4FAB5FAA7FA99FA8AFA7CFA6DFA5E6E
:10182000FA4FFA41FA32FA23FA14FA04FAF5F9E611
:10183000F9D7F9C7F9B8F9A8F998F989F979F969DF
:10184000F959F949F939F929F919F908F9F8F8E7CD
:10185000F8D7F8C6F8B6F8A5F894F883F872F861E6
:10186000F850F83FF82EF81CF80BF8F9F7E8F7D61F
:10187000F7C4F7B3F7A1F78FF77DF76BF759F74781
:10188000F734F722F710F7FDF6EAF6D8F6C5F6B208
:10189000F6A0F68DF67AF667F653F640F62DF61AB0
:1018A000F606F6F3F5DFF5CCF5B8F5A4F590F57C82
:1018B000F568F554F540F52CF518F503F5EFF4DB74
:1018C000F4C6F4B1F49DF488F473F45EF449F4348E
:1018D000F41FF40AF4F5F3DFF3CAF3B5F39FF389C9
:1018E000F374F35EF348F332F31CF306F3F0F2DA29
:1018F000F2C4F2AEF297F281F26AF254F23DF226AD
:10190000F210F2F9F1E2F1CBF1B4F19DF186F16E52
:10191000F157F140F128F111F1F9F0E1F0CAF0B21C
:10192000F09AF082F06AF052F03AF022F009F0F109
:10193000EFD9EFC0EFA8EF8FEF76EF5EEF45EF2C1A
:10194000EF13EFFAEEE1EEC8EEAFEE95EE7CEE634C
:10195000EE49EE30EE16EEFCEDE3EDC9EDAFED95A0
:10196000ED7BED61ED47ED2CED12EDF8ECDDECC318
:10197000ECA8EC8EEC73EC58EC3EEC23EC08ECEDB0
:10198000EBD2EBB7EB9CEB80EB65EB4AEB2EEB136A
:10199000EBF7EADBEAC0EAA4EA88EA6CEA50EA3448
:1019A000EA18EAFCE9E0E9C4E9A7E98BE96EE95243
:1019B000E935E919E9FCE8DFE8C2E8A5E888E86B61
:1019C000E84EE831E814E8F7E7D9E7BCE79EE7819D
:1019D000E763E745E728E70AE7ECE6CEE6B0E692FC
:1019E000E674E656E638E619E6FBE5DDE5BEE5A079
:1019F000E581E562E544E525E506E5E7E4C8E4A917
:101A0000E48AE46BE44CE42DE40DE4EEE3CEE3AFD2
:101A1000E38FE370E350E330E311E3F1E2D1E2B1AD
:101A2000E291E271E251E230E210E2F0E1CFE1AFA7
:101A3000E18EE16EE14DE12DE10CE1EBE0CAE0A9C0
:101A4000E088E067E046E025E004E0E2DFC1DFA0F7
:101A5000DF7EDF5DDF3BDF1ADFF8DED6DEB4DE934C
:101A6000DE71DE4FDE2DDE0BDEE9DDC6DDA4DD82BC
:101A7000DD5FDD3DDD1BDDF8DCD6DCB3DC90DC6D4D
:101A8000DC4BDC28DC05DCE2DBBFDB9CDB79DB56F6
:101A9000DB32DB0FDBECDAC8DAA5DA81DA5EDA3AC0
:101AA000DA16DAF3D9CFD9ABD987D963D93FD91BA5
:101AB000D9F7D8D3D8AFD88AD866D842D81DD8F9A4
:101AC000D7D4D7B0D78BD766D742D71DD7F8D6D3C0
:101AD000D6AED689D664D63FD61AD6F4D5CFD5AAF7
:101AE000D585D55FD53AD514D5EFD4C9D4A3D47D47
:101AF000D458D432D40CD4E6D3C0D39AD374D34EB2
:101B0000D328D301D3DBD2B5D28ED268D241D21B37
:101B1000D2F4D1CED1A7D180D159D133D10CD1E5D6
:101B2000D0BED097D070D049D021D0FACFD3CFAC8F
:101B3000CF84CF5DCF35CF0ECFE6CEBFCE97CE6F61
:101B4000CE48CE20CEF8CDD0CDA8CD80CD58CD304A
:101B5000CD08CDE0CCB8CC8FCC67CC3FCC16CCEE4A
:101B6000CBC5CB9DCB74CB4CCB23CBFACAD2CAA965
:101B7000CA80CA57CA2ECA05CADCC9B3C98AC96194
:101B8000C938C90EC9E5C8BCC892C869C83FC816DB
:101B9000C8ECC7C3C799C76FC746C71CC7F2C6C83A
:101BA000C69EC674C64AC620C6F6C5CCC5A2C578B0
:101BB000C54EC523C5F9C4CFC4A4C47AC44FC42537
:101BC000C4FAC3D0C3A5C37AC350C325C3FAC2CFD6
:101BD000C2A4C279C24EC223C2F8C1CDC1A2C1778C
:101BE000C14CC120C1F5C0CAC09EC073C047C01C53
:101BF000C0F0BFC5BF99BF6EBF42BF16BFEBBEBF2F
:101C0000BE93BE67BE3BBE0FBEE3BDB7BD8BBD5F1F
:101C1000BD33BD07BDDBBCAEBC82BC56BC29BCFD20
:101C2000BBD1BBA4BB78BB4BBB1FBBF2BAC5BA9937
:101C3000BA6CBA3FBA12BAE6B9B9B98CB95FB9325F
:101C4000B905B9D8B8ABB87EB851B824B8F6B7C999
:101C5000B79CB76FB741B714B7E7B6B9B68CB65EE5
:101C6000B631B603B6D6B5A8B57AB54DB51FB5F140
:101C7000B4C3B496B468B43AB40CB4DEB3B0B382AF
:101C8000B354B326B3F8B2CAB29CB26DB23FB2112C
:101C9000B2E3B1B4B186B158B129B1FBB0CCB09EBA
:101CA000B06FB041B012B0E4AFB5AF86AF58AF2956
:101CB000AFFAAECCAE9DAE6EAE3FAE10AEE1ADB201
:101CC000AD83AD54AD25ADF6ACC7AC98AC69AC3ABC
:101CD000AC0BACDBABACAB7DAB4EAB1EABEFAAC081
:101CE000AA90AA61AA31AA02AAD2A9A3A973A94457
:101CF000A914A9E5A8B5A885A856A826A8F6A7C638
:101D0000A797A767A737A707A7D7A6A7A677A64726
:101D1000A617A6E7A5B7A587A557A527A5F7A4C722
:101D2000A497A467A436A406A4D6A3A6A375A34526
:101D3000A315A3E4A2B4A284A253A223A2F2A1C237
:101D4000A191A161A130A100A1CFA09FA06EA03D53
:101D5000A00DA0DC9FAB9F7B9F4A9F199FE89EB878
:101D60009E879E569E259EF49DC39D939D629D31A8
:101D70009D009DCF9C9E9C6D9C3C9C0B9CDA9BA9DE
:101D80009B789B469B159BE49AB39A829A519A2022
:101D90009AEE99BD998C995B992999F898C798956D
:101DA00098649833980198D0979F976D973C970ABD
:101DB00097D996A796769644961396E195B0957E18
:101DC000954D951B95EA94B894869455942394F276
:101DD00093C0938E935D932B93F992C792969264DE
:101DE0009232920092CF919D916B9139910791D649
:101DF00090A490729040900E90DC8FAB8F798F47BB
:101E00008F158FE38EB18E7F8E4D8E1B8EE98DB731
:101E10008D858D538D218DEF8CBD8C8B8C598C27AE
:101E20008CF58BC38B918B5F8B2D8BFB8AC98A972B
:101E30008A658A328A008ACE899C896A89388906AD
:101E400089D488A1886F883D880B88D987A7877433
:101E50008742871087DE86AC867A8647861586E3BA
:101E600085B1857E854C851A85E884B68483845146
:101E7000841F84ED83BA83888356832483F182BFD1
:101E8000828D825B822882F681C48192815F812D5E
:101E900081FB80C9809680648032800080CD7F9BEA
:101EA0007F697F367F047FD27EA07E6D7E3B7E0978
:101EB0007ED77DA47D727D407D0E7DDB7CA97C7705
:101EC0007C457C127CE07BAE7B7C7B497B177BE591
:101ED0007AB37A817A4E7A1C7AEA79B8798579531D
:101EE000792179EF78BD788B7858782678F477C2A5
:101EF0007790775E772B77F976C77695766376312C
:101F000076FF75CD759A75687536750475D274A0AF
:101F1000746E743C740A74D873A67374734273102D
:101F200073DE72AC727A7248721672E471B27180AA
:101F3000714E711C71EA70B870867054702370F124
:101F40006FBF6F8D6F5B6F296FF86EC66E946E6298
:101F50006E306EFF6DCD6D9B6D696D386D066DD405
:101F60006CA26C716C3F6C0D6CDC6BAA6B796B476F
:101F70006B156BE46AB26A816A4F6A1E6AEC69BBD0
:101F800069896958692669F568C368926860682F2D
:101F900068FE67CC679B676A6738670767D666A481
:101FA00066736642661166DF65AE657D654C651BCE
:101FB00065EA64B964876456642564F463C3639214
:101FC0006361633063FF62CE629D626C623C620B50
:101FD00062DA61A961786147611761E660B5608482
:101FE0006054602360F25FC25F915F605F305FFFAB
:101FF0005ECF5E9E5E6E5E3D5E0D5EDC5DAC5D7BCB
:102000005D4B5D1B5DEA5CBA5C8A5C595C295CF9DE
:102010005BC95B985B685B385B085BD85AA85A78E9
:102020005A485A185AE859B859885958592859F8E5
:1020300058C8589858685839580958D957A9577ADC
:10204000574A571A57EB56BB568C565C562D56FDC1
:1020500055CE559E556F553F551055E154B154829C
:102060005453542454F453C5539653675338530967
:1020700053DA52AB527C524D521E52EF51C0519125
:1020800051625133510551D650A75079504A501BD7
:1020900050ED4FBE4F904F614F334F044FD64EA778
:1020A0004E794E4B4E1C4EEE4DC04D924D634D350C
:1020B0004D074DD94CAB4C7D4C4F4C214CF34BC58F
:1020C0004B974B694B3C4B0E4BE04AB24A854A5703
:1020D0004A294AFC49CE49A149734946491849EB66
:1020E00048BE489048634836480948DB47AE4781B8
:1020F0004754472747FA46CD46A0467346464619F9
:1021000046ED45C045934566453A450D45E044B426
:102110004487445B442E440244D643A9437D435143
:10212000432443F842CC42A042744248421C42F04D
:1021300041C44198416C4140411441E940BD409146
:102140004066403A400F40E33FB83F8C3F613F3527
:102150003F0A3FDF3EB33E883E5D3E323E073EDCF7
:102160003DB13D863D5B3D303D053DDA3CAF3C85B4
:102170003C5A3C2F3C053CDA3BB03B853B5B3B305B
:102180003B063BDC3AB13A873A5D3A333A093ADFEB
:1021900039B5398B39613937390D39E338B9389068
:1021A0003866383C381338E937C03796376D3743CF
:1021B000371A37F136C7369E3675364C362336FA1F
:1021C00035D135A8357F3556352D350535DC34B359
:1021D000348B3462343A341134E933C03398337079
:1021E0003347331F33F732CF32A7327F3257322F84
:1021F000320732DF31B7319031683140311931F176
:1022000030CA30A2307B3053302C300530DE2FB650
:102210002F8F2F682F412F1A2FF32ECC2EA62E7F13
:102220002E582E312E0B2EE42DBE2D972D712D4ABA
:102230002D242DFE2CD72CB12C8B2C652C3F2C194A
:102240002CF32BCD2BA72B822B5C2B362B102BEBBF
:102250002AC52AA02A7A2A552A302A0B2AE529C01B
:10226000299B29762951292C290729E228BD28995B
:102270002874284F282B280628E227BD2799277580
:102280002750272C270827E426C0269C267826548A
:102290002630260C26E925C525A1257E255A253779
:1022A000251325F024CD24A9248624632440241D4D
:1022B00024FA23D723B42392236F234C2329230703
:1022C00023E422C222A0227D225B2239221622F49C
:1022D00021D221B0218E216C214B2129210721E51A
:1022E00020C420A22081205F203E201D20FB1FDA79
:1022F0001FB91F981F771F561F351F141FF31ED2BB
:102300001EB21E911E711E501E301E0F1EEF1DCFDD
:102310001DAE1D8E1D6E1D4E1D2E1D0E1DEE1CCFE5
:102320001CAF1C8F1C701C501C311C111CF21BD2CA
:102330001BB31B941B751B561B371B181BF91ADA92
:102340001ABB1A9D1A7E1A5F1A411A221A041AE63B
:1023500019C719A9198B196D194F1931191319F5C5
:1023600018D718BA189C187E186118431826180830
:1023700018EB17CE17B117941777175A173D172078
:10238000170317E616CA16AD169116741658163BA3
:10239000161F160316E715CB15AF15931577155BAA
:1023A000153F1524150815EC14D114B5149A147F93
:1023B00014631448142D141214F713DC13C113A75B
:1023C000138C13711357133C1322130713ED12D3FD
:1023D00012B8129E1284126A12501236121C120384
:1023E00012E911CF11B6119C1183116A11501137E6
:1023F000111E110511EC10D310BA10A11089107024
:102400001057103F1026100E10F60FDD0FC50FAD40
:102410000F950F7D0F650F4D0F350F1E0F060FEE39
:102420000ED70EBF0EA80E910E790E620E4B0E3413
:102430000E1D0E060EEF0DD90DC20DAB0D950D7EC6
:102440000D680D510D3B0D250D0F0DF90CE30CCD55
:102450000CB70CA10C8B0C760C600C4A0C350C20C4
:102460000C0A0CF50BE00BCB0BB60BA10B8C0B770E
:102470000B620B4E0B390B240B100BFC0AE70AD333
:102480000ABF0AAB0A970A830A6F0A5B0A470A3334
:102490000A200A0C0AF909E509D209BF09AC099812
:1024A00009850972095F094D093A092709150902C9
:1024B00009EF08DD08CB08B808A608940882087060
:1024C000085E084C083B08290817080608F407E3CB
:1024D00007D107C007AF079E078D077C076B075A18
:1024E0000749073907280718070707F706E606D63A
:1024F00006C606B606A6069606860676066706573A
:102500000647063806280619060A06FB05EB05DC11
:1025100005CD05BE05B005A10592058305750566C7
:102520000558054A053B052D051F0511050305F551
:1025300004E704DA04CC04BE04B104A304960489BD
:10254000047C046E046104540447043B042E0421FB
:102550000414040804FB03EF03E303D603CA03BE19
:1025600003B203A6039A038F03830377036C03600C
:1025700003550349033E03330328031D03120307D6
:1025800003FC02F102E702DC02D102C702BD02B283
:1025900002A8029E0294028A02800276026C026302
:1025A0000259024F0246023D0233022A022102185A
:1025B000020F020602FD01F401EC01E301DA01D28F
:1025C00001C901C101B901B101A901A1019901919B
:1025D00001890181017A0172016B0163015C01557E
:1025E000014D0146013F01380131012B0124011D3C
:1025F00001170110010A010301FD00F700F100EBD2
:1026000000E500DF00D900D300CE00C800C300BD44
:1026100000B800B300AD00A800A3009E009900958B
:102620000090008B00870082007E007900750071A9
:10263000006D006900650061005D005900560052A0
:10264000004F004B004800440041003E003B003872
:10265000003500320030002D002A0028002600231B
:102660000021001F001D001B00190017001500139A
:1026700000110010000E000D000C000A00090008F7
:102680000007000600050004000400030002000229
:102690000001000100010001000100010001000132
:1026A0000001000100010002000200030004000418
:1026B00000050006000700080009000A000C000DD4
:1026C000000E001000110013001500170019001B68
:1026D000001D001F0021002300260028002A002DD5
:1026E0000030003200350038003B003E004100441D
:1026F0000048004B004F005200560059005D006139
:1027000000650069006D007100750079007E00822F
:102710000087008B009000950099009E00A300A800
:1027200000AD00B300B800BD00C300C800CE00D3A8
:1027300000D900DF00E500EB00F100F700FD000329
:10274000010A01100117011D0124012B013101387B
:10275000013F0146014D0155015C0163016B0172AE
:10276000017A018101890191019901A101A901B1B8
:1027700001B901C101C901D201DA01E301EC01F49F
:1027800001FD0106020F02180221022A0233023D56
:102790000246024F02590263026C02760280028AEC
:1027A0000294029E02A802B202BD02C702D102DC5C
:1027B00002E702F102FC02070312031D03280333A0
:1027C000033E034903550360036C03770383038FC0
:1027D000039A03A603B203BE03CA03D603E303EFBF
:1027E00003FB030804140421042E043B044704548F
:1027F0000461046E047C0489049604A304B104BE3D
:1028000004CC04DA04E704F504030511051F052DC3
:10281000053B054A0558056605750583059205A122
:1028200005B005BE05CD05DC05EB05FB050A06195F
:102830000628063806470657066706760686069671
:1028400006A606B606C606D606E606F70607071863
:10285000072807390749075A076B077C078D079E2A
:1028600007AF07C007D107E307F4070608170829D1
:10287000083B084C085E08700882089408A608B84F
:1028800008CB08DD08EF080209150927093A094DA8
:10289000095F09720985099809AC09BF09D209E5E0
:1028A00009F9090C0A200A330A470A5B0A6F0A83EE
:1028B0000A970AAB0ABF0AD30AE70AFC0A100B24DC
:1028C0000B390B4E0B620B770B8C0BA10BB60BCBA2
:1028D0000BE00BF50B0A0C200C350C4A0C600C7647
:1028E0000C8B0CA10CB70CCD0CE30CF90C0F0D25C7
:1028F0000D3B0D510D680D7E0D950DAB0DC20DD923
:102900000DEF0D060E1D0E340E4B0E620E790E915C
:102910000EA80EBF0ED70EEE0E060F1E0F350F4D72
:102920000F650F7D0F950FAD0FC50FDD0FF60F0E65
:102930001026103F10571070108910A110BA10D334
:1029400010EC1005111E11371150116A1183119CE2
:1029500011B611CF11E91103121C12361250126A6E
:102960001284129E12B812D312ED12071322133CD6
:1029700013571371138C13A713C113DC13F713121E
:10298000142D14481463147F149A14B514D114EC44
:1029900014081524153F155B1577159315AF15CB46
:1029A00015E71503161F163B16581674169116AD2B
:1029B00016CA16E616031720173D175A17771794ED
:1029C00017B117CE17EB1708182618431861187E91
:1029D000189C18BA18D718F518131931194F196D12
:1029E000198B19A919C719E619041A221A411A5F75
:1029F0001A7E1A9D1ABB1ADA1AF91A181B371B56B7
:102A00001B751B941BB31BD21BF21B111C311C50DA
:102A10001C701C8F1CAF1CCF1CEE1C0E1D2E1D4EDF
:102A20001D6E1D8E1DAE1DCF1DEF1D0F1E301E50C5
:102A30001E711E911EB21ED21EF31E141F351F568C
:102A40001F771F981FB91FDA1FFB1F1D203E205F35
:102A5000208120A220C420E520072129214B216CC0
:102A6000218E21B021D221F421162239225B227D30
:102A700022A022C222E422072329234C236F23927F
:102A800023B423D723FA231D24402463248624A9B6
:102A900024CD24F024132537255A257E25A125C5CC
:102AA00025E9250C263026542678269C26C026E4C7
:102AB0002608272C27502775279927BD27E22706A8
:102AC000282B284F2874289928BD28E22807292C6C
:102AD00029512976299B29C029E5290B2A302A5515
:102AE0002A7A2AA02AC52AEB2A102B362B5C2B82A5
:102AF0002BA72BCD2BF32B192C3F2C652C8B2CB11A
:102B00002CD72CFE2C242D4A2D712D972DBE2DE473
:102B10002D0B2E312E582E7F2EA62ECC2EF32E1AB4
:102B20002F412F682F8F2FB62FDE2F05302C3053DB
:102B3000307B30A230CA30F13019314031683190E9
:102B400031B731DF3107322F3257327F32A732CFE0
:102B500032F7321F33473370339833C033E93311C0
:102B6000343A3462348B34B334DC3405352D355685
:102B7000357F35A835D135FA3523364C3675369E36
:102B800036C736F1361A3743376D379637C037E9CF
:102B90003713383C3866389038B938E3380D393750
:102BA0003961398B39B539DF39093A333A5D3A87BA
:102BB0003AB13ADC3A063B303B5B3B853BB03BDA13
:102BC0003B053C2F3C5A3C853CAF3CDA3C053D3054
:102BD0003D5B3D863DB13DDC3D073E323E5D3E887E
:102BE0003EB33EDF3E0A3F353F613F8C3FB83FE397
:102BF0003F0F403A4066409140BD40E9401441409B
:102C0000416C419841C441F0411C4248427442A089
:102C100042CC42F842244351437D43A943D6430268
:102C2000442E445B448744B444E0440D453A456631
:102C3000459345C045ED45194646467346A046CDE9
:102C400046FA46274754478147AE47DB470948368F
:102C50004863489048BE48EB48184946497349A123
:102C600049CE49FC49294A574A854AB24AE04A0EA8
:102C70004B3C4B694B974BC54BF34B214C4F4C7D19
:102C80004CAB4CD94C074D354D634D924DC04DEE7C
:102C90004D1C4E4B4E794EA74ED64E044F334F61CE
:102CA0004F904FBE4FED4F1B504A507950A750D612
:102CB000500551335162519151C051EF511E524D47
:102CC000527C52AB52DA520953385367539653C56C
:102CD00053F453245453548254B154E15410553F87
:102CE000556F559E55CE55FD552D565C568C56BB91
:102CF00056EB561A574A577A57A957D95709583990
:102D00005868589858C858F858285958598859B880
:102D100059E859185A485A785AA85AD85A085B3864
:102D20005B685B985BC95BF95B295C595C8A5CBA40
:102D30005CEA5C1B5D4B5D7B5DAC5DDC5D0D5E3D0F
:102D40005E6E5E9E5ECF5EFF5E305F605F915FC2D3
:102D50005FF25F236054608460B560E6601761478E
:102D6000617861A961DA610B623C626C629D62CE3E
:102D700062FF62306361639263C363F463256456E8
:102D8000648764B964EA641B654C657D65AE65DF84
:102D900065116642667366A466D666076738676A19
:102DA000679B67CC67FE672F6860689268C368F5A9
:102DB00068266958698969BB69EC691E6A4F6A812E
:102DC0006AB26AE46A156B476B796BAA6BDC6B0DB0
:102DD0006C3F6C716CA26CD46C066D386D696D9B28
:102DE0006DCD6DFF6D306E626E946EC66EF86E299D
:102DF0006F5B6F8D6FBF6FF16F237054708670B80B
:102E000070EA701C714E718071B271E47116724873
:102E1000727A72AC72DE72107342737473A673D8D6
:102E2000730A743C746E74A074D274047536756839
:102E3000759A75CD75FF75317663769576C776F997
:102E4000762B775E779077C277F477267858788BF1
:102E500078BD78EF78217953798579B879EA791C4A
:102E60007A4E7A817AB37AE57A177B497B7C7BAE9E
:102E70007BE07B127C457C777CA97CDB7C0E7D40F3
:102E80007D727DA47DD77D097E3B7E6D7EA07ED246
:102E90007E047F367F697F9B7FCD7F0D0A3F3F3F5A
:102EA00020756E6B6E6F776E20636F6D6D616E64F3
:102EB000202D20666F7220617373697374616E6375
:102EC0006520656E746572202068656C700D0A005F
:102ED000786F3D0072657365743D0070743D006BE2
:102EE000623D0068656C7000696E666F3D006562EA
:102EF0003D00646F776E006464733D006461633D00
:102F00000063616C3D6779726F0063616C3D64655D
:102F10006661756C74730063616C3D616363656CBD
:102F20007A0063616C3D616363656C790063616C19
:102F30003D616363656C7800626C3D00626961733A
:102F40003D00412F00415400617072733D70776401
:102F50003D00617072733D757365723D0061707202
:102F6000733D737369643D00617072733D63616C9E
:102F70006C3D00617072733D006164633D000D0A39
:102F80003E20000D0A002D313A20504C4C204F4E6F
:102F90000D0A00786F3D0909302D36353533353A45
:102FA0002056435443584F2070756C6C20766F6CDC
:102FB000746167652C200072657365743D09093181
:102FC0003A207265626F6F7420414C4C0D0A0031DB
:102FD0003A207475726E2073706565642C20323AE5
:102FE00020766172696F6D657465720D0A00707488
:102FF0003D0909303A20706974636820746F6E650A
:10300000204F46462C20006B623D0909303A206B68
:1030100065792062656570204F46462C20313A2044
:103020004F4E0D0A00307830343A20315050532F33
:10303000504C4C0D0A00307830323A2053494D380C
:1030400030382C2000696E666F3D0909303A204FF8
:1030500046462C20307830313A204154786D6567EF
:10306000612C200061626F757420616C6C20617648
:1030700061696C61626C6520636F6D6D616E647314
:103080000D0A0068656C7009095468697320696EDF
:10309000666F726D6174696F6E2070616765200084
:1030A00065623D0909303A206572726F722062656F
:1030B0006570204F46462C20313A204F4E0D0A00B5
:1030C000646F776E090953687574646F776E207446
:1030D000686973206465766963650D0A00633A2048
:1030E0007374617274696E67207068617365206FB4
:1030F0006620444453312D44445330206465670DA9
:103100000A00623A2044445331206D487A2C200052
:103110006464733D612C622C6309613A204444531A
:1031200030206672657175656E6379206D487A2C02
:103130002000313A207475726E2044414342206F62
:103140006E0D0A006461633D0909303A207475729E
:103150006E2044414342206F66662C2000090967B7
:1031600079726F3A20726564756365204759524FD2
:10317000206F6666736574206572726F72730D0AD4
:10318000000909616363656C7A3A205A2D61786998
:103190007320316720666163742D63616C2C205845
:1031A0002F59206F66667365742D63616C0D0A007C
:1031B0000909616363656C793A20592D61786973F7
:1031C00020316720666163742D63616C2C20582F59
:1031D0005A206F66667365742D63616C0D0A000971
:1031E00009616363656C783A20582D6178697320B2
:1031F000316720666163742D63616C2C20592F5AEE
:10320000206F66667365742D63616C0D0A00746FC0
:1032100020454550524F4D0D0A0063616C3D090930
:1032200064656661756C74733A20736176652064B9
:10323000656661756C742076616C75657320002D10
:10324000313A204155544F2C202D323A20545552BA
:103250004E4C49474854207370656369616C0D0A90
:1032600000626C3D0909302D3235353A20626163C8
:103270006B6C696768742050574D2C2000666F7224
:10328000204C434420636F6E74726173740D0A00A6
:10329000626961733D0909302D36333A20626961F4
:1032A0007320766F6C74616765200041540909438F
:1032B0004D4420746F2073656E6420746F207468B1
:1032C000652053494D3830380D0A0009097077647C
:1032D0003D3C7374723E3A2070617373776F726411
:1032E0000D0A000909757365723D3C7374723E3AAC
:1032F0002075736572206C6F67696E0D0A0009098D
:10330000737369643D5B2D5D302D31353A20535325
:1033100049440D0A00090963616C6C3D3C73747289
:103320003E3A2063616C6C7369676E0D0A006170D0
:1033300072733D0909303A204F46462C20313A201D
:103340004F4E0D0A00313A207475726E204144438D
:103350004120616E642041444342206F6E0D0A009B
:103360006164633D0909303A207475726E204144EE
:10337000434120616E642041444342206F66662CC5
:1033800020002A20434F4D4D414E4453202A0D0A20
:103390002A2A2A2A2A2A2A2A2A2A2A2A0D0A0D0A07
:1033A000000D0A0D0A0D0A2A2A2A2A2A2A2A2A2A5E
:1033B0002A2A2A0D0A00416363656C2E004D61675D
:1033C0006E657469637300477A0047790047780037
:1033D0006850610025005600430048795F52656CD3
:1033E00048203D0048795F54656D70203D00426182
:1033F0005F50726573203D0042615F54656D7020BF
:103400003D005576637463786F203D0055626174AA
:10341000203D0055757362203D006D502054656D50
:1034200070203D00202020202D20202D2020202035
:10343000203A20203A20202055544300627920442D
:1034400046344941480046696E644D655341540015
:103450002D2D2D2D2D2D2D2D2D2D2D0D0A0D0A004F
:10346000496E69743A204261726F202073756363FC
:10347000657373005457492D6F6E626F6172643AC1
:1034800020202E2E2E20646576696365206E6F7471
:10349000206F6E20626F6172642E202873633D2559
:1034A00064290D0A005457492D6F6E626F61726472
:1034B0003A2020494E495420737563636573732E17
:1034C0000D0A005457492D6F6E626F6172643A2085
:1034D000204241442072656164696E672050524FFA
:1034E0004D20616464726573732025642E202873F7
:1034F000633D2564290D0A005457492D6F6E626F94
:103500006172643A204261726F204D533536303714
:103510003032424130332D3530202D2020202020E4
:1035200073657269616C233A2025640D0A00545753
:10353000492D6F6E626F6172643A202042414420CF
:1035400072656164696E672073657269616C2F438F
:10355000524320776F72642E202873633D256429BF
:103560000D0A000D0A5457492D6F6E626F61726427
:103570003A204261726F204D533536303730324237
:103580004130332D3530202D204932432061646491
:10359000726573733A203078253032580D0A00492D
:1035A0006E69743A204779726F2020737563636582
:1035B0007373005457492D6F6E626F6172643A20C5
:1035C000202E2E2E20646576696365206E6F742030
:1035D0006F6E20626F6172642E202873633D2564D4
:1035E000290D0A005457492D6F6E626F6172643A5B
:1035F0002020494E495420737563636573732E0D03
:103600000A005457492D6F6E626F6172643A204709
:1036100079726F204D50552D39323530202D2020B4
:1036200020202076657273696F6E3A2030782530DD
:1036300032582C203078253032580D0A0054574922
:103640002D6F6E626F6172643A204779726F204D00
:1036500050552D393235302020202D202020277242
:103660006573657420312720626164207265737010
:103670006F6E73650D0A000D0A5457492D6F6E6207
:103680006F6172643A204779726F204D50552D3921
:10369000323530202D2049324320616464726573D5
:1036A000733A203078253032582C2030782530324B
:1036B000580D0A00496E69743A20487967726F2084
:1036C00073756363657373005457492D6F6E626F32
:1036D0006172643A20202E2E2E206465766963651F
:1036E000206E6F74206F6E20626F6172642E2028CE
:1036F00073633D2564290D0A005457492D6F6E628E
:103700006F6172643A2020494E4954207375636397
:103710006573732E0D0A005457492D6F6E626F61E9
:1037200072643A20487967726F2053485433312DC0
:10373000444953202D2020207374617475733A20FE
:103740003078253032580D0A005457492D6F6E627B
:103750006F6172643A20487967726F20534854331E
:10376000312D444953202D202020616464726573FB
:1037700073204E41434B202F2027627265616B27D7
:103780002062616420726573706F6E73650D0A004C
:103790000D0A5457492D6F6E626F6172643A20486A
:1037A0007967726F2053485433312D444953202D8B
:1037B0002049324320616464726573733A20307823
:1037C000253032580D0A006B6D68002530372E32D7
:1037D00066002530352E3266002530356C640025B4
:1037E000352E33660025352E31660025342E3166A0
:1037F0000025346C64002530336C64002530326C55
:103800006400646F5570646174653D25642C206F9D
:1038100075744F6653796E633D25640D0A00444507
:103820004255475F4D41494E5F315050533A2064F5
:103830006966663D252B3034642C206C6173745F9F
:1038400061646A7573743D25642C20696E537061E0
:103850006E3D25642C20000D0A00204E35202F419E
:103860003D2530366C6420613D252B30372E316686
:103870006D20733D25352E31666B20523D2563004A
:10388000204E3420743D252B352E32664320647043
:103890003D252B352E32664320716E683D25372E2F
:1038A00032666800204E33206D783D252B362E3150
:1038B000666D206D793D252B362E31666D206D7A33
:1038C0003D252B362E31666D00204E322061783D2D
:1038D000252B362E3366672061793D252B362E3316
:1038E000666720617A3D252B362E33666700204EB1
:1038F000312067783D252B30362E3166642067797C
:103900003D252B30362E31666420677A3D252B30DD
:10391000362E31666400212530326425352E32661C
:10392000256325632530336425352E3266256325CE
:1039300063253033642F2530336400257325733EAF
:10394000415052532C54435049502A3A00757365E4
:103950007220257320706173732025732076657241
:10396000732025732025730D0A004163636570740D
:103970002D547970653A20746578742F706C616984
:103980006E0D0A0D0A00436F6E74656E742D5479C6
:1039900070653A206170706C69636174696F6E2F35
:1039A0006F637465742D73747265616D0D0A0043E5
:1039B0006F6E74656E742D4C656E6774683A202561
:1039C000640D0A00504F5354202F20485454502F58
:1039D000312E310D0A0011241FBECFEFCDBFDFE520
:1039E000DEBF00E00CBF11E2A0E0B0E2EEE5FCE4D7
:1039F00001E00BBF02C007900D92A035B107D9F7C7
:103A000020E3A0E5B1E201C01D92AF34B207E1F7B7
:103A10000E94C8810C940BA60C940000EF92FF92B8
:103A20000F931F93CF93DF937C01EB018B01040F66
:103A3000151FC017D10721F06991C701C1D0F9CF77
:103A400080E0DF91CF911F910F91FF90EF9008954B
:103A5000009709F4B4C0803C910511F460E105C001
:103A6000803821E0920719F462E080E0A6C0811559
:103A700021E0920711F461E0F8CF803823E092074B
:103A800011F461E00BC0803923E0920711F461E08A
:103A900012C0811522E0920719F462E081E08DC026
:103AA000803422E0920711F462E005C0803223E006
:103AB000920719F464E082E080C0811528E0920743
:103AC00011F461E073C0811529E0920711F461E0FF
:103AD00066C081152AE0920711F461E06DC081157E
:103AE0002BE0920711F461E04DC0803428E092078A
:103AF00011F462E05BC0803429E0920711F462E0C7
:103B00004EC080342AE0920711F462E055C080393B
:103B100028E0920711F464E049C0803929E0920757
:103B200011F464E03CC080392AE0920711F464E0AB
:103B300043C080392BE0920711F464E023C0803C3D
:103B400028E0920711F468E031C0803C29E0920738
:103B500011F468E024C0803A28E0920711F460E193
:103B600025C0803A29E0920711F460E118C0803A3C
:103B70002AE0920711F460E11FC0803A2BE092071F
:103B800019F460E186E019C0803B28E0920711F447
:103B900060E20CC0803B29E0920719F460E284E007
:103BA0000CC0803824E0920719F460E483E005C07B
:103BB000803A944021F460E485E00C940F8B0895E2
:103BC000FC01218125FFFCCF608380E090E0089517
:103BD000FC01218127FFFCCF808108958F929F9265
:103BE000AF92BF92CF92DF92EF92FF920F931F930B
:103BF000CF93DF93EC016A017B01480159018C816D
:103C0000B901A80182FF11C033E0769567955795F9
:103C100047953A95D1F7D501C401E6E1B695A79548
:103C200097958795EA95D1F710C094E076956795BA
:103C3000579547959A95D1F7D901C80127E1B695CF
:103C4000A795979587952A95D1F74C155D056E0533
:103C50007F0508F498C0C816D906EA06FB0608F4E2
:103C600092C08C8182FD04C0CC0CDD1CEE1CFF1CBC
:103C7000C501B401A70196010E94139D19EF8FEFB2
:103C800090E0A0E0B0E0281739074A075B0758F03A
:103C9000880F991FAA1FBB1F1D3F0CF481601F5F77
:103CA000173089F749C017FF47C0D701C601F3E0B5
:103CB000880F991FAA1FBB1FFA95D1F7881A990A76
:103CC000AA0ABB0A812F012E000C990B1E3FDCF4BF
:103CD0002DEF3FEFA901481B590B04C0880C991C1C
:103CE000AA1CBB1C4A95D2F7D701C601B695A79569
:103CF00097958795BC01CD01680D791D8A1D9B1D87
:103D0000A701960116C00396A701960104C0220FD1
:103D1000331F441F551F8A95D2F7DA01C901B695A2
:103D2000A79597958795BC01CD01680D791D8A1DD2
:103D30009B1D0E94139D1DC083E0810FA70196016A
:103D400004C0220F331F441F551F8A95D2F7DA0192
:103D5000C901B695A79597958795BC01CD01680DCA
:103D6000791D8A1D9B1D0E94139D21503109410917
:103D70005109932F9F70812F8295807F892B8F838C
:103D80002E8381E001C080E0DF91CF911F910F91E0
:103D9000FF90EF90DF90CF90BF90AF909F908F906B
:103DA00008950F931F93CF93DF93EC018B0150DEA7
:103DB0008D818F738D83F80195818481982B868105
:103DC000811188E0892B8D83F801408151816281C6
:103DD000738100E813EC29EC31E0CE01FFDE9C8119
:103DE00098609C839C8190619C83DF91CF911F910F
:103DF0000F910895CF93DF931F92CDB7DEB78FB7A2
:103E00008983F89489810F90DF91CF91089504C040
:103E1000615071098109910961157105810591054B
:103E2000B9F708951F93CF93DF93162FC82FC69528
:103E3000C695C69590E2C99FE0011124C05FD94F95
:103E40008770C80FD11DD6DF9881977098836881DD
:103E5000612B68838FBFDF91CF911F9108951F92CF
:103E60000F920FB60F9211240BB60F922F933F9320
:103E70004F935F936F937F938F939F93AF93BF9372
:103E8000EF93FF9380EA9BE0A3DE2091BA29309163
:103E9000BB292F3F91E0390778F4A9014F5F5F4FAD
:103EA0004093BA295093BB29F901E654F84D808319
:103EB000FA01E654F84D10828091BA299091BB29FD
:103EC000813F914018F080E88093A50681E08093BF
:103ED000BC29FF91EF91BF91AF919F918F917F91FD
:103EE0006F915F914F913F912F910F900BBE0F906B
:103EF0000FBE0F901F901895CF93DF93CDB7DEB70D
:103F0000C058D109CDBFDEBFAC019FEF960F9F3FD8
:103F100079F0292F30E0E1E0F0E0EC0FFD1FE20F37
:103F2000F31FDA01A20FB31F8C9180839150EFCF62
:103F3000462F50E0E1E0F0E0EC0FFD1FE40FF51F2D
:103F40008DE08083FE01E40FF51F1282BE016F5FDA
:103F50007F4F80EA9BE062DDC058DF4FCDBFDEBF00
:103F6000DF91CF9108951F928F938DE595E09F93F8
:103F70008F931F9280E88F938AE195E29F938F93AE
:103F80000E94B1A22DB73EB7285F3F4F2DBF3EBF65
:103F9000AC016AE175E280EA9BE040CD82E595E004
:103FA0009F938F931F9280E88F938AE195E29F936E
:103FB0008F930E94B1A20F900F900F900F900F90CF
:103FC0000F90AC016AE175E280EA9BE027CD9F92F9
:103FD000AF92BF92CF92DF92EF92FF920F931F9317
:103FE000CF93DF93C0EAD6E082E0E82EED8298E03E
:103FF000F92EFD8220E8B22EBD8230E8C32E36E0D5
:10400000D32E40E2942EF601968250E1A52EA68290
:1040100000E616E0F801E682F68260E889E202DF57
:1040200060E88BE2FFDE60E88FE2FCDE60E985E2BB
:10403000F9DE60E984E2F6DE60E989E1F3DE60E959
:104040008BE1F0DEE982F98294E09A83B98220E480
:104050002A83AA8281E08A83F6019182A182F28278
:10406000E0E0F6E0B2822283F801E182F1829283FD
:1040700082838093E207EDEBF9E280E895E2A0E02D
:10408000B0E080839183A283B38383E0848315822D
:104090001682DF91CF911F910F91FF90EF90DF90EB
:1040A000CF90BF90AF909F9008954F925F926F9284
:1040B0007F928F929F92AF92BF92CF92DF92EF92B8
:1040C000FF920F931F93CF93DF93CDB7DEB7279760
:1040D000CDBFDEBF8091C1298D838091C2298E839F
:1040E0008091C3298F838091BD299091BE29A09191
:1040F000BF29B091C02989839A83AB83BC8360E1D7
:1041000086E00E940F8BBE016F5F7F4F80EA9BE0CD
:1041100048DE80E18093A30B83EC94E09F938F9320
:104120001F9230E8F32EFF920AE115E21F930F93DE
:104130000E94B1A2A80166E488E00E94A14187E242
:1041400095E09F938F931F92FF921F930F930E946E
:10415000B1A240E0682FC801C1D480E280938506F7
:1041600061EA75E286E290E052DE82E08093A60684
:1041700061E271EA87E090E04ADEF092A60668E824
:1041800073E180E090E043DECDBFDEBF48E0742EF7
:10419000780150E8652E62E0562E70E2472EE7EA7D
:1041A0008E2EE4E09E2EFFEFAF2EF4E0BF2E2CE02B
:1041B000C22ED12C43E050E060E171E280EA9BE046
:1041C0002DDC61E271EA87E090E021DE8091BC297C
:1041D000882381F30FDE2091BA293091BB29215029
:1041E000310937FD09C0F901E654F84D9081F90114
:1041F000E65EFA4D9083F3CF1092BA291092BB2954
:104200001092BC298FBF0AE115E280911A258823FC
:1042100041F06FE475E0C8010E94C8A1892B09F044
:1042200052C031E0C31AD10809F0C4CF6092A5068C
:104230005092A5064092860661EB71E78BE090E014
:10424000E6DD8CE0871520F40E94BF4493E0792ED0
:104250009F928F921F926F92FF92EF920E94B1A253
:1042600011E0170D672D660F862F880F880F680FD6
:104270004AE155E288E00E94A141BF92AF921F92AD
:104280006F92FF92EF920E94B1A240E0682F8AE104
:1042900095E224D44092850661EA75E286E290E0D8
:1042A000B6DD5092A60661E271EA87E090E0AFDDEC
:1042B0006092A60668E873E180E090E0A8DDCDBFDB
:1042C000DEBF712E74CF1F921F9285E28F9380E81C
:1042D000F82EFF9285E894E09F938F931F92FF92B0
:1042E0001F930F930E94B1A2AC016AE175E280EACC
:1042F0009BE094DB84EF91E00E94227E88E794E0CB
:104300009F938F931F92FF921F930F930E94B1A2CE
:10431000AC016AE175E280EA9BE080DB84EF91E02A
:104320000E94227E8DE494E09F938F931F92FF92D0
:104330001F930F930E94B1A2AC016AE175E280EA7B
:104340009BE06CDB84EF91E00E94227E84E494E0A9
:104350009F938F931F92FF921F930F930E94B1A27E
:10436000AC016AE175E280EA9BE058DB84EF91E002
:104370000E94227E8CE694E09F938F931F92FF927F
:104380001F930F930E94B1A2CDBFDEBFAC016AE1C3
:1043900075E280EA9BE042DB84EF91E00E94227E9E
:1043A00080E694E09F938F931F92FF921F930F9349
:1043B0000E94B1A2AC016AE175E280EA9BE02EDBCB
:1043C00084EF91E00E94227E1F92EE24E394EF920C
:1043D00083E594E09F938F931F92FF921F930F9317
:1043E0000E94B1A2AC016AE175E280EA9BE016DBB3
:1043F00084EF91E00E94227E1F92EF9284E394E08A
:104400009F938F931F92FF921F930F930E94B1A2CD
:10441000AC016AE175E280EA9BE000DB84EF91E0A9
:104420000E94227E87E294E09F938F931F92FF92D7
:104430001F930F930E94B1A2AC016AE175E280EA7A
:104440009BE0ECDA84EF91E00E94227E82E994E026
:104450009F938F931F92FF921F930F930E94B1A27D
:10446000CDBFDEBF770C672D660F660F670D4AE183
:1044700055E288E00E94A1418DED94E09F938F93D7
:104480001F92FF921F930F930E94B1A240E0682FEA
:104490008AE195E223D30F900F900F900F900F9029
:1044A0000F902796CDBFDEBFDF91CF911F910F9167
:1044B000FF90EF90DF90CF90BF90AF909F908F9044
:1044C0007F906F905F904F9008951F928F9387E138
:1044D00094E09F938F931F9280E88F938AE195E2F7
:1044E0009F938F930E94B1A22DB73EB7285F3F4F95
:1044F0002DBF3EBFAC016AE175E280EA9BE08ECA47
:104500002F923F924F925F926F927F928F929F92E3
:10451000AF92BF92CF92DF92EF92FF920F931F93D1
:10452000CF93DF93CDB7DEB76797CDBFDEBF81E016
:1045300090E09C012A5B37422E8B3F8B9091BC29E7
:104540009C8B992309F49EC26AE070E08AEB97E2A3
:104550000E94F8A1009751F02E883F88280E391E3E
:10456000211432E0330608F048C20CC08091BA2909
:104570009091BB29803E914008F484C2212C82E0B6
:10458000382E3BC22114310409F434C28C010A5B79
:1045900017426DE074E08AEB97E20E94C8A1009791
:1045A00009F414C29C012A5B3742201731070CF032
:1045B00021C2275F3F4F4C01820E931EC4018A5BCC
:1045C00097429101281B390BC9011F86181619063D
:1045D0000CF010C219861A861B861C861D861E8644
:1045E0003F85832F90E08331910508F0DFC1FC0106
:1045F0008827E250FF4F8F4F0C94519D188A412C11
:10460000512C612C712C198A1A8A1B8A3CC04AE0F1
:1046100050E0BE01635F7F4FC4010E94379F8D85CC
:104620009E854C012FEF821A920A3F85311103C0FB
:104630006093252AC0C18F85813019F46093242AA4
:10464000BAC19F85983019F460930F2AB4C12F85A1
:104650002E3019F46093022AAEC13F853F3019F421
:104660006093012AA8C18F85803119F46093002AD4
:10467000A2C19F85923109F09EC16093FF299BC121
:104680003D893E32E9F52FEF821A920AF401319703
:1046900030813D8B832F80538A3090F7AAE0AA2E79
:1046A000B12CC12CD12CE12CF12C00E010E0288998
:1046B000342D452D562D672D79898A899B890E9435
:1046C0007E9D59016A017B018C012D89822F220F69
:1046D000990BAC0140535109952F990F990B9A01F1
:1046E000492F592F692F792F892F0E94049F288BDA
:1046F000432E542E652E762E798B8A8B9B8BC3CFBF
:104700002889342D452D562D672D79898A899B89D5
:10471000A0E00E942B9F09F44EC1E8EEAE2EF3E01C
:10472000BF2EC12CD12CE12CF12C00E010E00E9416
:10473000309EA4E6AA2EB12C0E942E9E2983B0EAB8
:10474000AB2E86E8B82ECC24C3942889342D452D71
:10475000562D672D79898A899B890E94309EE4E6CF
:10476000AE2EB12CC12C0E942E9E2A83F0E8AF2ED3
:10477000A6E9BA2EB8E9CB2E2889342D452D562D21
:10478000672D79898A899B890E94309EE4E6AE2E46
:10479000B12CC12C0E942E9E2B83A12CFAECBF2E93
:1047A000AAE9CA2EBBE3DB2E2889342D452D562DD0
:1047B000672D79898A899B890E94309EE4E6AE2E16
:1047C000B12CC12CD12C0E942E9E21502C83A12CC7
:1047D000F8EEBF2EA6E7CA2EB8E4DB2E87E1E82E5E
:1047E0002889342D452D562D672D79898A899B89F5
:1047F0000E94309EE4E6AE2EB12CC12CD12CE12CCF
:104800000E942E9E21502D83A12CF0EABF2EA2E7FC
:10481000CA2EBEE4DB2E88E1E82E99E0F92E288925
:10482000342D452D562D672D79898A899B890E94C3
:10483000309E2E833F83CE0101960E94F82C2B01DF
:104840003C01D8DA888B20914C2A30914D2A409136
:104850004E2A50914F2A6091502A7091512AE8EEC9
:10486000AE2EF3E0BF2EC12CD12CE12CF12C809187
:10487000522A9091532A0E94309E59016A014A1887
:104880005B086C087D084092482A5092492A609241
:104890004A2A70924B2A88898FBF8DC0BE01675FFC
:1048A0007F4FC4010E945F71880E991E9F859330CF
:1048B00069F489859A85AB85BC858093202A90937D
:1048C000212AA093222AB093232A75C02F85243051
:1048D00069F489859A85AB85BC8580931C2A909361
:1048E0001D2AA0931E2AB0931F2A65C03F8535302C
:1048F00069F489859A85AB85BC858093182A909345
:10490000192AA0931A2AB0931B2A55C08F85863086
:1049100069F489859A85AB85BC858093142A909328
:10492000152AA093162AB093172A45C09F85973061
:1049300069F489859A85AB85BC858093102A90930C
:10494000112AA093122AB093132A35C02F852A303A
:1049500069F489859A85AB85BC8580930B2A9093F1
:104960000C2AA0930D2AB0930E2A25C03F853B3018
:1049700069F489859A85AB85BC858093072A9093D5
:10498000082AA093092AB0930A2A15C08F858C3073
:1049900091F489859A85AB85BC858093032A909391
:1049A000042AA093052AB093062A05C06CE2C4012C
:1049B0000E9455714C01C4018A5B97429101281BEA
:1049C000390BC9013F853F5F3F8700CE8091502161
:1049D000882321F084E02816310458F09091C929E9
:1049E0009C8B992339F0B1018AEB97E2AFD01C8AF6
:1049F00001C01C8A2C8920935021FCD92091BA290E
:104A00003091BB29211492E0390650F0221633066A
:104A1000A8F01092BA291092BB291092BC2914C098
:104A2000D101A654B84DEAEBF7E2A9014654584D1E
:104A3000E417F50759F39D919193FACF22193309A1
:104A40002093BA293093BB29E091BA29F091BB2970
:104A5000E654F84D20E032E02654384DE217F307D3
:104A600011F01192FBCF8FBFC5D92091BA29309197
:104A7000BB298FBF203E314008F060CD80E8809395
:104A8000A6065CCD6796CDBFDEBFDF91CF911F91AB
:104A90000F91FF90EF90DF90CF90BF90AF909F90DD
:104AA0008F907F906F905F904F903F902F900895E0
:104AB000662331F09C01205231092036310558F42B
:104AC0002091C529211108C00E94BC8E21E0892BAC
:104AD00019F420E001C021E0822F0895EF92FF92A7
:104AE0000F931F93CF93DF932091C629222331F197
:104AF000042F162F7C01D0E0C0E0C117E8F40E941B
:104B0000728E882359F0F701EC0FF11D8081602F20
:104B1000082E000C990BCCDF81110BC0DF5F89E1FF
:104B200090E00E94227ED93C40F31092C6298C2F3F
:104B300006C0CF5FD0E0E1CF8C2F01C080E0DF91D5
:104B4000CF911F910F91FF90EF900895EF92FF92F8
:104B50000F931F93CF93DF938C017C01E60EF71E1A
:104B6000C0E00E151F0509F43BC0F801D1918F017B
:104B7000DA3071F460E08DE090E09ADF60E08AE086
:104B800090E096DF8EE190E00E94227EC0E0E9CFC7
:104B9000DD3079F4CC2311F160E08DE090E088DF26
:104BA00060E08AE090E084DF8EE190E00E94227E67
:104BB000D8CFCC2361F060E08DE090E079DF60E059
:104BC0008AE090E075DF8EE190E00E94227E61E055
:104BD0008D2FDD0F990B6CDFC0E0C3CFC1E0C1CFDB
:104BE0008EE190E0DF91CF911F910F91FF90EF90B8
:104BF0000C94227E0E94AF928091CB2981110E9459
:104C0000A89288EE93E00E94227E84E198E09F9330
:104C10008F931F9280E88F938AE195E29F938F9301
:104C20000E94B1A28138910510F080E890E040E048
:104C3000682F8AE195E252DF84EF91E00E94227EA4
:104C40001F928CE08F938EEE97E09F938F931F922D
:104C500080E88F938AE195E29F938F930E94B1A29F
:104C60008138910510F080E890E040E0682F8AE1FB
:104C700095E234DF8AEF90E00E94227E8CEC97E090
:104C80009F938F931F9280E88F938AE195E29F9381
:104C90008F930E94B1A28138910510F080E890E0D6
:104CA00040E0682F8AE195E219DF8AEF90E00E94E8
:104CB000227E88EA97E09F938F931F9280E88F93DC
:104CC0008AE195E29F938F930E94B1A22DB73EB7E0
:104CD000265E3F4F2DBF3EBF8138910510F080E822
:104CE00090E040E0682F8AE195E2F8CE83E080937F
:104CF000C429089582E08093C429089508950895F1
:104D000081E08093C62908951092C62908950895D8
:104D10000895089581E08093C72908951092C529C8
:104D200008952F923F924F925F926F927F928F924F
:104D30009F92AF92BF92CF92DF92EF92FF920F932A
:104D40001F93CF93DF93CDB7DEB7CB54D109CDBF3F
:104D5000DEBF2091C629222309F409C56E837F8313
:104D6000888799878091C729882309F43FC01092CA
:104D7000C7298DE996E20E94907A8823B9F10E94B2
:104D8000EF8C8C01059700F104E010E01DC08091CC
:104D9000542A882341F061E080EB0E946E3E8AE055
:104DA00090E00E94227EB801CE0101960E94F28D11
:104DB0008091CA29882361F0B801CE0101960E9432
:104DC000C5330E94EF8C8C010115110501F70AC053
:104DD0008091C8298111F0CF41E0602FCE0101966A
:104DE0007DDEEACF8DE996E20E94A37A8091C82900
:104DF000882309F4C2C08091292A882309F4BDC000
:104E00008FB78D83F894FD801091462A0091472A30
:104E100020903E2A30903F2A4090402A5090412ACC
:104E20006090422A7090432A8090442A9090452AAC
:104E300060912B2A70912C2A072E000C880B990B5D
:104E40000E9444966E87788B8A8B9C8B20912327B7
:104E50003091242740912527509126272A873B8788
:104E60004C875D87FFBE1092292A0F931F9348EE4F
:104E7000A42E53E0B52EC12CD12CE12CF12C00E056
:104E800010E09101A201B301C4010E942E9E5F9324
:104E90004F933F932F939101A201B301C4010E944C
:104EA000309E5F934F933F932F938AE995E09F93B2
:104EB0008F931F9280E88F938AE195E29F938F935F
:104EC0000E94B1A28138910510F080E890E040E0A6
:104ED000682F8AE195E202DE3C893F934A894F932D
:104EE00058895F937E857F9383E895E09F938F93A6
:104EF0001F9280E88F938AE195E29F938F930E949F
:104F0000B1A28138910510F080E890E040E0682F70
:104F10008AE195E2E3DD8A859B85AC85BD8599278D
:104F2000AA27BB27BF93AF939F938F938A859B85B7
:104F3000AC85BD858827BB27892F9A2FAB2FBB2730
:104F4000BF93AF939F938F9388E695E09F938F9342
:104F50001F9280E88F938AE195E29F938F930E943E
:104F6000B1A2CDBFDEBF8138910510F080E890E09E
:104F700040E0682F8AE195E2B1DD8091CA2988235B
:104F800009F4F5C38091512190915221A0915321B0
:104F9000B09154214E815F8168857985481B590BFA
:104FA0006A0B7B0B411552406105710550F42E814F
:104FB0003F8148855985281739074A075B0708F05C
:104FC000D6C38FB78983F89469813091B9262B961F
:104FD0003FAF2B974091BA262C964FAF2C9720913C
:104FE000B7263091B8264091B5265091B6267091DB
:104FF000B3267CAB8091B4268DAB0091B126309066
:10500000B2262090AF261091B026A091AD26B09187
:10501000AE26AA87BB8780903D2790903E27A09020
:105020003F27B0904027C0903927D0903A27E09092
:105030003B27F0903C2740903527509036276090D2
:10504000372770903827E0912D27F0912E27EE8793
:10505000FF878091292790912A27888B998BA0918F
:105060002B27B0912C27AA8BBB8BB091AE27BEAB60
:10507000E091AF27EFABF091AC27F8AF7091AD277F
:1050800079AF8091AA278AAF9091AB279BAFA0916F
:105090009C27B0919D27AC8BBD8BE0919A27F09116
:1050A0009B27EE8BFF8B8091982790919927888F73
:1050B000998F909196279CAFA0919727ADAFB09113
:1050C0009427BEAFE0919527EFAFF09192272196FC
:1050D000FFAF21977091932722967FAF22978091FF
:1050E000882790918927A0918A27B0918B278A8F52
:1050F0009B8FAC8FBD8F8091842790918527A09145
:105100008627B09187278E8F9F8FA8A3B9A3809100
:10511000802790918127A0918227B09183278AA32D
:105120009BA3ACA3BDA39091B62723969FAF2397D3
:10513000A091B7272496AFAF2497E091B027F091C4
:10514000B127EEA3FFA3F09172272596FFAF259715
:105150007091732726967FAF2697809170272796A8
:105160008FAF27979091712728969FAF2897A0918E
:105170006E272996AFAF2997B0916F272A96BFAFB8
:105180002A978091642790916527A0916627B09116
:10519000672788A799A7AAA7BBA7809160279091A6
:1051A0006127A0916227B09163278CA79DA7AEA726
:1051B000BFA780915C2790915D27A0915E27B09159
:1051C0005F2788AB99ABAAABBBAB6FBF5F934F9325
:1051D0003F932F932C969FAD2C979F932B96AFAD1B
:1051E0002B97AF938E819F81A885B9852AE0B695CC
:1051F000A795979587952A95D1F7BF93AF939F93DE
:105200008F9383E797E09F938F931F9280E88F930C
:105210008AE195E29F938F930E94B1A28138910514
:1052200010F080E890E040E0682F8AE195E256DCDB
:105230001F932F923F920F93BDA9BF93ECA9EF93B9
:1052400089E497E09F938F931F9280E88F938AE180
:1052500095E29F938F930E94B1A28138910510F03F
:1052600080E890E040E0682F8AE195E237DC2A850B
:105270003B85B901330F880B990B0E94449620E0BF
:1052800030E048EC52E40E94A9959F938F937F935E
:105290006F9385E397E09F938F931F9280E88F939E
:1052A0008AE195E29F938F930E94B1A2CDBFDEBFAA
:1052B0008138910510F080E890E040E0682F8AE1A5
:1052C00095E20CDCC701B6010E94449620E030E074
:1052D00048EC52E40E94A9959F938F937F936F931C
:1052E000C501B4010E94449620E030E048EC52E44D
:1052F0000E94A9959F938F937F936F938FE097E080
:105300009F938F931F9280E88F938AE195E29F93FA
:105310008F930E94B1A28138910510F080E890E04F
:1053200040E0682F8AE195E2D9DBC301B2010E9417
:10533000449620E030E048EC52E40E94A9959F9307
:105340008F937F936F938AEF96E09F938F931F9233
:1053500080E88F938AE195E29F938F930E94B1A298
:105360008138910510F080E890E040E0682F8AE1F4
:1053700095E2B4DBAA89BB89BD01BB0F880B990BF1
:105380000E94449620E030E048EC52E40E94A99547
:105390009F938F937F936F93EE85FF85BF01FF0FE0
:1053A000880B990B0E94449620E030E048EC52E4D0
:1053B0000E94A9959F938F937F936F938FEC96E0B4
:1053C0009F938F931F9280E88F938AE195E29F933A
:1053D0008F930E94B1A2CDBFDEBF8138910510F03E
:1053E00080E890E040E0682F8AE195E277DB488929
:1053F0005989BA01550F880B990B0E94449620E0F9
:1054000030E048EC52E40E94A9959F938F937F93DC
:105410006F9380EB96E09F938F931F9280E88F931A
:105420008AE195E29F938F930E94B1A28138910502
:1054300010F080E890E040E0682F8AE195E24EDBD2
:1054400059AD5F9378AD7F93AE89BF89BD01BB0F26
:10545000880B990B0E94449620E030E04AE754E420
:105460000E94A9959F938F937F936F93BFA9BF933A
:10547000EEA9EF932C893D89B901330F880B990B65
:105480000E94449620E030E04AE754E40E94A99547
:105490009F938F937F936F9384E896E09F938F936E
:1054A0001F9280E88F938AE195E29F938F930E94E9
:1054B000B1A28138910510F080E890E040E0682FBB
:1054C0008AE195E20BDB3BAD3F934AAD4F93A88D4C
:1054D000B98DBD01BB0F880B990B0E94449620E04B
:1054E00030E04AE754E40E94A9959F938F937F93FD
:1054F0006F938DE696E09F938F931F9280E88F9332
:105500008AE195E29F938F930E94B1A2CDBFDEBF47
:105510008138910510F080E890E040E0682F8AE142
:1055200095E2DCDAFFADFF932EAD2F936E8D7F8D6C
:1055300088A199A10E94449620E030E04AE754E413
:105540000E94A9959F938F937F936F933DAD3F9357
:105550004CAD4F936A8D7B8D8C8D9D8D0E944496B2
:1055600020E030E04AE754E40E94A9959F938F938E
:105570007F936F938EE396E09F938F931F9280E8C3
:105580008F938AE195E29F938F930E94B1A2813815
:10559000910510F080E890E040E0682F8AE195E204
:1055A0009DDA22965FAD22975F9321967FAD21977A
:1055B0007F936AA17BA18CA19DA10E94449620E0CB
:1055C00030E04AE754E40E94A9959F938F937F931C
:1055D0006F9386E296E09F938F931F9280E88F935C
:1055E0008AE195E29F938F930E94B1A28138910541
:1055F00010F080E890E040E0682F8AE195E26EDAF2
:1056000028968FAD28978F9327969FAD27979F93C6
:105610006CA57DA58EA59FA50E94449620E030E054
:105620004AE754E40E94A9959F938F937F936F93C9
:105630002696AFAD2697AF932596BFAD2597BF931E
:1056400068A579A58AA59BA50E94449620E030E034
:105650004AE754E40E94A9959F938F937F936F9399
:1056600089EF95E09F938F931F9280E88F938AE153
:1056700095E29F938F930E94B1A2CDBFDEBF813888
:10568000910510F080E890E040E0682F8AE195E213
:1056900025DA2A96FFAD2A97FF9329962FAD2997F1
:1056A0002F9368A979A98AA99BA90E94449620E012
:1056B00030E04AE754E40E94A9959F938F937F932B
:1056C0006F9381EE95E09F938F931F9280E88F9365
:1056D0008AE195E29F938F930E94B1A28138910550
:1056E00010F080E890E040E0682F8AE195E2F6D97A
:1056F00024963FAD24973F9323964FAD23974F9326
:10570000AEA1BFA1BD01BB0F880B990B0E944496AF
:1057100020E030E048EC52E40E94A9959F938F93DB
:105720007F936F9382EC95E09F938F931F9280E815
:105730008F938AE195E29F938F930E94B1A2813863
:10574000910510F080E890E040E0682F8AE195E252
:10575000C5D92E813F8148855985209351213093A9
:1057600052214093532150935421CDBFDEBFC55BDE
:10577000DF4FCDBFDEBFDF91CF911F910F91FF9023
:10578000EF90DF90CF90BF90AF909F908F907F90E1
:105790006F905F904F903F902F900895833010F45A
:1057A00080E0089588EF0895EF92FF920F931F9382
:1057B000E82FDB01CA01B901A8019701E13069F0C6
:1057C00030F0E23089F4A7010E94ED920BC0AB01EA
:1057D000BC01CD010E94B09305C0AB01BC01CD015D
:1057E0000E94D59380E001C088EF1F910F91FF9038
:1057F000EF900895EF92FF920F931F93E82FDB0134
:10580000CA01B901A8019701E13071F030F0E2302E
:1058100099F4A7010E9474930DC001E0AB01BC0193
:10582000CD010E948B9406C001E0AB01BC01CD010B
:105830000E94F49380E001C088EF1F910F91FF90C8
:10584000EF9008959C0183709927892B81F4C901F9
:1058500064E670E00E94EC9C892B59F4C90160E970
:1058600071E00E94EC9C9C0181E0232B19F080E008
:10587000089581E008950F931F93CF93DF93FC0168
:1058800080818C3310F581818C33F8F482818831EA
:10589000E0F404810C30C8F413811F31B0F4C581E9
:1058A000D681CE01CFDF2CE0829FC0011124FC0104
:1058B000EC5EFE4DE00FF11D8081181730F4C25BE5
:1058C000D74081E0C838D10508F080E0DF91CF9162
:1058D0001F910F9108954F925F926F927F928F92D6
:1058E0009F92AF92BF92CF92DF92EF92FF920F936F
:1058F0001F93CF93DF93EA0122EB37E02D833E83A2
:105900001C8220E831E541E050E00E94139D6901CE
:105910007A012B013C012CE3822E912CA12CB12C7D
:10592000A50194010E94139D6883C301B20120E187
:105930003EE040E050E00E94139D122FA50194012B
:105940000E94139D29831A83C701B6016C5F7F4FA4
:105950008F4F9F4F27E030E040E050E00E94139DC2
:105960006F830D811E81C8016DDF811103C04DE67B
:1059700051E002C04EE651E060E070E0C416D5068A
:10598000E606F70648F0C41AD50AE60AF70A0F5FDA
:105990001F4F0D831E83E5CF2CE0829FC001112491
:1059A0008C5E9E4D2C81FC01E20FF11D408150E088
:1059B00060E070E0C416D506E606F70638F0C41AB3
:1059C000D50AE60AF70A2F5F2C83ECCFCB82DF9152
:1059D000CF911F910F91FF90EF90DF90CF90BF90EC
:1059E000AF909F908F907F906F905F904F900895B1
:1059F000BF92CF92DF92EF92FF920F931F93CF93BC
:105A0000DF93EC0138DF882309F45FC0BC800D818F
:105A10001E81E981AB81B0E020E831E541E050E052
:105A20000E94749D6B017C012A8130E0A0E1BEE000
:105A30000E945F9DC60ED71EE81EF91E8881C80E03
:105A4000D11CE11CF11C2E2F30E0ACE3B0E00E9431
:105A50005F9DC60ED71EE81EF91ECCE0BB2051F19B
:105A6000BA94C801EFDEC89FC0011124FC01EC5EAE
:105A7000FE4DEB0DF11DA081B0E020E831E541E0E5
:105A800050E00E94749DC60ED71EE81EF91EE6CF98
:105A900001501109C801D6DE811111C0ADE6B1E097
:105AA00020E831E541E050E00E94749DC60ED71E0B
:105AB000E81EF91E033B87E0180750F703C0AEE667
:105AC000B1E0EECFB601C70104C060E070E080E055
:105AD00090E0DF91CF911F910F91FF90EF90DF90B9
