:100000000C940E1B0C942F1B0C942F1B0C942F1B69
:100010000C94FE6C0C942F1B0C94EE260C9416275B
:100020000C943E270C9466270C942F1B0C942828C4
:100030000C942F1B0C94C7520C94284B0C94554BCA
:100040000C94824B0C94AF4B0C94DC4B0C94094CED
:100050000C94364C0C94634C0C94904C0C94BD4C0A
:100060000C942F1B0C942F1B0C942F1B0C942F1BE8
:100070000C942F1B0C942F1B0C942F1B0C942F1BD8
:100080000C942F1B0C942F1B0C942F1B0C942F1BC8
:100090000C942F1B0C942F1B0C942F1B0C94924828
:1000A0000C94C4480C94F6480C9428490C942F1BCB
:1000B0000C942F1B0C942F1B0C940F520C94AC4ED1
:1000C0000C94D94E0C94064F0C94334F0C94604F03
:1000D0000C948D4F0C94BA4F0C94E74F0C94145021
:1000E0000C9441500C942F1B0C942F1B0C942F1B21
:1000F0000C942F1B0C942F1B0C942F1B0C942F1B58
:100100000C942F1B0C942F1B0C942F1B0C942F1B47
:100110000C942F1B0C942F1B0C942F1B0C94CA4770
:100120000C94FC470C942E480C9460480C942F1BA4
:100130000C942F1B0C94EA4C0C94174D0C94444DCA
:100140000C94714D0C949E4D0C94CB4D0C94F84D29
:100150000C94254E0C94524E0C947F4E0C942F1BF5
:100160000C942F1B0C942F1B0C942F1B0C942F1BE7
:100170000C942F1B0C942F1B0C942F1B0C942F1BD7
:100180000C942F1B0C942F1B0C942F1B0C942F1BC7
:100190000C942F1B0C942F1B0C942F1B0C942F1BB7
:1001A0000C942F1B0C942F1B0C942F1B0C942F1BA7
:1001B0000C946E500C949B500C94C8500C94F550B9
:1001C0000C9422510C944F510C942F1B0C942F1B08
:1001D0000C942F1B0C942F1B0C942F1B0C94491D5B
:1001E0000C942F1B0C942F1B0C942F1B0C942F1B67
:1001F0000C942F1B0C94F3570C94AB58055A175AB8
:10020000295A3B5A4D5A5F5A715A05A84CCDB2D45F
:100210004EB93836A9020C50B9918688083CA6AA76
:10022000AA2ABE000000803F07634236B79BD8A7CA
:100230001A39685618AEBAAB558C1D3CB7CC57630B
:10024000BD6DEDFD753EF6177231BF000000803FB9
:1002500008000000BE922449123EABAAAA2ABECDD5
:10026000CCCC4C3E00000080BEABAAAAAA3E000047
:100270000000BF000000803F00000000000841783F
:10028000D3BB4387D1133D190E3CC3BD4282AD2B76
:100290003E68EC8276BED98FE1A93E4C80EFFFBE6E
:1002A00001C4FF7F3F00000000006E616E00696EB8
:1002B000660000407A10F35A00A0724E1809001030
:1002C000A5D4E80000E87648170000E40B540200CB
:1002D00000CA9A3B000000E1F505000080969800F6
:1002E000000040420F000000A0860100000010271F
:1002F00000000000E80300000000640000000000AF
:100300000A00000000000100000000002C76D888E0
:10031000DC674F0823DFC1DFAE59E1B1B796E5E3F3
:10032000E453C63AE651997696E8E6C28426EB890C
:100330008C9B62ED407C6FFCEFBC9C9F40F2BAA5A9
:100340006FA5F490055A2AF75C936B6CF9676DC141
:100350001BFCE0E40D47FEF520E6B500D0ED902E45
:100360000300943577050080841E080000204E0AA3
:10037000000000C80C333333330F986E12831141E1
:10038000EF8D2114893BE65516CFFEE6DB18D184AC
:100390004B381BF77C1D901DA4BBE42420328472D3
:1003A0005E228100C9F124ECA1E53D274E414E4972
:1003B0004E495459494E46CDCCCC3D0AD7233C1723
:1003C000B7D13877CC2B329595E6241FB14F0A0070
:1003D0000020410000C84200401C4620BCBE4CCA60
:1003E0001B0E5AAEC59D7441542B43474E53494E84
:1003F000460D0A0041542B43474E535057523D255A
:10040000640D0A0041542B4753560D0A00415449CC
:100410000D0A0041542B4346554E3D310D0A004113
:10042000542B434D45453D320D0A0041542B495054
:10043000523D256C640D0A00496E69743A20534997
:100440004D383038207375636365737300496E6986
:10045000743A2053494D3830382072657374617294
:1004600074696E67202E2E2E00496E69743A2053EF
:10047000494D383038207374617274696E67202E6C
:100480002E2E0053494D38303820736572313A2092
:1004900020206261756420726174652073796E63D7
:1004A00065640D0A0053494D383038207365723148
:1004B0003A20205374617274696E672074686520F5
:1004C000646576696365202E2E2E0D0A0053494D12
:1004D00038303820736572313A2020537461727459
:1004E000696E672074686520646576696365202E8F
:1004F0002E2E0D0A004F4B00584F5F50574D3D2593
:1005000030356C6464203A203078253032780D0A1A
:100510000D0A00317070735F646576696174696F8C
:100520006E3D252B3130662C2000504C4C3A207407
:10053000696D653D25366C642E2530336C64202B47
:1005400020253035642F3330452B36207365632CDE
:1005500020004779726F5F54656D703D252B3036F2
:100560002E3266432028252B303664290D0A0D0AC9
:10057000004D7A3D252B30372E33667554202825C3
:100580002B30366429092009004D783D252B303762
:100590002E336675542028252B303664292C204DA7
:1005A000793D252B30372E336675542028252B3086
:1005B0003664292C2000477A3D252B30372E3266B1
:1005C0006470732028253036642909200900477893
:1005D0003D252B30372E32666470732028252B3052
:1005E0003664292C2047793D252B30372E3266641E
:1005F00070732028252B303664292C2000417A3D49
:10060000252B30352E3366672028252B303664297C
:10061000092009000941783D252B30352E336667C6
:100620002028252B303664292C2041793D252B307C
:10063000352E3366672028252B303664292C200080
:10064000487967726F5F54656D703D252B30362E8B
:100650003266432C20487967726F5F52656C483D63
:100660002530352E326625250D0A004261726F5FF6
:1006700054656D703D252B30362E3266432C20425A
:1006800061726F5F503D25372E32666850610920D8
:1006900009006D505F54656D703D252B30362E324C
:1006A00066430920090055616463343D25346420A4
:1006B0006D562C2055616463353D253464206D569C
:1006C0002C205573696C3D253464206D562C200018
:1006D00054696D65203D202530366C643A2055768E
:1006E000636F3D253464206D562C205535763D25AD
:1006F0003464206D562C20556261743D253464208D
:100700006D562C20003D3D3D3D3D3D3D3D3D3D3D3B
:100710003D3D3D3D3D3D3D3D3D3D3D3D3D3D3D3D09
:100720003D3D3D3D0D0A0D0A0046696E644D655321
:100730004154202D20555342206C6F6767696E67C6
:1007400020737461727465640D0A0025630D0A3D9F
:100750003D3D3D3D3D3D3D3D3D3D3D3D3D3D3D3DC9
:100760003D3D3D3D3D3D3D3D3D3D3D3D3D3D0D0A1C
:10077000000D0A0D0A0D0A0000FDF9F6F3F0ECE990
:10078000E6E3DFDCD9D6D2CF00FDFAF6F3F0EDEAEE
:10079000E6E3E0DDDAD7D3D000FDFAF7F3F0EDEAD7
:1007A000E7E4E1DEDAD7D4D100FDFAF7F4F1EEEBBD
:1007B000E7E4E1DEDBD8D5D200FDFAF7F4F1EEEBA9
:1007C000E8E5E2DFDCD9D6D300FDFAF7F4F1EEEB91
:1007D000E8E6E3E0DDDAD7D400FDFAF7F4F2EFEC77
:1007E000E9E6E3E0DDDBD8D500FDFAF8F5F2EFEC61
:1007F000E9E7E4E1DEDBD9D600FDFAF8F5F2EFED4A
:10080000EAE7E4E2DFDCD9D700FDFBF8F5F3F0ED31
:10081000EAE8E5E2E0DDDAD800FDFBF8F5F3F0EE1A
:10082000EBE8E6E3E0DEDBD900FDFBF8F6F3F1EE02
:10083000EBE9E6E4E1DFDCDA00FDFBF8F6F3F1EEEC
:10084000ECE9E7E4E2DFDDDA00FEFBF9F6F4F1EFD4
:10085000ECEAE8E5E3E0DEDB00FEFBF9F6F4F2EFBC
:10086000EDEBE8E6E3E1DFDC00FEFBF9F7F4F2F0A4
:10087000EDEBE9E7E4E2E0DD00FEFBF9F7F5F2F08D
:10088000EEECE9E7E5E3E0DE00FEFCF9F7F5F3F175
:10089000EEECEAE8E6E4E1DF00FEFCFAF7F5F3F15E
:1008A000EFEDEBE9E6E4E2E000FEFCFAF8F6F4F244
:1008B000EFEDEBE9E7E5E3E100FEFCFAF8F6F4F230
:1008C000F0EEECEAE8E6E4E200FEFCFAF8F6F4F218
:1008D000F0EFEDEBE9E7E5E300FEFCFAF8F7F5F3FE
:1008E000F1EFEDEBE9E8E6E400FEFCFBF9F7F5F3E8
:1008F000F1F0EEECEAE8E7E500FEFCFBF9F7F5F4D1
:10090000F2F0EEEDEBE9E7E600FEFDFBF9F8F6F4B8
:10091000F2F1EFEDECEAE8E700FEFDFBF9F8F6F5A1
:10092000F3F1F0EEECEBE9E800FEFDFBFAF8F7F589
:10093000F3F2F0EFEDECEAE900FEFDFBFAF8F7F573
:10094000F4F2F1EFEEECEBE900FFFDFCFAF9F7F65B
:10095000F4F3F2F0EFEDECEA00FFFDFCFAF9F8F643
:10096000F5F4F2F1EFEEEDEB00FFFDFCFBF9F8F72B
:10097000F5F4F3F2F0EFEEEC00FFFDFCFBFAF8F714
:10098000F6F5F3F2F1F0EEED00FFFEFCFBFAF9F8FC
:10099000F6F5F4F3F2F1EFEE00FFFEFDFBFAF9F8E5
:1009A000F7F6F5F4F2F1F0EF00FFFEFDFCFBFAF9CB
:1009B000F7F6F5F4F3F2F1F000FFFEFDFCFBFAF9B7
:1009C000F8F7F6F5F4F3F2F100FFFEFDFCFBFAF99F
:1009D000F8F8F7F6F5F4F3F200FFFEFDFCFCFBFA85
:1009E000F9F8F7F6F5F5F4F300FFFEFEFDFCFBFA6F
:1009F000F9F9F8F7F6F5F5F400FFFEFEFDFCFBFB58
:100A0000FAF9F8F8F7F6F5F500FFFFFEFDFDFCFB3F
:100A1000FAFAF9F8F8F7F6F600FFFFFEFDFDFCFC28
:100A2000FBFAFAF9F8F8F7F700FFFFFEFEFDFDFC10
:100A3000FBFBFAFAF9F9F8F800FFFFFEFEFDFDFCFA
:100A4000FCFBFBFAFAF9F9F80000FFFFFEFEFDFDE2
:100A5000FCFCFCFBFBFAFAF90000FFFFFEFEFEFDCA
:100A6000FDFDFCFCFBFBFBFA0000FFFFFFFEFEFEB2
:100A7000FDFDFDFDFCFCFCFB0000FFFFFFFFFEFE9B
:100A8000FEFEFDFDFDFDFCFC000000FFFFFFFFFF83
:100A9000FEFEFEFEFEFEFDFD00000000FFFFFFFF6C
:100AA000FFFFFFFFFEFEFEFE000000000000000052
:100AB000FFFFFFFFFFFFFFFF00000000000000003E
:100AC0000000000000000000000000000000000026
:100AD000010101010101010100000000010101010A
:100AE00001010101020202020000000101010101F5
:100AF00002020202020203030000010101010202DC
:100B000002020303030304040000010101020202C4
:100B100003030303040404050000010102020203AD
:100B20000303040405050506000001010202030396
:100B3000040404050506060700010102020303047C
:100B40000405050606070708000101020203030465
:100B5000050506060707080800010102030304044F
:100B60000506060708080909000101020303040538
:100B70000606070808090A0A00010202030405051F
:100B800006070808090A0B0B000102020304050608
:100B9000070708090A0B0B0C0001020304040506F1
:100BA0000708090A0B0B0C0D0001020304050607D8
:100BB0000808090A0B0C0D0E0001020304050607C4
:100BC00008090A0B0C0D0E0F0001020304050607AD
:100BD000090A0B0C0D0E0F10000102030506070891
:100BE000090A0B0C0E0F101100010204050607087C
:100BF0000A0B0C0D0E0F1112000103040506080963
:100C00000A0B0D0E0F10121300010304050708094B
:100C10000B0C0D0E10111214000103040607080A34
:100C20000B0C0E0F11121315000103040607090A1D
:100C30000C0D0E1011131416000203050608090B03
:100C40000C0E0F1112141517000203050608090BEC
:100C50000D0E1011131416170002030507080A0BD6
:100C60000D0F1012141517180002030507080A0CBF
:100C70000E0F1113141618190002040507090B0CA6
:100C80000E1012131517191A0002040507090B0D8F
:100C90000F1012141618191B0002040608090B0D78
:100CA0000F11131517181A1C00020406080A0C0E5F
:100CB0001011131517191B1D00020406080A0C0E4B
:100CC00010121416181A1C1E00020406080A0C0E34
:100CD00011131517191B1D1F00020406090B0D0F18
:100CE000111315171A1C1E2000020407090B0D0F03
:100CF000121416181A1C1F2100020507090B0E10EA
:100D0000121417191B1D202200020507090C0E10D2
:100D1000131517191C1E2023000205070A0C0E11BB
:100D20001315181A1D1F2124000205070A0C0F11A4
:100D30001416181B1D202225000305080A0D0F128A
:100D40001417191C1E212326000305080A0D0F1273
:100D500015171A1C1F212426000305080B0D10125D
:100D600015181A1D20222527000305080B0D101346
:100D700016181B1E20232628000306080B0E11132D
:100D800016191C1E21242729000306080B0E111416
:100D900017191C1F2225272A000306090C0E1114FF
:100DA000171A1D202325282B000306090C0F1215E6
:100DB000181A1D202326292C000306090C0F1215D2
:100DC000181B1E2124272A2D000306090C0F1215BB
:100DD000191C1F2225282B2E000306090D1013169F
:100DE000191C1F2226292C2F0003060A0D1013168A
:100DF0001A1D202326292D300080328064809680A1
:100E0000C980FB802D815F819281C481F681288217
:100E10005B828D82BF82F182248356838883BA836A
:100E2000ED831F8451848384B684E8841A854C85BD
:100E30007E85B185E385158647867A86AC86DE8613
:100E4000108742877487A787D9870B883D886F886A
:100E5000A188D488068938896A899C89CE89008AC4
:100E6000328A658A978AC98AFB8A2D8B5F8B918B20
:100E7000C38BF58B278C598C8B8CBD8CEF8C218D83
:100E8000538D858DB78DE98D1B8E4D8E7F8EB18EE6
:100E9000E38E158F478F798FAB8FDC8F0E9040904C
:100EA0007290A490D690079139916B919D91CF91BA
:100EB0000092329264929692C792F9922B935D932C
:100EC0008E93C093F293239455948694B894EA94A5
:100ED0001B954D957E95B095E19513964496769623
:100EE000A796D9960A973C976D979F97D0970198A8
:100EF000339864989598C798F89829995B998C9934
:100F0000BD99EE99209A519A829AB39AE49A159BC8
:100F1000469B789BA99BDA9B0B9C3C9C6D9C9E9C62
:100F2000CF9C009D319D629D939DC39DF49D259E08
:100F3000569E879EB89EE89E199F4A9F7B9FAB9FB7
:100F4000DC9F0DA03DA06EA09FA0CFA000A130A16E
:100F500061A191A1C2A1F2A123A253A284A2B4A231
:100F6000E4A215A345A375A3A6A3D6A306A436A4FD
:100F700067A497A4C7A4F7A427A557A587A5B7A5D5
:100F8000E7A517A647A677A6A7A6D7A607A737A7B8
:100F900067A797A7C6A7F6A726A856A885A8B5A8A5
:100FA000E5A814A944A973A9A3A9D2A902AA31AAA0
:100FB00061AA90AAC0AAEFAA1EAB4EAB7DABACABA8
:100FC000DBAB0BAC3AAC69AC98ACC7ACF6AC25ADBE
:100FD00054AD83ADB2ADE1AD10AE3FAE6EAE9DAEE1
:100FE000CCAEFAAE29AF58AF86AFB5AFE4AF12B012
:100FF00041B06FB09EB0CCB0FBB029B158B186B152
:10100000B4B1E3B111B23FB26DB29CB2CAB2F8B2A0
:1010100026B354B382B3B0B3DEB30CB43AB468B4FD
:1010200096B4C3B4F1B41FB54DB57AB5A8B5D6B56D
:1010300003B631B65EB68CB6B9B6E7B614B741B7EB
:101040006FB79CB7C9B7F6B724B851B87EB8ABB87C
:10105000D8B805B932B95FB98CB9B9B9E6B912BA1D
:101060003FBA6CBA99BAC5BAF2BA1FBB4BBB78BBD0
:10107000A4BBD1BBFDBB29BC56BC82BCAEBCDBBC97
:1010800007BD33BD5FBD8BBDB7BDE3BD0FBE3BBE6E
:1010900067BE93BEBFBEEBBE16BF42BF6EBF99BF59
:1010A000C5BFF0BF1CC047C073C09EC0CAC0F5C05A
:1010B00020C14CC177C1A2C1CDC1F8C123C24EC26B
:1010C00079C2A4C2CFC2FAC225C350C37AC3A5C392
:1010D000D0C3FAC325C44FC47AC4A4C4CFC4F9C4CE
:1010E00023C54EC578C5A2C5CCC5F6C520C64AC61F
:1010F00074C69EC6C8C6F2C61CC746C76FC799C786
:10110000C3C7ECC716C83FC869C892C8BCC8E5C801
:101110000EC938C961C98AC9B3C9DCC905CA2ECA92
:1011200057CA80CAA9CAD2CAFACA23CB4CCB74CB3D
:101130009DCBC5CBEECB16CC3FCC67CC8FCCB8CCFF
:10114000E0CC08CD30CD58CD80CDA8CDD0CDF8CDD8
:1011500020CE48CE6FCE97CEBFCEE6CE0ECF35CFC7
:101160005DCF84CFACCFD3CFFACF21D049D070D0D0
:1011700097D0BED0E5D00CD133D159D180D1A7D1F1
:10118000CED1F4D11BD241D268D28ED2B5D2DBD22D
:1011900001D328D34ED374D39AD3C0D3E6D30CD47F
:1011A00032D458D47DD4A3D4C9D4EFD414D53AD5ED
:1011B0005FD585D5AAD5CFD5F4D51AD63FD664D676
:1011C00089D6AED6D3D6F8D61DD742D766D78BD719
:1011D000B0D7D4D7F9D71DD842D866D88AD8AFD8D7
:1011E000D3D8F7D81BD93FD963D987D9ABD9CFD9B1
:1011F000F3D916DA3ADA5EDA81DAA5DAC8DAECDAA5
:101200000FDB32DB56DB79DB9CDBBFDBE2DB05DCB3
:1012100028DC4BDC6DDC90DCB3DCD6DCF8DC1BDDE1
:101220003DDD5FDD82DDA4DDC6DDE9DD0BDE2DDE2B
:101230004FDE71DE93DEB4DED6DEF8DE1ADF3BDF92
:101240005DDF7EDFA0DFC1DFE2DF04E025E046E016
:1012500067E088E0A9E0CAE0EBE00CE12DE14DE1B8
:101260006EE18EE1AFE1CFE1F0E110E230E251E278
:1012700071E291E2B1E2D1E2F1E211E330E350E355
:1012800070E38FE3AFE3CEE3EEE30DE42DE44CE453
:101290006BE48AE4A9E4C8E4E7E406E525E544E56F
:1012A00062E581E5A0E5BEE5DDE5FBE519E638E6AA
:1012B00056E674E692E6B0E6CEE6ECE60AE728E704
:1012C00045E763E781E79EE7BCE7D9E7F7E714E87E
:1012D00031E84EE86BE888E8A5E8C2E8DFE8FCE81A
:1012E00019E935E952E96EE98BE9A7E9C4E9E0E9D2
:1012F000FCE918EA34EA50EA6CEA88EAA4EAC0EAAF
:10130000DBEAF7EA13EB2EEB4AEB65EB80EB9CEBA9
:10131000B7EBD2EBEDEB08EC23EC3EEC58EC73ECC6
:101320008EECA8ECC3ECDDECF8EC12ED2CED47ED07
:1013300061ED7BED95EDAFEDC9EDE3EDFCED16EE66
:1013400030EE49EE63EE7CEE95EEAFEEC8EEE1EEE8
:10135000FAEE13EF2CEF45EF5EEF76EF8FEFA8EF8D
:10136000C0EFD9EFF1EF09F022F03AF052F06AF055
:1013700082F09AF0B2F0CAF0E1F0F9F011F128F140
:1013800040F157F16EF186F19DF1B4F1CBF1E2F14C
:10139000F9F110F226F23DF254F26AF281F297F27C
:1013A000AEF2C4F2DAF2F0F206F31CF332F348F3D1
:1013B0005EF374F389F39FF3B5F3CAF3DFF3F5F348
:1013C0000AF41FF434F449F45EF473F488F49DF4E1
:1013D000B1F4C6F4DBF4EFF403F518F52CF540F5A1
:1013E00054F568F57CF590F5A4F5B8F5CCF5DFF586
:1013F000F3F506F61AF62DF640F653F667F67AF68A
:101400008DF6A0F6B2F6C5F6D8F6EAF6FDF610F7B8
:1014100022F734F747F759F76BF77DF78FF7A1F706
:10142000B3F7C4F7D6F7E8F7F9F70BF81CF82EF87E
:101430003FF850F861F872F883F894F8A5F8B6F818
:10144000C6F8D7F8E7F8F8F808F919F929F939F9D9
:1014500049F959F969F979F989F998F9A8F9B8F9BF
:10146000C7F9D7F9E6F9F5F904FA14FA23FA32FACA
:1014700041FA4FFA5EFA6DFA7CFA8AFA99FAA7FAFB
:10148000B5FAC4FAD2FAE0FAEEFAFCFA0AFB18FB53
:1014900025FB33FB41FB4EFB5CFB69FB76FB83FBCF
:1014A00091FB9EFBABFBB8FBC4FBD1FBDEFBEBFB74
:1014B000F7FB04FC10FC1CFC29FC35FC41FC4DFC3A
:1014C00059FC65FC70FC7CFC88FC93FC9FFCAAFC2E
:1014D000B6FCC1FCCCFCD7FCE2FCEDFCF8FC03FD47
:1014E0000EFD18FD23FD2EFD38FD42FD4DFD57FD7F
:1014F00061FD6BFD75FD7FFD89FD93FD9CFDA6FDE6
:10150000B0FDB9FDC2FDCCFDD5FDDEFDE7FDF0FD72
:10151000F9FD02FE0BFE13FE1CFE25FE2DFE36FE1F
:101520003EFE46FE4EFE56FE5EFE66FE6EFE76FEFB
:101530007EFE85FE8DFE94FE9CFEA3FEAAFEB2FEFC
:10154000B9FEC0FEC7FECEFED4FEDBFEE2FEE8FE24
:10155000EFFEF5FEFCFE02FF08FF0EFF14FF1AFF70
:1015600020FF26FF2CFF31FF37FF3CFF42FF47FFE4
:101570004CFF52FF57FF5CFF61FF66FF6AFF6FFF82
:1015800074FF78FF7DFF81FF86FF8AFF8EFF92FF49
:1015900096FF9AFF9EFFA2FFA6FFA9FFADFFB0FF37
:1015A000B4FFB7FFBBFFBEFFC1FFC4FFC7FFCAFF49
:1015B000CDFFCFFFD2FFD5FFD7FFD9FFDCFFDEFF86
:1015C000E0FFE2FFE4FFE6FFE8FFEAFFECFFEEFFEB
:1015D000EFFFF1FFF2FFF3FFF5FFF6FFF7FFF8FF74
:1015E000F9FFFAFFFBFFFBFFFCFFFDFFFDFFFEFF26
:1015F000FEFFFEFFFEFFFEFFFFFFFEFFFEFFFEFF02
:10160000FEFFFEFFFDFFFDFFFCFFFBFFFBFFFAFF00
:10161000F9FFF8FFF7FFF6FFF5FFF3FFF2FFF1FF29
:10162000EFFFEEFFECFFEAFFE8FFE6FFE4FFE2FF7B
:10163000E0FFDEFFDCFFD9FFD7FFD5FFD2FFCFFFF2
:10164000CDFFCAFFC7FFC4FFC1FFBEFFBBFFB7FF8F
:10165000B4FFB0FFADFFA9FFA6FFA2FF9EFF9AFF58
:1016600096FF92FF8EFF8AFF86FF81FF7DFF78FF46
:1016700074FF6FFF6AFF66FF61FF5CFF57FF52FF59
:101680004CFF47FF42FF3CFF37FF31FF2CFF26FF97
:1016900020FF1AFF14FF0EFF08FF02FFFCFEF5FEFD
:1016A000EFFEE8FEE2FEDBFED4FECEFEC7FEC0FE8D
:1016B000B9FEB2FEAAFEA3FE9CFE94FE8DFE85FE40
:1016C0007EFE76FE6EFE66FE5EFE56FE4EFE46FE1A
:1016D0003EFE36FE2DFE25FE1CFE13FE0BFE02FE18
:1016E000F9FDF0FDE7FDDEFDD5FDCCFDC2FDB9FD48
:1016F000B0FDA6FD9CFD93FD89FD7FFD75FD6BFD95
:1017000061FD57FD4DFD42FD38FD2EFD23FD18FD09
:101710000EFD03FDF8FCEDFCE2FCD7FCCCFCC1FCAB
:10172000B6FCAAFC9FFC93FC88FC7CFC70FC65FC6E
:1017300059FC4DFC41FC35FC29FC1CFC10FC04FC54
:10174000F7FBEBFBDEFBD1FBC4FBB8FBABFB9EFB6B
:1017500091FB83FB76FB69FB5CFB4EFB41FB33FBA0
:1017600025FB18FB0AFBFCFAEEFAE0FAD2FAC4FAFF
:10177000B5FAA7FA99FA8AFA7CFA6DFA5EFA4FFA84
:1017800041FA32FA23FA14FA04FAF5F9E6F9D7F92C
:10179000C7F9B8F9A8F998F989F979F969F959F9FE
:1017A00049F939F929F919F908F9F8F8E7F8D7F8F2
:1017B000C6F8B6F8A5F894F883F872F861F850F80E
:1017C0003FF82EF81CF80BF8F9F7E8F7D6F7C4F74E
:1017D000B3F7A1F78FF77DF76BF759F747F734F7B2
:1017E00022F710F7FDF6EAF6D8F6C5F6B2F6A0F63F
:1017F0008DF67AF667F653F640F62DF61AF606F6EB
:10180000F3F5DFF5CCF5B8F5A4F590F57CF568F5C2
:1018100054F540F52CF518F503F5EFF4DBF4C6F4B8
:10182000B1F49DF488F473F45EF449F434F41FF4D5
:101830000AF4F5F3DFF3CAF3B5F39FF389F374F316
:101840005EF348F332F31CF306F3F0F2DAF2C4F27B
:10185000AEF297F281F26AF254F23DF226F210F201
:10186000F9F1E2F1CBF1B4F19DF186F16EF157F1AE
:1018700040F128F111F1F9F0E1F0CAF0B2F09AF07C
:1018800082F06AF052F03AF022F009F0F1EFD9EF6D
:10189000C0EFA8EF8FEF76EF5EEF45EF2CEF13EF81
:1018A000FAEEE1EEC8EEAFEE95EE7CEE63EE49EEB9
:1018B00030EE16EEFCEDE3EDC9EDAFED95ED7BED11
:1018C00061ED47ED2CED12EDF8ECDDECC3ECA8EC8E
:1018D0008EEC73EC58EC3EEC23EC08ECEDEBD2EB29
:1018E000B7EB9CEB80EB65EB4AEB2EEB13EBF7EAE7
:1018F000DBEAC0EAA4EA88EA6CEA50EA34EA18EAC9
:10190000FCE9E0E9C4E9A7E98BE96EE952E935E9C8
:1019100019E9FCE8DFE8C2E8A5E888E86BE84EE8EA
:1019200031E814E8F7E7D9E7BCE79EE781E763E72A
:1019300045E728E70AE7ECE6CEE6B0E692E674E68D
:1019400056E638E619E6FBE5DDE5BEE5A0E581E50E
:1019500062E544E525E506E5E7E4C8E4A9E48AE4B0
:101960006BE44CE42DE40DE4EEE3CEE3AFE38FE370
:1019700070E350E330E311E3F1E2D1E2B1E291E24E
:1019800071E251E230E210E2F0E1CFE1AFE18EE14D
:101990006EE14DE12DE10CE1EBE0CAE0A9E088E069
:1019A00067E046E025E004E0E2DFC1DFA0DF7EDFA4
:1019B0005DDF3BDF1ADFF8DED6DEB4DE93DE71DEFC
:1019C0004FDE2DDE0BDEE9DDC6DDA4DD82DD5FDD71
:1019D0003DDD1BDDF8DCD6DCB3DC90DC6DDC4BDC04
:1019E00028DC05DCE2DBBFDB9CDB79DB56DB32DBB2
:1019F0000FDBECDAC8DAA5DA81DA5EDA3ADA16DA7F
:101A0000F3D9CFD9ABD987D963D93FD91BD9F7D867
:101A1000D3D8AFD88AD866D842D81DD8F9D7D4D76A
:101A2000B0D78BD766D742D71DD7F8D6D3D6AED688
:101A300089D664D63FD61AD6F4D5CFD5AAD585D5C2
:101A40005FD53AD514D5EFD4C9D4A3D47DD458D416
:101A500032D40CD4E6D3C0D39AD374D34ED328D384
:101A600001D3DBD2B5D28ED268D241D21BD2F4D10F
:101A7000CED1A7D180D159D133D10CD1E5D0BED0B0
:101A800097D070D049D021D0FACFD3CFACCF84CF6C
:101A90005DCF35CF0ECFE6CEBFCE97CE6FCE48CE40
:101AA00020CEF8CDD0CDA8CD80CD58CD30CD08CD2D
:101AB000E0CCB8CC8FCC67CC3FCC16CCEECBC5CB32
:101AC0009DCB74CB4CCB23CBFACAD2CAA9CA80CA4D
:101AD00057CA2ECA05CADCC9B3C98AC961C938C97F
:101AE0000EC9E5C8BCC892C869C83FC816C8ECC7CB
:101AF000C3C799C76FC746C71CC7F2C6C8C69EC62C
:101B000074C64AC620C6F6C5CCC5A2C578C54EC5A2
:101B100023C5F9C4CFC4A4C47AC44FC425C4FAC32E
:101B2000D0C3A5C37AC350C325C3FAC2CFC2A4C2CF
:101B300079C24EC223C2F8C1CDC1A2C177C14CC186
:101B400020C1F5C0CAC09EC073C047C01CC0F0BF52
:101B5000C5BF99BF6EBF42BF16BFEBBEBFBE93BE2F
:101B600067BE3BBE0FBEE3BDB7BD8BBD5FBD33BD22
:101B700007BDDBBCAEBC82BC56BC29BCFDBBD1BB27
:101B8000A4BB78BB4BBB1FBBF2BAC5BA99BA6CBA3F
:101B90003FBA12BAE6B9B9B98CB95FB932B905B969
:101BA000D8B8ABB87EB851B824B8F6B7C9B79CB7A7
:101BB0006FB741B714B7E7B6B9B68CB65EB631B6F3
:101BC00003B6D6B5A8B57AB54DB51FB5F1B4C3B453
:101BD00096B468B43AB40CB4DEB3B0B382B354B3C1
:101BE00026B3F8B2CAB29CB26DB23FB211B2E3B141
:101BF000B4B186B158B129B1FBB0CCB09EB06FB0D2
:101C000041B012B0E4AFB5AF86AF58AF29AFFAAE6E
:101C1000CCAE9DAE6EAE3FAE10AEE1ADB2AD83AD1B
:101C200054AD25ADF6ACC7AC98AC69AC3AAC0BACD6
:101C3000DBABACAB7DAB4EAB1EABEFAAC0AA90AAA0
:101C400061AA31AA02AAD2A9A3A973A944A914A975
:101C5000E5A8B5A885A856A826A8F6A7C6A797A759
:101C600067A737A707A7D7A6A7A677A647A617A649
:101C7000E7A5B7A587A557A527A5F7A4C7A497A447
:101C800067A436A406A4D6A3A6A375A345A315A34B
:101C9000E4A2B4A284A253A223A2F2A1C2A191A160
:101CA00061A130A100A1CFA09FA06EA03DA00DA07A
:101CB000DC9FAB9F7B9F4A9F199FE89EB89E879EA3
:101CC000569E259EF49DC39D939D629D319D009DD2
:101CD000CF9C9E9C6D9C3C9C0B9CDA9BA99B789B0B
:101CE000469B159BE49AB39A829A519A209AEE9950
:101CF000BD998C995B992999F898C798959864989B
:101D000033980198D0979F976D973C970A97D996EB
:101D1000A796769644961396E195B0957E954D9547
:101D20001B95EA94B894869455942394F293C093A7
:101D30008E935D932B93F992C7929692649232920E
:101D40000092CF919D916B9139910791D690A4907B
:101D5000729040900E90DC8FAB8F798F478F158FEC
:101D6000E38EB18E7F8E4D8E1B8EE98DB78D858D66
:101D7000538D218DEF8CBD8C8B8C598C278CF58BE2
:101D8000C38B918B5F8B2D8BFB8AC98A978A658A5F
:101D9000328A008ACE899C896A8938890689D488E2
:101DA000A1886F883D880B88D987A7877487428769
:101DB0001087DE86AC867A8647861586E385B185F0
:101DC0007E854C851A85E884B684838451841F847B
:101DD000ED83BA83888356832483F182BF828D8208
:101DE0005B822882F681C48192815F812D81FB8094
:101DF000C9809680648032800080CD7F9B7F697F20
:101E0000367F047FD27EA07E6D7E3B7E097ED77DAD
:101E1000A47D727D407D0E7DDB7CA97C777C457C3A
:101E2000127CE07BAE7B7C7B497B177BE57AB37AC7
:101E3000817A4E7A1C7AEA79B87985795379217951
:101E4000EF78BD788B7858782678F477C2779077DA
:101E50005E772B77F976C776957663763176FF7560
:101E6000CD759A75687536750475D274A0746E74E4
:101E70003C740A74D873A673747342731073DE7261
:101E8000AC727A7248721672E471B27180714E71DE
:101E90001C71EA70B870867054702370F16FBF6F58
:101EA0008D6F5B6F296FF86EC66E946E626E306ECA
:101EB000FF6DCD6D9B6D696D386D066DD46CA26C38
:101EC000716C3F6C0D6CDC6BAA6B796B476B156B9F
:101ED000E46AB26A816A4F6A1E6AEC69BB69896901
:101EE00058692669F568C368926860682F68FE675C
:101EF000CC679B676A6738670767D666A4667366B0
:101F000042661166DF65AE657D654C651B65EA64FA
:101F1000B964876456642564F463C3639263616340
:101F20003063FF62CE629D626C623C620B62DA617A
:101F3000A961786147611761E660B56084605460AB
:101F40002360F25FC25F915F605F305FFF5ECF5ED4
:101F50009E5E6E5E3D5E0D5EDC5DAC5D7B5D4B5DF1
:101F60001B5DEA5CBA5C8A5C595C295CF95BC95B05
:101F7000985B685B385B085BD85AA85A785A485A0D
:101F8000185AE859B859885958592859F858C8580A
:101F90009858685839580958D957A9577A574A57FD
:101FA0001A57EB56BB568C565C562D56FD55CE55E2
:101FB0009E556F553F551055E154B15482545354BA
:101FC0002454F453C5539653675338530953DA5284
:101FD000AB527C524D521E52EF51C0519151625141
:101FE00033510551D650A75079504A501B50ED4FF0
:101FF000BE4F904F614F334F044FD64EA74E794E90
:102000004B4E1C4EEE4DC04D924D634D354D074D20
:10201000D94CAB4C7D4C4F4C214CF34BC54B974BA3
:10202000694B3C4B0E4BE04AB24A854A574A294A13
:10203000FC49CE49A149734946491849EB48BE4875
:102040009048634836480948DB47AE4781475447C4
:102050002747FA46CD46A046734646461946ED4503
:10206000C045934566453A450D45E044B444874430
:102070005B442E440244D643A9437D435143244349
:10208000F842CC42A042744248421C42F041C44152
:1020900098416C4140411441E940BD409140664047
:1020A0003A400F40E33FB83F8C3F613F353F0A3F26
:1020B000DF3EB33E883E5D3E323E073EDC3DB13DF5
:1020C000863D5B3D303D053DDA3CAF3C853C5A3CAE
:1020D0002F3C053CDA3BB03B853B5B3B303B063B52
:1020E000DC3AB13A873A5D3A333A093ADF39B539E1
:1020F0008B39613937390D39E338B938903866385A
:102100003C381338E937C03796376D3743371A37BD
:10211000F136C7369E3675364C362336FA35D1350C
:10212000A8357F3556352D350535DC34B3348B3441
:1021300062343A341134E933C0339833703347335F
:102140001F33F732CF32A7327F3257322F32073266
:10215000DF31B7319031683140311931F130CA3057
:10216000A2307B3053302C300530DE2FB62F8F2F2E
:10217000682F412F1A2FF32ECC2EA62E7F2E582EED
:10218000312E0B2EE42DBE2D972D712D4A2D242D91
:10219000FE2CD72CB12C8B2C652C3F2C192CF32B1F
:1021A000CD2BA72B822B5C2B362B102BEB2AC52A91
:1021B000A02A7A2A552A302A0B2AE529C0299B29E8
:1021C000762951292C290729E228BD289928742825
:1021D0004F282B280628E227BD2799277527502747
:1021E0002C270827E426C0269C267826542630264D
:1021F0000C26E925C525A1257E255A253725132539
:10220000F024CD24A9248624632440241D24FA2309
:10221000D723B42392236F234C2329230723E422BB
:10222000C222A0227D225B2239221622F421D22151
:10223000B0218E216C214B2129210721E520C420CA
:10224000A22081205F203E201D20FB1FDA1FB91F26
:10225000981F771F561F351F141FF31ED21EB21E64
:10226000911E711E501E301E0F1EEF1DCF1DAE1D84
:102270008E1D6E1D4E1D2E1D0E1DEE1CCF1CAF1C87
:102280008F1C701C501C311C111CF21BD21BB31B69
:10229000941B751B561B371B181BF91ADA1ABB1A2D
:1022A0009D1A7E1A5F1A411A221A041AE619C719D2
:1022B000A9198B196D194F1931191319F518D71858
:1022C000BA189C187E186118431826180818EB17BE
:1022D000CE17B117941777175A173D172017031702
:1022E000E616CA16AD169116741658163B161F162A
:1022F0000316E715CB15AF15931577155B153F152D
:1023000024150815EC14D114B5149A147F14631411
:1023100048142D141214F713DC13C113A7138C13D4
:10232000711357133C1322130713ED12D312B81273
:102330009E1284126A12501236121C120312E911F4
:10234000CF11B6119C1183116A11501137111E1152
:102350000511EC10D310BA10A1108910701057108D
:102360003F1026100E10F60FDD0FC50FAD0F950FA5
:102370007D0F650F4D0F350F1E0F060FEE0ED70E9A
:10238000BF0EA80E910E790E620E4B0E340E1D0E6E
:10239000060EEF0DD90DC20DAB0D950D7E0D680D1E
:1023A000510D3B0D250D0F0DF90CE30CCD0CB70CA9
:1023B000A10C8B0C760C600C4A0C350C200C0A0C12
:1023C000F50BE00BCB0BB60BA10B8C0B770B620B59
:1023D0004E0B390B240B100BFC0AE70AD30ABF0A79
:1023E000AB0A970A830A6F0A5B0A470A330A200A74
:1023F0000C0AF909E509D209BF09AC099809850950
:1024000072095F094D093A09270915090209EF0800
:10241000DD08CB08B808A6089408820870085E0892
:102420004C083B08290817080608F407E307D107FA
:10243000C007AF079E078D077C076B075A07490740
:102440003907280718070707F706E606D606C6065F
:10245000B606A60696068606760667065706470659
:102460003806280619060A06FB05EB05DC05CD052E
:10247000BE05B005A10592058305750566055805DD
:102480004A053B052D051F0511050305F504E70465
:10249000DA04CC04BE04B104A304960489047C04C9
:1024A0006E046104540447043B042E042104140404
:1024B0000804FB03EF03E303D603CA03BE03B2031E
:1024C000A6039A038F03830377036C03600355030A
:1024D00049033E03330328031D0312030703FC02D1
:1024E000F102E702DC02D102C702BD02B202A80279
:1024F0009E0294028A02800276026C0263025902F2
:102500004F0246023D0233022A02210218020F0244
:102510000602FD01F401EC01E301DA01D201C90177
:10252000C101B901B101A901A1019901910189017B
:1025300081017A0172016B0163015C0155014D015A
:1025400046013F01380131012B0124011D01170112
:1025500010010A010301FD00F700F100EB00E500A6
:10256000DF00D900D300CE00C800C300BD00B80012
:10257000B300AD00A800A3009E0099009500900054
:102580008B00870082007E007900750071006D006D
:102590006900650061005D005900560052004F005F
:1025A0004B004800440041003E003B00380035002D
:1025B000320030002D002A002800260023002100D0
:1025C0001F001D001B00190017001500130011004B
:1025D00010000E000D000C000A00090008000700A2
:1025E00006000500040004000300020002000100D0
:1025F00001000100010001000100010001000100D3
:1026000001000100020002000300040004000500B4
:1026100006000700080009000A000C000D000E006B
:102620001000110013001500170019001B001D00F9
:102630001F0021002300260028002A002D00300062
:102640003200350038003B003E00410044004800A5
:102650004B004F005200560059005D0061006500BC
:1026600069006D007100750079007E0082008700AE
:102670008B009000950099009E00A300A800AD007B
:10268000B300B800BD00C300C800CE00D300D9001D
:10269000DF00E500EB00F100F700FD0003010A0197
:1026A000100117011D0124012B01310138013F01E7
:1026B00046014D0155015C0163016B0172017A0114
:1026C0008101890191019901A101A901B101B9011A
:1026D000C101C901D201DA01E301EC01F401FD01FC
:1026E00006020F02180221022A0233023D024602AC
:1026F0004F02590263026C02760280028A0294023F
:102700009E02A802B202BD02C702D102DC02E702A9
:10271000F102FC02070312031D03280333033E03E7
:102720004903550360036C03770383038F039A0304
:10273000A603B203BE03CA03D603E303EF03FB03FE
:102740000804140421042E043B04470454046104C7
:102750006E047C0489049604A304B104BE04CC0472
:10276000DA04E704F504030511051F052D053B05F3
:102770004A0558056605750583059205A105B0054E
:10278000BE05CD05DC05EB05FB050A061906280686
:102790003806470657066706760686069606A60694
:1027A000B606C606D606E606F70607071807280780
:1027B000390749075A076B077C078D079E07AF0744
:1027C000C007D107E307F4070608170829083B08E4
:1027D0004C085E08700882089408A608B808CB0860
:1027E000DD08EF080209150927093A094D095F09B3
:1027F000720985099809AC09BF09D209E509F909E7
:102800000C0A200A330A470A5B0A6F0A830A970AEE
:10281000AB0ABF0AD30AE70AFC0A100B240B390BD8
:102820004E0B620B770B8C0BA10BB60BCB0BE00B9B
:10283000F50B0A0C200C350C4A0C600C760C8B0C3A
:10284000A10CB70CCD0CE30CF90C0F0D250D3B0DB5
:10285000510D680D7E0D950DAB0DC20DD90DEF0D0F
:10286000060E1D0E340E4B0E620E790E910EA80E42
:10287000BF0ED70EEE0E060F1E0F350F4D0F650F54
:102880007D0F950FAD0FC50FDD0FF60F0E10261043
:102890003F10571070108910A110BA10D310EC100F
:1028A00005111E11371150116A1183119C11B611B7
:1028B000CF11E91103121C12361250126A1284123F
:1028C0009E12B812D312ED12071322133C135713A2
:1028D00071138C13A713C113DC13F71312142D14E7
:1028E000481463147F149A14B514D114EC14081509
:1028F00024153F155B1577159315AF15CB15E71507
:1029000003161F163B16581674169116AD16CA16E6
:10291000E616031720173D175A1777179417B117A4
:10292000CE17EB1708182618431861187E189C1844
:10293000BA18D718F518131931194F196D198B19C1
:10294000A919C719E619041A221A411A5F1A7E1A20
:102950009D1ABB1ADA1AF91A181B371B561B751B5E
:10296000941BB31BD21BF21B111C311C501C701C7E
:102970008F1CAF1CCF1CEE1C0E1D2E1D4E1D6E1D80
:102980008E1DAE1DCF1DEF1D0F1E301E501E711E61
:10299000911EB21ED21EF31E141F351F561F771F25
:1029A000981FB91FDA1FFB1F1D203E205F208120CA
:1029B000A220C420E520072129214B216C218E2152
:1029C000B021D221F421162239225B227D22A022BD
:1029D000C222E422072329234C236F239223B4230A
:1029E000D723FA231D24402463248624A924CD243C
:1029F000F024132537255A257E25A125C525E9254F
:102A00000C263026542678269C26C026E426082745
:102A10002C27502775279927BD27E22706282B2822
:102A20004F2874289928BD28E22807292C295129E4
:102A300076299B29C029E5290B2A302A552A7A2A8A
:102A4000A02AC52AEB2A102B362B5C2B822BA72B16
:102A5000CD2BF32B192C3F2C652C8B2CB12CD72C88
:102A6000FE2C242D4A2D712D972DBE2DE42D0B2EDD
:102A7000312E582E7F2EA62ECC2EF32E1A2F412F1C
:102A8000682F8F2FB62FDE2F05302C3053307B3040
:102A9000A230CA30F1301931403168319031B7314C
:102AA000DF3107322F3257327F32A732CF32F7323F
:102AB0001F33473370339833C033E93311343A341A
:102AC00062348B34B334DC3405352D3556357F35DF
:102AD000A835D135FA3523364C3675369E36C7368D
:102AE000F1361A3743376D379637C037E937133821
:102AF0003C3866389038B938E3380D3937396139A0
:102B00008B39B539DF39093A333A5D3A873AB13A08
:102B1000DC3A063B303B5B3B853BB03BDA3B053C5C
:102B20002F3C5A3C853CAF3CDA3C053D303D5B3D9B
:102B3000863DB13DDC3D073E323E5D3E883EB33EC4
:102B4000DF3E0A3F353F613F8C3FB83FE33F0F40D8
:102B50003A4066409140BD40E940144140416C41DB
:102B60009841C441F0411C4248427442A042CC42C8
:102B7000F842244351437D43A943D64302442E44A3
:102B80005B448744B444E0440D453A45664593456B
:102B9000C045ED45194646467346A046CD46FA4621
:102BA000274754478147AE47DB47094836486348C3
:102BB0009048BE48EB48184946497349A149CE4957
:102BC000FC49294A574A854AB24AE04A0E4B3C4BD7
:102BD000694B974BC54BF34B214C4F4C7D4CAB4C49
:102BE000D94C074D354D634D924DC04DEE4D1C4EA9
:102BF0004B4E794EA74ED64E044F334F614F904FF8
:102C0000BE4FED4F1B504A507950A750D65005513A
:102C1000335162519151C051EF511E524D527C526D
:102C2000AB52DA520953385367539653C553F45392
:102C3000245453548254B154E15410553F556F55A8
:102C40009E55CE55FD552D565C568C56BB56EB56B3
:102C50001A574A577A57A957D957095839586858AF
:102C60009858C858F858285958598859B859E8599F
:102C7000185A485A785AA85AD85A085B385B685B81
:102C8000985BC95BF95B295C595C8A5CBA5CEA5C5D
:102C90001B5D4B5D7B5DAC5DDC5D0D5E3D5E6E5E28
:102CA0009E5ECF5EFF5E305F605F915FC25FF25FEE
:102CB000236054608460B560E660176147617861A5
:102CC000A961DA610B623C626C629D62CE62FF6256
:102CD000306361639263C363F463256456648764FD
:102CE000B964EA641B654C657D65AE65DF65116698
:102CF00042667366A466D666076738676A679B672D
:102D0000CC67FE672F6860689268C368F5682669BB
:102D100058698969BB69EC691E6A4F6A816AB26A3F
:102D2000E46A156B476B796BAA6BDC6B0D6C3F6CBF
:102D3000716CA26CD46C066D386D696D9B6DCD6D38
:102D4000FF6D306E626E946EC66EF86E296F5B6FAB
:102D50008D6FBF6FF16F237054708670B870EA701A
:102D60001C714E718071B271E471167248727A7280
:102D7000AC72DE72107342737473A673D8730A74E4
:102D80003C746E74A074D2740475367568759A7547
:102D9000CD75FF75317663769576C776F9762B77A4
:102DA0005E779077C277F477267858788B78BD78FD
:102DB000EF78217953798579B879EA791C7A4E7A56
:102DC000817AB37AE57A177B497B7C7BAE7BE07BAB
:102DD000127C457C777CA97CDB7C0E7D407D727DFE
:102DE000A47DD77D097E3B7E6D7EA07ED27E047F52
:102DF000367F697F9B7FCD7F0D0A3F3F3F20756EF9
:102E00006B6E6F776E20636F6D6D616E64202D2029
:102E1000666F7220617373697374616E6365206598
:102E20006E746572202068656C700D0A00786F3DC5
:102E30000072657365743D0070743D006B623D0007
:102E400068656C7000696E666F3D0065623D006488
:102E500064733D006461633D0063616C3D6779723A
:102E60006F0063616C3D64656661756C74730063CB
:102E7000616C3D616363656C7A0063616C3D6163A5
:102E800063656C790063616C3D616363656C7800B8
:102E9000626C3D00626961733D00412F0041540046
:102EA0006164633D000D0A3E20000D0A002D313A99
:102EB00020504C4C204F4E0D0A00786F3D090930D0
:102EC0002D36353533353A2056435443584F20700C
:102ED000756C6C20766F6C746167652C2000726570
:102EE0007365743D0909313A207265626F6F742011
:102EF000414C4C0D0A00313A207475726E2073708B
:102F00006565642C20323A20766172696F6D657454
:102F100065720D0A0070743D0909303A20706974B9
:102F2000636820746F6E65204F46462C20006B62EC
:102F30003D0909303A206B65792062656570204F44
:102F400046462C20313A204F4E0D0A003078303260
:102F50003A2053494D3830380D0A00696E666F3D8E
:102F60000909303A204F46462C20307830313A203B
:102F70004154786D6567612C200061626F75742023
:102F8000616C6C20617661696C61626C6520636F55
:102F90006D6D616E64730D0A0068656C700909548B
:102FA00068697320696E666F726D6174696F6E20F7
:102FB00070616765200065623D0909303A206572DD
:102FC000726F722062656570204F46462C20313A40
:102FD000204F4E0D0A00633A207374617274696E5B
:102FE00067207068617365206F6620444453312DFB
:102FF00044445330206465670D0A00623A2044441B
:103000005331206D487A2C20006464733D612C623A
:103010002C6309613A20444453302066726571750F
:10302000656E6379206D487A2C2000313A207475E2
:10303000726E2044414342206F6E0D0A006461634A
:103040003D0909303A207475726E20444143422094
:103050006F66662C200009096779726F3A207265E5
:1030600064756365204759524F206F6666736574B7
:10307000206572726F72730D0A00090961636365DE
:103080006C7A3A205A2D6178697320316720666125
:1030900063742D63616C2C20582F59206F66667302
:1030A00065742D63616C0D0A000909616363656CC9
:1030B000793A20592D617869732031672066616300
:1030C000742D63616C2C20582F5A206F66667365CF
:1030D000742D63616C0D0A000909616363656C7886
:1030E0003A20582D617869732031672066616374D6
:1030F0002D63616C2C20592F5A206F66667365749E
:103100002D63616C0D0A00746F20454550524F4D80
:103110000D0A0063616C3D090964656661756C7434
:10312000733A20736176652064656661756C7420FE
:1031300076616C75657320002D313A204155544FEE
:103140002C202D323A205455524E4C494748542099
:103150007370656369616C0D0A00626C3D0909302A
:103160002D3235353A206261636B6C696768742073
:1031700050574D2C2000666F72204C434420636FE3
:103180006E74726173740D0A00626961733D09099E
:10319000302D36333A206269617320766F6C74612A
:1031A0006765200041540909434D4420746F207322
:1031B000656E6420746F207468652053494D383003
:1031C000380D0A00313A207475726E204144434133
:1031D00020616E642041444342206F6E0D0A0061FD
:1031E00064633D0909303A207475726E204144438E
:1031F0004120616E642041444342206F66662C206A
:10320000002A20434F4D4D414E4453202A0D0A2A97
:103210002A2A2A2A2A2A2A2A2A2A2A0D0A0D0A00B2
:103220000D0A0D0A0D0A2A2A2A2A2A2A2A2A2A2AB5
:103230002A2A0D0A0025352E33660025342E3166E4
:10324000002530372E3266002530352E3266002DAF
:103250002D2D2D2D2D2D2D2D2D2D0D0A0D0A004935
:103260006E69743A204261726F20207375636365E2
:103270007373005457492D6F6E626F6172643A2008
:10328000202E2E2E20646576696365206E6F742073
:103290006F6E20626F6172642E202873633D256417
:1032A000290D0A005457492D6F6E626F6172643A9E
:1032B0002020494E495420737563636573732E0D46
:1032C0000A005457492D6F6E626F6172643A202074
:1032D0004241442072656164696E672050524F4DCF
:1032E00020616464726573732025642E20287363E3
:1032F0003D2564290D0A005457492D6F6E626F6198
:1033000072643A204261726F204D53353630373047
:1033100032424130332D3530202D202020202073A3
:10332000657269616C233A2025640D0A005457497F
:103330002D6F6E626F6172643A20204241442072A8
:10334000656164696E672073657269616C2F4352B1
:103350004320776F72642E202873633D2564290D06
:103360000A000D0A5457492D6F6E626F6172643AFC
:10337000204261726F204D53353630373032424132
:1033800030332D3530202D20493243206164647262
:103390006573733A203078253032580D0A00496E33
:1033A00069743A204779726F20207375636365737F
:1033B00073005457492D6F6E626F6172643A20201A
:1033C0002E2E2E20646576696365206E6F74206FE3
:1033D0006E20626F6172642E202873633D2564291C
:1033E0000D0A005457492D6F6E626F6172643A2066
:1033F00020494E495420737563636573732E0D0A1B
:10340000005457492D6F6E626F6172643A2047799C
:10341000726F204D50552D39323530202D2020200F
:10342000202076657273696F6E3A203078253032CD
:10343000582C203078253032580D0A005457492D29
:103440006F6E626F6172643A204779726F204D50DF
:10345000552D393235302020202D2020202772652F
:103460007365742031272062616420726573706F08
:103470006E73650D0A000D0A5457492D6F6E626F09
:103480006172643A204779726F204D50552D393260
:103490003530202D20493243206164647265737396
:1034A0003A203078253032582C2030782530325868
:1034B0000D0A00496E69743A20487967726F20736B
:1034C000756363657373005457492D6F6E626F6146
:1034D00072643A20202E2E2E206465766963652062
:1034E0006E6F74206F6E20626F6172642E2028737D
:1034F000633D2564290D0A005457492D6F6E626F94
:103500006172643A2020494E4954207375636365A3
:1035100073732E0D0A005457492D6F6E626F6172DE
:10352000643A20487967726F2053485433312D44F0
:103530004953202D2020207374617475733A203014
:1035400078253032580D0A005457492D6F6E626F3E
:103550006172643A20487967726F2053485433315E
:103560002D444953202D20202061646472657373BB
:10357000204E41434B202F2027627265616B27202C
:1035800062616420726573706F6E73650D0A000D61
:103590000A5457492D6F6E626F6172643A20487900
:1035A00067726F2053485433312D444953202D20E6
:1035B00049324320616464726573733A2030782520
:1035C0003032580D0A00646F5570646174653D2592
:1035D000642C206F75744F6653796E633D256420AB
:1035E000090044454255475F4D41494E5F315050B7
:1035F000533A20646966663D252B3034642C206C78
:103600006173745F61646A7573743D25642C20690D
:103610006E5370616E3D25642C20000011241FBE86
:10362000CFEFCDBFDFE5DEBF00E00CBF11E2A0E0D1
:10363000B0E2ECEEF6E101E00BBF02C007900D92A4
:10364000AA3BB107D9F72EE2AAEBB1E201C01D9265
:10365000A93DB207E1F70E94E06D0C94528B0C94E7
:103660000000EF92FF920F931F93CF93DF937C01A3
:10367000EB018B01040F151FC017D10721F06991D1
:10368000C701C1D0F9CF80E0DF91CF911F910F9199
:10369000FF90EF900895009709F4B4C0803C910525
:1036A00011F460E105C0803821E0920719F462E06E
:1036B00080E0A6C0811521E0920711F461E0F8CF07
:1036C000803823E0920711F461E00BC0803923E0D9
:1036D000920711F461E012C0811522E0920719F4FB
:1036E00062E081E08DC0803422E0920711F462E054
:1036F00005C0803223E0920719F464E082E080C0C4
:10370000811528E0920711F461E073C0811529E06A
:10371000920711F461E066C081152AE0920711F466
:1037200061E06DC081152BE0920711F461E04DC09E
:10373000803428E0920711F462E05BC0803429E015
:10374000920711F462E04EC080342AE0920711F42F
:1037500062E055C0803928E0920711F464E049C066
:10376000803929E0920711F464E03CC080392AE0F6
:10377000920711F464E043C080392BE0920711F402
:1037800064E023C0803C28E0920711F468E031C077
:10379000803C29E0920711F468E024C0803A28E0D8
:1037A000920711F460E125C0803A29E0920711F4F4
:1037B00060E118C0803A2AE0920711F460E11FC06E
:1037C000803A2BE0920719F460E186E019C0803B53
:1037D00028E0920711F460E20CC0803B29E09207D8
:1037E00019F460E284E00CC0803824E0920719F4F8
:1037F00060E483E005C0803A944021F460E485E011
:103800000C94C6710895FC01218125FFFCCF6083D3
:1038100080E090E00895FC01218127FFFCCF8081AA
:1038200008958F929F92AF92BF92CF92DF92EF92C4
:10383000FF920F931F93CF93DF93EC016A017B01FB
:10384000480159018C81B901A80182FF11C033E000
:1038500076956795579547953A95D1F7D501C40167
:10386000E6E1B695A79597958795EA95D1F710C0AB
:1038700094E076956795579547959A95D1F7D90134
:10388000C80127E1B695A795979587952A95D1F711
:103890004C155D056E057F0508F498C0C816D9065D
:1038A000EA06FB0608F492C08C8182FD04C0CC0CB1
:1038B000DD1CEE1CFF1CC501B401A70196010E948E
:1038C0009D8319EF8FEF90E0A0E0B0E02817390753
:1038D0004A075B0758F0880F991FAA1FBB1F1D3F9F
:1038E0000CF481601F5F173089F749C017FF47C08C
:1038F000D701C601F3E0880F991FAA1FBB1FFA95D5
:10390000D1F7881A990AAA0ABB0A812F012E000C46
:10391000990B1E3FDCF42DEF3FEFA901481B590B1B
:1039200004C0880C991CAA1CBB1C4A95D2F7D7016D
:10393000C601B695A79597958795BC01CD01680DF1
:10394000791D8A1D9B1DA701960116C00396A7012C
:10395000960104C0220F331F441F551F8A95D2F7CA
:10396000DA01C901B695A79597958795BC01CD0158
:10397000680D791D8A1D9B1D0E949D831DC083E0DB
:10398000810FA701960104C0220F331F441F551F4A
:103990008A95D2F7DA01C901B695A79597958795CB
:1039A000BC01CD01680D791D8A1D9B1D0E949D8360
:1039B0002150310941095109932F9F70812F829520
:1039C000807F892B8F832E8381E001C080E0DF918F
:1039D000CF911F910F91FF90EF90DF90CF90BF900C
:1039E000AF909F908F9008950F931F93CF93DF9385
:1039F000EC018B0150DE8D818F738D83F8019581F1
:103A00008481982B8681811188E0892B8D83F80130
:103A1000408151816281738100E813EC29EC31E02F
:103A2000CE01FFDE9C8198609C839C8190619C8389
:103A3000DF91CF911F910F91089504C061507109DA
:103A4000810991096115710581059105B9F70895FD
:103A5000CF93DF931F92CDB7DEB7E82FE695E695BB
:103A6000E69590E2E99FF0011124E05FF94F87703D
:103A7000E80FF11D8FB78983F89499818081877051
:103A800080838081682B60839FBF0F90DF91CF91EF
:103A900008951F920F920FB60F9211240BB60F923A
:103AA0002F933F934F935F936F937F938F939F9346
:103AB000AF93BF93EF93FF9380EA9BE0ACDE20913E
:103AC000A4283091A5282F3F310509F058F4A90109
:103AD0004F5F5F4F4093A4285093A528F901EC5500
:103AE000F84D808381E08093A628FF91EF91BF91EC
:103AF000AF919F918F917F916F915F914F913F9186
:103B00002F910F900BBE0F900FBE0F901F90189526
:103B1000AC019FEF960F9F3F61F0292F30E0FA0133
:103B2000E20FF31F8081F901E65BFA4D808391502B
:103B3000F2CF462F50E0FA01E65BFA4D8DE080832C
:103B400011826AE475E280EA9BE08BCD9F92AF928E
:103B5000BF92CF92DF92EF92FF920F931F93CF937A
:103B6000DF93C0EAD6E082E0E82EED8298E0F92EFD
:103B7000FD8220E8B22EBD8230E8C32E36E0D32E7F
:103B800040E2942EF601968250E1A52EA68200E630
:103B900016E0F801E682F68260E889E259DF60E823
:103BA0008BE256DF60E88FE253DF60E985E250DFA9
:103BB00060E984E24DDF60E989E14ADF60E98BE199
:103BC00047DFE982F98294E09A83B98220E42A836C
:103BD000AA8281E08A83F6019182A182F282E0E0EA
:103BE000F6E0B2822283F801E182F182928382833D
:103BF0008093E207E7EAF8E280E096E9A0E0B0E02F
:103C000080839183A283B38383E0848315821682A9
:103C1000DF91CF911F910F91FF90EF90DF90CF90A8
:103C2000BF90AF909F9008953F924F925F926F9296
:103C30007F928F929F92AF92BF92CF92DF92EF923C
:103C4000FF920F931F93CF93DF93CDB7DEB72797E4
:103C5000CDBFDEBF8091AB288D838091AC288E8351
:103C60008091AD288F838091A7289091A828A0915A
:103C7000A928B091AA2889839A83AB83BC8360E189
:103C800086E00E94C671BE016F5F7F4F80EA9BE0B5
:103C9000ABDE80E18093A30B89E694E09F938F9342
:103CA0001F9230E4F32EFF920AE415E21F930F9364
:103CB0000E94F087A80166E488E00E94C0378DEC7E
:103CC00094E09F938F931F92FF921F930F930E94F4
:103CD000F08740E0682FC801E4D180E28093850638
:103CE00061EA75E286E290E0A8DE82E08093A606B3
:103CF00061E271EA87E090E0A0DE80E88093A606AA
:103D000068E873E180E090E098DECDBFDEBF48E078
:103D1000742E780150E8652E62E0562E70E2472E30
:103D2000EDE48E2EE4E09E2EF0E43F2EA5EAAA2ECE
:103D3000A4E0BA2E2CE0C22ED12C43E050E060E18A
:103D400071E280EA9BE08DDC61E271EA87E090E05D
:103D500074DE8091A628882381F38FB78983F89435
:103D600029818091A4289091A528019797FD09C0E9
:103D7000FC01EC55F84D3081FC01E65BFA4D3083D7
:103D8000F4CF1092A4281092A5281092A6282FBF35
:103D90000AE415E280914A25882341F065EF74E03A
:103DA000C8010E940787892B09F052C031E0C31A6D
:103DB000D10809F0C2CF6092A5065092A5064092A4
:103DC000860661EB71E78BE090E037DE8CE08715CB
:103DD00020F40E94D93A93E0792E9F928F921F92FD
:103DE0003F92FF92EF920E94F08711E0170D672D2E
:103DF000660F862F880F880F680F4AE455E288E027
:103E00000E94C037BF92AF921F923F92FF92EF92F3
:103E10000E94F08740E0682F8AE495E242D1409208
:103E2000850661EA75E286E290E007DE5092A6061A
:103E300061E271EA87E090E000DE6092A60668E841
:103E400073E180E090E0F9DDCDBFDEBF712E72CF6F
:103E50001F921F9286E98F931F928BE294E09F93AB
:103E60008F931F9280E4F82EFF921F930F930E946E
:103E7000F087AC016AE475E280EA9BE0F2DB84EF54
:103E800091E00E94D86C8DE094E09F938F931F92F5
:103E9000FF921F930F930E94F087AC016AE475E2D2
:103EA00080EA9BE0DEDB84EF91E00E94D86C84E046
:103EB00094E09F938F931F92FF921F930F930E9402
:103EC000F087AC016AE475E280EA9BE0CADB84EF2C
:103ED00091E00E94D86C8FE194E09F938F931F92A2
:103EE000FF921F930F930E94F087AC016AE475E282
:103EF00080EA9BE0B6DB84EF91E00E94D86C83E11E
:103F000094E09F938F931F92FF921F930F930E94B1
:103F1000F087CDBFDEBFAC016AE475E280EA9BE0CA
:103F2000A0DB84EF91E00E94D86C1F92EE24E39412
:103F3000EF9284EF93E09F938F931F92FF921F93D2
:103F40000F930E94F087AC016AE475E280EA9BE07F
:103F500088DB84EF91E00E94D86C1F92EF9287EE8D
:103F600093E09F938F931F92FF921F930F930E9452
:103F7000F087AC016AE475E280EA9BE072DB84EFD3
:103F800091E00E94D86C88E394E09F938F931F92F6
:103F9000FF921F930F930E94F087770C672D660F97
:103FA000660F670D4AE455E288E00E94C03783E857
:103FB00094E09F938F931F92FF921F930F930E9401
:103FC000F08740E0682F8AE495E26BD0CDBFDEBF7A
:103FD0002796CDBFDEBFDF91CF911F910F91FF904C
:103FE000EF90DF90CF90BF90AF909F908F907F9099
:103FF0006F905F904F903F900895CF93DF931F9203
:10400000CDB7DEB78091A628882309F446C08FB7C4
:104010008983F89449816091A4287091A52861153D
:10402000710599F16134710530F09B01205431091B
:1040300060E470E002C020E030E0CB010197FC01B9
:10404000E65BFA4DDC01AC55B84D5C9150830197AD
:10405000B0F72115310599F0E4EAF7E2CF01845A6F
:1040600097428217930730F4DF01A05CBF4F8C9119
:104070008193F4CF2093A4283093A52806C01092F2
:10408000A4281092A5281092A6284FBF611571058B
:1040900021F040E08AE495E204D00F90DF91CF91C7
:1040A0000895EF92FF920F931F93CF93DF93209188
:1040B000B0282223A9F1042F162F7C01D0E0C0E004
:1040C000C11760F50E9429758823D1F0F701EC0F24
:1040D000F11D8081002349F0282F082E000C330B9E
:1040E0002052310920363105B0F49091AF2891115A
:1040F00012C0082E000C990B0E947375892B59F47D
:10410000DF5F89E190E00E94D86CD93CC8F2109240
:10411000B0288C2F06C0CF5FD0E0D2CF8C2F01C04B
:1041200080E0DF91CF911F910F91FF90EF90089564
:104130000E9466798091B42881110E945F7988EE8F
:1041400093E00E94D86C81E797E09F938F931F9232
:1041500080E48F938AE495E29F938F930E94F08787
:104160008134910510F080E490E040E0682F8AE40B
:1041700095E297DF84EF91E00E94D86C1F928CE06B
:104180008F938BE497E09F938F931F9280E48F939C
:104190008AE495E29F938F930E94F0878134910582
:1041A00010F080E490E040E0682F8AE495E279DF47
:1041B0008AEF90E00E94D86C89E297E09F938F93FA
:1041C0001F9280E48F938AE495E29F938F930E94DD
:1041D000F0878134910510F080E490E040E0682F92
:1041E0008AE495E25EDF8AEF90E00E94D86C85E079
:1041F00097E09F938F931F9280E48F938AE495E2D8
:104200009F938F930E94F0872DB73EB7265E3F4F56
:104210002DBF3EBF8134910510F080E490E040E076
:10422000682F8AE495E23DCF83E08093AE2808951D
:1042300082E08093AE2808950895089581E08093E8
:10424000B02808951092B02808950895089508950B
:1042500081E08093B12808951092AF2808952F929D
:104260003F924F925F926F927F928F929F92AF9206
:10427000BF92CF92DF92EF92FF920F931F93CF9353
:10428000DF93CDB7DEB7C554D109CDBFDEBF2091D6
:10429000B028222309F486C46E837F838887998798
:1042A0008091B1288823C9F11092B1288DE896E257
:1042B0000E946467882389F10E94A6738C01059788
:1042C00028F104E010E022C08091DE28882341F02C
:1042D00061E080EB0E94F2348AE090E00E94D86CAA
:1042E000B801CE0101960E94A9748091B328811172
:1042F00005C041E0602FCE010196D3DEB801CE01AA
:1043000001960E94E12B0E94A6738C0101151105F4
:10431000D9F68DE896E20E9477678091B2288823CB
:1043200009F4C2C08091B728882309F4BDC08FB7B3
:104330008D83F894FD801091D4280091D528209089
:10434000CC283090CD284090CE285090CF28609037
:10435000D0287090D1288090D2289090D328609156
:10436000B9287091BA28072E000C880B990B0E946F
:104370009B806E87788B8A8B9C8B20911327309142
:10438000142740911527509116272A873B874C8781
:104390005D87FFBE1092B7280F931F9348EEA42E9F
:1043A00053E0B52EC12CD12CE12CF12C00E010E013
:1043B0009101A201B301C4010E94B8845F934F939D
:1043C0003F932F939101A201B301C4010E94BA84CB
:1043D0005F934F933F932F938AE295E09F938F9340
:1043E0001F9280E48F938AE495E29F938F930E94BB
:1043F000F0878134910510F080E490E040E0682F70
:104400008AE495E24EDE4C884F925A885F92688823
:104410006F927E847F9283E195E09F938F931F92AA
:1044200080E48F938AE495E29F938F930E94F087B4
:104430008134910510F080E490E040E0682F8AE438
:1044400095E22FDE8A859B85AC85BD859927AA27B5
:10445000BB27BF93AF939F938F938A859B85AC8532
:10446000BD858827BB27892F9A2FAB2FBB27BF93EA
:10447000AF939F938F9388EF94E09F938F931F92B6
:1044800080E48F938AE495E29F938F930E94F08754
:10449000CDBFDEBF8134910510F080E490E040E0B4
:1044A000682F8AE495E2FDDD8091B328882309F422
:1044B00079C38091BA219091BB21A091BC21B09188
:1044C000BD214E815F8168857985481B590B6A0B38
:1044D0007B0B411552406105710550F44E805F80A1
:1044E00068847984481659066A067B0608F05AC320
:1044F0008FB78983F89469815090A92625965FAE7D
:1045000025976090AA2626966FAE26972091A7261B
:104510003091A8264091A5265091A6267090A326FA
:104520007EA64090A4264FA60091A1261091A22617
:1045300020909F263090A02660909D2670909E2609
:104540006A867B868090272790902827A09029272D
:10455000B0902A27C0902327D0902427E0902527C9
:10456000F090262740901B2750901C274E865F8690
:104570006090192770901A27688A798A7090982716
:1045800078AA4090992749AA509096275AAA6090F5
:1045900097276BAA709094277CAA409095274DAAE4
:1045A00060908627709087276A8A7B8A409084274C
:1045B000509085274C8A5D8A60908227709083276F
:1045C0006E8A7F8A709080277EAA409081274FAAAA
:1045D00050907E2758AE60907F2769AE70907C2700
:1045E0007AAE40907D274BAE409072275090732753
:1045F0006090742770907527488E598E6A8E7B8ED6
:1046000040906E2750906F276090702770907127B0
:1046100080916A2790916B27A0916C27B0916D27AC
:104620008C8F9D8FAE8FBF8F9091A0279CAFA09154
:10463000A127ADAFE0919A27F0919B27E8A3F9A3BA
:10464000F0915C27FEAF70915D277FAF80915A2774
:1046500021968FAF219790915B2722969FAF22974B
:10466000A09158272396AFAF2397B091592724964E
:10467000BFAF249780914E2790914F27A09150274C
:10468000B09151278AA39BA3ACA3BDA380914A27D5
:1046900090914B27A0914C27B0914D278EA39FA3BB
:1046A000A8A7B9A78091462790914727A0914827AE
:1046B000B09149278AA79BA7ACA7BDA76FBF5F93FF
:1046C0004F933F932F9326969FAD26979F932596C2
:1046D000AFAD2597AF938E819F81A885B9852AE0DC
:1046E000B695A795979587952A95D1F7BF93AF93E0
:1046F0009F938F9380ED96E09F938F931F9280E41A
:104700008F938AE495E29F938F930E94F087813480
:10471000910510F080E490E040E0682F8AE495E293
:10472000C0DC3F922F921F930F93BFA5BF93EEA5BE
:10473000EF9386EA96E09F938F931F9280E48F9386
:104740008AE495E29F938F930E94F08781349105CC
:1047500010F080E490E040E0682F8AE495E2A1DC6C
:104760002A853B85B901330F880B990B0E949B80EA
:1047700020E030E048EC52E40E9400809F938F9349
:104780007F936F9382E996E09F938F931F9280E4CB
:104790008F938AE495E29F938F930E94F087CDBF19
:1047A000DEBF8134910510F080E490E040E0682F96
:1047B0008AE495E276DCC701B6010E949B8020E086
:1047C00030E048EC52E40E9400809F938F937F93E7
:1047D0006F93C501B4010E949B8020E030E048EC5B
:1047E00052E40E9400809F938F937F936F938BE698
:1047F00096E09F938F931F9280E48F938AE495E2D3
:104800009F938F930E94F0878134910510F080E48C
:1048100090E040E0682F8AE495E243DCA889B989FA
:10482000BD01BB0F880B990B0E949B8020E030E0FC
:1048300048EC52E40E9400809F938F937F936F9384
:10484000EE85FF85BF01FF0F880B990B0E949B80AF
:1048500020E030E048EC52E40E9400809F938F9368
:104860007F936F9380E496E09F938F931F9280E4F1
:104870008F938AE495E29F938F930E94F08781340F
:10488000910510F080E490E040E0682F8AE495E222
:1048900008DCFBA9FF932AA92F934C895D89BA01F3
:1048A000550F880B990B0E949B8020E030E04AE76F
:1048B00054E40E9400809F938F937F936F9359A934
:1048C0005F9378A97F93AA89BB89BD01BB0F880B31
:1048D000990B0E949B8020E030E04AE754E40E945C
:1048E00000809F938F937F936F9384E196E09F93D3
:1048F0008F931F9280E48F938AE495E29F938F9326
:104900000E94F087CDBFDEBF8134910510F080E4B6
:1049100090E040E0682F8AE495E2C3DBFDA9FF93B5
:104920002CA92F934E895F89BA01550F880B990BDB
:104930000E949B8020E030E04AE754E40E9400801F
:104940009F938F937F936F938DEF95E09F938F93BA
:104950001F9280E48F938AE495E29F938F930E9445
:10496000F0878134910510F080E490E040E0682FFA
:104970008AE495E296DB59AD5F9378AD7F93C301EE
:10498000B2010E949B8020E030E04AE754E40E949C
:1049900000809F938F937F936F934FA84F925EA851
:1049A0005F92688D798D8A8D9B8D0E949B8020E01F
:1049B00030E04AE754E40E9400809F938F937F93F6
:1049C0006F938EEC95E09F938F931F9280E48F936B
:1049D0008AE495E29F938F930E94F087813491053A
:1049E00010F080E490E040E0682F8AE495E259DB23
:1049F0006BAC6F927AAC7F926C8D7D8D8E8D9F8D1E
:104A00000E949B8020E030E04AE754E40E9400804E
:104A10009F938F937F936F9386EB95E09F938F93F4
:104A20001F9280E48F938AE495E29F938F930E9474
:104A3000F087CDBFDEBF8134910510F080E490E0B7
:104A400040E0682F8AE495E22CDB22964FAC229757
:104A50004F9221965FAC21975F926EA17FA188A5AE
:104A600099A50E949B8020E030E04AE754E40E9430
:104A700000809F938F937F936F936FAC6F927EAC08
:104A80007F926AA17BA18CA19DA10E949B8020E0C6
:104A900030E04AE754E40E9400809F938F937F9315
:104AA0006F9389E895E09F938F931F9280E48F9393
:104AB0008AE495E29F938F930E94F0878134910559
:104AC00010F080E490E040E0682F8AE495E2E9DAB3
:104AD00024964FAC24974F9223965FAC23975F9216
:104AE0006AA57BA58CA59DA50E949B8020E030E057
:104AF0004AE754E40E9400809F938F937F936F93C3
:104B000081E795E09F938F931F9280E48F938AE4CF
:104B100095E29F938F930E94F0878134910510F066
:104B200080E490E040E0682F8AE495E2BADA6DAC68
:104B30006F927CAC7F9248A059A0B201550C880BB3
:104B4000990B0E949B8020E030E048EC52E40E94E8
:104B500000809F938F937F936F9382E595E09F935F
:104B60008F931F9280E48F938AE495E29F938F93B3
:104B70000E94F087CDBFDEBF8134910510F080E444
:104B800090E040E0682F8AE495E28BDA4E805F8007
:104B9000688479844092BA215092BB216092BC21F2
:104BA0007092BD21CB5BDF4FCDBFDEBFDF91CF91D8
:104BB0001F910F91FF90EF90DF90CF90BF90AF903B
:104BC0009F908F907F906F905F904F903F902F902D
:104BD0000895833010F480E0089588EF0895EF92EF
:104BE000FF920F931F93E82FDB01CA01B901A801BF
:104BF0009701E13069F030F0E23089F4A7010E94BA
:104C0000A4790BC0AB01BC01CD010E94677A05C03D
:104C1000AB01BC01CD010E948C7A80E001C088EF1D
:104C20001F910F91FF90EF900895EF92FF920F93D5
:104C30001F93E82FDB01CA01B901A8019701E130F8
:104C400071F030F0E23099F4A7010E942B7A0DC088
:104C500001E0AB01BC01CD010E94427B06C001E036
:104C6000AB01BC01CD010E94AB7A80E001C088EFAE
:104C70001F910F91FF90EF900895FC011282138213
:104C80004483440F415045836083718380E090E00A
:104C90000895CF93DF931F92CDB7DEB78FB7898387
:104CA000F89489810F90DF91CF9108950F931F930E
:104CB000CF93DF93E82FF0E0DF01519624E0AA0FB5
:104CC000BB1F2A95E1F72091040160910301EF01D8
:104CD000249641E050E08A01082E01C0000F0A949A
:104CE000EAF70C2E01C0440F0A94EAF7402B642324
:104CF00070E08B010C2E02C0159507950A94E2F71F
:104D000000FD1BC0082E02C0759567950A94E2F756
:104D100060FD15C04223242F30E0A90102C0559543
:104D20004795CA95E2F740FD0CC002C0359527951E
:104D30008A95E2F7822F817005C084E003C083E08A
:104D400001C082E011969C911197906311969C93FB
:104D5000EE0FFF1FE35EF14D0190F081E02D3097E3
:104D600029F0DF91CF911F910F911994DF91CF918D
:104D70001F910F91089561E080E00E94C6718091BB
:104D8000C22E8F3F09F4FFCF84DF9091C22E9F5F28
:104D90009093C22E8FBF80E48093000180E88093BF
:104DA000000108951092000161E080E00E94D77137
:104DB0008091C22E811101C0FFCF6BDF9091C22E76
:104DC00091509093C22E8FBF0895E82FF0E0EE0F20
:104DD000FF1FE35EF14D6083718308951F920F9270
:104DE0000FB60F9211240BB60F922F933F934F9350
:104DF0005F936F937F938F939F93AF93BF93EF9343
:104E0000FF9380E053DFFF91EF91BF91AF919F91AE
:104E10008F917F916F915F914F913F912F910F9063
:104E20000BBE0F900FBE0F901F9018951F920F9200
:104E30000FB60F9211240BB60F922F933F934F93FF
:104E40005F936F937F938F939F93AF93BF93EF93F2
:104E5000FF9381E02BDFFF91EF91BF91AF919F9185
:104E60008F917F916F915F914F913F912F910F9013
:104E70000BBE0F900FBE0F901F9018951F920F92B0
:104E80000FB60F9211240BB60F922F933F934F93AF
:104E90005F936F937F938F939F93AF93BF93EF93A2
:104EA000FF9382E003DFFF91EF91BF91AF919F915C
:104EB0008F917F916F915F914F913F912F910F90C3
:104EC0000BBE0F900FBE0F901F9018951F920F9260
:104ED0000FB60F9211240BB60F922F933F934F935F
:104EE0005F936F937F938F939F93AF93BF93EF9352
:104EF000FF9383E0DBDEFF91EF91BF91AF919F9134
:104F00008F917F916F915F914F913F912F910F9072
:104F10000BBE0F900FBE0F901F9018950F931F930D
:104F2000CF93DF938B01C82FD0E0619684E0CC0F44
:104F3000DD1F8A95E1F7ADDEF80191859C879285AA
:104F40009D871E8697819887908599871A8692817A
:104F50009A8393819B83248135812C833D83968121
:104F60009E839181998390819F7798838FBFDF91F2
:104F7000CF911F910F91089580E090E00196893EB6
:104F800023E09207D9F7089580E18093210480916E
:104F9000210484FDFCCF609124047091250480914C
:104FA0002604909127040895E0E2F4E024E02283AF
:104FB000648775878687978782E0838308958093C7
:104FC000252E9093262E089564E080E00E94C671FD
:104FD0008091F00082608093F00061E080EF90E0CB
:104FE0000E94EE7B8091F00084608093F000C4DF2B
:104FF0008091F00088618093F0008091F10083FF40
:10500000FCCF109220048091210480FDFCCF8FEF13
:105010009FEFDC018093280490932904A0932A0435
:10502000B0932B04109224041092250410922604AD
:10503000109227048091210480FDFCCF109222045D
:1050400081E0809320048091210480FDFCCF0895AD
:105050001F920F920FB60F9211240BB60F922F933F
:105060003F934F935F936F937F938F939F93AF93F0
:10507000BF93EF93FF9310922204E091252EF091BD
:10508000262E309781F080E18093210480912104C5
:1050900084FDFCCF60912404709125048091260446
:1050A000909127041995FF91EF91BF91AF919F9136
:1050B0008F917F916F915F914F913F912F910F90C1
:1050C0000BBE0F900FBE0F901F901895FC01A4E02F
:1050D000F695E795AA95E1F79F012F5F3F4F2115C0
:1050E00040E1340711F420E030E0EE0FFF1FE850FC
:1050F000F24F45915491F901EE0FFF1FE850F24F26
:1051000025913491F901F496E41BF50B74E0EE0F50
:10511000FF1F7A95E1F78F709927E82BF92BE85854
:10512000F84FE491CA018E0F911DE7FD9A950895FD
:1051300080E292E39F938F931F9280E48F938AE49F
:1051400095E29F938F930E94F0878134910510F030
:1051500080E490E040E0682F8AE495E20E945120CC
:1051600081E092E39F938F931F9280E48F938AE470
:1051700095E29F938F930E94F0878134910510F000
:1051800080E490E040E0682F8AE495E20E9451209C
:105190008FED91E39F938F931F9280E48F938AE426
:1051A00095E29F938F930E94F0878134910510F0D0
:1051B00080E490E040E0682F8AE495E20E9451206C
:1051C00084EC91E39F938F931F9280E48F938AE402
:1051D00095E29F938F930E94F0878134910510F0A0
:1051E00080E490E040E0682F8AE495E20E9451203C
:1051F00084EA91E39F938F931F9280E48F938AE4D4
:1052000095E29F938F930E94F0878134910510F06F
:1052100080E490E040E0682F8AE495E20E9451200B
:1052200089E891E39F938F931F9280E48F938AE4A0
:1052300095E29F938F930E94F0872DB73EB72C5D28
:105240003F4F2DBF3EBF8134910510F080E490E0C8
:1052500040E0682F8AE495E20E94512086E791E3BE
:105260009F938F931F9280E48F938AE495E29F939C
:105270008F930E94F0878134910510F080E490E0D4
:1052800040E0682F8AE495E20E9451208AE591E38C
:105290009F938F931F9280E48F938AE495E29F936C
:1052A0008F930E94F0878134910510F080E490E0A4
:1052B00040E0682F8AE495E20E94512088E391E360
:1052C0009F938F931F9280E48F938AE495E29F933C
:1052D0008F930E94F0878134910510F080E490E074
:1052E00040E0682F8AE495E20E94512083E191E337
:1052F0009F938F931F9280E48F938AE495E29F930C
:105300008F930E94F0878134910510F080E490E043
:1053100040E0682F8AE495E20E94512087E091E303
:105320009F938F931F9280E48F938AE495E29F93DB
:105330008F930E94F0878134910510F080E490E013
:1053400040E0682F8AE495E20E94512088ED90E3C6
:105350009F938F931F9280E48F938AE495E29F93AB
:105360008F930E94F0872DB73EB72C5D3F4F2DBF26
:105370003EBF8134910510F080E490E040E0682F5A
:105380008AE495E20E94512089EA90E39F938F93EB
:105390001F9280E48F938AE495E29F938F930E94FB
:1053A000F0878134910510F080E490E040E0682FB0
:1053B0008AE495E20E9451208AE790E39F938F93BD
:1053C0001F9280E48F938AE495E29F938F930E94CB
:1053D000F0878134910510F080E490E040E0682F80
:1053E0008AE495E20E94512086E590E39F938F9393
:1053F0001F9280E48F938AE495E29F938F930E949B
:10540000F0878134910510F080E490E040E0682F4F
:105410008AE495E20E9451208DE390E39F938F935D
:105420001F9280E48F938AE495E29F938F930E946A
:10543000F0878134910510F080E490E040E0682F1F
:105440008AE495E20E9451208BE290E39F938F9330
:105450001F9280E48F938AE495E29F938F930E943A
:10546000F0878134910510F080E490E040E0682FEF
:105470008AE495E20E94512089E090E39F938F9304
:105480001F9280E48F938AE495E29F938F930E940A
:10549000F0872DB73EB72C5D3F4F2DBF3EBF813407
:1054A000910510F080E490E040E0682F8AE495E2F6
:1054B0000E9451208BEF9FE29F938F931F9280E475
:1054C0008F938AE495E29F938F930E94F0878134B3
:1054D000910510F080E490E040E0682F8AE495E2C6
:1054E0000E94512086ED9FE29F938F931F9280E44C
:1054F0008F938AE495E29F938F930E94F087813483
:10550000910510F080E490E040E0682F8AE495E295
:105510000E94512086EB9FE29F938F931F9280E41D
:105520008F938AE495E29F938F930E94F087813452
:10553000910510F080E490E040E0682F8AE495E265
:105540000E94512089E99FE29F938F931F9280E4EC
:105550008F938AE495E29F938F930E94F087813422
:10556000910510F080E490E040E0682F8AE495E235
:105570000E9451208AE79FE29F938F931F9280E4BD
:105580008F938AE495E29F938F930E94F0878134F2
:10559000910510F080E490E040E0682F8AE495E205
:1055A0000E9451208BE59FE29F938F931F9280E48E
:1055B0008F938AE495E29F938F930E94F0872DB793
:1055C0003EB72C5D3F4F2DBF3EBF8134910510F09B
:1055D00080E490E040E0682F8AE495E20E94512048
:1055E0008CE49FE29F938F931F9280E48F938AE4D1
:1055F00095E29F938F930E94F0878134910510F07C
:1056000080E490E040E0682F8AE495E20E94512017
:105610008EE29FE29F938F931F9280E48F938AE4A0
:1056200095E29F938F930E94F0878134910510F04B
:1056300080E490E040E0682F8AE495E20E945120E7
:1056400085E19FE29F938F931F9280E48F938AE47A
:1056500095E29F938F930E94F0878134910510F01B
:1056600080E490E040E0682F8AE495E20E945120B7
:1056700086EF9EE29F938F931F9280E48F938AE43C
:1056800095E29F938F930E94F0878134910510F0EB
:1056900080E490E040E0682F8AE495E20E94512087
:1056A0008EED9EE29F938F931F9280E48F938AE406
:1056B00095E29F938F930E94F0878134910510F0BB
:1056C00080E490E040E0682F8AE495E20E94512057
:1056D0008AEB9EE29F938F931F9280E48F938AE4DC
:1056E00095E29F938F930E94F0872DB73EB72C5D74
:1056F0003F4F2DBF3EBF8134910510F080E490E014
:1057000040E0682F8AE495E20E9451208DEA9EE2F3
:105710009F938F931F9280E48F938AE495E29F93E7
:105720008F930E94F0878134910510F080E490E01F
:1057300040E0682F8AE495E20E9451208AEA9EE2C6
:105740009F938F931F9280E48F938AE495E29F93B7
:105750008F930E94F0878134910510F080E490E0EF
:1057600040E0682F8AE495E20E9451208DB79EB7F1
:105770000C968DBF9EBF8091BE21811121C081E01A
:105780008093BE2185EA9EE29F938F931F9280E4CF
:105790008F938AE495E29F938F930E94F0870F90F6
:1057A0000F900F900F900F900F908134910510F093
:1057B00080E490E040E0682F8AE495E20C94512068
:1057C0000895BF92CF92DF92EF92FF920F931F93B3
:1057D000CF93DF93CDB7DEB72C97CDBFDEBF6C0183
:1057E0008B01892B09F497C2CB0101978E3F91055C
:1057F00008F091C2AB016DE070E0C6010E94218704
:105800007C01B090BF218B2D90E09801280F391FAB
:105810002F3F310559F050F02FEF30E08901081B80
:10582000190BEF2859F07601E00EF11EE114F10496
:1058300029F087010C191D090F5F02C0E12CF12C22
:10584000402F50E0B60180549E4D0E942E870B0DD4
:105850000093BF21EF2809F45EC244E050E060EA03
:105860007EE280EC91E20E94EE86892BE9F41982B7
:105870001A82CE0101967C0100E010E020E030E0C9
:1058800043E050E060E070E084EC91E20E94366416
:10589000892B09F420C281E029813A81232B09F464
:1058A00080E00E94D16417C242E050E06DE97EE2E0
:1058B00080EC91E20E94D686892B51F042E050E0C4
:1058C0006AE97EE280EC91E20E94D686892B31F46F
:1058D000602F80EC91E20E94881DFDC145E050E000
:1058E00064E97EE280EC91E20E94EE86892BC1F4AD
:1058F00019821A82CE0101967C0100E010E020E0BE
:1059000030E043E050E060E070E085EC91E20E941E
:105910003664892B09F4DFC189810E941465DBC1DB
:1059200043E050E060E97EE280EC91E20E94EE8686
:10593000892BC9F419821A82CE0101967C0100E0FC
:1059400010E020E030E043E050E060E070E083EC05
:1059500091E20E943664892B09F4BDC189819A8144
:105960000E94F464B8C14CE050E062E67EE280EC54
:1059700091E20E94EE86892B21F480E00E94196555
:10598000AAC14AE050E065E87EE280EC91E20E9424
:10599000EE86892B21F481E00E9419659CC14AE0C2
:1059A00050E06AE77EE280EC91E20E94EE86892B6D
:1059B00021F482E00E9419658EC14AE050E06FE652
:1059C0007EE280EC91E20E94EE86892B21F483E056
:1059D0000E94196580C148E050E069E57EE280ECF4
:1059E00091E20E94EE86892B21F484E00E941965E1
:1059F00072C144E050E064E57EE280EC91E20E94F6
:105A0000EE86892BE9F419821A82CE0101967C0177
:105A100000E010E020E030E043E050E060E070E0C3
:105A200084EC91E20E943664892B09F454C181E030
:105A300029813A81232B09F480E00E9495664BC1AD
:105A400044E050E06FE47EE280EC91E20E94EE865A
:105A5000892B51F58CE0E4E0F1E2DE011196019032
:105A60000D928A95E1F7E12CF12C00E010E09E0107
:105A70002F5F3F4F45E150E060E070E084EC91E241
:105A80000E943664892B09F426C1E984FA840B85C7
:105A90001C852D813E814F81588569817A818B815A
:105AA0009C810E94596917C143E050E06BE47EE29B
:105AB00080EC91E20E94EE86892BE9F419821A8229
:105AC000CE0101967C0100E010E020E030E043E0F0
:105AD00050E060E070E083EC91E20E943664892B34
