:100000000C941D1B0C943E1B0C943E1B0C943E1B2D
:100010000C94846D0C943E1B0C944D270C94752706
:100020000C949D270C94C5270C943E1B0C94872898
:100030000C943E1B0C943E530C949F4B0C94CC4B55
:100040000C94F94B0C94264C0C94534C0C94804C0F
:100050000C94AD4C0C94DA4C0C94074D0C94344D2C
:100060000C943E1B0C943E1B0C943E1B0C943E1BAC
:100070000C943E1B0C943E1B0C943E1B0C943E1B9C
:100080000C943E1B0C943E1B0C943E1B0C943E1B8C
:100090000C943E1B0C943E1B0C943E1B0C94094983
:1000A0000C943B490C946D490C949F490C943E1B55
:1000B0000C943E1B0C943E1B0C9486520C94234FC4
:1000C0000C94504F0C947D4F0C94AA4F0C94D74F26
:1000D0000C9404500C9431500C945E500C948B5042
:1000E0000C94B8500C943E1B0C943E1B0C943E1B7D
:1000F0000C943E1B0C943E1B0C943E1B0C943E1B1C
:100100000C943E1B0C943E1B0C943E1B0C943E1B0B
:100110000C943E1B0C943E1B0C943E1B0C944148CB
:100120000C9473480C94A5480C94D7480C943E1B2F
:100130000C943E1B0C94614D0C948E4D0C94BB4D55
:100140000C94E84D0C94154E0C94424E0C946F4E4A
:100150000C949C4E0C94C94E0C94F64E0C943E1B81
:100160000C943E1B0C943E1B0C943E1B0C943E1BAB
:100170000C943E1B0C943E1B0C943E1B0C943E1B9B
:100180000C943E1B0C943E1B0C943E1B0C943E1B8B
:100190000C943E1B0C943E1B0C943E1B0C943E1B7B
:1001A0000C943E1B0C943E1B0C943E1B0C943E1B6B
:1001B0000C94E5500C9412510C943F510C946C51DA
:1001C0000C9499510C94C6510C943E1B0C943E1BFC
:1001D0000C943E1B0C943E1B0C943E1B0C94611D16
:1001E0000C943E1B0C943E1B0C943E1B0C943E1B2B
:1001F0000C943E1B0C946A580C9422597C5A8E5ACB
:10020000A05AB25AC45AD65AE85A05A84CCDB2D40C
:100210004EB93836A9020C50B9918688083CA6AA76
:10022000AA2ABE000000803F07634236B79BD8A7CA
:100230001A39685618AEBAAB558C1D3CB7CC57630B
:10024000BD6DEDFD753EF6177231BF000000803FB9
:1002500008000000BE922449123EABAAAA2ABECDD5
:10026000CCCC4C3E00000080BEABAAAAAA3E000047
:100270000000BF000000803F00000000000841783F
:10028000D3BB4387D1133D190E3CC3BD4282AD2B76
:100290003E68EC8276BED98FE1A93E4C80EFFFBE6E
:1002A00001C4FF7F3F00000000006E616E00696EB8
:1002B000660000407A10F35A00A0724E1809001030
:1002C000A5D4E80000E87648170000E40B540200CB
:1002D00000CA9A3B000000E1F505000080969800F6
:1002E000000040420F000000A0860100000010271F
:1002F00000000000E80300000000640000000000AF
:100300000A00000000000100000000002C76D888E0
:10031000DC674F0823DFC1DFAE59E1B1B796E5E3F3
:10032000E453C63AE651997696E8E6C28426EB890C
:100330008C9B62ED407C6FFCEFBC9C9F40F2BAA5A9
:100340006FA5F490055A2AF75C936B6CF9676DC141
:100350001BFCE0E40D47FEF520E6B500D0ED902E45
:100360000300943577050080841E080000204E0AA3
:10037000000000C80C333333330F986E12831141E1
:10038000EF8D2114893BE65516CFFEE6DB18D184AC
:100390004B381BF77C1D901DA4BBE42420328472D3
:1003A0005E228100C9F124ECA1E53D274E414E4972
:1003B0004E495459494E46CDCCCC3D0AD7233C1723
:1003C000B7D13877CC2B329595E6241FB14F0A0070
:1003D0000020410000C84200401C4620BCBE4CCA60
:1003E0001B0E5AAEC59D7441542B43474E53494E84
:1003F000460D0A0041542B43474E535057523D255A
:10040000640D0A0041542B4753560D0A00415449CC
:100410000D0A0041542B4346554E3D310D0A004113
:10042000542B434D45453D320D0A0041542B49465E
:10043000433D322C320D0A0041542B4950523D2588
:100440006C640D0A00496E69743A2053494D383086
:1004500038207375636365737300496E69743A205D
:1004600053494D3830382072657374617274696E07
:1004700067202E2E2E00496E69743A2053494D385C
:100480003038207374617274696E67202E2E2E00CE
:1004900053494D38303820736572313A202020623C
:1004A00061756420726174652073796E6365640D93
:1004B0000A0053494D38303820736572313A202094
:1004C0005374617274696E67207468652064657620
:1004D000696365202E2E2E0D0A0053494D383038A1
:1004E00020736572313A20205374617274696E67AB
:1004F0002074686520646576696365202E2E2E0D54
:100500000A004F4B00584F5F50574D3D2530356C1A
:100510006464203A203078253032780D0A0D0A00C4
:10052000317070735F646576696174696F6E3D25C3
:100530002B3130662C2000504C4C3A2074696D658C
:100540003D25366C642E2530336C64202B202530FD
:1005500035642F3330452B36207365632C200047DC
:1005600079726F5F54656D703D252B30362E326683
:10057000432028252B303664290D0A0D0A004D7AB8
:100580003D252B30372E336675542028252B3036E9
:100590006429092009004D783D252B30372E33661C
:1005A00075542028252B303664292C204D793D2583
:1005B0002B30372E336675542028252B303664298E
:1005C0002C2000477A3D252B30372E32666470731D
:1005D000202825303664290920090047783D252B3D
:1005E00030372E32666470732028252B303664290C
:1005F0002C2047793D252B30372E326664707320CE
:1006000028252B303664292C2000417A3D252B30BB
:10061000352E3366672028252B30366429092009BA
:10062000000941783D252B30352E3366672028257B
:100630002B303664292C2041793D252B30352E3343
:1006400066672028252B303664292C2000487967DE
:10065000726F5F54656D703D252B30362E326643C8
:100660002C20487967726F5F52656C483D253035A4
:100670002E326625250D0A004261726F5F54656D4A
:10068000703D252B30362E3266432C204261726F2E
:100690005F503D25372E3266685061092009006D94
:1006A000505F54656D703D252B30362E3266430900
:1006B00020090055616463343D253464206D562C57
:1006C0002055616463353D253464206D562C2055DA
:1006D00073696C3D253464206D562C200054696D7F
:1006E00065203D202530366C643A205576636F3D99
:1006F000253464206D562C205535763D25346420F4
:100700006D562C20556261743D253464206D562C45
:1007100020003D3D3D3D3D3D3D3D3D3D3D3D3D3D63
:100720003D3D3D3D3D3D3D3D3D3D3D3D3D3D3D3DF9
:100730003D0D0A0D0A0046696E644D655341542013
:100740002D20555342206C6F6767696E6720737464
:1007500061727465640D0A0025630D0A3D3D3D3DDF
:100760003D3D3D3D3D3D3D3D3D3D3D3D3D3D3D3DB9
:100770003D3D3D3D3D3D3D3D3D3D3D0D0A000D0AAC
:100780000D0A0D0A0000FDF9F6F3F0ECE9E6E3DFEF
:10079000DCD9D6D2CF00FDFAF6F3F0EDEAE6E3E0DD
:1007A000DDDAD7D3D000FDFAF7F3F0EDEAE7E4E1C4
:1007B000DEDAD7D4D100FDFAF7F4F1EEEBE7E4E1AD
:1007C000DEDBD8D5D200FDFAF7F4F1EEEBE8E5E296
:1007D000DFDCD9D6D300FDFAF7F4F1EEEBE8E6E37F
:1007E000E0DDDAD7D400FDFAF7F4F2EFECE9E6E366
:1007F000E0DDDBD8D500FDFAF8F5F2EFECE9E7E44F
:10080000E1DEDBD9D600FDFAF8F5F2EFEDEAE7E438
:10081000E2DFDCD9D700FDFBF8F5F3F0EDEAE8E51F
:10082000E2E0DDDAD800FDFBF8F5F3F0EEEBE8E608
:10083000E3E0DEDBD900FDFBF8F6F3F1EEEBE9E6F1
:10084000E4E1DFDCDA00FDFBF8F6F3F1EEECE9E7DA
:10085000E4E2DFDDDA00FEFBF9F6F4F1EFECEAE8C2
:10086000E5E3E0DEDB00FEFBF9F6F4F2EFEDEBE8AA
:10087000E6E3E1DFDC00FEFBF9F7F4F2F0EDEBE993
:10088000E7E4E2E0DD00FEFBF9F7F5F2F0EEECE97B
:10089000E7E5E3E0DE00FEFCF9F7F5F3F1EEECEA64
:1008A000E8E6E4E1DF00FEFCFAF7F5F3F1EFEDEB4B
:1008B000E9E6E4E2E000FEFCFAF8F6F4F2EFEDEB34
:1008C000E9E7E5E3E100FEFCFAF8F6F4F2F0EEEC1D
:1008D000EAE8E6E4E200FEFCFAF8F6F4F2F0EFED06
:1008E000EBE9E7E5E300FEFCFAF8F7F5F3F1EFEDED
:1008F000EBE9E8E6E400FEFCFBF9F7F5F3F1F0EED6
:10090000ECEAE8E7E500FEFCFBF9F7F5F4F2F0EEBF
:10091000EDEBE9E7E600FEFDFBF9F8F6F4F2F1EFA6
:10092000EDECEAE8E700FEFDFBF9F8F6F5F3F1F08F
:10093000EEECEBE9E800FEFDFBFAF8F7F5F3F2F078
:10094000EFEDECEAE900FEFDFBFAF8F7F5F4F2F161
:10095000EFEEECEBE900FFFDFCFAF9F7F6F4F3F249
:10096000F0EFEDECEA00FFFDFCFAF9F8F6F5F4F231
:10097000F1EFEEEDEB00FFFDFCFBF9F8F7F5F4F31A
:10098000F2F0EFEEEC00FFFDFCFBFAF8F7F6F5F302
:10099000F2F1F0EEED00FFFEFCFBFAF9F8F6F5F4EB
:1009A000F3F2F1EFEE00FFFEFDFBFAF9F8F7F6F5D2
:1009B000F4F2F1F0EF00FFFEFDFCFBFAF9F7F6F5BB
:1009C000F4F3F2F1F000FFFEFDFCFBFAF9F8F7F6A4
:1009D000F5F4F3F2F100FFFEFDFCFBFAF9F8F8F78D
:1009E000F6F5F4F3F200FFFEFDFCFCFBFAF9F8F774
:1009F000F6F5F5F4F300FFFEFEFDFCFBFAF9F9F85D
:100A0000F7F6F5F5F400FFFEFEFDFCFBFBFAF9F846
:100A1000F8F7F6F5F500FFFFFEFDFDFCFBFAFAF92D
:100A2000F8F8F7F6F600FFFFFEFDFDFCFCFBFAFA16
:100A3000F9F8F8F7F700FFFFFEFEFDFDFCFBFBFAFF
:100A4000FAF9F9F8F800FFFFFEFEFDFDFCFCFBFBE8
:100A5000FAFAF9F9F80000FFFFFEFEFDFDFCFCFCD0
:100A6000FBFBFAFAF90000FFFFFEFEFEFDFDFDFCB8
:100A7000FCFBFBFBFA0000FFFFFFFEFEFEFDFDFDA1
:100A8000FDFCFCFCFB0000FFFFFFFFFEFEFEFEFD89
:100A9000FDFDFDFCFC000000FFFFFFFFFFFEFEFE72
:100AA000FEFEFEFDFD00000000FFFFFFFFFFFFFF59
:100AB000FFFEFEFEFE0000000000000000FFFFFF42
:100AC000FFFFFFFFFF00000000000000000000002B
:100AD0000000000000000000000000000001010113
:100AE00001010101010000000001010101010101FA
:100AF00001020202020000000101010101020202E2
:100B000002020203030000010101010202020203CA
:100B100003030304040000010101020202030303B2
:100B2000030404040500000101020202030303049C
:100B30000405050506000001010202030304040484
:100B4000050506060700010102020303040405056A
:100B50000606070708000101020203030405050653
:100B6000060707080800010102030304040506063E
:100B70000708080909000101020303040506060726
:100B80000808090A0A00010202030405050607080D
:100B900008090A0B0B0001020203040506070708F7
:100BA000090A0B0B0C0001020304040506070809DF
:100BB0000A0B0B0C0D0001020304050607080809C7
:100BC0000A0B0C0D0E000102030405060708090AB2
:100BD0000B0C0D0E0F0001020304050607090A0B9A
:100BE0000C0D0E0F100001020305060708090A0B81
:100BF0000C0E0F101100010204050607080A0B0C69
:100C00000D0E0F111200010304050608090A0B0D51
:100C10000E0F10121300010304050708090B0C0D39
:100C20000E10111214000103040607080A0B0C0E23
:100C30000F11121315000103040607090A0C0D0E0B
:100C40001011131416000203050608090B0C0E0FF1
:100C50001112141517000203050608090B0D0E10DA
:100C600011131416170002030507080A0B0D0F10C5
:100C700012141517180002030507080A0C0E0F11AD
:100C800013141618190002040507090B0C0E101294
:100C9000131517191A0002040507090B0D0F10127E
:100CA000141618191B0002040608090B0D0F111366
:100CB0001517181A1C00020406080A0C0E1011134E
:100CC0001517191B1D00020406080A0C0E10121439
:100CD00016181A1C1E00020406080A0C0E11131521
:100CE00017191B1D1F00020406090B0D0F11131508
:100CF000171A1C1E2000020407090B0D0F121416F0
:100D0000181A1C1F2100020507090B0E10121417D8
:100D1000191B1D202200020507090C0E10131517C0
:100D2000191C1E2023000205070A0C0E11131518AA
:100D30001A1D1F2124000205070A0C0F1114161892
:100D40001B1D202225000305080A0D0F1214171978
:100D50001C1E212326000305080A0D0F1215171A61
:100D60001C1F212426000305080B0D101215181A4C
:100D70001D20222527000305080B0D101316181B34
:100D80001E20232628000306080B0E111316191C1B
:100D90001E21242729000306080B0E111417191C05
:100DA0001F2225272A000306090C0E1114171A1DED
:100DB000202325282B000306090C0F1215181A1DD5
:100DC000202326292C000306090C0F1215181B1EC0
:100DD0002124272A2D000306090C0F1215191C1FA8
:100DE0002225282B2E000306090D101316191C1F8F
:100DF0002226292C2F0003060A0D1013161A1D2077
:100E00002326292D300080328064809680C980FBA3
:100E1000802D815F819281C481F68128825B828DE1
:100E200082BF82F182248356838883BA83ED831F35
:100E30008451848384B684E8841A854C857E85B188
:100E400085E385158647867A86AC86DE86108742DE
:100E5000877487A787D9870B883D886F88A188D436
:100E600088068938896A899C89CE89008A328A6590
:100E70008A978AC98AFB8A2D8B5F8B918BC38BF5EE
:100E80008B278C598C8B8CBD8CEF8C218D538D8551
:100E90008DB78DE98D1B8E4D8E7F8EB18EE38E15B5
:100EA0008F478F798FAB8FDC8F0E9040907290A41C
:100EB00090D690079139916B919D91CF910092328C
:100EC0009264929692C792F9922B935D938E93C0FF
:100ED00093F293239455948694B894EA941B954D79
:100EE000957E95B095E195139644967696A796D9FA
:100EF000960A973C976D979F97D09701983398647F
:100F0000989598C798F89829995B998C99BD99EE0E
:100F100099209A519A829AB39AE49A159B469B78A3
:100F20009BA99BDA9B0B9C3C9C6D9C9E9CCF9C0040
:100F30009D319D629D939DC39DF49D259E569E87E8
:100F40009EB89EE89E199F4A9F7B9FAB9FDC9F0D9A
:100F5000A03DA06EA09FA0CFA000A130A161A19153
:100F6000A1C2A1F2A123A253A284A2B4A2E4A21519
:100F7000A345A375A3A6A3D6A306A436A467A497E6
:100F8000A4C7A4F7A427A557A587A5B7A5E7A517C4
:100F9000A647A677A6A7A6D7A607A737A767A797A6
:100FA000A7C6A7F6A726A856A885A8B5A8E5A81499
:100FB000A944A973A9A3A9D2A902AA31AA61AA9096
:100FC000AAC0AAEFAA1EAB4EAB7DABACABDBAB0BA2
:100FD000AC3AAC69AC98ACC7ACF6AC25AD54AD83BB
:100FE000ADB2ADE1AD10AE3FAE6EAE9DAECCAEFAE1
:100FF000AE29AF58AF86AFB5AFE4AF12B041B06F16
:10100000B09EB0CCB0FBB029B158B186B1B4B1E359
:10101000B111B23FB26DB29CB2CAB2F8B226B354AB
:10102000B382B3B0B3DEB30CB43AB468B496B4C30D
:10103000B4F1B41FB54DB57AB5A8B5D6B503B63180
:10104000B65EB68CB6B9B6E7B614B741B76FB79C03
:10105000B7C9B7F6B724B851B87EB8ABB8D8B80599
:10106000B932B95FB98CB9B9B9E6B912BA3FBA6C3D
:10107000BA99BAC5BAF2BA1FBB4BBB78BBA4BBD1F5
:10108000BBFDBB29BC56BC82BCAEBCDBBC07BD33C0
:10109000BD5FBD8BBDB7BDE3BD0FBE3BBE67BE939D
:1010A000BEBFBEEBBE16BF42BF6EBF99BFC5BFF08D
:1010B000BF1CC047C073C09EC0CAC0F5C020C14C91
:1010C000C177C1A2C1CDC1F8C123C24EC279C2A4A9
:1010D000C2CFC2FAC225C350C37AC3A5C3D0C3FAD4
:1010E000C325C44FC47AC4A4C4CFC4F9C423C54E15
:1010F000C578C5A2C5CCC5F6C520C64AC674C69E6D
:10110000C6C8C6F2C61CC746C76FC799C7C3C7ECD7
:10111000C716C83FC869C892C8BCC8E5C80EC93858
:10112000C961C98AC9B3C9DCC905CA2ECA57CA80F0
:10113000CAA9CAD2CAFACA23CB4CCB74CB9DCBC5A1
:10114000CBEECB16CC3FCC67CC8FCCB8CCE0CC0868
:10115000CD30CD58CD80CDA8CDD0CDF8CD20CE4846
:10116000CE6FCE97CEBFCEE6CE0ECF35CF5DCF843D
:10117000CFACCFD3CFFACF21D049D070D097D0BE4B
:10118000D0E5D00CD133D159D180D1A7D1CED1F473
:10119000D11BD241D268D28ED2B5D2DBD201D328B4
:1011A000D34ED374D39AD3C0D3E6D30CD432D4580D
:1011B000D47DD4A3D4C9D4EFD414D53AD55FD58582
:1011C000D5AAD5CFD5F4D51AD63FD664D689D6AE12
:1011D000D6D3D6F8D61DD742D766D78BD7B0D7D4BB
:1011E000D7F9D71DD842D866D88AD8AFD8D3D8F780
:1011F000D81BD93FD963D987D9ABD9CFD9F3D91661
:10120000DA3ADA5EDA81DAA5DAC8DAECDA0FDB325A
:10121000DB56DB79DB9CDBBFDBE2DB05DC28DC4B70
:10122000DC6DDC90DCB3DCD6DCF8DC1BDD3DDD5FA7
:10123000DD82DDA4DDC6DDE9DD0BDE2DDE4FDE71F6
:10124000DE93DEB4DED6DEF8DE1ADF3BDF5DDF7E66
:10125000DFA0DFC1DFE2DF04E025E046E067E088F1
:10126000E0A9E0CAE0EBE00CE12DE14DE16EE18E9A
:10127000E1AFE1CFE1F0E110E230E251E271E29161
:10128000E2B1E2D1E2F1E211E330E350E370E38F47
:10129000E3AFE3CEE3EEE30DE42DE44CE46BE48A4C
:1012A000E4A9E4C8E4E7E406E525E544E562E58170
:1012B000E5A0E5BEE5DDE5FBE519E638E656E674B2
:1012C000E692E6B0E6CEE6ECE60AE728E745E76315
:1012D000E781E79EE7BCE7D9E7F7E714E831E84E96
:1012E000E86BE888E8A5E8C2E8DFE8FCE819E9353A
:1012F000E952E96EE98BE9A7E9C4E9E0E9FCE918FC
:10130000EA34EA50EA6CEA88EAA4EAC0EADBEAF7DF
:10131000EA13EB2EEB4AEB65EB80EB9CEBB7EBD2E1
:10132000EBEDEB08EC23EC3EEC58EC73EC8EECA808
:10133000ECC3ECDDECF8EC12ED2CED47ED61ED7B50
:10134000ED95EDAFEDC9EDE3EDFCED16EE30EE49B8
:10135000EE63EE7CEE95EEAFEEC8EEE1EEFAEE1344
:10136000EF2CEF45EF5EEF76EF8FEFA8EFC0EFD9F0
:10137000EFF1EF09F022F03AF052F06AF082F09AC1
:10138000F0B2F0CAF0E1F0F9F011F128F140F157B4
:10139000F16EF186F19DF1B4F1CBF1E2F1F9F110CA
:1013A000F226F23DF254F26AF281F297F2AEF2C402
:1013B000F2DAF2F0F206F31CF332F348F35EF37460
:1013C000F389F39FF3B5F3CAF3DFF3F5F30AF41FE0
:1013D000F434F449F45EF473F488F49DF4B1F4C683
:1013E000F4DBF4EFF403F518F52CF540F554F5684B
:1013F000F57CF590F5A4F5B8F5CCF5DFF5F3F50639
:10140000F61AF62DF640F653F667F67AF68DF6A044
:10141000F6B2F6C5F6D8F6EAF6FDF610F722F7347E
:10142000F747F759F76BF77DF78FF7A1F7B3F7C4D5
:10143000F7D6F7E8F7F9F70BF81CF82EF83FF85055
:10144000F861F872F883F894F8A5F8B6F8C6F8D7FA
:10145000F8E7F8F8F808F919F929F939F949F959C3
:10146000F969F979F989F998F9A8F9B8F9C7F9D7B3
:10147000F9E6F9F5F904FA14FA23FA32FA41FA4FC7
:10148000FA5EFA6DFA7CFA8AFA99FAA7FAB5FAC402
:10149000FAD2FAE0FAEEFAFCFA0AFB18FB25FB3363
:1014A000FB41FB4EFB5CFB69FB76FB83FB91FB9EE8
:1014B000FBABFBB8FBC4FBD1FBDEFBEBFBF7FB0498
:1014C000FC10FC1CFC29FC35FC41FC4DFC59FC6566
:1014D000FC70FC7CFC88FC93FC9FFCAAFCB6FCC165
:1014E000FCCCFCD7FCE2FCEDFCF8FC03FD0EFD1887
:1014F000FD23FD2EFD38FD42FD4DFD57FD61FD6BC9
:10150000FD75FD7FFD89FD93FD9CFDA6FDB0FDB938
:10151000FDC2FDCCFDD5FDDEFDE7FDF0FDF9FD02D0
:10152000FE0BFE13FE1CFE25FE2DFE36FE3EFE4685
:10153000FE4EFE56FE5EFE66FE6EFE76FE7EFE856C
:10154000FE8DFE94FE9CFEA3FEAAFEB2FEB9FEC076
:10155000FEC7FECEFED4FEDBFEE2FEE8FEEFFEF5A9
:10156000FEFCFE02FF08FF0EFF14FF1AFF20FF26FD
:10157000FF2CFF31FF37FF3CFF42FF47FF4CFF527C
:10158000FF57FF5CFF61FF66FF6AFF6FFF74FF7824
:10159000FF7DFF81FF86FF8AFF8EFF92FF96FF9AF5
:1015A000FF9EFFA2FFA6FFA9FFADFFB0FFB4FFB7EC
:1015B000FFBBFFBEFFC1FFC4FFC7FFCAFFCDFFCF08
:1015C000FFD2FFD5FFD7FFD9FFDCFFDEFFE0FFE250
:1015D000FFE4FFE6FFE8FFEAFFECFFEEFFEFFFF1BD
:1015E000FFF2FFF3FFF5FFF6FFF7FFF8FFF9FFFA51
:1015F000FFFBFFFBFFFCFFFDFFFDFFFEFFFEFFFE0D
:10160000FFFEFFFEFFFFFFFEFFFEFFFEFFFEFFFEF1
:10161000FFFDFFFDFFFCFFFBFFFBFFFAFFF9FFF8FB
:10162000FFF7FFF6FFF5FFF3FFF2FFF1FFEFFFEE2D
:10163000FFECFFEAFFE8FFE6FFE4FFE2FFE0FFDE8A
:10164000FFDCFFD9FFD7FFD5FFD2FFCFFFCDFFCA09
:10165000FFC7FFC4FFC1FFBEFFBBFFB7FFB4FFB0B2
:10166000FFADFFA9FFA6FFA2FF9EFF9AFF96FF9284
:10167000FF8EFF8AFF86FF81FF7DFF78FF74FF6F7B
:10168000FF6AFF66FF61FF5CFF57FF52FF4CFF4799
:10169000FF42FF3CFF37FF31FF2CFF26FF20FF1AE0
:1016A000FF14FF0EFF08FF02FFFCFEF5FEEFFEE851
:1016B000FEE2FEDBFED4FECEFEC7FEC0FEB9FEB2E9
:1016C000FEAAFEA3FE9CFE94FE8DFE85FE7EFE76A7
:1016D000FE6EFE66FE5EFE56FE4EFE46FE3EFE368A
:1016E000FE2DFE25FE1CFE13FE0BFE02FEF9FDF094
:1016F000FDE7FDDEFDD5FDCCFDC2FDB9FDB0FDA6CB
:10170000FD9CFD93FD89FD7FFD75FD6BFD61FD5722
:10171000FD4DFD42FD38FD2EFD23FD18FD0EFD03A0
:10172000FDF8FCEDFCE2FCD7FCCCFCC1FCB6FCAA4D
:10173000FC9FFC93FC88FC7CFC70FC65FC59FC4D18
:10174000FC41FC35FC29FC1CFC10FC04FCF7FBEB09
:10175000FBDEFBD1FBC4FBB8FBABFB9EFB91FB8329
:10176000FB76FB69FB5CFB4EFB41FB33FB25FB1867
:10177000FB0AFBFCFAEEFAE0FAD2FAC4FAB5FAA7D1
:10178000FA99FA8AFA7CFA6DFA5EFA4FFA41FA325D
:10179000FA23FA14FA04FAF5F9E6F9D7F9C7F9B811
:1017A000F9A8F998F989F979F969F959F949F939EB
:1017B000F929F919F908F9F8F8E7F8D7F8C6F8B6E9
:1017C000F8A5F894F883F872F861F850F83FF82E0D
:1017D000F81CF80BF8F9F7E8F7D6F7C4F7B3F7A158
:1017E000F78FF77DF76BF759F747F734F722F710C4
:1017F000F7FDF6EAF6D8F6C5F6B2F6A0F68DF67A5B
:10180000F667F653F640F62DF61AF606F6F3F5DF10
:10181000F5CCF5B8F5A4F590F57CF568F554F540F0
:10182000F52CF518F503F5EFF4DBF4C6F4B1F49DEF
:10183000F488F473F45EF449F434F41FF40AF4F514
:10184000F3DFF3CAF3B5F39FF389F374F35EF34860
:10185000F332F31CF306F3F0F2DAF2C4F2AEF297CD
:10186000F281F26AF254F23DF226F210F2F9F1E25C
:10187000F1CBF1B4F19DF186F16EF157F140F12811
:10188000F111F1F9F0E1F0CAF0B2F09AF082F06AE9
:10189000F052F03AF022F009F0F1EFD9EFC0EFA8E2
:1018A000EF8FEF76EF5EEF45EF2CEF13EFFAEEE1FF
:1018B000EEC8EEAFEE95EE7CEE63EE49EE30EE163E
:1018C000EEFCEDE3EDC9EDAFED95ED7BED61ED47A0
:1018D000ED2CED12EDF8ECDDECC3ECA8EC8EEC7326
:1018E000EC58EC3EEC23EC08ECEDEBD2EBB7EB9CC8
:1018F000EB80EB65EB4AEB2EEB13EBF7EADBEAC090
:10190000EAA4EA88EA6CEA50EA34EA18EAFCE9E078
:10191000E9C4E9A7E98BE96EE952E935E919E9FC7F
:10192000E8DFE8C2E8A5E888E86BE84EE831E814AB
:10193000E8F7E7D9E7BCE79EE781E763E745E728F3
:10194000E70AE7ECE6CEE6B0E692E674E656E6385D
:10195000E619E6FBE5DDE5BEE5A0E581E562E544E7
:10196000E525E506E5E7E4C8E4A9E48AE46BE44C90
:10197000E42DE40DE4EEE3CEE3AFE38FE370E35058
:10198000E330E311E3F1E2D1E2B1E291E271E2513D
:10199000E230E210E2F0E1CFE1AFE18EE16EE14D45
:1019A000E12DE10CE1EBE0CAE0A9E088E067E04668
:1019B000E025E004E0E2DFC1DFA0DF7EDF5DDF3BAA
:1019C000DF1ADFF8DED6DEB4DE93DE71DE4FDE2D09
:1019D000DE0BDEE9DDC6DDA4DD82DD5FDD3DDD1B86
:1019E000DDF8DCD6DCB3DC90DC6DDC4BDC28DC0520
:1019F000DCE2DBBFDB9CDB79DB56DB32DB0FDBECD5
:101A0000DAC8DAA5DA81DA5EDA3ADA16DAF3D9CFA9
:101A1000D9ABD987D963D93FD91BD9F7D8D3D8AF98
:101A2000D88AD866D842D81DD8F9D7D4D7B0D78BA2
:101A3000D766D742D71DD7F8D6D3D6AED689D664C7
:101A4000D63FD61AD6F4D5CFD5AAD585D55FD53A07
:101A5000D514D5EFD4C9D4A3D47DD458D432D40C62
:101A6000D4E6D3C0D39AD374D34ED328D301D3DBD7
:101A7000D2B5D28ED268D241D21BD2F4D1CED1A768
:101A8000D180D159D133D10CD1E5D0BED097D0700F
:101A9000D049D021D0FACFD3CFACCF84CF5DCF35D2
:101AA000CF0ECFE6CEBFCE97CE6FCE48CE20CEF8AB
:101AB000CDD0CDA8CD80CD58CD30CD08CDE0CCB89F
:101AC000CC8FCC67CC3FCC16CCEECBC5CB9DCB74AA
:101AD000CB4CCB23CBFACAD2CAA9CA80CA57CA2ECA
:101AE000CA05CADCC9B3C98AC961C938C90EC9E502
:101AF000C8BCC892C869C83FC816C8ECC7C3C79954
:101B0000C76FC746C71CC7F2C6C8C69EC674C64ABA
:101B1000C620C6F6C5CCC5A2C578C54EC523C5F935
:101B2000C4CFC4A4C47AC44FC425C4FAC3D0C3A5C7
:101B3000C37AC350C325C3FAC2CFC2A4C279C24E6E
:101B4000C223C2F8C1CDC1A2C177C14CC120C1F529
:101B5000C0CAC09EC073C047C01CC0F0BFC5BF99FB
:101B6000BF6EBF42BF16BFEBBEBFBE93BE67BE3BDC
:101B7000BE0FBEE3BDB7BD8BBD5FBD33BD07BDDBD3
:101B8000BCAEBC82BC56BC29BCFDBBD1BBA4BB78DF
:101B9000BB4BBB1FBBF2BAC5BA99BA6CBA3FBA12FB
:101BA000BAE6B9B9B98CB95FB932B905B9D8B8AB29
:101BB000B87EB851B824B8F6B7C9B79CB76FB7416B
:101BC000B714B7E7B6B9B68CB65EB631B603B6D6BB
:101BD000B5A8B57AB54DB51FB5F1B4C3B496B46820
:101BE000B43AB40CB4DEB3B0B382B354B326B3F892
:101BF000B2CAB29CB26DB23FB211B2E3B1B4B18617
:101C0000B158B129B1FBB0CCB09EB06FB041B012A9
:101C1000B0E4AFB5AF86AF58AF29AFFAAECCAE9D4A
:101C2000AE6EAE3FAE10AEE1ADB2AD83AD54AD25FC
:101C3000ADF6ACC7AC98AC69AC3AAC0BACDBABACBA
:101C4000AB7DAB4EAB1EABEFAAC0AA90AA61AA3186
:101C5000AA02AAD2A9A3A973A944A914A9E5A8B55F
:101C6000A885A856A826A8F6A7C6A797A767A73746
:101C7000A707A7D7A6A7A677A647A617A6E7A5B73B
:101C8000A587A557A527A5F7A4C7A497A467A43639
:101C9000A406A4D6A3A6A375A345A315A3E4A2B442
:101CA000A284A253A223A2F2A1C2A191A161A13058
:101CB000A100A1CFA09FA06EA03DA00DA0DC9FAB76
:101CC0009F7B9F4A9F199FE89EB89E879E569E25A0
:101CD0009EF49DC39D939D629D319D009DCF9C9ED2
:101CE0009C6D9C3C9C0B9CDA9BA99B789B469B150E
:101CF0009BE49AB39A829A519A209AEE99BD998C54
:101D0000995B992999F898C79895986498339801A0
:101D100098D0979F976D973C970A97D996A79676F4
:101D20009644961396E195B0957E954D951B95EA50
:101D300094B894869455942394F293C0938E935DB3
:101D4000932B93F992C7929692649232920092CF1B
:101D5000919D916B9139910791D690A4907290408A
:101D6000900E90DC8FAB8F798F478F158FE38EB1FC
:101D70008E7F8E4D8E1B8EE98DB78D858D538D2177
:101D80008DEF8CBD8C8B8C598C278CF58BC38B91F4
:101D90008B5F8B2D8BFB8AC98A978A658A328A0072
:101DA0008ACE899C896A8938890689D488A1886FF6
:101DB000883D880B88D987A787748742871087DE7C
:101DC00086AC867A8647861586E385B1857E854C06
:101DD000851A85E884B684838451841F84ED83BA90
:101DE00083888356832483F182BF828D825B82281D
:101DF00082F681C48192815F812D81FB80C98096AA
:101E000080648032800080CD7F9B7F697F367F0435
:101E10007FD27EA07E6D7E3B7E097ED77DA47D72C3
:101E20007D407D0E7DDB7CA97C777C457C127CE04F
:101E30007BAE7B7C7B497B177BE57AB37A817A4EDC
:101E40007A1C7AEA79B879857953792179EF78BD66
:101E5000788B7858782678F477C27790775E772BEE
:101E600077F976C776957663763176FF75CD759A74
:101E700075687536750475D274A0746E743C740AF6
:101E800074D873A673747342731073DE72AC727A73
:101E90007248721672E471B27180714E711C71EAEF
:101EA00070B870867054702370F16FBF6F8D6F5B68
:101EB0006F296FF86EC66E946E626E306EFF6DCDD8
:101EC0006D9B6D696D386D066DD46CA26C716C3F45
:101ED0006C0D6CDC6BAA6B796B476B156BE46AB2AB
:101EE0006A816A4F6A1E6AEC69BB6989695869260A
:101EF00069F568C368926860682F68FE67CC679B65
:101F0000676A6738670767D666A4667366426611B4
:101F100066DF65AE657D654C651B65EA64B96487FF
:101F20006456642564F463C363926361633063FF42
:101F300062CE629D626C623C620B62DA61A961787A
:101F40006147611761E660B560846054602360F2A8
:101F50005FC25F915F605F305FFF5ECF5E9E5E6ECF
:101F60005E3D5E0D5EDC5DAC5D7B5D4B5D1B5DEAE9
:101F70005CBA5C8A5C595C295CF95BC95B985B68FC
:101F80005B385B085BD85AA85A785A485A185AE8FE
:101F900059B859885958592859F858C858985868FC
:101FA0005839580958D957A9577A574A571A57EBE9
:101FB00056BB568C565C562D56FD55CE559E556FCC
:101FC000553F551055E154B154825453542454F4A0
:101FD00053C5539653675338530953DA52AB527C67
:101FE000524D521E52EF51C0519151625133510521
:101FF00051D650A75079504A501B50ED4FBE4F90CC
:102000004F614F334F044FD64EA74E794E4B4E1C67
:102010004EEE4DC04D924D634D354D074DD94CABF5
:102020004C7D4C4F4C214CF34BC54B974B694B3C73
:102030004B0E4BE04AB24A854A574A294AFC49CEE0
:1020400049A149734946491849EB48BE489048633D
:102050004836480948DB47AE47814754472747FA87
:1020600046CD46A046734646461946ED45C04593C3
:102070004566453A450D45E044B44487445B442EEB
:10208000440244D643A9437D4351432443F842CC00
:1020900042A042744248421C42F041C44198416C03
:1020A0004140411441E940BD40914066403A400FF3
:1020B00040E33FB83F8C3F613F353F0A3FDF3EB3CF
:1020C0003E883E5D3E323E073EDC3DB13D863D5B97
:1020D0003D303D053DDA3CAF3C853C5A3C2F3C054C
:1020E0003CDA3BB03B853B5B3B303B063BDC3AB1EB
:1020F0003A873A5D3A333A093ADF39B5398B396173
:102100003937390D39E338B938903866383C3813E7
:1021100038E937C03796376D3743371A37F136C746
:10212000369E3675364C362336FA35D135A8357F8E
:102130003556352D350535DC34B3348B3462343ABD
:10214000341134E933C0339833703347331F33F7D6
:1021500032CF32A7327F3257322F320732DF31B7D8
:10216000319031683140311931F130CA30A2307BC1
:102170003053302C300530DE2FB62F8F2F682F4193
:102180002F1A2FF32ECC2EA62E7F2E582E312E0B4B
:102190002EE42DBE2D972D712D4A2D242DFE2CD7EA
:1021A0002CB12C8B2C652C3F2C192CF32BCD2BA771
:1021B0002B822B5C2B362B102BEB2AC52AA02A7ADC
:1021C0002A552A302A0B2AE529C0299B297629512C
:1021D000292C290729E228BD28992874284F282B63
:1021E000280628E227BD279927752750272C27087E
:1021F00027E426C0269C267826542630260C26E97D
:1022000025C525A1257E255A2537251325F024CD62
:1022100024A9248624632440241D24FA23D723B42C
:102220002392236F234C2329230723E422C222A0D5
:10223000227D225B2239221622F421D221B0218E66
:10224000216C214B2129210721E520C420A22081D6
:10225000205F203E201D20FB1FDA1FB91F981F772B
:102260001F561F351F141FF31ED21EB21E911E7162
:102270001E501E301E0F1EEF1DCF1DAE1D8E1D6E7B
:102280001D4E1D2E1D0E1DEE1CCF1CAF1C8F1C7075
:102290001C501C311C111CF21BD21BB31B941B7550
:1022A0001B561B371B181BF91ADA1ABB1A9D1A7E0C
:1022B0001A5F1A411A221A041AE619C719A9198BAA
:1022C000196D194F1931191319F518D718BA189C27
:1022D000187E186118431826180818EB17CE17B186
:1022E00017941777175A173D1720170317E616CAC2
:1022F00016AD169116741658163B161F160316E7E0
:1023000015CB15AF15931577155B153F15241508DB
:1023100015EC14D114B5149A147F14631448142DB9
:10232000141214F713DC13C113A7138C1371135772
:10233000133C1322130713ED12D312B8129E12840A
:10234000126A12501236121C120312E911CF11B682
:10235000119C1183116A11501137111E110511ECD6
:1023600010D310BA10A1108910701057103F10260A
:10237000100E10F60FDD0FC50FAD0F950F7D0F6519
:102380000F4D0F350F1E0F060FEE0ED70EBF0EA806
:102390000E910E790E620E4B0E340E1D0E060EEFD0
:1023A0000DD90DC20DAB0D950D7E0D680D510D3B78
:1023B0000D250D0F0DF90CE30CCD0CB70CA10C8BFA
:1023C0000C760C600C4A0C350C200C0A0CF50BE05A
:1023D0000BCB0BB60BA10B8C0B770B620B4E0B3997
:1023E0000B240B100BFC0AE70AD30ABF0AAB0A97AF
:1023F0000A830A6F0A5B0A470A330A200A0C0AF9A1
:1024000009E509D209BF09AC099809850972095F74
:10241000094D093A09270915090209EF08DD08CB1A
:1024200008B808A6089408820870085E084C083BA3
:1024300008290817080608F407E307D107C007AF03
:10244000079E078D077C076B075A0749073907283E
:102450000718070707F706E606D606C606B606A655
:102460000696068606760667065706470638062845
:102470000619060A06FB05EB05DC05CD05BE05B011
:1024800005A105920583057505660558054A053BB6
:10249000052D051F0511050305F504E704DA04CC35
:1024A00004BE04B104A304960489047C046E046190
:1024B00004540447043B042E04210414040804FBC0
:1024C00003EF03E303D603CA03BE03B203A6039AD2
:1024D000038F03830377036C036003550349033EB3
:1024E00003330328031D0312030703FC02F102E771
:1024F00002DC02D102C702BD02B202A8029E02940F
:10250000028A02800276026C02630259024F02467E
:10251000023D0233022A02210218020F020602FDC6
:1025200001F401EC01E301DA01D201C901C101B9F1
:1025300001B101A901A10199019101890181017AEA
:102540000172016B0163015C0155014D0146013FC0
:1025500001380131012B0124011D01170110010A6D
:10256000010301FD00F700F100EB00E500DF00D9F9
:1025700000D300CE00C800C300BD00B800B300AD5A
:1025800000A800A3009E009900950090008B008792
:102590000082007E007900750071006D00690065A1
:1025A0000061005D005900560052004F004B00488A
:1025B00000440041003E003B00380035003200304E
:1025C000002D002A0028002600230021001F001DE6
:1025D000001B001900170015001300110010000E59
:1025E000000D000C000A00090008000700060005A5
:1025F00000040004000300020002000100010001C9
:1026000000010001000100010001000100010001C2
:102610000002000200030004000400050006000799
:1026200000080009000A000C000D000E0010001147
:102630000013001500170019001B001D001F0021CA
:10264000002300260028002A002D0030003200352B
:102650000038003B003E004100440048004B004F62
:10266000005200560059005D006100650069006D70
:10267000007100750079007E00820087008B009059
:1026800000950099009E00A300A800AD00B300B81B
:1026900000BD00C300C800CE00D300D900DF00E5B4
:1026A00000EB00F100F700FD0003010A0110011723
:1026B000011D0124012B01310138013F0146014D6B
:1026C0000155015C0163016B0172017A018101898D
:1026D0000191019901A101A901B101B901C101C98A
:1026E00001D201DA01E301EC01F401FD0106020F60
:1026F00002180221022A0233023D0246024F025909
:102700000263026C02760280028A0294029E02A890
:1027100002B202BD02C702D102DC02E702F102FCF2
:1027200002070312031D03280333033E0349035525
:102730000360036C03770383038F039A03A603B23A
:1027400003BE03CA03D603E303EF03FB0308041429
:102750000421042E043B044704540461046E047CE9
:102760000489049604A304B104BE04CC04DA04E78B
:1027700004F504030511051F052D053B054A055801
:10278000056605750583059205A105B005BE05CD55
:1027900005DC05EB05FB050A061906280638064781
:1027A0000657066706760686069606A606B606C687
:1027B00006D606E606F70607071807280739074969
:1027C000075A076B077C078D079E07AF07C007D125
:1027D00007E307F4070608170829083B084C085EBA
:1027E00008700882089408A608B808CB08DD08EF2E
:1027F000080209150927093A094D095F0972098577
:10280000099809AC09BF09D209E509F9090C0A20A0
:102810000A330A470A5B0A6F0A830A970AAB0ABFA0
:102820000AD30AE70AFC0A100B240B390B4E0B6281
:102830000B770B8C0BA10BB60BCB0BE00BF50B0A3C
:102840000C200C350C4A0C600C760C8B0CA10CB7D0
:102850000CCD0CE30CF90C0F0D250D3B0D510D6843
:102860000D7E0D950DAB0DC20DD90DEF0D060E1D94
:102870000E340E4B0E620E790E910EA80EBF0ED7BF
:102880000EEE0E060F1E0F350F4D0F650F7D0F95C7
:102890000FAD0FC50FDD0FF60F0E1026103F1057AE
:1028A0001070108910A110BA10D310EC1005111E71
:1028B00011371150116A1183119C11B611CF11E912
:1028C0001103121C12361250126A1284129E12B890
:1028D00012D312ED12071322133C13571371138CEA
:1028E00013A713C113DC13F71312142D1448146328
:1028F000147F149A14B514D114EC14081524153F40
:10290000155B1577159315AF15CB15E71503161F36
:10291000163B16581674169116AD16CA16E616030F
:102920001720173D175A1777179417B117CE17EBC3
:102930001708182618431861187E189C18BA18D75B
:1029400018F518131931194F196D198B19A919C7D1
:1029500019E619041A221A411A5F1A7E1A9D1ABB27
:102960001ADA1AF91A181B371B561B751B941BB35E
:102970001BD21BF21B111C311C501C701C8F1CAF76
:102980001CCF1CEE1C0E1D2E1D4E1D6E1D8E1DAE71
:102990001DCF1DEF1D0F1E301E501E711E911EB249
:1029A0001ED21EF31E141F351F561F771F981FB906
:1029B0001FDA1FFB1F1D203E205F208120A220C4A4
:1029C00020E520072129214B216C218E21B021D225
:1029D00021F421162239225B227D22A022C222E488
:1029E00022072329234C236F239223B423D723FACE
:1029F000231D24402463248624A924CD24F02413F9
:102A00002537255A257E25A125C525E9250C263003
:102A100026542678269C26C026E42608272C2750F4
:102A20002775279927BD27E22706282B284F2874CA
:102A3000289928BD28E22807292C29512976299B85
:102A400029C029E5290B2A302A552A7A2AA02AC525
:102A50002AEB2A102B362B5C2B822BA72BCD2BF3AA
:102A60002B192C3F2C652C8B2CB12CD72CFE2C2415
:102A70002D4A2D712D972DBE2DE42D0B2E312E5864
:102A80002E7F2EA62ECC2EF32E1A2F412F682F8F9D
:102A90002FB62FDE2F05302C3053307B30A230CABA
:102AA00030F1301931403168319031B731DF3107C1
:102AB000322F3257327F32A732CF32F7321F3347AD
:102AC0003370339833C033E93311343A3462348B82
:102AD00034B334DC3405352D3556357F35A835D142
:102AE00035FA3523364C3675369E36C736F1361AEA
:102AF0003743376D379637C037E93713383C386678
:102B0000389038B938E3380D39373961398B39B5F0
:102B100039DF39093A333A5D3A873AB13ADC3A0655
:102B20003B303B5B3B853BB03BDA3B053C2F3C5AA3
:102B30003C853CAF3CDA3C053D303D5B3D863DB1DC
:102B40003DDC3D073E323E5D3E883EB33EDF3E0A01
:102B50003F353F613F8C3FB83FE33F0F403A40660F
:102B6000409140BD40E940144140416C419841C40E
:102B700041F0411C4248427442A042CC42F84224F7
:102B80004351437D43A943D64302442E445B4487CB
:102B900044B444E0440D453A4566459345C045ED8F
:102BA00045194646467346A046CD46FA4627475441
:102BB000478147AE47DB470948364863489048BEDF
:102BC00048EB48184946497349A149CE49FC49296F
:102BD0004A574A854AB24AE04A0E4B3C4B694B97EA
:102BE0004BC54BF34B214C4F4C7D4CAB4CD94C0758
:102BF0004D354D634D924DC04DEE4D1C4E4B4E79B3
:102C00004EA74ED64E044F334F614F904FBE4FEDFF
:102C10004F1B504A507950A750D65005513351623E
:102C2000519151C051EF511E524D527C52AB52DA6C
:102C3000520953385367539653C553F4532454538E
:102C4000548254B154E15410553F556F559E55CEA2
:102C500055FD552D565C568C56BB56EB561A574AA9
:102C6000577A57A957D9570958395868589858C8A2
:102C700058F858285958598859B859E859185A488D
:102C80005A785AA85AD85A085B385B685B985BC96F
:102C90005BF95B295C595C8A5CBA5CEA5C1B5D4B46
:102CA0005D7B5DAC5DDC5D0D5E3D5E6E5E9E5ECF10
:102CB0005EFF5E305F605F915FC25FF25F236054D2
:102CC000608460B560E660176147617861A961DA88
:102CD000610B623C626C629D62CE62FF6230636136
:102CE000639263C363F463256456648764B964EADA
:102CF000641B654C657D65AE65DF65116642667374
:102D000066A466D666076738676A679B67CC67FE06
:102D1000672F6860689268C368F568266958698992
:102D200069BB69EC691E6A4F6A816AB26AE46A1516
:102D30006B476B796BAA6BDC6B0D6C3F6C716CA293
:102D40006CD46C066D386D696D9B6DCD6DFF6D300B
:102D50006E626E946EC66EF86E296F5B6F8D6FBF7C
:102D60006FF16F237054708670B870EA701C714EEA
:102D7000718071B271E471167248727A72AC72DE4F
:102D800072107342737473A673D8730A743C746EB2
:102D900074A074D2740475367568759A75CD75FF14
:102DA00075317663769576C776F9762B775E779070
:102DB00077C277F477267858788B78BD78EF7821CA
:102DC0007953798579B879EA791C7A4E7A817AB320
:102DD0007AE57A177B497B7C7BAE7BE07B127C4576
:102DE0007C777CA97CDB7C0E7D407D727DA47DD7C9
:102DF0007D097E3B7E6D7EA07ED27E047F367F691C
:102E00007F9B7FCD7F0D0A3F3F3F20756E6B6E6FBE
:102E1000776E20636F6D6D616E64202D20666F721A
:102E200020617373697374616E636520656E746588
:102E300072202068656C700D0A00786F3D00726525
:102E40007365743D0070743D006B623D0068656C95
:102E50007000696E666F3D0065623D006464733D9D
:102E6000006461633D0063616C3D6779726F00636C
:102E7000616C3D64656661756C74730063616C3D83
:102E8000616363656C7A0063616C3D616363656C6B
:102E9000790063616C3D616363656C7800626C3DD1
:102EA00000626961733D00412F0041540061646319
:102EB0003D000D0A3E20000D0A002D313A20504CF5
:102EC0004C204F4E0D0A00786F3D0909302D3635E4
:102ED0003533353A2056435443584F2070756C6C47
:102EE00020766F6C746167652C2000726573657461
:102EF0003D0909313A207265626F6F7420414C4C74
:102F00000D0A00313A207475726E20737065656425
:102F10002C20323A20766172696F6D657465720D8E
:102F20000A0070743D0909303A20706974636820A2
:102F3000746F6E65204F46462C20006B623D090978
:102F4000303A206B65792062656570204F46462CCB
:102F500020313A204F4E0D0A00307830343A20317B
:102F60005050532F504C4C0D0A00307830323A20DC
:102F700053494D3830382C2000696E666F3D090981
:102F8000303A204F46462C20307830313A20415498
:102F9000786D6567612C200061626F757420616CCB
:102FA0006C20617661696C61626C6520636F6D6D28
:102FB000616E64730D0A0068656C70090954686974
:102FC0007320696E666F726D6174696F6E207061D7
:102FD0006765200065623D0909303A206572726FAD
:102FE000722062656570204F46462C20313A204F92
:102FF0004E0D0A00633A207374617274696E672023
:103000007068617365206F6620444453312D4444D9
:103010005330206465670D0A00623A2044445331FE
:10302000206D487A2C20006464733D612C622C630F
:1030300009613A2044445330206672657175656EAB
:103040006379206D487A2C2000313A207475726EB5
:103050002044414342206F6E0D0A006461633D09C4
:1030600009303A207475726E2044414342206F66E5
:10307000662C200009096779726F3A2072656475C1
:103080006365204759524F206F66667365742065EB
:1030900072726F72730D0A000909616363656C7A5D
:1030A0003A205A2D61786973203167206661637414
:1030B0002D63616C2C20582F59206F6666736574E0
:1030C0002D63616C0D0A000909616363656C793ACF
:1030D00020592D6178697320316720666163742DF2
:1030E00063616C2C20582F5A206F66667365742DAF
:1030F00063616C0D0A000909616363656C783A20AD
:10310000582D6178697320316720666163742D637F
:10311000616C2C20592F5A206F66667365742D637D
:10312000616C0D0A00746F20454550524F4D0D0AD9
:103130000063616C3D090964656661756C74733A7E
:1031400020736176652064656661756C74207661B4
:103150006C75657320002D313A204155544F2C2059
:103160002D323A205455524E4C49474854207370E2
:10317000656369616C0D0A00626C3D0909302D328E
:1031800035353A206261636B6C696768742050570B
:103190004D2C2000666F72204C434420636F6E7488
:1031A000726173740D0A00626961733D0909302D03
:1031B00036333A206269617320766F6C746167659B
:1031C000200041540909434D4420746F2073656EFB
:1031D0006420746F207468652053494D3830380D71
:1031E0000A00313A207475726E20414443412061D7
:1031F0006E642041444342206F6E0D0A0061646397
:103200003D0909303A207475726E204144434120D3
:10321000616E642041444342206F66662C20002A80
:1032200020434F4D4D414E4453202A0D0A2A2A2A4D
:103230002A2A2A2A2A2A2A2A2A0D0A0D0A000D0ACF
:103240000D0A0D0A2A2A2A2A2A2A2A2A2A2A2A2A58
:103250000D0A0025352E33660025342E31660025F3
:1032600030372E3266002530352E3266002D2D2D5A
:103270002D2D2D2D2D2D2D2D0D0A0D0A00496E6998
:10328000743A204261726F202073756363657373B3
:10329000005457492D6F6E626F6172643A20202E80
:1032A0002E2E20646576696365206E6F74206F6EC4
:1032B00020626F6172642E202873633D2564290D9E
:1032C0000A005457492D6F6E626F6172643A202074
:1032D000494E495420737563636573732E0D0A005C
:1032E0005457492D6F6E626F6172643A20204241DB
:1032F000442072656164696E672050524F4D2061B1
:103300006464726573732025642E202873633D25E1
:1033100064290D0A005457492D6F6E626F61726403
:103320003A204261726F204D533536303730324289
:103330004130332D3530202D202020202073657220
:1033400069616C233A2025640D0A005457492D6F9A
:103350006E626F6172643A2020424144207265615E
:1033600064696E672073657269616C2F43524320F4
:10337000776F72642E202873633D2564290D0A003F
:103380000D0A5457492D6F6E626F6172643A204284
:1033900061726F204D533536303730324241303311
:1033A0002D3530202D2049324320616464726573CD
:1033B000733A203078253032580D0A00496E69740E
:1033C0003A204779726F20207375636365737300C9
:1033D0005457492D6F6E626F6172643A20202E2E11
:1033E0002E20646576696365206E6F74206F6E2091
:1033F000626F6172642E202873633D2564290D0A73
:10340000005457492D6F6E626F6172643A202049F3
:103410004E495420737563636573732E0D0A00540F
:1034200057492D6F6E626F6172643A204779726FEF
:10343000204D50552D39323530202D202020202090
:1034400076657273696F6E3A203078253032582C69
:10345000203078253032580D0A005457492D6F6EB0
:10346000626F6172643A204779726F204D50552D1A
:10347000393235302020202D2020202772657365B9
:10348000742031272062616420726573706F6E73DF
:10349000650D0A000D0A5457492D6F6E626F6172F7
:1034A000643A204779726F204D50552D39323530AE
:1034B000202D2049324320616464726573733A2081
:1034C0003078253032582C203078253032580D0A8B
:1034D00000496E69743A20487967726F207375638A
:1034E00063657373005457492D6F6E626F61726428
:1034F0003A20202E2E2E20646576696365206E6F3B
:1035000074206F6E20626F6172642E202873633D99
:103510002564290D0A005457492D6F6E626F617240
:10352000643A2020494E4954207375636365737370
:103530002E0D0A005457492D6F6E626F6172643A06
:1035400020487967726F2053485433312D444953D2
:10355000202D2020207374617475733A20307825F3
:103560003032580D0A005457492D6F6E626F6172E8
:10357000643A20487967726F2053485433312D44A0
:103580004953202D20202061646472657373204E9E
:1035900041434B202F2027627265616B27206261B7
:1035A0006420726573706F6E73650D0A000D0A54A6
:1035B00057492D6F6E626F6172643A204879677265
:1035C0006F2053485433312D444953202D20493224
:1035D0004320616464726573733A20307825303219
:1035E000580D0A00646F5570646174653D25642C44
:1035F000206F75744F6653796E633D256420090012
:1036000044454255475F4D41494E5F315050533A12
:1036100020646966663D252B3034642C206C617310
:10362000745F61646A7573743D25642C20696E5300
:1036300070616E3D25642C20000011241FBECFEF69
:10364000CDBFDFE5DEBF00E00CBF11E2A0E0B0E2DD
:10365000E4E0F8E101E00BBF02C007900D92AA3B45
:10366000B107D9F72EE2AAEBB1E201C01D92A9354C
:10367000B207E1F70E94666E0C94DE8B0C9400009A
:10368000EF92FF920F931F93CF93DF937C01EB0197
:103690008B01040F151FC017D10721F06991C701D5
:1036A000C1D0F9CF80E0DF91CF911F910F91FF90B2
:1036B000EF900895009709F4B4C0803C910511F48F
:1036C00060E105C0803821E0920719F462E080E0F3
:1036D000A6C0811521E0920711F461E0F8CF80388F
:1036E00023E0920711F461E00BC0803923E09207D8
:1036F00011F461E012C0811522E0920719F462E032
:1037000081E08DC0803422E0920711F462E005C0B0
:10371000803223E0920719F464E082E080C08115D2
:1037200028E0920711F461E073C0811529E0920747
:1037300011F461E066C081152AE0920711F461E09E
:103740006DC081152BE0920711F461E04DC080340B
:1037500028E0920711F462E05BC0803429E0920710
:1037600011F462E04EC080342AE0920711F462E066
:1037700055C0803928E0920711F464E049C08039CF
:1037800029E0920711F464E03CC080392AE09207F6
:1037900011F464E043C080392BE0920711F464E037
:1037A00023C0803C28E0920711F468E031C0803CDF
:1037B00029E0920711F468E024C0803A28E09207DB
:1037C00011F460E125C0803A29E0920711F460E12C
:1037D00018C0803A2AE0920711F460E11FC0803AD5
:1037E0002BE0920719F460E186E019C0803B28E0E5
:1037F000920711F460E20CC0803B29E0920719F4B3
:1038000060E284E00CC0803824E0920719F460E4A0
:1038100083E005C0803A944021F460E485E00C9494
:1038200052720895FC01218125FFFCCF608380E066
:1038300090E00895FC01218127FFFCCF808108954D
:103840008F929F92AF92BF92CF92DF92EF92FF92B0
:103850000F931F93CF93DF93EC016A017B01480123
:1038600059018C81B901A80182FF11C033E076951E
:103870006795579547953A95D1F7D501C401E6E18B
:10388000B695A79597958795EA95D1F710C094E0DE
:1038900076956795579547959A95D1F7D901C801BF
:1038A00027E1B695A795979587952A95D1F74C1559
:1038B0005D056E057F0508F498C0C816D906EA06AE
:1038C000FB0608F492C08C8182FD04C0CC0CDD1C88
:1038D000EE1CFF1CC501B401A70196010E942984BA
:1038E00019EF8FEF90E0A0E0B0E0281739074A0702
:1038F0005B0758F0880F991FAA1FBB1F1D3F0CF4D0
:1039000081601F5F173089F749C017FF47C0D70193
:10391000C601F3E0880F991FAA1FBB1FFA95D1F7C4
:10392000881A990AAA0ABB0A812F012E000C990B4A
:103930001E3FDCF42DEF3FEFA901481B590B04C0DB
:10394000880C991CAA1CBB1C4A95D2F7D701C6014A
:10395000B695A79597958795BC01CD01680D791D02
:103960008A1D9B1DA701960116C00396A70196010B
:1039700004C0220F331F441F551F8A95D2F7DA0166
:10398000C901B695A79597958795BC01CD01680D9E
:10399000791D8A1D9B1D0E9429841DC083E0810F13
:1039A000A701960104C0220F331F441F551F8A959B
:1039B000D2F7DA01C901B695A79597958795BC010D
:1039C000CD01680D791D8A1D9B1D0E9429842150FF
:1039D000310941095109932F9F70812F8295807F72
:1039E000892B8F832E8381E001C080E0DF91CF910E
:1039F0001F910F91FF90EF90DF90CF90BF90AF900D
:103A00009F908F9008950F931F93CF93DF93EC01B6
:103A10008B0150DE8D818F738D83F80195818481B8
:103A2000982B8681811188E0892B8D83F801408154
:103A300051816281738100E813EC29EC31E0CE0101
:103A4000FFDE9C8198609C839C8190619C83DF91C8
:103A5000CF911F910F910895CF93DF931F92CDB710
:103A6000DEB78FB78983F89489810F90DF91CF916A
:103A7000089504C0615071098109910961157105AA
:103A800081059105B9F708951F93CF93DF93162F02
:103A9000C82FC695C695C69590E2C99FE00111242E
:103AA000C05FD94F8770C80FD11DD6DF988197703E
:103AB00098836881612B68838FBFDF91CF911F91BD
:103AC00008951F920F920FB60F9211240BB60F920A
:103AD0002F933F934F935F936F937F938F939F9316
:103AE000AF93BF93EF93FF9380EA9BE0A3DE209117
:103AF0002428309125282038310558F4A9014F5F3A
:103B00005F4F4093242850932528F901EC55F84D38
:103B1000808380912428909125288D37910518F075
:103B200080E88093A50681E080932628FF91EF919D
:103B3000BF91AF919F918F917F916F915F914F91C5
:103B40003F912F910F900BBE0F900FBE0F901F90C3
:103B50001895AC019FEF960F9F3F61F0292F30E041
:103B6000FA01E20FF31F8081F901E65BFA4D8083D1
:103B70009150F2CF462F50E0FA01E65BFA4D8DE00E
:103B8000808311826AE475E280EA9BE079CD9F929E
:103B9000AF92BF92CF92DF92EF92FF920F931F935B
:103BA000CF93DF93C0EAD6E082E0E82EED8298E082
:103BB000F92EFD8220E8B22EBD8230E8C32E36E019
:103BC000D32E40E2942EF601968250E1A52EA682D5
:103BD00000E616E0F801E682F68260E889E254DF4A
:103BE00060E88BE251DF60E88FE24EDF60E985E25A
:103BF0004BDF60E984E248DF60E989E145DF60E9A5
:103C00008BE142DFE982F98294E09A83B98220E471
:103C10002A83AA8281E08A83F6019182A182F282BC
:103C2000E0E0F6E0B2822283F801E182F182928341
:103C300082838093E207E7E2F8E280E096E9A0E081
:103C4000B0E080839183A283B38383E08483158271
:103C50001682DF91CF911F910F91FF90EF90DF902F
:103C6000CF90BF90AF909F9008953F924F925F92F8
:103C70006F927F928F929F92AF92BF92CF92DF927C
:103C8000EF92FF920F931F93CF93DF93CDB7DEB7E1
:103C90002797CDBFDEBF80912B288D8380912C2864
:103CA0008E8380912D288F838091272890912828BA
:103CB000A0912928B0912A2889839A83AB83BC8359
:103CC00060E186E00E945272BE016F5F7F4F80EA22
:103CD0009BE099DE80E18093A30B86E794E09F93BD
:103CE0008F931F9230E4F32EFF920AE415E21F93A4
:103CF0000F930E947C88A80166E488E00E94373810
:103D00008AED94E09F938F931F92FF921F930F93DE
:103D10000E947C8840E0682FC8011BD280E280931B
:103D2000850661EA75E286E290E0A3DE82E0809398
:103D3000A60661E271EA87E090E09BDE80E880936E
:103D4000A60668E873E180E090E093DECDBFDEBFB9
:103D500048E0742E780150E8652E62E0562E70E23D
:103D6000472EEAE58E2EE4E09E2EF0E43F2EA2EBF5
:103D7000AA2EA4E0BA2E2CE0C22ED12C43E050E0B3
:103D800060E171E280EA9BE07BDC61E271EA87E05E
:103D900090E06FDE80912628882381F35DDE2091FC
:103DA0002428309125282150310937FD09C0F90117
:103DB000EC55F84D9081F901E65BFA4D9083F3CF15
:103DC0001092242810922528109226288FBF0AE4EA
:103DD00015E280914A25882341F062E075E0C80130
:103DE0000E949387892B09F052C031E0C31AD10891
:103DF00009F0C4CF6092A5065092A50640928606AF
:103E000061EB71E78BE090E034DE8CE0871520F405
:103E10000E94503B93E0792E9F928F921F923F9287
:103E2000FF92EF920E947C8811E0170D672D660FBC
:103E3000862F880F880F680F4AE455E288E00E94B9
:103E40003738BF92AF921F923F92FF92EF920E943B
:103E50007C8840E0682F8AE495E27BD14092850619
:103E600061EA75E286E290E004DE5092A60661E225
:103E700071EA87E090E0FDDD6092A60668E873E1F4
:103E800080E090E0F6DDCDBFDEBF712E74CF1F92D3
:103E90001F9286E98F931F9288E394E09F938F93FC
:103EA0001F9280E4F82EFF921F930F930E947C884C
:103EB000AC016AE475E280EA9BE0E2DB84EF91E02A
:103EC0000E945E6D8BE294E09F938F931F92FF920E
:103ED0001F930F930E947C88AC016AE475E280EA2C
:103EE0009BE0CEDB84EF91E00E945E6D8DE094E07C
:103EF0009F938F931F92FF921F930F930E947C8832
:103F0000AC016AE475E280EA9BE0BADB84EF91E001
:103F10000E945E6D84E094E09F938F931F92FF92C6
:103F20001F930F930E947C88AC016AE475E280EADB
:103F30009BE0A6DB84EF91E00E945E6D8FE194E050
:103F40009F938F931F92FF921F930F930E947C88E1
:103F5000CDBFDEBFAC016AE475E280EA9BE090DB96
:103F600084EF91E00E945E6D83E194E09F938F93D4
:103F70001F92FF921F930F930E947C88AC016AE40A
:103F800075E280EA9BE07CDB84EF91E00E945E6D4D
:103F90001F92EE24E394EF9284EF93E09F938F932C
:103FA0001F92FF921F930F930E947C88AC016AE4DA
:103FB00075E280EA9BE064DB84EF91E00E945E6D35
:103FC0001F92EF9287EE93E09F938F931F92FF9241
:103FD0001F930F930E947C88AC016AE475E280EA2B
:103FE0009BE04EDB84EF91E00E945E6D85E494E0FF
:103FF0009F938F931F92FF921F930F930E947C8831
:10400000770C672D660F660F670D4AE455E288E06E
:104010000E94373880E994E09F938F931F92FF921C
:104020001F930F930E947C88CDBFDEBF40E0682FB6
:104030008AE495E28ED02796CDBFDEBFDF91CF9187
:104040001F910F91FF90EF90DF90CF90BF90AF90B6
:104050009F908F907F906F905F904F903F900895CA
:104060001F93CF93DF9380912628882309F46DC096
:10407000F3DC20912428309125282115310509F4FD
:1040800043C02134310530F0A9014054510920E4E6
:1040900030E002C040E050E0E4EAF7E2C0E0D0E007
:1040A0001DE0BF01645A77426217730780F4919153
:1040B0009A3031F4BE01665B7A4DDB011C93219688
:1040C000BE01665B7A4DDB019C932196EACF4115D8
:1040D000510599F0E4EAF7E29F01245A3742241788
:1040E000350730F4DF01A05CBF4F9C919193F4CF72
:1040F000409324285093252809C010922428109218
:1041000025281092262802C0C0E0D0E08FBFA4DC92
:1041100020912428309125282837310518F490E87B
:104120009093A6068FBF209781F080913328882333
:1041300061F040E06C2F8AE495E20BD084E690E0D9
:10414000DF91CF911F910C945E6DDF91CF911F9104
:104150000895EF92FF920F931F93CF93DF932091D7
:1041600030282223A9F1042F162F7C01D0E0C0E0D3
:10417000C11760F50E94B5758823D1F0F701EC0FE7
:10418000F11D8081002349F0282F082E000C330BED
:104190002052310920363105B0F490912F28911129
:1041A00012C0082E000C990B0E94FF75892B59F440
:1041B000DF5F89E190E00E945E6DD93CC8F2109209
:1041C00030288C2F06C0CF5FD0E0D2CF8C2F01C01B
:1041D00080E0DF91CF911F910F91FF90EF900895B4
:1041E0000E94F2798091352881110E94EB7988EE46
:1041F00093E00E945E6D8EE797E09F938F931F92EE
:1042000080E48F938AE495E29F938F930E947C8849
:104210008134910510F080E490E040E0682F8AE45A
:1042200095E297DF84EF91E00E945E6D1F928CE033
:104230008F9388E597E09F938F931F9280E48F93ED
:104240008AE495E29F938F930E947C888134910544
:1042500010F080E490E040E0682F8AE495E279DF96
:104260008AEF90E00E945E6D86E397E09F938F93C4
:104270001F9280E48F938AE495E29F938F930E942C
:104280007C888134910510F080E490E040E0682F54
:104290008AE495E25EDF8AEF90E00E945E6D82E143
:1042A00097E09F938F931F9280E48F938AE495E227
:1042B0009F938F930E947C882DB73EB7265E3F4F19
:1042C0002DBF3EBF8134910510F080E490E040E0C6
:1042D000682F8AE495E23DCF83E080932E280895ED
:1042E00082E080932E2808950895089581E08093B8
:1042F000302808951092302808950895089508955B
:1043000081E080933128089510922F2808952F92EC
:104310003F924F925F926F927F928F929F92AF9255
:10432000BF92CF92DF92EF92FF920F931F93CF93A2
:10433000DF93CDB7DEB7C554D109CDBFDEBF209125
:104340003028222309F48DC46E837F838887998760
:1043500080913128882309F43FC0109231288DE8DC
:1043600096E20E94E5678823B9F10E9432748C01BD
:10437000059700F104E010E01DC080915F288823BC
:1043800041F061E080EB0E9469358AE090E00E9494
:104390005E6DB801CE0101960E943575809134287A
:1043A000882361F0B801CE0101960E94582C0E942A
:1043B00032748C010115110501F70AC08091322871
:1043C0008111F0CF41E0602FCE010196C2DEEACF2D
:1043D0008DE896E20E94F86780913228882309F4DC
:1043E000C2C080913828882309F4BDC08FB78D835F
:1043F000F894FD80109155280091562820904D2862
:1044000030904E2840904F2850905028609051286E
:1044100070905228809053289090542860913A28A8
:1044200070913B28072E000C880B990B0E94278166
:104430006E87788B8A8B9C8B209113273091142761
:1044400040911527509116272A873B874C875D8717
:10445000FFBE109238280F931F9348EEA42E53E00E
:10446000B52EC12CD12CE12CF12C00E010E09101F3
:10447000A201B301C4010E9444855F934F933F930F
:104480002F939101A201B301C4010E9446855F935D
:104490004F933F932F9387E395E09F938F931F92C2
:1044A00080E48F938AE495E29F938F930E947C88A7
:1044B0008134910510F080E490E040E0682F8AE4B8
:1044C00095E247DE4C884F925A885F9268886F92D7
:1044D0007E847F9280E295E09F938F931F9280E489
:1044E0008F938AE495E29F938F930E947C88813416
:1044F000910510F080E490E040E0682F8AE495E2B6
:1045000028DE8A859B85AC85BD859927AA27BB2790
:10451000BF93AF939F938F938A859B85AC85BD8511
:104520008827BB27892F9A2FAB2FBB27BF93AF9329
:104530009F938F9385E095E09F938F931F9280E4E4
:104540008F938AE495E29F938F930E947C88CDBFDE
:10455000DEBF8134910510F080E490E040E0682FE8
:104560008AE495E2F6DD80913428882309F479C342
:104570008091BA219091BB21A091BC21B091BD2125
:104580004E815F8168857985481B590B6A0B7B0BCF
:10459000411552406105710550F44E805F8068847A
:1045A0007984481659066A067B0608F05AC38FB705
:1045B0008983F89469815090A92625965FAE259746
:1045C0006090AA2626966FAE26972091A726309156
:1045D000A8264091A5265091A6267090A3267EA6D7
:1045E0004090A4264FA60091A1261091A2262090CB
:1045F0009F263090A02660909D2670909E266A8609
:104600007B868090272790902827A0902927B0901C
:104610002A27C0902327D0902427E0902527F090C8
:10462000262740901B2750901C274E865F8660905F
:10463000192770901A27688A798A7090982778AA23
:104640004090992749AA509096275AAA6090972798
:104650006BAA709094277CAA409095274DAA6090F1
:104660008627709087276A8A7B8A4090842750909B
:1046700085274C8A5D8A60908227709083276E8A96
:104680007F8A709080277EAA409081274FAA509001
:104690007E2758AE60907F2769AE70907C277AAEF7
:1046A00040907D274BAE40907227509073276090CA
:1046B000742770907527488E598E6A8E7B8E409035
:1046C0006E2750906F2760907027709071278091AF
:1046D0006A2790916B27A0916C27B0916D278C8FE2
:1046E0009D8FAE8FBF8F9091A0279CAFA091A127E7
:1046F000ADAFE0919A27F0919B27E8A3F9A3F09141
:104700005C27FEAF70915D277FAF80915A2721967D
:104710008FAF219790915B2722969FAF2297A09110
:1047200058272396AFAF2397B09159272496BFAF50
:10473000249780914E2790914F27A0915027B091B8
:1047400051278AA39BA3ACA3BDA380914A27909134
:104750004B27A0914C27B0914D278EA39FA3A8A7CC
:10476000B9A78091462790914727A0914827B091FB
:1047700049278AA79BA7ACA7BDA76FBF5F934F939D
:104780003F932F9326969FAD26979F932596AFAD87
:104790002597AF938E819F81A885B9852AE0B6952C
:1047A000A795979587952A95D1F7BF93AF939F9338
:1047B0008F938DED96E09F938F931F9280E48F935C
:1047C0008AE495E29F938F930E947C8881349105BF
:1047D00010F080E490E040E0682F8AE495E2B9DCD4
:1047E0003F922F921F930F93BFA5BF93EEA5EF9318
:1047F00083EB96E09F938F931F9280E48F938AE4DC
:1048000095E29F938F930E947C888134910510F0EC
:1048100080E490E040E0682F8AE495E29ADC2A8503
:104820003B85B901330F880B990B0E94278120E04B
:1048300030E048EC52E40E948C809F938F937F93EA
:104840006F938FE996E09F938F931F9280E48F93ED
:104850008AE495E29F938F930E947C88CDBFDEBF50
:104860008134910510F080E490E040E0682F8AE404
:1048700095E26FDCC701B6010E94278120E030E09D
:1048800048EC52E40E948C809F938F937F936F93A8
:10489000C501B4010E94278120E030E048EC52E4D9
:1048A0000E948C809F938F937F936F9388E796E00D
:1048B0009F938F931F9280E48F938AE495E29F9356
:1048C0008F930E947C888134910510F080E490E001
:1048D00040E0682F8AE495E23CDCA889B989BD01F3
:1048E000BB0F880B990B0E94278120E030E048EC39
:1048F00052E40E948C809F938F937F936F93EE85F9
:10490000FF85BF01FF0F880B990B0E94278120E0D4
:1049100030E048EC52E40E948C809F938F937F9309
:104920006F938DE496E09F938F931F9280E48F9313
:104930008AE495E29F938F930E947C88813491054D
:1049400010F080E490E040E0682F8AE495E201DC1A
:10495000FBA9FF932AA92F934C895D89BA01550FB2
:10496000880B990B0E94278120E030E04AE754E44D
:104970000E948C809F938F937F936F9359A95F932D
:1049800078A97F93AA89BB89BD01BB0F880B990BBE
:104990000E94278120E030E04AE754E40E948C80A6
:1049A0009F938F937F936F9381E296E09F938F9372
:1049B0001F9280E48F938AE495E29F938F930E94E5
:1049C0007C88CDBFDEBF8134910510F080E490E09B
:1049D00040E0682F8AE495E2BCDBFDA9FF932CA997
:1049E0002F934E895F89BA01550F880B990B0E944E
:1049F000278120E030E04AE754E40E948C809F93B6
:104A00008F937F936F938AE096E09F938F931F928B
:104A100080E48F938AE495E29F938F930E947C8831
:104A20008134910510F080E490E040E0682F8AE442
:104A300095E28FDB59AD5F9378AD7F93C301B201EF
:104A40000E94278120E030E04AE754E40E948C80F5
:104A50009F938F937F936F934FA84F925EA85F921F
:104A6000688D798D8A8D9B8D0E94278120E030E0B2
:104A70004AE754E40E948C809F938F937F936F93B7
:104A80008BED95E09F938F931F9280E48F938AE440
:104A900095E29F938F930E947C888134910510F05A
:104AA00080E490E040E0682F8AE495E252DB6BAC52
:104AB0006F927AAC7F926C8D7D8D8E8D9F8D0E94D2
:104AC000278120E030E04AE754E40E948C809F93E5
:104AD0008F937F936F9383EC95E09F938F931F92B7
:104AE00080E48F938AE495E29F938F930E947C8861
:104AF000CDBFDEBF8134910510F080E490E040E04E
:104B0000682F8AE495E225DB22964FAC22974F92DC
:104B100021965FAC21975F926EA17FA188A599A590
:104B20000E94278120E030E04AE754E40E948C8014
:104B30009F938F937F936F936FAC6F927EAC7F92B6
:104B40006AA17BA18CA19DA10E94278120E030E079
:104B50004AE754E40E948C809F938F937F936F93D6
:104B600086E995E09F938F931F9280E48F938AE468
:104B700095E29F938F930E947C888134910510F079
:104B800080E490E040E0682F8AE495E2E2DA24963F
:104B90004FAC24974F9223965FAC23975F926AA500
:104BA0007BA58CA59DA50E94278120E030E04AE7E7
:104BB00054E40E948C809F938F937F936F938EE732
:104BC00095E09F938F931F9280E48F938AE495E200
:104BD0009F938F930E947C888134910510F080E42C
:104BE00090E040E0682F8AE495E2B3DA6DAC6F9212
:104BF0007CAC7F9248A059A0B201550C880B990B50
:104C00000E94278120E030E048EC52E40E948C8032
:104C10009F938F937F936F938FE595E09F938F93EF
:104C20001F9280E48F938AE495E29F938F930E9472
:104C30007C88CDBFDEBF8134910510F080E490E028
:104C400040E0682F8AE495E284DA4E805F806884D1
:104C500079844092BA215092BB216092BC2170921B
:104C6000BD21CB5BDF4FCDBFDEBFDF91CF911F9169
:104C70000F91FF90EF90DF90CF90BF90AF909F90FB
:104C80008F907F906F905F904F903F902F900895FE
:104C9000833010F480E0089588EF0895EF92FF923A
:104CA0000F931F93E82FDB01CA01B901A8019701F7
:104CB000E13069F030F0E23089F4A7010E94307AE7
:104CC0000BC0AB01BC01CD010E94F37A05C0AB0162
:104CD000BC01CD010E94187B80E001C088EF1F91CC
:104CE0000F91FF90EF900895EF92FF920F931F9313
:104CF000E82FDB01CA01B901A8019701E13071F089
:104D000030F0E23099F4A7010E94B77A0DC001E0BB
:104D1000AB01BC01CD010E94CE7B06C001E0AB011E
:104D2000BC01CD010E94377B80E001C088EF1F915C
:104D30000F91FF90EF900895FC011282138244833B
:104D4000440F415045836083718380E090E0089573
:104D5000CF93DF931F92CDB7DEB78FB78983F894D7
:104D600089810F90DF91CF9108950F931F93CF9377
:104D7000DF93E82FF0E0DF01519624E0AA0FBB1F7C
:104D80002A95E1F72091040160910301EF01249637
:104D900041E050E08A01082E01C0000F0A94EAF7B2
:104DA0000C2E01C0440F0A94EAF7402B642370E0F4
:104DB0008B010C2E02C0159507950A94E2F700FDB1
:104DC0001BC0082E02C0759567950A94E2F760FD36
:104DD00015C04223242F30E0A90102C05595479504
:104DE000CA95E2F740FD0CC002C0359527958A951B
:104DF000E2F7822F817005C084E003C083E001C028
:104E000082E011969C911197906311969C93EE0FFE
:104E1000FF1FE356F24D0190F081E02D309729F00D
:104E2000DF91CF911F910F911994DF91CF911F9135
:104E30000F91089561E080E00E9452728091422EAD
:104E40008F3F09F4FFCF84DF9091422E9F5F9093B4
:104E5000422E8FBF80E48093000180E880930001A0
:104E600008951092000161E080E00E9463728091D9
:104E7000422E811101C0FFCF6BDF9091422E9150E5
:104E80009093422E8FBF0895E82FF0E0EE0FFF1FA2
:104E9000E356F24D6083718308951F920F920FB60F
:104EA0000F9211240BB60F922F933F934F935F9362
:104EB0006F937F938F939F93AF93BF93EF93FF93E2
:104EC00080E053DFFF91EF91BF91AF919F918F9160
:104ED0007F916F915F914F913F912F910F900BBEFA
:104EE0000F900FBE0F901F9018951F920F920FB644
:104EF0000F9211240BB60F922F933F934F935F9312
:104F00006F937F938F939F93AF93BF93EF93FF9391
:104F100081E02BDFFF91EF91BF91AF919F918F9136
:104F20007F916F915F914F913F912F910F900BBEA9
:104F30000F900FBE0F901F9018951F920F920FB6F3
:104F40000F9211240BB60F922F933F934F935F93C1
:104F50006F937F938F939F93AF93BF93EF93FF9341
:104F600082E003DFFF91EF91BF91AF919F918F910D
:104F70007F916F915F914F913F912F910F900BBE59
:104F80000F900FBE0F901F9018951F920F920FB6A3
:104F90000F9211240BB60F922F933F934F935F9371
:104FA0006F937F938F939F93AF93BF93EF93FF93F1
:104FB00083E0DBDEFF91EF91BF91AF919F918F91E5
:104FC0007F916F915F914F913F912F910F900BBE09
:104FD0000F900FBE0F901F9018950F931F93CF93B4
:104FE000DF938B01C82FD0E0619684E0CC0FDD1FEA
:104FF0008A95E1F7ADDEF80191859C8792859D87C2
:105000001E8697819887908599871A8692819A83C0
:1050100093819B83248135812C833D8396819E835C
:105020009181998390819F7798838FBFDF91CF91F2
:105030001F910F91089580E090E00196893E23E052
:105040009207D9F7089580E180932104809121048B
:1050500084FDFCCF60912404709125048091260486
:10506000909127040895E0E2F4E024E0228364872D
:1050700075878687978782E0838308958093A52D1F
:105080009093A62D089564E080E00E945272809172
:10509000F00082608093F00061E080EF90E00E9479
:1050A0007A7C8091F00084608093F000C4DF80916E
:1050B000F00088618093F0008091F10083FFFCCFC5
:1050C000109220048091210480FDFCCF8FEF9FEF90
:1050D000DC018093280490932904A0932A04B093C0
:1050E0002B0410922404109225041092260410928E
:1050F00027048091210480FDFCCF1092220481E0DE
:10510000809320048091210480FDFCCF08951F929C
:105110000F920FB60F9211240BB60F922F933F935D
:105120004F935F936F937F938F939F93AF93BF93AF
:10513000EF93FF9310922204E091A52DF091A62DFC
:10514000309781F080E1809321048091210484FDD7
:10515000FCCF6091240470912504809126049091E5
:1051600027041995FF91EF91BF91AF919F918F9176
:105170007F916F915F914F913F912F910F900BBE57
:105180000F900FBE0F901F901895FC01A4E0F695AC
:10519000E795AA95E1F79F012F5F3F4F211540E169
:1051A000340711F420E030E0EE0FFF1FEB5FF14F0A
:1051B00045915491F901EE0FFF1FEB5FF14F2591DF
:1051C0003491F901F496E41BF50B74E0EE0FFF1F28
:1051D0007A95E1F78F709927E82BF92BEB57F84F69
:1051E000E491CA018E0F911DE7FD9A9508958EE313
:1051F00092E39F938F931F9280E48F938AE495E2CA
:105200009F938F930E947C888134910510F080E4F5
:1052100090E040E0682F8AE495E20E94A9208FE1A7
:1052200092E39F938F931F9280E48F938AE495E299
:105230009F938F930E947C888134910510F080E4C5
:1052400090E040E0682F8AE495E20E94A9208DEF6B
:1052500091E39F938F931F9280E48F938AE495E26A
:105260009F938F930E947C888134910510F080E495
:1052700090E040E0682F8AE495E20E94A92082EE47
:1052800091E39F938F931F9280E48F938AE495E23A
:105290009F938F930E947C888134910510F080E465
:1052A00090E040E0682F8AE495E20E94A92082EC19
:1052B00091E39F938F931F9280E48F938AE495E20A
:1052C0009F938F930E947C888134910510F080E435
:1052D00090E040E0682F8AE495E20E94A92087EAE6
:1052E00091E39F938F931F9280E48F938AE495E2DA
:1052F0009F938F930E947C882DB73EB72C5D3F4FC4
:105300002DBF3EBF8134910510F080E490E040E075
:10531000682F8AE495E20E94A92084E991E39F9393
:105320008F931F9280E48F938AE495E29F938F93EB
:105330000E947C888134910510F080E490E040E088
:10534000682F8AE495E20E94A92088E791E39F9361
:105350008F931F9280E48F938AE495E29F938F93BB
:105360000E947C888134910510F080E490E040E058
:10537000682F8AE495E20E94A92086E591E39F9335
:105380008F931F9280E48F938AE495E29F938F938B
:105390000E947C888134910510F080E490E040E028
:1053A000682F8AE495E20E94A92081E391E39F930C
:1053B0008F931F9280E48F938AE495E29F938F935B
:1053C0000E947C888134910510F080E490E040E0F8
:1053D000682F8AE495E20E94A92085E291E39F93D9
:1053E0008F931F9280E48F938AE495E29F938F932B
:1053F0000E947C888134910510F080E490E040E0C8
:10540000682F8AE495E20E94A92086EF90E39F939B
:105410008F931F9280E48F938AE495E29F938F93FA
:105420000E947C882DB73EB72C5D3F4F2DBF3EBFFD
:105430008134910510F080E490E040E0682F8AE428
:1054400095E20E94A92087EC90E39F938F931F928F
:1054500080E48F938AE495E29F938F930E947C88E7
:105460008134910510F080E490E040E0682F8AE4F8
:1054700095E20E94A92088E990E39F938F931F9261
:1054800080E48F938AE495E29F938F930E947C88B7
:105490008134910510F080E490E040E0682F8AE4C8
:1054A00095E20E94A92084E790E39F938F931F9237
:1054B00080E48F938AE495E29F938F930E947C8887
:1054C0008134910510F080E490E040E0682F8AE498
:1054D00095E20E94A9208BE590E39F938F931F9202
:1054E00080E48F938AE495E29F938F930E947C8857
:1054F0008134910510F080E490E040E0682F8AE468
:1055000095E20E94A92089E490E39F938F931F92D4
:1055100080E48F938AE495E29F938F930E947C8826
:105520008134910510F080E490E040E0682F8AE437
:1055300095E20E94A92087E290E39F938F931F92A8
:1055400080E48F938AE495E29F938F930E947C88F6
:105550002DB73EB72C5D3F4F2DBF3EBF8134910527
:1055600010F080E490E040E0682F8AE495E20E9429
:10557000A92089E190E39F938F931F9280E48F93FA
:105580008AE495E29F938F930E947C8881349105F1
:1055900010F080E490E040E0682F8AE495E20E94F9
:1055A000A92084EF9FE29F938F931F9280E48F93B3
:1055B0008AE495E29F938F930E947C8881349105C1
:1055C00010F080E490E040E0682F8AE495E20E94C9
:1055D000A92084ED9FE29F938F931F9280E48F9385
:1055E0008AE495E29F938F930E947C888134910591
:1055F00010F080E490E040E0682F8AE495E20E9499
:10560000A92087EB9FE29F938F931F9280E48F9353
:105610008AE495E29F938F930E947C888134910560
:1056200010F080E490E040E0682F8AE495E20E9468
:10563000A92088E99FE29F938F931F9280E48F9324
:105640008AE495E29F938F930E947C888134910530
:1056500010F080E490E040E0682F8AE495E20E9438
:10566000A92089E79FE29F938F931F9280E48F93F5
:105670008AE495E29F938F930E947C882DB73EB772
:105680002C5D3F4F2DBF3EBF8134910510F080E46B
:1056900090E040E0682F8AE495E20E94A9208AE623
:1056A0009FE29F938F931F9280E48F938AE495E209
:1056B0009F938F930E947C888134910510F080E441
:1056C00090E040E0682F8AE495E20E94A92089E5F5
:1056D0009FE29F938F931F9280E48F938AE495E2D9
:1056E0009F938F930E947C888134910510F080E411
:1056F00090E040E0682F8AE495E20E94A9208BE3C5
:105700009FE29F938F931F9280E48F938AE495E2A8
:105710009F938F930E947C888134910510F080E4E0
:1057200090E040E0682F8AE495E20E94A92082E29E
:105730009FE29F938F931F9280E48F938AE495E278
:105740009F938F930E947C888134910510F080E4B0
:1057500090E040E0682F8AE495E20E94A92083E06F
:105760009FE29F938F931F9280E48F938AE495E248
:105770009F938F930E947C888134910510F080E480
:1057800090E040E0682F8AE495E20E94A9208BEE29
:105790009EE29F938F931F9280E48F938AE495E219
:1057A0009F938F930E947C882DB73EB72C5D3F4F0F
:1057B0002DBF3EBF8134910510F080E490E040E0C1
:1057C000682F8AE495E20E94A92087EC9EE29F93CD
:1057D0008F931F9280E48F938AE495E29F938F9337
:1057E0000E947C888134910510F080E490E040E0D4
:1057F000682F8AE495E20E94A9208AEB9EE29F939B
:105800008F931F9280E48F938AE495E29F938F9306
:105810000E947C888134910510F080E490E040E0A3
:10582000682F8AE495E20E94A92087EB9EE29F936D
:105830008F931F9280E48F938AE495E29F938F93D6
:105840000E947C888134910510F080E490E040E073
:10585000682F8AE495E20E94A9208DB79EB74296F0
:105860008DBF9EBF8091BE21811121C081E08093B8
:10587000BE2182EB9EE29F938F931F9280E48F93D1
:105880008AE495E29F938F930E947C880F900F90FB
:105890000F900F900F900F908134910510F080E4DD
:1058A00090E040E0682F8AE495E20C94A9200895E6
:1058B000BF92CF92DF92EF92FF920F931F93CF93FD
:1058C000DF93CDB7DEB72C97CDBFDEBF6C018B0168
:1058D000892B09F497C2CB0101978E3F910508F0FF
:1058E00091C2AB016DE070E0C6010E94AD877C0102
:1058F000B090BF218B2D90E09801280F391F2F3FCA
:10590000310559F050F02FEF30E08901081B190BD9
:10591000EF2859F07601E00EF11EE114F10429F0B0
:1059200087010C191D090F5F02C0E12CF12C402FDB
:1059300050E0B60180549E4D0E94BA870B0D009333
:10594000BF21EF2809F45EC244E050E06DEA7EE238
:1059500080EC91E20E947A87892BE9F419821A82FD
:10596000CE0101967C0100E010E020E030E043E051
:1059700050E060E070E084EC91E20E94B264892B18
:1059800009F420C281E029813A81232B09F480E0C7
:105990000E944D6517C242E050E06AEA7EE280EC68
:1059A00091E20E946287892B51F042E050E067EA61
:1059B0007EE280EC91E20E946287892B31F4602FB5
:1059C00080EC91E20E94A91DFDC145E050E061EA32
:1059D0007EE280EC91E20E947A87892BC1F41982E1
:1059E0001A82CE0101967C0100E010E020E030E058
:1059F00043E050E060E070E085EC91E20E94B26428
:105A0000892B09F4DFC189810E949065DBC143E0E5
:105A100050E06DE97EE280EC91E20E947A87892B6A
:105A2000C9F419821A82CE0101967C0100E010E0CF
:105A300020E030E043E050E060E070E083EC91E291
:105A40000E94B264892B09F4BDC189819A810E94A8
:105A50007065B8C14CE050E06FE67EE280EC91E208
:105A60000E947A87892B21F480E00E949565AAC163
:105A70004AE050E062E97EE280EC91E20E947A879F
:105A8000892B21F481E00E9495659CC14AE050E099
:105A900067E87EE280EC91E20E947A87892B21F40C
:105AA00082E00E9495658EC14AE050E06CE77EE29C
:105AB00080EC91E20E947A87892B21F483E00E9496
:105AC000956580C148E050E066E67EE280EC91E2B8
:105AD0000E947A87892B21F484E00E94956572C127
