S011000046696E644D655341542E73726563F8
S2140000000C94EA1A0C940B1B0C940B1B0C940B1BF5
S2140000100C94EEC30C940B1B0C948F3A0C94C23ABF
S2140000200C94F53A0C94283B0C940B1B0C94C73E8E
S2140000300C940B1B0C944C970C94B88D0C94F58D6B
S2140000400C94328E0C946F8E0C94AC8E0C94E98EBD
S2140000500C94268F0C94638F0C94A08F0C94DD8FD9
S2140000600C940B1B0C940B1B0C940B1B0C940B1B73
S2140000700C940B1B0C940B1B0C940B1B0C940B1B63
S2140000800C940B1B0C940B1B0C940B1B0C940B1B53
S2140000900C940B1B0C940B1B0C940B1B0C943C88A5
S2140000A00C94AE880C9420890C9492890C940B1BAB
S2140000B00C940B1B0C940B1B0C947E970C947C924C
S2140000C00C94B9920C94F6920C9433930C9470930F
S2140000D00C94AD930C94EA930C9427940C9464942B
S2140000E00C94A1940C940B1B0C940B1B0C940B1BE4
S2140000F00C940B1B0C940B1B0C940B1B0C940B1BE3
S2140001000C940B1B0C940B1B0C940B1B0C940B1BD2
S2140001100C940B1B0C940B1B0C940B1B0C947486EE
S2140001200C94E6860C9458870C94CA870C940B1B88
S2140001300C940B1B0C941A900C9457900C9494905F
S2140001400C94D1900C940E910C944B910C94889135
S2140001500C94C5910C9402920C943F920C940B1B39
S2140001600C940B1B0C940B1B0C940B1B0C940B1B72
S2140001700C940B1B0C940B1B0C940B1B0C940B1B62
S2140001800C940B1B0C940B1B0C940B1B0C940B1B52
S2140001900C940B1B0C940B1B0C940B1B0C940B1B42
S2140001A00C940B1B0C940B1B0C940B1B0C940B1B32
S2140001B00C94DE940C941B950C9458950C94959581
S2140001C00C94D2950C940F960C940B1B0C940B1B52
S2140001D00C940B1B0C940B1B0C940B1B0C949E2268
S2140001E00C940B1B0C940B1B0C940B1B0C940B1BF2
S2140001F00C940B1B0C94FB9D0C949F9E2BA32EA380
S21400020031A334A337A33AA33DA347A868A889A877
S214000210AAA8CBA8ECA80DA905A84CCDB2D44EB977
S2140002203836A9020C50B9918688083CA6AAAA2A94
S214000230BE000000803F07634236B79BD8A71A3936
S214000240685618AEBAAB558C1D3CB7CC5763BD6D1F
S214000250EDFD753EF6177231BF000000803F0800C6
S2140002600000BE922449123EABAAAA2ABECDCCCC30
S2140002704C3E00000080BEABAAAAAA3E00000000CA
S214000280BF000000803F0000000000084178D3BB9C
S2140002904387D1133D190E3CC3BD4282AD2B3E6849
S2140002A0EC8276BED98FE1A93E4C80EFFFBE01C43A
S2140002B0FF7F3F00000000006E616E00696E660002
S2140002C000407A10F35A00A0724E18090010A5D408
S2140002D0E80000E87648170000E40B54020000CA65
S2140002E09A3B000000E1F5050000809698000000AB
S2140002F040420F000000A08601000000102700000A
S2140003000000E803000000006400000000000A008F
S214000310000000000100000000002C76D888DC6792
S2140003204F0823DFC1DFAE59E1B1B796E5E3E453EA
S214000330C63AE651997696E8E6C28426EB898C9B07
S21400034062ED407C6FFCEFBC9C9F40F2BAA56FA5A7
S214000350F490055A2AF75C936B6CF9676DC11BFC29
S214000360E0E40D47FEF520E6B500D0ED902E030044
S214000370943577050080841E080000204E0A000091
S21400038000C80C333333330F986E12831141EF8D50
S2140003902114893BE65516CFFEE6DB18D1844B3890
S2140003A01BF77C1D901DA4BBE424203284725E22C1
S2140003B08100C9F124ECA1E53D274E414E494E4946
S2140003C05459494E46CDCCCC3D0AD7233C17B7D11D
S2140003D03877CC2B329595E6241FB14F0A000020C3
S2140003E0410000C84200401C4620BCBE4CCA1B0E42
S2140003F05AAEC59D744F4B0053494D383038207364
S2140004006572313A20205374617274696E67207485
S214000410686520646576696365202E2E2E0D0A00B9
S21400042053494D38303820736572313A2020537462
S214000430617274696E6720746865206465766963A6
S21400044065202E2E2E0D0A0053494D383038207365
S2140004506572313A2020206261756420726174658D
S2140004602073796E6365640D0A00496E69743A20DC
S21400047053494D383038207374617274696E672042
S2140004802E2E2E00496E69743A2053494D38303866
S2140004902072657374617274696E67202E2E2E004A
S2140004A0496E69743A2053494D3830382073756365
S2140004B0636573730041542B4950523D256C640D9F
S2140004C00A0041542B434D45453D320D0A00415428
S2140004D02B4346554E3D310D0A004154490D0A0046
S2140004E041542B4753560D0A0041542B43474E5355
S2140004F05057523D25640D0A0041542B43474E5336
S214000500494E460D0A000D0A0D0A0D0A0025630D18
S2140005100A3D3D3D3D3D3D3D3D3D3D3D3D3D3D3D39
S2140005203D3D3D3D3D3D3D3D3D3D3D3D3D3D3D3DF6
S2140005300D0A0046696E644D65534154202D2055C2
S2140005405342206C6F6767696E67207374617274BC
S21400055065640D0A003D3D3D3D3D3D3D3D3D3D3D17
S2140005603D3D3D3D3D3D3D3D3D3D3D3D3D3D3D3DB6
S2140005703D3D3D3D0D0A0D0A0054696D65203D2048
S2140005802530366C643A205576636F3D25346420FA
S2140005906D562C205535763D253464206D562C201E
S2140005A0556261743D253464206D562C20005561DB
S2140005B06463343D253464206D562C205561646395
S2140005C0353D253464206D562C205573696C3D25C9
S2140005D03464206D562C20006D505F54656D703D60
S2140005E0252B30362E326643092009004261726F91
S2140005F05F54656D703D252B30362E3266432C20B9
S2140006004261726F5F503D25372E32666850610931
S214000610200900487967726F5F54656D703D252B21
S21400062030362E3266432C20487967726F5F5265EB
S2140006306C483D2530352E326625250D0A000941C9
S214000640783D252B30352E3366672028252B30360F
S21400065064292C2041793D252B30352E33666720C2
S21400066028252B303664292C2000417A3D252B3056
S214000670352E3366672028252B3036642909200955
S2140006800047783D252B30372E326664707320285D
S214000690252B303664292C2047793D252B30372EE4
S2140006A032666470732028252B303664292C20008F
S2140006B0477A3D252B30372E326664707320282506
S2140006C030366429092009004D783D252B30372E19
S2140006D0336675542028252B303664292C204D7916
S2140006E03D252B30372E336675542028252B303683
S2140006F064292C20004D7A3D252B30372E33667525
S214000700542028252B3036642909200900477972A1
S2140007106F5F54656D703D252B30362E3266432054
S21400072028252B303664290D0A0D0A00504C4C3A09
S2140007302074696D653D25386C642E2530336C64F5
S214000740202B20253033642F3330452B362073651D
S214000750632C2000317070735F646576696174691C
S2140007606F6E3D252B3130662C2000584F5F50575A
S2140007704D3D2530356C6464203A20307825303283
S214000780780D0A0D0A000080328064809680C98049
S214000790FB802D815F819281C481F68128825B82F5
S2140007A08D82BF82F182248356838883BA83ED8349
S2140007B01F8451848384B684E8841A854C857E859C
S2140007C0B185E385158647867A86AC86DE861087F1
S2140007D042877487A787D9870B883D886F88A1884A
S2140007E0D488068938896A899C89CE89008A328AA3
S2140007F0658A978AC98AFB8A2D8B5F8B918BC38B00
S214000800F58B278C598C8B8CBD8CEF8C218D538D62
S214000810858DB78DE98D1B8E4D8E7F8EB18EE38EC6
S214000820158F478F798FAB8FDC8F0E90409072902C
S214000830A490D690079139916B919D91CF9100929B
S214000840329264929692C792F9922B935D938E930E
S214000850C093F293239455948694B894EA941B9587
S2140008604D957E95B095E195139644967696A79607
S214000870D9960A973C976D979F97D097019833988B
S21400088064989598C798F89829995B998C99BD991A
S214000890EE99209A519A829AB39AE49A159B469BAF
S2140008A0789BA99BDA9B0B9C3C9C6D9C9E9CCF9C4A
S2140008B0009D319D629D939DC39DF49D259E569EF1
S2140008C0879EB89EE89E199F4A9F7B9FAB9FDC9FA2
S2140008D00DA03DA06EA09FA0CFA000A130A161A159
S2140008E091A1C2A1F2A123A253A284A2B4A2E4A21F
S2140008F015A345A375A3A6A3D6A306A436A467A4EA
S21400090097A4C7A4F7A427A557A587A5B7A5E7A5C5
S21400091017A647A677A6A7A6D7A607A737A767A7A7
S21400092097A7C6A7F6A726A856A885A8B5A8E5A897
S21400093014A944A973A9A3A9D2A902AA31AA61AA93
S21400094090AAC0AAEFAA1EAB4EAB7DABACABDBAB9E
S2140009500BAC3AAC69AC98ACC7ACF6AC25AD54ADB4
S21400096083ADB2ADE1AD10AE3FAE6EAE9DAECCAED9
S214000970FAAE29AF58AF86AFB5AFE4AF12B041B00C
S2140009806FB09EB0CCB0FBB029B158B186B1B4B14F
S214000990E3B111B23FB26DB29CB2CAB2F8B226B39E
S2140009A054B382B3B0B3DEB30CB43AB468B496B4FE
S2140009B0C3B4F1B41FB54DB57AB5A8B5D6B503B670
S2140009C031B65EB68CB6B9B6E7B614B741B76FB7F0
S2140009D09CB7C9B7F6B724B851B87EB8ABB8D8B884
S2140009E005B932B95FB98CB9B9B9E6B912BA3FBA26
S2140009F06CBA99BAC5BAF2BA1FBB4BBB78BBA4BBDC
S214000A00D1BBFDBB29BC56BC82BCAEBCDBBC07BDA3
S214000A1033BD5FBD8BBDB7BDE3BD0FBE3BBE67BE7E
S214000A2093BEBFBEEBBE16BF42BF6EBF99BFC5BF6B
S214000A30F0BF1CC047C073C09EC0CAC0F5C020C16E
S214000A404CC177C1A2C1CDC1F8C123C24EC279C282
S214000A50A4C2CFC2FAC225C350C37AC3A5C3D0C3AB
S214000A60FAC325C44FC47AC4A4C4CFC4F9C423C5EA
S214000A704EC578C5A2C5CCC5F6C520C64AC674C63E
S214000A809EC6C8C6F2C61CC746C76FC799C7C3C7A7
S214000A90ECC716C83FC869C892C8BCC8E5C80EC926
S214000AA038C961C98AC9B3C9DCC905CA2ECA57CABA
S214000AB080CAA9CAD2CAFACA23CB4CCB74CB9DCB68
S214000AC0C5CBEECB16CC3FCC67CC8FCCB8CCE0CC2D
S214000AD008CD30CD58CD80CDA8CDD0CDF8CD20CE08
S214000AE048CE6FCE97CEBFCEE6CE0ECF35CF5DCFFB
S214000AF084CFACCFD3CFFACF21D049D070D097D007
S214000B00BED0E5D00CD133D159D180D1A7D1CED12A
S214000B10F4D11BD241D268D28ED2B5D2DBD201D369
S214000B2028D34ED374D39AD3C0D3E6D30CD432D4BE
S214000B3058D47DD4A3D4C9D4EFD414D53AD55FD530
S214000B4085D5AAD5CFD5F4D51AD63FD664D689D6BC
S214000B50AED6D3D6F8D61DD742D766D78BD7B0D762
S214000B60D4D7F9D71DD842D866D88AD8AFD8D3D824
S214000B70F7D81BD93FD963D987D9ABD9CFD9F3D901
S214000B8016DA3ADA5EDA81DAA5DAC8DAECDA0FDBF8
S214000B9032DB56DB79DB9CDBBFDBE2DB05DC28DC0B
S214000BA04BDC6DDC90DCB3DCD6DCF8DC1BDD3DDD3D
S214000BB05FDD82DDA4DDC6DDE9DD0BDE2DDE4FDE8A
S214000BC071DE93DEB4DED6DEF8DE1ADF3BDF5DDFF5
S214000BD07EDFA0DFC1DFE2DF04E025E046E067E07D
S214000BE088E0A9E0CAE0EBE00CE12DE14DE16EE122
S214000BF08EE1AFE1CFE1F0E110E230E251E271E2E6
S214000C0091E2B1E2D1E2F1E211E330E350E370E3C6
S214000C108FE3AFE3CEE3EEE30DE42DE44CE46BE4C8
S214000C208AE4A9E4C8E4E7E406E525E544E562E5E8
S214000C3081E5A0E5BEE5DDE5FBE519E638E656E626
S214000C4074E692E6B0E6CEE6ECE60AE728E745E785
S214000C5063E781E79EE7BCE7D9E7F7E714E831E802
S214000C604EE86BE888E8A5E8C2E8DFE8FCE819E9A2
S214000C7035E952E96EE98BE9A7E9C4E9E0E9FCE960
S214000C8018EA34EA50EA6CEA88EAA4EAC0EADBEA40
S214000C90F7EA13EB2EEB4AEB65EB80EB9CEBB7EB3E
S214000CA0D2EBEDEB08EC23EC3EEC58EC73EC8EEC60
S214000CB0A8ECC3ECDDECF8EC12ED2CED47ED61EDA5
S214000CC07BED95EDAFEDC9EDE3EDFCED16EE30EE08
S214000CD049EE63EE7CEE95EEAFEEC8EEE1EEFAEE90
S214000CE013EF2CEF45EF5EEF76EF8FEFA8EFC0EF38
S214000CF0D9EFF1EF09F022F03AF052F06AF082F004
S214000D009AF0B2F0CAF0E1F0F9F011F128F140F1F2
S214000D1057F16EF186F19DF1B4F1CBF1E2F1F9F104
S214000D2010F226F23DF254F26AF281F297F2AEF237
S214000D30C4F2DAF2F0F206F31CF332F348F35EF391
S214000D4074F389F39FF3B5F3CAF3DFF3F5F30AF40C
S214000D501FF434F449F45EF473F488F49DF4B1F4AB
S214000D60C6F4DBF4EFF403F518F52CF540F554F56E
S214000D7068F57CF590F5A4F5B8F5CCF5DFF5F3F558
S214000D8006F61AF62DF640F653F667F67AF68DF660
S214000D90A0F6B2F6C5F6D8F6EAF6FDF610F722F794
S214000DA034F747F759F76BF77DF78FF7A1F7B3F7E7
S214000DB0C4F7D6F7E8F7F9F70BF81CF82EF83FF863
S214000DC050F861F872F883F894F8A5F8B6F8C6F803
S214000DD0D7F8E7F8F8F808F919F929F939F949F9C7
S214000DE059F969F979F989F998F9A8F9B8F9C7F9B3
S214000DF0D7F9E6F9F5F904FA14FA23FA32FA41FAC1
S214000E004FFA5EFA6DFA7CFA8AFA99FAA7FAB5FAF8
S214000E10C4FAD2FAE0FAEEFAFCFA0AFB18FB25FB53
S214000E2033FB41FB4EFB5CFB69FB76FB83FB91FBD4
S214000E309EFBABFBB8FBC4FBD1FBDEFBEBFBF7FB7F
S214000E4004FC10FC1CFC29FC35FC41FC4DFC59FC48
S214000E5065FC70FC7CFC88FC93FC9FFCAAFCB6FC42
S214000E60C1FCCCFCD7FCE2FCEDFCF8FC03FD0EFD5F
S214000E7018FD23FD2EFD38FD42FD4DFD57FD61FD9D
S214000E806BFD75FD7FFD89FD93FD9CFDA6FDB0FD08
S214000E90B9FDC2FDCCFDD5FDDEFDE7FDF0FDF9FD9B
S214000EA002FE0BFE13FE1CFE25FE2DFE36FE3EFE4B
S214000EB046FE4EFE56FE5EFE66FE6EFE76FE7EFE2D
S214000EC085FE8DFE94FE9CFEA3FEAAFEB2FEB9FE33
S214000ED0C0FEC7FECEFED4FEDBFEE2FEE8FEEFFE60
S214000EE0F5FEFCFE02FF08FF0EFF14FF1AFF20FFB0
S214000EF026FF2CFF31FF37FF3CFF42FF47FF4CFF2A
S214000F0052FF57FF5CFF61FF66FF6AFF6FFF74FFCB
S214000F1078FF7DFF81FF86FF8AFF8EFF92FF96FF98
S214000F209AFF9EFFA2FFA6FFA9FFADFFB0FFB4FF8A
S214000F30B7FFBBFFBEFFC1FFC4FFC7FFCAFFCDFFA1
S214000F40CFFFD2FFD5FFD7FFD9FFDCFFDEFFE0FFE4
S214000F50E2FFE4FFE6FFE8FFEAFFECFFEEFFEFFF4D
S214000F60F1FFF2FFF3FFF5FFF6FFF7FFF8FFF9FFDB
S214000F70FAFFFBFFFBFFFCFFFDFFFDFFFEFFFEFF92
S214000F80FEFFFEFFFEFFFFFFFEFFFEFFFEFFFEFF73
S214000F90FEFFFDFFFDFFFCFFFBFFFBFFFAFFF9FF77
S214000FA0F8FFF7FFF6FFF5FFF3FFF2FFF1FFEFFFA5
S214000FB0EEFFECFFEAFFE8FFE6FFE4FFE2FFE0FFFC
S214000FC0DEFFDCFFD9FFD7FFD5FFD2FFCFFFCDFF77
S214000FD0CAFFC7FFC4FFC1FFBEFFBBFFB7FFB4FF1A
S214000FE0B0FFADFFA9FFA6FFA2FF9EFF9AFF96FFE8
S214000FF092FF8EFF8AFF86FF81FF7DFF78FF74FFDA
S2140010006FFF6AFF66FF61FF5CFF57FF52FF4CFFF2
S21400101047FF42FF3CFF37FF31FF2CFF26FF20FF34
S2140010201AFF14FF0EFF08FF02FFFCFEF5FEEFFEA0
S214001030E8FEE2FEDBFED4FECEFEC7FEC0FEB9FE34
S214001040B2FEAAFEA3FE9CFE94FE8DFE85FE7EFEEC
S21400105076FE6EFE66FE5EFE56FE4EFE46FE3EFECB
S21400106036FE2DFE25FE1CFE13FE0BFE02FEF9FDCF
S214001070F0FDE7FDDEFDD5FDCCFDC2FDB9FDB0FD02
S214001080A6FD9CFD93FD89FD7FFD75FD6BFD61FD55
S21400109057FD4DFD42FD38FD2EFD23FD18FD0EFDCE
S2140010A003FDF8FCEDFCE2FCD7FCCCFCC1FCB6FC76
S2140010B0AAFC9FFC93FC88FC7CFC70FC65FC59FC3D
S2140010C04DFC41FC35FC29FC1CFC10FC04FCF7FB29
S2140010D0EBFBDEFBD1FBC4FBB8FBABFB9EFB91FB43
S2140010E083FB76FB69FB5CFB4EFB41FB33FB25FB7E
S2140010F018FB0AFBFCFAEEFAE0FAD2FAC4FAB5FAE2
S214001100A7FA99FA8AFA7CFA6DFA5EFA4FFA41FA69
S21400111032FA23FA14FA04FAF5F9E6F9D7F9C7F918
S214001120B8F9A8F998F989F979F969F959F949F9ED
S21400113039F929F919F908F9F8F8E7F8D7F8C6F8E7
S214001140B6F8A5F894F883F872F861F850F83FF806
S2140011502EF81CF80BF8F9F7E8F7D6F7C4F7B3F74C
S214001160A1F78FF77DF76BF759F747F734F722F7B4
S21400117010F7FDF6EAF6D8F6C5F6B2F6A0F68DF646
S2140011807AF667F653F640F62DF61AF606F6F3F5F7
S214001190DFF5CCF5B8F5A4F590F57CF568F554F5D3
S2140011A040F52CF518F503F5EFF4DBF4C6F4B1F4CE
S2140011B09DF488F473F45EF449F434F41FF40AF4EE
S2140011C0F5F3DFF3CAF3B5F39FF389F374F35EF335
S2140011D048F332F31CF306F3F0F2DAF2C4F2AEF29E
S2140011E097F281F26AF254F23DF226F210F2F9F129
S2140011F0E2F1CBF1B4F19DF186F16EF157F140F1D9
S21400120028F111F1F9F0E1F0CAF0B2F09AF082F0AC
S2140012106AF052F03AF022F009F0F1EFD9EFC0EFA1
S214001220A8EF8FEF76EF5EEF45EF2CEF13EFFAEEB9
S214001230E1EEC8EEAFEE95EE7CEE63EE49EE30EEF4
S21400124016EEFCEDE3EDC9EDAFED95ED7BED61ED52
S21400125047ED2CED12EDF8ECDDECC3ECA8EC8EECD3
S21400126073EC58EC3EEC23EC08ECEDEBD2EBB7EB72
S2140012709CEB80EB65EB4AEB2EEB13EBF7EADBEA35
S214001280C0EAA4EA88EA6CEA50EA34EA18EAFCE91A
S214001290E0E9C4E9A7E98BE96EE952E935E919E91D
S2140012A0FCE8DFE8C2E8A5E888E86BE84EE831E845
S2140012B014E8F7E7D9E7BCE79EE781E763E745E789
S2140012C028E70AE7ECE6CEE6B0E692E674E656E6EF
S2140012D038E619E6FBE5DDE5BEE5A0E581E562E575
S2140012E044E525E506E5E7E4C8E4A9E48AE46BE41A
S2140012F04CE42DE40DE4EEE3CEE3AFE38FE370E3DE
S21400130050E330E311E3F1E2D1E2B1E291E271E2BF
S21400131051E230E210E2F0E1CFE1AFE18EE16EE1C2
S2140013204DE12DE10CE1EBE0CAE0A9E088E067E0E2
S21400133046E025E004E0E2DFC1DFA0DF7EDF5DDF20
S2140013403BDF1ADFF8DED6DEB4DE93DE71DE4FDE7C
S2140013502DDE0BDEE9DDC6DDA4DD82DD5FDD3DDDF5
S2140013601BDDF8DCD6DCB3DC90DC6DDC4BDC28DC8B
S21400137005DCE2DBBFDB9CDB79DB56DB32DB0FDB3D
S214001380ECDAC8DAA5DA81DA5EDA3ADA16DAF3D90E
S214001390CFD9ABD987D963D93FD91BD9F7D8D3D8FA
S2140013A0AFD88AD866D842D81DD8F9D7D4D7B0D700
S2140013B08BD766D742D71DD7F8D6D3D6AED689D622
S2140013C064D63FD61AD6F4D5CFD5AAD585D55FD55F
S2140013D03AD514D5EFD4C9D4A3D47DD458D432D4B6
S2140013E00CD4E6D3C0D39AD374D34ED328D301D328
S2140013F0DBD2B5D28ED268D241D21BD2F4D1CED1B6
S214001400A7D180D159D133D10CD1E5D0BED097D059
S21400141070D049D021D0FACFD3CFACCF84CF5DCF18
S21400142035CF0ECFE6CEBFCE97CE6FCE48CE20CEEF
S214001430F8CDD0CDA8CD80CD58CD30CD08CDE0CCE0
S214001440B8CC8FCC67CC3FCC16CCEECBC5CB9DCBE7
S21400145074CB4CCB23CBFACAD2CAA9CA80CA57CA05
S2140014602ECA05CADCC9B3C98AC961C938C90EC93A
S214001470E5C8BCC892C869C83FC816C8ECC7C3C789
S21400148099C76FC746C71CC7F2C6C8C69EC674C6ED
S2140014904AC620C6F6C5CCC5A2C578C54EC523C566
S2140014A0F9C4CFC4A4C47AC44FC425C4FAC3D0C3F5
S2140014B0A5C37AC350C325C3FAC2CFC2A4C279C299
S2140014C04EC223C2F8C1CDC1A2C177C14CC120C152
S2140014D0F5C0CAC09EC073C047C01CC0F0BFC5BF21
S2140014E099BF6EBF42BF16BFEBBEBFBE93BE67BE00
S2140014F03BBE0FBEE3BDB7BD8BBD5FBD33BD07BDF5
S214001500DBBCAEBC82BC56BC29BCFDBBD1BBA4BBFD
S21400151078BB4BBB1FBBF2BAC5BA99BA6CBA3FBA16
S21400152012BAE6B9B9B98CB95FB932B905B9D8B843
S214001530ABB87EB851B824B8F6B7C9B79CB76FB782
S21400154041B714B7E7B6B9B68CB65EB631B603B6D1
S214001550D6B5A8B57AB54DB51FB5F1B4C3B496B433
S21400156068B43AB40CB4DEB3B0B382B354B326B3A3
S214001570F8B2CAB29CB26DB23FB211B2E3B1B4B126
S21400158086B158B129B1FBB0CCB09EB06FB041B0B7
S21400159012B0E4AFB5AF86AF58AF29AFFAAECCAE57
S2140015A09DAE6EAE3FAE10AEE1ADB2AD83AD54AD06
S2140015B025ADF6ACC7AC98AC69AC3AAC0BACDBABC3
S2140015C0ACAB7DAB4EAB1EABEFAAC0AA90AA61AA8D
S2140015D031AA02AAD2A9A3A973A944A914A9E5A865
S2140015E0B5A885A856A826A8F6A7C6A797A767A74A
S2140015F037A707A7D7A6A7A677A647A617A6E7A53D
S214001600B7A587A557A527A5F7A4C7A497A467A439
S21400161036A406A4D6A3A6A375A345A315A3E4A241
S214001620B4A284A253A223A2F2A1C2A191A161A155
S21400163030A100A1CFA09FA06EA03DA00DA0DC9F72
S214001640AB9F7B9F4A9F199FE89EB89E879E569E9B
S214001650259EF49DC39D939D629D319D009DCF9CCC
S2140016609E9C6D9C3C9C0B9CDA9BA99B789B469B06
S214001670159BE49AB39A829A519A209AEE99BD994C
S2140016808C995B992999F898C79895986498339897
S2140016900198D0979F976D973C970A97D996A796EB
S2140016A0769644961396E195B0957E954D951B9546
S2140016B0EA94B894869455942394F293C0938E93A8
S2140016C05D932B93F992C79296926492329200920F
S2140016D0CF919D916B9139910791D690A49072907D
S2140016E040900E90DC8FAB8F798F478F158FE38EEF
S2140016F0B18E7F8E4D8E1B8EE98DB78D858D538D69
S214001700218DEF8CBD8C8B8C598C278CF58BC38BE5
S214001710918B5F8B2D8BFB8AC98A978A658A328A62
S214001720008ACE899C896A8938890689D488A188E6
S2140017306F883D880B88D987A7877487428710876C
S214001740DE86AC867A8647861586E385B1857E85F5
S2140017504C851A85E884B684838451841F84ED837F
S214001760BA83888356832483F182BF828D825B820C
S2140017702882F681C48192815F812D81FB80C98099
S2140017809680648032800080CD7F9B7F697F367F25
S214001790047FD27EA07E6D7E3B7E097ED77DA47DB3
S2140017A0727D407D0E7DDB7CA97C777C457C127C3F
S2140017B0E07BAE7B7C7B497B177BE57AB37A817ACC
S2140017C04E7A1C7AEA79B879857953792179EF7857
S2140017D0BD788B7858782678F477C27790775E77DE
S2140017E02B77F976C776957663763176FF75CD7565
S2140017F09A75687536750475D274A0746E743C74E8
S2140018000A74D873A673747342731073DE72AC7264
S2140018107A7248721672E471B27180714E711C71E0
S214001820EA70B870867054702370F16FBF6F8D6F5A
S2140018305B6F296FF86EC66E946E626E306EFF6DCB
S214001840CD6D9B6D696D386D066DD46CA26C716C38
S2140018503F6C0D6CDC6BAA6B796B476B156BE46A9F
S214001860B26A816A4F6A1E6AEC69BB6989695869FF
S2140018702669F568C368926860682F68FE67CC675B
S2140018809B676A6738670767D666A46673664266AC
S2140018901166DF65AE657D654C651B65EA64B964F7
S2140018A0876456642564F463C3639263616330633C
S2140018B0FF62CE629D626C623C620B62DA61A96175
S2140018C0786147611761E660B560846054602360A4
S2140018D0F25FC25F915F605F305FFF5ECF5E9E5ECD
S2140018E06E5E3D5E0D5EDC5DAC5D7B5D4B5D1B5DE7
S2140018F0EA5CBA5C8A5C595C295CF95BC95B985BFC
S214001900685B385B085BD85AA85A785A485A185AFF
S214001910E859B859885958592859F858C8589858FD
S214001920685839580958D957A9577A574A571A57ED
S214001930EB56BB568C565C562D56FD55CE559E55D1
S2140019406F553F551055E154B154825453542454A6
S214001950F453C5539653675338530953DA52AB5270
S2140019607C524D521E52EF51C0519151625133512B
S2140019700551D650A75079504A501B50ED4FBE4FD8
S214001980904F614F334F044FD64EA74E794E4B4E75
S2140019901C4EEE4DC04D924D634D354D074DD94C06
S2140019A0AB4C7D4C4F4C214CF34BC54B974B694B86
S2140019B03C4B0E4BE04AB24A854A574A294AFC49F4
S2140019C0CE49A149734946491849EB48BE48904854
S2140019D0634836480948DB47AE47814754472747A0
S2140019E0FA46CD46A046734646461946ED45C045DE
S2140019F0934566453A450D45E044B44487445B4408
S214001A002E440244D643A9437D4351432443F8421F
S214001A10CC42A042744248421C42F041C441984124
S214001A206C4140411441E940BD40914066403A4017
S214001A300F40E33FB83F8C3F613F353F0A3FDF3EF4
S214001A40B33E883E5D3E323E073EDC3DB13D863DC0
S214001A505B3D303D053DDA3CAF3C853C5A3C2F3C77
S214001A60053CDA3BB03B853B5B3B303B063BDC3A18
S214001A70B13A873A5D3A333A093ADF39B5398B39A4
S214001A80613937390D39E338B938903866383C381B
S214001A901338E937C03796376D3743371A37F1367C
S214001AA0C7369E3675364C362336FA35D135A835C8
S214001AB07F3556352D350535DC34B3348B346234FA
S214001AC03A341134E933C0339833703347331F3315
S214001AD0F732CF32A7327F3257322F320732DF311A
S214001AE0B7319031683140311931F130CA30A23007
S214001AF07B3053302C300530DE2FB62F8F2F682FDB
S214001B00412F1A2FF32ECC2EA62E7F2E582E312E96
S214001B100B2EE42DBE2D972D712D4A2D242DFE2C37
S214001B20D72CB12C8B2C652C3F2C192CF32BCD2BC2
S214001B30A72B822B5C2B362B102BEB2AC52AA02A30
S214001B407A2A552A302A0B2AE529C0299B29762984
S214001B5051292C290729E228BD28992874284F28BE
S214001B602B280628E227BD279927752750272C27DC
S214001B700827E426C0269C267826542630260C26DF
S214001B80E925C525A1257E255A2537251325F024C8
S214001B90CD24A9248624632440241D24FA23D72395
S214001BA0B42392236F234C2329230723E422C22243
S214001BB0A0227D225B2239221622F421D221B021D6
S214001BC08E216C214B2129210721E520C420A2204B
S214001BD081205F203E201D20FB1FDA1FB91F981FA3
S214001BE0771F561F351F141FF31ED21EB21E911EDE
S214001BF0711E501E301E0F1EEF1DCF1DAE1D8E1DFA
S214001C006E1D4E1D2E1D0E1DEE1CCF1CAF1C8F1CF8
S214001C10701C501C311C111CF21BD21BB31B941BD6
S214001C20751B561B371B181BF91ADA1ABB1A9D1A96
S214001C307E1A5F1A411A221A041AE619C719A91938
S214001C408B196D194F1931191319F518D718BA18B9
S214001C509C187E186118431826180818EB17CE171C
S214001C60B117941777175A173D1720170317E6165C
S214001C70CA16AD169116741658163B161F1603167E
S214001C80E715CB15AF15931577155B153F1524157E
S214001C900815EC14D114B5149A147F146314481460
S214001CA02D141214F713DC13C113A7138C1371131E
S214001CB057133C1322130713ED12D312B8129E12B9
S214001CC084126A12501236121C120312E911CF1136
S214001CD0B6119C1183116A11501137111E1105118E
S214001CE0EC10D310BA10A1108910701057103F10C6
S214001CF026100E10F60FDD0FC50FAD0F950F7D0FDA
S214001D00650F4D0F350F1E0F060FEE0ED70EBF0ECA
S214001D10A80E910E790E620E4B0E340E1D0E060E98
S214001D20EF0DD90DC20DAB0D950D7E0D680D510D45
S214001D303B0D250D0F0DF90CE30CCD0CB70CA10CCB
S214001D408B0C760C600C4A0C350C200C0A0CF50B30
S214001D50E00BCB0BB60BA10B8C0B770B620B4E0B71
S214001D60390B240B100BFC0AE70AD30ABF0AAB0A8E
S214001D70970A830A6F0A5B0A470A330A200A0C0A84
S214001D80F909E509D209BF09AC099809850972095C
S214001D905F094D093A09270915090209EF08DD0808
S214001DA0CB08B808A6089408820870085E084C0895
S214001DB03B08290817080608F407E307D107C007F9
S214001DC0AF079E078D077C076B075A074907390739
S214001DD0280718070707F706E606D606C606B60655
S214001DE0A606960686067606670657064706380649
S214001DF0280619060A06FB05EB05DC05CD05BE051B
S214001E00B005A105920583057505660558054A05C2
S214001E103B052D051F0511050305F504E704DA0447
S214001E20CC04BE04B104A304960489047C046E04A6
S214001E306104540447043B042E04210414040804DB
S214001E40FB03EF03E303D603CA03BE03B203A603F2
S214001E509A038F03830377036C03600355034903D8
S214001E603E03330328031D0312030703FC02F1029B
S214001E70E702DC02D102C702BD02B202A8029E023D
S214001E8094028A02800276026C02630259024F02B2
S214001E9046023D0233022A02210218020F020602FF
S214001EA0FD01F401EC01E301DA01D201C901C1012F
S214001EB0B901B101A901A10199019101890181012D
S214001EC07A0172016B0163015C0155014D01460107
S214001ED03F01380131012B0124011D0117011001BA
S214001EE00A010301FD00F700F100EB00E500DF004A
S214001EF0D900D300CE00C800C300BD00B800B300B0
S214001F00AD00A800A3009E009900950090008B00ED
S214001F10870082007E007900750071006D00690000
S214001F20650061005D005900560052004F004B00EE
S214001F304800440041003E003B00380035003200B7
S214001F4030002D002A0028002600230021001F0054
S214001F501D001B00190017001500130011001000CB
S214001F600E000D000C000A0009000800070006001D
S214001F700500040004000300020002000100010046
S214001F800100010001000100010001000100010044
S214001F900100020002000300040004000500060021
S214001FA00700080009000A000C000D000E001000D3
S214001FB0110013001500170019001B001D001F005C
S214001FC021002300260028002A002D0030003200C1
S214001FD0350038003B003E004100440048004B00FE
S214001FE04F005200560059005D0061006500690010
S214001FF06D007100750079007E00820087008B00FE
S2140020009000950099009E00A300A800AD00B300C4
S214002010B800BD00C300C800CE00D300D900DF0062
S214002020E500EB00F100F700FD0003010A011001D6
S21400203017011D0124012B01310138013F01460122
S2140020404D0155015C0163016B0172017A0181014A
S214002050890191019901A101A901B101B901C1014B
S214002060C901D201DA01E301EC01F401FD01060227
S2140020700F02180221022A0233023D0246024F02D4
S214002080590263026C02760280028A0294029E0261
S214002090A802B202BD02C702D102DC02E702F102C8
S2140020A0FC02070312031D03280333033E03490300
S2140020B0550360036C03770383038F039A03A60319
S2140020C0B203BE03CA03D603E303EF03FB0308040D
S2140020D0140421042E043B044704540461046E04D3
S2140020E07C0489049604A304B104BE04CC04DA0478
S2140020F0E704F504030511051F052D053B054A05F4
S21400210058056605750583059205A105B005BE054B
S214002110CD05DC05EB05FB050A061906280638067C
S214002120470657066706760686069606A606B60687
S214002130C606D606E606F70607071807280739076D
S21400214049075A076B077C078D079E07AF07C0072E
S214002150D107E307F4070608170829083B084C08C8
S2140021605E08700882089408A608B808CB08DD0840
S214002170EF080209150927093A094D095F0972098E
S21400218085099809AC09BF09D209E509F9090C0ABD
S214002190200A330A470A5B0A6F0A830A970AAB0AC1
S2140021A0BF0AD30AE70AFC0A100B240B390B4E0BA6
S2140021B0620B770B8C0BA10BB60BCB0BE00BF50B66
S2140021C00A0C200C350C4A0C600C760C8B0CA10CFF
S2140021D0B70CCD0CE30CF90C0F0D250D3B0D510D76
S2140021E0680D7E0D950DAB0DC20DD90DEF0D060ECB
S2140021F01D0E340E4B0E620E790E910EA80EBF0EFB
S214002200D70EEE0E060F1E0F350F4D0F650F7D0F06
S214002210950FAD0FC50FDD0FF60F0E1026103F10F1
S214002220571070108910A110BA10D310EC100511B9
S2140022301E11371150116A1183119C11B611CF115E
S214002240E91103121C12361250126A1284129E12E0
S214002250B812D312ED12071322133C13571371133F
S2140022608C13A713C113DC13F71312142D14481480
S21400227063147F149A14B514D114EC14081524159D
S2140022803F155B1577159315AF15CB15E715031698
S2140022901F163B16581674169116AD16CA16E61675
S2140022A0031720173D175A1777179417B117CE172D
S2140022B0EB1708182618431861187E189C18BA18C9
S2140022C0D718F518131931194F196D198B19A91943
S2140022D0C719E619041A221A411A5F1A7E1A9D1A9D
S2140022E0BB1ADA1AF91A181B371B561B751B941BD8
S2140022F0B31BD21BF21B111C311C501C701C8F1CF4
S214002300AF1CCF1CEE1C0E1D2E1D4E1D6E1D8E1DF1
S214002310AE1DCF1DEF1D0F1E301E501E711E911ECE
S214002320B21ED21EF31E141F351F561F771F981F8E
S214002330B91FDA1FFB1F1D203E205F208120A22030
S214002340C420E520072129214B216C218E21B021B4
S214002350D221F421162239225B227D22A022C2221B
S214002360E422072329234C236F239223B423D72365
S214002370FA231D24402463248624A924CD24F02493
S214002380132537255A257E25A125C525E9250C26A2
S2140023903026542678269C26C026E42608272C2796
S2140023A0502775279927BD27E22706282B284F2870
S2140023B074289928BD28E22807292C29512976292E
S2140023C09B29C029E5290B2A302A552A7A2AA02AD1
S2140023D0C52AEB2A102B362B5C2B822BA72BCD2B5A
S2140023E0F32B192C3F2C652C8B2CB12CD72CFE2CC8
S2140023F0242D4A2D712D972DBE2DE42D0B2E312E1A
S214002400582E7F2EA62ECC2EF32E1A2F412F682F55
S2140024108F2FB62FDE2F05302C3053307B30A23076
S214002420CA30F1301931403168319031B731DF317F
S21400243007322F3257327F32A732CF32F7321F336E
S214002440473370339833C033E93311343A34623447
S2140024508B34B334DC3405352D3556357F35A83509
S214002460D135FA3523364C3675369E36C736F136B4
S2140024701A3743376D379637C037E93713383C3845
S21400248066389038B938E3380D39373961398B39C1
S214002490B539DF39093A333A5D3A873AB13ADC3A28
S2140024A0063B303B5B3B853BB03BDA3B053C2F3C79
S2140024B05A3C853CAF3CDA3C053D303D5B3D863DB5
S2140024C0B13DDC3D073E323E5D3E883EB33EDF3EDC
S2140024D00A3F353F613F8C3FB83FE33F0F403A40ED
S2140024E066409140BD40E940144140416C419841EE
S2140024F0C441F0411C4248427442A042CC42F842D9
S214002500244351437D43A943D64302442E445B44AF
S2140025108744B444E0440D453A4566459345C04576
S214002520ED45194646467346A046CD46FA46274729
S21400253054478147AE47DB470948364863489048CA
S214002540BE48EB48184946497349A149CE49FC495B
S214002550294A574A854AB24AE04A0E4B3C4B694BD9
S214002560974BC54BF34B214C4F4C7D4CAB4CD94C49
S214002570074D354D634D924DC04DEE4D1C4E4B4EA6
S214002580794EA74ED64E044F334F614F904FBE4FF5
S214002590ED4F1B504A507950A750D6500551335135
S2140025A062519151C051EF511E524D527C52AB5266
S2140025B0DA520953385367539653C553F453245489
S2140025C053548254B154E15410553F556F559E559F
S2140025D0CE55FD552D565C568C56BB56EB561A57A7
S2140025E04A577A57A957D9570958395868589858A2
S2140025F0C858F858285958598859B859E859185A8F
S214002600485A785AA85AD85A085B385B685B985B71
S214002610C95BF95B295C595C8A5CBA5CEA5C1B5D49
S2140026204B5D7B5DAC5DDC5D0D5E3D5E6E5E9E5E15
S214002630CF5EFF5E305F605F915FC25FF25F2360D8
S21400264054608460B560E660176147617861A9618F
S214002650DA610B623C626C629D62CE62FF6230633E
S21400266061639263C363F463256456648764B964E4
S214002670EA641B654C657D65AE65DF65116642667E
S2140026807366A466D666076738676A679B67CC6713
S214002690FE672F6860689268C368F568266958699F
S2140026A08969BB69EC691E6A4F6A816AB26AE46A24
S2140026B0156B476B796BAA6BDC6B0D6C3F6C716CA2
S2140026C0A26CD46C066D386D696D9B6DCD6DFF6D1B
S2140026D0306E626E946EC66EF86E296F5B6F8D6F8D
S2140026E0BF6FF16F237054708670B870EA701C71FB
S2140026F04E718071B271E471167248727A72AC7261
S214002700DE72107342737473A673D8730A743C74C3
S2140027106E74A074D2740475367568759A75CD7526
S214002720FF75317663769576C776F9762B775E7782
S2140027309077C277F477267858788B78BD78EF78DC
S214002740217953798579B879EA791C7A4E7A817A33
S214002750B37AE57A177B497B7C7BAE7BE07B127C89
S214002760457C777CA97CDB7C0E7D407D727DA47DDC
S214002770D77D097E3B7E6D7EA07ED27E047F367F2F
S214002780697F9B7FCD7F00FDF9F6F3F0ECE9E6E389
S214002790DFDCD9D6D2CF00FDFAF6F3F0EDEAE6E3B9
S2140027A0E0DDDAD7D3D000FDFAF7F3F0EDEAE7E4A0
S2140027B0E1DEDAD7D4D100FDFAF7F4F1EEEBE7E488
S2140027C0E1DEDBD8D5D200FDFAF7F4F1EEEBE8E572
S2140027D0E2DFDCD9D6D300FDFAF7F4F1EEEBE8E65B
S2140027E0E3E0DDDAD7D400FDFAF7F4F2EFECE9E641
S2140027F0E3E0DDDBD8D500FDFAF8F5F2EFECE9E72B
S214002800E4E1DEDBD9D600FDFAF8F5F2EFEDEAE713
S214002810E4E2DFDCD9D700FDFBF8F5F3F0EDEAE8FB
S214002820E5E2E0DDDAD800FDFBF8F5F3F0EEEBE8E4
S214002830E6E3E0DEDBD900FDFBF8F6F3F1EEEBE9CC
S214002840E6E4E1DFDCDA00FDFBF8F6F3F1EEECE9B6
S214002850E7E4E2DFDDDA00FEFBF9F6F4F1EFECEA9E
S214002860E8E5E3E0DEDB00FEFBF9F6F4F2EFEDEB85
S214002870E8E6E3E1DFDC00FEFBF9F7F4F2F0EDEB6F
S214002880E9E7E4E2E0DD00FEFBF9F7F5F2F0EEEC56
S214002890E9E7E5E3E0DE00FEFCF9F7F5F3F1EEEC40
S2140028A0EAE8E6E4E1DF00FEFCFAF7F5F3F1EFED27
S2140028B0EBE9E6E4E2E000FEFCFAF8F6F4F2EFED0F
S2140028C0EBE9E7E5E3E100FEFCFAF8F6F4F2F0EEF9
S2140028D0ECEAE8E6E4E200FEFCFAF8F6F4F2F0EFE2
S2140028E0EDEBE9E7E5E300FEFCFAF8F7F5F3F1EFC8
S2140028F0EDEBE9E8E6E400FEFCFBF9F7F5F3F1F0B2
S214002900EEECEAE8E7E500FEFCFBF9F7F5F4F2F09A
S214002910EEEDEBE9E7E600FEFDFBF9F8F6F4F2F182
S214002920EFEDECEAE8E700FEFDFBF9F8F6F5F3F16B
S214002930F0EEECEBE9E800FEFDFBFAF8F7F5F3F253
S214002940F0EFEDECEAE900FEFDFBFAF8F7F5F4F23D
S214002950F1EFEEECEBE900FFFDFCFAF9F7F6F4F325
S214002960F2F0EFEDECEA00FFFDFCFAF9F8F6F5F40C
S214002970F2F1EFEEEDEB00FFFDFCFBF9F8F7F5F4F6
S214002980F3F2F0EFEEEC00FFFDFCFBFAF8F7F6F5DD
S214002990F3F2F1F0EEED00FFFEFCFBFAF9F8F6F5C7
S2140029A0F4F3F2F1EFEE00FFFEFDFBFAF9F8F7F6AE
S2140029B0F5F4F2F1F0EF00FFFEFDFCFBFAF9F7F696
S2140029C0F5F4F3F2F1F000FFFEFDFCFBFAF9F8F780
S2140029D0F6F5F4F3F2F100FFFEFDFCFBFAF9F8F869
S2140029E0F7F6F5F4F3F200FFFEFDFCFCFBFAF9F84F
S2140029F0F7F6F5F5F4F300FFFEFEFDFCFBFAF9F939
S214002A00F8F7F6F5F5F400FFFEFEFDFCFBFBFAF921
S214002A10F8F8F7F6F5F500FFFFFEFDFDFCFBFAFA09
S214002A20F9F8F8F7F6F600FFFFFEFDFDFCFCFBFAF2
S214002A30FAF9F8F8F7F700FFFFFEFEFDFDFCFBFBDA
S214002A40FAFAF9F9F8F800FFFFFEFEFDFDFCFCFBC4
S214002A50FBFAFAF9F9F80000FFFFFEFEFDFDFCFCAC
S214002A60FCFBFBFAFAF90000FFFFFEFEFEFDFDFD93
S214002A70FCFCFBFBFBFA0000FFFFFFFEFEFEFDFD7D
S214002A80FDFDFCFCFCFB0000FFFFFFFFFEFEFEFE64
S214002A90FDFDFDFDFCFC000000FFFFFFFFFFFEFE4E
S214002AA0FEFEFEFEFDFD00000000FFFFFFFFFFFF35
S214002AB0FFFFFEFEFEFE0000000000000000FFFF1D
S214002AC0FFFFFFFFFFFF0000000000000000000007
S214002AD000000000000000000000000000000101EF
S214002AE001010101010100000000010101010101D5
S214002AF001010202020200000001010101010202BE
S214002B0002020202030300000101010102020202A6
S214002B10030303030404000001010102020203038D
S214002B200303040404050000010102020203030378
S214002B30040405050506000001010202030304045F
S214002B400405050606070001010202030304040546
S214002B50050606070708000101020203030405052F
S214002B600606070708080001010203030404050619
S214002B700607080809090001010203030405060602
S214002B80070808090A0A00010202030405050607E9
S214002B900808090A0B0B00010202030405060707D2
S214002BA008090A0B0B0C00010203040405060708BB
S214002BB0090A0B0B0C0D00010203040506070808A2
S214002BC0090A0B0C0D0E000102030405060708098E
S214002BD00A0B0C0D0E0F0001020304050607090A76
S214002BE00B0C0D0E0F100001020305060708090A5C
S214002BF00B0C0E0F101100010204050607080A0B45
S214002C000C0D0E0F111200010304050608090A0B2D
S214002C100D0E0F10121300010304050708090B0C14
S214002C200D0E10111214000103040607080A0B0CFF
S214002C300E0F11121315000103040607090A0C0DE6
S214002C400E1011131416000203050608090B0C0ECD
S214002C500F1112141517000203050608090B0D0EB6
S214002C601011131416170002030507080A0B0D0FA0
S214002C701012141517180002030507080A0C0E0F89
S214002C801113141618190002040507090B0C0E1070
S214002C9012131517191A0002040507090B0D0F1059
S214002CA012141618191B0002040608090B0D0F1142
S214002CB0131517181A1C00020406080A0C0E101129
S214002CC0131517191B1D00020406080A0C0E101215
S214002CD01416181A1C1E00020406080A0C0E1113FD
S214002CE01517191B1D1F00020406090B0D0F1113E3
S214002CF015171A1C1E2000020407090B0D0F1214CC
S214002D0016181A1C1F2100020507090B0E101214B4
S214002D1017191B1D202200020507090C0E1013159B
S214002D2017191C1E2023000205070A0C0E11131586
S214002D30181A1D1F2124000205070A0C0F1114166D
S214002D40181B1D202225000305080A0D0F12141754
S214002D50191C1E212326000305080A0D0F1215173D
S214002D601A1C1F212426000305080B0D1012151827
S214002D701A1D20222527000305080B0D1013161810
S214002D801B1E20232628000306080B0E11131619F7
S214002D901C1E21242729000306080B0E11141719E0
S214002DA01C1F2225272A000306090C0E1114171AC9
S214002DB01D202325282B000306090C0F1215181AB0
S214002DC01D202326292C000306090C0F1215181B9C
S214002DD01E2124272A2D000306090C0F1215191C84
S214002DE01F2225282B2E000306090D101316191C6A
S214002DF01F2226292C2F0003060A0D1013161A1D53
S214002E00202326292D300D0A0D0A0D0A2A2A2A2AE1
S214002E102A2A2A2A2A2A2A2A0D0A002A20434F4D1D
S214002E204D414E4453202A0D0A2A2A2A2A2A2A2AA3
S214002E302A2A2A2A2A0D0A0D0A006164633D090916
S214002E40303A207475726E204144434120616E64AE
S214002E502041444342206F66662C2000313A20749D
S214002E6075726E204144434120616E6420414443A4
S214002E7042206F6E0D0A0041540909434D442074E8
S214002E806F2073656E6420746F20746865205349E4
S214002E904D3830380D0A00626961733D0909302DDE
S214002EA036333A206269617320766F6C74616765A9
S214002EB02000666F72204C434420636F6E7472610C
S214002EC073740D0A00626C3D0909302D3235353AAF
S214002ED0206261636B6C696768742050574D2C20C4
S214002EE0002D313A204155544F2C202D323A205493
S214002EF055524E4C49474854207370656369616C5F
S214002F000D0A0063616C3D090964656661756C7441
S214002F10733A20736176652064656661756C74200B
S214002F2076616C7565732000746F20454550524F6E
S214002F304D0D0A000909616363656C783A20582DC7
S214002F406178697320316720666163742D63616CF4
S214002F502C20592F5A206F66667365742D63616C3A
S214002F600D0A000909616363656C793A20592D6181
S214002F7078697320316720666163742D63616C2CF9
S214002F8020582F5A206F66667365742D63616C0D2A
S214002F900A000909616363656C7A3A205A2D6178E4
S214002FA0697320316720666163742D63616C2C2021
S214002FB0582F59206F66667365742D63616C0D0A11
S214002FC00009096779726F3A207265647563652037
S214002FD04759524F206F6666736574206572726F2C
S214002FE072730D0A006461633D0909303A207475F6
S214002FF0726E2044414342206F66662C2000313AB0
S214003000207475726E2044414342206F6E0D0A0094
S2140030106464733D612C622C6309613A2044445316
S21400302030206672657175656E6379206D487A2CFE
S2140030302000623A2044445331206D487A2C200008
S214003040633A207374617274696E67207068617386
S21400305065206F6620444453312D44445330206429
S21400306065670D0A0065623D0909303A206572728F
S2140030706F722062656570204F46462C20313A20DC
S2140030804F4E0D0A0068656C700909546869732014
S214003090696E666F726D6174696F6E2070616765C8
S2140030A0200061626F757420616C6C2061766169C6
S2140030B06C61626C6520636F6D6D616E64730D0A82
S2140030C000696E666F3D0909303A204F46462C204F
S2140030D0307830313A204154786D6567612C200095
S2140030E0307830323A2053494D3830380D0A006B6C
S2140030F0623D0909303A206B65792062656570206B
S2140031004F46462C20313A204F4E0D0A0070743D33
S2140031100909303A20706974636820746F6E652000
S2140031204F46462C2000313A207475726E2073701C
S2140031306565642C20323A20766172696F6D65741D
S21400314065720D0A0072657365743D0909313A208F
S2140031507265626F6F7420414C4C0D0A00786F3DAB
S2140031600909302D36353533353A20564354435801
S2140031704F2070756C6C20766F6C746167652C20C0
S214003180002D313A20504C4C204F4E0D0A000D0AAF
S214003190000D0A3E20006164633D00415400412F4B
S2140031A000626961733D00626C3D0063616C3D6165
S2140031B06363656C780063616C3D616363656C791D
S2140031C00063616C3D616363656C7A0063616C3DAE
S2140031D064656661756C74730063616C3D677972D3
S2140031E06F006461633D006464733D0065623D008A
S2140031F0696E666F3D0068656C70006B623D0070BE
S214003200743D0072657365743D00786F3D000D0A6D
S2140032103F3F3F20756E6B6E6F776E20636F6D6DF0
S214003220616E64202D20666F7220617373697374FB
S214003230616E636520656E746572202068656C70CB
S2140032400D0A000D0A5457492D6F6E626F61726445
S2140032503A20487967726F2053485433312D4449D9
S21400326053202D2049324320616464726573733A9B
S214003270203078253032580D0A005457492D6F6E8D
S214003280626F6172643A20487967726F20534854BF
S21400329033312D444953202D20202061646472650B
S2140032A07373204E41434B202F2027627265616B5B
S2140032B0272062616420726573706F6E73650D0AF5
S2140032C0005457492D6F6E626F6172643A204879D8
S2140032D067726F2053485433312D444953202D20B4
S2140032E020207374617475733A2030782530325814
S2140032F00D0A005457492D6F6E626F6172643A2052
S21400330020494E495420737563636573732E0D0A06
S214003310005457492D6F6E626F6172643A20202EFA
S2140033202E2E20646576696365206E6F74206F6E3E
S21400333020626F6172642E202873633D2564290D18
S2140033400A00496E69743A20487967726F2073756F
S2140033506363657373000D0A5457492D6F6E626F71
S2140033606172643A204779726F204D50552D39327C
S2140033703530202D204932432061646472657373B2
S2140033803A203078253032582C2030782530325884
S2140033900D0A005457492D6F6E626F6172643A20B1
S2140033A04779726F204D50552D3932353020202008
S2140033B02D202020277265736574203127206261D6
S2140033C06420726573706F6E73650D0A00545749FA
S2140033D02D6F6E626F6172643A204779726F204D6E
S2140033E050552D39323530202D202020202076656E
S2140033F07273696F6E3A203078253032582C203040
S21400340078253032580D0A005457492D6F6E626F7A
S2140034106172643A2020494E49542073756363658F
S21400342073732E0D0A005457492D6F6E626F6172CA
S214003430643A20202E2E2E20646576696365206E01
S2140034406F74206F6E20626F6172642E2028736323
S2140034503D2564290D0A00496E69743A2047797241
S2140034606F202073756363657373000D0A545749A4
S2140034702D6F6E626F6172643A204261726F204DEA
S21400348053353630373032424130332D3530202DEB
S2140034902049324320616464726573733A20307841
S2140034A0253032580D0A005457492D6F6E626F61F1
S2140034B072643A20204241442072656164696E67F6
S2140034C02073657269616C2F43524320776F726474
S2140034D02E202873633D2564290D0A005457492D74
S2140034E06F6E626F6172643A204261726F204D5354
S2140034F0353630373032424130332D3530202D20AE
S2140035002020202073657269616C233A2025640DA3
S2140035100A005457492D6F6E626F6172643A20201C
S2140035204241442072656164696E672050524F4D77
S21400353020616464726573732025642E202873638B
S2140035403D2564290D0A005457492D6F6E626F6140
S21400355072643A2020494E4954207375636365733C
S214003560732E0D0A005457492D6F6E626F61726498
S2140035703A20202E2E2E20646576696365206E6FB5
S21400358074206F6E20626F6172642E202873633D14
S2140035902564290D0A00496E69743A204261726FEB
S2140035A0202073756363657373002D2D2D2D2D2DCF
S2140035B02D2D2D2D2D0D0A0D0A002530352E3266A7
S2140035C0002530372E32660025342E31660025352C
S2140035D02E33660011241FBECFEFCDBFDFE5DEBF62
S2140035E000E00CBF11E2A0E0B0E2E8E4F2EF01E098
S2140035F00BBF02C007900D92AC3AB107D9F72EE286
S214003600ACEAB1E201C01D92A53BB207E1F70E9409
S21400361036D10C9400F90C940000CF93DF9300D0C1
S214003620CDB7DEB789839A836B8389819A816B8154
S2140036301AD32396CDBFDEBFDF91CF910895CF93E7
S214003640DF9300D000D0CDB7DEB789839A836B8333
S2140036507C834D835E8312C08B819C81FC0120811C
S21400366089819A81622FD9DF8D819E8101978D8312
S2140036709E838B819C8101968B839C838D819E810A
S214003680892B51F780E02696CDBFDEBFDF91CF9124
S2140036900895CF93DF931F921F92CDB7DEB789832D
S2140036A09A8389819A81FC018481282F20618981EF
S2140036B09A81FC01248300000F900F90DF91CF9138
S2140036C00895CF93DF93CDB7DEB72597CDBFDEBF86
S2140036D089839A836B834C832D839B818C81892B72
S2140036E0982F8D81882311F088E001C080E0892B17
S2140036F0282F89819A81FC01258300002596CDBF5D
S214003700DEBFDF91CF910895CF93DF931F921F9274
S214003710CDB7DEB789839A8389819A81FC0184813B
S214003720282F286089819A81FC01248300000F904D
S2140037300F90DF91CF910895CF93DF9300D0CDB750
S214003740DEB789839A836B8389819A81FC018581A0
S214003750982F9F738B81892B282F89819A81FC0152
S214003760258300002396CDBFDEBFDF91CF9108955D
S214003770CF93DF931F921F92CDB7DEB789839A83CC
S21400378089819A81FC018181882F90E08072992737
S21400379021E0892B09F420E0822F0F900F90DF9113
S2140037A0CF910895CF93DF931F921F92CDB7DEB7C8
S2140037B089839A8389819A81FC018181882F90E090
S2140037C08078992721E0892B09F420E0822F0F903A
S2140037D00F90DF91CF910895CF93DF931F92CDB7CF
S2140037E0DEB789838981882F90E08230910589F041
S2140037F0833091051CF4019739F01AC08430910586
S21400380069F0089781F014C080E894E8AEE1B0E073
S21400381012C080E09CE6ACEDB2E00DC080E090E81F
S214003820A0E0B0E008C080E09DE2A1E3B1E003C004
S21400383080E090E0DC01BC01CD010F90DF91CF91DC
S2140038400895CF93DF93CDB7DEB72997CDBFDEBF00
S2140038508D836E837F83488759878D81882F90E07C
S2140038608038910579F0803C9105A9F0892B09F004
S2140038701BC080E894E8AEE1B0E089839A83AB830E
S214003880BC8312C080E09BE1A7EBB0E089839A83FB
S214003890AB83BC8309C088E09FDFDC01CB01898352
S2140038A09A83AB83BC8300008E819F81CC01A0E00D
S2140038B0B0E029813A814B815C81BC01CD010E9438
S2140038C04CF1DC01CB0189839A83AB83BC8389816D
S2140038D09A81AB81BC81BC01CD012996CDBFDEBFEC
S2140038E0DF91CF910895CF93DF93CDB7DEB741E058
S2140038F050E063E070E080ECA4DFDC01CB01BC01AB
S214003900CD01DF91CF910895CF93DF931F92CDB76E
S214003910DEB71982E8DFDC01CB012981222F30E0F7
S21400392004C0B695A795979587952A95D2F7BC01BA
S214003930CD010F90DF91CF910895CF93DF93CDB750
S214003940DEB7E2DFDC01CB01BC01CD01DF91CF9118
S2140039500895CF93DF93CDB7DEB7EFDFDC01CB0161
S214003960B695A79597958795BC01CD01DF91CF9128
S2140039700895CF93DF931F921F92CDB7DEB789834A
S2140039809A8389819A81892B09F421C189819A8138
S214003990803C910529F460E180E00E94A8D417C11C
S2140039A089819A818038914029F462E080E00E9403
S2140039B0A8D40DC189819A818115914029F461E0CE
S2140039C080E00E94A8D403C189819A818038934000
S2140039D029F461E081E00E94A8D4F9C089819A8127
S2140039E08039934029F461E082E00E94A8D4EFC0B9
S2140039F089819A818115924029F462E081E00E94D3
S214003A00A8D4E5C089819A818034924029F462E086
S214003A1082E00E94A8D4DBC089819A8180329340DC
S214003A2029F464E082E00E94A8D4D1C089819A81FA
S214003A308115984029F461E083E00E94A8D4C7C0AD
S214003A4089819A818115994029F461E084E00E9479
S214003A50A8D4BDC089819A8181159A4029F461E075
S214003A6085E00E94A8D4B3C089819A8181159B40C5
S214003A7029F461E086E00E94A8D4A9C089819A81D1
S214003A808034984029F462E083E00E94A8D49FC066
S214003A9089819A818034994029F462E084E00E940A
S214003AA0A8D495C089819A8180349A4029F462E02E
S214003AB085E00E94A8D48BC089819A81803998407D
S214003AC029F464E083E00E94A8D481C089819A81A9
S214003AD08039994029F464E084E00E94A8D477C035
S214003AE089819A8180399A4029F464E085E00E94B1
S214003AF0A8D46DC089819A8180399B4029F464E0FE
S214003B0086E00E94A8D463C089819A81803C984050
S214003B1029F468E083E00E94A8D459C089819A817C
S214003B20803C994029F468E084E00E94A8D44FC005
S214003B3089819A81803A984029F460E183E00E9466
S214003B40A8D445C089819A81803A994029F460E1D9
S214003B5084E00E94A8D43BC089819A81803A9A402A
S214003B6029F460E185E00E94A8D431C089819A8159
S214003B70803A9B4029F460E186E00E94A8D427C0E2
S214003B8089819A81803B984029F460E283E00E9414
S214003B90A8D41DC089819A81803B994029F460E2AF
S214003BA084E00E94A8D413C089819A81803894400A
S214003BB029F460E483E00E94A8D409C089819A8130
S214003BC0803A944021F460E485E00E94A8D4000086
S214003BD00F900F90DF91CF9108950F931F93CF937F
S214003BE0DF93CDB7DEB72597CDBFDEBF8A839B8335
S214003BF06C837D838A819B81BCDE8A819B8160E0A9
S214003C009BDD8C819D81FC0126818C819D81FC0140
S214003C1045818C819D81FC0134818A819B81632F43
S214003C2050DD97DE9B01AC018C819D81FC0180817B
S214003C309181A281B381EA81FB8189019A01AC015D
S214003C40BD01CF0148D089838A819B815DDD8A8151
S214003C509B811FDD89812596CDBFDEBFDF91CF9189
S214003C601F910F910895CF93DF9300D0CDB7DEB7A5
S214003C7089839A836B83000089819A8179DD982FE6
S214003C8081E089278823C1F789819A812B81FC01ED
S214003C90208380E090E02396CDBFDEBFDF91CF91FA
S214003CA00895CF93DF931F921F92CDB7DEB7898317
S214003CB09A83000089819A8175DD982F81E0892793
S214003CC08823C1F789819A81FC0180810F900F902B
S214003CD0DF91CF910895EF92FF920F931F93CF93AA
S214003CE0DF93CDB7DEB76F97CDBFDEBF8E8B9F8BD2
S214003CF0488F598F6A8F7B8F0C8F1D8F2E8F3F8F2B
S214003D008C8D9D8DAE8DBF8D689412F8B695A79557
S214003D10979587951694D1F78E879F87A88BB98B32
S214003D208C8D9D8DAE8DBF8D072E76E1B695A795B1
S214003D30979587957A95D1F7702D8A879B87AC875C
S214003D40BD878E899F89FC018481882F90E08470CE
S214003D509927892BC1F48E859F85A889B989B69540
S214003D60A795979587958E879F87A88BB98B8A8509
S214003D709B85AC85BD85B695A795979587958A87CB
S214003D809B87AC87BD87288D398D4A8D5B8D8E8548
S214003D909F85A889B98982179307A407B50768F095
S214003DA0288D398D4A8D5B8D8A859B85AC85BD8532
S214003DB0281739074A075B0710F480E040C18E8950
S214003DC09F89FC018481882F90E084709927892B35
S214003DD061F4888D998DAA8DBB8D880F991FAA1FB7
S214003DE0BB1F888F998FAA8FBB8F8FEF90E0A0E0C4
S214003DF0B0E08E839F83A887B9878C8D9D8DAE8D0E
S214003E00BF8D288D398D4A8D5B8DBC01CD010E94FA
S214003E1082F1DA01C9018A8B9B8BAC8BBD8B89EF53
S214003E20898328C02A893B894C895D898E819F8138
S214003E30A885B985281739074A075B07F8F08E81E9
S214003E409F81A885B985880F991FAA1FBB1F8E83DF
S214003E509F83A887B98789818D3F4CF48E819F8187
S214003E60A885B98581608E839F83A887B987898155
S214003E708F5F898389818730ACF201C00000898119
S214003E8088230CF08AC0888D998DAA8DBB8D880FEB
S214003E90991FAA1FBB1F880F991FAA1FBB1F880F39
S214003EA0991FAA1FBB1F9C01AD018C8D9D8DAE8DE9
S214003EB0BF8D821B930BA40BB50B8C8F9D8FAE8F83
S214003EC0BF8F89818E3F94F58981082E000C990B4F
S214003ED02DEF3FEF281B390B8C8D9D8DAE8DBF8D42
S214003EE07C018D0104C0EE0CFF1C001F111F2A95DB
S214003EF0D2F7A8019701888D998DAA8DBB8DB695AE
S214003F00A79597958795820F931FA41FB51F288D99
S214003F10398D4A8D5B8DBC01CD010E9482F1DA019C
S214003F20C9018A839B83AC83BD8370C08981082EB8
S214003F30000C990B9C012D5F3F4F888D998DAA8DA3
S214003F40BB8D04C0880F991FAA1FBB1F2A95D2F7E6
S214003F50888F998FAA8FBB8F888D998DAA8DBB8DE0
S214003F609C01AD0156954795379527958C8D9D8D6F
S214003F70AE8DBF8D820F931FA41FB51F288D398D60
S214003F804A8D5B8DBC01CD010E9482F1DA01C90128
S214003F908A839B83AC83BD8339C08981082E000C3D
S214003FA0990B9C012D5F3F4F888D998DAA8DBB8DF7
S214003FB004C0880F991FAA1FBB1F2A95D2F7888FA7
S214003FC0998FAA8FBB8F888D998DAA8DBB8D9C01EA
S214003FD0AD0156954795379527958C8D9D8DAE8D61
S214003FE0BF8D820F931FA41FB51F288D398D4A8D54
S214003FF05B8DBC01CD010E9482F1DA01C9010197F7
S214004000A109B1098A839B83AC83BD838A819B8186
S214004010AC81BD81892F9A2FAB2FBB27982F9F701D
S21400402089818295807F292F282B8E899F89FC0184
S21400403027832A818E899F89FC01268381E06F96DB
S214004040CDBFDEBFDF91CF911F910F91FF90EF9014
S2140040500895CF93DF931F92CDB7DEB78FE390E03E
S214004060FC0180818983F89489810F90DF91CF913C
S2140040700895CF93DF931F92CDB7DEB789838FE382
S21400408090E02981FC01208300000F90DF91CF9102
S2140040900895CF93DF931F92CDB7DEB789838981CA
S2140040A0882F90E08230910589F0833091051CF4CA
S2140040B0019739F01AC08430910569F0089781F0AD
S2140040C014C080E894E8AEE1B0E012C080E09CE660
S2140040D0ACEDB2E00DC080E090E8A0E0B0E008C033
S2140040E080E09DE2A1E3B1E003C080E090E0DC0167
S2140040F0BC01CD010F90DF91CF910895CF93DF9350
S214004100CDB7DEB72997CDBFDEBF8D836E837F83A5
S214004110488759878D81882F90E08038910579F0FF
S214004120803C9105A9F0892B09F01BC080E894E833
S214004130AEE1B0E089839A83AB83BC8312C080E093
S2140041409BE1A7EBB0E089839A83AB83BC8309C06D
S21400415088E09FDFDC01CB0189839A83AB83BC8335
S21400416000008E819F81CC01A0E0B0E029813A81D9
S2140041704B815C81BC01CD010E944CF1DC01CB017E
S21400418089839A83AB83BC8389819A81AB81BC8106
S214004190BC01CD012996CDBFDEBFDF91CF9108953A
S2140041A0CF93DF93CDB7DEB741E050E063E070E039
S2140041B080ECA4DFDC01CB01BC01CD01DF91CF9107
S2140041C00895CF93DF931F92CDB7DEB71982E8DF4D
S2140041D0DC01CB012981222F30E004C0B695A795DB
S2140041E0979587952A95D2F7BC01CD010F90DF9160
S2140041F0CF910895CF93DF93CDB7DEB7E2DFDC0132
S214004200CB01BC01CD01DF91CF910895CF93DF9311
S214004210CDB7DEB7EFDFDC01CB01B695A795979556
S2140042208795BC01CD01DF91CF910895CF93DF93A1
S214004230CDB7DEB7EBDFDC01CB01BC01CD01DF91F2
S214004240CF91089504C061507109810991096115E3
S214004250710581059105B9F70895CF93DF93CDB722
S214004260DEB72D97CDBFDEBF8C876D878C858983A3
S2140042708D858A8389818B838B818C838C818695BF
S214004280869586958D838D81882F90E0880F991F5F
S21400429082959295907F9827807F98279A5F8E8345
S2140042A09F838E819F819C01205F3F4F89818887F5
S2140042B088858770882F90E0820F931F89879A875A
S2140042C0C8DE8B8789859A85FC018081282F277018
S2140042D089859A85FC01208389859A85FC019081D1
S2140042E08A81292F282B89859A85FC0120838B8536
S2140042F0C0DE00002D96CDBFDEBFDF91CF910895C2
S214004300CF93DF93CDB7DEB72B97CDBFDEBF8A87BF
S2140043106B878A8589838B858A8389818B838B814A
S2140043208C838C818695869586958D838D81882F46
S21400433090E0880F991F82959295907F9827807FAE
S21400434098279A5F8E839F838A818130A9F489811A
S21400435088878885882F90E09C012770332781E026
S21400436090E002C0880F991F2A95E2F7282F8E81C9
S2140043709F81FC01218317C08A818823A1F489814B
S21400438089878985882F90E09C012770332781E0F4
S21400439090E002C0880F991F2A95E2F7282F8E8199
S2140043A09F81FC01228300002B96CDBFDEBFDF91EC
S2140043B0CF910895CF93DF93CDB7DEB72B97CDBFC0
S2140043C0DEBF8A876B878A8589838B858A83898106
S2140043D08B838B818C838C818695869586958D8341
S2140043E08D81882F90E0880F991F82959295907FF7
S2140043F09827807F98279A5F8E839F838A81882359
S214004400A9F0898188878885882F90E09C0127708D
S214004410332781E090E002C0880F991F2A95E2F7C3
S214004420282F8E819F81FC01258314C0898189876E
S2140044308985882F90E09C012770332781E090E0E3
S21400444002C0880F991F2A95E2F7282F8E819F8138
S214004450FC01268300002B96CDBFDEBFDF91CF91F7
S2140044600895CF93DF93CDB7DEB72B97CDBFDEBFD2
S214004470888799876A877B878A859B85FC018481E4
S2140044808D838A859B85FC0185818E838A859B85A5
S214004490FC0186818F838A859B85FC0180819181C2
S2140044A0A281B38189839A83AB83BC8388859985EF
S2140044B0803A984021F460E183E00E94A8D4888581
S2140044C09985803B984021F460E283E00E94A8D45E
S2140044D088859985803A994021F460E184E00E94BD
S2140044E0A8D488859985803B994021F460E284E0D1
S2140044F00E94A8D488859985803A9A4021F460E184
S21400450085E00E94A8D488859985803A9B4021F44E
S21400451060E186E00E94A8D4888599859E012F5F79
S2140045203F4FB9015ADB882311F081E001C080E0DB
S2140045302B96CDBFDEBFDF91CF9108951F920F92CD
S21400454000903F000F92112400903B000F922F9393
S2140045503F934F935F936F937F938F939F93AF9306
S214004560BF93EF93FF93CF93DF931F92CDB7DEB742
S21400457080EA9BE096DB89838091D4249091D524B1
S2140045808F3F910509F080F48091D4249091D52432
S2140045909C012F5F3F4F2093D4243093D5248A521A
S2140045A09B4D2981FC01208381E08093D324000069
S2140045B00F90DF91CF91FF91EF91BF91AF919F91B7
S2140045C08F917F916F915F914F913F912F910F90B7
S2140045D000923B000F9000923F000F901F9018959E
S2140045E0CF93DF93CDB7DEB72597CDBFDEBF8B83E6
S2140045F09C836D838D8189838D8181508A8316C0CB
S2140046008A81882F90E02A81222F30E04B815C81BE
S214004610240F351FF90120818051984DFC0120831D
S2140046208981815089838A8181508A838981882300
S21400463039F78D81882F90E08051984D2DE0FC0150
S21400464020838D81882F90E001968051984DFC0143
S21400465010828D81882F90E0AC0160EF77E280EACF
S2140046609BE00E941F1B00002596CDBFDEBFDF919A
S214004670CF910895CF93DF93CDB7DEB761E089E29F
S21400468099DE61E08BE296DE61E08FE293DE60E029
S21400469085E290DE60E084E28DDE60E089E18ADE1D
S2140046A060E08BE187DE60E889E2D7DD60E88BE2D8
S2140046B0D4DD60E88FE2D1DD60E985E2CEDD60E939
S2140046C084E2CBDD60E989E1C8DD60E98BE1C5DD28
S2140046D061E089E215DE61E08BE212DE60E08AE2EC
S2140046E00FDE61E08FE20CDE60E08EE209DE60E065
S2140046F08CE206DE60E088E203DE61E085E200DE52
S21400470061E084E2FDDD60E083E2FADD60E087E000
S214004710F7DD60E086E0F4DD61E089E1F1DD61E08F
S2140047208BE1EEDD60E08AE1EBDD60E088E1E8DD6C
S21400473060E088E7E5DD80E096E9A0E0B0E0809301
S214004740CC249093CD24A093CE24B093CF2483E0A2
S2140047508093D0241092D1241092D2240000DF91AE
S214004760CF9108952F923F924F925F926F927F92D1
S2140047708F929F92AF92BF92CF92DF92EF92FF926C
S2140047800F931F93CF93DF93CDB7DEB7C057D109F2
S214004790CDBFDEBF19821A8287E08B836CEC74E291
S2140047A080EA9BE05EDE80EA9BE020E1FC0123835A
S2140047B08AE694E0892F8F938AE694E08F931F927F
S2140047C080E48F9380EF97E2892F8F9380EF97E2B4
S2140047D08F930E94A5F50F900F900F900F900F905B
S2140047E00F908E839F838B8191E0980F9B83880F19
S2140047F0982F990F990F890F40EF57E2682F88E09E
S2140048000E94FB7088EF93E0892F8F9388EF93E0E8
S2140048108F931F9280E48F9380EF97E2892F8F9378
S21400482080EF97E28F930E94A5F50F900F900F9060
S2140048300F900F900F908E839F838E8140E0682F9D
S21400484080EF97E20E94922E61E085E2B3DDEEDC17
S214004850DC01CB018C019D0140E050E0BA010987E4
S2140048601A872B873C874D875E876F87788B2984CE
S2140048703A844B845C846D847E848F849888222D51
S214004880332D442D552D662D772D882D992D02E03C
S2140048900E94FCF2A22EB32EC42ED52EE62EF72EA4
S2140048A0082F192F2A2C3B2C4C2C5D2C6E2C7F2C81
S2140048B0802E912E222D332D442D552D662D772DAD
S2140048C0882D992D05E00E94FCF2A22EB32EC42E50
S2140048D0D52EE62EF72E082F192F2A2D3B2D4C2DE0
S2140048E05D2D6E2D7F2D802F912FA22CB32CC42CE6
S2140048F0D52CE62CF72C082D192D0E9448F3A22E55
S214004900B32EC42ED52EE62EF72E082F192F2A2DBD
S2140049103B2D4C2D5D2D6E2D7F2D802F912FA98444
S214004920BA84CB84DC84ED84FE840F8518890E94CB
S21400493033F3A22EB32EC42ED52EE62EF72E082F36
S214004940192F2A2D3B2D4C2D5D2D6E2D7F2D802F62
S214004950912F02E00E94FCF2222E332E442E552E7A
S214004960662E772E882E992EA22CB32CC42CD52CEE
S214004970E62CF72C082D192D2A2C3B2C4C2C5D2CC4
S2140049806E2C7F2C802E912E0F2EF6E0AF2EF02D63
S214004990B12CC12CD12CE12CF12C00E010E0222D02
S2140049A0332D442D552D662D772D882D992D0E945B
S2140049B05FF2222E332E442E552E662E772E882E0C
S2140049C0992EA22CB32CC42CD52CE62CF72C082D13
S2140049D0192D2A2D3B2D4C2D5D2D6E2D7F2D802FD4
S2140049E0912F29513C4F4F4F5F4F6F4F7F4F8F4F47
S2140049F09F4FA22EB32EC42ED52EE62EF72E082FAE
S214004A00192F2A2D3B2D4C2D5D2D6E2D7F2D802FA1
S214004A10912F0E946DEEDC01CB0120E030E04AE7EA
S214004A2054E4BC01CD010E945DEDDC01CB01BC016C
S214004A30CD010E94CAEDA22EB32EC42ED52EE62E90
S214004A40F72E082F192FD601C501BC01CD01FADBC0
S214004A5060E089E2AFDCEADBDC01CB019C01AD0162
S214004A6060E070E0CB01822E932EA42EB52EC62ECB
S214004A70D72EE82EF92E282D392D4A2D5B2D6C2D9C
S214004A807D2D8E2D9F2D02E00E94FCF2298F3A8FFD
S214004A904B8F5C8F6D8F7E8F8F8F98A3898C9A8CAF
S214004AA0AB8CBC8CCD8CDE8CEF8CF8A0282D392DF1
S214004AB04A2D5B2D6C2D7D2D8E2D9F2D02E00E94A4
S214004AC0FCF229A33AA34BA35CA36DA37EA38FA3FA
S214004AD098A7282D392D4A2D5B2D6C2D7D2D8E2DDA
S214004AE09F2DA9A0BAA0CBA0DCA0EDA0FEA00FA190
S214004AF018A50E9433F3822E932EA42EB52EC62E12
S214004B00D72EE82EF92E282D392D4A2D5B2D6C2D0B
S214004B107D2D8E2D9F2D02E00E94FCF229A73AA73C
S214004B204BA75CA76DA77EA78FA798AB282D392D1E
S214004B304A2D5B2D6C2D7D2D8E2D9F2DA9A4BAA4FC
S214004B40CBA4DCA4EDA4FEA40FA518A90E9433F301
S214004B50222E332E442E552E662E772E882E992EF4
S214004B600F2EF6E0AF2EF02DB12CC12CD12CE12C5F
S214004B70F12C00E010E0222D332D442D552D662D0E
S214004B80772D882D992D0E945FF2222E332E442EEB
S214004B90552E662E772E882E992EA22CB32CC42C3A
S214004BA0D52CE62CF72C082D192D2A2D3B2D4C2D17
S214004BB05D2D6E2D7F2D802F912F29513C4F4F4F0D
S214004BC05F4F6F4F7F4F8F4F9F4FA22EB32EC42E37
S214004BD0D52EE62EF72E082F192F2A2D3B2D4C2DDD
S214004BE05D2D6E2D7F2D802F912F0E946DEEDC01A6
S214004BF0CB0120E030E04AE754E4BC01CD010E943E
S214004C005DEDDC01CB01BC01CD010E94CAEDA22EF8
S214004C10B32EC42ED52EE62EF72E082F192FD6012A
S214004C20C501BC01CD010EDB60E08FE2C3DBFEDA1E
S214004C30DC01CB011C012D01612C712C43010F2ED0
S214004C40F6E0AF2EF02DB12CC12CD12CE12CF12C9E
S214004C5000E010E0222D332D442D552D662D772DA6
S214004C60882D992D0E945FF2222E332E442E552E2B
S214004C70662E772E882E992EA22CB32CC42CD52CDB
S214004C80E62CF72C082D192D2A2D3B2D4C2D5D2DAD
S214004C906E2D7F2D802F912F29513C4F4F4F5F4F08
S214004CA06F4F7F4F8F4F9F4FA22EB32EC42ED52E01
S214004CB0E62EF72E082F192F2A2D3B2D4C2D5D2D75
S214004CC06E2D7F2D802F912F0E946DEEDC01CB0183
S214004CD020E030E04AE754E4BC01CD010E945DEDDF
S214004CE0DC01CB01BC01CD010E94CAEDA22EB32E81
S214004CF0C42ED52EE62EF72E082F192FD601C50165
S214004D00BC01CD019FDA43E050E062E171E280EA47
S214004D109BE00E941F1B8ADADC01CB019C01AD01DF
S214004D2060E070E0CB01822E932EA42EB52EC62E08
S214004D30D72EE82EF92E282D392D4A2D5B2D6C2DD9
S214004D407D2D8E2D9F2D02E00E94FCF229AB3AAB02
S214004D504BAB5CAB6DAB7EAB8FAB98AF89A89AA81C
S214004D60ABA8BCA8CDA8DEA8EFA8F8AC282D392D96
S214004D704A2D5B2D6C2D7D2D8E2D9F2D02E00E94E1
S214004D80FCF229AF3AAF4BAF5CAF6DAF7EAF8FAFE3
S214004D9021969FAF2197282D392D4A2D5B2D6C2DFE
S214004DA07D2D8E2D9F2DA9ACBAACCBACDCACEDAC7A
S214004DB0FEAC0FAD21961FAD21970E9433F3822ED5
S214004DC0932EA42EB52EC62ED72EE82EF92E282DDD
S214004DD0392D4A2D5B2D6C2D7D2D8E2D9F2D02E0BD
S214004DE00E94FCF222962FAF229723963FAF23977E
S214004DF024964FAF249725965FAF259726966FAFDC
S214004E00269727967FAF279728968FAF28972996BD
S214004E109FAF2997282D392D4A2D5B2D6C2D7D2D82
S214004E208E2D9F2D2296AFAC22972396BFAC23974C
S214004E302496CFAC24972596DFAC25972696EFAC24
S214004E4026972796FFAC279728960FAD2897299682
S214004E501FAD29970E9433F3222E332E442E552E53
S214004E60662E772E882E992E0F2EF6E0AF2EF02D7A
S214004E70B12CC12CD12CE12CF12C00E010E0222D1D
S214004E80332D442D552D662D772D882D992D0E9476
S214004E905FF2222E332E442E552E662E772E882E27
S214004EA0992EA22CB32CC42CD52CE62CF72C082D2E
S214004EB0192D2A2D3B2D4C2D5D2D6E2D7F2D802FEF
S214004EC0912F29513C4F4F4F5F4F6F4F7F4F8F4F62
S214004ED09F4FA22EB32EC42ED52EE62EF72E082FC9
S214004EE0192F2A2D3B2D4C2D5D2D6E2D7F2D802FBD
S214004EF0912F0E946DEEDC01CB0120E030E04AE706
S214004F0054E4BC01CD010E945DEDDC01CB01BC0187
S214004F10CD010E94CAEDA22EB32EC42ED52EE62EAB
S214004F20F72E082F192FD601C501BC01CD018AD94D
S214004F308091D324882309F4E6CE8BD88887809185
S214004F40D4249091D52401978C839D8312C08C81A4
S214004F509D818A529B4DFC018081282F8C819D81EA
S214004F608051984DFC0120838C819D8101978C8314
S214004F709D838C819D81992354F71092D42410929E
S214004F80D5241092D324888574D88091F02788235E
S214004F9049F065EF73E080EF97E20E94ACF4892B4E
S214004FA009F058C489819A819C012F5F3F4F29835D
S214004FB03A830B9708F4A7CE19821A8261E08FE233
S214004FC0F9D961E089E2F6D960E085E2F3D92ED915
S214004FD0DC01CB019C01AD0160E070E0CB01822ECC
S214004FE0932EA42EB52EC62ED72EE82EF92E282DBB
S214004FF0392D4A2D5B2D6C2D7D2D8E2D9F2D01E09C
S2140050000E94FCF22A962FAF2A972B963FAF2B973B
S2140050102C964FAF2C972D965FAF2D972E966FAF91
S2140050202E972F967FAF2F9760968FAF60976196DB
S2140050309FAF61972A968FAC2A972B969FAC2B979B
S2140050402C96AFAC2C972D96BFAC2D972E96CFAC4A
S2140050502E972F96DFAC2F976096EFAC60976196F1
S214005060FFAC6197282D392D4A2D5B2D6C2D7D2D9B
S2140050708E2D9F2D02E00E94FCF262962FAF629763
S21400508063963FAF639764964FAF649765965FAF3E
S214005090659766966FAF669767967FAF67976896D1
S2140050A08FAF689769969FAF6997282D392D4A2D3F
S2140050B05B2D6C2D7D2D8E2D9F2D6296AFAC62974D
S2140050C06396BFAC63976496CFAC64976596DFAC87
S2140050D065976696EFAC66976796FFAC6797689697
S2140050E00FAD689769961FAD69970E9433F3222E1D
S2140050F0332E442E552E662E772E882E992E222D50
S214005100332D442D552D662D772D882D992D04E0B1
S2140051100E94FCF2A22EB32EC42ED52EE62EF72E1B
S214005120082F192F2A2D3B2D4C2D5D2D6E2D7F2DF2
S214005130802F912FA22CB32CC42CD52CE62CF72C28
S214005140082D192D0E9448F3222E332E442E552E5C
S214005150662E772E882E992E0F2EF6E0AF2EF02D87
S214005160B12CC12CD12CE12CF12C00E010E0222D2A
S214005170332D442D552D662D772D882D992D0E9483
S2140051805FF2222E332E442E552E662E772E882E34
S214005190992EA22CB32CC42CD52CE62CF72C082D3B
S2140051A0192D2A2D3B2D4C2D5D2D6E2D7F2D802FFC
S2140051B0912F29513C4F4F4F5F4F6F4F7F4F8F4F6F
S2140051C09F4FA22EB32EC42ED52EE62EF72E082FD6
S2140051D0192F2A2D3B2D4C2D5D2D6E2D7F2D802FCA
S2140051E0912F0E946DEEDC01CB0120E030E04AE713
S2140051F054E4BC01CD010E945DEDDC01CB01BC0195
S214005200CD010E94CAEDA22EB32EC42ED52EE62EB8
S214005210F72E082F192FD601C501BC01CD0112D8D3
S2140052208B818D3020F00E94367483E08B8384E877
S21400523094E0892F8F9384E894E08F931F9280E404
S2140052408F9380EF97E2892F8F9380EF97E28F936B
S2140052500E94A5F50F900F900F900F900F900F9053
S2140052608E839F838B8191E0980F9B83880F982F66
S214005270990F990F890F40EF57E2682F88E00E9438
S214005280FB7080E294E0892F8F9380E294E08F9306
S2140052901F9280E48F9380EF97E2892F8F9380EFA1
S2140052A097E28F930E94A5F50F900F900F900F90A6
S2140052B00F900F908E839F838E8140E0682F80EF43
S2140052C097E230D561E085E275D80E941621DC01B0
S2140052D0CB018C019D0140E050E0BA01098B1A8B8E
S2140052E02B8B3C8B4D8B5E8B6F8B788F29883A8807
S2140052F04B885C886D887E888F88988C222D332D0D
S214005300442D552D662D772D882D992D02E00E946F
S214005310FCF2A22EB32EC42ED52EE62EF72E082F84
S214005320192F2A2C3B2C4C2C5D2C6E2C7F2C802E7F
S214005330912E222D332D442D552D662D772D882D1B
S214005340992D05E00E94FCF2A22EB32EC42ED52E77
S214005350E62EF72E082F192F2A2D3B2D4C2D5D2DCE
S2140053606E2D7F2D802F912FA22CB32CC42CD52CE4
S214005370E62CF72C082D192D0E9448F3A22EB32EEA
S214005380C42ED52EE62EF72E082F192F2A2D3B2DAC
S2140053904C2D5D2D6E2D7F2D802F912FA988BA88DC
S2140053A0CB88DC88ED88FE880F89188D0E9433F341
S2140053B0A22EB32EC42ED52EE62EF72E082F192F8A
S2140053C02A2D3B2D4C2D5D2D6E2D7F2D802F912F60
S2140053D002E00E94FCF2222E332E442E552E662E1C
S2140053E0772E882E992EA22CB32CC42CD52CE62CE6
S2140053F0F72C082D192D2A2C3B2C4C2C5D2C6E2CB2
S2140054007F2C802E912E0F2EF6E0AF2EF02DB12C95
S214005410C12CD12CE12CF12C00E010E0222D332DF4
S214005420442D552D662D772D882D992D0E945FF2DF
S214005430222E332E442E552E662E772E882E992E0B
S214005440A22CB32CC42CD52CE62CF72C082D192D09
S2140054502A2D3B2D4C2D5D2D6E2D7F2D802F912FCF
S21400546029513C4F4F4F5F4F6F4F7F4F8F4F9F4F8E
S214005470A22EB32EC42ED52EE62EF72E082F192FC9
S2140054802A2D3B2D4C2D5D2D6E2D7F2D802F912F9F
S2140054900E946DEEDC01CB0120E030E04AE754E4E8
S2140054A0BC01CD010E945DEDDC01CB01BC01CD014C
S2140054B00E94CAEDA22EB32EC42ED52EE62EF72EAF
S2140054C0082F192FD601C501BC01CD010E9422214B
S2140054D060E089E20E94DA210E941621DC01CB01FD
S2140054E09C01AD0160E070E0CB01822E932EA42ECD
S2140054F0B52EC62ED72EE82EF92E282D392D4A2D5C
S2140055005B2D6C2D7D2D8E2D9F2D02E00E94FCF2D2
S2140055106A962FAF6A976B963FAF6B976C964FAFB6
S2140055206C976D965FAF6D976E966FAF6E976F9632
S2140055307FAF6F97A0968FAFA097A1969FAFA197CA
S2140055406A968FAC6A976B969FAC6B976C96AFAC6F
S2140055506C976D96BFAC6D976E96CFAC6E976F9648
S214005560DFAC6F97A096EFACA097A196FFACA19783
S214005570282D392D4A2D5B2D6C2D7D2D8E2D9F2DA2
S21400558002E00E94FCF2A2962FAFA297A3963FAF2E
S214005590A397A4964FAFA497A5965FAFA597A69698
S2140055A06FAFA697A7967FAFA797A8968FAFA89737
S2140055B0A9969FAFA997282D392D4A2D5B2D6C2DC6
S2140055C07D2D8E2D9F2DA296AFACA297A396BFAC35
S2140055D0A397A496CFACA497A596DFACA597A6965E
S2140055E0EFACA697A796FFACA797A8960FADA8977F
S2140055F0A9961FADA9970E9433F3822E932EA42E50
S214005600B52EC62ED72EE82EF92E282D392D4A2D4A
S2140056105B2D6C2D7D2D8E2D9F2D02E00E94FCF2C1
S214005620AA962FAFAA97AB963FAFAB97AC964FAF65
S214005630AC97AD965FAFAD97AE966FAFAE97AF96A1
S2140056407FAFAF97E0968FAFE097E1969FAFE19779
S214005650282D392D4A2D5B2D6C2D7D2D8E2D9F2DC1
S214005660AA96AFACAA97AB96BFACAB97AC96CFACAE
S214005670AC97AD96DFACAD97AE96EFACAE97AF9667
S214005680FFACAF97E0960FADE097E1961FADE197C0
S2140056900E9433F3222E332E442E552E662E772E5E
S2140056A0882E992E0F2EF6E0AF2EF02DB12CC12CA1
S2140056B0D12CE12CF12C00E010E0222D332D442DCE
S2140056C0552D662D772D882D992D0E945FF2222E5E
S2140056D0332E442E552E662E772E882E992EA22CEB
S2140056E0B32CC42CD52CE62CF72C082D192D2A2DDE
S2140056F03B2D4C2D5D2D6E2D7F2D802F912F29510A
S2140057003C4F4F4F5F4F6F4F7F4F8F4F9F4FA22E95
S214005710B32EC42ED52EE62EF72E082F192F2A2D9F
S2140057203B2D4C2D5D2D6E2D7F2D802F912F0E94B1
S2140057306DEEDC01CB0120E030E04AE754E4BC012A
S214005740CD010E945DEDDC01CB01BC01CD010E94C4
S214005750CAEDA22EB32EC42ED52EE62EF72E082F77
S214005760192FD601C501BC01CD010E94222160E09F
S2140057708FE20E94DA210E941621DC01CB011C0177
S2140057802D01612C712C43010F2EF6E0AF2EF02D6B
S214005790B12CC12CD12CE12CF12C00E010E0222DF4
S2140057A0332D442D552D662D772D882D992D0E944D
S2140057B05FF2222E332E442E552E662E772E882EFE
S2140057C0992EA22CB32CC42CD52CE62CF72C082D05
S2140057D0192D2A2D3B2D4C2D5D2D6E2D7F2D802FC6
S2140057E0912F29513C4F4F4F5F4F6F4F7F4F8F4F39
S2140057F09F4FA22EB32EC42ED52EE62EF72E082FA0
S214005800192F2A2D3B2D4C2D5D2D6E2D7F2D802F93
S214005810912F0E946DEEDC01CB0120E030E04AE7DC
S21400582054E4BC01CD010E945DEDDC01CB01BC015E
S214005830CD010E94CAEDA22EB32EC42ED52EE62E82
S214005840F72E082F192FD601C501BC01CD010E94E5
S214005850222159CA00001F921F9286E98F931F9239
S21400586085EB94E0892F8F9385EB94E08F931F92BE
S21400587080E48F9380EF97E2892F8F9380EF97E2F3
S2140058808F930E94A5F52DB73EB7265F3F4FCDBF3D
S214005890DEBF8E839F838E819F81AC0160EF77E2AF
S2140058A080EA9BE00E941F1B84EF91E00E948AC35F
S2140058B08AED94E0892F8F938AED94E08F931F9260
S2140058C080E48F9380EF97E2892F8F9380EF97E2A3
