S011000046696E644D655341542E73726563F8
S11300000C945E190C947F190C947F190C947F192D
S11300100C947F190C947F190C94301A0C94581A70
S11300200C94801A0C94A81A0C947F190C94761BC7
S11300300C947F190C94EF420C94473B0C94743B42
S11300400C94A13B0C94CE3B0C94FB3B0C94283CAD
S11300500C94553C0C94823C0C94AF3C0C94DC3CCA
S11300600C947F190C947F190C947F190C947F19AC
S11300700C947F190C947F190C947F190C947F199C
S11300800C947F190C947F190C947F190C947F198C
S11300900C947F190C947F190C947F190C944A3892
S11300A00C947C380C94AE380C94E0380C947F1982
S11300B00C947F190C947F190C9416430C94CB3E2A
S11300C00C94F83E0C94253F0C94523F0C947F3FC3
S11300D00C94AC3F0C94D93F0C9406400C943340E0
S11300E00C9460400C947F190C947F190C947F1924
S11300F00C947F190C947F190C947F190C947F191C
S11301000C947F190C947F190C947F190C947F190B
S11301100C947F190C947F190C947F190C948237DA
S11301200C94B4370C94E6370C9418380C947F195B
S11301300C947F190C94093D0C94363D0C94633D4A
S11301400C94903D0C94BD3D0C94EA3D0C94173EE8
S11301500C94443E0C94713E0C949E3E0C947F1976
S11301600C947F190C947F190C947F190C947F19AB
S11301700C947F190C947F190C947F190C947F199B
S11301800C947F190C947F190C947F190C947F198B
S11301900C947F190C947F190C947F190C947F197B
S11301A00C947F190C947F190C947F190C947F196B
S11301B00C948D400C94BA400C94E7400C94144178
S11301C00C9441410C946E410C947F190C947F194A
S11301D00C947F190C947F190C947F190C947F193B
S11301E00C947F190C947F190C947F190C947F192B
S11301F00C947F190C94D3490C948F4AB444B7449B
S1130200BA44BD44C044C344C644074C1A4C2D4CA4
S1130210404C534C664C794C05A84CCDB2D44EB9E5
S11302203836A9020C50B9918688083CA6AAAA2A95
S1130230BE000000803F07634236B79BD8A71A3937
S1130240685618AEBAAB558C1D3CB7CC5763BD6D20
S1130250EDFD753EF6177231BF000000803F0800C7
S11302600000BE922449123EABAAAA2ABECDCCCC31
S11302704C3E00000080BEABAAAAAA3E00000000CB
S1130280BF000000803F0000000000084178D3BB9D
S11302904387D1133D190E3CC3BD4282AD2B3E684A
S11302A0EC8276BED98FE1A93E4C80EFFFBE01C43B
S11302B0FF7F3F00000000006E616E00696E660003
S11302C000407A10F35A00A0724E18090010A5D409
S11302D0E80000E87648170000E40B54020000CA66
S11302E09A3B000000E1F5050000809698000000AC
S11302F040420F000000A08601000000102700000B
S11303000000E803000000006400000000000A0090
S1130310000000000100000000002C76D888DC6793
S11303204F0823DFC1DFAE59E1B1B796E5E3E453EB
S1130330C63AE651997696E8E6C28426EB898C9B08
S113034062ED407C6FFCEFBC9C9F40F2BAA56FA5A8
S1130350F490055A2AF75C936B6CF9676DC11BFC2A
S1130360E0E40D47FEF520E6B500D0ED902E030045
S1130370943577050080841E080000204E0A000092
S113038000C80C333333330F986E12831141EF8D51
S11303902114893BE65516CFFEE6DB18D1844B3891
S11303A01BF77C1D901DA4BBE424203284725E22C2
S11303B08100C9F124ECA1E53D274E414E494E4947
S11303C05459494E46CDCCCC3D0AD7233C17B7D11E
S11303D03877CC2B329595E6241FB14F0A000020C4
S11303E0410000C84200401C4620BCBE4CCA1B0E43
S11303F05AAEC59D7400FDF9F6F3F0ECE9E6E3DFCF
S1130400DCD9D6D2CF00FDFAF6F3F0EDEAE6E3E06C
S1130410DDDAD7D3D000FDFAF7F3F0EDEAE7E4E153
S1130420DEDAD7D4D100FDFAF7F4F1EEEBE7E4E13C
S1130430DEDBD8D5D200FDFAF7F4F1EEEBE8E5E225
S1130440DFDCD9D6D300FDFAF7F4F1EEEBE8E6E30E
S1130450E0DDDAD7D400FDFAF7F4F2EFECE9E6E3F5
S1130460E0DDDBD8D500FDFAF8F5F2EFECE9E7E4DE
S1130470E1DEDBD9D600FDFAF8F5F2EFEDEAE7E4C8
S1130480E2DFDCD9D700FDFBF8F5F3F0EDEAE8E5AF
S1130490E2E0DDDAD800FDFBF8F5F3F0EEEBE8E698
S11304A0E3E0DEDBD900FDFBF8F6F3F1EEEBE9E681
S11304B0E4E1DFDCDA00FDFBF8F6F3F1EEECE9E76A
S11304C0E4E2DFDDDA00FEFBF9F6F4F1EFECEAE852
S11304D0E5E3E0DEDB00FEFBF9F6F4F2EFEDEBE83A
S11304E0E6E3E1DFDC00FEFBF9F7F4F2F0EDEBE923
S11304F0E7E4E2E0DD00FEFBF9F7F5F2F0EEECE90B
S1130500E7E5E3E0DE00FEFCF9F7F5F3F1EEECEAF3
S1130510E8E6E4E1DF00FEFCFAF7F5F3F1EFEDEBDA
S1130520E9E6E4E2E000FEFCFAF8F6F4F2EFEDEBC3
S1130530E9E7E5E3E100FEFCFAF8F6F4F2F0EEECAC
S1130540EAE8E6E4E200FEFCFAF8F6F4F2F0EFED95
S1130550EBE9E7E5E300FEFCFAF8F7F5F3F1EFED7C
S1130560EBE9E8E6E400FEFCFBF9F7F5F3F1F0EE65
S1130570ECEAE8E7E500FEFCFBF9F7F5F4F2F0EE4F
S1130580EDEBE9E7E600FEFDFBF9F8F6F4F2F1EF36
S1130590EDECEAE8E700FEFDFBF9F8F6F5F3F1F01F
S11305A0EEECEBE9E800FEFDFBFAF8F7F5F3F2F008
S11305B0EFEDECEAE900FEFDFBFAF8F7F5F4F2F1F1
S11305C0EFEEECEBE900FFFDFCFAF9F7F6F4F3F2D9
S11305D0F0EFEDECEA00FFFDFCFAF9F8F6F5F4F2C1
S11305E0F1EFEEEDEB00FFFDFCFBF9F8F7F5F4F3AA
S11305F0F2F0EFEEEC00FFFDFCFBFAF8F7F6F5F392
S1130600F2F1F0EEED00FFFEFCFBFAF9F8F6F5F47A
S1130610F3F2F1EFEE00FFFEFDFBFAF9F8F7F6F561
S1130620F4F2F1F0EF00FFFEFDFCFBFAF9F7F6F54A
S1130630F4F3F2F1F000FFFEFDFCFBFAF9F8F7F633
S1130640F5F4F3F2F100FFFEFDFCFBFAF9F8F8F71C
S1130650F6F5F4F3F200FFFEFDFCFCFBFAF9F8F703
S1130660F6F5F5F4F300FFFEFEFDFCFBFAF9F9F8EC
S1130670F7F6F5F5F400FFFEFEFDFCFBFBFAF9F8D6
S1130680F8F7F6F5F500FFFFFEFDFDFCFBFAFAF9BD
S1130690F8F8F7F6F600FFFFFEFDFDFCFCFBFAFAA6
S11306A0F9F8F8F7F700FFFFFEFEFDFDFCFBFBFA8F
S11306B0FAF9F9F8F800FFFFFEFEFDFDFCFCFBFB78
S11306C0FAFAF9F9F80000FFFFFEFEFDFDFCFCFC60
S11306D0FBFBFAFAF90000FFFFFEFEFEFDFDFDFC48
S11306E0FCFBFBFBFA0000FFFFFFFEFEFEFDFDFD31
S11306F0FDFCFCFCFB0000FFFFFFFFFEFEFEFEFD19
S1130700FDFDFDFCFC000000FFFFFFFFFFFEFEFE01
S1130710FEFEFEFDFD00000000FFFFFFFFFFFFFFE8
S1130720FFFEFEFEFE0000000000000000FFFFFFD1
S1130730FFFFFFFFFF0000000000000000000000BA
S113074000000000000000000000000000010101A2
S11307500101010101000000000101010101010189
S11307600102020202000000010101010102020271
S1130770020202030300000101010102020202035A
S11307800303030404000001010102020203030342
S1130790030404040500000101020202030303042C
S11307A00405050506000001010202030304040414
S11307B005050606070001010202030304040505FA
S11307C006060707080001010202030304050506E3
S11307D006070708080001010203030404050606CE
S11307E007080809090001010203030405060607B6
S11307F00808090A0A00010202030405050607089D
S113080008090A0B0B000102020304050607070886
S1130810090A0B0B0C00010203040405060708096E
S11308200A0B0B0C0D000102030405060708080956
S11308300A0B0C0D0E000102030405060708090A41
S11308400B0C0D0E0F0001020304050607090A0B29
S11308500C0D0E0F100001020305060708090A0B10
S11308600C0E0F101100010204050607080A0B0CF8
S11308700D0E0F111200010304050608090A0B0DE1
S11308800E0F10121300010304050708090B0C0DC9
S11308900E10111214000103040607080A0B0C0EB3
S11308A00F11121315000103040607090A0C0D0E9B
S11308B01011131416000203050608090B0C0E0F81
S11308C01112141517000203050608090B0D0E106A
S11308D011131416170002030507080A0B0D0F1055
S11308E012141517180002030507080A0C0E0F113D
S11308F013141618190002040507090B0C0E101224
S1130900131517191A0002040507090B0D0F10120D
S1130910141618191B0002040608090B0D0F1113F5
S11309201517181A1C00020406080A0C0E101113DD
S11309301517191B1D00020406080A0C0E101214C8
S113094016181A1C1E00020406080A0C0E111315B0
S113095017191B1D1F00020406090B0D0F11131597
S1130960171A1C1E2000020407090B0D0F1214167F
S1130970181A1C1F2100020507090B0E1012141768
S1130980191B1D202200020507090C0E1013151750
S1130990191C1E2023000205070A0C0E111315183A
S11309A01A1D1F2124000205070A0C0F1114161822
S11309B01B1D202225000305080A0D0F1214171908
S11309C01C1E212326000305080A0D0F1215171AF1
S11309D01C1F212426000305080B0D101215181ADC
S11309E01D20222527000305080B0D101316181BC4
S11309F01E20232628000306080B0E111316191CAB
S1130A001E21242729000306080B0E111417191C94
S1130A101F2225272A000306090C0E1114171A1D7C
S1130A20202325282B000306090C0F1215181A1D64
S1130A30202326292C000306090C0F1215181B1E4F
S1130A402124272A2D000306090C0F1215191C1F37
S1130A502225282B2E000306090D101316191C1F1E
S1130A602226292C2F0003060A0D1013161A1D2006
S1130A702326292D300080328064809680C980FB33
S1130A80802D815F819281C481F68128825B828D71
S1130A9082BF82F182248356838883BA83ED831FC5
S1130AA08451848384B684E8841A854C857E85B118
S1130AB085E385158647867A86AC86DE861087426E
S1130AC0877487A787D9870B883D886F88A188D4C6
S1130AD088068938896A899C89CE89008A328A6520
S1130AE08A978AC98AFB8A2D8B5F8B918BC38BF57E
S1130AF08B278C598C8B8CBD8CEF8C218D538D85E1
S1130B008DB78DE98D1B8E4D8E7F8EB18EE38E1544
S1130B108F478F798FAB8FDC8F0E9040907290A4AB
S1130B2090D690079139916B919D91CF910092321B
S1130B309264929692C792F9922B935D938E93C08E
S1130B4093F293239455948694B894EA941B954D08
S1130B50957E95B095E195139644967696A796D989
S1130B60960A973C976D979F97D09701983398640E
S1130B70989598C798F89829995B998C99BD99EE9E
S1130B8099209A519A829AB39AE49A159B469B7833
S1130B909BA99BDA9B0B9C3C9C6D9C9E9CCF9C00D0
S1130BA09D319D629D939DC39DF49D259E569E8778
S1130BB09EB89EE89E199F4A9F7B9FAB9FDC9F0D2A
S1130BC0A03DA06EA09FA0CFA000A130A161A191E3
S1130BD0A1C2A1F2A123A253A284A2B4A2E4A215A9
S1130BE0A345A375A3A6A3D6A306A436A467A49776
S1130BF0A4C7A4F7A427A557A587A5B7A5E7A51754
S1130C00A647A677A6A7A6D7A607A737A767A79735
S1130C10A7C6A7F6A726A856A885A8B5A8E5A81428
S1130C20A944A973A9A3A9D2A902AA31AA61AA9025
S1130C30AAC0AAEFAA1EAB4EAB7DABACABDBAB0B31
S1130C40AC3AAC69AC98ACC7ACF6AC25AD54AD834A
S1130C50ADB2ADE1AD10AE3FAE6EAE9DAECCAEFA70
S1130C60AE29AF58AF86AFB5AFE4AF12B041B06FA5
S1130C70B09EB0CCB0FBB029B158B186B1B4B1E3E9
S1130C80B111B23FB26DB29CB2CAB2F8B226B3543B
S1130C90B382B3B0B3DEB30CB43AB468B496B4C39D
S1130CA0B4F1B41FB54DB57AB5A8B5D6B503B63110
S1130CB0B65EB68CB6B9B6E7B614B741B76FB79C93
S1130CC0B7C9B7F6B724B851B87EB8ABB8D8B80529
S1130CD0B932B95FB98CB9B9B9E6B912BA3FBA6CCD
S1130CE0BA99BAC5BAF2BA1FBB4BBB78BBA4BBD185
S1130CF0BBFDBB29BC56BC82BCAEBCDBBC07BD3350
S1130D00BD5FBD8BBDB7BDE3BD0FBE3BBE67BE932C
S1130D10BEBFBEEBBE16BF42BF6EBF99BFC5BFF01C
S1130D20BF1CC047C073C09EC0CAC0F5C020C14C20
S1130D30C177C1A2C1CDC1F8C123C24EC279C2A438
S1130D40C2CFC2FAC225C350C37AC3A5C3D0C3FA63
S1130D50C325C44FC47AC4A4C4CFC4F9C423C54EA4
S1130D60C578C5A2C5CCC5F6C520C64AC674C69EFC
S1130D70C6C8C6F2C61CC746C76FC799C7C3C7EC67
S1130D80C716C83FC869C892C8BCC8E5C80EC938E8
S1130D90C961C98AC9B3C9DCC905CA2ECA57CA8080
S1130DA0CAA9CAD2CAFACA23CB4CCB74CB9DCBC531
S1130DB0CBEECB16CC3FCC67CC8FCCB8CCE0CC08F8
S1130DC0CD30CD58CD80CDA8CDD0CDF8CD20CE48D6
S1130DD0CE6FCE97CEBFCEE6CE0ECF35CF5DCF84CD
S1130DE0CFACCFD3CFFACF21D049D070D097D0BEDB
S1130DF0D0E5D00CD133D159D180D1A7D1CED1F403
S1130E00D11BD241D268D28ED2B5D2DBD201D32843
S1130E10D34ED374D39AD3C0D3E6D30CD432D4589C
S1130E20D47DD4A3D4C9D4EFD414D53AD55FD58511
S1130E30D5AAD5CFD5F4D51AD63FD664D689D6AEA1
S1130E40D6D3D6F8D61DD742D766D78BD7B0D7D44A
S1130E50D7F9D71DD842D866D88AD8AFD8D3D8F70F
S1130E60D81BD93FD963D987D9ABD9CFD9F3D916F0
S1130E70DA3ADA5EDA81DAA5DAC8DAECDA0FDB32EA
S1130E80DB56DB79DB9CDBBFDBE2DB05DC28DC4B00
S1130E90DC6DDC90DCB3DCD6DCF8DC1BDD3DDD5F37
S1130EA0DD82DDA4DDC6DDE9DD0BDE2DDE4FDE7186
S1130EB0DE93DEB4DED6DEF8DE1ADF3BDF5DDF7EF6
S1130EC0DFA0DFC1DFE2DF04E025E046E067E08881
S1130ED0E0A9E0CAE0EBE00CE12DE14DE16EE18E2A
S1130EE0E1AFE1CFE1F0E110E230E251E271E291F1
S1130EF0E2B1E2D1E2F1E211E330E350E370E38FD7
S1130F00E3AFE3CEE3EEE30DE42DE44CE46BE48ADB
S1130F10E4A9E4C8E4E7E406E525E544E562E581FF
S1130F20E5A0E5BEE5DDE5FBE519E638E656E67441
S1130F30E692E6B0E6CEE6ECE60AE728E745E763A4
S1130F40E781E79EE7BCE7D9E7F7E714E831E84E25
S1130F50E86BE888E8A5E8C2E8DFE8FCE819E935C9
S1130F60E952E96EE98BE9A7E9C4E9E0E9FCE9188B
S1130F70EA34EA50EA6CEA88EAA4EAC0EADBEAF76F
S1130F80EA13EB2EEB4AEB65EB80EB9CEBB7EBD271
S1130F90EBEDEB08EC23EC3EEC58EC73EC8EECA898
S1130FA0ECC3ECDDECF8EC12ED2CED47ED61ED7BE0
S1130FB0ED95EDAFEDC9EDE3EDFCED16EE30EE4948
S1130FC0EE63EE7CEE95EEAFEEC8EEE1EEFAEE13D4
S1130FD0EF2CEF45EF5EEF76EF8FEFA8EFC0EFD980
S1130FE0EFF1EF09F022F03AF052F06AF082F09A51
S1130FF0F0B2F0CAF0E1F0F9F011F128F140F15744
S1131000F16EF186F19DF1B4F1CBF1E2F1F9F11059
S1131010F226F23DF254F26AF281F297F2AEF2C491
S1131020F2DAF2F0F206F31CF332F348F35EF374EF
S1131030F389F39FF3B5F3CAF3DFF3F5F30AF41F6F
S1131040F434F449F45EF473F488F49DF4B1F4C612
S1131050F4DBF4EFF403F518F52CF540F554F568DA
S1131060F57CF590F5A4F5B8F5CCF5DFF5F3F506C8
S1131070F61AF62DF640F653F667F67AF68DF6A0D4
S1131080F6B2F6C5F6D8F6EAF6FDF610F722F7340E
S1131090F747F759F76BF77DF78FF7A1F7B3F7C465
S11310A0F7D6F7E8F7F9F70BF81CF82EF83FF850E5
S11310B0F861F872F883F894F8A5F8B6F8C6F8D78A
S11310C0F8E7F8F8F808F919F929F939F949F95953
S11310D0F969F979F989F998F9A8F9B8F9C7F9D743
S11310E0F9E6F9F5F904FA14FA23FA32FA41FA4F57
S11310F0FA5EFA6DFA7CFA8AFA99FAA7FAB5FAC492
S1131100FAD2FAE0FAEEFAFCFA0AFB18FB25FB33F2
S1131110FB41FB4EFB5CFB69FB76FB83FB91FB9E77
S1131120FBABFBB8FBC4FBD1FBDEFBEBFBF7FB0427
S1131130FC10FC1CFC29FC35FC41FC4DFC59FC65F5
S1131140FC70FC7CFC88FC93FC9FFCAAFCB6FCC1F4
S1131150FCCCFCD7FCE2FCEDFCF8FC03FD0EFD1816
S1131160FD23FD2EFD38FD42FD4DFD57FD61FD6B58
S1131170FD75FD7FFD89FD93FD9CFDA6FDB0FDB9C8
S1131180FDC2FDCCFDD5FDDEFDE7FDF0FDF9FD0260
S1131190FE0BFE13FE1CFE25FE2DFE36FE3EFE4615
S11311A0FE4EFE56FE5EFE66FE6EFE76FE7EFE85FC
S11311B0FE8DFE94FE9CFEA3FEAAFEB2FEB9FEC006
S11311C0FEC7FECEFED4FEDBFEE2FEE8FEEFFEF539
S11311D0FEFCFE02FF08FF0EFF14FF1AFF20FF268D
S11311E0FF2CFF31FF37FF3CFF42FF47FF4CFF520C
S11311F0FF57FF5CFF61FF66FF6AFF6FFF74FF78B4
S1131200FF7DFF81FF86FF8AFF8EFF92FF96FF9A84
S1131210FF9EFFA2FFA6FFA9FFADFFB0FFB4FFB77B
S1131220FFBBFFBEFFC1FFC4FFC7FFCAFFCDFFCF97
S1131230FFD2FFD5FFD7FFD9FFDCFFDEFFE0FFE2DF
S1131240FFE4FFE6FFE8FFEAFFECFFEEFFEFFFF14C
S1131250FFF2FFF3FFF5FFF6FFF7FFF8FFF9FFFAE0
S1131260FFFBFFFBFFFCFFFDFFFDFFFEFFFEFFFE9C
S1131270FFFEFFFEFFFFFFFEFFFEFFFEFFFEFFFE81
S1131280FFFDFFFDFFFCFFFBFFFBFFFAFFF9FFF88B
S1131290FFF7FFF6FFF5FFF3FFF2FFF1FFEFFFEEBD
S11312A0FFECFFEAFFE8FFE6FFE4FFE2FFE0FFDE1A
S11312B0FFDCFFD9FFD7FFD5FFD2FFCFFFCDFFCA99
S11312C0FFC7FFC4FFC1FFBEFFBBFFB7FFB4FFB042
S11312D0FFADFFA9FFA6FFA2FF9EFF9AFF96FF9214
S11312E0FF8EFF8AFF86FF81FF7DFF78FF74FF6F0B
S11312F0FF6AFF66FF61FF5CFF57FF52FF4CFF4729
S1131300FF42FF3CFF37FF31FF2CFF26FF20FF1A6F
S1131310FF14FF0EFF08FF02FFFCFEF5FEEFFEE8E0
S1131320FEE2FEDBFED4FECEFEC7FEC0FEB9FEB278
S1131330FEAAFEA3FE9CFE94FE8DFE85FE7EFE7636
S1131340FE6EFE66FE5EFE56FE4EFE46FE3EFE3619
S1131350FE2DFE25FE1CFE13FE0BFE02FEF9FDF023
S1131360FDE7FDDEFDD5FDCCFDC2FDB9FDB0FDA65A
S1131370FD9CFD93FD89FD7FFD75FD6BFD61FD57B2
S1131380FD4DFD42FD38FD2EFD23FD18FD0EFD0330
S1131390FDF8FCEDFCE2FCD7FCCCFCC1FCB6FCAADD
S11313A0FC9FFC93FC88FC7CFC70FC65FC59FC4DA8
S11313B0FC41FC35FC29FC1CFC10FC04FCF7FBEB99
S11313C0FBDEFBD1FBC4FBB8FBABFB9EFB91FB83B9
S11313D0FB76FB69FB5CFB4EFB41FB33FB25FB18F7
S11313E0FB0AFBFCFAEEFAE0FAD2FAC4FAB5FAA761
S11313F0FA99FA8AFA7CFA6DFA5EFA4FFA41FA32ED
S1131400FA23FA14FA04FAF5F9E6F9D7F9C7F9B8A0
S1131410F9A8F998F989F979F969F959F949F9397A
S1131420F929F919F908F9F8F8E7F8D7F8C6F8B678
S1131430F8A5F894F883F872F861F850F83FF82E9C
S1131440F81CF80BF8F9F7E8F7D6F7C4F7B3F7A1E7
S1131450F78FF77DF76BF759F747F734F722F71053
S1131460F7FDF6EAF6D8F6C5F6B2F6A0F68DF67AEA
S1131470F667F653F640F62DF61AF606F6F3F5DFA0
S1131480F5CCF5B8F5A4F590F57CF568F554F54080
S1131490F52CF518F503F5EFF4DBF4C6F4B1F49D7F
S11314A0F488F473F45EF449F434F41FF40AF4F5A4
S11314B0F3DFF3CAF3B5F39FF389F374F35EF348F0
S11314C0F332F31CF306F3F0F2DAF2C4F2AEF2975D
S11314D0F281F26AF254F23DF226F210F2F9F1E2EC
S11314E0F1CBF1B4F19DF186F16EF157F140F128A1
S11314F0F111F1F9F0E1F0CAF0B2F09AF082F06A79
S1131500F052F03AF022F009F0F1EFD9EFC0EFA871
S1131510EF8FEF76EF5EEF45EF2CEF13EFFAEEE18E
S1131520EEC8EEAFEE95EE7CEE63EE49EE30EE16CD
S1131530EEFCEDE3EDC9EDAFED95ED7BED61ED472F
S1131540ED2CED12EDF8ECDDECC3ECA8EC8EEC73B5
S1131550EC58EC3EEC23EC08ECEDEBD2EBB7EB9C57
S1131560EB80EB65EB4AEB2EEB13EBF7EADBEAC01F
S1131570EAA4EA88EA6CEA50EA34EA18EAFCE9E008
S1131580E9C4E9A7E98BE96EE952E935E919E9FC0F
S1131590E8DFE8C2E8A5E888E86BE84EE831E8143B
S11315A0E8F7E7D9E7BCE79EE781E763E745E72883
S11315B0E70AE7ECE6CEE6B0E692E674E656E638ED
S11315C0E619E6FBE5DDE5BEE5A0E581E562E54477
S11315D0E525E506E5E7E4C8E4A9E48AE46BE44C20
S11315E0E42DE40DE4EEE3CEE3AFE38FE370E350E8
S11315F0E330E311E3F1E2D1E2B1E291E271E251CD
S1131600E230E210E2F0E1CFE1AFE18EE16EE14DD4
S1131610E12DE10CE1EBE0CAE0A9E088E067E046F7
S1131620E025E004E0E2DFC1DFA0DF7EDF5DDF3B39
S1131630DF1ADFF8DED6DEB4DE93DE71DE4FDE2D98
S1131640DE0BDEE9DDC6DDA4DD82DD5FDD3DDD1B15
S1131650DDF8DCD6DCB3DC90DC6DDC4BDC28DC05AF
S1131660DCE2DBBFDB9CDB79DB56DB32DB0FDBEC64
S1131670DAC8DAA5DA81DA5EDA3ADA16DAF3D9CF39
S1131680D9ABD987D963D93FD91BD9F7D8D3D8AF28
S1131690D88AD866D842D81DD8F9D7D4D7B0D78B32
S11316A0D766D742D71DD7F8D6D3D6AED689D66457
S11316B0D63FD61AD6F4D5CFD5AAD585D55FD53A97
S11316C0D514D5EFD4C9D4A3D47DD458D432D40CF2
S11316D0D4E6D3C0D39AD374D34ED328D301D3DB67
S11316E0D2B5D28ED268D241D21BD2F4D1CED1A7F8
S11316F0D180D159D133D10CD1E5D0BED097D0709F
S1131700D049D021D0FACFD3CFACCF84CF5DCF3561
S1131710CF0ECFE6CEBFCE97CE6FCE48CE20CEF83A
S1131720CDD0CDA8CD80CD58CD30CD08CDE0CCB82E
S1131730CC8FCC67CC3FCC16CCEECBC5CB9DCB7439
S1131740CB4CCB23CBFACAD2CAA9CA80CA57CA2E59
S1131750CA05CADCC9B3C98AC961C938C90EC9E591
S1131760C8BCC892C869C83FC816C8ECC7C3C799E3
S1131770C76FC746C71CC7F2C6C8C69EC674C64A4A
S1131780C620C6F6C5CCC5A2C578C54EC523C5F9C5
S1131790C4CFC4A4C47AC44FC425C4FAC3D0C3A557
S11317A0C37AC350C325C3FAC2CFC2A4C279C24EFE
S11317B0C223C2F8C1CDC1A2C177C14CC120C1F5B9
S11317C0C0CAC09EC073C047C01CC0F0BFC5BF998B
S11317D0BF6EBF42BF16BFEBBEBFBE93BE67BE3B6C
S11317E0BE0FBEE3BDB7BD8BBD5FBD33BD07BDDB63
S11317F0BCAEBC82BC56BC29BCFDBBD1BBA4BB786F
S1131800BB4BBB1FBBF2BAC5BA99BA6CBA3FBA128A
S1131810BAE6B9B9B98CB95FB932B905B9D8B8ABB8
S1131820B87EB851B824B8F6B7C9B79CB76FB741FA
S1131830B714B7E7B6B9B68CB65EB631B603B6D64A
S1131840B5A8B57AB54DB51FB5F1B4C3B496B468AF
S1131850B43AB40CB4DEB3B0B382B354B326B3F821
S1131860B2CAB29CB26DB23FB211B2E3B1B4B186A6
S1131870B158B129B1FBB0CCB09EB06FB041B01239
S1131880B0E4AFB5AF86AF58AF29AFFAAECCAE9DDA
S1131890AE6EAE3FAE10AEE1ADB2AD83AD54AD258C
S11318A0ADF6ACC7AC98AC69AC3AAC0BACDBABAC4A
S11318B0AB7DAB4EAB1EABEFAAC0AA90AA61AA3116
S11318C0AA02AAD2A9A3A973A944A914A9E5A8B5EF
S11318D0A885A856A826A8F6A7C6A797A767A737D6
S11318E0A707A7D7A6A7A677A647A617A6E7A5B7CB
S11318F0A587A557A527A5F7A4C7A497A467A436C9
S1131900A406A4D6A3A6A375A345A315A3E4A2B4D1
S1131910A284A253A223A2F2A1C2A191A161A130E7
S1131920A100A1CFA09FA06EA03DA00DA0DC9FAB05
S11319309F7B9F4A9F199FE89EB89E879E569E252F
S11319409EF49DC39D939D629D319D009DCF9C9E61
S11319509C6D9C3C9C0B9CDA9BA99B789B469B159D
S11319609BE49AB39A829A519A209AEE99BD998CE3
S1131970995B992999F898C7989598649833980130
S113198098D0979F976D973C970A97D996A7967684
S11319909644961396E195B0957E954D951B95EAE0
S11319A094B894869455942394F293C0938E935D43
S11319B0932B93F992C7929692649232920092CFAB
S11319C0919D916B9139910791D690A4907290401A
S11319D0900E90DC8FAB8F798F478F158FE38EB18C
S11319E08E7F8E4D8E1B8EE98DB78D858D538D2107
S11319F08DEF8CBD8C8B8C598C278CF58BC38B9184
S1131A008B5F8B2D8BFB8AC98A978A658A328A0001
S1131A108ACE899C896A8938890689D488A1886F85
S1131A20883D880B88D987A787748742871087DE0B
S1131A3086AC867A8647861586E385B1857E854C95
S1131A40851A85E884B684838451841F84ED83BA1F
S1131A5083888356832483F182BF828D825B8228AC
S1131A6082F681C48192815F812D81FB80C9809639
S1131A7080648032800080CD7F9B7F697F367F04C5
S1131A807FD27EA07E6D7E3B7E097ED77DA47D7253
S1131A907D407D0E7DDB7CA97C777C457C127CE0DF
S1131AA07BAE7B7C7B497B177BE57AB37A817A4E6C
S1131AB07A1C7AEA79B879857953792179EF78BDF6
S1131AC0788B7858782678F477C27790775E772B7E
S1131AD077F976C776957663763176FF75CD759A04
S1131AE075687536750475D274A0746E743C740A86
S1131AF074D873A673747342731073DE72AC727A03
S1131B007248721672E471B27180714E711C71EA7E
S1131B1070B870867054702370F16FBF6F8D6F5BF7
S1131B206F296FF86EC66E946E626E306EFF6DCD67
S1131B306D9B6D696D386D066DD46CA26C716C3FD4
S1131B406C0D6CDC6BAA6B796B476B156BE46AB23A
S1131B506A816A4F6A1E6AEC69BB69896958692699
S1131B6069F568C368926860682F68FE67CC679BF4
S1131B70676A6738670767D666A466736642661144
S1131B8066DF65AE657D654C651B65EA64B964878F
S1131B906456642564F463C363926361633063FFD2
S1131BA062CE629D626C623C620B62DA61A961780A
S1131BB06147611761E660B560846054602360F238
S1131BC05FC25F915F605F305FFF5ECF5E9E5E6E5F
S1131BD05E3D5E0D5EDC5DAC5D7B5D4B5D1B5DEA79
S1131BE05CBA5C8A5C595C295CF95BC95B985B688C
S1131BF05B385B085BD85AA85A785A485A185AE88E
S1131C0059B859885958592859F858C8589858688B
S1131C105839580958D957A9577A574A571A57EB78
S1131C2056BB568C565C562D56FD55CE559E556F5B
S1131C30553F551055E154B154825453542454F42F
S1131C4053C5539653675338530953DA52AB527CF6
S1131C50524D521E52EF51C05191516251335105B0
S1131C6051D650A75079504A501B50ED4FBE4F905B
S1131C704F614F334F044FD64EA74E794E4B4E1CF7
S1131C804EEE4DC04D924D634D354D074DD94CAB85
S1131C904C7D4C4F4C214CF34BC54B974B694B3C03
S1131CA04B0E4BE04AB24A854A574A294AFC49CE70
S1131CB049A149734946491849EB48BE48904863CD
S1131CC04836480948DB47AE47814754472747FA17
S1131CD046CD46A046734646461946ED45C0459353
S1131CE04566453A450D45E044B44487445B442E7B
S1131CF0440244D643A9437D4351432443F842CC90
S1131D0042A042744248421C42F041C44198416C92
S1131D104140411441E940BD40914066403A400F82
S1131D2040E33FB83F8C3F613F353F0A3FDF3EB35E
S1131D303E883E5D3E323E073EDC3DB13D863D5B26
S1131D403D303D053DDA3CAF3C853C5A3C2F3C05DB
S1131D503CDA3BB03B853B5B3B303B063BDC3AB17A
S1131D603A873A5D3A333A093ADF39B5398B396102
S1131D703937390D39E338B938903866383C381377
S1131D8038E937C03796376D3743371A37F136C7D6
S1131D90369E3675364C362336FA35D135A8357F1E
S1131DA03556352D350535DC34B3348B3462343A4D
S1131DB0341134E933C0339833703347331F33F766
S1131DC032CF32A7327F3257322F320732DF31B768
S1131DD0319031683140311931F130CA30A2307B51
S1131DE03053302C300530DE2FB62F8F2F682F4123
S1131DF02F1A2FF32ECC2EA62E7F2E582E312E0BDB
S1131E002EE42DBE2D972D712D4A2D242DFE2CD779
S1131E102CB12C8B2C652C3F2C192CF32BCD2BA700
S1131E202B822B5C2B362B102BEB2AC52AA02A7A6B
S1131E302A552A302A0B2AE529C0299B29762951BB
S1131E40292C290729E228BD28992874284F282BF2
S1131E50280628E227BD279927752750272C27080D
S1131E6027E426C0269C267826542630260C26E90C
S1131E7025C525A1257E255A2537251325F024CDF2
S1131E8024A9248624632440241D24FA23D723B4BC
S1131E902392236F234C2329230723E422C222A065
S1131EA0227D225B2239221622F421D221B0218EF6
S1131EB0216C214B2129210721E520C420A2208166
S1131EC0205F203E201D20FB1FDA1FB91F981F77BB
S1131ED01F561F351F141FF31ED21EB21E911E71F2
S1131EE01E501E301E0F1EEF1DCF1DAE1D8E1D6E0B
S1131EF01D4E1D2E1D0E1DEE1CCF1CAF1C8F1C7005
S1131F001C501C311C111CF21BD21BB31B941B75DF
S1131F101B561B371B181BF91ADA1ABB1A9D1A7E9B
S1131F201A5F1A411A221A041AE619C719A9198B39
S1131F30196D194F1931191319F518D718BA189CB6
S1131F40187E186118431826180818EB17CE17B115
S1131F5017941777175A173D1720170317E616CA51
S1131F6016AD169116741658163B161F160316E76F
S1131F7015CB15AF15931577155B153F152415086B
S1131F8015EC14D114B5149A147F14631448142D49
S1131F90141214F713DC13C113A7138C1371135702
S1131FA0133C1322130713ED12D312B8129E12849A
S1131FB0126A12501236121C120312E911CF11B612
S1131FC0119C1183116A11501137111E110511EC66
S1131FD010D310BA10A1108910701057103F10269A
S1131FE0100E10F60FDD0FC50FAD0F950F7D0F65A9
S1131FF00F4D0F350F1E0F060FEE0ED70EBF0EA896
S11320000E910E790E620E4B0E340E1D0E060EEF5F
S11320100DD90DC20DAB0D950D7E0D680D510D3B07
S11320200D250D0F0DF90CE30CCD0CB70CA10C8B89
S11320300C760C600C4A0C350C200C0A0CF50BE0E9
S11320400BCB0BB60BA10B8C0B770B620B4E0B3926
S11320500B240B100BFC0AE70AD30ABF0AAB0A973E
S11320600A830A6F0A5B0A470A330A200A0C0AF930
S113207009E509D209BF09AC099809850972095F04
S1132080094D093A09270915090209EF08DD08CBAA
S113209008B808A6089408820870085E084C083B33
S11320A008290817080608F407E307D107C007AF93
S11320B0079E078D077C076B075A074907390728CE
S11320C00718070707F706E606D606C606B606A6E5
S11320D006960686067606670657064706380628D5
S11320E00619060A06FB05EB05DC05CD05BE05B0A1
S11320F005A105920583057505660558054A053B46
S1132100052D051F0511050305F504E704DA04CCC4
S113211004BE04B104A304960489047C046E04611F
S113212004540447043B042E04210414040804FB4F
S113213003EF03E303D603CA03BE03B203A6039A61
S1132140038F03830377036C036003550349033E42
S113215003330328031D0312030703FC02F102E700
S113216002DC02D102C702BD02B202A8029E02949E
S1132170028A02800276026C02630259024F02460E
S1132180023D0233022A02210218020F020602FD56
S113219001F401EC01E301DA01D201C901C101B981
S11321A001B101A901A10199019101890181017A7A
S11321B00172016B0163015C0155014D0146013F50
S11321C001380131012B0124011D01170110010AFD
S11321D0010301FD00F700F100EB00E500DF00D989
S11321E000D300CE00C800C300BD00B800B300ADEA
S11321F000A800A3009E009900950090008B008722
S11322000082007E007900750071006D0069006530
S11322100061005D005900560052004F004B004819
S113222000440041003E003B0038003500320030DD
S1132230002D002A0028002600230021001F001D75
S1132240001B001900170015001300110010000EE8
S1132250000D000C000A0009000800070006000534
S11322600004000400030002000200010001000158
S11322700001000100010001000100010001000152
S11322800002000200030004000400050006000729
S113229000080009000A000C000D000E00100011D7
S11322A00013001500170019001B001D001F00215A
S11322B0002300260028002A002D003000320035BB
S11322C00038003B003E004100440048004B004FF2
S11322D0005200560059005D006100650069006D00
S11322E0007100750079007E00820087008B0090E9
S11322F000950099009E00A300A800AD00B300B8AB
S113230000BD00C300C800CE00D300D900DF00E543
S113231000EB00F100F700FD0003010A01100117B2
S1132320011D0124012B01310138013F0146014DFA
S11323300155015C0163016B0172017A018101891C
S11323400191019901A101A901B101B901C101C919
S113235001D201DA01E301EC01F401FD0106020FEF
S113236002180221022A0233023D0246024F025998
S11323700263026C02760280028A0294029E02A820
S113238002B202BD02C702D102DC02E702F102FC82
S113239002070312031D03280333033E03490355B5
S11323A00360036C03770383038F039A03A603B2CA
S11323B003BE03CA03D603E303EF03FB03080414B9
S11323C00421042E043B044704540461046E047C79
S11323D00489049604A304B104BE04CC04DA04E71B
S11323E004F504030511051F052D053B054A055891
S11323F0056605750583059205A105B005BE05CDE5
S113240005DC05EB05FB050A061906280638064710
S11324100657066706760686069606A606B606C616
S113242006D606E606F706070718072807390749F8
S1132430075A076B077C078D079E07AF07C007D1B4
S113244007E307F4070608170829083B084C085E49
S113245008700882089408A608B808CB08DD08EFBD
S1132460080209150927093A094D095F0972098506
S1132470099809AC09BF09D209E509F9090C0A2030
S11324800A330A470A5B0A6F0A830A970AAB0ABF30
S11324900AD30AE70AFC0A100B240B390B4E0B6211
S11324A00B770B8C0BA10BB60BCB0BE00BF50B0ACC
S11324B00C200C350C4A0C600C760C8B0CA10CB760
S11324C00CCD0CE30CF90C0F0D250D3B0D510D68D3
S11324D00D7E0D950DAB0DC20DD90DEF0D060E1D24
S11324E00E340E4B0E620E790E910EA80EBF0ED74F
S11324F00EEE0E060F1E0F350F4D0F650F7D0F9557
S11325000FAD0FC50FDD0FF60F0E1026103F10573D
S11325101070108910A110BA10D310EC1005111E00
S113252011371150116A1183119C11B611CF11E9A1
S11325301103121C12361250126A1284129E12B81F
S113254012D312ED12071322133C13571371138C79
S113255013A713C113DC13F71312142D14481463B7
S1132560147F149A14B514D114EC14081524153FCF
S1132570155B1577159315AF15CB15E71503161FC6
S1132580163B16581674169116AD16CA16E616039F
S11325901720173D175A1777179417B117CE17EB53
S11325A01708182618431861187E189C18BA18D7EB
S11325B018F518131931194F196D198B19A919C761
S11325C019E619041A221A411A5F1A7E1A9D1ABBB7
S11325D01ADA1AF91A181B371B561B751B941BB3EE
S11325E01BD21BF21B111C311C501C701C8F1CAF06
S11325F01CCF1CEE1C0E1D2E1D4E1D6E1D8E1DAE01
S11326001DCF1DEF1D0F1E301E501E711E911EB2D8
S11326101ED21EF31E141F351F561F771F981FB995
S11326201FDA1FFB1F1D203E205F208120A220C433
S113263020E520072129214B216C218E21B021D2B4
S113264021F421162239225B227D22A022C222E417
S113265022072329234C236F239223B423D723FA5D
S1132660231D24402463248624A924CD24F0241388
S11326702537255A257E25A125C525E9250C263093
S113268026542678269C26C026E42608272C275084
S11326902775279927BD27E22706282B284F28745A
S11326A0289928BD28E22807292C29512976299B15
S11326B029C029E5290B2A302A552A7A2AA02AC5B5
S11326C02AEB2A102B362B5C2B822BA72BCD2BF33A
S11326D02B192C3F2C652C8B2CB12CD72CFE2C24A5
S11326E02D4A2D712D972DBE2DE42D0B2E312E58F4
S11326F02E7F2EA62ECC2EF32E1A2F412F682F8F2D
S11327002FB62FDE2F05302C3053307B30A230CA49
S113271030F1301931403168319031B731DF310750
S1132720322F3257327F32A732CF32F7321F33473C
S11327303370339833C033E93311343A3462348B11
S113274034B334DC3405352D3556357F35A835D1D1
S113275035FA3523364C3675369E36C736F1361A79
S11327603743376D379637C037E93713383C386607
S1132770389038B938E3380D39373961398B39B580
S113278039DF39093A333A5D3A873AB13ADC3A06E5
S11327903B303B5B3B853BB03BDA3B053C2F3C5A33
S11327A03C853CAF3CDA3C053D303D5B3D863DB16C
S11327B03DDC3D073E323E5D3E883EB33EDF3E0A91
S11327C03F353F613F8C3FB83FE33F0F403A40669F
S11327D0409140BD40E940144140416C419841C49E
S11327E041F0411C4248427442A042CC42F8422487
S11327F04351437D43A943D64302442E445B44875B
S113280044B444E0440D453A4566459345C045ED1E
S113281045194646467346A046CD46FA46274754D0
S1132820478147AE47DB470948364863489048BE6E
S113283048EB48184946497349A149CE49FC4929FE
S11328404A574A854AB24AE04A0E4B3C4B694B9779
S11328504BC54BF34B214C4F4C7D4CAB4CD94C07E7
S11328604D354D634D924DC04DEE4D1C4E4B4E7942
S11328704EA74ED64E044F334F614F904FBE4FED8F
S11328804F1B504A507950A750D6500551335162CE
S1132890519151C051EF511E524D527C52AB52DAFC
S11328A0520953385367539653C553F4532454531E
S11328B0548254B154E15410553F556F559E55CE32
S11328C055FD552D565C568C56BB56EB561A574A39
S11328D0577A57A957D9570958395868589858C832
S11328E058F858285958598859B859E859185A481D
S11328F05A785AA85AD85A085B385B685B985BC9FF
S11329005BF95B295C595C8A5CBA5CEA5C1B5D4BD5
S11329105D7B5DAC5DDC5D0D5E3D5E6E5E9E5ECF9F
S11329205EFF5E305F605F915FC25FF25F23605461
S1132930608460B560E660176147617861A961DA17
S1132940610B623C626C629D62CE62FF62306361C5
S1132950639263C363F463256456648764B964EA69
S1132960641B654C657D65AE65DF65116642667303
S113297066A466D666076738676A679B67CC67FE96
S1132980672F6860689268C368F568266958698922
S113299069BB69EC691E6A4F6A816AB26AE46A15A6
S11329A06B476B796BAA6BDC6B0D6C3F6C716CA223
S11329B06CD46C066D386D696D9B6DCD6DFF6D309B
S11329C06E626E946EC66EF86E296F5B6F8D6FBF0C
S11329D06FF16F237054708670B870EA701C714E7A
S11329E0718071B271E471167248727A72AC72DEDF
S11329F072107342737473A673D8730A743C746E42
S1132A0074A074D2740475367568759A75CD75FFA3
S1132A1075317663769576C776F9762B775E7790FF
S1132A2077C277F477267858788B78BD78EF782159
S1132A307953798579B879EA791C7A4E7A817AB3AF
S1132A407AE57A177B497B7C7BAE7BE07B127C4505
S1132A507C777CA97CDB7C0E7D407D727DA47DD758
S1132A607D097E3B7E6D7EA07ED27E047F367F69AB
S1132A707F9B7FCD7F0D0A3F3F3F20756E6B6E6F4E
S1132A80776E20636F6D6D616E64202D20666F72AA
S1132A9020617373697374616E636520656E746518
S1132AA072202068656C700D0A0070743D006B62C2
S1132AB03D0068656C7000696E666F3D0065623D3F
S1132AC0006464733D006461633D00626C3D0062B8
S1132AD06961733D006164633D000D0A3E20000D91
S1132AE00A0070743D0909303A20706974636820E3
S1132AF0746F6E65204F46462C20313A20747572EF
S1132B006E2073706565642C20323A207661726998
S1132B106F6D657465720D0A006B623D0909303A88
S1132B20206B65792062656570204F46462C203104
S1132B303A204F4E0D0A00696E666F3D0909303A1E
S1132B40204F46462C20313A204F4E0D0A0068652E
S1132B506C7009095468697320696E666F726D61DF
S1132B6074696F6E20706167652061626F7574208F
S1132B70616C6C20617661696C61626C6520636F65
S1132B806D6D616E64730D0A0065623D0909303A2A
S1132B90206572726F722062656570204F46462C04
S1132BA020313A204F4E0D0A00633A20737461724B
S1132BB074696E67207068617365206F6620444491
S1132BC053312D44445330206465670D0A00646416
S1132BD0733D612C622C6309613A204444533020D4
S1132BE06672657175656E6379206D487A2C206212
S1132BF03A2044445331206D487A2C2000646163A8
S1132C003D0909303A207475726E204441434220D4
S1132C106F66662C20313A207475726E20444143ED
S1132C2042206F6E0D0A00626C3D0909302D323569
S1132C30353A206261636B6C696768742050574D44
S1132C402C202D313A204155544F2C202D323A203E
S1132C505350454349414C0D0A00626961733D0973
S1132C6009302D36333A206269617320766F6C74B3
S1132C7061676520666F72204C434420636F6E74F5
S1132C80726173740D0A006164633D0909303A206E
S1132C907475726E204144434120616E6420414446
S1132CA04342206F66662C20313A207475726E2080
S1132CB04144434120616E642041444342206F6E8D
S1132CC00D0A000D0A0D0A0D0A2A2A2A2A2A2A2A7E
S1132CD02A2A2A2A2A0D0A2A20434F4D4D414E44BE
S1132CE053202A0D0A2A2A2A2A2A2A2A2A2A2A2A5E
S1132CF02A0D0A0D0A0025352E33660025342E319F
S1132D0066002530372E3266002530352E326600B7
S1132D102D2D2D2D2D2D2D2D2D2D2D0D0A0D0A0092
S1132D205457492D6F6E626F6172643A20202E2EC3
S1132D302E20646576696365206E6F74206F6E2043
S1132D40626F6172642E202873633D2564290D0A25
S1132D50005457492D6F6E626F6172643A202049A6
S1132D604E495420737563636573732E0D0A0054C2
S1132D7057492D6F6E626F6172643A20204241445C
S1132D802072656164696E672050524F4D20616402
S1132D9064726573732025642E202873633D256453
S1132DA0290D0A005457492D6F6E626F6172643A9F
S1132DB0204261726F204D533536303730324241F4
S1132DC030332D3530202D2020202020736572696A
S1132DD0616C233A2025640D0A005457492D6F6E07
S1132DE0626F6172643A20204241442072656164DA
S1132DF0696E672073657269616C2F435243207753
S1132E006F72642E202873633D2564290D0A000D1A
S1132E100A5457492D6F6E626F6172643A204261A1
S1132E20726F204D53353630373032424130332DB6
S1132E303530202D204932432061646472657373F8
S1132E403A203078253032580D0A005457492D6FF6
S1132E506E626F6172643A20202E2E2E2064657695
S1132E60696365206E6F74206F6E20626F61726497
S1132E702E202873633D2564290D0A005457492DDB
S1132E806F6E626F6172643A2020494E4954207318
S1132E907563636573732E0D0A005457492D6F6E65
S1132EA0626F6172643A204779726F204D50552DDC
S1132EB039323530202D2020202020766572736928
S1132EC06F6E3A203078253032582C2030782530F7
S1132ED032580D0A005457492D6F6E626F61726447
S1132EE03A204779726F204D50552D3932353020B4
S1132EF020202D202020277265736574203127201F
S1132F0062616420726573706F6E73650D0A000DE3
S1132F100A5457492D6F6E626F6172643A20477983
S1132F20726F204D50552D39323530202D204932C5
S1132F304320616464726573733A203078253032BB
S1132F40582C203078253032580D0A005457492D1A
S1132F506F6E626F6172643A20202E2E2E2064659B
S1132F6076696365206E6F74206F6E20626F617284
S1132F70642E202873633D2564290D0A00545749A3
S1132F802D6F6E626F6172643A2020494E4954205D
S1132F90737563636573732E0D0A005457492D6F5F
S1132FA06E626F6172643A20487967726F20534889
S1132FB05433312D444953202D20202073746174DF
S1132FC075733A203078253032580D0A0054574929
S1132FD02D6F6E626F6172643A20487967726F2058
S1132FE053485433312D444953202D20202061640B
S1132FF06472657373204E41434B202F2027627205
S113300065616B272062616420726573706F6E73F3
S1133010650D0A000D0A5457492D6F6E626F617277
S1133020643A20487967726F2053485433312D44F1
S11330304953202D204932432061646472657373BF
S11330403A203078253032580D0A004779726F5F84
S113305054656D703D2563253032642E253032640D
S1133060432028252B303664290D0A0D0A004D7A99
S11330703D25632530336C642E2530336C647554E0
S11330802028252B30366429092009004D783D2558
S1133090632530336C642E2530336C6475542028DA
S11330A0252B303664292C204D793D25632530337A
S11330B06C642E2530336C6475542028252B3036EF
S11330C064292C2000477A3D25632530336C642E17
S11330D02530336C646470732028253036642909E4
S11330E020090047783D25632530336C642E253054
S11330F0336C646470732028252B303664292C20AB
S113310047793D25632530336C642E2530336C6458
S11331106470732028252B303664292C2000417AD2
S11331203D2563253031642E2530336467202825FE
S11331302B30366429092009000941783D2563258F
S11331403031642E25303364672028252B303664D3
S1133150292C2041793D2563253031642E253033D7
S113316064672028252B303664292C200048796791
S1133170726F5F54656D703D2563253032642E2572
S1133180303264432C20487967726F5F52656C4813
S11331903D253032642E2530326425250D0A004247
S11331A061726F5F54656D703D25632530326C64C8
S11331B02E2530326C64432C204261726F5F503D87
S11331C025346C642E2530326C6468506109200902
S11331D0006D505F54656D703D2563253032642E5B
S11331E025303264430920090055616463343D2568
S11331F03464206D562C2055616463353D25346458
S1133200206D562C205573696C3D253464206D5611
S11332102C200054696D65203D202530366C643ABD
S1133220205576636F3D253464206D562C2055352A
S1133230763D253464206D562C20556261743D25FD
S11332403464206D562C20003D3D3D3D3D3D3D3DCB
S11332503D3D3D3D3D3D3D3D3D3D3D3D3D3D3D3D9A
S11332603D3D3D3D3D3D3D0D0A0D0A0046696E6400
S11332704D65534154202D20555342206C6F676790
S1133280696E6720737461727465640D0A00256346
S11332900D0A3D3D3D3D3D3D3D3D3D3D3D3D3D3DBD
S11332A03D3D3D3D3D3D3D3D3D3D3D3D3D3D3D3D4A
S11332B03D0D0A000D0A0D0A0D0A000011241FBE5F
S11332C0CFEFCDBFDFE5DEBF00E00CBF11E2A0E031
S11332D0B0E2E8EFFAEE00E00BBF02C007900D92F7
S11332E0AE3CB107D9F727E2AEECB1E201C01D92C2
S11332F0A53AB207E1F70E94BE550C947A750C9476
S11333000000833010F480E0089588EF0895CF938F
S1133310DF93482F50E0FA017196E295F295F07F21
S1133320FE27E07FFE27A0E0B1E014969C9114975D
S113333013966C91DA01149621E030E0E901082E2D
S113334002C0CC0FDD1F0A94E2F70A2E02C0220F3E
S1133350331F0A94E2F72C2B622370E0EB010A2E50
S113336002C0D595C7950A94E2F7C0FD1AC0082E8D
S113337002C0759567950A94E2F760FD14C029238D
S113338030E0B90102C075956795AA95E2F760FD32
S11333900CC002C0359527958A95E2F7822F81707B
S11333A005C084E003C083E001C082E091819063A2
S11333B09183440F551FFA01E159F84D0190F081B2
S11333C0E02D309709F01995DF91CF910895CF93AF
S11333D0DF931F92CDB7DEB761E080E00E94FC5D11
S11333E080918E278F3F09F4FFCF8FB78983F8949C
S11333F09981EDE8F7E281818F5F81839FBFE0E0EF
S1133400F1E080E4808380E880830F90DF91CF91A6
S11334100895CF93DF931F92CDB7DEB710920001CA
S113342061E080E00E94125E80918E27811101C0CC
S1133430FFCF8FB78983F8949981EDE8F7E2818112
S1133440815081839FBF0F90DF91CF910895E82F22
S1133450F0E0EE0FFF1FE159F84D6083718308958A
S11334601F920F920FB60F9211240BB60F922F9347
S11334703F934F935F936F937F938F939F93AF93F8
S1133480BF93EF93FF9380E042DFFF91EF91BF91F1
S1133490AF919F918F917F916F915F914F913F91E8
S11334A02F910F900BBE0F900FBE0F901F90189589
S11334B01F920F920FB60F9211240BB60F922F93F7
S11334C03F934F935F936F937F938F939F93AF93A8
S11334D0BF93EF93FF9381E01ADFFF91EF91BF91C8
S11334E0AF919F918F917F916F915F914F913F9198
S11334F02F910F900BBE0F900FBE0F901F90189539
S11335001F920F920FB60F9211240BB60F922F93A6
S11335103F934F935F936F937F938F939F93AF9357
S1133520BF93EF93FF9382E0F2DEFF91EF91BF919F
S1133530AF919F918F917F916F915F914F913F9147
S11335402F910F900BBE0F900FBE0F901F901895E8
S11335501F920F920FB60F9211240BB60F922F9356
S11335603F934F935F936F937F938F939F93AF9307
S1133570BF93EF93FF9383E0CADEFF91EF91BF9176
S1133580AF919F918F917F916F915F914F913F91F7
S11335902F910F900BBE0F900FBE0F901F90189598
S11335A0CF93DF931F92CDB7DEB7DB01E82FF0E0B6
S11335B07196E295F295F07FFE27E07FFE278FB7A4
S11335C08983F894998119968C91199784871A960E
S11335D08C911A978587168617968C9117978087F2
S11335E018968C9118978187128612968C9112974F
S11335F0828313968C911397838314962D913C9117
S113360015972483358316968C9116978683119685
S11336108C91119781838C918F7780839FBF0F90BA
S1133620DF91CF91089504C0615071098109910916
S11336306115710581059105B9F7089580E18093BD
S11336402104E0E2F4E0818184FDFDCF6091240453
S11336507091250480912604909127040895809305
S11336607727909378270895CF93DF9364E080E0E1
S11336700E94FC5DC0EFD0E088818260888361E0B5
S113368080EF90E00E94806688818460888369EE80
S113369073E080E090E0C7DF888188618883E0EF91
S11336A0F0E0818183FFFDCF10922004E0E2F4E09A
S11336B0818180FDFDCFE0E2F4E08FEF9FEFDC013C
S11336C080879187A287B387148215821682178216
S11336D0818180FDFDCFE0E2F4E0128281E080830D
S11336E0818180FDFDCFDF91CF9108951F920F92CC
S11336F00FB60F9211240BB60F922F933F934F9353
S11337005F936F937F938F939F93AF93BF93CF9365
S1133710DF93EF93FF9310922204C0917727D09107
S11337207827209719F08ADFFE011995FF91EF9110
S1133730DF91CF91BF91AF919F918F917F916F91C5
S11337405F914F913F912F910F900BBE0F900FBE41
S11337500F901F901895FC01F295E295EF70EF27FA
S1133760FF70EF279F012F5F3F4F211540E1340782
S113377008F03051EE0FFF1FEB58F54F459154916F
S1133780F901EE0FFF1FEB58F54F25913491F90124
S1133790F496E41BF50BE295F295F07FFE27E07FAB
S11337A0FE278F709927E82BF92BEB50FC4FE491FF
S11337B0CA018E0F911DE7FD9A95089504C06150CA
S11337C07109810991096115710581059105B9F79F
S11337D00895EF92FF920F931F93CF93DF93662385
S11337E021F1E42EF62E082F192FC0E0F801D19113
S11337F08F01EE2041F08D2F0D2E000C990B809738
S113380080369105A0F480913126811114C00E9464
S1133810B961882331F08D2FDD0F990B0E940A6264
S113382006C081E08093312606C0C62F04C0CF5F56
S1133830FC12DCCFCF2D8C2FDF91CF911F910F91F4
S1133840FF90EF90089583EC9CE29F938F931F92D7
S113385080E48F938BE095E29F938F930E9418727C
S11338608134910510F080E490E040E0682F8BE013
S113387095E2AFDF87E89CE29F938F931F9280E4E9
S11338808F938BE095E29F938F930E9418728134FB
S1133890910510F080E490E040E0682F8BE095E221
S11338A098DF8AE59CE29F938F931F9280E48F9325
S11338B08BE095E29F938F930E9418728134910557
S11338C010F080E490E040E0682F8BE095E281DF27
S11338D087E29CE29F938F931F9280E48F938BE007
S11338E095E29F938F930E9418728134910510F092
S11338F080E490E040E0682F8BE095E26ADF8DEF92
S11339009BE29F938F931F9280E48F938BE095E2C9
S11339109F938F930E9418728134910510F080E474
S113392090E040E0682F8BE095E253DF8EEC9BE261
S11339309F938F931F9280E48F938BE095E29F93E4
S11339408F930E9418722DB73EB72C5D3F4F2DBF49
S11339503EBF8134910510F080E490E040E0682F90
S11339608BE095E236DF89EA9BE29F938F931F9267
S113397080E48F938BE095E29F938F930E9418725B
S11339808134910510F080E490E040E0682F8BE0F2
S113399095E21FDF89E89BE29F938F931F9280E457
S11339A08F938BE095E29F938F930E9418728134DA
S11339B0910510F080E490E040E0682F8BE095E200
S11339C008DF8EE49BE29F938F931F9280E48F9392
S11339D08BE095E29F938F930E9418728134910536
S11339E010F080E490E040E0682F8BE095E2F1DE97
S11339F087E39BE29F938F931F9280E48F938BE0E6
S1133A0095E29F938F930E9418728134910510F070
S1133A1080E490E040E0682F8BE095E2DADE89E113
S1133A209BE29F938F931F9280E48F938BE095E2A8
S1133A309F938F930E9418728134910510F080E453
S1133A4090E040E0682F8BE095E2C3DE82EE9AE2DC
S1133A509F938F931F9280E48F938BE095E29F93C3
S1133A608F930E9418722DB73EB72C5D3F4F2DBF28
S1133A703EBF8134910510F080E490E040E0682F6F
S1133A808BE095E2A6DE8FED9AE29F938F931F92CF
S1133A9080E48F938BE095E29F938F930E9418723A
S1133AA08134910510F080E490E040E0682F8BE0D1
S1133AB095E28FDE0F900F900F900F900F900F9064
S1133AC08091CE21811120C081E08093CE218AEDA6
S1133AD09AE29F938F931F9280E48F938BE095E2F9
S1133AE09F938F930E9418728134910510F080E4A3
S1133AF090E040E0682F8BE095E26BDE0F900F9032
S1133B000F900F900F900F9008957F928F929F9235
S1133B10AF92BF92CF92DF92EF92FF920F931F93D7
S1133B20CF93DF93CDB7DEB72C97CDBFDEBF009721
S1133B3009F402C26115710509F4FEC16B018C011F
S1133B40AB016DE070E00E9449715C010097F1F4F3
S1133B50F090CF218F2D90E09601280F391F21304E
S1133B60314048F0A601B80180ED91E20E945671FF
S1133B70C092CF21E1C1A601B80180539E4D0E949D
S1133B8056716F2D6C0D6093CF21D6C1801B910BA4
S1133B9077247394780E872C912CF090CF218F2D5D
S1133BA090E0A401B80180539E4D0E945671F70C19
S1133BB0F092CF2144E050E065ED7AE280ED91E2AD
S1133BC00E943071892BE9F419821A82CE01019680
S1133BD07C0100E010E020E030E043E050E060E0F1
S1133BE070E084ED91E20E945653892B09F474C16C
S1133BF081E029813A81232B09F480E00E94F65365
S1133C006BC145E050E06FEC7AE280ED91E20E94F6
S1133C103071892BC1F419821A82CE0101967C017C
S1133C2000E010E020E030E043E050E060E070E0CD
S1133C3085ED91E20E945653892B09F44DC1898187
S1133C400E94495449C143E050E06BEC7AE280EDB4
S1133C5091E20E943071892BC9F419821A82CE0133
S1133C6001967C0100E010E020E030E043E050E009
S1133C7060E070E083ED91E20E945653892B09F4D1
S1133C802BC189819A810E94265426C144E050E0C8
S1133C9066EC7AE280ED91E20E943071892BE9F4BE
S1133CA019821A82CE0101967C0100E010E020E026
S1133CB030E043E050E060E070E084ED91E20E9487
S1133CC05653892B09F408C181E029813A81232BB9
S1133CD009F480E00E944F54FFC044E050E061ECDE
S1133CE07AE280ED91E20E943071892B51F58CE0EB
S1133CF0EAE2F1E2DE01119601900D928A95E1F774
S1133D00E12CF12C00E010E09E012F5F3F4F45E1D4
S1133D1050E060E070E084ED91E20E945653892BFC
S1133D2009F4DAC0E984FA840B851C852D813E816F
S1133D304F81588569817A818B819C810E94A65428
S1133D40CBC043E050E06DEB7AE280ED91E20E945B
S1133D503071892BE9F419821A82CE0101967C0113
S1133D6000E010E020E030E043E050E060E070E08C
S1133D7083ED91E20E945653892B09F4ADC081E092
S1133D8029813A81232B09F480E00E947D55A4C047
S1133D9045E050E067EB7AE280ED91E20E943071F9
S1133DA0892BE9F419821A82CE0101967C0100E084
S1133DB010E020E030E043E050E060E070E085EDAA
S1133DC091E20E945653892B09F486C081E029812F
S1133DD03A81232B09F480E00E9480557DC043E0A2
S1133DE050E06AEA7AE280ED91E20E943071892B18
S1133DF0C1F419821A82CE0101967C0100E010E020
S1133E0020E030E043E050E060E070E083ED91E2D8
S1133E100E945653892B09F45FC089810E948655FC
S1133E205BC044E050E062EB7AE280ED91E20E94F4
S1133E301871892B11F407DD4FC043E050E06EEA9E
S1133E407AE280ED91E20E943071892BE1F41982CB
S1133E501A82CE0101967C0100E010E020E030E0FF
S1133E6043E050E060E070E083ED91E20E9456533D
S1133E70892B91F181E029813A81232B09F480E097
S1133E800E94835529C085E79AE29F938F931F92DE
S1133E9080E48F938BE095E29F938F930E94187236
S1133EA08134910510F080E490E040E0682F8BE0CD
S1133EB095E28FDC0F900F900F900F900F900F9062
S1133EC080916220882341F06AE084E601D360E9AE
S1133ED070ED83E090E072DC8AED9AE29F938F9319
S1133EE01F9280E48F938BE095E29F938F930E94BF
S1133EF018728134910510F080E490E040E0682F5E
S1133F008BE095E266DC1092CF210F900F900F901A
S1133F100F900F900F908C149D0470F4A601481913
S1133F205909B5016F5F7F4F80ED91E20E94567190
S1133F306C2D67196093CF212C96CDBFDEBFDF9126
S1133F40CF911F910F91FF90EF90DF90CF90BF9092
S1133F50AF909F908F907F90089504C06150710935
S1133F60810991096115710581059105B9F70895D4
S1133F70CF93DF931F92CDB7DEB7442341F08091F6
S1133F800B20843608F4BBC010920B2009C080912A
S1133F900B20853109F18B3209F459C08111A9C074
S1133FA0ECE2F0E286E7808388E4818381E090E0BC
S1133FB0848395831086118640E0BF0180EA94E0F3
S1133FC00E945243811104C081E080930B20A0C061
S1133FD088EC80930B209CC0ECE2F0E2118283E039
S1133FE090E08087918741E0BF0180EA94E00E94DD
S1133FF05243811128C0E3E0F5E22081818190E001
S1134000A0E0B0E0BA2FA92F982F8827A22B2281F5
S1134010822B8093F6229093F722A093F822B093F8
S1134020F922ECE2F0E288E581831086118640E013
S1134030BF0180EA94E00E945243811104C086E1EA
S113404080930B2065C083ED80930B2061C0ECE26C
S1134050F0E2118283E090E08087918741E0BF0124
S113406080EA94E00E94524381113FC0E3E0F5E20C
S11340702081818190E0A0E0B0E0BA2FA92F982F91
S11340808827A22B2281822B8093F2229093F32201
S1134090A093F422B093F5228FB78983F894898191
S11340A04091F6225091F7226091F8227091F92202
S11340B04093D9255093DA256093DB257093DC2552
S11340C04091F2225091F3226091F4227091F522F2
S11340D04093D5255093D6256093D7257093D82542
S11340E08FBF8BE780930B2013C08FED80930B2041
S11340F00FC0843668F48F5F80930B2009C085312C
S113410009F46ACF8B3209F4A2CF8111F4CF48CFDE
S11341100F90DF91CF910895CF92DF92EF92FF92AB
S11341200F931F93CF93E8E1F0E283E0818381E072
S113413090E0848395838F01CC24C394D12C0F2EDB
S1134140FBEFEF2EF4E2FF2EF02DF801C086D186AE
S113415041E0B80180E894E00E945243F701C08135
S11341609C2F907881110DC091F08C2F817881382B
S113417029F465EF71E080E090E0EFDEC0FDE5CF6B
S11341800CC065E070E080E090E0E7DEDECF65E043
S113419070E080E090E0E1DED8CFCF911F910F91E5
S11341A0FF90EF90DF90CF900895CF93DF93D82FB7
S11341B0C62FB2DFE8E1F0E280E28183ABEFB4E244
S11341C0DC931196CC9382E090E08087918740E065
S11341D0BF0180E894E00E94524365E070E080E013
S11341E090E0BBDEDF91CF9108959F92AF92BF9292
S11341F0CF92DF92EF92FF920F931F93CF93DF93AF
S1134200B82EA62EEA01FA0101900020E9F73197B1
S1134210CE2EC41A09F443C008E110E20F2EF0E3D5
S11342209F2EF02D0F2EFBEFEF2EF4E2FF2EF02D3C
S1134230DC2CE6E0EC1520F40F2EF6E0DF2EF02D5A
S11342406A2D8B2DB2DF68DFF8019182F701D082ED
S1134250DD2069F081E02196E82FF0E0E550FB4D88
S1134260DE0111979C9190838F5FD816A0F78D2D56
S113427090E00196F8018087918740E0B80180E8DA
S113428094E00E94524365E070E080E090E065DED7
S11342908D2D880F8D0D880FB80ECD1849F6DF913E
S11342A0CF911F910F91FF90EF90DF90CF90BF902F
S11342B0AF909F900895EF920F93CF93DF93D42FF5
S11342C0C22F73DF29DF011102C084E301C086E33A
S11342D0A8E1B0E211968C931197EBEFF4E2D0834E
S11342E0C183E28283E090E018968D939C931997A2
S11342F040E0BD0180E894E00E94524365E070E034
S113430080E090E02ADEDF91CF910F91EF90089545
S11343100F93CF93DF93C42FD22F47DFFDDED1114C
S113432002C088E301C08AE3E8E1F0E28183ABEFF5
S1134330B4E2CC9311960C9382E090E0808791874D
S113434040E0BF0180E894E00E94524365E070E0E1
S113435080E090E002DEDF91CF910F9108950F93FA
S1134360CF93DF93D42FC22F20DFD6DEA8E1B0E2B3
S113437082E311968C931197EBEFF4E2D083C1831F
S1134380028383E090E018968D939C93199740E004
S1134390BD0180E894E00E94524365E070E080E053
S11343A090E0DBDDDF91CF910F910895CF92DF9202
S11343B0EF92FF920F931F93CF93DF93F22EE32E8E
S11343C0D42EC52EF2DEA8DEC8E1D0E280E38983D4
S11343D0CF92DF92EF92FF921F930F938CEF94E2B0
S11343E09F938F930E944F728093FB249927019689
S11343F08887998740E0BE0180E894E00E94524398
S113440065E070E080E090E0A8DD8DB79EB7089687
S11344108DBF9EBFDF91CF911F910F91FF90EF90C1
S1134420DF90CF900895CF93C82F76DEE8E1F0E2D5
S113443080E78183C370C093FB2481E090E0808790
S1134440918740E0BF0180E894E00E94524365E018
S113445070E080E090E081DDCF910895CF93DF9309
S1134460D82FC62F59DEE8E1F0E284E78183ABEF71
S1134470B4E2DC931196CC9382E090E0808791873C
S113448040E0BF0180E894E00E94524365E070E0A0
S113449080E090E062DDDF91CF910895CF93C82F43
S11344A03BDEE8E1F0E285E78183C093FB2481E011
S11344B090E08087918740E0BF0180E894E00E940B
S11344C0524365E070E080E090E047DDCF910895CD
S11344D0CF93DF93C82FD62F1FDEE8E1F0E281E708
S11344E08183ABEFB4E2DC931196CC9382E090E04D
S11344F08087918740E0BF0180E894E00E945243A6
S113450065E070E080E090E028DDDF91CF910895D0
S1134510E0E8F6E088E3808B818BE0E4F6E0808BD2
S1134520818B08957F928F929F92AF92BF92CF9288
S1134530DF92EF92FF920F931F93CF93DF9360E488
S113454085E00E94FC5D67E370E280EA94E00E94EB
S11345503D43E0EAF4E081818860818360E483E0A4
S11345600E94FC5D63E270E280E894E00E943D43B7
S1134570E0E8F4E08181886081831F9284E48F9372
S113458084E190E39F938F931F9280E48F938BE059
S113459095E29F938F930E9418728134910510F0D5
S11345A080E490E040E0682F8BE095E212D910920D
S11345B0CB25ECE2F0E284E4808380E3818383E929
S11345C0828382E090E0848395831086118640E0A4
S11345D0BF0180EA94E00E945243C82F8DB79EB772
S11345E008968DBF9EBFCC23F1F08DEC9FE29F9384
S11345F08F931F9280E48F938BE095E29F938F9328
S11346000E9418728134910510F080E490E040E03B
S1134610682F8BE095E2DDD80F900F900F900F90EC
S11346200F900F9092C060E177E280E090E095DC1B
S1134630ECE2F0E284E4808380E3818382EA828393
S113464082E090E0848395831086118640E0BF0168
S113465080EA94E00E945243C82F811176C060E141
S113466077E280E090E079DCECE2F0E284E48083BD
S113467083EF81838DE2828382E090E0848395835B
S11346808087918741E0BF0180EA94E00E94524311
S1134690C82F81115AC0809104258093CB251F9285
S11346A08F938BE99FE29F938F931F9280E48F9364
S11346B08BE095E29F938F930E9418728134910549
S11346C010F080E490E040E0682F8BE095E281D820
S11346D0ECE2F0E284E4808382E2818386E38283F5
S11346E082E090E0848395831086118640E0BF01C8
S11346F080EA94E00E945243C82FEDB7FEB7389683
S1134700EDBFFEBF811121C081E08093CC258DE7F0
S11347109FE29F938F931F9280E48F938BE095E2A7
S11347209F938F930E9418728134910510F080E456
S113473090E040E0682F8BE095E24BD80F900F900B
S11347400F900F900F900F9022C08C2F0C2E000C06
S1134750990B9F93CF938CE49FE29F938F931F9227
S113476080E48F938BE095E29F938F930E9418725D
S11347708134910510F080E490E040E0682F8BE0F4
S113478095E227D88DB79EB708968DBF9EBF1F921E
S11347908CE08F931F9288E68F938FE09FE29F9324
S11347A08F931F9280E48F938BE095E29F938F9376
S11347B00E9418728134910510F080E490E040E08A
S11347C0682F8BE095E205D810922A2610920526D0
S11347D0ECE2F0E288E680838BE6818381E090E07E
S11347E08483958321E8209303258087918740E083
S11347F0BF0180EA94E00E945243C82FEDB7FEB790
S11348003A96EDBFFEBF8823F9F085ED9EE29F93B3
S11348108F931F9280E48F938BE095E29F938F9305
S11348200E9418728134910510F080E490E040E019
S1134830682F8BE095E20E94E91B0F900F900F9078
S11348400F900F900F902FC261E573EC80E090E021
S113485084DBECE2F0E288E6808385E7818381E013
S113486090E0848395838087918741E0BF0180EA4B
S113487094E00E945243C82F811115C2A3E0B5E20F
S11348808C9180932A26ECE2F0E288E6808387E329
S1134890818381E090E08483958322E02C93808758
S11348A0918740E0BF0180EA94E00E945243C82F00
S11348B08111F9C1ECE2F0E28CE080838BE081832A
S11348C081E090E08483958321E020930325808711
S11348D0918740E0BF0180EA94E00E945243C82FD0
S11348E08111E1C161E573EC80E090E036DBECE23C
S11348F0F0E28CE08083118281E090E084839583F0
S11349008087918741E0BF0180EA94E00E9452438E
S1134910C82F8111C8C1809103258093052691E099
S113492090932B261F928F9380912A261F928F9308
S11349308AE99EE29F938F931F9280E48F938BE08A
S113494095E29F938F930E9418728134910510F021
S113495080E490E040E0682F8BE095E20E94E91B40
S1134960ECE2F0E28CE080838AE0818381E090E0F5
S1134970848395832FE1209303258087918740E0EA
S1134980BF0180EA94E00E945243C82F8DB79EB7BE
S11349900A968DBF9EBFC11186C1ECE2F0E28CE0A5
S11349A0808380E1818381E090E08483958383E048
S11349B090E08087918741E0BF0180EA94E00E9403
S11349C05243C82F81116FC1A3E0B5E28C9180934B
S11349D0042611968C9111978093032612968C913C
S11349E0129780930226ECE2F0E28CE080838AE066
S11349F0818381E090E08483958320E12C938087F8
S1134A00918740E0BF0180EA94E00E945243C82F9E
S1134A10811149C161E573EC80E090E09EDAECE23B
S1134A20F0E28CE080838AE0818381E090E08483FB
S1134A30958322E1209303258087918740E0BF017D
S1134A4080EA94E00E945243C82F81112CC1ACE249
S1134A50B0E288E68C9383E111968C93119781E000
S1134A6090E014968D939C9315978091502090918B
S1134A705120E3E0F5E29083818380914E20909170
S1134A804F209283838380914C2090914D20948376
S1134A90858386E090E018968D939C93199740E067
S1134AA0BD0180EA94E00E945243C82F8111FBC0EB
S1134AB0ECE2F0E288E6808387E7818381E090E09E
S1134AC08483958380915C2090915D20A3E0B5E27E
S1134AD09C01220F232F221F330B31952C93880F17
S1134AE011968C9382E090E08087918740E0BF012B
S1134AF080EA94E00E945243C82F8111D4C08AE70F
S1134B0080932D2080915A2090915B20E3E0F5E280
S1134B109C01220F232F221F330B31952083880FF2
S1134B20818340E06CE270E280EA94E00E945243A8
S1134B30C82F8111B8C08DE780932D208091582013
S1134B4090915920E3E0F5E29C01220F232F221FCC
S1134B50330B31952083880F818340E06CE270E24F
S1134B6080EA94E00E945243C82F81119CC0ECE279
S1134B70F0E288E6808389E1818381E090E08483A8
S1134B80958323E6209303258087918740E0BF0126
S1134B9080EA94E00E945243C82F811184C0ECE261
S1134BA0F0E288E680838AE1818381E090E0848377
S1134BB0958326E0209303258087918740E0BF01F9
S1134BC080EA94E00E945243C82F81116CC0ECE249
S1134BD0F0E288E680838DE1818381E090E0848344
S1134BE0958326E0209303258087918740E0BF01C9
S1134BF080EA94E00E945243C82F811154C0ECE231
S1134C00F0E288E680838FE1818381E090E0848311
S1134C10958329E1209303258087918740E0BF0194
S1134C2080EA94E00E945243C82F81113CC0ECE218
S1134C30F0E288E680838AE6818381E090E08483E1
S1134C40958321E0209303258087918740E0BF016D
S1134C5080EA94E00E945243C82F811124C061E588
S1134C6073EC80E090E079D98CE79EE29F938F9378
S1134C701F9280E48F938BE095E29F938F930E9421
S1134C8018728134910510F080E490E040E0682FC0
S1134C908BE095E20E94E91B0F900F900F900F900C
S1134CA00F900F9023C08C2F0C2E000C990B9F9308
S1134CB0CF938BE49EE29F938F931F9280E48F9314
S1134CC08BE095E29F938F930E9418728134910533
S1134CD010F080E490E040E0682F8BE095E20E94C1
S1134CE0E91BEDB7FEB73896EDBFFEBF1F9286E70E
S1134CF08F938FE09EE29F938F931F9280E48F9314
S1134D008BE095E29F938F930E94187281349105F2
S1134D1010F080E490E040E0682F8BE095E20E9480
S1134D20E91BECE2F0E286E780838EE1818381E097
S1134D3090E0848395831086118640E0BF0180EA69
S1134D4094E00E945243C82F8DB79EB708968DBF3A
S1134D509EBFC111F6C068E97AE380E090E0FDD817
S1134D60ECE2F0E286E780838EEA818381E090E0E2
S1134D708483958382E090E08087918741E0BF013E
S1134D8080EA94E00E945243C82F882321F18C2F9B
S1134D900C2E000C990B9F93CF938AED9DE29F9369
S1134DA08F931F9280E48F938BE095E29F938F9370
S1134DB00E9418728134910510F080E490E040E084
S1134DC0682F8BE095E20E94E91BEDB7FEB7389699
S1134DD0EDBFFEBFB6C0E3E0F5E2808190E0982F1E
S1134DE088272181822B929582958F7089279F70C5
S1134DF089278093ED259093EE259F938F9384EAE2
S1134E009DE29F938F931F9280E48F938BE095E2B2
S1134E109F938F930E9418728134910510F080E45F
S1134E2090E040E0682F8BE095E20E94E91B0F2E92
S1134E30FFEDEF2EF5E2FF2EF02D8DB79EB708960D
S1134E408DBF9EBF88248394912CCCE2D0E20F2E98
S1134E50F6E77F2EF02DAA24A394B12C6894CC24D9
S1134E60C1F8D12C03E015E27882C401880F991FA0
S1134E70806A8983AC82BD82C886D98641E0BE013E
S1134E8080EA94E00E945243882331F1282F082EAF
S1134E90000C330B3F938F939F928F928FE69DE28A
S1134EA09F938F931F9280E48F938BE095E29F935F
S1134EB08F930E9418728134910510F080E490E081
S1134EC040E0682F8BE095E20E94E91BEDB7FEB746
S1134ED03A96EDBFFEBF13C0F801808190E0982F91
S1134EE088272181822BF701819391937F01FFEF22
S1134EF08F1A9F0A88E08816910409F0B5CF81E0E3
S1134F008093EF2581E59DE29F938F931F9280E428
S1134F108F938BE095E29F938F930E941872813454
S1134F20910510F080E490E040E0682F8BE095E27A
S1134F300E94E91B0F900F900F900F900F900F900D
S1134F4023C08C2F0C2E000C990B9F93CF9380E2DF
S1134F509DE29F938F931F9280E48F938BE095E261
S1134F609F938F930E9418728134910510F080E40E
S1134F7090E040E0682F8BE095E20E94E91BEDB7DA
S1134F80FEB73896EDBFFEBF80E19DE29F938F93FD
S1134F901F9280E48F938BE095E29F938F930E94FE
S1134FA018728134910510F080E490E040E0682F9D
S1134FB08BE095E20E94E91B61ED72E183E190E0F0
S1134FC00E94AD1FE8E1F0E281E0818381E090E09E
S1134FD0848395838087918741E0BF0180E894E0D2
S1134FE00E9452438091FB248093C2250F900F901E
S1134FF00F900F900F900F90813108F460C0C8E1BA
S1135000D0E282E089830F2EFBEFEF2EF4E2FF2E35
S1135010F02D80E1F701808301E010E00887198713
S113502040E0BE0180E894E00E94524365E070E0F5
S113503080E090E00E94AD1F6FD884E1898381E015
S1135040F70180830887198740E0BE0180E894E077
S11350500E94524365E070E080E090E00E94AD1F42
S113506081E0E1D98091632019DA69E18CE230DAD8
S113507061E573EC80E090E00E94AD1FC0E86C2F06
S113508080E0ECD968E873E180E090E00E94AD1F15
S1135090C250A9F769E188E51BDA61E573EC80E0A9
S11350A090E00E94AD1F6C2F80E0D8D968E873E1CE
S11350B080E090E00E94AD1FCE5FC238A1F7DF917F
S11350C0CF911F910F91FF90EF90DF90CF90BF9001
S11350D0AF909F908F907F9008950895CF92DF9224
S11350E0EF92FF926B017C018091CC25882369F1BA
S11350F0ECE2F0E284E4808380EE8183128282E039
S113510090E08483958385E090E08087918741E0F7
S1135110BF0180EA94E00E945243811116C0E3E08B
S1135120F5E2808190E0982F88272181822B80935B
S1135130C9259093CA25838190E0982F88272481DC
S1135140822B8093C7259093C82580912B26882392
S113515009F4FAC0ECE2F0E288E680838BE3818311
S113516081E090E08483958388E090E08087918754
S113517041E0BF0180EA94E00E9452438111E4C0FF
S1135180E3E0F5E2808190E0982F88272181822B4B
S11351908093222690932326828190E0982F88275B
S11351A02381822B8093202690932126848190E072
S11351B0982F88272581822B80931E2690931F2663
S11351C0868190E0982F88272781822B8093282638
S11351D090932926ECE2F0E288E6808383E48183DD
S11351E081E090E08483958386E090E080879187D6
S11351F041E0BF0180EA94E00E9452438111A4C0BF
S1135200E3E0F5E2808190E0982F88272181822BCA
S11352108093162690931726828190E0982F8827F2
S11352202381822B8093142690931526848190E009
S1135230982F88272581822B8093122690931326FA
S1135240ECE2F0E28CE0808382E0818381E090E014
S1135250848395838087918741E0BF0180EA94E04D
S11352600E945243811170C08091032580FF6CC05D
S1135270ECE2F0E28CE0808383E0818381E090E0E3
S11352808483958386E090E08087918741E0BF0125
S113529080EA94E00E945243811156C0E3E0F5E2B3
S11352A0818190E0982F88272081822B20914A20A9
S11352B030914B20820F931F8093002690930126F8
S11352C0838190E0982F88272281822B2091482087
S11352D030914920820F931F8093FE259093FF25E0
S11352E0858190E0982F88272481822B2091462065
S11352F030914720820F931F8093FC259093FD25C6
S1135300ECE2F0E28CE0808389E0818381E090E04C
S1135310848395838087918741E0BF0180EA94E08C
S11353200E945243811110C08091032583FF0CC059
S113533010920026109201261092FE251092FF254D
S11353401092FC251092FD258091EF25882329F0E9
S113535041E0C701B6010E94B81FFF90EF90DF90B3
S1135360CF9008952091EF25222319F040E00C946A
S1135370B81F08952F923F924F925F926F927F923F
S11353808F929F92AF92BF92CF92DF92EF92FF9251
S11353900F931F93CF93DF93CDB7DEB7E097CDBFC5
S11353A0DEBF8FB78C87F8949C858091CC251091B3
S11353B02B262090EF259FBF882309F43CC08FB78C
S11353C08B87F8948B852091C9253091CA25E0906C
S11353D0C725F090C8258FBF21153105A9F08FB7D7
S11353E08A87F8940A85ACE5B4E40E94776E2FEFBF
S11353F03FEF40E050E00E944D6E2459314120932C
S1135400C5253093C6250FBFE114F104A1F08FB771
S11354108987F89409859701A0E1B7E20E94776E25
S11354202FEF3FEF40E050E00E944D6E2093C325E4
S11354303093C4250FBF112309F4AEC28FB78887F8
S1135440F894988580912226F09123266090202656
S11354507090212650901E2680901F269FBFA82F53
S1135460EF2FEE0FEE0B282F3F2F4E2F5E2F6E2FB8
S11354707E2F8E2F9E2F02E00E94B16FA22EB32E9C
S1135480C42ED52EE62EF72EB82F192F05E00E9434
S1135490B16F0B2F0E94F16FAA2EBF2ECE2EDE2EDF
S11354A0EE2EFE2E0E2F1E2F0E94E86F04E00E94A7
S11354B0B16FB0905720A09056201B2D110F110BE7
S11354C0C12ED12EE12EF12E012F0E94966E6894EA
S11354D0AA24A4F80F2EF7E2BF2EF02DC12CD12C54
S11354E0E12CF12C00E010E00E94E96E0FE00E9434
S11354F0CA6F422E332EE72DEE0FEE0B262D372DDD
S11355004E2F5E2F6E2F7E2F8E2F9E2F02E00E9435
S1135510B16FA22EB32EC42ED52EE62EF72EA82FB1
S1135520192F05E00E94B16F0A2F0E94F16FA62C7B
S1135530B72CCE2EDE2EEE2EFE2E0E2F1E2F0E9408
S1135540E86F04E00E94B16FB0905520A090542001
S11355501B2D110F110BC12ED12EE12EF12E012F77
S11355600E94966E6894AA24A4F80F2EF7E2BF2E28
S1135570F02DC12CD12CE12CF12C00E010E00E9484
S1135580E96E0FE00E94CA6F722E632EE82DEE0FB3
S1135590EE0B252D382D4E2F5E2F6E2F7E2F8E2F46
S11355A09E2F02E00E94B16FA22EB32EC42ED52EE0
S11355B0E62EF72EA82F192F05E00E94B16F0A2FAF
S11355C00E94F16FA52CB82CCE2EDE2EEE2EFE2ED0
S11355D00E2F1E2F0E94E86F04E00E94B16FB0905E
S11355E05320A09052201B2D110F110BC12ED12E30
S11355F0E12EF12E012F0E94966E6894AA24A4F83D
S11356000F2EF7E2BF2EF02DC12CD12CE12CF12C62
S113561000E010E00E94E96E0FE00E94CA6F922F32
S11356202FB72F83F8942F8140921C2630921D2689
S113563070921A2660921B2690931826309319268E
S11356402FBF8FB78E83F8949E8180911626309158
S113565017264090142650901526609012267090BC
S113566013269FBF9FB79D83F8948D80282F932F77
S1135670990F990B0F2EF0E9AF2EF02D0F2EF0EDB0
S1135680BF2EF02D0F2EF3E0CF2EF02D00E0492F8A
S1135690592F692F792F892F0E94966E0FE00E944F
S11356A0CA6F20930E2630930F26409310265093F2
S11356B01126242D952D990F990B00E0352D492F96
S11356C0592F692F792F892F0E94966E0FE00E941F
S11356D0CA6F20930A2630930B2640930C265093CE
S11356E00D26262D972D990F990B00E0372D492F64
S11356F0592F692F792F892F0E94966E0FE00E94EF
S1135700CA6F2093062630930726409308265093A9
S113571009268FBE8FB78C83F8948C812091002644
S113572030910126E090FE25F090FF25A090FC2505
S1135730B090FD2500912826109129268FBFA091B5
S11357404420B0914520E091042633232CF10E949B
S1135750716E9B01AC018E2FEE0F990BAA0BBB0B44
S1135760BC01CD0160587F4F8F4F9F4F0E94F56D54
S11357702AE030E040E050E00E944D6E29013A01F9
S113578060E8460E511C611C711C452C562C672C7C
S1135790772467FC7A9424C00E94716E9B01AC014B
S11357A08E2FEE0F990BAA0BBB0BBC01CD016058D9
S11357B07F4F8F4F9F4F0E94F56D2AE030E040E00D
S11357C050E00E944D6E29013A0170E8471A5108D1
S11357D061087108452C562C672C772467FC7A9451
S11357E0A0914220B0914320E0910326FF2034F1A0
S11357F097010E94716E9B01AC018E2FEE0F990BE5
S1135800AA0BBB0BBC01CD0160587F4F8F4F9F4F3C
S11358100E94F56D2AE030E040E050E00E944D6EB9
S113582069017A0180E8C80ED11CE11CF11CCD2C61
S1135830DE2CEF2CFF24E7FCFA9425C097010E948C
S1135840716E9B01AC018E2FEE0F990BAA0BBB0B53
S1135850BC01CD0160587F4F8F4F9F4F0E94F56D63
S11358602AE030E040E050E00E944D6E69017A0188
S113587090E8C91AD108E108F108CD2CDE2CEF2CF0
S1135880FF24E7FCFA94A0914020B0914120E091DC
S11358900226BB202CF195010E94716E9B01AC0184
S11358A08E2FEE0F990BAA0BBB0BBC01CD016058D8
S11358B07F4F8F4F9F4F0E94F56D2AE030E040E00C
S11358C050E00E944D6EDA01C90180589F4FAF4FDE
S11358D0BF4F892E9A2EAB2EBB24A7FCBA9424C0AA
S11358E095010E94716E9B01AC018E2FEE0F990BF6
S11358F0AA0BBB0BBC01CD0160587F4F8F4F9F4F4C
S11359000E94F56D2AE030E040E050E00E944D6EC8
S1135910DA01C90180589109A109B109892E9A2E89
S1135920AB2EBB24A7FCBA948091262690912726FF
S1135930D801A81BB90B24E630E00E94866E2091A2
S11359405E2030915F20032E000C440B550B0E9407
S11359504D6E2C5C374F8FB78B83F8948B814092BC
S1135960F8255092F9256092FA257092FB25C09291
S1135970F425D092F525E092F625F092F725809251
S1135980F0259092F125A092F225B092F325209370
S11359902426309325268FBF222009F425C28FB7F1
S11359A08A83F8948A812091D9253091DA2540910F
S11359B0DB255091DC2529A33AA34BA35CA340919A
S11359C0D5255091D6256091D7257091D8258FBFC4
S11359D089A19AA1ABA1BCA1892B8A2B8B2B31F471
S11359E0411551056105710509F4FEC10F2EFDED48
S11359F02F2EF5E23F2EF02DD1011A968D919C9118
S1135A001B97A0E0B0E0BA2FA92F982F88272A016E
S1135A103B01481A590A6A0A7B0AA3019201550FED
S1135A20220B322FA9012D873E874F87588BD10136
S1135A301C964D915C911D97A42CB52CC62CD72C8B
S1135A40ED84FE2C0E2D1E2D242F352F40E050E02A
S1135A5060E070E080E090E00E94966E07E10E94B2
S1135A60CA6F2D8B3E8B4F8B588F2D893E894F8962
S1135A70588D2DA73EA74FA758ABBA01A901405393
S1135A80584F6F4F7F4F4D8F5E8F6F8F78A3D1012B
S1135A9018964D915C911997FE2C0E2D242F352FBD
S1135AA040E050E060E070E080E090E00E94966E9C
S1135AB006E00E94CA6F298F3A8F842E952EB62F46
S1135AC0A72F8B8F9C8FF101A480B5802A2D3B2DAD
S1135AD040E050E060E070E080E090E001E10E948E
S1135AE0B16FA22EB32EC42ED52EE62EF72E082F7C
S1135AF0192F298D3A8D482D592D6B2F7A2F8B8D87
S1135B009C8D0E94E86F298F3A8F4DA35EA36FA3EB
S1135B1078A789A79AA746815781A42CB52CC62CAF
S1135B20D72CED84FE2C0E2D1E2D242F352F40E076
S1135B3050E060E070E080E090E00E94966E07E044
S1135B400E94CA6F2B8F3C8F842E952EB62FA72FC1
S1135B508BA79CA7F101A280B3802A2D3B2D40E0A6
S1135B6050E060E070E080E090E000E10E94B16FFE
S1135B70A22EB32EC42ED52EE62EF72E082F192FC3
S1135B802B8D3C8D482D592D6B2F7A2F8BA59CA5E1
S1135B900E94E86F322E232E4B8F5C8F6BA77CA75D
S1135BA0982E892E2D8D3E8D4F8D58A1203D374046
S1135BB0410551050CF0D0C0A42CB52CC62CD72C13
S1135BC0ED84FE2C0E2D1E2D242D352D462D572D06
S1135BD0602F702F802F9E2D0E94966E0FE10E94E1
S1135BE0CA6F2D873E874F87588B2D893E894F89F1
S1135BF0588DCA01B9010E94F56D2B013C01ADE33A
S1135C00B0E09B01AC010E948C6E7B018C01689416
S1135C1013F815950795F794E7941694D1F7440C67
S1135C20551C661C771C8D8D9E8DAF8DB8A184325A
S1135C309A4FAF4FBF4FC4F56DA57EA58FA598A908
S1135C406455724F8F4F9F4F9B01AC010E94F56DBD
S1135C509B01AC01220F331F441F551FDC01CB01F4
S1135C60820F931FA41FB51F5C016D01AA0CBB1CFE
S1135C70CC1CDD1CAA0CBB1CCC1CDD1C8A0D9B1D82
S1135C80AC1DBD1DE80EF91E0A1F1B1FDA01C90158
S1135C90880F991FAA1FBB1F880F991FAA1FBB1F1C
S1135CA0480E591E6A1E7B1E2D8D3E8D4F8D58A1A8
S1135CB06D857E858F859889261B370B480B590B7C
S1135CC02D8F3E8F4F8F58A3D801C701BB0F880B70
S1135CD0982FDC018D879E87AF87B88B298D3A8DED
S1135CE04DA15EA16FA178A589A59AA5AE2CBF2C64
