:100000000C94D01A0C94F11A0C94F11A0C94F11A65
:100010000C945E710C94F11A0C9420270C944827D0
:100020000C9470270C9498270C94F11A0C94712856
:100030000C94F11A0C94DB540C94334D0C94604DD9
:100040000C948D4D0C94BA4D0C94E74D0C94144EB9
:100050000C94414E0C946E4E0C949B4E0C94C84ED6
:100060000C94F11A0C94F11A0C94F11A0C94F11AE4
:100070000C94F11A0C94F11A0C94F11A0C94F11AD4
:100080000C94F11A0C94F11A0C94F11A0C94F11AC4
:100090000C94F11A0C94F11A0C94F11A0C94364A3F
:1000A0000C94684A0C949A4A0C94CC4A0C94F11A19
:1000B0000C94F11A0C94F11A0C9402550C94B7504C
:1000C0000C94E4500C9411510C943E510C946B51CF
:1000D0000C9498510C94C5510C94F2510C941F52ED
:1000E0000C944C520C94F11A0C94F11A0C94F11AD1
:1000F0000C94F11A0C94F11A0C94F11A0C94F11A54
:100100000C94F11A0C94F11A0C94F11A0C94F11A43
:100110000C94F11A0C94F11A0C94F11A0C946E4987
:100120000C94A0490C94D2490C94044A0C94F11AF2
:100130000C94F11A0C94F54E0C94224F0C944F4FE2
:100140000C947C4F0C94A94F0C94D64F0C940350F4
:100150000C9430500C945D500C948A500C94F11A0D
:100160000C94F11A0C94F11A0C94F11A0C94F11AE3
:100170000C94F11A0C94F11A0C94F11A0C94F11AD3
:100180000C94F11A0C94F11A0C94F11A0C94F11AC3
:100190000C94F11A0C94F11A0C94F11A0C94F11AB3
:1001A0000C94F11A0C94F11A0C94F11A0C94F11AA3
:1001B0000C9479520C94A6520C94D3520C94005384
:1001C0000C942D530C945A530C94F11A0C94F11A6C
:1001D0000C94F11A0C94F11A0C94F11A0C94671DFA
:1001E0000C94F11A0C94F11A0C94F11A0C94F11A63
:1001F0000C94F11A0C94EC5B0C94A85CA056A356DA
:10020000A656A956AC56AF56B256205E335E465E31
:10021000595E6C5E7F5E925E05A84CCDB2D44EB93D
:100220003836A9020C50B9918688083CA6AAAA2A99
:10023000BE000000803F07634236B79BD8A71A393B
:10024000685618AEBAAB558C1D3CB7CC5763BD6D24
:10025000EDFD753EF6177231BF000000803F0800CB
:100260000000BE922449123EABAAAA2ABECDCCCC35
:100270004C3E00000080BEABAAAAAA3E00000000CF
:10028000BF000000803F0000000000084178D3BBA1
:100290004387D1133D190E3CC3BD4282AD2B3E684E
:1002A000EC8276BED98FE1A93E4C80EFFFBE01C43F
:1002B000FF7F3F00000000006E616E00696E660007
:1002C00000407A10F35A00A0724E18090010A5D40D
:1002D000E80000E87648170000E40B54020000CA6A
:1002E0009A3B000000E1F5050000809698000000B0
:1002F00040420F000000A08601000000102700000F
:100300000000E803000000006400000000000A0094
:10031000000000000100000000002C76D888DC6797
:100320004F0823DFC1DFAE59E1B1B796E5E3E453EF
:10033000C63AE651997696E8E6C28426EB898C9B0C
:1003400062ED407C6FFCEFBC9C9F40F2BAA56FA5AC
:10035000F490055A2AF75C936B6CF9676DC11BFC2E
:10036000E0E40D47FEF520E6B500D0ED902E030049
:10037000943577050080841E080000204E0A000096
:1003800000C80C333333330F986E12831141EF8D55
:100390002114893BE65516CFFEE6DB18D1844B3895
:1003A0001BF77C1D901DA4BBE424203284725E22C6
:1003B0008100C9F124ECA1E53D274E414E494E494B
:1003C0005459494E46CDCCCC3D0AD7233C17B7D122
:1003D0003877CC2B329595E6241FB14F0A000020C8
:1003E000410000C84200401C4620BCBE4CCA1B0E47
:1003F0005AAEC59D7441542B43474E53494E460D4A
:100400000A0041542B43474E535057523D25640D2B
:100410000A0041542B4753560D0A004154490D0A16
:100420000041542B4346554E3D310D0A0041542B9B
:10043000434D45453D320D0A0041542B4950523D34
:10044000256C640D0A00496E69743A2053494D3891
:100450003038207375636365737300496E69743A4D
:100460002053494D38303820726573746172746955
:100470006E67202E2E2E00496E69743A2053494D26
:10048000383038207374617274696E67202E2E2E96
:100490000053494D38303820736572313A2020209E
:1004A0006261756420726174652073796E6365643E
:1004B0000D0A0053494D38303820736572313A20A7
:1004C000205374617274696E672074686520646576
:1004D00076696365202E2E2E0D0A0053494D383063
:1004E0003820736572313A20205374617274696EDA
:1004F000672074686520646576696365202E2E2EFA
:100500000D0A004F4B00504C4C3A2025386C642E9D
:100510002530336C64202B20253033642F33304555
:100520002B36207365630D0A0D0A004779726F5FE1
:1005300054656D703D252B30362E326643202825BC
:100540002B303664290D0A0D0A004D7A3D252B30DB
:10055000372E336675542028252B30366429092020
:1005600009004D783D252B30372E336675542028F1
:10057000252B303664292C204D793D252B30372E04
:10058000336675542028252B303664292C200047EB
:100590007A3D252B30372E32666470732028253043
:1005A0003664290920090047783D252B30372E3243
:1005B000666470732028252B303664292C204779F7
:1005C0003D252B30372E32666470732028252B3062
:1005D0003664292C2000417A3D252B30352E336698
:1005E000672028252B303664290920090009417825
:1005F0003D252B30352E3366672028252B30366479
:10060000292C2041793D252B30352E336667202853
:10061000252B303664292C2000487967726F5F548F
:10062000656D703D252B30362E3266432C2048797F
:1006300067726F5F52656C483D2530352E326625F6
:10064000250D0A004261726F5F54656D703D252B68
:1006500030362E3266432C204261726F5F503D254A
:10066000372E3266685061092009006D505F54656D
:100670006D703D252B30362E32664309200900551A
:10068000616463343D253464206D562C20556164CB
:1006900063353D253464206D562C205573696C3DBF
:1006A000253464206D562C200054696D65203D2052
:1006B0002530366C643A205576636F3D25346420CE
:1006C0006D562C205535763D253464206D562C20F2
:1006D000556261743D253464206D562C20003D3DEB
:1006E0003D3D3D3D3D3D3D3D3D3D3D3D3D3D3D3D3A
:1006F0003D3D3D3D3D3D3D3D3D3D3D3D3D0D0A0DBD
:100700000A0046696E644D65534154202D205553AF
:1007100042206C6F6767696E6720737461727465DD
:10072000640D0A0025630D0A3D3D3D3D3D3D3D3DC7
:100730003D3D3D3D3D3D3D3D3D3D3D3D3D3D3D3DE9
:100740003D3D3D3D3D3D3D0D0A000D0A0D0A0D0AA2
:100750000000FDF9F6F3F0ECE9E6E3DFDCD9D6D2F0
:10076000CF00FDFAF6F3F0EDEAE6E3E0DDDAD7D309
:10077000D000FDFAF7F3F0EDEAE7E4E1DEDAD7D4F2
:10078000D100FDFAF7F4F1EEEBE7E4E1DEDBD8D5DA
:10079000D200FDFAF7F4F1EEEBE8E5E2DFDCD9D6C2
:1007A000D300FDFAF7F4F1EEEBE8E6E3E0DDDAD7AB
:1007B000D400FDFAF7F4F2EFECE9E6E3E0DDDBD894
:1007C000D500FDFAF8F5F2EFECE9E7E4E1DEDBD97C
:1007D000D600FDFAF8F5F2EFEDEAE7E4E2DFDCD966
:1007E000D700FDFBF8F5F3F0EDEAE8E5E2E0DDDA4D
:1007F000D800FDFBF8F5F3F0EEEBE8E6E3E0DEDB36
:10080000D900FDFBF8F6F3F1EEEBE9E6E4E1DFDC1D
:10081000DA00FDFBF8F6F3F1EEECE9E7E4E2DFDD08
:10082000DA00FEFBF9F6F4F1EFECEAE8E5E3E0DEEE
:10083000DB00FEFBF9F6F4F2EFEDEBE8E6E3E1DFD7
:10084000DC00FEFBF9F7F4F2F0EDEBE9E7E4E2E0BF
:10085000DD00FEFBF9F7F5F2F0EEECE9E7E5E3E0A9
:10086000DE00FEFCF9F7F5F3F1EEECEAE8E6E4E190
:10087000DF00FEFCFAF7F5F3F1EFEDEBE9E6E4E279
:10088000E000FEFCFAF8F6F4F2EFEDEBE9E7E5E361
:10089000E100FEFCFAF8F6F4F2F0EEECEAE8E6E449
:1008A000E200FEFCFAF8F6F4F2F0EFEDEBE9E7E532
:1008B000E300FEFCFAF8F7F5F3F1EFEDEBE9E8E61B
:1008C000E400FEFCFBF9F7F5F3F1F0EEECEAE8E703
:1008D000E500FEFCFBF9F7F5F4F2F0EEEDEBE9E7ED
:1008E000E600FEFDFBF9F8F6F4F2F1EFEDECEAE8D4
:1008F000E700FEFDFBF9F8F6F5F3F1F0EEECEBE9BD
:10090000E800FEFDFBFAF8F7F5F3F2F0EFEDECEAA4
:10091000E900FEFDFBFAF8F7F5F4F2F1EFEEECEB8F
:10092000E900FFFDFCFAF9F7F6F4F3F2F0EFEDEC75
:10093000EA00FFFDFCFAF9F8F6F5F4F2F1EFEEED5E
:10094000EB00FFFDFCFBF9F8F7F5F4F3F2F0EFEE46
:10095000EC00FFFDFCFBFAF8F7F6F5F3F2F1F0EE30
:10096000ED00FFFEFCFBFAF9F8F6F5F4F3F2F1EF17
:10097000EE00FFFEFDFBFAF9F8F7F6F5F4F2F1F000
:10098000EF00FFFEFDFCFBFAF9F7F6F5F4F3F2F1E8
:10099000F000FFFEFDFCFBFAF9F8F7F6F5F4F3F2D0
:1009A000F100FFFEFDFCFBFAF9F8F8F7F6F5F4F3B9
:1009B000F200FFFEFDFCFCFBFAF9F8F7F6F5F5F4A2
:1009C000F300FFFEFEFDFCFBFAF9F9F8F7F6F5F58A
:1009D000F400FFFEFEFDFCFBFBFAF9F8F8F7F6F574
:1009E000F500FFFFFEFDFDFCFBFAFAF9F8F8F7F65B
:1009F000F600FFFFFEFDFDFCFCFBFAFAF9F8F8F744
:100A0000F700FFFFFEFEFDFDFCFBFBFAFAF9F9F82B
:100A1000F800FFFFFEFEFDFDFCFCFBFBFAFAF9F916
:100A2000F80000FFFFFEFEFDFDFCFCFCFBFBFAFAFC
:100A3000F90000FFFFFEFEFEFDFDFDFCFCFBFBFBE5
:100A4000FA0000FFFFFFFEFEFEFDFDFDFDFCFCFCCD
:100A5000FB0000FFFFFFFFFEFEFEFEFDFDFDFDFCB7
:100A6000FC000000FFFFFFFFFFFEFEFEFEFEFEFD9E
:100A7000FD00000000FFFFFFFFFFFFFFFFFEFEFE87
:100A8000FE0000000000000000FFFFFFFFFFFFFF6F
:100A9000FF00000000000000000000000000000057
:100AA000000000000000000000010101010101013F
:100AB0000100000000010101010101010102020227
:100AC0000200000001010101010202020202020310
:100AD00003000001010101020202020303030304F7
:100AE00004000001010102020203030303040404E1
:100AF00005000001010202020303030404050505C9
:100B000006000001010202030304040405050606B1
:100B10000700010102020303040405050606070796
:100B20000800010102020303040505060607070881
:100B3000080001010203030404050606070808096A
:100B40000900010102030304050606070808090A53
:100B50000A000102020304050506070808090A0B3A
:100B60000B0001020203040506070708090A0B0B24
:100B70000C00010203040405060708090A0B0B0C0C
:100B80000D00010203040506070808090A0B0C0DF5
:100B90000E000102030405060708090A0B0C0D0EDE
:100BA0000F0001020304050607090A0B0C0D0E0FC6
:100BB000100001020305060708090A0B0C0E0F10AE
:100BC0001100010204050607080A0B0C0D0E0F1197
:100BD0001200010304050608090A0B0D0E0F10127E
:100BE0001300010304050708090B0C0D0E10111268
:100BF00014000103040607080A0B0C0E0F11121350
:100C000015000103040607090A0C0D0E1011131438
:100C100016000203050608090B0C0E0F111214151D
:100C200017000203050608090B0D0E101113141608
:100C3000170002030507080A0B0D0F1012141517F1
:100C4000180002030507080A0C0E0F1113141618DA
:100C5000190002040507090B0C0E101213151719C1
:100C60001A0002040507090B0D0F101214161819AB
:100C70001B0002040608090B0D0F11131517181A93
:100C80001C00020406080A0C0E1011131517191B7C
:100C90001D00020406080A0C0E10121416181A1C65
:100CA0001E00020406080A0C0E11131517191B1D4D
:100CB0001F00020406090B0D0F111315171A1C1E35
:100CC0002000020407090B0D0F121416181A1C1F1E
:100CD0002100020507090B0E10121417191B1D2005
:100CE0002200020507090C0E10131517191C1E20EF
:100CF00023000205070A0C0E111315181A1D1F21D7
:100D000024000205070A0C0F111416181B1D2022BF
:100D100025000305080A0D0F121417191C1E2123A4
:100D200026000305080A0D0F1215171A1C1F21248F
:100D300026000305080B0D101215181A1D20222578
:100D400027000305080B0D101316181B1E20232661
:100D500028000306080B0E111316191C1E21242748
:100D600029000306080B0E111417191C1F22252732
:100D70002A000306090C0E1114171A1D202325281A
:100D80002B000306090C0F1215181A1D2023262903
:100D90002C000306090C0F1215181B1E2124272AEC
:100DA0002D000306090C0F1215191C1F2225282BD4
:100DB0002E000306090D101316191C1F2226292CBC
:100DC0002F0003060A0D1013161A1D202326292DA5
:100DD000300080328064809680C980FB802D815FE6
:100DE000819281C481F68128825B828D82BF82F1EB
:100DF00082248356838883BA83ED831F845184833E
:100E000084B684E8841A854C857E85B185E3851592
:100E10008647867A86AC86DE86108742877487A7E7
:100E200087D9870B883D886F88A188D48806893840
:100E3000896A899C89CE89008A328A658A978AC99B
:100E40008AFB8A2D8B5F8B918BC38BF58B278C59FB
:100E50008C8B8CBD8CEF8C218D538D858DB78DE95E
:100E60008D1B8E4D8E7F8EB18EE38E158F478F79C1
:100E70008FAB8FDC8F0E9040907290A490D690072D
:100E80009139916B919D91CF91009232926492969B
:100E900092C792F9922B935D938E93C093F2932312
:100EA0009455948694B894EA941B954D957E95B08C
:100EB00095E195139644967696A796D9960A973C0F
:100EC000976D979F97D0970198339864989598C796
:100ED00098F89829995B998C99BD99EE99209A5127
:100EE0009A829AB39AE49A159B469B789BA99BDABF
:100EF0009B0B9C3C9C6D9C9E9CCF9C009D319D625D
:100F00009D939DC39DF49D259E569E879EB89EE809
:100F10009E199F4A9F7B9FAB9FDC9F0DA03DA06EBB
:100F2000A09FA0CFA000A130A161A191A1C2A1F278
:100F3000A123A253A284A2B4A2E4A215A345A3753F
:100F4000A3A6A3D6A306A436A467A497A4C7A4F710
:100F5000A427A557A587A5B7A5E7A517A647A677F0
:100F6000A6A7A6D7A607A737A767A797A7C6A7F6D6
:100F7000A726A856A885A8B5A8E5A814A944A973CA
:100F8000A9A3A9D2A902AA31AA61AA90AAC0AAEFCC
:100F9000AA1EAB4EAB7DABACABDBAB0BAC3AAC69DA
:100FA000AC98ACC7ACF6AC25AD54AD83ADB2ADE1F9
:100FB000AD10AE3FAE6EAE9DAECCAEFAAE29AF5820
:100FC000AF86AFB5AFE4AF12B041B06FB09EB0CC5A
:100FD000B0FBB029B158B186B1B4B1E3B111B23FA1
:100FE000B26DB29CB2CAB2F8B226B354B382B3B0F7
:100FF000B3DEB30CB43AB468B496B4C3B4F1B41F5E
:10100000B54DB57AB5A8B5D6B503B631B65EB68CD2
:10101000B6B9B6E7B614B741B76FB79CB7C9B7F65C
:10102000B724B851B87EB8ABB8D8B805B932B95FF3
:10103000B98CB9B9B9E6B912BA3FBA6CBA99BAC59E
:10104000BAF2BA1FBB4BBB78BBA4BBD1BBFDBB295B
:10105000BC56BC82BCAEBCDBBC07BD33BD5FBD8B28
:10106000BDB7BDE3BD0FBE3BBE67BE93BEBFBEEB0B
:10107000BE16BF42BF6EBF99BFC5BFF0BF1CC04701
:10108000C073C09EC0CAC0F5C020C14CC177C1A208
:10109000C1CDC1F8C123C24EC279C2A4C2CFC2FA27
:1010A000C225C350C37AC3A5C3D0C3FAC325C44F56
:1010B000C47AC4A4C4CFC4F9C423C54EC578C5A29C
:1010C000C5CCC5F6C520C64AC674C69EC6C8C6F2FB
:1010D000C61CC746C76FC799C7C3C7ECC716C83F6A
:1010E000C869C892C8BCC8E5C80EC938C961C98AF0
:1010F000C9B3C9DCC905CA2ECA57CA80CAA9CAD28F
:10110000CAFACA23CB4CCB74CB9DCBC5CBEECB1646
:10111000CC3FCC67CC8FCCB8CCE0CC08CD30CD5810
:10112000CD80CDA8CDD0CDF8CD20CE48CE6FCE97F6
:10113000CEBFCEE6CE0ECF35CF5DCF84CFACCFD3F2
:10114000CFFACF21D049D070D097D0BED0E5D00C07
:10115000D133D159D180D1A7D1CED1F4D11BD24135
:10116000D268D28ED2B5D2DBD201D328D34ED3747B
:10117000D39AD3C0D3E6D30CD432D458D47DD4A3DD
:10118000D4C9D4EFD414D53AD55FD585D5AAD5CF57
:10119000D5F4D51AD63FD664D689D6AED6D3D6F8EE
:1011A000D61DD742D766D78BD7B0D7D4D7F9D71D9E
:1011B000D842D866D88AD8AFD8D3D8F7D81BD93F69
:1011C000D963D987D9ABD9CFD9F3D916DA3ADA5E50
:1011D000DA81DAA5DAC8DAECDA0FDB32DB56DB7952
:1011E000DB9CDBBFDBE2DB05DC28DC4BDC6DDC9071
:1011F000DCB3DCD6DCF8DC1BDD3DDD5FDD82DDA4AD
:10120000DDC6DDE9DD0BDE2DDE4FDE71DE93DEB403
:10121000DED6DEF8DE1ADF3BDF5DDF7EDFA0DFC17A
:10122000DFE2DF04E025E046E067E088E0A9E0CA0D
:10123000E0EBE00CE12DE14DE16EE18EE1AFE1CFBD
:10124000E1F0E110E230E251E271E291E2B1E2D18B
:10125000E2F1E211E330E350E370E38FE3AFE3CE7A
:10126000E3EEE30DE42DE44CE46BE48AE4A9E4C886
:10127000E4E7E406E525E544E562E581E5A0E5BEB1
:10128000E5DDE5FBE519E638E656E674E692E6B0FC
:10129000E6CEE6ECE60AE728E745E763E781E79E66
:1012A000E7BCE7D9E7F7E714E831E84EE86BE888F0
:1012B000E8A5E8C2E8DFE8FCE819E935E952E96E9B
:1012C000E98BE9A7E9C4E9E0E9FCE918EA34EA5066
:1012D000EA6CEA88EAA4EAC0EADBEAF7EA13EB2E52
:1012E000EB4AEB65EB80EB9CEBB7EBD2EBEDEB085D
:1012F000EC23EC3EEC58EC73EC8EECA8ECC3ECDD8C
:10130000ECF8EC12ED2CED47ED61ED7BED95EDAFDA
:10131000EDC9EDE3EDFCED16EE30EE49EE63EE7C4B
:10132000EE95EEAFEEC8EEE1EEFAEE13EF2CEF45E0
:10133000EF5EEF76EF8FEFA8EFC0EFD9EFF1EF0997
:10134000F022F03AF052F06AF082F09AF0B2F0CA6D
:10135000F0E1F0F9F011F128F140F157F16EF1866A
:10136000F19DF1B4F1CBF1E2F1F9F110F226F23D89
:10137000F254F26AF281F297F2AEF2C4F2DAF2F0CB
:10138000F206F31CF332F348F35EF374F389F39F30
:10139000F3B5F3CAF3DFF3F5F30AF41FF434F449B9
:1013A000F45EF473F488F49DF4B1F4C6F4DBF4EF66
:1013B000F403F518F52CF540F554F568F57CF59037
:1013C000F5A4F5B8F5CCF5DFF5F3F506F61AF62D2C
:1013D000F640F653F667F67AF68DF6A0F6B2F6C545
:1013E000F6D8F6EAF6FDF610F722F734F747F75984
:1013F000F76BF77DF78FF7A1F7B3F7C4F7D6F7E8E8
:10140000F7F9F70BF81CF82EF83FF850F861F8726E
:10141000F883F894F8A5F8B6F8C6F8D7F8E7F8F81E
:10142000F808F919F929F939F949F959F969F979EE
:10143000F989F998F9A8F9B8F9C7F9D7F9E6F9F5EA
:10144000F904FA14FA23FA32FA41FA4FFA5EFA6D05
:10145000FA7CFA8AFA99FAA7FAB5FAC4FAD2FAE04B
:10146000FAEEFAFCFA0AFB18FB25FB33FB41FB4EB4
:10147000FB5CFB69FB76FB83FB91FB9EFBABFBB844
:10148000FBC4FBD1FBDEFBEBFBF7FB04FC10FC1CFD
:10149000FC29FC35FC41FC4DFC59FC65FC70FC7CD6
:1014A000FC88FC93FC9FFCAAFCB6FCC1FCCCFCD7DE
:1014B000FCE2FCEDFCF8FC03FD0EFD18FD23FD2E07
:1014C000FD38FD42FD4DFD57FD61FD6BFD75FD7F56
:1014D000FD89FD93FD9CFDA6FDB0FDB9FDC2FDCCCF
:1014E000FDD5FDDEFDE7FDF0FDF9FD02FE0BFE136F
:1014F000FE1CFE25FE2DFE36FE3EFE46FE4EFE5630
:10150000FE5EFE66FE6EFE76FE7EFE85FE8DFE941F
:10151000FE9CFEA3FEAAFEB2FEB9FEC0FEC7FECE32
:10152000FED4FEDBFEE2FEE8FEEFFEF5FEFCFE0270
:10153000FF08FF0EFF14FF1AFF20FF26FF2CFF31CC
:10154000FF37FF3CFF42FF47FF4CFF52FF57FF5C56
:10155000FF61FF66FF6AFF6FFF74FF78FF7DFF8109
:10156000FF86FF8AFF8EFF92FF96FF9AFF9EFFA2E3
:10157000FFA6FFA9FFADFFB0FFB4FFB7FFBBFFBEE3
:10158000FFC1FFC4FFC7FFCAFFCDFFCFFFD2FFD50A
:10159000FFD7FFD9FFDCFFDEFFE0FFE2FFE4FFE65D
:1015A000FFE8FFEAFFECFFEEFFEFFFF1FFF2FFF3D2
:1015B000FFF5FFF6FFF7FFF8FFF9FFFAFFFBFFFB70
:1015C000FFFCFFFDFFFDFFFEFFFEFFFEFFFEFFFE37
:1015D000FFFFFFFEFFFEFFFEFFFEFFFEFFFDFFFD24
:1015E000FFFCFFFBFFFBFFFAFFF9FFF8FFF7FFF639
:1015F000FFF5FFF3FFF2FFF1FFEFFFEEFFECFFEA75
:10160000FFE8FFE6FFE4FFE2FFE0FFDEFFDCFFD9DB
:10161000FFD7FFD5FFD2FFCFFFCDFFCAFFC7FFC463
:10162000FFC1FFBEFFBBFFB7FFB4FFB0FFADFFA917
:10163000FFA6FFA2FF9EFF9AFF96FF92FF8EFF8AF2
:10164000FF86FF81FF7DFF78FF74FF6FFF6AFF66F3
:10165000FF61FF5CFF57FF52FF4CFF47FF42FF3C1B
:10166000FF37FF31FF2CFF26FF20FF1AFF14FF0E6C
:10167000FF08FF02FFFCFEF5FEEFFEE8FEE2FEDBE8
:10168000FED4FECEFEC7FEC0FEB9FEB2FEAAFEA389
:10169000FE9CFE94FE8DFE85FE7EFE76FE6EFE6650
:1016A000FE5EFE56FE4EFE46FE3EFE36FE2DFE253C
:1016B000FE1CFE13FE0BFE02FEF9FDF0FDE7FDDE53
:1016C000FDD5FDCCFDC2FDB9FDB0FDA6FD9CFD9391
:1016D000FD89FD7FFD75FD6BFD61FD57FD4DFD42F3
:1016E000FD38FD2EFD23FD18FD0EFD03FDF8FCED7C
:1016F000FCE2FCD7FCCCFCC1FCB6FCAAFC9FFC9332
:10170000FC88FC7CFC70FC65FC59FC4DFC41FC3504
:10171000FC29FC1CFC10FC04FCF7FBEBFBDEFBD102
:10172000FBC4FBB8FBABFB9EFB91FB83FB76FB6929
:10173000FB5CFB4EFB41FB33FB25FB18FB0AFBFC70
:10174000FAEEFAE0FAD2FAC4FAB5FAA7FA99FA8AE6
:10175000FA7CFA6DFA5EFA4FFA41FA32FA23FA1479
:10176000FA04FAF5F9E6F9D7F9C7F9B8F9A8F9983A
:10177000F989F979F969F959F949F939F929F91919
:10178000F908F9F8F8E7F8D7F8C6F8B6F8A5F89424
:10179000F883F872F861F850F83FF82EF81CF80B4F
:1017A000F8F9F7E8F7D6F7C4F7B3F7A1F78FF77DA5
:1017B000F76BF759F747F734F722F710F7FDF6EA1A
:1017C000F6D8F6C5F6B2F6A0F68DF67AF667F653B9
:1017D000F640F62DF61AF606F6F3F5DFF5CCF5B879
:1017E000F5A4F590F57CF568F554F540F52CF51861
:1017F000F503F5EFF4DBF4C6F4B1F49DF488F4736B
:10180000F45EF449F434F41FF40AF4F5F3DFF3CA98
:10181000F3B5F39FF389F374F35EF348F332F31CEB
:10182000F306F3F0F2DAF2C4F2AEF297F281F26A62
:10183000F254F23DF226F210F2F9F1E2F1CBF1B4FA
:10184000F19DF186F16EF157F140F128F111F1F9B6
:10185000F0E1F0CAF0B2F09AF082F06AF052F03A99
:10186000F022F009F0F1EFD9EFC0EFA8EF8FEF769B
:10187000EF5EEF45EF2CEF13EFFAEEE1EEC8EEAFBF
:10188000EE95EE7CEE63EE49EE30EE16EEFCEDE307
:10189000EDC9EDAFED95ED7BED61ED47ED2CED1272
:1018A000EDF8ECDDECC3ECA8EC8EEC73EC58EC3E00
:1018B000EC23EC08ECEDEBD2EBB7EB9CEB80EB65AB
:1018C000EB4AEB2EEB13EBF7EADBEAC0EAA4EA887B
:1018D000EA6CEA50EA34EA18EAFCE9E0E9C4E9A76C
:1018E000E98BE96EE952E935E919E9FCE8DFE8C27C
:1018F000E8A5E888E86BE84EE831E814E8F7E7D9AE
:10190000E7BCE79EE781E763E745E728E70AE7ECFE
:10191000E6CEE6B0E692E674E656E638E619E6FB71
:10192000E5DDE5BEE5A0E581E562E544E525E50602
:10193000E5E7E4C8E4A9E48AE46BE44CE42DE40DB3
:10194000E4EEE3CEE3AFE38FE370E350E330E31183
:10195000E3F1E2D1E2B1E291E271E251E230E21070
:10196000E2F0E1CFE1AFE18EE16EE14DE12DE10C7E
:10197000E1EBE0CAE0A9E088E067E046E025E004AA
:10198000E0E2DFC1DFA0DF7EDF5DDF3BDF1ADFF8F3
:10199000DED6DEB4DE93DE71DE4FDE2DDE0BDEE959
:1019A000DDC6DDA4DD82DD5FDD3DDD1BDDF8DCD6DF
:1019B000DCB3DC90DC6DDC4BDC28DC05DCE2DBBF7F
:1019C000DB9CDB79DB56DB32DB0FDBECDAC8DAA53C
:1019D000DA81DA5EDA3ADA16DAF3D9CFD9ABD98717
:1019E000D963D93FD91BD9F7D8D3D8AFD88AD8660D
:1019F000D842D81DD8F9D7D4D7B0D78BD766D7421D
:101A0000D71DD7F8D6D3D6AED689D664D63FD61A48
:101A1000D6F4D5CFD5AAD585D55FD53AD514D5EF8F
:101A2000D4C9D4A3D47DD458D432D40CD4E6D3C0F2
:101A3000D39AD374D34ED328D301D3DBD2B5D28E6D
:101A4000D268D241D21BD2F4D1CED1A7D180D15904
:101A5000D133D10CD1E5D0BED097D070D049D021B0
:101A6000D0FACFD3CFACCF84CF5DCF35CF0ECFE67A
:101A7000CEBFCE97CE6FCE48CE20CEF8CDD0CDA85B
:101A8000CD80CD58CD30CD08CDE0CCB8CC8FCC6753
:101A9000CC3FCC16CCEECBC5CB9DCB74CB4CCB2363
:101AA000CBFACAD2CAA9CA80CA57CA2ECA05CADC8A
:101AB000C9B3C98AC961C938C90EC9E5C8BCC892C9
:101AC000C869C83FC816C8ECC7C3C799C76FC7461F
:101AD000C71CC7F2C6C8C69EC674C64AC620C6F68C
:101AE000C5CCC5A2C578C54EC523C5F9C4CFC4A40D
:101AF000C47AC44FC425C4FAC3D0C3A5C37AC350A3
:101B0000C325C3FAC2CFC2A4C279C24EC223C2F84F
:101B1000C1CDC1A2C177C14CC120C1F5C0CAC09E10
:101B2000C073C047C01CC0F0BFC5BF99BF6EBF42E5
:101B3000BF16BFEBBEBFBE93BE67BE3BBE0FBEE3CC
:101B4000BDB7BD8BBD5FBD33BD07BDDBBCAEBC82C9
:101B5000BC56BC29BCFDBBD1BBA4BB78BB4BBB1FD7
:101B6000BBF2BAC5BA99BA6CBA3FBA12BAE6B9B9F9
:101B7000B98CB95FB932B905B9D8B8ABB87EB8512C
:101B8000B824B8F6B7C9B79CB76FB741B714B7E771
:101B9000B6B9B68CB65EB631B603B6D6B5A8B57AC8
:101BA000B54DB51FB5F1B4C3B496B468B43AB40C2E
:101BB000B4DEB3B0B382B354B326B3F8B2CAB29CA6
:101BC000B26DB23FB211B2E3B1B4B186B158B1292E
:101BD000B1FBB0CCB09EB06FB041B012B0E4AFB5C5
:101BE000AF86AF58AF29AFFAAECCAE9DAE6EAE3F6A
:101BF000AE10AEE1ADB2AD83AD54AD25ADF6ACC720
:101C0000AC98AC69AC3AAC0BACDBABACAB7DAB4EDF
:101C1000AB1EABEFAAC0AA90AA61AA31AA02AAD2AF
:101C2000A9A3A973A944A914A9E5A8B5A885A8568C
:101C3000A826A8F6A7C6A797A767A737A707A7D775
:101C4000A6A7A677A647A617A6E7A5B7A587A5576F
:101C5000A527A5F7A4C7A497A467A436A406A4D66D
:101C6000A3A6A375A345A315A3E4A2B4A284A2537B
:101C7000A223A2F2A1C2A191A161A130A100A1CF92
:101C8000A09FA06EA03DA00DA0DC9FAB9F7B9F4AB4
:101C90009F199FE89EB89E879E569E259EF49DC3E1
:101CA0009D939D629D319D009DCF9C9E9C6D9C3C13
:101CB0009C0B9CDA9BA99B789B469B159BE49AB353
:101CC0009A829A519A209AEE99BD998C995B99299A
:101CD00099F898C7989598649833980198D0979FE9
:101CE000976D973C970A97D996A796769644961340
:101CF00096E195B0957E954D951B95EA94B894869E
:101D00009455942394F293C0938E935D932B93F9FF
:101D100092C7929692649232920092CF919D916B6B
:101D20009139910791D690A490729040900E90DCDA
:101D30008FAB8F798F478F158FE38EB18E7F8E4D4E
:101D40008E1B8EE98DB78D858D538D218DEF8CBDCA
:101D50008C8B8C598C278CF58BC38B918B5F8B2D47
:101D60008BFB8AC98A978A658A328A008ACE899CC7
:101D7000896A8938890689D488A1886F883D880B4B
:101D800088D987A787748742871087DE86AC867AD2
:101D90008647861586E385B1857E854C851A85E85C
:101DA00084B684838451841F84ED83BA83888356E8
:101DB000832483F182BF828D825B822882F681C474
:101DC0008192815F812D81FB80C980968064803201
:101DD000800080CD7F9B7F697F367F047FD27EA08D
:101DE0007E6D7E3B7E097ED77DA47D727D407D0E1B
:101DF0007DDB7CA97C777C457C127CE07BAE7B7CA8
:101E00007B497B177BE57AB37A817A4E7A1C7AEA32
:101E100079B879857953792179EF78BD788B7858BD
:101E2000782678F477C27790775E772B77F976C744
:101E300076957663763176FF75CD759A75687536C9
:101E4000750475D274A0746E743C740A74D873A649
:101E500073747342731073DE72AC727A72487216C6
:101E600072E471B27180714E711C71EA70B8708643
:101E70007054702370F16FBF6F8D6F5B6F296FF8B7
:101E80006EC66E946E626E306EFF6DCD6D9B6D6929
:101E90006D386D066DD46CA26C716C3F6C0D6CDC92
:101EA0006BAA6B796B476B156BE46AB26A816A4FF8
:101EB0006A1E6AEC69BB69896958692669F568C355
:101EC00068926860682F68FE67CC679B676A6738AE
:101ED000670767D666A466736642661166DF65AEFD
:101EE000657D654C651B65EA64B964876456642545
:101EF00064F463C363926361633063FF62CE629D87
:101F0000626C623C620B62DA61A9617861476117B9
:101F100061E660B560846054602360F25FC25F91E7
:101F20005F605F305FFF5ECF5E9E5E6E5E3D5E0D0A
:101F30005EDC5DAC5D7B5D4B5D1B5DEA5CBA5C8A23
:101F40005C595C295CF95BC95B985B685B385B0832
:101F50005BD85AA85A785A485A185AE859B8598832
:101F60005958592859F858C858985868583958092C
:101F700058D957A9577A574A571A57EB56BB568C18
:101F8000565C562D56FD55CE559E556F553F5510F6
:101F900055E154B154825453542454F453C55396C8
:101FA00053675338530953DA52AB527C524D521E89
:101FB00052EF51C0519151625133510551D650A742
:101FC0005079504A501B50ED4FBE4F904F614F33E8
:101FD0004F044FD64EA74E794E4B4E1C4EEE4DC081
:101FE0004D924D634D354D074DD94CAB4C7D4C4F0B
:101FF0004C214CF34BC54B974B694B3C4B0E4BE084
:102000004AB24A854A574A294AFC49CE49A14973EE
:102010004946491849EB48BE489048634836480944
:1020200048DB47AE47814754472747FA46CD46A08D
:1020300046734646461946ED45C045934566453AC2
:10204000450D45E044B44487445B442E440244D6E5
:1020500043A9437D4351432443F842CC42A04274F8
:102060004248421C42F041C44198416C41404114F5
:1020700041E940BD40914066403A400F40E33FB8DF
:102080003F8C3F613F353F0A3FDF3EB33E883E5DB8
:102090003E323E073EDC3DB13D863D5B3D303D0579
:1020A0003DDA3CAF3C853C5A3C2F3C053CDA3BB02A
:1020B0003B853B5B3B303B063BDC3AB13A873A5DC4
:1020C0003A333A093ADF39B5398B39613937390D45
:1020D00039E338B938903866383C381338E937C0B6
:1020E0003796376D3743371A37F136C7369E367510
:1020F000364C362336FA35D135A8357F3556352D51
:10210000350535DC34B3348B3462343A341134E978
:1021100033C0339833703347331F33F732CF32A78E
:10212000327F3257322F320732DF31B73190316888
:102130003140311931F130CA30A2307B3053302C6C
:10214000300530DE2FB62F8F2F682F412F1A2FF337
:102150002ECC2EA62E7F2E582E312E0B2EE42DBEE9
:102160002D972D712D4A2D242DFE2CD72CB12C8B83
:102170002C652C3F2C192CF32BCD2BA72B822B5C01
:102180002B362B102BEB2AC52AA02A7A2A552A3067
:102190002A0B2AE529C0299B29762951292C2907B0
:1021A00029E228BD28992874284F282B280628E2E0
:1021B00027BD279927752750272C270827E426C0F5
:1021C000269C267826542630260C26E925C525A1EE
:1021D000257E255A2537251325F024CD24A92486CC
:1021E00024632440241D24FA23D723B42392236F8D
:1021F000234C2329230723E422C222A0227D225B31
:102200002239221622F421D221B0218E216C214BB9
:102210002129210721E520C420A22081205F203E22
:10222000201D20FB1FDA1FB91F981F771F561F356F
:102230001F141FF31ED21EB21E911E711E501E309F
:102240001E0F1EEF1DCF1DAE1D8E1D6E1D4E1D2EB1
:102250001D0E1DEE1CCF1CAF1C8F1C701C501C31A2
:102260001C111CF21BD21BB31B941B751B561B3776
:102270001B181BF91ADA1ABB1A9D1A7E1A5F1A412B
:102280001A221A041AE619C719A9198B196D194FC0
:102290001931191319F518D718BA189C187E186136
:1022A00018431826180818EB17CE17B1179417778C
:1022B000175A173D1720170317E616CA16AD1691C1
:1022C00016741658163B161F160316E715CB15AFD6
:1022D00015931577155B153F1524150815EC14D1CA
:1022E00014B5149A147F14631448142D141214F79F
:1022F00013DC13C113A7138C13711357133C132250
:10230000130713ED12D312B8129E1284126A1250E0
:102310001236121C120312E911CF11B6119C11834F
:10232000116A11501137111E110511EC10D310BA9A
:1023300010A1108910701057103F1026100E10F6C3
:102340000FDD0FC50FAD0F950F7D0F650F4D0F35CD
:102350000F1E0F060FEE0ED70EBF0EA80E910E79B0
:102360000E620E4B0E340E1D0E060EEF0DD90DC271
:102370000DAB0D950D7E0D680D510D3B0D250D0F0F
:102380000DF90CE30CCD0CB70CA10C8B0C760C608A
:102390000C4A0C350C200C0A0CF50BE00BCB0BB6E1
:1023A0000BA10B8C0B770B620B4E0B390B240B1014
:1023B0000BFC0AE70AD30ABF0AAB0A970A830A6F23
:1023C0000A5B0A470A330A200A0C0AF909E509D20E
:1023D00009BF09AC099809850972095F094D093AD5
:1023E00009270915090209EF08DD08CB08B808A676
:1023F000089408820870085E084C083B08290817F2
:10240000080608F407E307D107C007AF079E078D4A
:10241000077C076B075A074907390728071807077A
:1024200007F706E606D606C606B606A6069606868A
:102430000676066706570647063806280619060A6E
:1024400006FB05EB05DC05CD05BE05B005A1059233
:102450000583057505660558054A053B052D051FCD
:102460000511050305F504E704DA04CC04BE04B144
:1024700004A304960489047C046E04610454044794
:10248000043B042E04210414040804FB03EF03E3BB
:1024900003D603CA03BE03B203A6039A038F0383C2
:1024A0000377036C036003550349033E033303289A
:1024B000031D0312030703FC02F102E702DC02D151
:1024C00002C702BD02B202A8029E0294028A0280E2
:1024D0000276026C02630259024F0246023D023349
:1024E000022A02210218020F020602FD01F401EC89
:1024F00001E301DA01D201C901C101B901B101A9A8
:1025000001A10199019101890181017A0172016B97
:102510000163015C0155014D0146013F0138013164
:10252000012B0124011D01170110010A010301FD06
:1025300000F700F100EB00E500DF00D900D300CE8A
:1025400000C800C300BD00B800B300AD00A800A3E0
:10255000009E009900950090008B00870082007E0D
:10256000007900750071006D006900650061005D13
:10257000005900560052004F004B004800440041F3
:10258000003E003B0038003500320030002D002AAC
:102590000028002600230021001F001D001B001939
:1025A00000170015001300110010000E000D000CA4
:1025B000000A0009000800070006000500040004E6
:1025C00000030002000200010001000100010001FF
:1025D00000010001000100010001000100020002F1
:1025E00000030004000400050006000700080009BD
:1025F000000A000C000D000E001000110013001561
:1026000000170019001B001D001F002100230026D9
:102610000028002A002D0030003200350038003B31
:10262000003E004100440048004B004F005200565D
:102630000059005D006100650069006D0071007562
:102640000079007E00820087008B00900095009941
:10265000009E00A300A800AD00B300B800BD00C3F9
:1026600000C800CE00D300D900DF00E500EB00F188
:1026700000F700FD0003010A01100117011D0124EC
:10268000012B01310138013F0146014D0155015C2B
:102690000163016B0172017A018101890191019944
:1026A00001A101A901B101B901C101C901D201DA38
:1026B00001E301EC01F401FD0106020F0218022101
:1026C000022A0233023D0246024F02590263026CA3
:1026D00002760280028A0294029E02A802B202BD21
:1026E00002C702D102DC02E702F102FC0207031278
:1026F000031D03280333033E034903550360036CA2
:1027000003770383038F039A03A603B203BE03CAAE
:1027100003D603E303EF03FB030804140421042E90
:10272000043B044704540461046E047C0489049649
:1027300004A304B104BE04CC04DA04E704F50403E2
:102740000511051F052D053B054A0558056605754C
:102750000583059205A105B005BE05CD05DC05EB99
:1027600005FB050A061906280638064706570667B8
:1027700006760686069606A606B606C606D606E6B9
:1027800006F706070718072807390749075A076B8E
:10279000077C078D079E07AF07C007D107E307F443
:1027A000070608170829083B084C085E08700882CD
:1027B000089408A608B808CB08DD08EF0802091538
:1027C0000927093A094D095F09720985099809AC79
:1027D00009BF09D209E509F9090C0A200A330A4799
:1027E0000A5B0A6F0A830A970AAB0ABF0AD30AE791
:1027F0000AFC0A100B240B390B4E0B620B770B8C67
:102800000BA10BB60BCB0BE00BF50B0A0C200C3518
:102810000C4A0C600C760C8B0CA10CB70CCD0CE3A5
:102820000CF90C0F0D250D3B0D510D680D7E0D950E
:102830000DAB0DC20DD90DEF0D060E1D0E340E4B56
:102840000E620E790E910EA80EBF0ED70EEE0E067A
:102850000F1E0F350F4D0F650F7D0F950FAD0FC577
:102860000FDD0FF60F0E1026103F10571070108955
:1028700010A110BA10D310EC1005111E1137115011
:10288000116A1183119C11B611CF11E91103121CA9
:1028900012361250126A1284129E12B812D312ED1E
:1028A00012071322133C13571371138C13A713C170
:1028B00013DC13F71312142D14481463147F149AA5
:1028C00014B514D114EC14081524153F155B1577B5
:1028D000159315AF15CB15E71503161F163B1658A4
:1028E0001674169116AD16CA16E616031720173D74
:1028F000175A1777179417B117CE17EB1708182622
:1029000018431861187E189C18BA18D718F51813B0
:102910001931194F196D198B19A919C719E619041D
:102920001A221A411A5F1A7E1A9D1ABB1ADA1AF96C
:102930001A181B371B561B751B941BB31BD21BF29B
:102940001B111C311C501C701C8F1CAF1CCF1CEEAB
:102950001C0E1D2E1D4E1D6E1D8E1DAE1DCF1DEF9E
:102960001D0F1E301E501E711E911EB21ED21EF370
:102970001E141F351F561F771F981FB91FDA1FFB24
:102980001F1D203E205F208120A220C420E52007BB
:102990002129214B216C218E21B021D221F4211635
:1029A0002239225B227D22A022C222E4220723298F
:1029B000234C236F239223B423D723FA231D2440CF
:1029C0002463248624A924CD24F024132537255AF2
:1029D000257E25A125C525E9250C263026542678F7
:1029E000269C26C026E42608272C275027752799E1
:1029F00027BD27E22706282B284F2874289928BDB1
:102A000028E22807292C29512976299B29C029E564
:102A1000290B2A302A552A7A2AA02AC52AEB2A10FD
:102A20002B362B5C2B822BA72BCD2BF32B192C3F7A
:102A30002C652C8B2CB12CD72CFE2C242D4A2D71DF
:102A40002D972DBE2DE42D0B2E312E582E7F2EA628
:102A50002ECC2EF32E1A2F412F682F8F2FB62FDE5C
:102A60002F05302C3053307B30A230CA30F1301972
:102A700031403168319031B731DF3107322F325771
:102A8000327F32A732CF32F7321F33473370339859
:102A900033C033E93311343A3462348B34B334DC29
:102AA0003405352D3556357F35A835D135FA3523E2
:102AB000364C3675369E36C736F1361A3743376D83
:102AC000379637C037E93713383C3866389038B90D
:102AD00038E3380D39373961398B39B539DF390980
:102AE0003A333A5D3A873AB13ADC3A063B303B5BDF
:102AF0003B853BB03BDA3B053C2F3C5A3C853CAF29
:102B00003CDA3C053D303D5B3D863DB13DDC3D075B
:102B10003E323E5D3E883EB33EDF3E0A3F353F617A
:102B20003F8C3FB83FE33F0F403A4066409140BD85
:102B300040E940144140416C419841C441F0411C7E
:102B40004248427442A042CC42F842244351437D61
:102B500043A943D64302442E445B448744B444E033
:102B6000440D453A4566459345C045ED45194646F1
:102B7000467346A046CD46FA46274754478147AE9E
:102B800047DB470948364863489048BE48EB481839
:102B90004946497349A149CE49FC49294A574A85C2
:102BA0004AB24AE04A0E4B3C4B694B974BC54BF33C
:102BB0004B214C4F4C7D4CAB4CD94C074D354D63A4
:102BC0004D924DC04DEE4D1C4E4B4E794EA74ED6FC
:102BD0004E044F334F614F904FBE4FED4F1B504A45
:102BE000507950A750D6500551335162519151C080
:102BF00051EF511E524D527C52AB52DA52095338AA
:102C00005367539653C553F453245453548254B1C9
:102C100054E15410553F556F559E55CE55FD552DD9
:102C2000565C568C56BB56EB561A574A577A57A9DC
:102C300057D9570958395868589858C858F85828D3
:102C40005958598859B859E859185A485A785AA8B9
:102C50005AD85A085B385B685B985BC95BF95B299B
:102C60005C595C8A5CBA5CEA5C1B5D4B5D7B5DAC6D
:102C70005DDC5D0D5E3D5E6E5E9E5ECF5EFF5E3036
:102C80005F605F915FC25FF25F236054608460B5F4
:102C900060E660176147617861A961DA610B623CA7
:102CA000626C629D62CE62FF62306361639263C355
:102CB00063F463256456648764B964EA641B654CF5
:102CC000657D65AE65DF65116642667366A466D68E
:102CD00066076738676A679B67CC67FE672F68601F
:102CE000689268C368F568266958698969BB69ECA8
:102CF000691E6A4F6A816AB26AE46A156B476B792A
:102D00006BAA6BDC6B0D6C3F6C716CA26CD46C06A7
:102D10006D386D696D9B6DCD6DFF6D306E626E941B
:102D20006EC66EF86E296F5B6F8D6FBF6FF16F238C
:102D30007054708670B870EA701C714E718071B2F8
:102D400071E471167248727A72AC72DE721073425C
:102D5000737473A673D8730A743C746E74A074D2BF
:102D6000740475367568759A75CD75FF753176631F
:102D7000769576C776F9762B775E779077C277F47B
:102D800077267858788B78BD78EF782179537985D4
:102D900079B879EA791C7A4E7A817AB37AE57A172A
:102DA0007B497B7C7BAE7BE07B127C457C777CA97E
:102DB0007CDB7C0E7D407D727DA47DD77D097E3BD2
:102DC0007E6D7EA07ED27E047F367F697F9B7FCD25
:102DD0007F0D0A3F3F3F20756E6B6E6F776E2063ED
:102DE0006F6D6D616E64202D20666F72206173734C
:102DF000697374616E636520656E74657220206806
:102E0000656C700D0A00786F3D0072657365743DE6
:102E10000070743D006B623D0068656C7000696E07
:102E2000666F3D0065623D006464733D00646163EC
:102E30003D0063616C3D6779726F0063616C3D6456
:102E4000656661756C74730063616C3D6163636595
:102E50006C7A0063616C3D616363656C79006361EA
:102E60006C3D616363656C7800626C3D0062696112
:102E7000733D00412F004154006164633D000D0A21
:102E80003E20000D0A002D313A20504C4C204F4E70
:102E90000D0A00786F3D0909302D36353533353A46
:102EA0002056435443584F2070756C6C20766F6CDD
:102EB000746167652C200072657365743D09093182
:102EC0003A207265626F6F7420414C4C0D0A0031DC
:102ED0003A207475726E2073706565642C20323AE6
:102EE00020766172696F6D657465720D0A00707489
:102EF0003D0909303A20706974636820746F6E650B
:102F0000204F46462C20006B623D0909303A206B69
:102F100065792062656570204F46462C20313A2045
:102F20004F4E0D0A00307830323A2053494D383038
:102F3000380D0A00696E666F3D0909303A204F4628
:102F4000462C20307830313A204154786D656761E5
:102F50002C200061626F757420616C6C2061766159
:102F6000696C61626C6520636F6D6D616E64730D79
:102F70000A0068656C7009095468697320696E6697
:102F80006F726D6174696F6E207061676520006596
:102F9000623D0909303A206572726F722062656580
:102FA00070204F46462C20313A204F4E0D0A0063C8
:102FB0003A207374617274696E672070686173651A
:102FC000206F6620444453312D44445330206465BF
:102FD000670D0A00623A2044445331206D487A2C30
:102FE00020006464733D612C622C6309613A2044C3
:102FF000445330206672657175656E6379206D4843
:103000007A2C2000313A207475726E20444143427C
:10301000206F6E0D0A006461633D0909303A207427
:1030200075726E2044414342206F66662C20000971
:10303000096779726F3A2072656475636520475934
:10304000524F206F6666736574206572726F72737B
:103050000D0A000909616363656C7A3A205A2D6193
:1030600078697320316720666163742D63616C2C0D
:1030700020582F59206F66667365742D63616C0D3F
:103080000A000909616363656C793A20592D6178FA
:10309000697320316720666163742D63616C2C2035
:1030A000582F5A206F66667365742D63616C0D0A24
:1030B000000909616363656C783A20582D6178696D
:1030C0007320316720666163742D63616C2C205915
:1030D0002F5A206F66667365742D63616C0D0A004C
:1030E000746F20454550524F4D0D0A0063616C3D91
:1030F000090964656661756C74733A20736176655D
:103100002064656661756C742076616C75657320EA
:10311000002D313A204155544F2C202D323A205465
:1031200055524E4C49474854207370656369616C31
:103130000D0A00626C3D0909302D3235353A2062A6
:1031400061636B6C696768742050574D2C20006672
:103150006F72204C434420636F6E74726173740D00
:103160000A00626961733D0909302D36333A2062E5
:1031700069617320766F6C74616765200041540942
:1031800009434D4420746F2073656E6420746F2072
:103190007468652053494D3830380D0A00313A20A3
:1031A0007475726E204144434120616E6420414435
:1031B0004342206F6E0D0A006164633D0909303A95
:1031C000207475726E204144434120616E64204139
:1031D000444342206F66662C20002A20434F4D4D09
:1031E000414E4453202A0D0A2A2A2A2A2A2A2A2A08
:1031F0002A2A2A2A0D0A0D0A000D0A0D0A0D0A2A8A
:103200002A2A2A2A2A2A2A2A2A2A2A0D0A0025357F
:103210002E33660025342E3166002530372E326677
:10322000002530352E3266002D2D2D2D2D2D2D2DE6
:103230002D2D2D0D0A0D0A00496E69743A20426148
:10324000726F202073756363657373005457492D43
:103250006F6E626F6172643A20202E2E2E2064659C
:1032600076696365206E6F74206F6E20626F617285
:10327000642E202873633D2564290D0A00545749A4
:103280002D6F6E626F6172643A2020494E4954205E
:10329000737563636573732E0D0A005457492D6F60
:1032A0006E626F6172643A2020424144207265610F
:1032B00064696E672050524F4D206164647265737B
:1032C000732025642E202873633D2564290D0A0090
:1032D0005457492D6F6E626F6172643A2042617279
:1032E0006F204D53353630373032424130332D3533
:1032F00030202D202020202073657269616C233AD4
:103300002025640D0A005457492D6F6E626F61725B
:10331000643A20204241442072656164696E6720EE
:1033200073657269616C2F43524320776F72642E0C
:10333000202873633D2564290D0A000D0A5457495E
:103340002D6F6E626F6172643A204261726F204D20
:1033500053353630373032424130332D3530202D21
:103360002049324320616464726573733A20307877
:10337000253032580D0A00496E69743A2047797237
:103380006F202073756363657373005457492D6F05
:103390006E626F6172643A20202E2E2E2064657654
:1033A000696365206E6F74206F6E20626F61726456
:1033B0002E202873633D2564290D0A005457492D9A
:1033C0006F6E626F6172643A2020494E49542073D7
:1033D0007563636573732E0D0A005457492D6F6E24
:1033E000626F6172643A204779726F204D50552D9B
:1033F00039323530202D20202020207665727369E7
:103400006F6E3A203078253032582C2030782530B5
:1034100032580D0A005457492D6F6E626F61726405
:103420003A204779726F204D50552D393235302072
:1034300020202D20202027726573657420312720DD
:1034400062616420726573706F6E73650D0A000DA2
:103450000A5457492D6F6E626F6172643A20477942
:10346000726F204D50552D39323530202D20493284
:103470004320616464726573733A2030782530327A
:10348000582C203078253032580D0A00496E697466
:103490003A20487967726F207375636365737300B0
:1034A0005457492D6F6E626F6172643A20202E2E40
:1034B0002E20646576696365206E6F74206F6E20C0
:1034C000626F6172642E202873633D2564290D0AA2
:1034D000005457492D6F6E626F6172643A20204923
:1034E0004E495420737563636573732E0D0A00543F
:1034F00057492D6F6E626F6172643A204879677226
:103500006F2053485433312D444953202D2020201F
:103510007374617475733A203078253032580D0A0F
:10352000005457492D6F6E626F6172643A2048797A
:1035300067726F2053485433312D444953202D2056
:10354000202061646472657373204E41434B202FC9
:103550002027627265616B27206261642072657347
:10356000706F6E73650D0A000D0A5457492D6F6E0A
:10357000626F6172643A20487967726F20534854D1
:1035800033312D444953202D204932432061646456
:10359000726573733A203078253032580D0A000076
:1035A00011241FBECFEFCDBFDFE5DEBF00E00CBFB3
:1035B00011E2A0E0B0E2E0E2FEE101E00BBF02C0F8
:1035C00007900D92AC3AB107D9F72EE2ACEAB1E21E
:1035D00001C01D92A339B207E1F70E9497710C94C4
:1035E000EC8E0C940000EF92FF920F931F93CF93F9
:1035F000DF937C018B01EA01209739F0F80161919A
:103600008F01C7010AD02197C9F780E0DF91CF91E0
:103610001F910F91FF90EF900895FC01918195FF0C
:10362000FDCF608380E090E00895FC0191819923B3
:10363000ECF7808108954F925F926F927F928F9204
:103640009F92AF92BF92EF92FF920F931F93CF93EF
:103650007C014A015B0128013901FC01848182FF60
:1036600016C0D901C801689412F8B695A795979528
:1036700087951694D1F7B901A801032E36E1769506
:103680006795579547953A95D1F7302D15C0D901D3
:10369000C801689413F8B695A795979587951694E1
:1036A000D1F7B901A801032E37E1769567955795B3
:1036B00047953A95D1F7302D88159905AA05BB0590
:1036C00008F4A6C084169506A606B70608F4A2C09C
:1036D000F701848182FD04C0880C991CAA1CBB1CC4
:1036E000C301B201A50194010E9477872F3F3105E4
:1036F0004105510508F490C08FEF90E0A0E0B0E0E4
:10370000C9EF05C0281739074A075B0758F0880F2B
:10371000991FAA1FBB1FCD3F0CF48160CF5FC7303C
:1037200089F74FC0CC230CF04CC0D501C401880FE1
:10373000991FAA1FBB1F880F991FAA1FBB1F880FA5
:10374000991FAA1FBB1F481A590A6A0A7B0ACE3F53
:10375000F4F48DEF9FEF8C1B9109C7FD939504C086
:10376000440C551C661C771C8A95D2F7D501C40100
:10377000B695A79597958795BC01CD01640D751DEC
:10378000861D971DA50194010E94778737C083E0AD
:103790008C0FA501940104C0220F331F441F551F35
:1037A0008A95D2F7DA01C901B695A79597958795BD
:1037B000BC01CD01640D751D861D971D0E94778784
:1037C0001DC083E08C0FA501940104C0220F331F9C
:1037D000441F551F8A95D2F7DA01C901B695A795FE
:1037E00097958795BC01CD01640D751D861D971DAC
:1037F0000E9477872150310941095109832F8F7029
:10380000C295C07FC82BF701C783268381E018C00B
:1038100080E016C080E014C0D501C401880F991F54
:10382000AA1FBB1F880F991FAA1FBB1F880F991FB4
:10383000AA1FBB1F481A590A6A0A7B0AC9EF89CF17
:10384000CF911F910F91FF90EF90BF90AF909F90FD
:103850008F907F906F905F904F9008950F931F937C
:10386000CF93DF93EC018B01009709F403C1803CF7
:10387000910529F460E180E00E94B974FBC0C03872
:1038800081E0D80729F462E080E00E94B974F2C0B8
:10389000C115E1E0DE0729F461E080E00E94B9741F
:1038A000E9C0C038F3E0DF0729F461E081E00E945D
:1038B000B974E0C0C03983E0D80729F461E082E040
:1038C0000E94B974D7C0C115E2E0DE0729F462E0B6
:1038D00081E00E94B974CEC0C034F2E0DF0729F461
:1038E00062E082E00E94B974C5C0C03283E0D807AC
:1038F00029F464E082E00E94B974BCC0C115E8E01C
:10390000DE0729F461E083E00E94B974B3C0C115F9
:10391000F9E0DF0729F461E084E00E94B974AAC0ED
:10392000C1158AE0D80729F461E085E00E94B974E6
:10393000A1C0C115EBE0DE0729F461E086E00E943A
:10394000B97498C0C034F8E0DF0729F462E083E07E
:103950000E94B9748FC0C03489E0D80729F462E0AE
:1039600084E00E94B97486C0C034EAE0DE0729F41E
:1039700062E085E00E94B9747DC0C039F8E0DF07DD
:1039800029F464E083E00E94B97474C0C03989E00E
:10399000D80729F464E084E00E94B9746BC0C03990
:1039A000EAE0DE0729F464E085E00E94B97462C0B1
:1039B000C039FBE0DF0729F464E086E00E94B974B7
:1039C00059C0C03C88E0D80729F468E083E00E9431
:1039D000B97450C0C03CE9E0DE0729F468E084E037
:1039E0000E94B97447C0C03AF8E0DF0729F460E1EB
:1039F00083E00E94B9743EC0C03A89E0D80729F438
:103A000060E184E00E94B97435C0C03AEAE0DE07A4
:103A100029F460E185E00E94B9742CC0C03AFBE053
:103A2000DF0729F460E186E00E94B97423C0C03B3F
:103A300088E0D80729F460E283E00E94B9741AC0D4
:103A4000C03BE9E0DE0729F460E284E00E94B9743B
:103A500011C0C038F4E0DF0729F460E483E00E947D
:103A6000B97408C0C03A84E0D80721F460E485E066
:103A70000E94B9748D818F738D83F8019581848143
:103A8000892B9681911198E0892B8D83F8014081D3
:103A900051816281738100E813EC29EC31E0CE01A1
:103AA000CADD9C8198609C839C8190619C83DF919E
:103AB000CF911F910F91089504C061507109810940
:103AC00091096115710581059105B9F708951F9256
:103AD0000F920FB60F9211240BB60F922F933F93B4
:103AE0004F935F936F937F938F939F93AF93BF9306
:103AF000EF93FF9380EA9BE098DD20917528309149
:103B000076282F3F310509F058F4A9014F5F5F4F28
:103B10004093752850937628F901EB58F84D80832F
:103B200081E080937728FF91EF91BF91AF919F91B2
:103B30008F917F916F915F914F913F912F910F9056
:103B40000BBE0F900FBE0F901F901895DC019FEFDA
:103B5000960F662361F0292F30E0FD01E20FF31F7D
:103B60005081F901E55EFA4D50839150A0F7462F40
:103B700050E0FA01E55EFA4D8DE0808311826BE141
:103B800075E280EA9BE02FCD0895CF92DF92FF92FD
:103B90000F931F93CF93DF93CDB7DEB72797CDBF9A
:103BA000DEBFE0EAF6E092E0958388E0858360E896
:103BB000658320E836E000E2D90116960C9316974B
:103BC00070E116967C930F2EF0E6CF2EF6E0DF2EF6
:103BD000F02DD60116969C93169716968C934FB798
:103BE0004983F894F98041EB56E0DA011C91177093
:103BF0001C931C9110681C93FFBE4FB74A83F89426
:103C0000FA8043EB56E0DA011C9117701C931C916B
:103C100010681C93FFBE4FB74B83F894FB8047EBB3
:103C200056E0DA011C9117701C931C9110681C93CC
:103C3000FFBE4FB74C83F894FC8045E956E0DA01AB
:103C40001C9117701C931C9110691C93FFBE4FB7F9
:103C50004D83F894FD8044E956E0DA011C91177019
:103C60001C931C9110691C93FFBE4FB74E83F894B0
:103C7000FE8041E756E0DA011C9117701C931C91FD
:103C800010691C93FFBE4FB74F83F894FF8043E742
:103C900056E0DA011C9117701C931C9110691C935B
:103CA000FFBE9183818354E05283618310E41283C9
:103CB000728341E04283F901018371838283E0E0F2
:103CC000F6E062831283D60111969C9311971196A8
:103CD0008C93119712965C93129712964C93409383
:103CE000E207E8E7F8E280E096E9A0E0B0E0808350
:103CF0009183A283B38383E08483158216822796FF
:103D0000CDBFDEBFDF91CF911F910F91FF90DF906C
:103D1000CF9008952F923F924F925F926F927F9231
:103D20008F929F92AF92BF92CF92DF92EF92FF92CB
:103D30000F931F93CF93DF93CDB7DEB72797CDBFF8
:103D4000DEBFE8E7F8E284818D8385818E838681FA
:103D50008F8380819181A281B38189839A83AB8390
:103D6000BC8360E186E00E94B974BE016F5F7F4F43
:103D700080EA9BE073DD80E18093A30B87E794E00A
:103D80009F938F931F926894FF24F6F8FF920BE1A4
:103D900015E21F930F930E948A8BA80166E488E0C6
:103DA0000E94C4388BED94E09F938F931F92FF92F3
:103DB0001F930F930E948A8B40E0682FC801F6D1B1
:103DC00080E28093850661EA75E286E290E074DE27
:103DD00000EA16E082E0F801868361E271EA87E09A
:103DE00090E06ADE80E8F801868368E873E180E0AD
:103DF00090E062DECDBFDEBF6894BB24B3F80F2E27
:103E0000FBE1EF2EF5E2FF2EF02D9E2CAF2C0F2EB6
:103E1000F0EACF2EF6E0DF2EF02D6894882487F8A4
:103E20006894772471F86894662465F80F2EFBE592
:103E30004F2EF4E05F2EF02D0F2EF3EB2F2EF4E03B
:103E40003F2EF02D0CE010E043E050E060E171E225
:103E500080EA9BE0C8DB61E271EA87E090E02CDE5B
:103E600080917728882381F38FB78983F8943981EB
:103E7000E0917528F0917628CF0101974AF0DF0193
:103E8000AB58B84DE55EFA4D2E9122930197E2F7BB
:103E90001092752810927628109277283FBFF7016C
:103EA0008081882349F063E075E0892D9A2D0E9476
:103EB000A18A892B09F052C00150110909F0C4CF21
:103EC000F601858275826092860661EB71E78BE070
:103ED00090E0F2DDFCE0FB1530F40E94E93B0F2E90
:103EE000F3E0BF2EF02D5F924F921F9220E42F93AC
:103EF000FF92EF920E948A8B11E01B0D6B2D660FD3
:103F0000862F880F880F680FA70188E00E94C438A9
:103F10003F922F921F9230E43F93FF92EF920E94C4
:103F20008A8B40E0682FC70141D16092850661EA23
:103F300075E286E290E0C0DDF601768261E271EA28
:103F400087E090E0B9DDF601868268E873E180E001
:103F500090E0B2DDCDBFDEBFB12E74CF1F921F92B5
:103F600086E98F931F9289E394E09F938F931F922A
:103F70006894FF24F6F8FF920BE115E21F930F936C
:103F80000E948A8BAC01B80180EA9BE02CDB84EFB5
:103F900091E00E9435718BE194E09F938F931F9283
:103FA000FF921F930F930E948A8BAC01B80180EAA5
:103FB0009BE019DB84EF91E00E94357182E194E08F
:103FC0009F938F931F92FF921F930F930E948A8B50
:103FD000AC01B80180EA9BE006DB84EF91E00E942F
:103FE00035718DE294E09F938F931F92FF921F9300
:103FF0000F930E948A8BAC01B80180EA9BE0F3DA50
:1040000084EF91E00E94357181E294E09F938F9359
:104010001F92FF921F930F930E948A8BCDBFDEBF2A
:10402000AC01B80180EA9BE0DEDA84EF91E00E9407
:1040300035711F92EE24E394EF9282E094E09F9317
:104040008F931F92FF921F930F930E948A8BAC0154
:10405000B80180EA9BE0C7DA84EF91E00E943571F5
:104060001F92EF9285EF93E09F938F931F92FF92A1
:104070001F930F930E948A8BAC01B80180EA9BE0EA
:10408000B2DA84EF91E00E94357186E494E09F9368
:104090008F931F92FF921F930F930E948A8BBB0CEA
:1040A0006B2D660F660F6B0DA80188E00E94C43867
:1040B00081E994E09F938F931F92FF921F930F9338
:1040C0000E948A8B40E0682FC80170D0CDBFDEBF50
:1040D0002796CDBFDEBFDF91CF911F910F91FF904B
:1040E000EF90DF90CF90BF90AF909F908F907F9098
:1040F0006F905F904F903F902F9008951F93CF93B4
:10410000DF931F92CDB7DEB780917728882309F41B
:1041100048C08FB78983F894198160917528709190
:10412000762861157105A9F16134710540F0AB0184
:10413000405451098FE390E060E470E005C0CB018A
:1041400001970AF140E050E0FC013196DF01AB58E5
:10415000B84DE55EFA4D2E9122930197E2F7411595
:10416000510589F0E5EBF7E2A5E7B7E29A012B5498
:10417000384D81918D932E173F07D9F740937528BD
:104180005093762806C010927528109276281092C7
:1041900077281FBF6115710521F040E08BE195E2A2
:1041A00005D00F90DF91CF911F910895EF92FF926C
:1041B0000F931F93CF93DF932091812821113AC051
:1041C00080E03FC0042F162F7C01D0E0C0E00E94A9
:1041D0007F78811106C0DF5F89E190E00E94357130
:1041E00023C0F701EC0FF11D8081002349F0282F37
:1041F000082E000C330B205231092036310588F48B
:104200009091802891110DC0082E000C990B0E94EE
:10421000D678892B31F4DF5F89E190E00E94357117
:1042200003C0CF5FD0E00AC0D93C40F01092812893
:104230008C2F07C06111C6CF80E003C0C11738F2D0
:104240008C2FDF91CF911F910F91FF90EF900895E8
:104250000E941F7D8091852881110E94187D88EE23
:1042600093E00E9435718AE497E09F938F931F92A9
:1042700080E48F938BE195E29F938F930E948A8BCA
:104280008134910510F080E490E040E0682F8BE1EC
:1042900095E28CDF84EF91E00E9435711F928CE0F3
:1042A0008F9384E297E09F938F931F9280E48F9384
:1042B0008BE195E29F938F930E948A8B81349105C5
:1042C00010F080E490E040E0682F8BE195E26EDF33
:1042D0008AEF90E00E94357182E097E09F938F9380
:1042E0001F9280E48F938BE195E29F938F930E94BE
:1042F0008A8B8134910510F080E490E040E0682FD3
:104300008BE195E253DF8AEF90E00E9435718EEDEC
:1043100096E09F938F931F9280E48F938BE195E2B9
:104320009F938F930E948A8B8134910510F080E4D3
:1043300090E040E0682F8BE195E238DF8DB79EB7C3
:104340004A968DBF9EBF089583E080937F2808958D
:1043500082E080937F2808950895089581E08093F6
:104360008128089510928128089508950895089548
:1043700081E08093822808951092802808952F92DA
:104380003F924F925F926F927F928F929F92AF92E5
:10439000BF92CF92DF92EF92FF920F931F93CF9332
:1043A000DF93CDB7DEB7C354D109CDBFDEBF2091B7
:1043B0008128222309F41EC42B013C01809182280C
:1043C0008823D1F1109282288EE596E20E942A6C11
:1043D000882391F10E94D1768C01059710F004E0BA
:1043E00010E00115110521F180919928882341F0F1
:1043F00061E080EB0E94EC358AE090E00E9435712C
:10440000B801CE0101960E94E6778091842881113F
:1044100005C041E0602FCE010196C8DEB801CE0193
:1044200001960E94222C0E94D1768C01892BE1F604
:104430008EE596E20E94426C80918328882309F4DD
:1044400067C080918628882309F462C08FB78D8366
:10445000F8942D8180918F28909190282090872822
:1044600030908828C0908928CE82D0908A28D8861B
:10447000E0908B28EC86F0908C28FE8680908D282A
:1044800090908E282FBF9F938F930F2EF8EEAF2E14
:10449000F02D0F2EF3E0BF2EF02DC12CD12CE12CEE
:1044A000F12C00E010E0222D332D4E8158856C85D3
:1044B0007E85882D992D0E945E885F934F933F9350
:1044C0002F93222D332D4E8158856C857E85882D26
:1044D000992D0E9460885F934F933F932F9386E0BE
:1044E00095E09F938F931F9280E48F938BE195E2E9
:1044F0009F938F930E948A8B8134910510F080E402
:1045000090E040E0682F8BE195E250DECDBFDEBF4A
:1045100080918428882309F46DC38091AC21909107
:10452000AD21A091AE21B091AF21B301A201481BF2
:10453000590B6A0B7B0B411552406105710530F434
:10454000481659066A067B0608F054C38FB789835C
:10455000F894698170917A2623967FAF2397809192
:104560007B2624968FAF2497209178263091792648
:104570004091762650917726C0907426CCA6D09094
:104580007526DDA620907226309073260091702645
:1045900010917126E0906E26F0906F26EE82FF82D9
:1045A0008090F8269090F926A090FA26B090FB26ED
:1045B000C090F426D090F526E090F626F090F726ED
:1045C000C886D986EA86FB86E090EC26F090ED2638
:1045D000EC86FD86C090EA26D090EB26CE86DF865C
:1045E000D0906927DEA6E0906A27EFA6F0906727B3
:1045F000F8AAC0906827C9AAD0906527DAAAE090E7
:104600006627EBAAC0905727D0905827C88AD98A26
:10461000E0905527F0905627EA8AFB8AC0905327EE
:10462000D0905427CC8ADD8AD0905127DCAAE09024
:104630005227EDAAF0904F27FEAAC0905027CFAA8C
:10464000D0904D27D8AEE0904E27E9AEC0904327DA
:10465000D0904427E0904527F0904627CE8ADF8A05
:10466000E88EF98EC0903F27D0904027E0904127F8
:10467000F090422780913B2790913C27A0913D27C5
:10468000B0913E278A8F9B8FAC8FBD8F9091712701
:104690009AAFA0917227ABAFE0916B27F0916C2796
:1046A000EE8FFF8FF0912D27FCAF70912E277DAFFD
:1046B00080912B278EAF90912C279FAFA091292717
:1046C0002196AFAF2197B0912A272296BFAF2297AC
:1046D00080911F2790912027A0912127B091222718
:1046E00088A399A3AAA3BBA380911B2790911C2701
:1046F000A0911D27B0911E278CA39DA3AEA3BFA39D
:104700008091172790911827A0911927B0911A2707
:1047100088A799A7AAA7BBA76FBF5F934F933F93A3
:104720002F9324969FAD24979F932396AFAD239705
:10473000AF93D301C201072E7AE0B695A79597955E
:1047400087957A95D1F7702DBF93AF939F938F93F1
:1047500089EA96E09F938F931F9280E48F938BE179
:1047600095E29F938F930E948A8B8134910510F07C
:1047700080E490E040E0682F8BE195E217DD1F9325
:104780000F933F922F92BDA5BF93ECA5EF938FE7B8
:1047900096E09F938F931F9280E48F938BE195E235
:1047A0009F938F930E948A8B8134910510F080E44F
:1047B00090E040E0682F8BE195E2F8DC2E813F81AC
:1047C000B901330F880B990B0E94758420E030E00B
:1047D00048EC52E40E94DA839F938F937F936F9308
:1047E0008BE696E09F938F931F9280E48F938BE1EB
:1047F00095E29F938F930E948A8BCDBFDEBF813459
:10480000910510F080E490E040E0682F8BE195E2A4
:10481000CDDC688579858A859B850E94758420E03A
:1048200030E048EC52E40E94DA839F938F937F93A9
:104830006F93C501B4010E94758420E030E048EC1C
:1048400052E40E94DA839F938F937F936F9384E463
:1048500096E09F938F931F9280E48F938BE195E274
:104860009F938F930E948A8B8134910510F080E48E
:1048700090E040E0682F8BE195E298DCEE85FF85C3
:10488000BF01FF0F880B990B0E94758420E030E078
:1048900048EC52E40E94DA839F938F937F936F9347
:1048A0002C853D85B901330F880B990B0E947584C7
:1048B00020E030E048EC52E40E94DA839F938F932B
:1048C0007F936F9389E196E09F938F931F9280E48B
:1048D0008F938BE195E29F938F930E948A8B813413
:1048E000910510F080E490E040E0682F8BE195E2C4
:1048F0005DDC39A93F9378A97F93AA89BB89BD0163
:10490000BB0F880B990B0E94758420E030E04AE7CA
:1049100054E40E94DA839F938F937F936F93BFA594
:10492000BF93EEA5EF9328893989B901330F880B1E
:10493000990B0E94758420E030E04AE754E40E941D
:10494000DA839F938F937F936F938DEE95E09F9380
:104950008F931F9280E48F938BE195E29F938F93C7
:104960000E948A8BCDBFDEBF8134910510F080E4B8
:1049700090E040E0682F8BE195E218DCBBA9BF9383
:10498000EAA9EF932C893D89B901330F880B990B64
:104990000E94758420E030E04AE754E40E94DA8304
:1049A0009F938F937F936F9386ED95E09F938F9363
:1049B0001F9280E48F938BE195E29F938F930E94E7
:1049C0008A8B8134910510F080E490E040E0682FFC
:1049D0008BE195E2EBDB3FA93F937EA97F93C70173
:1049E000B6010E94758420E030E04AE754E40E945A
:1049F000DA839F938F937F936F93CDA8CF92DCA898
:104A0000DF926E897F89888D998D0E94758420E060
:104A100030E04AE754E40E94DA839F938F937F93B8
:104A20006F9387EA95E09F938F931F9280E48F9313
:104A30008BE195E29F938F930E948A8B813491053D
:104A400010F080E490E040E0682F8BE195E2AEDB6F
:104A5000E9ACEF92F8ACFF926A8D7B8D8C8D9D8DC9
:104A60000E94758420E030E04AE754E40E94DA8333
:104A70009F938F937F936F938FE895E09F938F938E
:104A80001F9280E48F938BE195E29F938F930E9416
:104A90008A8BCDBFDEBF8134910510F080E490E0B9
:104AA00040E0682F8BE195E281DBCFACCF92DEACAA
:104AB000DF926CA17DA18EA19FA10E94758420E050
:104AC00030E04AE754E40E94DA839F938F937F9308
:104AD0006F93EDACEF92FCACFF9268A179A18AA133
:104AE0009BA10E94758420E030E04AE754E40E94D4
:104AF000DA839F938F937F936F9382E695E09F93E2
:104B00008F931F9280E48F938BE195E29F938F9315
:104B10000E948A8B8134910510F080E490E040E09F
:104B2000682F8BE195E242DB2296CFAC2297CF92A1
:104B30002196DFAC2197DF9268A579A58AA59BA570
:104B40000E94758420E030E04AE754E40E94DA8352
:104B50009F938F937F936F938AE495E09F938F93B6
:104B60001F9280E48F938BE195E29F938F930E9435
:104B70008A8B8134910510F080E490E040E0682F4A
:104B80008BE195E213DBEBACEF92FAACFF92CE8CAB
:104B9000DF8CB601DD0C880B990B0E94758420E038
:104BA00030E048EC52E40E94DA839F938F937F9326
:104BB0006F938BE295E09F938F931F9280E48F9386
:104BC0008BE195E29F938F930E948A8BCDBFDEBFCE
:104BD0008134910510F080E490E040E0682F8BE193
:104BE00095E2E4DA4092AC215092AD216092AE2180
:104BF0007092AF21CD5BDF4FCDBFDEBFDF91CF9194
:104C00001F910F91FF90EF90DF90CF90BF90AF90EA
:104C10009F908F907F906F905F904F903F902F90DC
:104C20000895833010F480E0089588EF0895EF929E
:104C3000FF920F931F93E82FDB01CA01B901E13006
:104C400061F018F0E23089F015C09701AB01BC01AA
:104C5000CD010E941D7E80E00EC09701AB01BC011A
:104C6000CD010E94357E80E006C0A7010E94497DEB
:104C700080E001C088EF1F910F91FF90EF900895A1
:104C8000EF92FF920F931F93E82FDB01CA01B90146
:104C9000A8019701E13061F018F0E23089F015C009
:104CA00001E0AB01BC01CD010E94F77E80E00EC0A7
:104CB00001E0AB01BC01CD010E94527E80E006C044
:104CC000A7010E94DD7D80E001C088EF1F910F9158
:104CD000FF90EF900895FC01128213824483440FE9
:104CE000415045836083718380E090E00895CF93C5
:104CF000DF93482F50E0FA017196E295F295F07F2C
:104D0000FE27E07FFE27A0E0B1E014969C91149767
:104D100013966C91DA01149621E030E0E901082E37
:104D200002C0CC0FDD1F0A94E2F70A2E02C0220F48
:104D3000331F0A94E2F72C2B622370E0EB010A2E5A
:104D400002C0D595C7950A94E2F7C0FD1AC0082E97
:104D500002C0759567950A94E2F760FD14C0292397
:104D600030E0B90102C075956795AA95E2F760FD3C
:104D70000CC002C0359527958A95E2F7822F817085
:104D800005C084E003C083E001C082E091819063AC
:104D90009183440F551FFA01E952F24D0190F081C1
:104DA000E02D309709F01995DF91CF910895CF93B9
:104DB000DF931F92CDB7DEB761E080E00E94B97447
:104DC00080917C2E8F3F09F4FFCF8FB78983F894B1
:104DD0009981EBE7FEE281818F5F81839FBFE0E0F5
:104DE000F1E080E4808380E880830F90DF91CF91B1
:104DF0000895CF93DF931F92CDB7DEB710920001D5
:104E000061E080E00E94CF7480917C2E811101C00E
:104E1000FFCF8FB78983F8949981EBE7FEE2818118
:104E2000815081839FBF0F90DF91CF910895E82F2C
:104E3000F0E0EE0FFF1FE952F24D60837183089599
:104E40001F920F920FB60F9211240BB60F922F9351
:104E50003F934F935F936F937F938F939F93AF9302
:104E6000BF93EF93FF9380E042DFFF91EF91BF91FB
:104E7000AF919F918F917F916F915F914F913F91F2
:104E80002F910F900BBE0F900FBE0F901F90189593
:104E90001F920F920FB60F9211240BB60F922F9301
:104EA0003F934F935F936F937F938F939F93AF93B2
:104EB000BF93EF93FF9381E01ADFFF91EF91BF91D2
:104EC000AF919F918F917F916F915F914F913F91A2
:104ED0002F910F900BBE0F900FBE0F901F90189543
:104EE0001F920F920FB60F9211240BB60F922F93B1
:104EF0003F934F935F936F937F938F939F93AF9362
:104F0000BF93EF93FF9382E0F2DEFF91EF91BF91A9
:104F1000AF919F918F917F916F915F914F913F9151
:104F20002F910F900BBE0F900FBE0F901F901895F2
:104F30001F920F920FB60F9211240BB60F922F9360
:104F40003F934F935F936F937F938F939F93AF9311
:104F5000BF93EF93FF9383E0CADEFF91EF91BF9180
:104F6000AF919F918F917F916F915F914F913F9101
:104F70002F910F900BBE0F900FBE0F901F901895A2
:104F8000CF93DF931F92CDB7DEB7DB01E82FF0E0C0
:104F90007196E295F295F07FFE27E07FFE278FB7AE
:104FA0008983F894998119968C91199784871A9618
:104FB0008C911A978587168617968C9117978087FC
:104FC00018968C9118978187128612968C91129759
:104FD000828313968C911397838314962D913C9121
:104FE00015972483358316968C9116978683119690
:104FF0008C91119781838C918F7780839FBF0F90C5
:10500000DF91CF91089504C0615071098109910920
:105010006115710581059105B9F7089580E18093C7
:105020002104E0E2F4E0818184FDFDCF609124045D
:105030007091250480912604909127040895E0E260
:10504000F4E024E02283648775878687978782E06F
:10505000838308958093DF2D9093E02D0895CF935F
:10506000DF9364E080E00E94B974C0EFD0E08881F3
:105070008260888361E080EF90E00E94C87F888131
:105080008460888369EE73E080E090E0BCDF888113
:1050900088618883E0EFF0E0818183FFFDCF10928B
:1050A0002004E0E2F4E0818180FDFDCFE0E2F4E065
:1050B0008FEF9FEFDC0180879187A287B3871482EF
:1050C000158216821782818180FDFDCFE0E2F4E037
:1050D000128281E08083818180FDFDCFDF91CF91BD
:1050E00008951F920F920FB60F9211240BB60F92D4
:1050F0002F933F934F935F936F937F938F939F93E0
:10510000AF93BF93CF93DF93EF93FF93109222045B
:10511000C091DF2DD091E02D209719F07FDFFE01A7
:105120001995FF91EF91DF91CF91BF91AF919F9131
:105130008F917F916F915F914F913F912F910F9040
:105140000BBE0F900FBE0F901F901895FC01F295AB
:10515000E295EF70EF27FF70EF279F012F5F3F4F22
:10516000211540E1340708F03051EE0FFF1FEF52D8
:10517000F24F45915491F901EE0FFF1FEF52F24F9C
:1051800025913491F901F496E41BF50BE295F29523
:10519000F07FFE27E07FFE278F709927E82BF92B01
:1051A000EF5AF84FE491CA018E0F911DE7FD9A95D1
:1051B000089589EF91E39F938F931F9280E48F93DB
:1051C0008BE195E29F938F930E948A8B81349105A6
:1051D00010F080E490E040E0682F8BE195E20E94BF
:1051E000D6208AED91E39F938F931F9280E48F9353
:1051F0008BE195E29F938F930E948A8B8134910576
:1052000010F080E490E040E0682F8BE195E20E948E
:10521000D62088EB91E39F938F931F9280E48F9326
:105220008BE195E29F938F930E948A8B8134910545
:1052300010F080E490E040E0682F8BE195E20E945E
:10524000D6208DE991E39F938F931F9280E48F93F3
:105250008BE195E29F938F930E948A8B8134910515
:1052600010F080E490E040E0682F8BE195E20E942E
:10527000D6208DE791E39F938F931F9280E48F93C5
:105280008BE195E29F938F930E948A8B81349105E5
:1052900010F080E490E040E0682F8BE195E20E94FE
:1052A000D62082E691E39F938F931F9280E48F93A1
:1052B0008BE195E29F938F930E948A8B2DB73EB727
:1052C0002C5D3F4F2DBF3EBF8134910510F080E42F
:1052D00090E040E0682F8BE195E20E94D6208FE4B9
:1052E00091E39F938F931F9280E48F938BE195E2DC
:1052F0009F938F930E948A8B8134910510F080E4F4
:1053000090E040E0682F8BE195E20E94D62083E395
:1053100091E39F938F931F9280E48F938BE195E2AB
:105320009F938F930E948A8B8134910510F080E4C3
:1053300090E040E0682F8BE195E20E94D62081E169
:1053400091E39F938F931F9280E48F938BE195E27B
:105350009F938F930E948A8B8134910510F080E493
:1053600090E040E0682F8BE195E20E94D6208CEE21
:1053700090E39F938F931F9280E48F938BE195E24C
:105380009F938F930E948A8B8134910510F080E463
:1053900090E040E0682F8BE195E20E94D62080EEFD
:1053A00090E39F938F931F9280E48F938BE195E21C
:1053B0009F938F930E948A8B8134910510F080E433
:1053C00090E040E0682F8BE195E20E94D62081EBCF
:1053D00090E39F938F931F9280E48F938BE195E2EC
:1053E0009F938F930E948A8B2DB73EB72C5D3F4FC2
:1053F0002DBF3EBF8134910510F080E490E040E085
:10540000682F8BE195E20E94D62082E890E39F937B
:105410008F931F9280E48F938BE195E29F938F93FC
:105420000E948A8B8134910510F080E490E040E086
:10543000682F8BE195E20E94D62083E590E39F934D
:105440008F931F9280E48F938BE195E29F938F93CC
:105450000E948A8B8134910510F080E490E040E056
:10546000682F8BE195E20E94D6208FE290E39F9314
:105470008F931F9280E48F938BE195E29F938F939C
:105480000E948A8B8134910510F080E490E040E026
:10549000682F8BE195E20E94D62086E190E39F93EE
:1054A0008F931F9280E48F938BE195E29F938F936C
:1054B0000E948A8B8134910510F080E490E040E0F6
:1054C000682F8BE195E20E94D62084E090E39F93C1
:1054D0008F931F9280E48F938BE195E29F938F933C
:1054E0000E948A8B8134910510F080E490E040E0C6
:1054F000682F8BE195E20E94D62082EE9FE29F9377
:105500008F931F9280E48F938BE195E29F938F930B
:105510000E948A8B2DB73EB72C5D3F4F2DBF3EBFFB
:105520008134910510F080E490E040E0682F8BE139
:1055300095E20E94D62084ED9FE29F938F931F9265
:1055400080E48F938BE195E29F938F930E948A8BE7
:105550008134910510F080E490E040E0682F8BE109
:1055600095E20E94D6208FEA9FE29F938F931F922D
:1055700080E48F938BE195E29F938F930E948A8BB7
:105580008134910510F080E490E040E0682F8BE1D9
:1055900095E20E94D6208FE89FE29F938F931F92FF
:1055A00080E48F938BE195E29F938F930E948A8B87
:1055B0008134910510F080E490E040E0682F8BE1A9
:1055C00095E20E94D62082E79FE29F938F931F92DD
:1055D00080E48F938BE195E29F938F930E948A8B57
:1055E0008134910510F080E490E040E0682F8BE179
:1055F00095E20E94D62083E59FE29F938F931F92AE
:1056000080E48F938BE195E29F938F930E948A8B26
:105610008134910510F080E490E040E0682F8BE148
:1056200095E20E94D62084E39FE29F938F931F927E
:1056300080E48F938BE195E29F938F930E948A8BF6
:105640002DB73EB72C5D3F4F2DBF3EBF8134910536
:1056500010F080E490E040E0682F8BE195E20E943A
:10566000D62085E29FE29F938F931F9280E48F93D1
:105670008BE195E29F938F930E948A8B81349105F1
:1056800010F080E490E040E0682F8BE195E20E940A
:10569000D62087E09FE29F938F931F9280E48F93A1
:1056A0008BE195E29F938F930E948A8B81349105C1
:1056B00010F080E490E040E0682F8BE195E20E94DA
:1056C000D6208EEE9EE29F938F931F9280E48F935D
:1056D0008BE195E29F938F930E948A8B8134910591
:1056E00010F080E490E040E0682F8BE195E20E94AA
:1056F000D6208FEC9EE29F938F931F9280E48F932E
:105700008BE195E29F938F930E948A8B8134910560
:1057100010F080E490E040E0682F8BE195E20E9479
:10572000D62087EB9EE29F938F931F9280E48F9306
:105730008BE195E29F938F930E948A8B8134910530
:1057400010F080E490E040E0682F8BE195E20E9449
:10575000D62083E99EE29F938F931F9280E48F93DC
:105760008BE195E29F938F930E948A8B2DB73EB772
:105770002C5D3F4F2DBF3EBF8134910510F080E47A
:1057800090E040E0682F8BE195E20E94D62086E809
:105790009EE29F938F931F9280E48F938BE195E21B
:1057A0009F938F930E948A8B8134910510F080E43F
:1057B00090E040E0682F8BE195E20E94D62083E8DC
:1057C0009EE29F938F931F9280E48F938BE195E2EB
:1057D0009F938F930E948A8B8134910510F080E40F
:1057E00090E040E0682F8BE195E20E94D6208DB7D3
:1057F0009EB70C968DBF9EBF8091B021811121C0B4
:1058000081E08093B0218EE79EE29F938F931F9259
:1058100080E48F938BE195E29F938F930E948A8B14
:105820008134910510F080E490E040E0682F8BE136
:1058300095E20E94D6200F900F900F900F900F903E
:105840000F900895DF92EF92FF920F931F93CF93E3
:10585000DF93CDB7DEB72C97CDBFDEBF7C018B01C8
:10586000892B09F49CC2CB0101978E3F910508F06A
:1058700096C2AB016DE070E0C7010E94BB8AD09078
:10588000B1212D2D30E0A801420F531F4F3F51058C
:1058900051F048F00FEF10E00D191109892BF9F0C4
:1058A000C701800F911F0097D1F08E199F0911E059
:1058B000180F412F50E0B701C9018E549E4D0E9430
:1058C000C88A1D0D1093B12144E050E069E77EE2E3
:1058D00082EB91E20E94888A892B51F50CC0A801C5
:1058E0005527B701C9018E549E4D0E94C88A0D0DDF
:1058F0000093B12154C219821A82CE0101967C0113
:1059000000E010E020E030E043E050E060E070E0D4
:1059100086EB91E20E94BE68892B09F420C281E0E7
:1059200029813A81232B09F480E00E945E6917C225
:1059300042E050E066E77EE282EB91E20E94708AEC
:10594000892B51F042E050E063E77EE282EB91E286
:105950000E94708A892B31F4612F82EB91E20E94C0
:10596000A61DFDC145E050E06DE67EE282EB91E2CE
:105970000E94888A892BC1F419821A82CE0101966D
:105980007C0100E010E020E030E043E050E060E027
:1059900070E087EB91E20E94BE68892B09F4DFC1B9
:1059A00089810E949E69DBC143E050E069E67EE2A6
:1059B00082EB91E20E94888A892BC9F419821A82AB
:1059C000CE0101967C0100E010E020E030E043E0F1
:1059D00050E060E070E085EB91E20E94BE68892BA8
:1059E00009F4BDC189819A810E948169B8C14CE0E6
:1059F00050E06BE37EE282EB91E20E94888A892B81
:105A000021F480E00E94A469AAC14AE050E06EE55A
:105A10007EE282EB91E20E94888A892B21F481E068
:105A20000E94A4699CC14AE050E063E57EE282EBFB
:105A300091E20E94888A892B21F482E00E94A46965
:105A40008EC14AE050E068E47EE282EB91E20E947F
:105A5000888A892B21F483E00E94A46980C148E0F0
:105A600050E062E37EE282EB91E20E94888A892B19
:105A700021F484E00E94A46972C144E050E06DE228
:105A80007EE282EB91E20E94888A892BE9F41982F6
:105A90001A82CE0101967C0100E010E020E030E0A7
:105AA00043E050E060E070E086EB91E20E94BE6867
:105AB000892B09F454C181E029813A81232B09F40F
:105AC00080E00E94486B4BC144E050E068E27EE217
:105AD00082EB91E20E94888A892B51F58CE0E4E008
