S011000046696E644D655341542E73726563F8
S113000004C1000023C1000021C100001FC1000081
S11300101DC100001BC1000019C1000017C1000070
S113002015C1000013C1000011C100000FC1000080
S11300300DC100000BC1000009C1000007C1000090
S113004005C1000003C1000001C10000FFC00000A1
S1130050FDC00000FBC00000F9C00000F7C00000B4
S1130060F5C00000F3C00000F1C00000EFC00000C4
S1130070EDC00000EBC00000E9C00000E7C00000D4
S1130080E5C00000E3C00000E1C00000DFC00000E4
S1130090DDC00000DBC00000D9C00000D7C00000F4
S11300A0D5C00000D3C00000D1C00000CFC0000004
S11300B0CDC00000CBC00000C9C00000C7C0000014
S11300C0C5C00000C3C00000C1C00000BFC0000024
S11300D0BDC00000BBC00000B9C00000B7C0000034
S11300E0B5C00000B3C00000B1C00000AFC0000044
S11300F0ADC00000ABC00000A9C00000A7C0000054
S1130100A5C00000A3C00000A1C000009FC0000063
S11301109DC000009BC0000099C0000097C0000073
S113012095C0000093C0000091C000008FC0000083
S11301308DC000008BC0000089C0000087C0000093
S113014085C0000083C0000081C000007FC00000A3
S11301507DC000007BC0000079C0000077C00000B3
S113016075C0000073C0000071C000006FC00000C3
S11301706DC000006BC0000069C0000067C00000D3
S113018065C0000063C0000061C000005FC00000E3
S11301905DC000005BC0000059C0000057C00000F3
S11301A055C0000053C0000051C000004FC0000003
S11301B04DC000004BC0000049C0000047C0000013
S11301C045C0000043C0000041C000003FC0000023
S11301D03DC000003BC0000039C0000037C0000033
S11301E035C0000033C0000031C000002FC0000043
S11301F02DC000008DC5000041C600002502280264
S11302002B022E0231023402370211241FBECFEF1B
S1130210CDBFDFE5DEBF00E00CBF10E2A0E0B0E23E
S1130220EAE7FCE100E00BBF02C007900D92A63C98
S1130230B107D9F723E2A6ECB0E201C01D92AE33B8
S1130240B207E1F70E94130E0C943B0ED9CECF9364
S1130250DF931F921F92CDB7DEB7811126C0909114
S1130260F0219923F9F090913923911101C0FFCF26
S11302709FB79A83F8942A81E8E3F3E2918191503D
S113028091832FBF0FC0909139239F3F09F4FFCF73
S11302909FB79983F8942981E8E3F3E291819F5F02
S11302A091832FBF8093F02105C09091F021992371
S11302B051F3F8CF0F900F90DF91CF9108950F93E2
S11302C0E8ECF4E080818F7D808380818F7D808362
S11302D0E4ECF1E202E005931092C6211092C721EA
S11302E000E2069300E40693ECEBF1E200E40693EB
S11302F0E8E2F3E2148615861686178612861386BC
S11303001092AF210F9108950F9385E08093AF2150
S1130310E5ECF1E204E00593EDEBF1E204E0059392
S11303200F9108950F9383E08093AF211092C6211B
S11303301092C721E4ECF1E202E006930F910895D4
S1130340E0913423F0913523309709F019950895FD
S11303500F93CF93DF938091AF21833019F4F0DFB3
S1130360AEDF5EC08091AB219091AC21C09132236D
S1130370D0913323C81BD90B71F52091AD21309155
S1130380AE21820F931F8093AD219093AE212091D3
S11303902E2330912F238217930721F08091C620BA
S11303A0882341F084E08093AF21ECEBF1E202E09A
S11303B0069336C0E0913623F0913723309799F0B5
S11303C01995882381F01092AB211092AC21C09131
S11303D03223D0913323C034D10528F01092C620A3
S11303E0C0E4D0E003C081E08093C620E0EBF1E2FA
S11303F0C68BD78B8091AB219091AC212091302377
S113040030913123280F391F208F318FC80FD91F06
S1130410C093AB21D093AC21E4ECF1E202E006936B
S1130420DF91CF910F910895FC018181E82FE7704E
S11304308E2F90E0FC013197E730F105D8F488273E
S1130440E250FF4F8F4F0C942A0E80E190E0089504
S113045080E290E0089580E490E0089580E890E0E0
S1130460089580E091E0089580E092E008958FEF90
S113047093E0089588E090E00895282F2F7030E0ED
S1130480220F331F082E000C990B8827990F881F01
S11304909927820F931F02979C01220F331F220F6B
S11304A0331F220F331F820F931F895B9E4D0895C4
S11304B00F93CF938091CC0480FF65C081E080933B
S11304C0CC04ECEBF1E200E80693E4ECF1E200E8A2
S11304D006938093CA04ECEBF1E200E10693809169
S11304E0AF21882329F08350823008F429DFE7DE26
S11304F08091BE219091BF21089709F046C088E001
S1130500EBE6F1E2A8E2B3E201900D928A95E1F7FD
S1130510E8ECF4E080818062808380818062808363
S11305200E948D0BC82F811103C0EEDEC1E02EC0E6
S11305308091282388236CF41092AD211092AE216F
S11305401092AB211092AC2182E08093AF2100DFA6
S11305501DC080912E2390912F23892B11F4E2DE6C
S113056015C01092AD211092AE211092AB211092C1
S1130570AC2181E08093AF21ECEBF1E202E0069341
S113058000E2069303C0C0E001C0C1E08C2FCF910C
S11305900F9108958F929F92AF92BF92DF92EF9244
S11305A0FF920F931F93CF93DF93D82E66DF8C01B6
S11305B0BD2CBB1CBB24BB1CCD2DCF70D0E0CC0FFD
S11305C0DD1FCB0DD11DCE01880F991F880F991FF8
S11305D0880F991F9C0124543E4D7901C90124DFE1
S11305E04C01BB2009F47BC0FE01EE0FFF1FEE0F90
S11305F0FF1FEE0FFF1FE055FE4D22893389D801FE
S113060015968D919C911697820F931F15968D9335
S11306109C93169713962D913C91149782179307E8
S113062009F447C0281B390B2115B4E03B0740F0FF
S11306302FEF33E0C901B4010E94160E281B390BB9
S1130640F801808181FF0AC0C901B4010E94160E1D
S113065041E0892B09F040E0842F01C080E0D801FB
S11306609C9180FB91F99C93FE01EE0FFF1FEE0F0E
S1130670FF1FEE0FFF1FE055FE4D128A138A2687D7
S1130680378711962D913C91129715968D919C91D7
S11306901697820F931FCC0FDD1FCC0FDD1FCC0FDD
S11306A0DD1FC054DE4D88839983F70102E0069371
S11306B0E8C0D8018C9181FFD1C08D7F8C93CC0F81
S11306C0DD1FCC0FDD1FCC0FDD1FC055DE4D1A8A98
S11306D01B8A1E861F86F70102E00693D2C0FE0124
S11306E0EE0FFF1FEE0FFF1FEE0FFF1FE055FE4D35
S11306F0A684B784D8018C9182FF1BC01196ED911A
S1130700FC91129715962D913C91169713968D9105
S11307109C911497B4010E94160EB0E4DB9EB001C4
S1130720112469577F4DAC01CF01820F931F0E94A2
S1130730320EF801258136812A0D3B1D258336832F
S1130740838194818217930768F485839683CC0F01
S1130750DD1FCC0FDD1FCC0FDD1FC055DE4D8A8998
S11307609B897CC0FE01EE0FFF1FEE0FFF1FEE0FF3
S1130770FF1FE055FE4D428953894A155B0509F078
S11307806DC02817390709F469C0AC01421B530B2B
S11307909A01211554E0350758F02FEF33E0C901D1
S11307A0B4010E94160ED901A81BB90BCD0108C0D3
S11307B0C901B4010E94160EF901E81BF90BCF011F
S11307C0FE01EE0FFF1FEE0FFF1FEE0FFF1FE055A0
S11307D0FE4D168617868815990500F5D8018C916B
S11307E084608C93B0E4DB9EC001112489579F4D33
S11307F0FE01EE0FFF1FEE0FFF1FEE0FFF1FE05471
S1130800FE4D80839183CC0FDD1FCC0FDD1FCC0FF9
S1130810DD1FC055DE4D8A8A9B8A1CC0F8014181C8
S1130820528125813681240F351FFE01EE0FFF1FF3
S1130830EE0FFF1FEE0FFF1FE054FE4D20833183A8
S1130840CC0FDD1FCC0FDD1FCC0FDD1FC055DE4DDF
S11308508A8B9B8BF70102E0069313C0D8018C911D
S113086080FF0FC08E7F8C931796ED91FC911897A3
S1130870309739F015966D917C9116974D2D80E047
S11308801995DF91CF911F910F91FF90EF90DF9019
S1130890BF90AF909F908F90089580E008958093CB
S11308A0C30408958091C30408958091EC2190912C
S11308B0ED21089580E090E00895E8E2F3E2808776
S11308C09187628773870895282F2F7030E0220F55
S11308D0331F082E000C990B8827990F881F99271E
S11308E0820F931FFC01EE0FFF1FEE0FFF1FEE0F91
S11308F0FF1FE055FE4D2585207C09F069C063701B
S1130900613011F018F404C020EC03C020E801C0E9
S113091020E440385105E9F050F440325105A9F083
S113092040345105A1F040315105D9F40CC04115B2
S113093032E0530791F04F3F33E0530781F0411504
S1130940514079F408C041E00DC042E00BC043E0DF
S113095009C044E007C045E005C046E003C047E0E5
S113096001C040E0FC01EE0FFF1FEE0FFF1FEE0F72
S1130970FF1FE055FE4D158636E03487242B25876E
S1130980FC01EE0FFF1FEE0FFF1FEE0FFF1FE055E0
S1130990FE4D2585207C203C69F4FC01EE0FFF1FF1
S11309A0EE0FFF1FEE0FFF1FE055FE4D258527704C
S11309B0273081F0880F991F880F991F880F991F7E
S11309C0FC01E055FE4D85858062858781E00895B0
S11309D080E0089581E00895E82FEF70F0E0EE0FD5
S11309E0FF1F082E000C990B8827990F881F992741
S11309F0E80FF91FEE0FFF1FEE0FFF1FEE0FFF1F93
S1130A00E055FE4D858582FB882780F908950F9374
S1130A10282F2F7030E0A901440F551F282F082ECE
S1130A20000C330B2227330F221F3327240F351FCB
S1130A30A901440F551F440F551F440F551FFA01B8
S1130A40E454FE4D01E00693FA01E055FE4D958510
S1130A5092FF11C0FA01E055FE4D95859B7F958765
S1130A600CDDFC01808180FF06C08E7F80830780BF
S1130A70F085E02D199581E00F9108955F926F92B2
S1130A807F928F929F92AF92BF92CF92DF92EF921A
S1130A90FF920F931F93CF93DF931F92CDB7DEB7CF
S1130AA0782E662E4A015901E8DC6C01572C551C3E
S1130AB05524551C872D8F70E82EF12CEE0CFF1C4D
S1130AC0E50CF11CF701EE0FFF1FEE0FFF1FEE0FF9
S1130AD0FF1FE055FE4D8585807C09F482C0F70137
S1130AE0EE0FFF1FEE0FFF1FEE0FFF1FE055FE4D31
S1130AF08585807C803C61F0F701EE0FFF1FEE0FCF
S1130B00FF1FEE0FFF1FE055FE4D858582FD6BC074
S1130B108FB78983F8948981F601908190FF03C08F
S1130B208FBF512C61C0F6019081916090838FBF7B
S1130B3081829282A382B4821582168207831087EF
S1130B40611006C091E0A114B10419F090E001C055
S1130B5091E0F601808190FB81F98B7F80835520A1
S1130B6061F0F701EE0FFF1FEE0FFF1FEE0FFF1FE7
S1130B70E055FE4D128A138A2FC0F701EE0FFF1FB6
S1130B80EE0FFF1FEE0FFF1FE055FE4D8585807CA5
S1130B90803CA9F4C701880F991F880F991F880FFB
S1130BA0991F84549E4D40DCBC01C5010E94160E61
S1130BB0892B29F0F60180818E7F808315C0F7018F
S1130BC0EE0FFF1FEE0FFF1FEE0FFF1FE055FE4D50
S1130BD016861786128A138A872DDCDC55245394D3
S1130BE003C0512C01C0512C852D0F90DF91CF9162
S1130BF01F910F91FF90EF90DF90CF90BF90AF9037
S1130C009F908F907F906F905F900895FF920F93C5
S1130C101F93CF93DF93182FF82EFF1CFF24FF1C84
S1130C20C82FCF70D0E0CC0FDD1FCF0DD11D25DC38
S1130C30DC01FE01EE0FFF1FEE0FFF1FEE0FFF1F83
S1130C40E454FE4D02E005938C9180FF22C08E7F18
S1130C508C931796ED91FC9118973097D1F0FF2063
S1130C6059F0CC0FDD1FCC0FDD1FCC0FDD1FC0559D
S1130C70DE4D6A897B890AC0CC0FDD1FCC0FDD1FD6
S1130C80CC0FDD1FC055DE4D6E857F85412F81E081
S1130C901995DF91CF911F910F91FF900895CF93F4
S1130CA0C82FB4DFEC2FEF70F0E0EE0FFF1F8C2F96
S1130CB0CC0F990B8827990F881F9927E80FF91FE4
S1130CC0EE0FFF1FEE0FFF1FEE0FFF1FE055FE4D4F
S1130CD01586CF910895E82FEF70F0E0EE0FFF1F17
S1130CE0282F082E000C330B2227330F221F332703
S1130CF0E20FF31FEE0FFF1FEE0FFF1FEE0FFF1F9C
S1130D00E055FE4D95859460958780DF81E00895D8
S1130D101F920F920FB60F9211240BB60F920F93DE
S1130D202F933F934F935F936F937F938F939F93EF
S1130D30AF93BF93EF93FF938091CB0488232CF45C
S1130D4080E88093CA04B9D485C08091CB0482FF23
S1130D5020C084E08093CA048091C42186FF7AC0B5
S1130D608091CC0481FD76C0A3DB811173C0809196
S1130D70AF21813011F4D6DA6DC0843009F06AC035
S1130D80E5ECF1E204E00593EDEBF1E204E0059318
S1130D9061C08091CB0481FF58C082E08093CA0473
S1130DA08091BC2186FF56C08091CC0481FD52C045
S1130DB07FDB81114FC08091AF21823041F484E008
S1130DC08093AF21ECEBF1E202E0069343C0833061
S1130DD009F040C0E5ECF1E204E00593EDEBF1E24B
S1130DE004E0059337C080E18093CA0481E00EDFFC
S1130DF081E80CDF82E00ADF82E808DF39D4109250
S1130E00C304E0EBF1E2158696E0948783E48587DA
S1130E10158A948B858B8BE691E2808B918B4FDACC
S1130E2019C08091CB0486FF06C080E48093CA0475
S1130E3080E00DDA0FC08091CB0485FF0BC080E207
S1130E408093CA0481E003DA05C08091CB0484FD59
S1130E50CACFE7CFFF91EF91BF91AF919F918F914F
S1130E607F916F915F914F913F912F910F910F90CF
S1130E700BBE0F900FBE0F901F9018951F920F92EC
S1130E800FB60F9211240BB60F920F931F932F934B
S1130E903F934F935F936F937F938F939F93AF93FE
S1130EA0BF93CF93DF93EF93FF938091CC0481FDA5
S1130EB003C0FEDA8111C3C082E08093CC04809128
S1130EC0C5048195880FECEBF1E2E81BF109208160
S1130ED031812C5B31423695279536952795369589
S1130EE02795822F869520FD02C090E001C090E8EE
S1130EF0890FE82FEF70F0E0EE0FFF1F282F082E68
S1130F00000C330B2227330F221F3327E20FF31F6A
S1130F10DF01AA0FBB1FAA0FBB1FAA0FBB1FA0553F
S1130F20BE4D1C969C9195FF8AC0EE0FFF1FEE0FDD
S1130F30FF1FEE0FFF1FE454FE4D00E206938111E4
S1130F4079C08091AF21843019F4FAD9B8D977C027
S1130F500091BE211091BF218091322390913323BF
S1130F60C091AB21D091AC219E01200F311F82177B
S1130F70930718F48C010C1B1D0B80913023909166
S1130F803123A8016BE671E28C0F9D1F6BD6C00F55
S1130F90D11FC093AB21D093AC210034110569F467
S1130FA08091AD219091AE218C0F9D1F20912E2315
S1130FB030912F238217930780F0E8E2F3E2C2878F
S1130FC0D3870684F785E02D309729F01995811190
S1130FD002C09AD934C0A6D932C0809132239091EC
S1130FE03323C817D907F9F4E0913623F091372356
S1130FF0309711F489D923C01995811102C084D97D
S11310001EC02091AD213091AE218091AB219091F1
S1131010AC21820F931F8093AD219093AE21109247
S1131020AB211092AC21ECEBF1E202E0069300E27A
S1131030069305C0803811F48BD901C0ABDAFF9157
S1131040EF91DF91CF91BF91AF919F918F917F915C
S11310506F915F914F913F912F911F910F910F903D
S11310600BBE0F900FBE0F901F9018951092062381
S11310701092122310921323E8E0F3E281EA8083B2
S113108080E28183128213821482158282E090E0CE
S11310908683978310861186E4E1F3E280E092EC84
S11310A0A1E0B0E080839183A283B383148215828C
S11310B088E08683809106238F5F8093062381E0F6
S11310C0089580910623815080930623089580918A
S11310D005238150809305238091052310920423D6
S11310E0089580E0089580E008958091282388235E
S11310F0CCF480768032B9F5809129238132A9F528
S113110080912E2390912F23079789F5E8E2F3E24B
S113111084E193E28087918787E090E082879387D8
S113112081E008958076803221F5809129238032F0
S113113021F0823201F180E0089580912E23909174
S11311402F230797D1F4E8E2F3E28FEB98E084874A
S1131150958784E193E28087918787E090E0828796
S1131160938781E0089580E0089580E0089580E009
S1131170089580E0089581E0089580E00895089539
S1131180FF920F931F93CF93DF931F92CDB7DEB7D8
S11311908091F421811195C080DB882349F000916E
S11311A0F5211091F62186DB0817190751F489C03F
S11311B00091F5211091F62178DB0817190709F43D
S11311C080C08FB78983F89419810091F721E02FAB
S11311D0F0E0EE0FFF1FE850FE4D80819181892BD6
S11311E0F9F48091F1219091F22101968093F121FB
S11311F09093F22152DB811107C08091F1219091EB
S1131200F2218436910550F048DB882349F080911F
S1131210F1219091F2218032934010F41FBF51C00C
S11312201092F1211092F2218091F321811106C0D4
S113123081E0011180E08093F72104C081E0011175
S113124080E0082F81E08093F4211FBF10E0F801B3
S1131250EE0FFF1FE850FE4DFF24F394808191812F
S11312608034910509F4F12CFF2079F016DB8823F2
S113127031F020DB8093F5219093F6210AC015DB31
S11312808093F5219093F62104C01092F5211092D9
S1131290F621F801EE0FFF1FE850FE4D2081318149
S11312A0A8010024569547950794569547950794A9
S11312B0542F402D44505E4D08E619E06F2D81E80F
S11312C0DDDB0F90DF91CF911F910F91FF90089577
S11312D0811115C02091F72181E090E0222311F0C3
S11312E080E090E0880F991FFC01E850FE4D1082C9
S11312F011821092F3211092F42180E041CF0895DD
S113130080E03ECF0895CF93DF931F92CDB7DEB731
S11313108FB78983F894498120917D2230917E2270
S1131320E0917F22F0E0EE0FFF1FE058FD4D808139
S113133091814FBF821B930B0F90DF91CF91089542
S1131340E2DF21E0892B09F420E0822F08950F9336
S11313501F93CF93DF931F92CDB7DEB78FB78983E7
S1131360F894998120917F2280917C22811110C070
S113137060917D2270917E22022F10E0F801EE0F21
S1131380FF1FE058FD4D408151816417750718F423
S11313909FBF80E022C010927D2210927E2281E0C5
S11313A0211180E080937F2281E080937C229FBF83
S11313B080E0C6DFA801002456954795079456950A
S11313C047950794542F402D4C575D4D05E21AE084
S11313D020E430E061E082E051DB0F90DF91CF91B7
S11313E01F910F910895109205231092F4211092E9
S11313F0F3211092F721E8EFF1E2108211821282B8
S113140013821092F5211092F62180E0B9DE109239
S11314107C2210927F22E0E8F2E210821182128292
S1131420138210927D2210927E2280E090DF882326
S113143059F0909105239F5F909305239091052384
S1131440913011F49093042308950F931F93811105
S113145028C080917F22E1E08111E0E0842F6115B2
S11314607105A1F4F0E00024F695E7950794F6954C
S1131470E7950794FE2FE02DAF014C575D4D05E233
S11314801AE020E430E061E0F9DA0BC0F0E0EE0F9E
S1131490FF1FE058FD4D6083718310927C2280E031
S11314A056DF1F910F910895E0912023F09121239D
S11314B00190F081E02D228133812E0F3F1FFC012A
S11314C04081E40FF11DE217F307B8F48181843001
S11314D0B9F0861309C005C081818430A1F0861358
S11314E003C08E2F9F2F08958081E80FF11DE2170E
S11314F0F30790F380E090E0089580E090E0089591
S113150080E090E0089580E090E0089580912A239F
S11315108F77C5C9089590912223992381F1E09191
S11315202023F09121230190F081E02D94818917EB
S113153040F5E0931E23F0931F23228133812E0F65
S11315403F1FE217F307F8F49181943061F492811C
S1131550981309C09381961306C0E0931E23F09359
S11315601F2381E008959081E90FF11DE217F3072D
S113157058F3E0931E23F0931F2380E0089580E046
S1131580089580E0089580E00895EF92FF921F93FC
S1131590CF93DF93C82F60E0BEDF182F882379F143
S11315A0A0912023B0912123EC2FF0E0EE0FFF1F38
S11315B012968D919C911397E80FF91FE080F180AA
S11315C0D7011696ED91FC9117971995682F8C2FDA
S11315D0A2DF182F882399F0C0911E23D0911F23D6
S11315E065E0CE0161DFEC01892B19F08A8157DBBC
S11315F0F7CFD7011296ED91FC9113971995812F8E
S1131600DF91CF911F91FF90EF9008951F93CF9397
S1131610DF93182F80DF882339F1C0911E23D091E6
S11316201F2365E0CE0140DFEC01892B41F04C81A2
S11316305D816B818A8148D98111F3CF15C0A09156
S11316402023B0912123E12FF0E0EE0FFF1F12962B
S11316508D919C911397E80FF91F0190F081E02D73
S11316600190F081E02D1995DF91CF911F9108959C
S1131670CF93809122238823C1F0E0912023F0911D
S113168021230190F081E02D8481882371F0C0E052
S11316908C2F7BDFCF5FE0912023F09121230190F9
S11316A0F081E02D8481C81798F3109222231092C0
S11316B0262310922723CF910895CF93809122233C
S11316C0882349F1A0912023B0912123ED91FC912D
S11316D0119784818823F9F0C0E0EC2FF0E0EE0F3D
S11316E0FF1F12968D919C911397E80FF91F01909B
S11316F0F081E02D0084F185E02D309709F01995F3
S1131700CF5FA0912023B0912123ED91FC911197FB
S11317108481C81710F3CF9108950F931F93CF932B
S1131720DF93E8E2F3E212861386148615861686A2
S11317301786808188230CF067C220912E23309174
S11317402F232115310509F05AC255C28F7109F0B2
S1131750A7C090912923963079F0983009F496C067
S113176091119EC02230310509F0CEC162E070E0D3
S113177086E293E2A2D851C280912A2390912B232E
S1131780292F332722303105A9F024F421303105E3
S113179041F0B1C123303105D9F12F30310551F178
S11317A0AAC18091142090911520DC016C9170E005
S11317B084D85DC0E0911420F0911520218982170E
S11317C008F0A2C19927880F991F880F991FE091EB
S11317D01620F0911720E80FF91F80819181FC01F8
S11317E0628173816AD8E0913023F091312382E0E1
S11317F081833DC08091182090911920009709F4AD
S113180083C1DC0112966D917C91139756D82FC039
S113181099278130910591F058F08230910509F4AF
S1131820F8C1039709F070C126E08EEB90E209C07D
S113183064E070E08AEB90E240D819C089EA90E253
S113184020E1382FAAE7B0E2E82FF92F819190E048
S11318508D939D938E2F831B8217C0F3622F660F87
S11318606E5F6093782070E088E790E226D8E8E223
S1131870F3E286819781228533858217930708F0E6
S1131880CCC18093322390933323C7C121303105D7
S113189009F03AC161E070E082E293E20ED8BDC182
S11318A08130E9F5909129239A30C9F52130310529
S11318B009F02AC180912223882309F425C1C0910B
S11318C02C23D0912D230091202310912123D80182
S11318D0ED91FC918481C81708F016C160E08C2F4B
S11318E01ADE882309F410C1CE019927880F991FA5
S11318F0D8011296ED91FC911397E80FF91F01900E
S1131900F081E02D86819781FC0119958093242331
S113191061E070E084E293E20E945D047EC1823063
S113192009F0F2C0809129238111E7C022303105EA
S113193009F0EAC080912C234FD890E080931C23B7
S113194090931D2362E070E08CE193E20E945D04B9
S113195064C18F7109F084C090912923933009F4F4
S1131960CEC018F49130A1F07BC0953019F09930B5
S113197039F176C080912E2390912F23892B09F081
S1131980C3C086E89AE0809334239093352345C1FD
S113199080912E2390912F23892B09F0B5C080913B
S11319A02A2390912B23019709F0AEC0809126231E
S11319B0909127238D7F80932623909327232DC1F5
S11319C080912E2390912F23892B09F09DC00E9492
S11319D05204882309F498C020912A2330912B23A0
S11319E03327E0911420F0911520818990E082172B
S11319F0930708F489C03CDE80912A2390912B231D
S1131A0080932223882309F408C199278150904C9C
S1131A10880F991F880F991FE0911620F0911720C5
S1131A20E80FF91FE0932023F09321230190F08124
S1131A30E02D8481882309F4F0C0C0E060E08C2F9D
S1131A40E5DD882309F460C0CF5FE0912023F091A5
S1131A5021230190F081E02D8481C81778F3DDC043
S1131A608130E1F4909129239B30C1F480912E239D
S1131A7090912F23892B09F047C08091222388233A
S1131A8009F442C0E8E2F3E2C481D2818C2F7DDD07
S1131A908823D1F16D2F8C2FB9DD34C08230A1F5AC
S1131AA080912923813019F0833091F02AC08091EC
S1131AB02E2390912F23892B39F580912A239091FD
S1131AC02B23892B09F580912C230E9407051AC02A
S1131AD080912E2390912F23892BB1F480912A2376
S1131AE090912B23892B81F4C8E2D3E28C818ED888
S1131AF08C81F1D807C080E005C080E003C080E09D
S1131B0001C080E081118AC0809128238F718130C7
S1131B1071F580912223882351F100912C23109197
S1131B202D23C0912023D0912123E881F981848140
S1131B300817E8F460E0802FEEDC8823C1F0F80198
S1131B40FF27CF01880F991FEA81FB81E80FF91F56
S1131B50C081D181EE81FF811995682F802FDBDC54
S1131B60882329F0EC81FD811995811157C080915A
S1131B7028238F71823009F040C08091222388236A
S1131B80B1F1A0912023B0912123ED91FC91119703
S1131B908481882371F1C0E0EC2FF0E0EE0FFF1F89
S1131BA012968D919C911397E80FF91F0081118172
S1131BB0D8011696ED91FC9117971995682F8C2FE3
S1131BC0AADC882359F1D8011496ED91FC9115975C
S1131BD01995811123C0CF5FA0912023B0912123B7
S1131BE0ED91FC9111979481C917B0F217C080E070
S1131BF015C080E013C080E011C080E00FC0982FB2
S1131C00907609F081CFA2CD982F907609F07CCF01
S1131C10A0CE2EE08AE990E214CE81E0DF91CF914C
S1131C201F910F91089501D0FFCF0895AA1BBB1BEC
S1131C3051E107C0AA1FBB1FA617B70710F0A61BC8
S1131C40B70B881F991F5A95A9F780959095BC01E9
S1131C50CD010895EE0FFF1F881F8BBF0790F691EB
S1131C60E02D1994FB01DC0102C001900D9241505A
S10D1C705040D8F70895F894FFCF10
S1131C7AF30967087108730880093608610875084A
S1131C8A7308000066201A20000022201E200A2061
S1131C9A00200902430002010080FA09040000013D
S1131CAA020201000524001001042402020524068C
S1131CBA00010524010301070582034000100904F9
S1131CCA0100020A0000000705810240000007051E
S1131CDA0202400000001201000202000040EB036D
S1131CEA04240001010203010003000000000000B3
S1131CFA00000000000000000000000000000000D6
S1131D0A0000000000000000000046696E644D6592
S1131D1A5341542056312E30004446344941482018
S1131D2A536F6C7574696F6E730004030904303160
S1091D3A303030300000DF
S9030000FC
