:100000000BC100002AC1000028C1000026C1000069
:1000100024C1000022C1000020C100001EC1000058
:100020001CC100001AC1000018C100007AC1000004
:1000300014C100000C943F0EB8C60000E3C60000D7
:100040000EC7000039C7000064C700008FC700005A
:10005000BAC70000E5C700000C943D080C946A087C
:10006000FCC00000FAC00000F8C00000F6C00000AC
:10007000F4C00000F2C00000F0C00000EEC00000BC
:10008000ECC00000EAC00000E8C00000E6C00000CC
:10009000E4C00000E2C00000E0C0000085C4000031
:1000A000B5C40000E5C4000015C50000D6C00000BE
:1000B000D4C00000D2C000000C94660E0C94590A03
:1000C0000C94860A0C94B30A0C94E00A0C940D0B61
:1000D0000C943A0B0C94670B0C94940B0C94C10B7E
:1000E0000C94EE0BBAC00000B8C00000B6C000000F
:1000F000B4C00000B2C00000B0C00000AEC000003C
:10010000ACC00000AAC00000A8C00000A6C000004B
:10011000A4C00000A2C00000A0C000007DC3000079
:10012000ADC30000DDC300000DC4000096C0000098
:1001300094C00000FCC700000C94C4080C94F108A3
:100140000C941E090C944B090C9478090C94A50985
:100150000C94D2090C94FF090C942C0A7EC0000068
:100160007CC000007AC0000078C0000076C00000AB
:1001700074C0000072C0000070C000006EC00000BB
:100180006CC000006AC0000068C0000066C00000CB
:1001900064C0000062C0000060C000005EC00000DB
:1001A0005CC000005AC0000058C0000056C00000EB
:1001B0000C941B0C0C94480C0C94750C0C94A20C15
:1001C0000C94CF0C0C94FC0C48C0000046C00000FE
:1001D00044C0000042C0000040C000003EC000001B
:1001E0003CC000003AC0000038C0000036C000002B
:1001F00034C000000C9423150C94DD150410071076
:100200000A100D10101013101610551768177B17D1
:100210008E17A117B417C71711241FBECFEFCDBF7C
:10022000DFE5DEBF00E00CBF11E2A0E0B0E2EEE1EE
:10023000F4E500E00BBF02C007900D92AA33B107AE
:10024000D9F724E2AAE3B1E201C01D92A735B207B3
:10025000E1F70E94A7180C940D2AD2CE04C0615079
:100260007109810991096115710581059105B9F738
:10027000089580E180932104E0E2F4E0818184FD2F
:10028000FDCF609124047091250480912604909103
:100290002704089580932B2490932C240895CF93C2
:1002A000DF9364E080E00E94701BC0EFD0E08881A3
:1002B0008260888361E080EF90E00E9481238881E2
:1002C0008460888369EE73E080E090E0C7DF888116
:1002D00088618883E0EFF0E0818183FFFDCF109299
:1002E0002004E0E2F4E0818180FDFDCFE0E2F4E073
:1002F0008FEF9FEFDC0180879187A287B3871482FD
:10030000158216821782818180FDFDCFE0E2F4E044
:10031000128281E08083818180FDFDCFDF91CF91CA
:1003200008951F920F920FB60F9211240BB60F92E1
:100330002F933F934F935F936F937F938F939F93ED
:10034000AF93BF93CF93DF93EF93FF931092220469
:10035000C0912B24D0912C24209719F08ADFFE0124
:100360001995FF91EF91DF91CF91BF91AF919F913F
:100370008F917F916F915F914F913F912F910F904E
:100380000BBE0F900FBE0F901F90189504C06150C8
:100390007109810991096115710581059105B9F707
:1003A0000895CF92DF92EF92FF920F931F93CF9316
:1003B000E6E0F0E283E0818381E090E0848395834E
:1003C0008F01CC24C394D12C0F2EF5ECEF2EF2E24A
:1003D000FF2EF02DF801C086D18641E0B80180E8FB
:1003E00094E00E94A20EF701C0819C2F90788111A9
:1003F0000DC091F08C2F8178813829F465EF71E080
:1004000080E090E0C3DFC0FDE5CF0CC065E070E0A8
:1004100080E090E0BBDFDECF65E070E080E090E060
:10042000B5DFD8CFCF911F910F91FF90EF90DF9064
:10043000CF900895E0E8F6E088E3808B818BE0E4DC
:10044000F6E0808B818B0895EF92FF920F931F93BC
:10045000CF93DF93E6E0F0E281E0818381E090E0FA
:10046000848395838087918741E0BF0180E894E091
:100470000E94A20E8091C5228093F022813178F1F2
:10048000C6E0D0E282E089830F2EF5ECEF2EF2E297
:10049000FF2EF02D80E1F701808301E010E0088756
:1004A000198740E0BE0180E894E00E94A20E65E05A
:1004B00070E080E090E06ADF74DF84E1898381E0AE
:1004C000F70180830887198740E0BE0180E894E047
:1004D0000E94A20E65E070E080E090E057DFDF91BF
:1004E000CF911F910F91FF90EF90089560E485E008
:1004F0000E94701B6AE170E280EA94E00E948D0E17
:10050000E0EAF4E081818860818360E483E00E9416
:10051000701B61E170E280E894E00E948D0EE0E8DB
:10052000F4E081818860818361E876E988E990E080
:100530002DDF8ACF08950895DF92EF92FF920F93F7
:100540001F93CF93DF938091F022813108F4B2C0E2
:1005500028DF06E010E26894DD24D5F8F801D182A6
:1005600080913A21805FC5ECD2E2888389836894C8
:10057000EE24E1F8F12CE086F18640E0B80180E855
:1005800094E00E94A20E65E070E080E090E0FEDE64
:1005900008DF82E3F801818380913A2196E9980F80
:1005A0009883845C8983E086F18640E0B80180E826
:1005B00094E00E94A20E65E070E080E090E0E6DE4C
:1005C000F0DE84E3F80181838EE188838983E0860D
:1005D000F18640E0B80180E894E00E94A20E65E058
:1005E00070E080E090E0D2DEDCDE88E3F801818319
:1005F00084E1888381E090E08087918740E0B801C2
:1006000080E894E00E94A20E65E070E080E090E057
:10061000BDDEC7DEF801D18280913A2194E7980FC0
:100620009883805F8983E086F18640E0B80180E8A6
:1006300094E00E94A20E65E070E080E090E0A6DE0B
:10064000B0DE80E3F801818384E0888381E48983DC
:1006500082E48A8383E48B8384E48C8385E090E066
:100660008087918740E0B80180E894E00E94A20E64
:1006700065E070E080E090E089DE80913A218F5F54
:10068000813418F480933A2132C010923A2189DEE5
:10069000E6E0F0E280E181831086118640E0BF0150
:1006A00080E894E00E94A20E65E070E080E090E0B7
:1006B0006DDE1DC08031D9F474DEE6E0F0E284E83E
:1006C0008183A5ECB2E281E08C9380E811968C9353
:1006D00082E090E08087918740E0BF0180E894E06D
:1006E0000E94A20E69E873E180E090E04FDEDF91A6
:1006F000CF911F910F91FF90EF90DF900895089593
:10070000CF93DF931F92CDB7DEB72FB72983F8942D
:100710004981282F392F211582E0380729F4609369
:100720002F247093302407C02034324021F460938A
:100730002D2470932E244FBF0F90DF91CF910895F9
:10074000811522E0920769F480913C2191E0980F95
:1007500090933C21811114C062E081E00C94701BE5
:1007600008958034924061F480913B2191E0980F8C
:1007700090933B21811104C062E082E00C94701BD5
:100780000895811522E0920761F480913C21815007
:1007900080933C21811113C062E081E00C94861BA0
:1007A00008958034924059F480913B218150809388
:1007B0003B21811104C062E082E00C94861B089505
:1007C000EF92FF921F93CF93DF931F921F92CDB7AB
:1007D000DEB77C018FB78983F8941981C701B0DF38
:1007E000F7018081816080831FBF809142248F3F09
:1007F00009F4FFCF8FB78A83F8949A81E1E4F4E299
:1008000081818F5F81839FBF0F900F90DF91CF9188
:100810001F91FF90EF9008951F920F920FB60F92C5
:1008200011240BB60F922F933F934F935F936F93C7
:100830007F938F939F93AF93BF93EF93FF934091D9
:10084000240250912502E0912F24F091302461E0A0
:1008500080E092E01995FF91EF91BF91AF919F9148
:100860008F917F916F915F914F913F912F910F9059
:100870000BBE0F900FBE0F901F9018951F920F92F6
:100880000FB60F9211240BB60F922F933F934F93F5
:100890005F936F937F938F939F93AF93BF93EF93E8
:1008A000FF9340912C0250912D02E0912F24F09162
:1008B000302462E080E092E01995FF91EF91BF91C2
:1008C000AF919F918F917F916F915F914F913F91E8
:1008D0002F910F900BBE0F900FBE0F901F90189589
:1008E0001F920F920FB60F9211240BB60F922F93F7
:1008F0003F934F935F936F937F938F939F93AF93A8
:10090000BF93EF93FF934091340250913502E091F1
:100910002F24F091302464E080E092E01995FF915B
:10092000EF91BF91AF919F918F917F916F915F9167
:100930004F913F912F910F900BBE0F900FBE0F90D4
:100940001F9018951F920F920FB60F9211240BB69D
:100950000F922F933F934F935F936F937F938F9358
:100960009F93AF93BF93EF93FF9340913C025091BD
:100970003D02E0912F24F091302468E080E092E085
:100980001995FF91EF91BF91AF919F918F917F91B9
:100990006F915F914F913F912F910F900BBE0F90F0
:1009A0000FBE0F901F9018951F920F920FB60F92C7
:1009B00011240BB60F922F933F934F935F936F9336
:1009C0007F938F939F93AF93BF93EF93FF93409148
:1009D000640250916502E0912D24F0912E2461E093
:1009E00080E492E01995FF91EF91BF91AF919F91B3
:1009F0008F917F916F915F914F913F912F910F90C8
:100A00000BBE0F900FBE0F901F9018951F920F9264
:100A10000FB60F9211240BB60F922F933F934F9363
:100A20005F936F937F938F939F93AF93BF93EF9356
:100A3000FF9340916C0250916D02E0912D24F09152
:100A40002E2462E080E492E01995FF91EF91BF912E
:100A5000AF919F918F917F916F915F914F913F9156
:100A60002F910F900BBE0F900FBE0F901F901895F7
:100A70001F920F920FB60F9211240BB60F922F9365
:100A80003F934F935F936F937F938F939F93AF9316
:100A9000BF93EF93FF934091740250917502E091E0
:100AA0002D24F0912E2464E080E492E01995FF91CA
:100AB000EF91BF91AF919F918F917F916F915F91D6
:100AC0004F913F912F910F900BBE0F900FBE0F9043
:100AD0001F9018951F920F920FB60F9211240BB60C
:100AE0000F922F933F934F935F936F937F938F93C7
:100AF0009F93AF93BF93EF93FF9340917C025091EC
:100B00007D02E0912D24F0912E2468E080E492E0B3
:100B10001995FF91EF91BF91AF919F918F917F9127
:100B20006F915F914F913F912F910F900BBE0F905E
:100B30000FBE0F901F901895BF92CF92DF92EF9249
:100B4000FF920F931F93CF93DF931F92CDB7DEB722
:100B50008C017B01811522E0920781F461E270E053
:100B600082E00E947723C82ED12C60E270E082E000
:100B70000E947723DC2CCC24C82A12C080349240F7
:100B8000D1F565E270E082E00E947723C82ED12C77
:100B900064E270E082E00E947723DC2CCC24C82A37
:100BA0008FB78983F894B980C801CADDF8018081C4
:100BB00092E09083C486D586F70125813681F801BD
:100BC000208F318FF7019281F8019283F701948190
:100BD000F8019483F7019381F8019383F7019181E0
:100BE000F80191838170F7019081892BF80180834E
:100BF000C801C7DDBFBE0F90DF91CF911F910F914C
:100C0000FF90EF90DF90CF90BF900895DF92EF922A
:100C1000FF920F931F93CF93DF931F92CDB7DEB751
:100C20008C017B018FB78983F894D980C80188DD56
:100C3000F8018081807CF7018083F801808D918D9F
:100C4000F70185839683F8018281F7018283F80199
:100C50008481F7018483F8018381F7018383F8019C
:100C60008181F7018183C8018CDDDFBE0F90DF91A8
:100C7000CF911F910F91FF90EF90DF900895AF9269
:100C8000BF92CF92DF92EF92FF920F931F93CF9379
:100C9000DF931F92CDB7DEB76C01B62E7A01862F97
:100CA000837029F4962F9695969582E002C0962F30
:100CB00080E090FF8F5F8601005E1F4F98E0899F64
:100CC000000D111D11248FB78983F894A980C601E6
:100CD00037DDF7018081F8018083F7018281F80117
:100CE0008283F7018181F8018183B0FE04C0F7019E
:100CF0008381F8018683C60144DDAFBE0F90DF918A
:100D0000CF911F910F91FF90EF90DF90CF90BF9008
:100D1000AF900895AF92BF92CF92DF92EF92FF9281
:100D20000F931F93CF93DF931F92CDB7DEB76C0164
:100D3000B62E7A01862F837029F4962F9695969574
:100D400082E002C0962F80E090FF8F5F8601005EF8
:100D50001F4F98E0899F000D111D11248FB78983C3
:100D6000F894A980C601ECDCF8018081F70180834A
:100D7000F8018281F7018283F8018181F701818383
:100D8000B0FE04C0F8018681F7018383C601F9DC57
:100D9000AFBE0F90DF91CF911F910F91FF90EF9019
:100DA000DF90CF90BF90AF9008951F920F920FB633
:100DB0000F9211240BB60F922F933F934F935F9393
:100DC0006F937F938F939F93AF93BF93EF93FF9313
:100DD000E0918321F0918421309709F01995FF91DA
:100DE000EF91BF91AF919F918F917F916F915F91A3
:100DF0004F913F912F910F900BBE0F900FBE0F9010
:100E00001F9018951F920F920FB60F9211240BB6D8
:100E10000F922F933F934F935F936F937F938F9393
:100E20009F93AF93BF93EF93FF93E0918121F09154
:100E30008221309709F01995FF91EF91BF91AF9101
:100E40009F918F917F916F915F914F913F912F91E2
:100E50000F900BBE0F900FBE0F901F9018951F9212
:100E60000F920FB60F9211240BB60F922F933F9350
:100E70004F935F936F937F938F939F93AF93BF93A2
:100E8000EF93FF93E0917F21F0918021309709F05B
:100E90001995FF91EF91BF91AF919F918F917F91A4
:100EA0006F915F914F913F912F910F900BBE0F90DB
:100EB0000FBE0F901F9018951F920F920FB60F92B2
:100EC00011240BB60F922F933F934F935F936F9321
:100ED0007F938F939F93AF93BF93EF93FF93E09193
:100EE0007D21F0917E21309709F01995FF91EF91C6
:100EF000BF91AF919F918F917F916F915F914F9132
:100F00003F912F910F900BBE0F900FBE0F901F902F
:100F100018951F920F920FB60F9211240BB60F92D5
:100F20002F933F934F935F936F937F938F939F93F1
:100F3000AF93BF93EF93FF93E0917B21F0917C21DE
:100F4000309709F01995FF91EF91BF91AF919F9163
:100F50008F917F916F915F914F913F912F910F9062
:100F60000BBE0F900FBE0F901F9018951F920F92FF
:100F70000FB60F9211240BB60F922F933F934F93FE
:100F80005F936F937F938F939F93AF93BF93EF93F1
:100F9000FF93E0917921F0917A21309709F019952A
:100FA000FF91EF91BF91AF919F918F917F916F9141
:100FB0005F914F913F912F910F900BBE0F900FBEFD
:100FC0000F901F9018951F920F920FB60F92112439
:100FD0000BB60F922F933F934F935F936F937F9333
:100FE0008F939F93AF93BF93EF93FF93E0917721FC
:100FF000F0917821309709F01995FF91EF91BF9109
:10100000AF919F918F917F916F915F914F913F91A0
:101010002F910F900BBE0F900FBE0F901F90189541
:101020001F920F920FB60F9211240BB60F922F93AF
:101030003F934F935F936F937F938F939F93AF9360
:10104000BF93EF93FF93E0917521F0917621309754
:1010500009F01995FF91EF91BF91AF919F918F91F9
:101060007F916F915F914F913F912F910F900BBEA8
:101070000F900FBE0F901F9018951F920F920FB6F2
:101080000F9211240BB60F922F933F934F935F93C0
:101090006F937F938F939F93AF93BF93EF93FF9340
:1010A000E0917321F0917421309709F01995FF9127
:1010B000EF91BF91AF919F918F917F916F915F91D0
:1010C0004F913F912F910F900BBE0F900FBE0F903D
:1010D0001F9018951F920F920FB60F9211240BB606
:1010E0000F922F933F934F935F936F937F938F93C1
:1010F0009F93AF93BF93EF93FF93E0917121F09192
:101100007221309709F01995FF91EF91BF91AF913E
:101110009F918F917F916F915F914F913F912F910F
:101120000F900BBE0F900FBE0F901F9018951F923F
:101130000F920FB60F9211240BB60F922F933F937D
:101140004F935F936F937F938F939F93AF93BF93CF
:10115000EF93FF93E0916F21F0917021309709F0A8
:101160001995FF91EF91BF91AF919F918F917F91D1
:101170006F915F914F913F912F910F900BBE0F9008
:101180000FBE0F901F9018951F920F920FB60F92DF
:1011900011240BB60F922F933F934F935F936F934E
:1011A0007F938F939F93AF93BF93EF93FF93E091C0
:1011B0006D21F0916E21309709F01995FF91EF9113
:1011C000BF91AF919F918F917F916F915F914F915F
:1011D0003F912F910F900BBE0F900FBE0F901F905D
:1011E00018951F920F920FB60F9211240BB60F9203
:1011F0002F933F934F935F936F937F938F939F931F
:10120000AF93BF93EF93FF93E0916B21F0916C212B
:10121000309709F01995FF91EF91BF91AF919F9190
:101220008F917F916F915F914F913F912F910F908F
:101230000BBE0F900FBE0F901F9018951F920F922C
:101240000FB60F9211240BB60F922F933F934F932B
:101250005F936F937F938F939F93AF93BF93EF931E
:10126000FF93E0916921F0916A21309709F0199577
:10127000FF91EF91BF91AF919F918F917F916F916E
:101280005F914F913F912F910F900BBE0F900FBE2A
:101290000F901F9018951F920F920FB60F92112466
:1012A0000BB60F922F933F934F935F936F937F9360
:1012B0008F939F93AF93BF93EF93FF93E091672139
:1012C000F0916821309709F01995FF91EF91BF9146
:1012D000AF919F918F917F916F915F914F913F91CE
:1012E0002F910F900BBE0F900FBE0F901F9018956F
:1012F0001F920F920FB60F9211240BB60F922F93DD
:101300003F934F935F936F937F938F939F93AF938D
:10131000BF93EF93FF93E0916521F09166213097A1
:1013200009F01995FF91EF91BF91AF919F918F9126
:101330007F916F915F914F913F912F910F900BBED5
:101340000F900FBE0F901F9018951F920F920FB61F
:101350000F9211240BB60F922F933F934F935F93ED
:101360006F937F938F939F93AF93BF93EF93FF936D
:10137000E0916321F0916421309709F01995FF9174
:10138000EF91BF91AF919F918F917F916F915F91FD
:101390004F913F912F910F900BBE0F900FBE0F906A
:1013A0001F9018951F920F920FB60F9211240BB633
:1013B0000F922F933F934F935F936F937F938F93EE
:1013C0009F93AF93BF93EF93FF93E0916121F091CF
:1013D0006221309709F01995FF91EF91BF91AF917C
:1013E0009F918F917F916F915F914F913F912F913D
:1013F0000F900BBE0F900FBE0F901F9018951F926D
:101400000F920FB60F9211240BB60F922F933F93AA
:101410004F935F936F937F938F939F93AF93BF93FC
:10142000EF93FF93E0915F21F0916021309709F0F5
:101430001995FF91EF91BF91AF919F918F917F91FE
:101440006F915F914F913F912F910F900BBE0F9035
:101450000FBE0F901F9018951F920F920FB60F920C
:1014600011240BB60F922F933F934F935F936F937B
:101470007F938F939F93AF93BF93EF93FF93E091ED
:101480005D21F0915E21309709F01995FF91EF9160
:10149000BF91AF919F918F917F916F915F914F918C
:1014A0003F912F910F900BBE0F900FBE0F901F908A
:1014B00018951F920F920FB60F9211240BB60F9230
:1014C0002F933F934F935F936F937F938F939F934C
:1014D000AF93BF93EF93FF93E0915B21F0915C2179
:1014E000309709F01995FF91EF91BF91AF919F91BE
:1014F0008F917F916F915F914F913F912F910F90BD
:101500000BBE0F900FBE0F901F9018951F920F9259
:101510000FB60F9211240BB60F922F933F934F9358
:101520005F936F937F938F939F93AF93BF93EF934B
:10153000FF93E0915921F0915A21309709F01995C4
:10154000FF91EF91BF91AF919F918F917F916F919B
:101550005F914F913F912F910F900BBE0F900FBE57
:101560000F901F9018951F920F920FB60F92112493
:101570000BB60F922F933F934F935F936F937F938D
:101580008F939F93AF93BF93EF93FF93E091572176
:10159000F0915821309709F01995FF91EF91BF9183
:1015A000AF919F918F917F916F915F914F913F91FB
:1015B0002F910F900BBE0F900FBE0F901F9018959C
:1015C0001F920F920FB60F9211240BB60F922F930A
:1015D0003F934F935F936F937F938F939F93AF93BB
:1015E000BF93EF93FF93E0915521F09156213097EF
:1015F00009F01995FF91EF91BF91AF919F918F9154
:101600007F916F915F914F913F912F910F900BBE02
:101610000F900FBE0F901F9018951F920F920FB64C
:101620000F9211240BB60F922F933F934F935F931A
:101630006F937F938F939F93AF93BF93EF93FF939A
:10164000E0915321F0915421309709F01995FF91C1
:10165000EF91BF91AF919F918F917F916F915F912A
:101660004F913F912F910F900BBE0F900FBE0F9097
:101670001F9018951F920F920FB60F9211240BB660
:101680000F922F933F934F935F936F937F938F931B
:101690009F93AF93BF93EF93FF93E0915121F0910C
:1016A0005221309709F01995FF91EF91BF91AF91B9
:1016B0009F918F917F916F915F914F913F912F916A
:1016C0000F900BBE0F900FBE0F901F9018951F929A
:1016D0000F920FB60F9211240BB60F922F933F93D8
:1016E0004F935F936F937F938F939F93AF93BF932A
:1016F000EF93FF93E0914F21F0915021309709F043
:101700001995FF91EF91BF91AF919F918F917F912B
:101710006F915F914F913F912F910F900BBE0F9062
:101720000FBE0F901F9018951F920F920FB60F9239
:1017300011240BB60F922F933F934F935F936F93A8
:101740007F938F939F93AF93BF93EF93FF93E0911A
:101750004D21F0914E21309709F01995FF91EF91AD
:10176000BF91AF919F918F917F916F915F914F91B9
:101770003F912F910F900BBE0F900FBE0F901F90B7
:1017800018951F920F920FB60F9211240BB60F925D
:101790002F933F934F935F936F937F938F939F9379
:1017A000AF93BF93EF93FF93E0914B21F0914C21C6
:1017B000309709F01995FF91EF91BF91AF919F91EB
:1017C0008F917F916F915F914F913F912F910F90EA
:1017D0000BBE0F900FBE0F901F9018951F920F9287
:1017E0000FB60F9211240BB60F922F933F934F9386
:1017F0005F936F937F938F939F93AF93BF93EF9379
:10180000FF93E0914921F0914A21309709F0199511
:10181000FF91EF91BF91AF919F918F917F916F91C8
:101820005F914F913F912F910F900BBE0F900FBE84
:101830000F901F9018951F920F920FB60F921124C0
:101840000BB60F922F933F934F935F936F937F93BA
:101850008F939F93AF93BF93EF93FF93E0914721B3
:10186000F0914821309709F01995FF91EF91BF91C0
:10187000AF919F918F917F916F915F914F913F9128
:101880002F910F900BBE0F900FBE0F901F901895C9
:101890001F920F920FB60F9211240BB60F922F9337
:1018A0003F934F935F936F937F938F939F93AF93E8
:1018B000BF93EF93FF93E0914521F091462130973C
:1018C00009F01995FF91EF91BF91AF919F918F9181
:1018D0007F916F915F914F913F912F910F900BBE30
:1018E0000F900FBE0F901F9018951F920F920FB67A
:1018F0000F9211240BB60F922F933F934F935F9348
:101900006F937F938F939F93AF93BF93EF93FF93C7
:10191000E0914321F0914421309709F01995FF910E
:10192000EF91BF91AF919F918F917F916F915F9157
:101930004F913F912F910F900BBE0F900FBE0F90C4
:101940001F9018951F920F920FB60F9211240BB68D
:101950000F922F933F934F935F936F937F938F9348
:101960009F93AF93BF93EF93FF93E0914121F09149
:101970004221309709F01995FF91EF91BF91AF91F6
:101980009F918F917F916F915F914F913F912F9197
:101990000F900BBE0F900FBE0F901F9018951F92C7
:1019A0000F920FB60F9211240BB60F922F933F9305
:1019B0004F935F936F937F938F939F93AF93BF9357
:1019C000EF93FF93E0913F21F0914021309709F090
:1019D0001995FF91EF91BF91AF919F918F917F9159
:1019E0006F915F914F913F912F910F900BBE0F9090
:1019F0000FBE0F901F9018951F920F920FB60F9267
:101A000011240BB60F922F933F934F935F936F93D5
:101A10007F938F939F93AF93BF93EF93FF93E09147
:101A20003D21F0913E21309709F01995FF91EF91FA
:101A3000BF91AF919F918F917F916F915F914F91E6
:101A40003F912F910F900BBE0F900FBE0F901F90E4
:101A500018951F93CF93DF931F921F92CDB7DEB7D8
:101A60002FB72A83F8941A81282F392F211588E05F
:101A7000380749F461E083E00E94701B64E083E072
:101A80000E94701B4FC0203488E0380749F462E0A0
:101A900083E00E94701B64E083E00E94701B42C0E0
:101AA000211589E0380749F461E084E00E94701B49
:101AB00064E084E00E94701B35C0203489E0380760
:101AC00049F462E084E00E94701B64E084E00E94BC
:101AD000701B28C021158AE0380749F461E085E0D1
:101AE0000E94701B64E085E00E94701B1BC02034C4
:101AF0008AE0380749F462E085E00E94701B64E0E8
:101B000085E00E94701B0EC021153B4049F461E046
:101B100086E00E94701B64E086E00E94701B02C099
:101B20001FBF10C0809142248F3F09F4FFCF8FB7B1
:101B30008983F8949981E1E4F4E281818F5F818364
:101B40009FBF1FBF0F900F90DF91CF911F910895FE
:101B5000CF93DF93E0918521F0918621848183FFEB
:101B600008C08860848383E0838386EF80938F211D
:101B700083C0982F947131F083E083838FEF80933B
:101B80008F217AC086FF43C0C5E8D1E2AA81BB811C
:101B90008C819D8114962D913C9115978217930706
:101BA0006CF49C012F5F3F4F2093892130938A2151
:101BB000A80FB91F11968C9187835EC080918B21ED
:101BC00090918C2118962D913C911997821793072B
:101BD000C8F420918D21222321F0868181608683A3
:101BE0004BC016962D913C911797AC014F5F5F4FFC
:101BF00040938B2150938C21D901A80FB91F8C9150
:101C000087833AC083E0838310928F2135C0882375
:101C100084F5A5E8B1E21296CD91DC911397169662
:101C20008D919C9117972885398582179307D8F451
:101C30006E817F819C012F5F3F4F20938B213093DA
:101C40008C214781DB01A80FB91F4C9388859985AA
:101C50002817390718F482E083830EC087E0838356
:101C600010928F2109C083E0838389EF80938F21B5
:101C700003C08BEF80938F21DF91CF9108951F9246
:101C80000F920FB60F9211240BB60F922F933F9322
:101C90004F935F936F937F938F939F93AF93BF9374
:101CA000EF93FF9355DFFF91EF91BF91AF919F911C
:101CB0008F917F916F915F914F913F912F910F90F5
:101CC0000BBE0F900FBE0F901F9018951F920F9292
:101CD0000FB60F9211240BB60F922F933F934F9391
:101CE0005F936F937F938F939F93AF93BF93EF9384
:101CF000FF932EDFFF91EF91BF91AF919F918F9155
:101D00007F916F915F914F913F912F910F900BBEFB
:101D10000F900FBE0F901F901895FC01DB011496D9
:101D20008C91858388EB818381E08483E5E8F1E20F
:101D300011861286E0EAF0E08281826082837894E4
:101D400080E00895CF93DF931F92CDB7DEB79C015B
:101D5000FB01892B09F451C0309709F450C09285DA
:101D600080918E21882319F09923F1F34AC08FB70F
:101D70008983F8948981A5E8B1E291E019969C9352
:101D8000199790E81A969C931A978FBF2D933C93BE
:101D9000119712966D937C93139714961D921C9233
:101DA000159716961D921C92179718964C93808142
:101DB000880F64817581672B11F4411103C0F9010B
:101DC000868303C08160F9018683E5E8F1E29285AC
:101DD0009038E9F3F90184818370813049F0A5E8F6
:101DE000B1E2ED91FC911197848183708130C9F744
:101DF000E5E8F1E28285118605C088EF03C088EF2F
:101E000001C086EF0F90DF91CF910895CF93DF93BC
:101E10001F921F92CDB7DEB7811126C09091BC22D0
:101E20009923F9F090914224911101C0FFCF9FB7FF
:101E30009A83F8942A81E1E4F4E2918191509183AC
:101E40002FBF0FC0909142249F3F09F4FFCF9FB74F
:101E50009983F8942981E1E4F4E291819F5F918371
:101E60002FBF8093BC2205C09091BC22992351F3CF
:101E7000F8CF0F900F90DF91CF9108950F93E8EC7A
:101E8000F4E080818F7D808380818F7D8083E0E995
:101E9000F2E202E00593109292221092932200E265
:101EA000069300E40693E8E8F2E200E40693E1E337
:101EB000F4E214861586168617861286138610920B
:101EC00079220F9108950F9385E080937922E1E9BB
:101ED000F2E204E00593E9E8F2E204E005930F91F1
:101EE00008950F9383E080937922109292221092AA
:101EF0009322E0E9F2E202E006930F910895E09167
:101F00003D24F0913E24309709F0199508950F93E0
:101F1000CF93DF9380917922833019F4F0DFAEDF25
:101F20005EC08091752290917622C0913B24D09121
:101F30003C24C81BD90B71F520917722309178226F
:101F4000820F931F809377229093782220913724D9
:101F5000309138248217930721F0809190218823B3
:101F600041F084E080937922E8E8F2E202E006930F
:101F700036C0E0913F24F0914024309799F01995B4
:101F8000882381F01092752210927622C0913B2412
:101F9000D0913C24C034D10528F010929021C0E4A7
:101FA000D0E003C081E080939021ECE7F2E2C68BA1
:101FB000D78B80917522909176222091392430918F
:101FC0003A24280F391F208F318FC80FD91FC09393
:101FD0007522D0937622E0E9F2E202E00693DF91E7
:101FE000CF910F910895FC018181E82FE7708E2F2A
:101FF00090E0FC013197E730F105D8F48827E250F2
:10200000FF4F8F4F0C94BD2380E190E0089580E254
:1020100090E0089580E490E0089580E890E00895CD
:1020200080E091E0089580E092E008958FEF93E0E2
:10203000089588E090E00895282F2F7030E0220F57
:10204000331F082E000C990B8827990F881F99279A
:10205000820F931F02979C01220F331F220F331F01
:10206000220F331F820F931F8F5E9D4D08950F9394
:10207000CF938091CC0480FF65C081E08093CC0435
:10208000E8E8F2E200E80693E0E9F2E200E806930D
:102090008093CA04E8E8F2E200E106938091792295
:1020A000882329F08350823008F429DFE7DE80910D
:1020B0008A2290918B22089709F046C088E0E5E3D8
:1020C000F2E2A1E3B4E201900D928A95E1F7E8EC27
:1020D000F4E08081806280838081806280830E94BE
:1020E0005720C82F811103C0EEDEC1E02EC08091C1
:1020F000312488236CF41092772210927822109267
:1021000075221092762282E08093792200DF1DC032
:102110008091372490913824892B11F4E2DE15C088
:1021200010927722109278221092752210927622C5
:1021300081E080937922E8E8F2E202E0069300E28F
:10214000069303C0C0E001C0C1E08C2FCF910F9176
:1021500008958F929F92AF92BF92DF92EF92FF927B
:102160000F931F93CF93DF93D82E66DF8C01CD2D75
:10217000CF70D0E0CE01880F991FCD2D0D2C000C13
:10218000DD0BCC27DD0FCC1FDD27C80FD91FCE01FB
:10219000880F991F880F991F880F991F9C01285736
:1021A0003D4D7901C9011FDF4C01DD200CF07BC0E2
:1021B000FE01EE0FFF1FEE0FFF1FEE0FFF1FE45893
:1021C000FD4D22893389D80115968D919C911697E2
:1021D000820F931F15968D939C93169713962D91AE
:1021E0003C9114978217930709F447C0281B390BB9
:1021F0002115B4E03B0740F02FEF33E0C901B401F3
:102200000E948723281B390BF801808181FF0AC0B7
:10221000C901B4010E94872341E0892B09F040E005
:10222000842F01C080E0D8019C9180FB91F99C93A0
:10223000FE01EE0FFF1FEE0FFF1FEE0FFF1FE45812
:10224000FD4D128A138A2687378711962D913C916E
:10225000129715968D919C911697820F931FCC0F14
:10226000DD1FCC0FDD1FCC0FDD1FC457DD4D888374
:102270009983F70102E00693E4C0D8018C9181FFB5
:10228000CDC08D7F8C93CC0FDD1FCC0FDD1FCC0F0D
:10229000DD1FC458DD4D1A8A1B8A1E861F86F70172
:1022A00002E00693CEC0FE01EE0FFF1FEE0FFF1FF0
:1022B000EE0FFF1FE458FD4DA684B784D8018C9122
:1022C00082FF1BC01196ED91FC91129715962D91EE
:1022D0003C91169713968D919C911497B4010E948E
:1022E0008723B0E4DB9EB00111246F5A7E4DAC0110
:1022F000CF01820F931F0E94BE25F80125813681F0
:102300002A0D3B1D25833683838194818217930791
:1023100068F485839683CC0FDD1FCC0FDD1FCC0FB7
:10232000DD1FC458DD4D8A899B8978C0FE01EE0F00
:10233000FF1FEE0FFF1FEE0FFF1FE458FD4D4289F8
:102340005389A416B50609F069C02817390709F49E
:1023500065C0AC01421B530B9A01211554E03507AF
:1023600048F02FEF33E0C901B4010E948723281BF6
:10237000390B06C0C901B4010E948723281B390B01
:10238000FE01EE0FFF1FEE0FFF1FEE0FFF1FE458C1
:10239000FD4D168617862815390500F5D8018C9154
:1023A00084608C93B0E4DB9EC00111248F5A9E4D53
:1023B000FE01EE0FFF1FEE0FFF1FEE0FFF1FE45792
:1023C000FD4D80839183CC0FDD1FCC0FDD1FCC0F23
:1023D000DD1FC458DD4D8A8A9B8A1CC0F8014181EB
:1023E000528185819681840F951FFE01EE0FFF1F9C
:1023F000EE0FFF1FEE0FFF1FE457FD4D808391830B
:10240000CC0FDD1FCC0FDD1FCC0FDD1FC458DD4D01
:102410002A8B3B8BF70102E0069313C0D8018C9105
:1024200080FF0FC08E7F8C931796ED91FC911897CB
:10243000309739F015966D917C9116974D2D80E06F
:102440001995DF91CF911F910F91FF90EF90DF9041
:10245000BF90AF909F908F9008951F93CF93DF937D
:102460001F92CDB7DEB78FB78983F894198181E0C9
:10247000CDDCEAECF4E080E4808380E28083E1EC70
:10248000F4E0808181608083A9ECB4E08C9182606B
:102490008C93E8ECF4E08081806480838C9181608F
:1024A0008C938081806880831FBF0F90DF91CF91D4
:1024B0001F9108950F931F93CF93DF931F921F9245
:1024C000CDB7DEB700E610E0F801108280E30E948D
:1024D0009B1BE0ECF4E080818064808381E0F80164
:1024E00080838FB78A83F8941A81ECE7F2E215862D
:1024F000158A158E15A215A615AAE1E1F2E28081D2
:102500008E7F8083EAE1F2E280818E7F8083E3E246
:10251000F2E280818E7F8083ECE2F2E280818E7F26
:1025200080836AE170E082E00E9477238F3F19F098
:102530008093FA0403C08FE18093FA046BE170E0AA
:1025400082E00E9477238F3F19F08093FB0403C041
:102550008FE18093FB04E0ECF4E080818260808373
:1025600080818068808380818061808388E892E2B6
:10257000868397838081806280838FEF8093C504F8
:10258000E8ECF4E08081816080831092BC2280912D
:1025900046248F3F09F4FFCF8FB78983F894998140
:1025A000E1E4F4E285818F5F85839FBF56DF1FBF23
:1025B0000F900F90DF91CF911F910F91089580E0C0
:1025C00008958093C30408958091C3040895809171
:1025D000B8229091B922089580E090E00895E1E357
:1025E000F4E280879187628773870895282F2F7080
:1025F00030E0220F331F082E000C990B8827990F0B
:10260000881F9927820F931FFC01EE0FFF1FEE0F0B
:10261000FF1FEE0FFF1FE458FD4D2585207C09F0BC
:1026200069C06370613011F018F404C060EC03C03D
:1026300060E801C060E440385105E9F050F44032F0
:102640005105A9F040345105A1F040315105D9F4AC
:102650000CC0411522E0520791F04F3F23E0520792
:1026600081F04115514079F408C021E00DC022E00D
:102670000BC023E009C024E007C025E005C026E028
:1026800003C027E001C020E0FC01EE0FFF1FEE0FAA
:10269000FF1FEE0FFF1FE458FD4D158636E034870F
:1026A000262B2587FC01EE0FFF1FEE0FFF1FEE0FFD
:1026B000FF1FE458FD4D2585207C203C69F4FC017A
:1026C000EE0FFF1FEE0FFF1FEE0FFF1FE458FD4D33
:1026D00025852770273081F0880F991F880F991F53
:1026E000880F991FFC01E458FD4D85858062858720
:1026F00081E0089580E0089581E00895E82FEF706B
:10270000F0E0EE0FFF1F082E000C990B8827990FA1
:10271000881F9927E80FF91FEE0FFF1FEE0FFF1F0D
:10272000EE0FFF1FE458FD4D858582FB882780F959
:1027300008950F93282F2F7030E0A901440F551FE3
:10274000282F082E000C330B2227330F221F33278C
:10275000240F351FA901440F551F440F551F440F67
:10276000551FFA01E857FD4D01E00693FA01E458C0
:10277000FD4D958592FF11C0FA01E458FD4D9585F8
:102780009B7F958759DCFC01808180FF06C08E7F8E
:1027900080830780F085E02D199581E00F910895E1
:1027A0006F927F928F929F92AF92BF92CF92DF9261
:1027B000EF92FF920F931F93CF93DF931F92CDB7AA
:1027C000DEB7782E662E4A01590136DC6C01272DC2
:1027D000872D8F70E82EF12CC701880F991FE72CE9
:1027E000072C000CFF08EE24FF0CEE1CFF24E80E63
:1027F000F91EF701EE0FFF1FEE0FFF1FEE0FFF1F79
:10280000E458FD4D8585807C09F482C0F701EE0F08
:10281000FF1FEE0FFF1FEE0FFF1FE458FD4D8585D4
:10282000807C803C61F0F701EE0FFF1FEE0FFF1F71
:10283000EE0FFF1FE458FD4D858582FD6BC08FB7FD
:102840008983F8948981F601908190FF03C08FBF3E
:1028500080E061C0F6019081916090838FBF81829A
:102860009282A382B4821582168207831087611038
:1028700006C091E0A114B10419F090E001C091E00C
:10288000F601808190FB81F98B7F8083222364F4A1
:10289000F701EE0FFF1FEE0FFF1FEE0FFF1FE458B3
:1028A000FD4D128A138A30C0F701EE0FFF1FEE0FA5
:1028B000FF1FEE0FFF1FE458FD4D8585807C803C97
:1028C000B1F4C701880F991F880F991F880F991FAE
:1028D00088579D4D88DBBC01C5010E948723892B49
:1028E00031F0F60180818E7F808380E014C0F70193
:1028F000EE0FFF1FEE0FFF1FEE0FFF1FE458FD4D01
:1029000016861786128A138A872D23DC81E003C07E
:1029100080E001C080E00F90DF91CF911F910F9177
:10292000FF90EF90DF90CF90BF90AF909F908F90EF
:102930007F906F900895FF920F931F93CF93DF9333
:10294000182FC82FCF70D0E0CE01880F991FC12F4C
:10295000012E000CDD0BCC27DD0FCC1FDD27C80FAF
:10296000D91F812F69DBDC01FE01EE0FFF1FEE0F87
:10297000FF1FEE0FFF1FE857FD4D02E005938C91FE
:1029800080FF22C08E7F8C931796ED91FC91189753
:102990003097D1F011235CF4CC0FDD1FCC0FDD1F7D
:1029A000CC0FDD1FC458DD4D6A897B890AC0CC0F6E
:1029B000DD1FCC0FDD1FCC0FDD1FC458DD4D6E8534
:1029C0007F85412F81E01995DF91CF911F910F9164
:1029D000FF900895CF93C82FAEDFEC2FEF70F0E09B
:1029E000EE0FFF1F8C2FCC0F990B8827990F881F94
:1029F0009927E80FF91FEE0FFF1FEE0FFF1FEE0FD5
:102A0000FF1FE458FD4D1586CF910895E82FEF7014
:102A1000F0E0EE0FFF1F282F082E000C330B2227AB
:102A2000330F221F3327E20FF31FEE0FFF1FEE0FAE
:102A3000FF1FEE0FFF1FE458FD4D958594609587AD
:102A40007ADF81E008951F920F920FB60F92112442
:102A50000BB60F920F932F933F934F935F936F9308
:102A60007F938F939F93AF93BF93EF93FF93809147
:102A7000CB04882334F480E88093CA040E94272082
:102A800088C08091CB0482FF20C084E08093CA0478
:102A90008091902286FF7DC08091CC0481FD79C019
:102AA000E6DA811176C080917922813011F419DA49
:102AB00070C0843009F06DC0E1E9F2E204E00593F2
:102AC000E9E8F2E204E0059364C08091CB0481FF61
:102AD0005BC082E08093CA048091882286FF59C03F
:102AE0008091CC0481FD55C0C2DA811152C0809121
:102AF0007922823041F484E080937922E8E8F2E29E
:102B000002E0069346C0833009F043C0E1E9F2E2F7
:102B100004E00593E9E8F2E204E005933AC080E1BD
:102B20008093CA0481E007DF81E805DF82E003DFEC
:102B300082E801DF0E94FE1F1092C304ECE7F2E27C
:102B4000158696E0948783E48587158A948B858B18
:102B500085E392E2808B918B91D91BC08091CB044D
:102B600086FF07C080E48093CA0480E04FD9DFD29B
:102B700010C08091CB0485FF0CC080E28093CA0412
:102B800081E044D9D5D205C08091CB0484FDC7CF64
:102B9000E5CFFF91EF91BF91AF919F918F917F9181
:102BA0006F915F914F913F912F910F910F900BBEBD
:102BB0000F900FBE0F901F9018951F920F920FB697
:102BC0000F9211240BB60F920F931F932F933F93E5
:102BD0004F935F936F937F938F939F93AF93BF9325
:102BE000CF93DF93EF93FF938091CC0481FD03C0DB
:102BF0003EDA8111C4C082E08093CC048091C50488
:102C00008195880FE8E8F2E2E81BF1092081318123
:102C1000285832423695279536952795369527952B
:102C2000822F869520FD02C090E001C090E8890FB8
:102C3000E82FEF70F0E0EE0FFF1F282F082E000C9A
:102C4000330B2227330F221F3327E20FF31FDF013D
:102C5000AA0FBB1FAA0FBB1FAA0FBB1FA458BD4DB5
:102C60001C969C9195FF8BC0EE0FFF1FEE0FFF1F70
:102C7000EE0FFF1FE857FD4D00E2069381117AC069
:102C800080917922843019F43AD9F8D878C000912B
:102C90008A2210918B2280913B2490913C24C091F8
:102CA0007522D091762298012C0F3D1F8217930731
:102CB00018F48C010C1B1D0B8091392490913A243F
:102CC000A80165E372E28C0F9D1F0E94BE25C00F14
:102CD000D11FC0937522D09376220034110569F478
:102CE00080917722909178228C0F9D1F209137241C
:102CF000309138248217930780F0E1E3F4E2C28731
:102D0000D3870684F785E02D309729F01995811136
:102D100002C0D9D834C0E5D832C080913B2490910C
:102D20003C24C817D907F9F4E0913F24F0914024DE
:102D3000309711F4C8D823C01995811102C0C3D8A7
:102D40001EC0209177223091782280917522909137
:102D50007622820F931F809377229093782210928D
:102D6000752210927622E8E8F2E202E0069300E291
:102D7000069305C0803811F4CAD801C0EAD9FF9182
:102D8000EF91DF91CF91BF91AF919F918F917F9103
:102D90006F915F914F913F912F911F910F910F90E4
:102DA0000BBE0F900FBE0F901F901895CF92DF9221
:102DB000EF92FF92CF93DF93EC016B01E12CF12CAA
:102DC00060E873EC89EC91E0A70196010E949B23D7
:102DD000CA01B9012FEF3FEF40E050E00E949B2372
:102DE0002115310529F481E08C8321E030E02DC0EC
:102DF0002230310528F482E08C8322E030E025C0C7
:102E00002430310528F483E08C8324E030E01DC0B9
:102E10002830310528F484E08C8328E030E015C0A8
:102E20002034310528F485E08C8320E430E00DC0A7
:102E30002F3F310509F028F486E08C8320E031E053
:102E400004C087E08C8320E034E040E050E060E89C
:102E500073EC89EC91E00E949B23CA01B901A701A0
:102E600096010E949B232D833E832436310518F45E
:102E70001C821D821E82DF91CF91FF90EF90DF9028
:102E8000CF9008950F931F93CF93DF93EC018901A7
:102E9000862F90E08730910508F08BC0FC018827D1
:102EA000EB5FFE4F8F4F0C94BD2380E098E088834A
:102EB0009983E0E4F6E0308181E090E02FEF240F89
:102EC00002C0880F991F2A95E2F7832B808371C077
:102ED00080E498E088839983E0E4F6E0308181E043
:102EE00090E023E0240F02C0880F991F2A95E2F793
:102EF000832B80835EC080E099E088839983E0E63D
:102F0000F6E0308181E090E02FEF240F02C0880FBF
:102F1000991F2A95E2F7832B80834BC080E499E0C8
:102F200088839983E0E6F6E0308181E090E023E059
:102F3000240F02C0880F991F2A95E2F7832B808304
:102F400038C080E09AE088839983E0E8F6E0308139
:102F500081E090E02FEF240F02C0880F991F2A957F
:102F6000E2F7832B808325C080E49AE088839983ED
:102F7000E0E8F6E0308181E090E023E0240F02C039
:102F8000880F991F2A95E2F7832B808312C080E077
:102F90009BE088839983E0EAF6E0308181E090E06D
:102FA0002FEF240F02C0880F991F2A95E2F7832B79
:102FB00080834A83423061F018F4413031F010C010
:102FC000433049F0443051F00BC080E18B8308C09E
:102FD00080E28B8305C080E48B8302C080E88B8312
:102FE000888199810E94290DE881F9818181887FFA
:102FF000836081831D821E821C82E881F981808129
:10300000807F8083B801CE01D1DEDF91CF911F9107
:103010000F910895CF93DF93EC012D813E81A62F70
:10302000B0E00E94C52324E630E040E050E00E947A
:103030009B238A81E881F981E6FD17C0823061F027
:1030400018F4813031F01BC0833049F0843051F0E6
:1030500016C020AF31AF13C022AF33AF10C024AFC2
:1030600035AF0DC026AF37AF0AC0813019F08230BE
:1030700021F005C020AF31AF02C022AF33AF8D8148
:103080009E81E881F98186A397A38B81E881F981EC
:10309000E6FD04C09181892B818304C091818073F6
:1030A000892B8183E881F9818081807F9C81892BB4
:1030B0008083DF91CF9108950895CF93DF931F927E
:1030C000CDB7DEB78091260282958F70898360FF2D
:1030D00016C08981813021F068F0823031F023C040
:1030E0004093D7225093D8221EC04093D5225093AC
:1030F000D62219C04093D3225093D42214C061FF2A
:1031000005C04093D1225093D2220DC062FF05C06A
:103110004093CF225093D02206C063FF04C0409357
:10312000CD225093CE220F90DF91CF910895089534
:1031300008950895089581E08093F12208951092F2
:10314000F1220895089508950895089508954F92DD
:103150005F926F927F928F929F92AF92BF92CF9227
:10316000DF92EF92FF920F931F93CF93DF93CDB730
:10317000DEB72797CDBFDEBFE0EAF0E087E08283CD
:10318000828382818F778283118229D2E1E4F4E203
:103190001082118212821382148255245394558214
:1031A0000E944F018CE598E10E944A0162E080E0B4
:1031B00097D2E0E8F1E086EC808310868183118667
:1031C000828312868383138688EE8783178624EF93
:1031D00031E043E060E0CE01019654DE6DE2CE01C5
:1031E000019618DF6E817F8180E090E00E94CD24FF
:1031F00020E030E040EC5FE30E945B252BED39EFEF
:103200004EE450E40E94392420E030E040E05FE3E7
:103210000E94D5230E94A124612C6894772473F81E
:10322000D301DC966D937C93DD9780E49AE00E9455
:10323000290D00E41AE0F8018181887F818380E70D
:1032400092E086A397A3E0E1F6E080818760808327
:10325000E1E1F6E0808187608083E2E1F6E0808151
:1032600087608083E3E1F6E0808187608083E4E12A
:10327000F6E0808187608083E5E1F6E08081876009
:103280008083E2E3F6E0808187608083E3E3F6E019
:1032900080818760808369EE72E280E092E00E9424
:1032A000060645EE52E261E080E092E00E948A0666
:1032B00041EE52E262E080E092E00E948A064DED2B
:1032C00052E264E080E092E00E948A0649ED52E218
:1032D00068E080E092E00E948A06E9EEF2E224E0F3
:1032E0002483928181810F2EF5EEEF2EF2E2FF2EE4
:1032F000F02DD7015C9238E011963C930F2EF1EE41
:103300008F2EF2E29F2EF02DD4015C9230E21196C6
:103310003C930F2EFDEDAF2EF2E2BF2EF02DD50126
:103320005C9238E211963C930F2EF9EDCF2EF2E22B
:10333000DF2EF02DD6011C9211961C929F7893627D
:10334000928392E0D70113969C938170806481836D
:1033500023836DE578E180E092E00E948003F40130
:103360002281D50112969C91F6018281D701129695
:103370003C911297307F316012963C93207F216000
:10338000F4012283907F9160D50112969C93807FF7
:103390008160F601828369EE72E280E092E00E9431
:1033A0009C05A70161E080E092E00E943F06A40135
:1033B00062E080E092E00E943F06A50164E080E0C8
:1033C00092E00E943F06A60168E080E092E00E9441
:1033D0003F060E941A020E947F037894D3018C91C9
:1033E000807F81608C93F8018081807F8160808301
:1033F00002D60E944E230E944A230E94760280E059
:1034000092E00E94E0035092F2220F2EF6EECF2EB1
:10341000F0E2DF2EF02D0F2EF1E4EF2EF4E2FF2E7E
:10342000F02D08E410E00E9439014B015C0180910D
:10343000BD229091BE22A091BF22B091C022A501D1
:103440009401281B390B4A0B5B0BDA01C90181156A
:103450009240A105B10508F446C08092BD22909229
:10346000BE22A092BF22B092C0228FB78983F89467
:1034700079808091D7229091D8222091D5223091C5
:10348000D6224091D3225091D4226091D1227091C2
:10349000D222E091CF22F091D022A091CD22B09102
:1034A000CE227FBEBF93AF93FF93EF937F936F9333
:1034B0005F934F933F932F939F938F93D501C401B5
:1034C000072E7AE0B695A795979587957A95D1F7C7
:1034D000702DBF93AF939F938F93DF92CF920E94F3
:1034E0001126CDBFDEBF4090C1225090C222609015
:1034F000C3227090C422A3019201C501B4010E94AD
:103500009B02A3019201C501B4010E949C0280921A
:10351000C1229092C222A092C322B092C422F894F7
:10352000D7018C91811109C0A2E4B4E2E0E0EF5F21
:103530008D918823E1F3E11102C0789412C0D80183
:103540008C91F0E0EE5DFF4D817F9081892B8C9313
:103550008C9181608C9378948895F80180818E7F1E
:1035600080838091F22281115ECFF894F89480914B
:103570004124811109C0A2E4B4E2E0E0EF5F8D9143
:103580008823E1F3E11102C0789413C0A8E4B0E00D
:103590008C91F0E0EE5DFF4D982F917F8081892B1B
:1035A0008C938C9181608C93789488958C918E7F8C
:1035B0008C9380E090E02796CDBFDEBFDF91CF9166
:1035C0001F910F91FF90EF90DF90CF90BF90AF9041
:1035D0009F908F907F906F905F904F900895CF93C2
:1035E000DF93CDB7DEB72897CDBFDEBF8FEF8093D7
:1035F00070008093710080937200809373008093B9
:103600007400809375008093760061E081E490E01F
:103610000E9481236CE170E082E00E9477238A831C
:103620006DE170E082E00E947723898389819A812D
:10363000019621F480E493E289839A8389819A81B7
:103640008B839C83E0E6F0E082838C81838380918E
:10365000510084FD21C08091510083FD0EC0E0E542
:10366000F0E012828FB78D83F8949D81808188600D
:1036700080839FBF818183FFFDCF8FB78E83F894B6
:103680009E81E0E5F0E083EC85838081806180832A
:103690009FBF818184FFFDCF64E080E490E00E94C1
:1036A00081238FB78887F8949885E0E5F0E08081E2
:1036B0008E7F80839FBF12828FB78F83F8949F8104
:1036C0008081886080839FBF818183FFFDCF8BE0F5
:1036D000809343002896CDBFDEBFDF91CF91089540
:1036E000CF93DF931F92CDB7DEB79FB79983F8943E
:1036F0009981E82FF0E0E059FF4F609580816823C1
:1037000060839FBF0F90DF91CF910895CF93DF9398
:103710001F92CDB7DEB79FB79983F8949981E82FB0
:10372000F0E0E059FF4F8081682B60839FBF0F90CE
:10373000DF91CF910895CF93DF931F921F92CDB762
:10374000DEB7863011F060E001C068E18091510081
:1037500081FD2AC08FB78983F8949981E0E5F0E074
:103760008081826080839FBF818181FFFDCF8FB781
:103770008A83F8949A81A0E5B0E016968C9116970A
:10378000897F16968C931697E0E6F0E080E88583B3
:103790008BEB868316968C911697846016968C9385
:1037A0008081816080839FBF636084E490E0A9D7BB
:1037B00060E480E095DF0F900F90DF91CF91089546
:1037C00080910824815080930824089580E0089512
:1037D00080E0089566E174E280E0B4CC0895109230
:1037E00008241092142410921524EAE0F4E281EAED
:1037F000808380E28183128213821482158282E0A8
:1038000090E08683978310861186E6E1F4E280E0FB
:1038100092ECA1E0B0E080839183A283B383148211
:10382000158288E08683BF0180E08CDC84DC8823FD
:1038300029F0909108249F5F909308240895FF92A7
:103840000F931F93CF93DF931F92CDB7DEB7809175
:10385000F62281119FC00E94DF12882351F000914F
:10386000F7221091F8220E94EC120817190759F458
:1038700091C00091F7221091F8220E94E7120817D8
:10388000190709F487C08FB78983F89419810091CB
:10389000F922E02FF0E0EE0FFF1FE650FD4D808192
:1038A0009181892B09F58091F3229091F422019660
:1038B0008093F3229093F4220E94DF12811107C0BB
:1038C0008091F3229091F4228436910558F00E9461
:1038D000DF12882349F08091F3229091F422803204
:1038E000934010F41FBF56C01092F3221092F4229E
:1038F0008091F522811106C081E0011180E0809362
:10390000F92204C081E0011180E0082F81E080935A
:10391000F6221FBF10E0F801EE0FFF1FE650FD4D2D
:1039200080819181FF24F3948034910509F4F12C76
:103930008034910591F00E94DF12882339F00E94B3
:10394000EC128093F7229093F8220BC00E94E712AA
:103950008093F7229093F82204C01092F7221092DD
:10396000F822F801EE0FFF1FE650FD4D2081318156
:10397000A8010024569547950794569547950794B6
:10398000542F402D42505D4D04ED1CE16F2D81E818
:103990000E94D0130F90DF91CF911F910F91FF9054
:1039A000089580E04CCF0895811119C02091F9222B
:1039B00081E090E0222311F080E090E0880F991FD1
:1039C000FC01E650FD4D108211821092F5221092FA
:1039D000F622672B11F080E0B9DB80E030CF08954C
:1039E0008091072481508093072480910724A7DBCE
:1039F000109206240895CF93DF9380913124882379
:103A0000E4F48076803209F047C08091322481321C
:103A100009F044C08091372490913824079709F029
:103A20003FC0E1E3F4E286E194E28087918787E09A
:103A300090E08287938781E03AC08076803291F56A
:103A400080913224803219F08232B9F02DC08091F9
:103A5000372490913824079749F5E1E3F4E28AEEA0
:103A60009BE18487958786E194E28087918787E050
:103A700090E08287938781E01AC0C1E3D4E26A8133
:103A8000617080E060DB6A817B817695679561700B
:103A900080E05ADB81E00BC080E009C080E007C015
:103AA00080E005C080E003C080E001C080E0DF91DD
:103AB000CF910895CF93DF931F92CDB7DEB78FB725
:103AC0008983F894498120917F2330918023E0916C
:103AD0008123F0E0EE0FFF1FEE57FC4D80819181B6
:103AE0004FBF821B930B0F90DF91CF910895E2DFC0
:103AF00021E0892B09F420E0822F08950F931F9372
:103B0000CF93DF931F92CDB7DEB78FB78983F89439
:103B100099812091812380917E23811110C0609131
:103B20007F2370918023022F10E0F801EE0FFF1F1A
:103B3000EE57FC4D408151816417750718F49FBF03
:103B400080E027C010927F231092802381E0211112
:103B500080E08093812381E080937E239FBF80E07B
:103B6000C6DF882311F080E0F0DAA8010024569522
:103B700047950794569547950794542F402D4A57DB
:103B80005C4D01E01EE120E430E061E082E00E9453
:103B9000D0130F90DF91CF911F910F910895109244
:103BA00007241092F6221092F5221092F922EAEFE1
:103BB000F2E210821182128213821092F722109286
:103BC000F82280E03CDE10927E2310928123E2E80E
:103BD000F3E2108211821282138210927F231092DC
:103BE000802380E08BDF882359F0909107249F5F2A
:103BF0009093072490910724913011F49093062418
:103C000008950F931F93811129C080918123E1E0D2
:103C10008111E0E0842F61157105A9F44E2F50E069
:103C20000024569547950794569547950794542F29
:103C3000402D4A575C4D01E01EE120E430E061E098
:103C40000E94D0130BC0F0E0EE0FFF1FEE57FC4DAB
:103C50006083718310927E2380E050DF1F910F916B
:103C60000895EF92FF921F93CF93DF931F92CDB7EA
:103C7000DEB711E080911C24893009F010E040E0AB
:103C800050E08FB78983F894A98120917F233091E8
:103C900080238091812390E0FC01EE0FFF1FEE57FF
:103CA000FC4D60817181AFBF2617370730F08091DE
:103CB00006248111E6CF90E021C0FC010024F69596
:103CC000E7950794F695E7950794FE2FE02DEA57C0
:103CD000FC4DE20FF31F80817A01E82A2F5F3F4FEE
:103CE00020937F233093802380E008DF112321F08D
:103CF0005E2D442710E0C5CF8E2D9F2D0F90DF91B4
:103D0000CF911F91FF90EF90089580E0AACF089582
:103D1000CF93DF931F92CDB7DEB78FB78983F89427
:103D200099818091F922E82FF0E0EE0FFF1FE65015
:103D3000FD4D208131812034310589F44091F622F6
:103D400041110DC04091F522411109C021E020939D
:103D5000F522811120E02093F92220E030E09FBF7E
:103D600080E490E0821B930B0F90DF91CF91089538
:103D7000CFDF21E0892B09F420E0822F0895FF9204
:103D80000F931F93CF93DF931F92CDB7DEB7F62E1D
:103D9000172F01E080911C24893009F000E080E0B9
:103DA000E7DF811107C0809106248111F8CF80E000
:103DB00090E02CC08FB78983F89449818091F922D3
:103DC00090E0FC01EE0FFF1FE650FD4D2081318198
:103DD000B9016F5F7F4F608371830024969587954B
:103DE0000794969587950794982F802D82509D4D26
:103DF000FC01E20FF31FF0824FBF002329F0F12EE8
:103E0000110F110B00E0CBCF81E090E00F90DF911C
:103E1000CF911F910F91FF900895BC0180E0AFCF2B
:103E20000895E0912224F09123240190F081E02D67
:103E3000228133812E0F3F1FFC014081E40FF11DD1
:103E4000E217F307A0F481818430A1F0861306C045
:103E500014C081818430A1F08617A9F08081E80F19
:103E6000F11DE217F307A8F380E090E0089580E0E9
:103E700090E0089580E090E008958E2F9F2F0895A0
:103E800080E090E008958E2F9F2F08958091332435
:103E90008F770C94E112089590912424992381F155
:103EA000E0912224F09123240190F081E02D94816F
:103EB000891740F5E0932024F09321242281338157
:103EC0002E0F3F1FE217F307F8F49181943061F44D
:103ED0009281891309C09381961306C0E093202430
:103EE000F093212481E008959081E90FF11DE217FC
:103EF000F30758F3E0932024F093212480E0089501
:103F000080E0089580E0089580E00895EF92FF92A8
:103F10001F93CF93DF93C82F60E0BEDF182F882355
:103F200081F1A0912224B0912324EC2FF0E0EE0F38
:103F3000FF1F12968D919C911397E80FF91FE08057
:103F4000F180D7011696ED91FC9117971995682F7E
:103F50008C2FA2DF182F8823A1F0C0912024D091AC
:103F6000212465E0CE015DDFEC01892B21F08A81FF
:103F70000E94EA14F6CFD7011296ED91FC911397A7
:103F80001995812FDF91CF911F91FF90EF900895A8
:103F90001F93CF93DF93182F7FDF882341F1C091C8
:103FA0002024D091212465E0CE013BDFEC01892B58
:103FB00049F04C815D816B818A810E94F6128111EA
:103FC000F2CF15C0A0912224B0912324E12FF0E07C
:103FD000EE0FFF1F12968D919C911397E80FF91F1A
:103FE0000190F081E02D0190F081E02D1995DF9195
:103FF000CF911F9108950C945A120895CF938091F8
:1040000024248823C1F0E0912224F09123240190FC
:10401000F081E02D8481882371F0C0E08C2F76DF61
:10402000CF5FE0912224F09123240190F081E02DD4
:104030008481C81798F3109224248091282481FD4C
:1040400079D81092282410922924CF910895CF93E3
:1040500080912424882349F1A0912224B091232423
:10406000ED91FC91119784818823F9F0C0E0EC2F49
:10407000F0E0EE0FFF1F12968D919C911397E80FC1
:10408000F91F0190F081E02D0084F185E02D30973B
:1040900009F01995CF5FA0912224B0912324ED91CE
:1040A000FC9111978481C81710F3CF9108950F9355
:1040B0001F93CF93DF93E1E3F4E212861386148615
:1040C000158616861786808188230CF095C220916C
:1040D0003724309138242115310509F088C27FC278
:1040E0008F7109F0ABC090913224963081F09830F6
:1040F00009F499C09111A2C02230310509F02BC2F8
:1041000062E070E088E294E20E94EF127EC2809149
:10411000332490913424292F332722303105B1F0F4
:1041200020F42130310541F0D8C123303105F1F1BF
:104130002F30310561F1D1C180913D2090913E2019
:10414000DC016C9170E00E94EF125EC0E0913D20B6
:10415000F0913E202189821708F0FDC19927880F30
:10416000991F880F991FE0913F20F0914020E80FA0
:10417000F91F80819181FC01628173810E94EF129D
:10418000E0913924F0913A2482E081833DC080910E
:10419000412090914220009709F4DDC1DC01129684
:1041A0006D917C9113970E94EF122EC09927813058
:1041B000910599F058F08230910509F422C20397D5
:1041C00009F094C131E0E7E3F1E20AC064E070E095
:1041D00082EE90E20E94EF1217C0E1EDF0E230E1D2
:1041E000A4EAB0E220E0819190E08D939D932F5F4F
:1041F0002317C8F3632F660F6E5F6093A22070E0F1
:1042000082EA90E20E94EF12E1E3F4E28681978174
:10421000228533858217930708F0F7C180933B24EA
:1042200090933C24F2C12130310509F094C161E042
:1042300070E084E294E20E94EF12E7C18130E9F578
:10424000909132249A30C9F52130310509F053C1DB
:1042500080912424882309F44EC1C0913524D09143
:1042600036240091222410912324D801ED91FC9151
:104270008481C81708F03FC160E08C2F0DDE8823D1
:1042800009F434C1CE019927880F991FD8011296DD
:10429000ED91FC911397E80FF91F0190F081E02D4B
:1042A00086819781FC0119958093262461E070E056
:1042B00086E294E20E94EF12A8C1823009F016C192
:1042C0008091322481110BC12230310509F043C1A4
:1042D000809135240E947E1390E080931E24909359
:1042E0001F2462E070E08EE194E20E94EF128DC123
:1042F0008F7109F0A0C090913224933091F118F49D
:104300009130A9F098C0953021F0993009F443C05C
:1043100092C08091372490913824892B09F01BC1D9
:1043200086E49FE180933D2490933E246EC180916A
:10433000372490913824892B09F00DC180913324C2
:1043400090913424019709F006C18091282490911E
:1043500029248D7F80932824909329240E949A18E1
:1043600054C18091372490913824892B09F0F3C0EF
:104370008091332490913424019709F0B2C0809148
:1043800028249091292482608093282490932924C2
:104390000E9499183AC18091372490913824892B32
:1043A00009F0D9C00E94E412882309F49FC020912B
:1043B0003324309134243327E0913D20F0913E2086
:1043C000818990E08217930708F490C017DE8091EE
:1043D00033249091342480932424882309F415C134
:1043E00099278150904C880F991F880F991FE09151
:1043F0003F20F0914020E80FF91FE0932224F09332
:1044000023240190F081E02D8481882309F4FDC0EC
:10441000C0E060E08C2FBCDD882309F467C0CF5F6B
:10442000E0912224F09123240190F081E02D8481F9
:10443000C81778F3EAC08130E9F4909132249B30B8
:10444000C9F48091372490913824892B09F053C006
:1044500080912424882309F44EC0E1E3F4E2C4816E
:10446000D2818C2F53DD882309F440C06D2F8C2F0F
:104470008FDD3AC08230D1F580913224813019F03D
:104480008330A1F030C08091372490913824892B5B
:1044900009F061C08091332490913424892B09F074
:1044A0005AC0809135240E9499131EC080913724F0
:1044B00090913824892B09F04EC08091332490913B
:1044C0003424892B09F047C0C1E3D4E28C810E94D7
:1044D0009B148C810E94061507C080E005C080E017
:1044E00003C080E001C080E0811190C08091312440
:1044F0008F71813081F580912424882309F471C063
:104500000091352410913624C0912224D091232487
:10451000E881F9818481081708F065C060E0802F88
:10452000BBDC8823C1F0F801FF27CF01880F991F5A
:10453000EA81FB81E80FF91FC081D181EE81FF8103
:104540001995682F802FA8DC882329F0EC81FD8144
:10455000199581115BC0809131248F71823009F0EF
:1045600044C0809124248823B1F1A0912224B091E9
:104570002324ED91FC9111978481882371F1C0E08F
:10458000EC2FF0E0EE0FFF1F12968D919C91139788
:10459000E80FF91F00811181D8011696ED91FC9169
:1045A00017971995682F8C2F77DC882379F1D8011C
:1045B0001496ED91FC9115971995811127C0CF5F45
:1045C000A0912224B0912324ED91FC911197948124
:1045D000C917B0F21BC080E019C080E017C080E0AE
:1045E00015C080E013C080E011C080E00FC0982F9C
:1045F000907609F07BCF74CD982F907609F076CF26
:1046000077CE3CE0E4ECF0E2EBCD81E0DF91CF91BE
:104610001F910F910895CF93DF931F92CDB7DEB70F
:1046200080914B2490914C24E0914724F0914824B0
:10463000BE016F5F7F4F19958981082E000C990B81
:104640000F90DF91CF91089580912A24882381F0E3
:10465000862F082E000C990BE0DB21E030E0892B3F
:1046600011F020E030E088279927821B930B0895F2
:1046700080E090E00895CF93DF9380912A24811108
:1046800003C0FB01108203C0EB013FDB8883DF9195
:10469000CF91089581E080932A24089510924B24AD
:1046A00010924C2484E293E28093492490934A240C
:1046B0008BE393E280934724909348249CDC6BE047
:1046C00073E285E693E263C20895682F80914B24DC
:1046D00090914C24E0914924F0914A241995992312
:1046E0001CF081E090E008958FEF9FEF08954091D6
:1046F000CA01E62FF72F8093CA0184914093CA0123
:1047000008951BBEFC0128ED24BF60830895AA1BF9
:10471000BB1B51E107C0AA1FBB1FA617B70710F0AC
:10472000A61BB70B881F991F5A95A9F780959095DE
:10473000BC01CD010895A1E21A2EAA1BBB1BFD01ED
:104740000DC0AA1FBB1FEE1FFF1FA217B307E40770
:10475000F50720F0A21BB30BE40BF50B661F771FC8
:10476000881F991F1A9469F76095709580959095A8
:104770009B01AC01BD01CF010895EE0FFF1F881F03
:104780008BBF0790F691E02D1994A29FB001B39FC3
:10479000C001A39F700D811D1124911DB29F700D4A
:1047A000811D1124911D08955058BB27AA270ED0B2
:1047B00048C139D130F03ED120F031F49F3F11F49F
:1047C0001EF42EC10EF4E095E7FB24C1E92F4AD177
:1047D00080F3BA17620773078407950718F071F41E
:1047E0009EF562C10EF4E0950B2EBA2FA02D0B01A1
:1047F000B90190010C01CA01A0011124FF27591B26
:1048000099F0593F50F4503E68F11A16F040A22F2B
:10481000232F342F4427585FF3CF4695379527959C
:10482000A795F0405395C9F77EF41F16BA0B620B9B
:10483000730B840BBAF09150A1F0FF0FBB1F661FE2
:10484000771F881FC2F70EC0BA0F621F731F841F25
:1048500048F4879577956795B795F7959E3F08F04B
:10486000B3CF9395880F08F09927EE0F979587950A
:1048700008950CD0E6C0DED040F0D5D030F021F461
:104880005F3F19F0C7C0511110C1CAC0EBD098F3F7
:104890009923C9F35523B1F3951B550BBB27AA27C1
:1048A00062177307840738F09F5F5F4F220F331F33
:1048B000441FAA1FA9F333D00E2E3AF0E0E830D0FF
:1048C00091505040E695001CCAF729D0FE2F27D002
:1048D000660F771F881FBB1F261737074807AB07D0
:1048E000B0E809F0BB0B802DBF01FF2793585F4F45
:1048F0002AF09E3F510568F08DC0D7C05F3FECF3B2
:10490000983EDCF3869577956795B795F7959F5F09
:10491000C9F7880F911D9695879597F90895E1E05D
:10492000660F771F881FBB1F621773078407BA07BC
:1049300020F0621B730B840BBA0BEE1F88F7E09517
:10494000089598D088F09F5790F0B92F9927B751C4
:10495000A0F0D1F0660F771F881F991F1AF0BA9543
:10496000C9F712C0B13081F09FD0B1E008959CC06A
:10497000672F782F8827B85F39F0B93FCCF3869539
:1049800077956795B395D9F73EF490958095709596
:1049900061957F4F8F4F9F4F0895E89409C097FB13
:1049A0003EF490958095709561957F4F8F4F9F4F06
:1049B0009923A9F0F92F96E9BB279395F69587954A
:1049C00077956795B795F111F8CFFAF4BB0F11F40D
:1049D00060FF1BC06F5F7F4F8F4F9F4F16C08823B4
:1049E00011F096E911C0772321F09EE8872F762FEA
:1049F00005C0662371F096E8862F70E060E02AF02B
:104A00009A95660F771F881FDAF7880F9695879516
:104A100097F9089597F99F6780E870E060E008953E
:104A20009FEF80EC089500240A94161617061806C6
:104A30000906089500240A941216130614060506A2
:104A40000895092E0394000C11F4882352F0BB0F33
:104A500040F4BF2B11F460FF04C06F5F7F4F8F4F96
:104A60009F4F089557FD9058440F551F59F05F3FD1
:104A700071F04795880F97FB991F61F09F3F79F080
:104A800087950895121613061406551FF2CF469502
:104A9000F1DF08C0161617061806991FF1CF869584
:104AA0007105610508940895E894BB276627772768
:104AB000CB0197F908950BD0C4CFB5DF28F0BADF4A
:104AC00018F0952309F0A6CFABCF1124EECFCADFA3
:104AD000A0F3959FD1F3950F50E0551F629FF00111
:104AE000729FBB27F00DB11D639FAA27F00DB11D6A
:104AF000AA1F649F6627B00DA11D661F829F2227F3
:104B0000B00DA11D621F739FB00DA11D621F839F79
:104B1000A00D611D221F749F3327A00D611D231F4F
:104B2000849F600D211D822F762F6A2F11249F579D
:104B300050408AF0E1F088234AF0EE0FFF1FBB1FC0
:104B4000661F771F881F91505040A9F79E3F51055F
:104B500070F060CFAACF5F3FECF3983EDCF3869510
:104B600077956795B795F795E7959F5FC1F7FE2B0A
:104B7000880F911D9695879597F90895FB01DC01A3
:104B800002C001900D9241505040D8F708950F9304
:104B90001F93CF93DF93009731F46115710519F4DA
:104BA00080E090E039C08B01EC016EE070E081E0C4
:104BB00090E041D2FC01892B99F380E883830115B1
:104BC000110571F00287138781E8838380914D245A
:104BD00090914E24892B21F4E0934D24F0934E24A0
:104BE0002097C9F0C087D1878381826083838091B9
:104BF0004F2490915024892B71F4E0934F24F0932B
:104C000050248091512490915224892B21F4E093D7
:104C10005124F0935224CF01DF91CF911F910F9136
:104C20000895CF93DF93CDB7DEB7AE014A5F5F4FF4
:104C3000FA0161917191AF0180914F2490915024BC
:104C400003D0DF91CF9108952F923F924F925F92C0
:104C50006F927F928F929F92AF92BF92CF92DF928C
:104C6000EF92FF920F931F93CF93DF93CDB7DEB7F1
:104C70002B97CDBFDEBF6C017B018A01FC01168240
:104C80001782838181FFBFC1CE0101963C01F601ED
:104C90009381F70193FD859193FF81917F01882393
:104CA00009F4ADC1853239F493FD859193FF81916B
:104CB0007F01853221F4B60190E015D3E8CF912C25
:104CC000212C312CFFE1F315D8F08B3279F038F438
:104CD000803279F08332A1F4232D20611DC08D3202
:104CE00061F0803369F4232D216016C0832D82602A
:104CF000382EE32DE4603E2E2AC0F32DF8601DC04F
:104D000037FC2DC020ED280F2A3040F08E32B9F448
:104D100036FC75C1232D2064322E19C036FE06C024
:104D20008AE0989E200D1124922E11C0EAE02E9E5A
:104D3000200D1124222EF32DF0623F2E08C08C3658
:104D400021F4832D8068382E02C0883641F4F701A3
:104D500093FD859193FF81917F018111B3CF982FAE
:104D60009F7D9554933028F40C5F1F4F9FE39983E8
:104D70000DC0833631F0833771F0833509F055C0AB
:104D800020C0F801808189830E5F1F4F882483949F
:104D9000912C530112C02801F2E04F0E511CF80172
:104DA000A080B18036FE03C0692D70E002C06FEFB5
:104DB0007FEFC5018DD24C018201F32DFF773F2E8D
:104DC00015C0280122E0420E511CF801A080B180DC
:104DD00036FE03C0692D70E002C06FEF7FEFC501A2
:104DE00065D24C01F32DF0683F2E820133FC19C0CF
:104DF000822D90E088169906A0F4B60180E290E03A
:104E000072D22A94F5CFF50137FC859137FE819156
:104E10005F01B60190E067D221102A9421E0821A46
:104E200091088114910479F7E1C0843611F0893634
:104E300039F5F80137FE07C0608171818281938165
:104E40000C5F1F4F08C060817181072E000C880B1A
:104E5000990B0E5F1F4FF32DFF763F2E97FF09C072
:104E600090958095709561957F4F8F4F9F4FF0681B
:104E70003F2E2AE030E0A30172D2882E861844C06B
:104E8000853731F4232D2F7EB22E2AE030E025C065
:104E9000932D997FB92E8F36C1F018F4883579F0AB
:104EA000AEC0803719F0883721F0A9C0E92FE06142
:104EB000BE2EB4FE0DC0FB2DF460BF2E09C034FE23
:104EC0000AC0292F2660B22E06C028E030E005C0B7
:104ED00020E130E002C020E132E0F801B7FE07C077
:104EE00060817181828193810C5F1F4F06C0608158
:104EF000718180E090E00E5F1F4FA30130D2882EB9
:104F00008618FB2DFF773F2E36FE0DC0232D2E7FFA
:104F1000A22E891458F434FE0BC032FC09C0832D34
:104F20008E7EA82E05C0B82CA32C03C0B82C01C0BF
:104F3000B92CA4FE0FC0FE01E80DF11D8081803365
:104F400021F49A2D997EA92E09C0A2FE06C0B39421
:104F5000B39404C08A2D867809F0B394A3FC10C0E2
:104F6000A0FE06C0B21480F4280C922C9B180DC031
:104F7000B21458F4B60180E290E0B5D1B394F8CF02
:104F8000B21418F42B1802C0982C212CA4FE0FC0C8
:104F9000B60180E390E0A7D1A2FE16C0A1FC03C039
:104FA00088E790E002C088E590E0B6010CC08A2D49
:104FB000867851F0A1FE02C08BE201C080E2A7FC1E
:104FC0008DE2B60190E08FD1891430F4B60180E310
:104FD00090E089D19A94F8CF8A94F301E80DF11DFD
:104FE0008081B60190E07FD18110F6CF222009F4B4
:104FF0004ECEB60180E290E076D12A94F7CFF6014A
:105000008681978102C08FEF9FEF2B96CDBFDEBFC9
:10501000DF91CF911F910F91FF90EF90DF90CF9094
:10502000BF90AF909F908F907F906F905F904F90C8
:105030003F902F9008950F931F93CF93DF93869FF8
:105040008001879F100D969F100D1124C8010DD06F
:10505000EC01009721F0A80160E070E032D1CE01B0
:10506000DF91CF911F910F9108950F931F93CF93CD
:10507000DF938230910510F482E090E0E0915524B6
:10508000F091562420E030E0A0E0B0E0309719F134
:10509000408151810281138148175907C8F0841754
:1050A000950769F4109731F012960C9312971396A6
:1050B0001C9327C0009355241093562422C0211519
:1050C000310519F04217530718F49A01BD01EF0199
:1050D000DF01F801DBCF21153105F9F0281B390B71
:1050E0002430310580F48A819B816115710521F09E
:1050F000FB018283938304C08093552490935624AC
:10510000FE01329644C0FE01E20FF31F819391939A
:1051100022503109288339833AC020915324309199
:105120005424232B41F4209102203091032020931A
:1051300053243093542420910020309101202115D4
:10514000310541F42DB73EB7409104205091052020
:10515000241B350BE0915324F0915424E217F307FC
:10516000A0F42E1B3F0B2817390778F0AC014E5FD7
:105170005F4F2417350748F04E0F5F1F40935324AD
:10518000509354248193919302C0E0E0F0E0CF016A
:10519000DF91CF911F910F910895CF93DF930097E7
:1051A00009F481C0FC01329712821382A091552428
:1051B000B0915624109781F420813181820F931F82
:1051C00020915324309154242817390751F5E09346
:1051D0005324F093542467C0ED0120E030E0CE1753
:1051E000DF0740F44A815B819E0141155105F1F0D2
:1051F000EA01F5CFC283D38340815181840F951F8B
:10520000C817D90759F488819981840F951F029690
:10521000808391838A819B818283938321153105C9
:1052200029F4E0935524F09356243DC0E901EA8324
:10523000FB8349915991C40FD51FEC17FD0761F409
:1052400080819181840F951F0296E901888399835B
:10525000828193818A839B83E0E0F0E012968D91B6
:105260009C911397009719F0FD01DC01F7CF8D9108
:105270009C9111979D012E5F3F4F820F931F2091AC
:105280005324309154242817390769F4309729F4AE
:10529000109255241092562402C012821382A093B9
:1052A0005324B0935424DF91CF910895FC010590CD
:1052B000615070400110D8F7809590958E0F9F1F18
:1052C0000895DC0101C06D9341505040E0F708950E
:1052D000FC016150704001900110D8F780959095C5
:1052E0008E0F9F1F08950F931F93CF93DF93FB01A2
:1052F000238121FD03C08FEF9FEF2CC022FF16C03A
:1053000046815781248135814217530744F4A08197
:10531000B1819D012F5F3F4F208331838C93268184
:1053200037812F5F3F4F2683378314C08B01EC01F9
:10533000FB010084F185E02D1995892BE1F6D80158
:1053400016968D919C911797019616968D939C9326
:105350001797CE01DF91CF911F910F910895FA0118
:10536000AA27283051F1203181F1E8946F936E7FA4
:105370006E5F7F4F8F4F9F4FAF4FB1E03ED0B4E095
:105380003CD0670F781F891F9A1FA11D680F791FD6
:105390008A1F911DA11D6A0F711D811D911DA11DE7
:1053A00020D009F468943F912AE0269F11243019F7
:1053B000305D3193DEF6CF010895462F4770405D92
:1053C0004193B3E00FD0C9F7F6CF462F4F70405D41
:1053D0004A3318F0495D31FD4052419302D0A9F79C
:1053E000EACFB4E0A6959795879577956795BA9596
:1053F000C9F700976105710508959B01AC010A2E5C
:1054000006945795479537952795BA95C9F7620F32
:0E541000731F841F951FA01D0895F894FFCFF1
:10541E00000057242000220000000000C5220000DA
:10542E0000801A06002000000020801A06002000CE
:10543E00000010000E060C0400CF1DF01CE61BE849
:10544E001BD11CEF1BE01BFB1CE81B000090204334
:10545E002000004C20472033202920000902430061
:10546E00020100A0C8090400000102020100052487
:10547E000010010424020205240600010524010384
:10548E00010705820340001009040100020A000012
:10549E0000070581024000000705020240000000DF
:1054AE001201000202000040EB030127000101027D
:1054BE0003010003000000000000000000000000D7
:1054CE0000000000000000000000000000000000CE
:1054DE000000000046696E644D65534154205631FC
:1054EE000044463449414820536F6C7574696F6EA1
:1054FE0073000403090474696D65203D2025356C25
:10550E00643A2076637463786F3D253034642C20C2
:10551E003576303D253034642C20766261743D251D
:10552E003034642C20616463343D253034642C2087
:10553E00616463353D253034642C2074656D703D97
:0A554E00253034640D0A003000001F
:00000001FF
