:100000000C940C110C942D110C942D110C942D1199
:100010000C942D110C942D110C94C0110C94E8111A
:100020000C9410120C9438120C942D110C9406138D
:100030000C942D110C944B290C94A3210C94D021D9
:100040000C94FD210C942A220C9457220C948422A7
:100050000C94B1220C94DE220C940B230C943823C4
:100060000C942D110C942D110C942D110C942D1118
:100070000C942D110C942D110C942D110C942D1108
:100080000C942D110C942D110C942D110C942D11F8
:100090000C942D110C942D110C942D110C94CC1E3C
:1000A0000C94FE1E0C94301F0C94621F0C942D11A6
:1000B0000C942D110C942D110C9472290C9427255D
:1000C0000C9454250C9481250C94AE250C94DB25BE
:1000D0000C9408260C9435260C9462260C948F26DA
:1000E0000C94BC260C942D110C942D110C942D11F4
:1000F0000C942D110C942D110C942D110C942D1188
:100100000C942D110C942D110C942D110C942D1177
:100110000C942D110C942D110C942D110C94041E83
:100120000C94361E0C94681E0C949A1E0C942D117F
:100130000C942D110C9465230C9492230C94BF23E2
:100140000C94EC230C9419240C9446240C947324E2
:100150000C94A0240C94CD240C94FA240C942D110E
:100160000C942D110C942D110C942D110C942D1117
:100170000C942D110C942D110C942D110C942D1107
:100180000C942D110C942D110C942D110C942D11F7
:100190000C942D110C942D110C942D110C942D11E7
:1001A0000C942D110C942D110C942D110C942D11D7
:1001B0000C94E9260C9416270C9443270C94702772
:1001C0000C949D270C94CA270C942D110C942D117E
:1001D0000C942D110C942D110C942D110C942D11A7
:1001E0000C942D110C942D110C942D110C942D1197
:1001F0000C942D110C942F300C94E930102B132BF0
:10020000162B192B1C2B1F2B222B61327432873299
:100210009A32AD32C032D332008032806480968010
:10022000C980FB802D815F819281C481F681288203
:100230005B828D82BF82F182248356838883BA8356
:10024000ED831F8451848384B684E8841A854C85A9
:100250007E85B185E385158647867A86AC86DE86FF
:10026000108742877487A787D9870B883D886F8856
:10027000A188D488068938896A899C89CE89008AB0
:10028000328A658A978AC98AFB8A2D8B5F8B918B0C
:10029000C38BF58B278C598C8B8CBD8CEF8C218D6F
:1002A000538D858DB78DE98D1B8E4D8E7F8EB18ED2
:1002B000E38E158F478F798FAB8FDC8F0E90409038
:1002C0007290A490D690079139916B919D91CF91A6
:1002D0000092329264929692C792F9922B935D9318
:1002E0008E93C093F293239455948694B894EA9491
:1002F0001B954D957E95B095E1951396449676960F
:10030000A796D9960A973C976D979F97D097019893
:10031000339864989598C798F89829995B998C991F
:10032000BD99EE99209A519A829AB39AE49A159BB4
:10033000469B789BA99BDA9B0B9C3C9C6D9C9E9C4E
:10034000CF9C009D319D629D939DC39DF49D259EF4
:10035000569E879EB89EE89E199F4A9F7B9FAB9FA3
:10036000DC9F0DA03DA06EA09FA0CFA000A130A15A
:1003700061A191A1C2A1F2A123A253A284A2B4A21D
:10038000E4A215A345A375A3A6A3D6A306A436A4E9
:1003900067A497A4C7A4F7A427A557A587A5B7A5C1
:1003A000E7A517A647A677A6A7A6D7A607A737A7A4
:1003B00067A797A7C6A7F6A726A856A885A8B5A891
:1003C000E5A814A944A973A9A3A9D2A902AA31AA8C
:1003D00061AA90AAC0AAEFAA1EAB4EAB7DABACAB94
:1003E000DBAB0BAC3AAC69AC98ACC7ACF6AC25ADAA
:1003F00054AD83ADB2ADE1AD10AE3FAE6EAE9DAECD
:10040000CCAEFAAE29AF58AF86AFB5AFE4AF12B0FD
:1004100041B06FB09EB0CCB0FBB029B158B186B13D
:10042000B4B1E3B111B23FB26DB29CB2CAB2F8B28C
:1004300026B354B382B3B0B3DEB30CB43AB468B4E9
:1004400096B4C3B4F1B41FB54DB57AB5A8B5D6B559
:1004500003B631B65EB68CB6B9B6E7B614B741B7D7
:100460006FB79CB7C9B7F6B724B851B87EB8ABB868
:10047000D8B805B932B95FB98CB9B9B9E6B912BA09
:100480003FBA6CBA99BAC5BAF2BA1FBB4BBB78BBBC
:10049000A4BBD1BBFDBB29BC56BC82BCAEBCDBBC83
:1004A00007BD33BD5FBD8BBDB7BDE3BD0FBE3BBE5A
:1004B00067BE93BEBFBEEBBE16BF42BF6EBF99BF45
:1004C000C5BFF0BF1CC047C073C09EC0CAC0F5C046
:1004D00020C14CC177C1A2C1CDC1F8C123C24EC257
:1004E00079C2A4C2CFC2FAC225C350C37AC3A5C37E
:1004F000D0C3FAC325C44FC47AC4A4C4CFC4F9C4BA
:1005000023C54EC578C5A2C5CCC5F6C520C64AC60A
:1005100074C69EC6C8C6F2C61CC746C76FC799C771
:10052000C3C7ECC716C83FC869C892C8BCC8E5C8ED
:100530000EC938C961C98AC9B3C9DCC905CA2ECA7E
:1005400057CA80CAA9CAD2CAFACA23CB4CCB74CB29
:100550009DCBC5CBEECB16CC3FCC67CC8FCCB8CCEB
:10056000E0CC08CD30CD58CD80CDA8CDD0CDF8CDC4
:1005700020CE48CE6FCE97CEBFCEE6CE0ECF35CFB3
:100580005DCF84CFACCFD3CFFACF21D049D070D0BC
:1005900097D0BED0E5D00CD133D159D180D1A7D1DD
:1005A000CED1F4D11BD241D268D28ED2B5D2DBD219
:1005B00001D328D34ED374D39AD3C0D3E6D30CD46B
:1005C00032D458D47DD4A3D4C9D4EFD414D53AD5D9
:1005D0005FD585D5AAD5CFD5F4D51AD63FD664D662
:1005E00089D6AED6D3D6F8D61DD742D766D78BD705
:1005F000B0D7D4D7F9D71DD842D866D88AD8AFD8C3
:10060000D3D8F7D81BD93FD963D987D9ABD9CFD99C
:10061000F3D916DA3ADA5EDA81DAA5DAC8DAECDA90
:100620000FDB32DB56DB79DB9CDBBFDBE2DB05DC9F
:1006300028DC4BDC6DDC90DCB3DCD6DCF8DC1BDDCD
:100640003DDD5FDD82DDA4DDC6DDE9DD0BDE2DDE17
:100650004FDE71DE93DEB4DED6DEF8DE1ADF3BDF7E
:100660005DDF7EDFA0DFC1DFE2DF04E025E046E002
:1006700067E088E0A9E0CAE0EBE00CE12DE14DE1A4
:100680006EE18EE1AFE1CFE1F0E110E230E251E264
:1006900071E291E2B1E2D1E2F1E211E330E350E341
:1006A00070E38FE3AFE3CEE3EEE30DE42DE44CE43F
:1006B0006BE48AE4A9E4C8E4E7E406E525E544E55B
:1006C00062E581E5A0E5BEE5DDE5FBE519E638E696
:1006D00056E674E692E6B0E6CEE6ECE60AE728E7F0
:1006E00045E763E781E79EE7BCE7D9E7F7E714E86A
:1006F00031E84EE86BE888E8A5E8C2E8DFE8FCE806
:1007000019E935E952E96EE98BE9A7E9C4E9E0E9BD
:10071000FCE918EA34EA50EA6CEA88EAA4EAC0EA9A
:10072000DBEAF7EA13EB2EEB4AEB65EB80EB9CEB95
:10073000B7EBD2EBEDEB08EC23EC3EEC58EC73ECB2
:100740008EECA8ECC3ECDDECF8EC12ED2CED47EDF3
:1007500061ED7BED95EDAFEDC9EDE3EDFCED16EE52
:1007600030EE49EE63EE7CEE95EEAFEEC8EEE1EED4
:10077000FAEE13EF2CEF45EF5EEF76EF8FEFA8EF79
:10078000C0EFD9EFF1EF09F022F03AF052F06AF041
:1007900082F09AF0B2F0CAF0E1F0F9F011F128F12C
:1007A00040F157F16EF186F19DF1B4F1CBF1E2F138
:1007B000F9F110F226F23DF254F26AF281F297F268
:1007C000AEF2C4F2DAF2F0F206F31CF332F348F3BD
:1007D0005EF374F389F39FF3B5F3CAF3DFF3F5F334
:1007E0000AF41FF434F449F45EF473F488F49DF4CD
:1007F000B1F4C6F4DBF4EFF403F518F52CF540F58D
:1008000054F568F57CF590F5A4F5B8F5CCF5DFF571
:10081000F3F506F61AF62DF640F653F667F67AF675
:100820008DF6A0F6B2F6C5F6D8F6EAF6FDF610F7A4
:1008300022F734F747F759F76BF77DF78FF7A1F7F2
:10084000B3F7C4F7D6F7E8F7F9F70BF81CF82EF86A
:100850003FF850F861F872F883F894F8A5F8B6F804
:10086000C6F8D7F8E7F8F8F808F919F929F939F9C5
:1008700049F959F969F979F989F998F9A8F9B8F9AB
:10088000C7F9D7F9E6F9F5F904FA14FA23FA32FAB6
:1008900041FA4FFA5EFA6DFA7CFA8AFA99FAA7FAE7
:1008A000B5FAC4FAD2FAE0FAEEFAFCFA0AFB18FB3F
:1008B00025FB33FB41FB4EFB5CFB69FB76FB83FBBB
:1008C00091FB9EFBABFBB8FBC4FBD1FBDEFBEBFB60
:1008D000F7FB04FC10FC1CFC29FC35FC41FC4DFC26
:1008E00059FC65FC70FC7CFC88FC93FC9FFCAAFC1A
:1008F000B6FCC1FCCCFCD7FCE2FCEDFCF8FC03FD33
:100900000EFD18FD23FD2EFD38FD42FD4DFD57FD6A
:1009100061FD6BFD75FD7FFD89FD93FD9CFDA6FDD1
:10092000B0FDB9FDC2FDCCFDD5FDDEFDE7FDF0FD5E
:10093000F9FD02FE0BFE13FE1CFE25FE2DFE36FE0B
:100940003EFE46FE4EFE56FE5EFE66FE6EFE76FEE7
:100950007EFE85FE8DFE94FE9CFEA3FEAAFEB2FEE8
:10096000B9FEC0FEC7FECEFED4FEDBFEE2FEE8FE10
:10097000EFFEF5FEFCFE02FF08FF0EFF14FF1AFF5C
:1009800020FF26FF2CFF31FF37FF3CFF42FF47FFD0
:100990004CFF52FF57FF5CFF61FF66FF6AFF6FFF6E
:1009A00074FF78FF7DFF81FF86FF8AFF8EFF92FF35
:1009B00096FF9AFF9EFFA2FFA6FFA9FFADFFB0FF23
:1009C000B4FFB7FFBBFFBEFFC1FFC4FFC7FFCAFF35
:1009D000CDFFCFFFD2FFD5FFD7FFD9FFDCFFDEFF72
:1009E000E0FFE2FFE4FFE6FFE8FFEAFFECFFEEFFD7
:1009F000EFFFF1FFF2FFF3FFF5FFF6FFF7FFF8FF60
:100A0000F9FFFAFFFBFFFBFFFCFFFDFFFDFFFEFF11
:100A1000FEFFFEFFFEFFFEFFFFFFFEFFFEFFFEFFED
:100A2000FEFFFEFFFDFFFDFFFCFFFBFFFBFFFAFFEC
:100A3000F9FFF8FFF7FFF6FFF5FFF3FFF2FFF1FF15
:100A4000EFFFEEFFECFFEAFFE8FFE6FFE4FFE2FF67
:100A5000E0FFDEFFDCFFD9FFD7FFD5FFD2FFCFFFDE
:100A6000CDFFCAFFC7FFC4FFC1FFBEFFBBFFB7FF7B
:100A7000B4FFB0FFADFFA9FFA6FFA2FF9EFF9AFF44
:100A800096FF92FF8EFF8AFF86FF81FF7DFF78FF32
:100A900074FF6FFF6AFF66FF61FF5CFF57FF52FF45
:100AA0004CFF47FF42FF3CFF37FF31FF2CFF26FF83
:100AB00020FF1AFF14FF0EFF08FF02FFFCFEF5FEE9
:100AC000EFFEE8FEE2FEDBFED4FECEFEC7FEC0FE79
:100AD000B9FEB2FEAAFEA3FE9CFE94FE8DFE85FE2C
:100AE0007EFE76FE6EFE66FE5EFE56FE4EFE46FE06
:100AF0003EFE36FE2DFE25FE1CFE13FE0BFE02FE04
:100B0000F9FDF0FDE7FDDEFDD5FDCCFDC2FDB9FD33
:100B1000B0FDA6FD9CFD93FD89FD7FFD75FD6BFD80
:100B200061FD57FD4DFD42FD38FD2EFD23FD18FDF5
:100B30000EFD03FDF8FCEDFCE2FCD7FCCCFCC1FC97
:100B4000B6FCAAFC9FFC93FC88FC7CFC70FC65FC5A
:100B500059FC4DFC41FC35FC29FC1CFC10FC04FC40
:100B6000F7FBEBFBDEFBD1FBC4FBB8FBABFB9EFB57
:100B700091FB83FB76FB69FB5CFB4EFB41FB33FB8C
:100B800025FB18FB0AFBFCFAEEFAE0FAD2FAC4FAEB
:100B9000B5FAA7FA99FA8AFA7CFA6DFA5EFA4FFA70
:100BA00041FA32FA23FA14FA04FAF5F9E6F9D7F918
:100BB000C7F9B8F9A8F998F989F979F969F959F9EA
:100BC00049F939F929F919F908F9F8F8E7F8D7F8DE
:100BD000C6F8B6F8A5F894F883F872F861F850F8FA
:100BE0003FF82EF81CF80BF8F9F7E8F7D6F7C4F73A
:100BF000B3F7A1F78FF77DF76BF759F747F734F79E
:100C000022F710F7FDF6EAF6D8F6C5F6B2F6A0F62A
:100C10008DF67AF667F653F640F62DF61AF606F6D6
:100C2000F3F5DFF5CCF5B8F5A4F590F57CF568F5AE
:100C300054F540F52CF518F503F5EFF4DBF4C6F4A4
:100C4000B1F49DF488F473F45EF449F434F41FF4C1
:100C50000AF4F5F3DFF3CAF3B5F39FF389F374F302
:100C60005EF348F332F31CF306F3F0F2DAF2C4F267
:100C7000AEF297F281F26AF254F23DF226F210F2ED
:100C8000F9F1E2F1CBF1B4F19DF186F16EF157F19A
:100C900040F128F111F1F9F0E1F0CAF0B2F09AF068
:100CA00082F06AF052F03AF022F009F0F1EFD9EF59
:100CB000C0EFA8EF8FEF76EF5EEF45EF2CEF13EF6D
:100CC000FAEEE1EEC8EEAFEE95EE7CEE63EE49EEA5
:100CD00030EE16EEFCEDE3EDC9EDAFED95ED7BEDFD
:100CE00061ED47ED2CED12EDF8ECDDECC3ECA8EC7A
:100CF0008EEC73EC58EC3EEC23EC08ECEDEBD2EB15
:100D0000B7EB9CEB80EB65EB4AEB2EEB13EBF7EAD2
:100D1000DBEAC0EAA4EA88EA6CEA50EA34EA18EAB4
:100D2000FCE9E0E9C4E9A7E98BE96EE952E935E9B4
:100D300019E9FCE8DFE8C2E8A5E888E86BE84EE8D6
:100D400031E814E8F7E7D9E7BCE79EE781E763E716
:100D500045E728E70AE7ECE6CEE6B0E692E674E679
:100D600056E638E619E6FBE5DDE5BEE5A0E581E5FA
:100D700062E544E525E506E5E7E4C8E4A9E48AE49C
:100D80006BE44CE42DE40DE4EEE3CEE3AFE38FE35C
:100D900070E350E330E311E3F1E2D1E2B1E291E23A
:100DA00071E251E230E210E2F0E1CFE1AFE18EE139
:100DB0006EE14DE12DE10CE1EBE0CAE0A9E088E055
:100DC00067E046E025E004E0E2DFC1DFA0DF7EDF90
:100DD0005DDF3BDF1ADFF8DED6DEB4DE93DE71DEE8
:100DE0004FDE2DDE0BDEE9DDC6DDA4DD82DD5FDD5D
:100DF0003DDD1BDDF8DCD6DCB3DC90DC6DDC4BDCF0
:100E000028DC05DCE2DBBFDB9CDB79DB56DB32DB9D
:100E10000FDBECDAC8DAA5DA81DA5EDA3ADA16DA6A
:100E2000F3D9CFD9ABD987D963D93FD91BD9F7D853
:100E3000D3D8AFD88AD866D842D81DD8F9D7D4D756
:100E4000B0D78BD766D742D71DD7F8D6D3D6AED674
:100E500089D664D63FD61AD6F4D5CFD5AAD585D5AE
:100E60005FD53AD514D5EFD4C9D4A3D47DD458D402
:100E700032D40CD4E6D3C0D39AD374D34ED328D370
:100E800001D3DBD2B5D28ED268D241D21BD2F4D1FB
:100E9000CED1A7D180D159D133D10CD1E5D0BED09C
:100EA00097D070D049D021D0FACFD3CFACCF84CF58
:100EB0005DCF35CF0ECFE6CEBFCE97CE6FCE48CE2C
:100EC00020CEF8CDD0CDA8CD80CD58CD30CD08CD19
:100ED000E0CCB8CC8FCC67CC3FCC16CCEECBC5CB1E
:100EE0009DCB74CB4CCB23CBFACAD2CAA9CA80CA39
:100EF00057CA2ECA05CADCC9B3C98AC961C938C96B
:100F00000EC9E5C8BCC892C869C83FC816C8ECC7B6
:100F1000C3C799C76FC746C71CC7F2C6C8C69EC617
:100F200074C64AC620C6F6C5CCC5A2C578C54EC58E
:100F300023C5F9C4CFC4A4C47AC44FC425C4FAC31A
:100F4000D0C3A5C37AC350C325C3FAC2CFC2A4C2BB
:100F500079C24EC223C2F8C1CDC1A2C177C14CC172
:100F600020C1F5C0CAC09EC073C047C01CC0F0BF3E
:100F7000C5BF99BF6EBF42BF16BFEBBEBFBE93BE1B
:100F800067BE3BBE0FBEE3BDB7BD8BBD5FBD33BD0E
:100F900007BDDBBCAEBC82BC56BC29BCFDBBD1BB13
:100FA000A4BB78BB4BBB1FBBF2BAC5BA99BA6CBA2B
:100FB0003FBA12BAE6B9B9B98CB95FB932B905B955
:100FC000D8B8ABB87EB851B824B8F6B7C9B79CB793
:100FD0006FB741B714B7E7B6B9B68CB65EB631B6DF
:100FE00003B6D6B5A8B57AB54DB51FB5F1B4C3B43F
:100FF00096B468B43AB40CB4DEB3B0B382B354B3AD
:1010000026B3F8B2CAB29CB26DB23FB211B2E3B12C
:10101000B4B186B158B129B1FBB0CCB09EB06FB0BD
:1010200041B012B0E4AFB5AF86AF58AF29AFFAAE5A
:10103000CCAE9DAE6EAE3FAE10AEE1ADB2AD83AD07
:1010400054AD25ADF6ACC7AC98AC69AC3AAC0BACC2
:10105000DBABACAB7DAB4EAB1EABEFAAC0AA90AA8C
:1010600061AA31AA02AAD2A9A3A973A944A914A961
:10107000E5A8B5A885A856A826A8F6A7C6A797A745
:1010800067A737A707A7D7A6A7A677A647A617A635
:10109000E7A5B7A587A557A527A5F7A4C7A497A433
:1010A00067A436A406A4D6A3A6A375A345A315A337
:1010B000E4A2B4A284A253A223A2F2A1C2A191A14C
:1010C00061A130A100A1CFA09FA06EA03DA00DA066
:1010D000DC9FAB9F7B9F4A9F199FE89EB89E879E8F
:1010E000569E259EF49DC39D939D629D319D009DBE
:1010F000CF9C9E9C6D9C3C9C0B9CDA9BA99B789BF7
:10110000469B159BE49AB39A829A519A209AEE993B
:10111000BD998C995B992999F898C7989598649886
:1011200033980198D0979F976D973C970A97D996D7
:10113000A796769644961396E195B0957E954D9533
:101140001B95EA94B894869455942394F293C09393
:101150008E935D932B93F992C792969264923292FA
:101160000092CF919D916B9139910791D690A49067
:10117000729040900E90DC8FAB8F798F478F158FD8
:10118000E38EB18E7F8E4D8E1B8EE98DB78D858D52
:10119000538D218DEF8CBD8C8B8C598C278CF58BCE
:1011A000C38B918B5F8B2D8BFB8AC98A978A658A4B
:1011B000328A008ACE899C896A8938890689D488CE
:1011C000A1886F883D880B88D987A7877487428755
:1011D0001087DE86AC867A8647861586E385B185DC
:1011E0007E854C851A85E884B684838451841F8467
:1011F000ED83BA83888356832483F182BF828D82F4
:101200005B822882F681C48192815F812D81FB807F
:10121000C9809680648032800080CD7F9B7F697F0B
:10122000367F047FD27EA07E6D7E3B7E097ED77D99
:10123000A47D727D407D0E7DDB7CA97C777C457C26
:10124000127CE07BAE7B7C7B497B177BE57AB37AB3
:10125000817A4E7A1C7AEA79B8798579537921793D
:10126000EF78BD788B7858782678F477C2779077C6
:101270005E772B77F976C776957663763176FF754C
:10128000CD759A75687536750475D274A0746E74D0
:101290003C740A74D873A673747342731073DE724D
:1012A000AC727A7248721672E471B27180714E71CA
:1012B0001C71EA70B870867054702370F16FBF6F44
:1012C0008D6F5B6F296FF86EC66E946E626E306EB6
:1012D000FF6DCD6D9B6D696D386D066DD46CA26C24
:1012E000716C3F6C0D6CDC6BAA6B796B476B156B8B
:1012F000E46AB26A816A4F6A1E6AEC69BB698969ED
:1013000058692669F568C368926860682F68FE6747
:10131000CC679B676A6738670767D666A46673669B
:1013200042661166DF65AE657D654C651B65EA64E6
:10133000B964876456642564F463C363926361632C
:101340003063FF62CE629D626C623C620B62DA6166
:10135000A961786147611761E660B5608460546097
:101360002360F25FC25F915F605F305FFF5ECF5EC0
:101370009E5E6E5E3D5E0D5EDC5DAC5D7B5D4B5DDD
:101380001B5DEA5CBA5C8A5C595C295CF95BC95BF1
:10139000985B685B385B085BD85AA85A785A485AF9
:1013A000185AE859B859885958592859F858C858F6
:1013B0009858685839580958D957A9577A574A57E9
:1013C0001A57EB56BB568C565C562D56FD55CE55CE
:1013D0009E556F553F551055E154B15482545354A6
:1013E0002454F453C5539653675338530953DA5270
:1013F000AB527C524D521E52EF51C051915162512D
:1014000033510551D650A75079504A501B50ED4FDB
:10141000BE4F904F614F334F044FD64EA74E794E7B
:101420004B4E1C4EEE4DC04D924D634D354D074D0C
:10143000D94CAB4C7D4C4F4C214CF34BC54B974B8F
:10144000694B3C4B0E4BE04AB24A854A574A294AFF
:10145000FC49CE49A149734946491849EB48BE4861
:101460009048634836480948DB47AE4781475447B0
:101470002747FA46CD46A046734646461946ED45EF
:10148000C045934566453A450D45E044B44487441C
:101490005B442E440244D643A9437D435143244335
:1014A000F842CC42A042744248421C42F041C4413E
:1014B00098416C4140411441E940BD409140664033
:1014C0003A400F40E33FB83F8C3F613F353F0A3F12
:1014D000DF3EB33E883E5D3E323E073EDC3DB13DE1
:1014E000863D5B3D303D053DDA3CAF3C853C5A3C9A
:1014F0002F3C053CDA3BB03B853B5B3B303B063B3E
:10150000DC3AB13A873A5D3A333A093ADF39B539CC
:101510008B39613937390D39E338B9389038663845
:101520003C381338E937C03796376D3743371A37A9
:10153000F136C7369E3675364C362336FA35D135F8
:10154000A8357F3556352D350535DC34B3348B342D
:1015500062343A341134E933C0339833703347334B
:101560001F33F732CF32A7327F3257322F32073252
:10157000DF31B7319031683140311931F130CA3043
:10158000A2307B3053302C300530DE2FB62F8F2F1A
:10159000682F412F1A2FF32ECC2EA62E7F2E582ED9
:1015A000312E0B2EE42DBE2D972D712D4A2D242D7D
:1015B000FE2CD72CB12C8B2C652C3F2C192CF32B0B
:1015C000CD2BA72B822B5C2B362B102BEB2AC52A7D
:1015D000A02A7A2A552A302A0B2AE529C0299B29D4
:1015E000762951292C290729E228BD289928742811
:1015F0004F282B280628E227BD2799277527502733
:101600002C270827E426C0269C2678265426302638
:101610000C26E925C525A1257E255A253725132524
:10162000F024CD24A9248624632440241D24FA23F5
:10163000D723B42392236F234C2329230723E422A7
:10164000C222A0227D225B2239221622F421D2213D
:10165000B0218E216C214B2129210721E520C420B6
:10166000A22081205F203E201D20FB1FDA1FB91F12
:10167000981F771F561F351F141FF31ED21EB21E50
:10168000911E711E501E301E0F1EEF1DCF1DAE1D70
:101690008E1D6E1D4E1D2E1D0E1DEE1CCF1CAF1C73
:1016A0008F1C701C501C311C111CF21BD21BB31B55
:1016B000941B751B561B371B181BF91ADA1ABB1A19
:1016C0009D1A7E1A5F1A411A221A041AE619C719BE
:1016D000A9198B196D194F1931191319F518D71844
:1016E000BA189C187E186118431826180818EB17AA
:1016F000CE17B117941777175A173D1720170317EE
:10170000E616CA16AD169116741658163B161F1615
:101710000316E715CB15AF15931577155B153F1518
:1017200024150815EC14D114B5149A147F146314FD
:1017300048142D141214F713DC13C113A7138C13C0
:10174000711357133C1322130713ED12D312B8125F
:101750009E1284126A12501236121C120312E911E0
:10176000CF11B6119C1183116A11501137111E113E
:101770000511EC10D310BA10A11089107010571079
:101780003F1026100E10F60FDD0FC50FAD0F950F91
:101790007D0F650F4D0F350F1E0F060FEE0ED70E86
:1017A000BF0EA80E910E790E620E4B0E340E1D0E5A
:1017B000060EEF0DD90DC20DAB0D950D7E0D680D0A
:1017C000510D3B0D250D0F0DF90CE30CCD0CB70C95
:1017D000A10C8B0C760C600C4A0C350C200C0A0CFE
:1017E000F50BE00BCB0BB60BA10B8C0B770B620B45
:1017F0004E0B390B240B100BFC0AE70AD30ABF0A65
:10180000AB0A970A830A6F0A5B0A470A330A200A5F
:101810000C0AF909E509D209BF09AC09980985093B
:1018200072095F094D093A09270915090209EF08EC
:10183000DD08CB08B808A6089408820870085E087E
:101840004C083B08290817080608F407E307D107E6
:10185000C007AF079E078D077C076B075A0749072C
:101860003907280718070707F706E606D606C6064B
:10187000B606A60696068606760667065706470645
:101880003806280619060A06FB05EB05DC05CD051A
:10189000BE05B005A10592058305750566055805C9
:1018A0004A053B052D051F0511050305F504E70451
:1018B000DA04CC04BE04B104A304960489047C04B5
:1018C0006E046104540447043B042E0421041404F0
:1018D0000804FB03EF03E303D603CA03BE03B2030A
:1018E000A6039A038F03830377036C0360035503F6
:1018F00049033E03330328031D0312030703FC02BD
:10190000F102E702DC02D102C702BD02B202A80264
:101910009E0294028A02800276026C0263025902DD
:101920004F0246023D0233022A02210218020F0230
:101930000602FD01F401EC01E301DA01D201C90163
:10194000C101B901B101A901A10199019101890167
:1019500081017A0172016B0163015C0155014D0146
:1019600046013F01380131012B0124011D011701FE
:1019700010010A010301FD00F700F100EB00E50092
:10198000DF00D900D300CE00C800C300BD00B800FE
:10199000B300AD00A800A3009E0099009500900040
:1019A0008B00870082007E007900750071006D0059
:1019B0006900650061005D005900560052004F004B
:1019C0004B004800440041003E003B003800350019
:1019D000320030002D002A002800260023002100BC
:1019E0001F001D001B001900170015001300110037
:1019F00010000E000D000C000A000900080007008E
:101A000006000500040004000300020002000100BB
:101A100001000100010001000100010001000100BE
:101A200001000100020002000300040004000500A0
:101A300006000700080009000A000C000D000E0057
:101A40001000110013001500170019001B001D00E5
:101A50001F0021002300260028002A002D0030004E
:101A60003200350038003B003E0041004400480091
:101A70004B004F005200560059005D0061006500A8
:101A800069006D007100750079007E00820087009A
:101A90008B009000950099009E00A300A800AD0067
:101AA000B300B800BD00C300C800CE00D300D90009
:101AB000DF00E500EB00F100F700FD0003010A0183
:101AC000100117011D0124012B01310138013F01D3
:101AD00046014D0155015C0163016B0172017A0100
:101AE0008101890191019901A101A901B101B90106
:101AF000C101C901D201DA01E301EC01F401FD01E8
:101B000006020F02180221022A0233023D02460297
:101B10004F02590263026C02760280028A0294022A
:101B20009E02A802B202BD02C702D102DC02E70295
:101B3000F102FC02070312031D03280333033E03D3
:101B40004903550360036C03770383038F039A03F0
:101B5000A603B203BE03CA03D603E303EF03FB03EA
:101B60000804140421042E043B04470454046104B3
:101B70006E047C0489049604A304B104BE04CC045E
:101B8000DA04E704F504030511051F052D053B05DF
:101B90004A0558056605750583059205A105B0053A
:101BA000BE05CD05DC05EB05FB050A061906280672
:101BB0003806470657066706760686069606A60680
:101BC000B606C606D606E606F7060707180728076C
:101BD000390749075A076B077C078D079E07AF0730
:101BE000C007D107E307F4070608170829083B08D0
:101BF0004C085E08700882089408A608B808CB084C
:101C0000DD08EF080209150927093A094D095F099E
:101C1000720985099809AC09BF09D209E509F909D2
:101C20000C0A200A330A470A5B0A6F0A830A970ADA
:101C3000AB0ABF0AD30AE70AFC0A100B240B390BC4
:101C40004E0B620B770B8C0BA10BB60BCB0BE00B87
:101C5000F50B0A0C200C350C4A0C600C760C8B0C26
:101C6000A10CB70CCD0CE30CF90C0F0D250D3B0DA1
:101C7000510D680D7E0D950DAB0DC20DD90DEF0DFB
:101C8000060E1D0E340E4B0E620E790E910EA80E2E
:101C9000BF0ED70EEE0E060F1E0F350F4D0F650F40
:101CA0007D0F950FAD0FC50FDD0FF60F0E1026102F
:101CB0003F10571070108910A110BA10D310EC10FB
:101CC00005111E11371150116A1183119C11B611A3
:101CD000CF11E91103121C12361250126A1284122B
:101CE0009E12B812D312ED12071322133C1357138E
:101CF00071138C13A713C113DC13F71312142D14D3
:101D0000481463147F149A14B514D114EC140815F4
:101D100024153F155B1577159315AF15CB15E715F2
:101D200003161F163B16581674169116AD16CA16D2
:101D3000E616031720173D175A1777179417B11790
:101D4000CE17EB1708182618431861187E189C1830
:101D5000BA18D718F518131931194F196D198B19AD
:101D6000A919C719E619041A221A411A5F1A7E1A0C
:101D70009D1ABB1ADA1AF91A181B371B561B751B4A
:101D8000941BB31BD21BF21B111C311C501C701C6A
:101D90008F1CAF1CCF1CEE1C0E1D2E1D4E1D6E1D6C
:101DA0008E1DAE1DCF1DEF1D0F1E301E501E711E4D
:101DB000911EB21ED21EF31E141F351F561F771F11
:101DC000981FB91FDA1FFB1F1D203E205F208120B6
:101DD000A220C420E520072129214B216C218E213E
:101DE000B021D221F421162239225B227D22A022A9
:101DF000C222E422072329234C236F239223B423F6
:101E0000D723FA231D24402463248624A924CD2427
:101E1000F024132537255A257E25A125C525E9253A
:101E20000C263026542678269C26C026E426082731
:101E30002C27502775279927BD27E22706282B280E
:101E40004F2874289928BD28E22807292C295129D0
:101E500076299B29C029E5290B2A302A552A7A2A76
:101E6000A02AC52AEB2A102B362B5C2B822BA72B02
:101E7000CD2BF32B192C3F2C652C8B2CB12CD72C74
:101E8000FE2C242D4A2D712D972DBE2DE42D0B2EC9
:101E9000312E582E7F2EA62ECC2EF32E1A2F412F08
:101EA000682F8F2FB62FDE2F05302C3053307B302C
:101EB000A230CA30F1301931403168319031B73138
:101EC000DF3107322F3257327F32A732CF32F7322B
:101ED0001F33473370339833C033E93311343A3406
:101EE00062348B34B334DC3405352D3556357F35CB
:101EF000A835D135FA3523364C3675369E36C73679
:101F0000F1361A3743376D379637C037E93713380C
:101F10003C3866389038B938E3380D39373961398B
:101F20008B39B539DF39093A333A5D3A873AB13AF4
:101F3000DC3A063B303B5B3B853BB03BDA3B053C48
:101F40002F3C5A3C853CAF3CDA3C053D303D5B3D87
:101F5000863DB13DDC3D073E323E5D3E883EB33EB0
:101F6000DF3E0A3F353F613F8C3FB83FE33F0F40C4
:101F70003A4066409140BD40E940144140416C41C7
:101F80009841C441F0411C4248427442A042CC42B4
:101F9000F842244351437D43A943D64302442E448F
:101FA0005B448744B444E0440D453A456645934557
:101FB000C045ED45194646467346A046CD46FA460D
:101FC000274754478147AE47DB47094836486348AF
:101FD0009048BE48EB48184946497349A149CE4943
:101FE000FC49294A574A854AB24AE04A0E4B3C4BC3
:101FF000694B974BC54BF34B214C4F4C7D4CAB4C35
:10200000D94C074D354D634D924DC04DEE4D1C4E94
:102010004B4E794EA74ED64E044F334F614F904FE3
:10202000BE4FED4F1B504A507950A750D650055126
:10203000335162519151C051EF511E524D527C5259
:10204000AB52DA520953385367539653C553F4537E
:10205000245453548254B154E15410553F556F5594
:102060009E55CE55FD552D565C568C56BB56EB569F
:102070001A574A577A57A957D9570958395868589B
:102080009858C858F858285958598859B859E8598B
:10209000185A485A785AA85AD85A085B385B685B6D
:1020A000985BC95BF95B295C595C8A5CBA5CEA5C49
:1020B0001B5D4B5D7B5DAC5DDC5D0D5E3D5E6E5E14
:1020C0009E5ECF5EFF5E305F605F915FC25FF25FDA
:1020D000236054608460B560E66017614761786191
:1020E000A961DA610B623C626C629D62CE62FF6242
:1020F000306361639263C363F463256456648764E9
:10210000B964EA641B654C657D65AE65DF65116683
:1021100042667366A466D666076738676A679B6718
:10212000CC67FE672F6860689268C368F5682669A7
:1021300058698969BB69EC691E6A4F6A816AB26A2B
:10214000E46A156B476B796BAA6BDC6B0D6C3F6CAB
:10215000716CA26CD46C066D386D696D9B6DCD6D24
:10216000FF6D306E626E946EC66EF86E296F5B6F97
:102170008D6FBF6FF16F237054708670B870EA7006
:102180001C714E718071B271E471167248727A726C
:10219000AC72DE72107342737473A673D8730A74D0
:1021A0003C746E74A074D2740475367568759A7533
:1021B000CD75FF75317663769576C776F9762B7790
:1021C0005E779077C277F477267858788B78BD78E9
:1021D000EF78217953798579B879EA791C7A4E7A42
:1021E000817AB37AE57A177B497B7C7BAE7BE07B97
:1021F000127C457C777CA97CDB7C0E7D407D727DEA
:10220000A47DD77D097E3B7E6D7EA07ED27E047F3D
:10221000367F697F9B7FCD7F11241FBECFEFCDBF5F
:10222000DFE5DEBF00E00CBF15E2A0E0B0E2EEE0CB
:10223000F8E900E00BBF02C007900D92A230B10791
:10224000D9F72AE2A2E0B5E201C01D92A93EB20789
:10225000E1F70E948D360C94054C0C9400008330FD
:1022600010F480E0089588EF0895CF93DF93482F0E
:1022700050E0FA017196E295F295F07FFE27E07F3B
:10228000FE27A0E0B1E014969C91149713966C91F0
:10229000DA01149621E030E0E901082E02C0CC0FEB
:1022A000DD1F0A94E2F70A2E02C0220F331F0A94A0
:1022B000E2F72C2B622370E0EB010A2E02C0D595C9
:1022C000C7950A94E2F7C0FD1AC0082E02C07595A2
:1022D00067950A94E2F760FD14C0292330E0B90144
:1022E00002C075956795AA95E2F760FD0CC002C023
:1022F000359527958A95E2F7822F817005C084E095
:1023000003C083E001C082E0918190639183440F18
:10231000551FFA01EB54F54D0190F081E02D3097F7
:1023200009F01995DF91CF910895CF93DF931F9214
:10233000CDB7DEB761E080E00E942D3C8091D42AC9
:102340008F3F09F4FFCF8FB78983F8949981E3ED2C
:10235000FAE281818F5F81839FBFE0E0F1E080E45A
:10236000808380E880830F90DF91CF910895E82FDC
:10237000F0E0EE0FFF1FEB54F54D6083718308957D
:102380001F920F920FB60F9211240BB60F922F933C
:102390003F934F935F936F937F938F939F93AF93ED
:1023A000BF93EF93FF9380E060DFFF91EF91BF91C8
:1023B000AF919F918F917F916F915F914F913F91DD
:1023C0002F910F900BBE0F900FBE0F901F9018957E
:1023D0001F920F920FB60F9211240BB60F922F93EC
:1023E0003F934F935F936F937F938F939F93AF939D
:1023F000BF93EF93FF9381E038DFFF91EF91BF919F
:10240000AF919F918F917F916F915F914F913F918C
:102410002F910F900BBE0F900FBE0F901F9018952D
:102420001F920F920FB60F9211240BB60F922F939B
:102430003F934F935F936F937F938F939F93AF934C
:10244000BF93EF93FF9382E010DFFF91EF91BF9175
:10245000AF919F918F917F916F915F914F913F913C
:102460002F910F900BBE0F900FBE0F901F901895DD
:102470001F920F920FB60F9211240BB60F922F934B
:102480003F934F935F936F937F938F939F93AF93FC
:10249000BF93EF93FF9383E0E8DEFF91EF91BF914D
:1024A000AF919F918F917F916F915F914F913F91EC
:1024B0002F910F900BBE0F900FBE0F901F9018958D
:1024C000CF93DF931F92CDB7DEB7DB01E82FF0E0AB
:1024D0007196E295F295F07FFE27E07FFE278FB799
:1024E0008983F894998119968C91199784871A9603
:1024F0008C911A978587168617968C9117978087E7
:1025000018968C9118978187128612968C91129743
:10251000828313968C911397838314962D913C910B
:1025200015972483358316968C911697868311967A
:102530008C91119781838C918F7780839FBF0F90AF
:10254000DF91CF91089504C061507109810991090B
:102550006115710581059105B9F7089580E18093B2
:102560002104E0E2F4E0818184FDFDCF6091240448
:1025700070912504809126049091270408958093FA
:10258000BD2A9093BE2A0895CF93DF9364E080E044
:102590000E942D3CC0EFD0E088818260888361E09A
:1025A00080EF90E00E943F4488818460888369EED8
:1025B00073E080E090E0C7DF888188618883E0EF86
:1025C000F0E0818183FFFDCF10922004E0E2F4E08F
:1025D000818180FDFDCFE0E2F4E08FEF9FEFDC0131
:1025E00080879187A287B38714821582168217820B
:1025F000818180FDFDCFE0E2F4E0128281E0808302
:10260000818180FDFDCFDF91CF9108951F920F92C0
:102610000FB60F9211240BB60F922F933F934F9347
:102620005F936F937F938F939F93AF93BF93CF935A
:10263000DF93EF93FF9310922204C091BD2AD091B3
:10264000BE2A209719F08ADFFE011995FF91EF91BC
:10265000DF91CF91BF91AF919F918F917F916F91BA
:102660005F914F913F912F910F900BBE0F900FBE36
:102670000F901F901895FC01F295E295EF70EF27EF
:10268000FF70EF27EE0FFF1FE85EFD4F259134919D
:102690003058FC017096F295E295EF70EF27FF70CD
:1026A000EF27EE0FFF1FE85EFD4F45915491505804
:1026B000421B530B8F709927489FB001499F700DA3
:1026C000589F700D1124CB01959587959595879509
:1026D0009595879595958795820F931F90580895A6
:1026E00004C0615071098109910961157105810565
:1026F0009105B9F70895CF92DF92EF92FF920F9371
:102700001F93CF93EBE0F0E283E0818381E090E0E0
:10271000848395838F01CC24C394D12C0F2EFFEC9E
:10272000EF2EF8E2FF2EF02DF801C086D18641E0B1
:10273000B80180E894E00E94AE29F701C0819C2F87
:10274000907881110DC091F08C2F8178813829F417
:1027500065EF71E080E090E0C3DFC0FDE5CF0CC025
:1027600065E070E080E090E0BBDFDECF65E070E028
:1027700080E090E0B5DFD8CFCF911F910F91FF900F
:10278000EF90DF90CF900895CF93DF931F92CDB756
:10279000DEB7442341F080910620843608F4BBC0A4
:1027A0001092062009C080910620853109F18B32F4
:1027B00009F459C08111A9C0EFE1F0E286E78083F6
:1027C00088E4818381E090E084839583108611867C
:1027D00040E0BF0180EA94E00E94AE29811104C06C
:1027E00081E080930620A0C088EC809306209CC0E6
:1027F000EFE1F0E2118283E090E08087918741E091
:10280000BF0180EA94E00E94AE29811128C0E7ED63
:10281000F8E22081818190E0A0E0B0E0BA2FA92FFA
:10282000982F8827A22B2281822B80930C259093AE
:102830000D25A0930E25B0930F25EFE1F0E288E57A
:1028400081831086118640E0BF0180EA94E00E94F7
:10285000AE29811104C086E18093062065C083ED16
:102860008093062061C0EFE1F0E2118283E090E006
:102870008087918741E0BF0180EA94E00E94AE2901
:1028800081113FC0E7EDF8E22081818190E0A0E076
:10289000B0E0BA2FA92F982F8827A22B2281822B54
:1028A0008093082590930925A0930A25B0930B25C2
:1028B0008FB78983F894898140910C2550910D251B
:1028C00060910E2570910F2540935C2950935D29EE
:1028D00060935E2970935F294091082550910925E6
:1028E00060910A2570910B254093582950935929DE
:1028F00060935A2970935B298FBF8BE780930620E2
:1029000013C08FED809306200FC0843668F48F5F6C
:102910008093062009C0853109F46ACF8B3209F40F
:10292000A2CF8111F4CF48CF0F90DF91CF910895BE
:10293000CF93DF93D82FC62FDEDEEBE0F0E280E20C
:102940008183AFECB8E2DC931196CC9382E090E007
:102950008087918740E0BF0180E894E00E94AE2923
:1029600065E070E080E090E0BBDEDF91CF910895FC
:102970009F92AF92BF92CF92DF92EF92FF920F930E
:102980001F93CF93DF93B82EA62EEA01FA01019090
:102990000020E9F73197CE2EC41A09F443C00BE0AA
:1029A00010E20F2EF0E39F2EF02D0F2EFFECEF2EF6
:1029B000F8E2FF2EF02DDC2CE6E0EC1520F40F2ED3
:1029C000F6E0DF2EF02D6A2D8B2DB2DF94DEF801BC
:1029D0009182F701D082DD2069F081E02196E82F15
:1029E000F0E0E153F74DDE0111979C9190838F5FEA
:1029F000D816A0F78D2D90E00196F8018087918779
:102A000040E0B80180E894E00E94AE2965E070E003
:102A100080E090E065DE8D2D880F8D0D880FB80E5B
:102A2000CD1849F6DF91CF911F910F91FF90EF9054
:102A3000DF90CF90BF90AF909F9008958F929F921C
:102A4000AF92BF92CF92DF92EF92FF920F931F93BC
:102A5000CF93DF93B22EA32E942E852E69DF4BDE0B
:102A6000CBE0D0E280E389831F930F93FF92EF9234
:102A70008F929F92AF92BF92DF92CF9280ED98E2B9
:102A80009F938F930E94F4478093CF2899270196B4
:102A90008887998740E0BE0180E894E00E94AE29D3
:102AA00065E070E080E090E01BDE8DB79EB70C968D
:102AB0008DBF9EBFDF91CF911F910F91FF90EF903F
:102AC000DF90CF90BF90AF909F908F900895CF925E
:102AD000DF92EF92FF920F931F93CF93DF93F42E29
:102AE000E52ED22EC32E24DF06DECBE0D0E280E33B
:102AF0008983CF92DF92EF92FF921F930F9380ED25
:102B000098E29F938F930E94F4478093CF28992750
:102B100001968887998740E0BE0180E894E00E9492
:102B2000AE2965E070E080E090E0DADD8DB79EB719
:102B300008968DBF9EBFDF91CF911F910F91FF909F
:102B4000EF90DF90CF900895E0E8F6E088E3808B87
:102B5000818BE0E4F6E0808B818B08958F929F92C9
:102B6000AF92BF92CF92DF92EF92FF920F931F939B
:102B7000CF93DF9360E485E00E942D3C6AE270E22F
:102B800080EA94E00E949929E0EAF4E0818188607B
:102B9000818360E483E00E942D3C66E170E280E87E
:102BA00094E00E949929E0E8F4E0818188608183C3
:102BB0001F92C4E4CF9386EF90E29F938F930E947D
:102BC000B14710924E29EFE1F0E2C08380E38183A8
:102BD00083E9828382E090E0848395831086118666
:102BE00040E0BF0180EA94E00E94AE290F900F9070
:102BF0000F900F9081115EC060E177E280E090E07D
:102C00006FDDEFE1F0E280E3818382EA828382E09C
:102C100090E0848395831086118640E0BF0180EAAE
:102C200094E00E94AE29811155C060E177E280E016
:102C300090E056DDEFE1F0E283EF81838DE2828365
:102C400082E090E0848395838087918741E0BF0193
:102C500080EA94E00E94AE2981113CC08091D8287E
:102C600080934E291F928F938DE291E29F938F93D1
:102C70000E94B147EFE1F0E282E2818386E3828342
:102C800082E090E0848395831086118640E0BF0146
:102C900080EA94E00E94AE290F900F900F900F9061
:102CA000811118C081E080934F298FE591E20E9445
:102CB000C44710C0282F082E000C330B3F938F936E
:102CC0008CE791E29F938F930E94B1470F900F90F2
:102CD0000F900F901F928CE08F931F92C8E6CF93B6
:102CE0008DEA91E29F938F930E94B14710927429CD
:102CF00010927329EFE1F0E2C0838BE6818381E0DB
:102D000090E08483958321E82093D728808791875A
:102D100040E0BF0180EA94E00E94AE290F900F903E
:102D20000F900F900F900F9081115BC0EFE1F0E2D8
:102D30008CE080838AE0818381E090E084839583C6
:102D40002FE12093D7288087918740E0BF0180EA58
:102D500094E00E94AE29811154C061E573EC80E0DB
:102D600090E0BEDCEFE1F0E288E6808385E78183D6
:102D700081E090E0848395838087918741E0BF0163
:102D800080EA94E00E94AE2981113BC08091D7284F
:102D900080937429EFE1F0E28CE08083118241E0BE
:102DA000BF0180EA94E00E94AE2981112AC080917F
:102DB000D7288093732991E0909375291F928F9360
:102DC000809174291F928F938AEE91E29F938F9343
:102DD0000E94B1470F900F900F900F900F900F909F
:102DE00010C0282F082E000C330B3F938F938CE7D5
:102DF00091E29F938F930E94B1470F900F900F9095
:102E00000F901F92C6E7CF9385E292E29F938F9334
:102E10000E94B147EFE1F0E2C0838EE1818381E05F
:102E200090E0848395831086118640E0BF0180EA9C
:102E300094E00E94AE290F900F900F900F90811197
:102E40008CC068E97AE380E090E04ADCEFE1F0E2F0
:102E50008EEA818381E090E08483958382E090E034
:102E60008087918741E0BF0180EA94E00E94AE290B
:102E700081111FC0E7EDF8E2808190E0982F88274C
:102E80002181822B929582958F7089279F70892747
:102E900080937029909371299F938F9381E692E29A
:102EA0009F938F930E94B1470F900F900F900F90B8
:102EB000B4C0282F082E000C330B3F938F9387E963
:102EC00092E29F938F930E94B1470F900F900F90C3
:102ED0000F90A3C0CE01880F991F806AF4018183EF
:102EE000A482B582C086D18641E0B40180EA94E034
:102EF0000E94AE29811116C0F801808190E0982FC0
:102F000088272181822BF701819391937F01C7301C
:102F1000D105E9F481E0809372298FE591E20E9466
:102F2000C4472BC0282F082E000C330B3F938F93E0
:102F3000DF93CF938CEC92E29F938F930E94B147E3
:102F40000F900F900F900F900F900F9016C021963A
:102F5000C830D10509F0BECF10C0282F082E000CB4
:102F6000330B3F938F938CE791E29F938F930E9453
:102F7000B1470F900F900F900F9081E093E20E9465
:102F8000C44761ED72E183E190E0AADBEBE0F0E29F
:102F900081E0818381E090E08483958380879187BD
:102FA00041E0BF0180E894E00E94AE298091CF28E3
:102FB00080934529813108F448C0CBE0D0E282E01B
:102FC00089830F2EFFECEF2EF8E2FF2EF02D80E12B
:102FD000F701808301E010E00887198740E0BE0117
:102FE00080E894E00E94AE2965E070E080E090E027
:102FF00077DB81DB84E1898381E0F70180830887C7
:10300000198740E0BE0180E894E00E94AE2965E0A7
:1030100070E080E090E064DB18C00F2EF2E6EF2E47
:10302000F9E2FF2EF02DC1E0D0E00F2EFFE18F2E50
:10303000F0E29F2EF02DAA24A394B12C6894CC2406
:10304000C1F8D12C07ED18E245CFDF91CF911F9148
:103050000F91FF90EF90DF90CF90BF90AF909F9037
:103060008F9008950895CF92DF92EF92FF926B01B7
:103070007C0180914F29882369F1EFE1F0E284E43B
:10308000808380EE8183128282E090E08483958346
:1030900085E090E08087918741E0BF0180EA94E07D
:1030A0000E94AE29811116C0E7EDF8E2808190E020
:1030B000982F88272181822B80934C2990934D292A
:1030C000838190E0982F88272481822B80934A293E
:1030D00090934B2980917229882321F041E0C70108
:1030E000B60152DBFF90EF90DF90CF9008952091D2
:1030F0007229222311F040E047CB08952F923F928E
:103100004F925F926F927F928F929F92AF92BF92F7
:10311000CF92DF92EF92FF920F931F93CF93DF93A3
:10312000CDB7DEB7AA97CDBFDEBF8FB78E83F89439
:103130009E8180914F29109172299FBF882309F4A5
:103140003CC08FB78D83F8948D8120914C293091AC
:103150004D29E0904A29F0904B298FBF2115310568
:10316000A9F08FB78C83F8940C81ACE5B4E40E948D
:10317000C1442FEF3FEF40E050E00E949D442459AE
:10318000314120934829309349290FBFE114F104BC
:10319000A1F08FB78B83F8940B819701A0E1B7E280
:1031A0000E94C1442FEF3FEF40E050E00E949D4459
:1031B00020934629309347290FBF112309F425C2D4
:1031C0008FB78A83F8948A8120915C2930915D2998
:1031D00040915E2950915F292B8F3C8F4D8F5E8FE0
:1031E000409158295091592960915A2970915B2931
:1031F0008FBF8B8D9C8DAD8DBE8D892B8A2B8B2B9C
:1032000031F4411551056105710509F4FEC10F2E18
:10321000F0E62F2EF9E23F2EF02DD1011A968D9176
:103220009C911B97A0E0B0E0BA2FA92F982F882778
:103230002A013B01481A590A6A0A7B0AA301920132
:10324000550F220B322FA9012F83388749875A87C0
:10325000D1011C964D915C911D97A42CB52CC62CC8
:10326000D72CEF80FE2C0E2D1E2D242F352F40E065
:1032700050E060E070E080E090E00E94DA4407E116
:103280000E9444452F87388B498B5A8B2F8538896C
:1032900049895A892FA338A749A75AA7BA01A90172
:1032A0004053584F6F4F7F4F4F8B588F698F7A8F96
:1032B000D10118964D915C911997FE2C0E2D242F5B
:1032C000352F40E050E060E070E080E090E00E9448
:1032D000DA4406E00E9444452B8B3C8B842E952ECD
:1032E000B62FA72F8D8B9E8BF101A480B5802A2D40
:1032F0003B2D40E050E060E070E080E090E001E1D4
:103300000E942B45A22EB32EC42ED52EE62EF72ECC
:10331000082F192F2B893C89482D592D6B2F7A2F77
:103320008D899E890E9462452B8B3C8B4F8F58A3C1
:1033300069A37AA38BA39CA346815781A42CB52CA7
:10334000C62CD72CEF80FE2C0E2D1E2D242F352FB2
:1033500040E050E060E070E080E090E00E94DA44FD
:1033600007E00E9444452D8B3E8B842E952EB62F70
:10337000A72F8DA39EA3F101A280B3802A2D3B2D00
:1033800040E050E060E070E080E090E000E10E940A
:103390002B45A22EB32EC42ED52EE62EF72E082FA7
:1033A000192F2D893E89482D592D6B2F7A2F8DA1EC
:1033B0009EA10E946245322E232E4D8B5E8B6DA303
:1033C0007EA3982E892E2F89388D498D5A8D203DC8
:1033D0003740410551050CF0D0C0A42CB52CC62CAB
:1033E000D72CEF80FE2C0E2D1E2D242D352D462D95
:1033F000572D602F702F802F9E2D0E94DA440FE1F1
:103400000E9444452F83388749875A872F853889FA
:1034100049895A89CA01B9010E9445442B013C01DE
:10342000ADE3B0E09B01AC010E94D0447B018C0174
:10343000689413F815950795F794E7941694D1F7C7
:10344000440C551C661C771C8F89988DA98DBA8DEC
:1034500084329A4FAF4FBF4FC4F56FA178A589A5AD
:103460009AA56455724F8F4F9F4F9B01AC010E94EC
:1034700045449B01AC01220F331F441F551FDC0143
:10348000CB01820F931FA41FB51F5C016D01AA0C15
:10349000BB1CCC1CDD1CAA0CBB1CCC1CDD1C8A0D6F
:1034A0009B1DAC1DBD1DE80EF91E0A1F1B1FDA0176
:1034B000C901880F991FAA1FBB1F880F991FAA1F38
:1034C000BB1F480E591E6A1E7B1E2F89388D498DE1
:1034D0005A8D6F81788589859A85261B370B480B15
:1034E000590B2F8B388F498F5A8FD801C701BB0FCB
:1034F000880B982FDC018F839887A987BA872B893F
:103500003C894F8D58A169A17AA18BA19CA1AE2CB9
:10351000BF2CC02ED12EEF80FE2C0E2D1E2D0E9412
:103520006B452B8B3C8B4F8F58A369A37AA38BA33E
:103530009CA3A3019201550F220B322FA9012F83C7
:10354000388749875A87232D322D4D895E896DA191
:103550007EA1892D982DA42CB52CC62CD72CEF80BC
:10356000FE2C0E2D1E2D0E946B45322E232E4D8BD0
:103570005E8B6DA37EA3982E892E8FB78983F894D6
:1035800079804F89588D698D7A8D40935429509355
:10359000552960935629709357294B8D5C8D6D8DFD
:1035A0007E8D9A01AB0160E070E0CB012F833887FC
:1035B00049875A876B877C878D879E87A32CB22C7F
:1035C000CD88DE88EDA0FEA0092D182D60E070E00A
:1035D00080E090E00E94DA4405E10E944445AB8817
:1035E000BC88CF8CD8A0E9A0FAA00BA11CA10E9496
:1035F0006B450FE00E944445209350293093512998
:1036000040935229509353297FBEAA96CDBFDEBF67
:10361000DF91CF911F910F91FF90EF90DF90CF90AE
:10362000BF90AF909F908F907F906F905F904F90E2
:103630003F902F9008952F923F924F925F926F92FA
:103640007F928F929F92AF92BF92CF92DF92EF9232
:10365000FF920F931F93CF93DF93CDB7DEB72D97D4
:10366000CDBFDEBF20914529213108F40BC2C090A7
:103670000425D0900525E0900625F09007258B01C4
:103680009C010C191D092E093F0901151440210543
:10369000310530F46C157D058E059F0508F011C2CB
:1036A0006093042570930525809306259093072544
:1036B0008FB78983F8948981C090E928D090EA284F
:1036C0006090E7287090E8284090E5285090E62820
:1036D000E090DF28F090E0288090E3289090E428A4
:1036E0002090E1283090E2282091542930915529EA
:1036F00040915629509157292A833B834C835D83FF
:1037000020915029309151294091522950915329AB
:103710002E833F83488759874091482950914929F2
:103720004A875B87E0914629F0914729EC87FD871E
:103730008FBF80910225909103259C012F5F3F4F01
:103740002093022530930325892B09F000C10E94A4
:103750007B130F2EFBE0AF2EF0E2BF2EF02D80E1A9
:10376000F50181831086118640E0B50180E894E080
:103770000E94AE2965E070E080E090E00E94701346
:1037800040E153E262E08CE3F3D84AE153E262E0C5
:1037900084EBEED864E089E0CBD80E947B138AE307
:1037A000F50181830FEC18E283E0F801808381E06A
:1037B00090E0F5018087918740E0B50180E894E0D2
:1037C0000E94AE2965E070E080E090E00E947013F6
:1037D00062E081E0ADD80E947B1324E3F5012183F0
:1037E00026E0F801208334E0318322E030E0F50167
:1037F0002087318740E0B50180E894E00E94AE293F
:1038000065E070E080E090E00E94701362E08CE080
:103810008FD80E947B1324E3F501218326E0F80171
:10382000208334E0318322E030E0F50120873187C6
:1038300040E0B50180E894E00E94AE2965E070E0C8
:1038400080E090E00E9470136BE080E071D80E94ED
:103850007B1382E3F50181838FEEF80180838BE097
:10386000818322E030E0F5012087318740E0B50117
:1038700080E894E00E94AE2965E070E080E090E08E
:103880000E94701344E253E264E180E071D84EE29A
:1038900053E26EE182E16CD845E353E268E282E1F3
:1038A00067D84CE353E262E380E062D846E453E237
:1038B0006CE380E05DD840E553E266E480E058D8F0
:1038C0004AE553E26AE580E053D844E653E264E611
:1038D00080E04ED84EE653E26EE680E049D848E7F5
:1038E00053E268E780E044D842E853E264E180E6CE
:1038F0003FD844E853E26EE180E63AD844E853E228
:1039000068E280E635D844E853E262E380E630D8E6
:1039100044E853E26CE380E62BD844E853E266E4E3
:1039200080E626D842E853E26AE580E621D846E8F8
:1039300053E264E68CE61CD842E853E26EE680E689
:1039400017D84AE853E268E780E612D807C028375C
:10395000310520F010920225109203252AE030E074
:10396000C701B9010E946844CB01B9010E946844B3
:103970009C010F2EF4E6AF2EB12CF02DC701B5013E
:103980000E946844AB010CE813E264E18CE39FD829
:103990000F2EF8EEEF2EF3E0FF2EF02DC301B7014E
:1039A0000E946844AB0106E913E29C016EE18CE3DE
:1039B0008ED8C201B7010E946844AB019C0168E245
:1039C0008CE385D8C601B7010E946844AB019C0115
:1039D00062E38CE37CD8C401B7010E946844AB0168
:1039E0009C016CE38CE373D8C101B7010E94684469
:1039F000AB019C0166E48CE36AD80F2EF4E64F2EEF
:103A0000512C612C712CF02D6A817B818C819D81E0
:103A1000A30192010E949D440F2EFFE9CF2EF3E2F5
:103A2000DF2EF02D7B018C016AE58CE307D86E81D7
:103A30007F8188859985A30192010E949D440F2E64
:103A4000FBEACF2EF3E2DF2EF02D7B018C0164E642
:103A50008CE30E941E158A859B85B5010E946844EF
:103A6000AB0107EB13E29C016EE68CE330D88C854A
:103A70009D85B5010E946844AB019C0168E78CE319
:103A800026D81FC02031E9F40E947B13EBE0F0E25E
:103A900084E88183AFECB8E281E08C9380E81196F2
:103AA0008C9382E090E08087918740E0BF0180E8BE
:103AB00094E00E94AE2969E873E180E090E00E9402
:103AC00070132D96CDBFDEBFDF91CF911F910F9167
:103AD000FF90EF90DF90CF90BF90AF909F908F902E
:103AE0007F906F905F904F903F902F900895089532
:103AF000CF93DF931F92CDB7DEB72FB72983F8940A
:103B00004981282F392F211582E0380729F4609345
:103B1000C12A7093C22A07C02034324021F4609336
:103B2000BF2A7093C02A4FBF0F90DF91CF910895A5
:103B3000811522E0920769F48091112591E0980F98
:103B400090931125811114C062E081E00C942D3C0A
:103B500008958034924061F48091102591E0980F8F
:103B600090931025811104C062E082E00C942D3CFA
:103B70000895811522E0920761F48091112581500A
:103B800080931125811113C062E081E00C94433CC5
:103B900008958034924059F480911025815080938B
:103BA0001025811104C062E082E00C94433C08952A
:103BB000EF92FF921F93CF93DF931F921F92CDB787
:103BC000DEB77C018FB78983F8941981C701B0DF14
:103BD000F7018081816080831FBF8091D42A8F3F4D
:103BE00009F4FFCF8FB78A83F8949A81E3EDFAE264
:103BF00081818F5F81839FBF0F900F90DF91CF9165
:103C00001F91FF90EF9008951F920F920FB60F92A1
:103C100011240BB60F922F933F934F935F936F93A3
:103C20007F938F939F93AF93BF93EF93FF934091B5
:103C3000240250912502E091C12AF091C22A61E04C
:103C400080E092E01995FF91EF91BF91AF919F9124
:103C50008F917F916F915F914F913F912F910F9035
:103C60000BBE0F900FBE0F901F9018951F920F92D2
:103C70000FB60F9211240BB60F922F933F934F93D1
:103C80005F936F937F938F939F93AF93BF93EF93C4
:103C9000FF9340912C0250912D02E091C12AF091A6
:103CA000C22A62E080E092E01995FF91EF91BF9106
:103CB000AF919F918F917F916F915F914F913F91C4
:103CC0002F910F900BBE0F900FBE0F901F90189565
:103CD0001F920F920FB60F9211240BB60F922F93D3
:103CE0003F934F935F936F937F938F939F93AF9384
:103CF000BF93EF93FF934091340250913502E091CE
:103D0000C12AF091C22A64E080E092E01995FF9107
:103D1000EF91BF91AF919F918F917F916F915F9143
:103D20004F913F912F910F900BBE0F900FBE0F90B0
:103D30001F9018951F920F920FB60F9211240BB679
:103D40000F922F933F934F935F936F937F938F9334
:103D50009F93AF93BF93EF93FF9340913C02509199
:103D60003D02E091C12AF091C22A68E080E092E031
:103D70001995FF91EF91BF91AF919F918F917F9195
:103D80006F915F914F913F912F910F900BBE0F90CC
:103D90000FBE0F901F9018951F920F920FB60F92A3
:103DA00011240BB60F922F933F934F935F936F9312
:103DB0007F938F939F93AF93BF93EF93FF93409124
:103DC000640250916502E091BF2AF091C02A61E03F
:103DD00080E492E01995FF91EF91BF91AF919F918F
:103DE0008F917F916F915F914F913F912F910F90A4
:103DF0000BBE0F900FBE0F901F9018951F920F9241
:103E00000FB60F9211240BB60F922F933F934F933F
:103E10005F936F937F938F939F93AF93BF93EF9332
:103E2000FF9340916C0250916D02E091BF2AF09196
:103E3000C02A62E080E492E01995FF91EF91BF9172
:103E4000AF919F918F917F916F915F914F913F9132
:103E50002F910F900BBE0F900FBE0F901F901895D3
:103E60001F920F920FB60F9211240BB60F922F9341
:103E70003F934F935F936F937F938F939F93AF93F2
:103E8000BF93EF93FF934091740250917502E091BC
:103E9000BF2AF091C02A64E080E492E01995FF9176
:103EA000EF91BF91AF919F918F917F916F915F91B2
:103EB0004F913F912F910F900BBE0F900FBE0F901F
:103EC0001F9018951F920F920FB60F9211240BB6E8
:103ED0000F922F933F934F935F936F937F938F93A3
:103EE0009F93AF93BF93EF93FF9340917C025091C8
:103EF0007D02E091BF2AF091C02A68E080E492E060
:103F00001995FF91EF91BF91AF919F918F917F9103
:103F10006F915F914F913F912F910F900BBE0F903A
:103F20000FBE0F901F901895BF92CF92DF92EF9225
:103F3000FF920F931F93CF93DF931F92CDB7DEB7FE
:103F40008C017B01811522E0920781F461E270E02F
:103F500082E00E943544C82ED12C60E270E082E0FD
:103F60000E943544DC2CCC24C82A12C080349240F4
:103F7000D1F565E270E082E00E943544C82ED12C74
:103F800064E270E082E00E943544DC2CCC24C82A34
:103F90008FB78983F894B980C801CADDF8018081A0
:103FA00092E09083C486D586F70125813681F80199
:103FB000208F318FF7019281F8019283F70194816C
:103FC000F8019483F7019381F8019383F7019181BC
:103FD000F80191838170F7019081892BF80180832A
:103FE000C801C7DDBFBE0F90DF91CF911F910F9128
:103FF000FF90EF90DF90CF90BF900895DF92EF9207
:10400000FF920F931F93CF93DF931F92CDB7DEB72D
:104010008C017B018FB78983F894D980C80188DD32
:10402000F8018081807CF7018083F801808D918D7B
:10403000F70185839683F8018281F7018283F80175
:104040008481F7018483F8018381F7018383F80178
:104050008181F7018183C8018CDDDFBE0F90DF9184
:10406000CF911F910F91FF90EF90DF900895AF9245
:10407000BF92CF92DF92EF92FF920F931F93CF9355
:10408000DF931F92CDB7DEB76C01B62E7A01862F73
:10409000837029F4962F9695969582E002C0962F0C
:1040A00080E090FF8F5F8601005E1F4F98E0899F40
:1040B000000D111D11248FB78983F894A980C601C2
:1040C00037DDF7018081F8018083F7018281F801F3
:1040D0008283F7018181F8018183B0FE04C0F7017A
:1040E0008381F8018683C60144DDAFBE0F90DF9166
:1040F000CF911F910F91FF90EF90DF90CF90BF90E5
:10410000AF900895AF92BF92CF92DF92EF92FF925D
:104110000F931F93CF93DF931F92CDB7DEB76C0140
:10412000B62E7A01862F837029F4962F9695969550
:1041300082E002C0962F80E090FF8F5F8601005ED4
:104140001F4F98E0899F000D111D11248FB789839F
:10415000F894A980C601ECDCF8018081F701808326
:10416000F8018281F7018283F8018181F70181835F
:10417000B0FE04C0F8018681F7018383C601F9DC33
:10418000AFBE0F90DF91CF911F910F91FF90EF90F5
:10419000DF90CF90BF90AF9008958032934061F44C
:1041A0008091122591E0980F90931225811104C0FF
:1041B00064E082E00C942D3C08958032934059F4E1
:1041C00080911225815080931225811104C064E0F2
:1041D00082E00C94433C0895EF92FF921F93CF939B
:1041E000DF931F921F92CDB7DEB72FB72983F894C4
:1041F00019812091D42A2F3F09F4FFCF7C018FB77A
:104200008A83F8949A81E3EDFAE281818F5F81835A
:104210009FBFC701C2DFF7018081816080831FBF1C
:104220000F900F90DF91CF911F91FF90EF90089525
:104230009F92AF92BF92CF92DF92EF92FF920F9335
:104240001F93CF93DF931F92CDB7DEB7803223E069
:10425000920709F03CC07B018C0163E370E082E0CF
:104260000E943544982E62E370E082E00E9435445B
:10427000A82E67E370E082E00E943544B82E66E322
:1042800070E082E00E943544C82E8FB78983F8948D
:10429000D980C80182DFF80180811082F701918105
:1042A000F8019183F7019281F8019283F7019381DC
:1042B000F80193839086A186B286C3868170F70148
:1042C0009081892BF8018083C80177DFDFBE0F90D2
:1042D000DF91CF911F910F91FF90EF90DF90CF90E2
:1042E000BF90AF909F900895DF92EF92FF920F934F
:1042F0001F93CF93DF931F92CDB7DEB78C017B0165
:104300008FB78983F894D980C80147DFF80180818D
:104310008E7FF7018083F8018181F7018183F801A5
:104320008281F7018283F8018381F7018383C801C9
:1043300044DFDFBE0F90DF91CF911F910F91FF906F
:10434000EF90DF9008951F920F920FB60F921124F5
:104350000BB60F922F933F934F935F936F937F937F
:104360008F939F93AF93BF93EF93FF93E091592562
:10437000F0915A25309709F01995FF91EF91BF916F
:10438000AF919F918F917F916F915F914F913F91ED
:104390002F910F900BBE0F900FBE0F901F9018958E
:1043A0001F920F920FB60F9211240BB60F922F93FC
:1043B0003F934F935F936F937F938F939F93AF93AD
:1043C000BF93EF93FF93E0915725F09158253097D5
:1043D00009F01995FF91EF91BF91AF919F918F9146
:1043E0007F916F915F914F913F912F910F900BBEF5
:1043F0000F900FBE0F901F9018951F920F920FB63F
:104400000F9211240BB60F922F933F934F935F930C
:104410006F937F938F939F93AF93BF93EF93FF938C
:10442000E0915525F0915625309709F01995FF91A7
:10443000EF91BF91AF919F918F917F916F915F911C
:104440004F913F912F910F900BBE0F900FBE0F9089
:104450001F9018951F920F920FB60F9211240BB652
:104460000F922F933F934F935F936F937F938F930D
:104470009F93AF93BF93EF93FF93E0915325F091F8
:104480005425309709F01995FF91EF91BF91AF91A5
:104490009F918F917F916F915F914F913F912F915C
:1044A0000F900BBE0F900FBE0F901F9018951F928C
:1044B0000F920FB60F9211240BB60F922F933F93CA
:1044C0004F935F936F937F938F939F93AF93BF931C
:1044D000EF93FF93E0915125F0915225309709F029
:1044E0001995FF91EF91BF91AF919F918F917F911E
:1044F0006F915F914F913F912F910F900BBE0F9055
:104500000FBE0F901F9018951F920F920FB60F922B
:1045100011240BB60F922F933F934F935F936F939A
:104520007F938F939F93AF93BF93EF93FF93E0910C
:104530004F25F0915025309709F01995FF91EF9193
:10454000BF91AF919F918F917F916F915F914F91AB
:104550003F912F910F900BBE0F900FBE0F901F90A9
:1045600018951F920F920FB60F9211240BB60F924F
:104570002F933F934F935F936F937F938F939F936B
:10458000AF93BF93EF93FF93E0914D25F0914E25AC
:10459000309709F01995FF91EF91BF91AF919F91DD
:1045A0008F917F916F915F914F913F912F910F90DC
:1045B0000BBE0F900FBE0F901F9018951F920F9279
:1045C0000FB60F9211240BB60F922F933F934F9378
:1045D0005F936F937F938F939F93AF93BF93EF936B
:1045E000FF93E0914B25F0914C25309709F01995F8
:1045F000FF91EF91BF91AF919F918F917F916F91BB
:104600005F914F913F912F910F900BBE0F900FBE76
:104610000F901F9018951F920F920FB60F921124B2
:104620000BB60F922F933F934F935F936F937F93AC
:104630008F939F93AF93BF93EF93FF93E09149259F
:10464000F0914A25309709F01995FF91EF91BF91AC
:10465000AF919F918F917F916F915F914F913F911A
:104660002F910F900BBE0F900FBE0F901F901895BB
:104670001F920F920FB60F9211240BB60F922F9329
:104680003F934F935F936F937F938F939F93AF93DA
:10469000BF93EF93FF93E0914725F0914825309722
:1046A00009F01995FF91EF91BF91AF919F918F9173
:1046B0007F916F915F914F913F912F910F900BBE22
:1046C0000F900FBE0F901F9018951F920F920FB66C
:1046D0000F9211240BB60F922F933F934F935F933A
:1046E0006F937F938F939F93AF93BF93EF93FF93BA
:1046F000E0914525F0914625309709F01995FF91F5
:10470000EF91BF91AF919F918F917F916F915F9149
:104710004F913F912F910F900BBE0F900FBE0F90B6
:104720001F9018951F920F920FB60F9211240BB67F
:104730000F922F933F934F935F936F937F938F933A
:104740009F93AF93BF93EF93FF93E0914325F09135
:104750004425309709F01995FF91EF91BF91AF91E2
:104760009F918F917F916F915F914F913F912F9189
:104770000F900BBE0F900FBE0F901F9018951F92B9
:104780000F920FB60F9211240BB60F922F933F93F7
:104790004F935F936F937F938F939F93AF93BF9349
:1047A000EF93FF93E0914125F0914225309709F076
:1047B0001995FF91EF91BF91AF919F918F917F914B
:1047C0006F915F914F913F912F910F900BBE0F9082
:1047D0000FBE0F901F9018951F920F920FB60F9259
:1047E00011240BB60F922F933F934F935F936F93C8
:1047F0007F938F939F93AF93BF93EF93FF93E0913A
:104800003F25F0914025309709F01995FF91EF91E0
:10481000BF91AF919F918F917F916F915F914F91D8
:104820003F912F910F900BBE0F900FBE0F901F90D6
:1048300018951F920F920FB60F9211240BB60F927C
:104840002F933F934F935F936F937F938F939F9398
:10485000AF93BF93EF93FF93E0913D25F0913E25F9
:10486000309709F01995FF91EF91BF91AF919F910A
:104870008F917F916F915F914F913F912F910F9009
:104880000BBE0F900FBE0F901F9018951F920F92A6
:104890000FB60F9211240BB60F922F933F934F93A5
:1048A0005F936F937F938F939F93AF93BF93EF9398
:1048B000FF93E0913B25F0913C25309709F0199545
:1048C000FF91EF91BF91AF919F918F917F916F91E8
:1048D0005F914F913F912F910F900BBE0F900FBEA4
:1048E0000F901F9018951F920F920FB60F921124E0
:1048F0000BB60F922F933F934F935F936F937F93DA
:104900008F939F93AF93BF93EF93FF93E0913925DC
:10491000F0913A25309709F01995FF91EF91BF91E9
:10492000AF919F918F917F916F915F914F913F9147
:104930002F910F900BBE0F900FBE0F901F901895E8
:104940001F920F920FB60F9211240BB60F922F9356
:104950003F934F935F936F937F938F939F93AF9307
:10496000BF93EF93FF93E0913725F091382530976F
:1049700009F01995FF91EF91BF91AF919F918F91A0
:104980007F916F915F914F913F912F910F900BBE4F
:104990000F900FBE0F901F9018951F920F920FB699
:1049A0000F9211240BB60F922F933F934F935F9367
:1049B0006F937F938F939F93AF93BF93EF93FF93E7
:1049C000E0913525F0913625309709F01995FF9142
:1049D000EF91BF91AF919F918F917F916F915F9177
:1049E0004F913F912F910F900BBE0F900FBE0F90E4
:1049F0001F9018951F920F920FB60F9211240BB6AD
:104A00000F922F933F934F935F936F937F938F9367
:104A10009F93AF93BF93EF93FF93E0913325F09172
:104A20003425309709F01995FF91EF91BF91AF911F
:104A30009F918F917F916F915F914F913F912F91B6
:104A40000F900BBE0F900FBE0F901F9018951F92E6
:104A50000F920FB60F9211240BB60F922F933F9324
:104A60004F935F936F937F938F939F93AF93BF9376
:104A7000EF93FF93E0913125F0913225309709F0C3
:104A80001995FF91EF91BF91AF919F918F917F9178
:104A90006F915F914F913F912F910F900BBE0F90AF
:104AA0000FBE0F901F9018951F920F920FB60F9286
:104AB00011240BB60F922F933F934F935F936F93F5
:104AC0007F938F939F93AF93BF93EF93FF93E09167
:104AD0002F25F0913025309709F01995FF91EF912E
:104AE000BF91AF919F918F917F916F915F914F9106
:104AF0003F912F910F900BBE0F900FBE0F901F9004
:104B000018951F920F920FB60F9211240BB60F92A9
:104B10002F933F934F935F936F937F938F939F93C5
:104B2000AF93BF93EF93FF93E0912D25F0912E2546
:104B3000309709F01995FF91EF91BF91AF919F9137
:104B40008F917F916F915F914F913F912F910F9036
:104B50000BBE0F900FBE0F901F9018951F920F92D3
:104B60000FB60F9211240BB60F922F933F934F93D2
:104B70005F936F937F938F939F93AF93BF93EF93C5
:104B8000FF93E0912B25F0912C25309709F0199592
:104B9000FF91EF91BF91AF919F918F917F916F9115
:104BA0005F914F913F912F910F900BBE0F900FBED1
:104BB0000F901F9018951F920F920FB60F9211240D
:104BC0000BB60F922F933F934F935F936F937F9307
:104BD0008F939F93AF93BF93EF93FF93E09129251A
:104BE000F0912A25309709F01995FF91EF91BF9127
:104BF000AF919F918F917F916F915F914F913F9175
:104C00002F910F900BBE0F900FBE0F901F90189515
:104C10001F920F920FB60F9211240BB60F922F9383
:104C20003F934F935F936F937F938F939F93AF9334
:104C3000BF93EF93FF93E0912725F09128253097BC
:104C400009F01995FF91EF91BF91AF919F918F91CD
:104C50007F916F915F914F913F912F910F900BBE7C
:104C60000F900FBE0F901F9018951F920F920FB6C6
:104C70000F9211240BB60F922F933F934F935F9394
:104C80006F937F938F939F93AF93BF93EF93FF9314
:104C9000E0912525F0912625309709F01995FF918F
:104CA000EF91BF91AF919F918F917F916F915F91A4
:104CB0004F913F912F910F900BBE0F900FBE0F9011
:104CC0001F9018951F920F920FB60F9211240BB6DA
:104CD0000F922F933F934F935F936F937F938F9395
:104CE0009F93AF93BF93EF93FF93E0912325F091B0
:104CF0002425309709F01995FF91EF91BF91AF915D
:104D00009F918F917F916F915F914F913F912F91E3
:104D10000F900BBE0F900FBE0F901F9018951F9213
:104D20000F920FB60F9211240BB60F922F933F9351
:104D30004F935F936F937F938F939F93AF93BF93A3
:104D4000EF93FF93E0912125F0912225309709F010
:104D50001995FF91EF91BF91AF919F918F917F91A5
:104D60006F915F914F913F912F910F900BBE0F90DC
:104D70000FBE0F901F9018951F920F920FB60F92B3
:104D800011240BB60F922F933F934F935F936F9322
:104D90007F938F939F93AF93BF93EF93FF93E09194
:104DA0001F25F0912025309709F01995FF91EF917B
:104DB000BF91AF919F918F917F916F915F914F9133
:104DC0003F912F910F900BBE0F900FBE0F901F9031
:104DD00018951F920F920FB60F9211240BB60F92D7
:104DE0002F933F934F935F936F937F938F939F93F3
:104DF000AF93BF93EF93FF93E0911D25F0911E2594
:104E0000309709F01995FF91EF91BF91AF919F9164
:104E10008F917F916F915F914F913F912F910F9063
:104E20000BBE0F900FBE0F901F9018951F920F9200
:104E30000FB60F9211240BB60F922F933F934F93FF
:104E40005F936F937F938F939F93AF93BF93EF93F2
:104E5000FF93E0911B25F0911C25309709F01995DF
:104E6000FF91EF91BF91AF919F918F917F916F9142
:104E70005F914F913F912F910F900BBE0F900FBEFE
:104E80000F901F9018951F920F920FB60F9211243A
:104E90000BB60F922F933F934F935F936F937F9334
:104EA0008F939F93AF93BF93EF93FF93E091192557
:104EB000F0911A25309709F01995FF91EF91BF9164
:104EC000AF919F918F917F916F915F914F913F91A2
:104ED0002F910F900BBE0F900FBE0F901F90189543
:104EE0001F920F920FB60F9211240BB60F922F93B1
:104EF0003F934F935F936F937F938F939F93AF9362
:104F0000BF93EF93FF93E0911725F0911825309709
:104F100009F01995FF91EF91BF91AF919F918F91FA
:104F20007F916F915F914F913F912F910F900BBEA9
:104F30000F900FBE0F901F9018951F920F920FB6F3
:104F40000F9211240BB60F922F933F934F935F93C1
:104F50006F937F938F939F93AF93BF93EF93FF9341
:104F6000E0911525F0911625309709F01995FF91DC
:104F7000EF91BF91AF919F918F917F916F915F91D1
:104F80004F913F912F910F900BBE0F900FBE0F903E
:104F90001F9018951F920F920FB60F9211240BB607
:104FA0000F922F933F934F935F936F937F938F93C2
:104FB0009F93AF93BF93EF93FF93E0911325F091ED
:104FC0001425309709F01995FF91EF91BF91AF919A
:104FD0009F918F917F916F915F914F913F912F9111
:104FE0000F900BBE0F900FBE0F901F9018951F9340
:104FF000CF93DF931F921F92CDB7DEB72FB72A83CF
:10500000F8941A81282F392F211588E0380749F4A0
:1050100061E083E00E942D3C64E083E00E942D3C2F
:105020004FC0203488E0380749F462E083E00E94F2
:105030002D3C64E083E00E942D3C42C0211589E0B4
:10504000380749F461E084E00E942D3C64E084E08C
:105050000E942D3C35C0203489E0380749F462E0D5
:1050600084E00E942D3C64E084E00E942D3C28C036
:1050700021158AE0380749F461E085E00E942D3C63
:1050800064E085E00E942D3C1BC020348AE0380794
:1050900049F462E085E00E942D3C64E085E00E94D6
:1050A0002D3C0EC021153B4049F461E086E00E9492
:1050B0002D3C64E086E00E942D3C02C01FBF10C062
:1050C0008091D42A8F3F09F4FFCF8FB78983F8945A
:1050D0009981E3EDFAE281818F5F81839FBF1FBFDA
:1050E0000F900F90DF91CF911F910895811528E0C7
:1050F000920729F46093592570935A2508958034B6
:1051000028E0920729F460934D2570934E25089569
:10511000811529E0920729F460934525709346256F
:105120000895803429E0920729F46093392570931B
:105130003A25089581152AE0920729F460933125D4
:1051400070933225089580342AE0920729F4609301
:10515000252570932625089581159B4021F46093A1
:105160001D2570931E250895CF93DF93E0915B2555
:10517000F0915C25848183FF08C08860848383E08C
:10518000838386EF8093652583C0982F947131F0D7
:1051900083E083838FEF809365257AC086FF43C0C9
:1051A000CBE5D5E2AA81BB818C819D8114962D919E
:1051B0003C911597821793076CF49C012F5F3F4F2A
:1051C00020935F2530936025A80FB91F11968C910D
:1051D00087835EC0809161259091622518962D91FC
:1051E0003C91199782179307C8F4209163252223D5
:1051F00021F08681816086834BC016962D913C916B
:105200001797AC014F5F5F4F409361255093622524
:10521000D901A80FB91F8C9187833AC083E083839B
:105220001092652535C0882384F5ABE5B5E212966A
:10523000CD91DC91139716968D919C9117972885A7
:10524000398582179307D8F46E817F819C012F5F87
:105250003F4F20936125309362254781DB01A80FE2
:10526000B91F4C93888599852817390718F482E06F
:1052700083830EC087E083831092652509C083E095
:10528000838389EF8093652503C08BEF8093652529
:10529000DF91CF9108951F920F920FB60F921124B4
:1052A0000BB60F922F933F934F935F936F937F9320
:1052B0008F939F93AF93BF93EF93FF9355DFFF912E
:1052C000EF91BF91AF919F918F917F916F915F917E
:1052D0004F913F912F910F900BBE0F900FBE0F90EB
:1052E0001F9018951F920F920FB60F9211240BB6B4
:1052F0000F922F933F934F935F936F937F938F936F
:105300009F93AF93BF93EF93FF932EDFFF91EF91A6
:10531000BF91AF919F918F917F916F915F914F91CD
:105320003F912F910F900BBE0F900FBE0F901F90CB
:105330001895FC01DB0114968C91858388EB8183A1
:1053400081E08483EBE5F5E211861286E0EAF0E085
:10535000828182608283789480E00895CF93DF9386
:105360001F92CDB7DEB79C01FB01892B09F451C018
:10537000309709F450C0928580916425882319F0F4
:105380009923F1F34AC08FB78983F8948981ABE5FB
:10539000B5E291E019969C93199790E81A969C9320
:1053A0001A978FBF2D933C93119712966D937C9310
:1053B000139714961D921C92159716961D921C9287
:1053C000179718964C938081880F64817581672B9D
:1053D00011F4411103C0F901868303C08160F90112
:1053E0008683EBE5F5E292859038E9F3F901848153
:1053F0008370813049F0ABE5B5E2ED91FC911197F6
:10540000848183708130C9F7EBE5F5E282851186EE
:1054100005C088EF03C088EF01C086EF0F90DF91D1
:10542000CF910895CF93DF931F921F92CDB7DEB730
:10543000811126C0909190269923F9F09091D42A59
:10544000911101C0FFCF9FB79A83F8942A81E3EDB1
:10545000FAE29181915091832FBF0FC09091D42A8D
:105460009F3F09F4FFCF9FB79983F8942981E3ED1B
:10547000FAE291819F5F91832FBF8093902605C0B0
:1054800090919026992351F3F8CF0F900F90DF91D0
:10549000CF9108950F93E8ECF4E080818F7D8083B5
:1054A00080818F7D8083E4E6F6E202E0059310922E
:1054B00066261092672600E2069300E40693ECE568
:1054C000F6E200E40693E3ECFAE21486158616860B
:1054D00017861286138610924F260F9108950F9308
:1054E00085E080934F26E5E6F6E204E00593EDE5DE
:1054F000F6E204E005930F9108950F9383E0809303
:105500004F261092662610926726E4E6F6E202E045
:1055100006930F910895E091CF2AF091D02A309709
:1055200009F0199508950F93CF93DF9380914F263B
:10553000833019F4F0DFAEDF5EC080914B2690918E
:105540004C26C091CD2AD091CE2AC81BD90B71F51B
:1055500020914D2630914E26820F931F80934D2629
:1055600090934E262091C92A3091CA2A8217930718
:1055700021F080916625882341F084E080934F26B6
:10558000ECE5F6E202E0069336C0E091D12AF09114
:10559000D22A309799F01995882381F010924B26E2
:1055A00010924C26C091CD2AD091CE2AC034D1057C
:1055B00028F010926625C0E4D0E003C081E080931B
:1055C0006625E0E5F6E2C68BD78B80914B2690915D
:1055D0004C262091CB2A3091CC2A280F391F208FBE
:1055E000318FC80FD91FC0934B26D0934C26E4E6C9
:1055F000F6E202E00693DF91CF910F910895FC014E
:105600008181E82FE7708E2F90E0FC013197E73021
:10561000F105D8F48827E250FF4F8F4F0C94B9441E
:1056200080E190E0089580E290E0089580E490E0C9
:10563000089580E890E0089580E091E0089580E08A
:1056400092E008958FEF93E0089588E090E0089548
:10565000282F2F7030E0220F331F082E000C990BDB
:105660008827990F881F9927820F931F02979C0103
:10567000220F331F220F331F220F331F820F931F5E
:1056800089519A4D08950F93CF938091CC0480FF58
:1056900065C081E08093CC04ECE5F6E200E8069377
:1056A000E4E6F6E200E806938093CA04ECE5F6E24D
:1056B00000E1069380914F26882329F083508230A1
:1056C00008F429DFE7DE80915E2690915F26089737
:1056D00009F046C088E0EBE0F6E2A3ECBAE2019004
:1056E0000D928A95E1F7E8ECF4E080818062808396
:1056F0008081806280830E941541C82F811103C080
:10570000EEDEC1E02EC08091C32A88236CF4109293
:105710004D2610924E2610924B2610924C2682E077
:1057200080934F2600DF1DC08091C92A9091CA2A1C
:10573000892B11F4E2DE15C010924D2610924E26F0
:1057400010924B2610924C2681E080934F26ECE578
:10575000F6E202E0069300E2069303C0C0E001C057
:10576000C1E08C2FCF910F9108958F929F92AF92AD
:10577000BF92DF92EF92FF920F931F93CF93DF932D
:10578000D82E66DF8C01CD2DCF70D0E0CE01880FF2
:10579000991FCD2D0D2C000CDD0BCC27DD0FCC1F60
:1057A000DD27C80FD91FCE01880F991F880F991FB9
:1057B000880F991F9C01245A394D7901C9011FDFB7
:1057C0004C01DD200CF07BC0FE01EE0FFF1FEE0F41
:1057D000FF1FEE0FFF1FE05BF94D22893389D801CF
:1057E00015968D919C911697820F931F15968D9308
:1057F0009C93169713962D913C91149782179307BB
:1058000009F447C0281B390B2115B4E03B0740F0D1
:105810002FEF33E0C901B4010E945444281B390B17
:10582000F801808181FF0AC0C901B4010E9454447B
:1058300041E0892B09F040E0842F01C080E0D801CD
:105840009C9180FB91F99C93FE01EE0FFF1FEE0FE0
:10585000FF1FEE0FFF1FE05BF94D128A138A2687A8
:10586000378711962D913C91129715968D919C91A9
:105870001697820F931FCC0FDD1FCC0FDD1FCC0FAF
:10588000DD1FC05AD94D88839983F70102E0069342
:10589000E4C0D8018C9181FFCDC08D7F8C93CC0F5B
:1058A000DD1FCC0FDD1FCC0FDD1FC05BD94D1A8A69
:1058B0001B8A1E861F86F70102E00693CEC0FE01FA
:1058C000EE0FFF1FEE0FFF1FEE0FFF1FE05BF94D06
:1058D000A684B784D8018C9182FF1BC01196ED91EC
:1058E000FC91129715962D913C91169713968D91D8
:1058F0009C911497B4010E945444B0E4DB9EB00123
:105900001124695D7A4DAC01CF01820F931F0E9473
:105910005E47F801258136812A0D3B1D258336839C
:10592000838194818217930768F485839683CC0FD3
:10593000DD1FCC0FDD1FCC0FDD1FC05BD94D8A8969
:105940009B8978C0FE01EE0FFF1FEE0FFF1FEE0FC9
:10595000FF1FE05BF94D42895389A416B50609F093
:1059600069C02817390709F465C0AC01421B530B05
:105970009A01211554E0350748F02FEF33E0C901B3
:10598000B4010E945444281B390B06C0C901B4015C
:105990000E945444281B390BFE01EE0FFF1FEE0F2F
:1059A000FF1FEE0FFF1FE05BF94D168617862815C7
:1059B000390500F5D8018C9184608C93B0E4DB9EAE
:1059C000C0011124895D9A4DFE01EE0FFF1FEE0FFD
:1059D000FF1FEE0FFF1FE05AF94D80839183CC0F1C
:1059E000DD1FCC0FDD1FCC0FDD1FC05BD94D8A8AB8
:1059F0009B8A1CC0F8014181528185819681840F68
:105A0000951FFE01EE0FFF1FEE0FFF1FEE0FFF1F92
:105A1000E05AF94D80839183CC0FDD1FCC0FDD1F41
:105A2000CC0FDD1FC05BD94D2A8B3B8BF70102E009
:105A3000069313C0D8018C9180FF0FC08E7F8C938A
:105A40001796ED91FC911897309739F015966D9156
:105A50007C9116974D2D80E01995DF91CF911F9184
:105A60000F91FF90EF90DF90BF90AF909F908F903D
:105A700008951F93CF93DF931F92CDB7DEB78FB7F3
:105A80008983F894198181E0CDDCEAECF4E080E4CC
:105A9000808380E28083E1ECF4E080818160808318
:105AA000A9ECB4E08C9182608C93E8ECF4E0808106
:105AB000806480838C9181608C93808180688083F6
:105AC0001FBF0F90DF91CF911F9108950F931F93E8
:105AD000CF93DF931F921F92CDB7DEB700E610E0A1
