:100000000C940C110C942D110C942D110C942D1199
:100010000C942D110C942D110C94BA110C94E21126
:100020000C940A120C9432120C942D110C9400139F
:100030000C942D110C94B9200C944F190C947C192C
:100040000C94A9190C94D6190C94031A0C94301A18
:100050000C945D1A0C948A1A0C94B71A0C94E41A36
:100060000C942D110C942D110C942D110C942D1118
:100070000C942D110C942D110C942D110C942D1108
:100080000C942D110C942D110C942D110C942D11F8
:100090000C942D110C942D110C942D110C94781698
:1000A0000C94AA160C94DC160C940E170C942D11BB
:1000B0000C942D110C942D110C94E0200C94D31C55
:1000C0000C94001D0C942D1D0C945A1D0C94871D2E
:1000D0000C94B41D0C94E11D0C940E1E0C943B1E4C
:1000E0000C94681E0C942D110C942D110C942D1150
:1000F0000C942D110C942D110C942D110C942D1188
:100100000C942D110C942D110C942D110C942D1177
:100110000C942D110C942D110C942D110C94B015E0
:100120000C94E2150C9414160C9446160C942D1194
:100130000C942D110C94111B0C943E1B0C946B1BF6
:100140000C94981B0C94C51B0C94F21B0C941F1C54
:100150000C944C1C0C94791C0C94A61C0C942D1122
:100160000C942D110C942D110C942D110C942D1117
:100170000C942D110C942D110C942D110C942D1107
:100180000C942D110C942D110C942D110C942D11F7
:100190000C942D110C942D110C942D110C942D11E7
:1001A0000C942D110C942D110C942D110C942D11D7
:1001B0000C94951E0C94C21E0C94EF1E0C941C1FE4
:1001C0000C94491F0C94761F0C942D110C942D1136
:1001D0000C942D110C942D110C942D110C942D11A7
:1001E0000C942D110C942D110C942D110C942D1197
:1001F0000C942D110C949D270C9457287E2281225B
:10020000842287228A228D229022CF29E229F52971
:10021000082A1B2A2E2A412A008032806480968078
:10022000C980FB802D815F819281C481F681288203
:100230005B828D82BF82F182248356838883BA8356
:10024000ED831F8451848384B684E8841A854C85A9
:100250007E85B185E385158647867A86AC86DE86FF
:10026000108742877487A787D9870B883D886F8856
:10027000A188D488068938896A899C89CE89008AB0
:10028000328A658A978AC98AFB8A2D8B5F8B918B0C
:10029000C38BF58B278C598C8B8CBD8CEF8C218D6F
:1002A000538D858DB78DE98D1B8E4D8E7F8EB18ED2
:1002B000E38E158F478F798FAB8FDC8F0E90409038
:1002C0007290A490D690079139916B919D91CF91A6
:1002D0000092329264929692C792F9922B935D9318
:1002E0008E93C093F293239455948694B894EA9491
:1002F0001B954D957E95B095E1951396449676960F
:10030000A796D9960A973C976D979F97D097019893
:10031000339864989598C798F89829995B998C991F
:10032000BD99EE99209A519A829AB39AE49A159BB4
:10033000469B789BA99BDA9B0B9C3C9C6D9C9E9C4E
:10034000CF9C009D319D629D939DC39DF49D259EF4
:10035000569E879EB89EE89E199F4A9F7B9FAB9FA3
:10036000DC9F0DA03DA06EA09FA0CFA000A130A15A
:1003700061A191A1C2A1F2A123A253A284A2B4A21D
:10038000E4A215A345A375A3A6A3D6A306A436A4E9
:1003900067A497A4C7A4F7A427A557A587A5B7A5C1
:1003A000E7A517A647A677A6A7A6D7A607A737A7A4
:1003B00067A797A7C6A7F6A726A856A885A8B5A891
:1003C000E5A814A944A973A9A3A9D2A902AA31AA8C
:1003D00061AA90AAC0AAEFAA1EAB4EAB7DABACAB94
:1003E000DBAB0BAC3AAC69AC98ACC7ACF6AC25ADAA
:1003F00054AD83ADB2ADE1AD10AE3FAE6EAE9DAECD
:10040000CCAEFAAE29AF58AF86AFB5AFE4AF12B0FD
:1004100041B06FB09EB0CCB0FBB029B158B186B13D
:10042000B4B1E3B111B23FB26DB29CB2CAB2F8B28C
:1004300026B354B382B3B0B3DEB30CB43AB468B4E9
:1004400096B4C3B4F1B41FB54DB57AB5A8B5D6B559
:1004500003B631B65EB68CB6B9B6E7B614B741B7D7
:100460006FB79CB7C9B7F6B724B851B87EB8ABB868
:10047000D8B805B932B95FB98CB9B9B9E6B912BA09
:100480003FBA6CBA99BAC5BAF2BA1FBB4BBB78BBBC
:10049000A4BBD1BBFDBB29BC56BC82BCAEBCDBBC83
:1004A00007BD33BD5FBD8BBDB7BDE3BD0FBE3BBE5A
:1004B00067BE93BEBFBEEBBE16BF42BF6EBF99BF45
:1004C000C5BFF0BF1CC047C073C09EC0CAC0F5C046
:1004D00020C14CC177C1A2C1CDC1F8C123C24EC257
:1004E00079C2A4C2CFC2FAC225C350C37AC3A5C37E
:1004F000D0C3FAC325C44FC47AC4A4C4CFC4F9C4BA
:1005000023C54EC578C5A2C5CCC5F6C520C64AC60A
:1005100074C69EC6C8C6F2C61CC746C76FC799C771
:10052000C3C7ECC716C83FC869C892C8BCC8E5C8ED
:100530000EC938C961C98AC9B3C9DCC905CA2ECA7E
:1005400057CA80CAA9CAD2CAFACA23CB4CCB74CB29
:100550009DCBC5CBEECB16CC3FCC67CC8FCCB8CCEB
:10056000E0CC08CD30CD58CD80CDA8CDD0CDF8CDC4
:1005700020CE48CE6FCE97CEBFCEE6CE0ECF35CFB3
:100580005DCF84CFACCFD3CFFACF21D049D070D0BC
:1005900097D0BED0E5D00CD133D159D180D1A7D1DD
:1005A000CED1F4D11BD241D268D28ED2B5D2DBD219
:1005B00001D328D34ED374D39AD3C0D3E6D30CD46B
:1005C00032D458D47DD4A3D4C9D4EFD414D53AD5D9
:1005D0005FD585D5AAD5CFD5F4D51AD63FD664D662
:1005E00089D6AED6D3D6F8D61DD742D766D78BD705
:1005F000B0D7D4D7F9D71DD842D866D88AD8AFD8C3
:10060000D3D8F7D81BD93FD963D987D9ABD9CFD99C
:10061000F3D916DA3ADA5EDA81DAA5DAC8DAECDA90
:100620000FDB32DB56DB79DB9CDBBFDBE2DB05DC9F
:1006300028DC4BDC6DDC90DCB3DCD6DCF8DC1BDDCD
:100640003DDD5FDD82DDA4DDC6DDE9DD0BDE2DDE17
:100650004FDE71DE93DEB4DED6DEF8DE1ADF3BDF7E
:100660005DDF7EDFA0DFC1DFE2DF04E025E046E002
:1006700067E088E0A9E0CAE0EBE00CE12DE14DE1A4
:100680006EE18EE1AFE1CFE1F0E110E230E251E264
:1006900071E291E2B1E2D1E2F1E211E330E350E341
:1006A00070E38FE3AFE3CEE3EEE30DE42DE44CE43F
:1006B0006BE48AE4A9E4C8E4E7E406E525E544E55B
:1006C00062E581E5A0E5BEE5DDE5FBE519E638E696
:1006D00056E674E692E6B0E6CEE6ECE60AE728E7F0
:1006E00045E763E781E79EE7BCE7D9E7F7E714E86A
:1006F00031E84EE86BE888E8A5E8C2E8DFE8FCE806
:1007000019E935E952E96EE98BE9A7E9C4E9E0E9BD
:10071000FCE918EA34EA50EA6CEA88EAA4EAC0EA9A
:10072000DBEAF7EA13EB2EEB4AEB65EB80EB9CEB95
:10073000B7EBD2EBEDEB08EC23EC3EEC58EC73ECB2
:100740008EECA8ECC3ECDDECF8EC12ED2CED47EDF3
:1007500061ED7BED95EDAFEDC9EDE3EDFCED16EE52
:1007600030EE49EE63EE7CEE95EEAFEEC8EEE1EED4
:10077000FAEE13EF2CEF45EF5EEF76EF8FEFA8EF79
:10078000C0EFD9EFF1EF09F022F03AF052F06AF041
:1007900082F09AF0B2F0CAF0E1F0F9F011F128F12C
:1007A00040F157F16EF186F19DF1B4F1CBF1E2F138
:1007B000F9F110F226F23DF254F26AF281F297F268
:1007C000AEF2C4F2DAF2F0F206F31CF332F348F3BD
:1007D0005EF374F389F39FF3B5F3CAF3DFF3F5F334
:1007E0000AF41FF434F449F45EF473F488F49DF4CD
:1007F000B1F4C6F4DBF4EFF403F518F52CF540F58D
:1008000054F568F57CF590F5A4F5B8F5CCF5DFF571
:10081000F3F506F61AF62DF640F653F667F67AF675
:100820008DF6A0F6B2F6C5F6D8F6EAF6FDF610F7A4
:1008300022F734F747F759F76BF77DF78FF7A1F7F2
:10084000B3F7C4F7D6F7E8F7F9F70BF81CF82EF86A
:100850003FF850F861F872F883F894F8A5F8B6F804
:10086000C6F8D7F8E7F8F8F808F919F929F939F9C5
:1008700049F959F969F979F989F998F9A8F9B8F9AB
:10088000C7F9D7F9E6F9F5F904FA14FA23FA32FAB6
:1008900041FA4FFA5EFA6DFA7CFA8AFA99FAA7FAE7
:1008A000B5FAC4FAD2FAE0FAEEFAFCFA0AFB18FB3F
:1008B00025FB33FB41FB4EFB5CFB69FB76FB83FBBB
:1008C00091FB9EFBABFBB8FBC4FBD1FBDEFBEBFB60
:1008D000F7FB04FC10FC1CFC29FC35FC41FC4DFC26
:1008E00059FC65FC70FC7CFC88FC93FC9FFCAAFC1A
:1008F000B6FCC1FCCCFCD7FCE2FCEDFCF8FC03FD33
:100900000EFD18FD23FD2EFD38FD42FD4DFD57FD6A
:1009100061FD6BFD75FD7FFD89FD93FD9CFDA6FDD1
:10092000B0FDB9FDC2FDCCFDD5FDDEFDE7FDF0FD5E
:10093000F9FD02FE0BFE13FE1CFE25FE2DFE36FE0B
:100940003EFE46FE4EFE56FE5EFE66FE6EFE76FEE7
:100950007EFE85FE8DFE94FE9CFEA3FEAAFEB2FEE8
:10096000B9FEC0FEC7FECEFED4FEDBFEE2FEE8FE10
:10097000EFFEF5FEFCFE02FF08FF0EFF14FF1AFF5C
:1009800020FF26FF2CFF31FF37FF3CFF42FF47FFD0
:100990004CFF52FF57FF5CFF61FF66FF6AFF6FFF6E
:1009A00074FF78FF7DFF81FF86FF8AFF8EFF92FF35
:1009B00096FF9AFF9EFFA2FFA6FFA9FFADFFB0FF23
:1009C000B4FFB7FFBBFFBEFFC1FFC4FFC7FFCAFF35
:1009D000CDFFCFFFD2FFD5FFD7FFD9FFDCFFDEFF72
:1009E000E0FFE2FFE4FFE6FFE8FFEAFFECFFEEFFD7
:1009F000EFFFF1FFF2FFF3FFF5FFF6FFF7FFF8FF60
:100A0000F9FFFAFFFBFFFBFFFCFFFDFFFDFFFEFF11
:100A1000FEFFFEFFFEFFFEFFFFFFFEFFFEFFFEFFED
:100A2000FEFFFEFFFDFFFDFFFCFFFBFFFBFFFAFFEC
:100A3000F9FFF8FFF7FFF6FFF5FFF3FFF2FFF1FF15
:100A4000EFFFEEFFECFFEAFFE8FFE6FFE4FFE2FF67
:100A5000E0FFDEFFDCFFD9FFD7FFD5FFD2FFCFFFDE
:100A6000CDFFCAFFC7FFC4FFC1FFBEFFBBFFB7FF7B
:100A7000B4FFB0FFADFFA9FFA6FFA2FF9EFF9AFF44
:100A800096FF92FF8EFF8AFF86FF81FF7DFF78FF32
:100A900074FF6FFF6AFF66FF61FF5CFF57FF52FF45
:100AA0004CFF47FF42FF3CFF37FF31FF2CFF26FF83
:100AB00020FF1AFF14FF0EFF08FF02FFFCFEF5FEE9
:100AC000EFFEE8FEE2FEDBFED4FECEFEC7FEC0FE79
:100AD000B9FEB2FEAAFEA3FE9CFE94FE8DFE85FE2C
:100AE0007EFE76FE6EFE66FE5EFE56FE4EFE46FE06
:100AF0003EFE36FE2DFE25FE1CFE13FE0BFE02FE04
:100B0000F9FDF0FDE7FDDEFDD5FDCCFDC2FDB9FD33
:100B1000B0FDA6FD9CFD93FD89FD7FFD75FD6BFD80
:100B200061FD57FD4DFD42FD38FD2EFD23FD18FDF5
:100B30000EFD03FDF8FCEDFCE2FCD7FCCCFCC1FC97
:100B4000B6FCAAFC9FFC93FC88FC7CFC70FC65FC5A
:100B500059FC4DFC41FC35FC29FC1CFC10FC04FC40
:100B6000F7FBEBFBDEFBD1FBC4FBB8FBABFB9EFB57
:100B700091FB83FB76FB69FB5CFB4EFB41FB33FB8C
:100B800025FB18FB0AFBFCFAEEFAE0FAD2FAC4FAEB
:100B9000B5FAA7FA99FA8AFA7CFA6DFA5EFA4FFA70
:100BA00041FA32FA23FA14FA04FAF5F9E6F9D7F918
:100BB000C7F9B8F9A8F998F989F979F969F959F9EA
:100BC00049F939F929F919F908F9F8F8E7F8D7F8DE
:100BD000C6F8B6F8A5F894F883F872F861F850F8FA
:100BE0003FF82EF81CF80BF8F9F7E8F7D6F7C4F73A
:100BF000B3F7A1F78FF77DF76BF759F747F734F79E
:100C000022F710F7FDF6EAF6D8F6C5F6B2F6A0F62A
:100C10008DF67AF667F653F640F62DF61AF606F6D6
:100C2000F3F5DFF5CCF5B8F5A4F590F57CF568F5AE
:100C300054F540F52CF518F503F5EFF4DBF4C6F4A4
:100C4000B1F49DF488F473F45EF449F434F41FF4C1
:100C50000AF4F5F3DFF3CAF3B5F39FF389F374F302
:100C60005EF348F332F31CF306F3F0F2DAF2C4F267
:100C7000AEF297F281F26AF254F23DF226F210F2ED
:100C8000F9F1E2F1CBF1B4F19DF186F16EF157F19A
:100C900040F128F111F1F9F0E1F0CAF0B2F09AF068
:100CA00082F06AF052F03AF022F009F0F1EFD9EF59
:100CB000C0EFA8EF8FEF76EF5EEF45EF2CEF13EF6D
:100CC000FAEEE1EEC8EEAFEE95EE7CEE63EE49EEA5
:100CD00030EE16EEFCEDE3EDC9EDAFED95ED7BEDFD
:100CE00061ED47ED2CED12EDF8ECDDECC3ECA8EC7A
:100CF0008EEC73EC58EC3EEC23EC08ECEDEBD2EB15
:100D0000B7EB9CEB80EB65EB4AEB2EEB13EBF7EAD2
:100D1000DBEAC0EAA4EA88EA6CEA50EA34EA18EAB4
:100D2000FCE9E0E9C4E9A7E98BE96EE952E935E9B4
:100D300019E9FCE8DFE8C2E8A5E888E86BE84EE8D6
:100D400031E814E8F7E7D9E7BCE79EE781E763E716
:100D500045E728E70AE7ECE6CEE6B0E692E674E679
:100D600056E638E619E6FBE5DDE5BEE5A0E581E5FA
:100D700062E544E525E506E5E7E4C8E4A9E48AE49C
:100D80006BE44CE42DE40DE4EEE3CEE3AFE38FE35C
:100D900070E350E330E311E3F1E2D1E2B1E291E23A
:100DA00071E251E230E210E2F0E1CFE1AFE18EE139
:100DB0006EE14DE12DE10CE1EBE0CAE0A9E088E055
:100DC00067E046E025E004E0E2DFC1DFA0DF7EDF90
:100DD0005DDF3BDF1ADFF8DED6DEB4DE93DE71DEE8
:100DE0004FDE2DDE0BDEE9DDC6DDA4DD82DD5FDD5D
:100DF0003DDD1BDDF8DCD6DCB3DC90DC6DDC4BDCF0
:100E000028DC05DCE2DBBFDB9CDB79DB56DB32DB9D
:100E10000FDBECDAC8DAA5DA81DA5EDA3ADA16DA6A
:100E2000F3D9CFD9ABD987D963D93FD91BD9F7D853
:100E3000D3D8AFD88AD866D842D81DD8F9D7D4D756
:100E4000B0D78BD766D742D71DD7F8D6D3D6AED674
:100E500089D664D63FD61AD6F4D5CFD5AAD585D5AE
:100E60005FD53AD514D5EFD4C9D4A3D47DD458D402
:100E700032D40CD4E6D3C0D39AD374D34ED328D370
:100E800001D3DBD2B5D28ED268D241D21BD2F4D1FB
:100E9000CED1A7D180D159D133D10CD1E5D0BED09C
:100EA00097D070D049D021D0FACFD3CFACCF84CF58
:100EB0005DCF35CF0ECFE6CEBFCE97CE6FCE48CE2C
:100EC00020CEF8CDD0CDA8CD80CD58CD30CD08CD19
:100ED000E0CCB8CC8FCC67CC3FCC16CCEECBC5CB1E
:100EE0009DCB74CB4CCB23CBFACAD2CAA9CA80CA39
:100EF00057CA2ECA05CADCC9B3C98AC961C938C96B
:100F00000EC9E5C8BCC892C869C83FC816C8ECC7B6
:100F1000C3C799C76FC746C71CC7F2C6C8C69EC617
:100F200074C64AC620C6F6C5CCC5A2C578C54EC58E
:100F300023C5F9C4CFC4A4C47AC44FC425C4FAC31A
:100F4000D0C3A5C37AC350C325C3FAC2CFC2A4C2BB
:100F500079C24EC223C2F8C1CDC1A2C177C14CC172
:100F600020C1F5C0CAC09EC073C047C01CC0F0BF3E
:100F7000C5BF99BF6EBF42BF16BFEBBEBFBE93BE1B
:100F800067BE3BBE0FBEE3BDB7BD8BBD5FBD33BD0E
:100F900007BDDBBCAEBC82BC56BC29BCFDBBD1BB13
:100FA000A4BB78BB4BBB1FBBF2BAC5BA99BA6CBA2B
:100FB0003FBA12BAE6B9B9B98CB95FB932B905B955
:100FC000D8B8ABB87EB851B824B8F6B7C9B79CB793
:100FD0006FB741B714B7E7B6B9B68CB65EB631B6DF
:100FE00003B6D6B5A8B57AB54DB51FB5F1B4C3B43F
:100FF00096B468B43AB40CB4DEB3B0B382B354B3AD
:1010000026B3F8B2CAB29CB26DB23FB211B2E3B12C
:10101000B4B186B158B129B1FBB0CCB09EB06FB0BD
:1010200041B012B0E4AFB5AF86AF58AF29AFFAAE5A
:10103000CCAE9DAE6EAE3FAE10AEE1ADB2AD83AD07
:1010400054AD25ADF6ACC7AC98AC69AC3AAC0BACC2
:10105000DBABACAB7DAB4EAB1EABEFAAC0AA90AA8C
:1010600061AA31AA02AAD2A9A3A973A944A914A961
:10107000E5A8B5A885A856A826A8F6A7C6A797A745
:1010800067A737A707A7D7A6A7A677A647A617A635
:10109000E7A5B7A587A557A527A5F7A4C7A497A433
:1010A00067A436A406A4D6A3A6A375A345A315A337
:1010B000E4A2B4A284A253A223A2F2A1C2A191A14C
:1010C00061A130A100A1CFA09FA06EA03DA00DA066
:1010D000DC9FAB9F7B9F4A9F199FE89EB89E879E8F
:1010E000569E259EF49DC39D939D629D319D009DBE
:1010F000CF9C9E9C6D9C3C9C0B9CDA9BA99B789BF7
:10110000469B159BE49AB39A829A519A209AEE993B
:10111000BD998C995B992999F898C7989598649886
:1011200033980198D0979F976D973C970A97D996D7
:10113000A796769644961396E195B0957E954D9533
:101140001B95EA94B894869455942394F293C09393
:101150008E935D932B93F992C792969264923292FA
:101160000092CF919D916B9139910791D690A49067
:10117000729040900E90DC8FAB8F798F478F158FD8
:10118000E38EB18E7F8E4D8E1B8EE98DB78D858D52
:10119000538D218DEF8CBD8C8B8C598C278CF58BCE
:1011A000C38B918B5F8B2D8BFB8AC98A978A658A4B
:1011B000328A008ACE899C896A8938890689D488CE
:1011C000A1886F883D880B88D987A7877487428755
:1011D0001087DE86AC867A8647861586E385B185DC
:1011E0007E854C851A85E884B684838451841F8467
:1011F000ED83BA83888356832483F182BF828D82F4
:101200005B822882F681C48192815F812D81FB807F
:10121000C9809680648032800080CD7F9B7F697F0B
:10122000367F047FD27EA07E6D7E3B7E097ED77D99
:10123000A47D727D407D0E7DDB7CA97C777C457C26
:10124000127CE07BAE7B7C7B497B177BE57AB37AB3
:10125000817A4E7A1C7AEA79B8798579537921793D
:10126000EF78BD788B7858782678F477C2779077C6
:101270005E772B77F976C776957663763176FF754C
:10128000CD759A75687536750475D274A0746E74D0
:101290003C740A74D873A673747342731073DE724D
:1012A000AC727A7248721672E471B27180714E71CA
:1012B0001C71EA70B870867054702370F16FBF6F44
:1012C0008D6F5B6F296FF86EC66E946E626E306EB6
:1012D000FF6DCD6D9B6D696D386D066DD46CA26C24
:1012E000716C3F6C0D6CDC6BAA6B796B476B156B8B
:1012F000E46AB26A816A4F6A1E6AEC69BB698969ED
:1013000058692669F568C368926860682F68FE6747
:10131000CC679B676A6738670767D666A46673669B
:1013200042661166DF65AE657D654C651B65EA64E6
:10133000B964876456642564F463C363926361632C
:101340003063FF62CE629D626C623C620B62DA6166
:10135000A961786147611761E660B5608460546097
:101360002360F25FC25F915F605F305FFF5ECF5EC0
:101370009E5E6E5E3D5E0D5EDC5DAC5D7B5D4B5DDD
:101380001B5DEA5CBA5C8A5C595C295CF95BC95BF1
:10139000985B685B385B085BD85AA85A785A485AF9
:1013A000185AE859B859885958592859F858C858F6
:1013B0009858685839580958D957A9577A574A57E9
:1013C0001A57EB56BB568C565C562D56FD55CE55CE
:1013D0009E556F553F551055E154B15482545354A6
:1013E0002454F453C5539653675338530953DA5270
:1013F000AB527C524D521E52EF51C051915162512D
:1014000033510551D650A75079504A501B50ED4FDB
:10141000BE4F904F614F334F044FD64EA74E794E7B
:101420004B4E1C4EEE4DC04D924D634D354D074D0C
:10143000D94CAB4C7D4C4F4C214CF34BC54B974B8F
:10144000694B3C4B0E4BE04AB24A854A574A294AFF
:10145000FC49CE49A149734946491849EB48BE4861
:101460009048634836480948DB47AE4781475447B0
:101470002747FA46CD46A046734646461946ED45EF
:10148000C045934566453A450D45E044B44487441C
:101490005B442E440244D643A9437D435143244335
:1014A000F842CC42A042744248421C42F041C4413E
:1014B00098416C4140411441E940BD409140664033
:1014C0003A400F40E33FB83F8C3F613F353F0A3F12
:1014D000DF3EB33E883E5D3E323E073EDC3DB13DE1
:1014E000863D5B3D303D053DDA3CAF3C853C5A3C9A
:1014F0002F3C053CDA3BB03B853B5B3B303B063B3E
:10150000DC3AB13A873A5D3A333A093ADF39B539CC
:101510008B39613937390D39E338B9389038663845
:101520003C381338E937C03796376D3743371A37A9
:10153000F136C7369E3675364C362336FA35D135F8
:10154000A8357F3556352D350535DC34B3348B342D
:1015500062343A341134E933C0339833703347334B
:101560001F33F732CF32A7327F3257322F32073252
:10157000DF31B7319031683140311931F130CA3043
:10158000A2307B3053302C300530DE2FB62F8F2F1A
:10159000682F412F1A2FF32ECC2EA62E7F2E582ED9
:1015A000312E0B2EE42DBE2D972D712D4A2D242D7D
:1015B000FE2CD72CB12C8B2C652C3F2C192CF32B0B
:1015C000CD2BA72B822B5C2B362B102BEB2AC52A7D
:1015D000A02A7A2A552A302A0B2AE529C0299B29D4
:1015E000762951292C290729E228BD289928742811
:1015F0004F282B280628E227BD2799277527502733
:101600002C270827E426C0269C2678265426302638
:101610000C26E925C525A1257E255A253725132524
:10162000F024CD24A9248624632440241D24FA23F5
:10163000D723B42392236F234C2329230723E422A7
:10164000C222A0227D225B2239221622F421D2213D
:10165000B0218E216C214B2129210721E520C420B6
:10166000A22081205F203E201D20FB1FDA1FB91F12
:10167000981F771F561F351F141FF31ED21EB21E50
:10168000911E711E501E301E0F1EEF1DCF1DAE1D70
:101690008E1D6E1D4E1D2E1D0E1DEE1CCF1CAF1C73
:1016A0008F1C701C501C311C111CF21BD21BB31B55
:1016B000941B751B561B371B181BF91ADA1ABB1A19
:1016C0009D1A7E1A5F1A411A221A041AE619C719BE
:1016D000A9198B196D194F1931191319F518D71844
:1016E000BA189C187E186118431826180818EB17AA
:1016F000CE17B117941777175A173D1720170317EE
:10170000E616CA16AD169116741658163B161F1615
:101710000316E715CB15AF15931577155B153F1518
:1017200024150815EC14D114B5149A147F146314FD
:1017300048142D141214F713DC13C113A7138C13C0
:10174000711357133C1322130713ED12D312B8125F
:101750009E1284126A12501236121C120312E911E0
:10176000CF11B6119C1183116A11501137111E113E
:101770000511EC10D310BA10A11089107010571079
:101780003F1026100E10F60FDD0FC50FAD0F950F91
:101790007D0F650F4D0F350F1E0F060FEE0ED70E86
:1017A000BF0EA80E910E790E620E4B0E340E1D0E5A
:1017B000060EEF0DD90DC20DAB0D950D7E0D680D0A
:1017C000510D3B0D250D0F0DF90CE30CCD0CB70C95
:1017D000A10C8B0C760C600C4A0C350C200C0A0CFE
:1017E000F50BE00BCB0BB60BA10B8C0B770B620B45
:1017F0004E0B390B240B100BFC0AE70AD30ABF0A65
:10180000AB0A970A830A6F0A5B0A470A330A200A5F
:101810000C0AF909E509D209BF09AC09980985093B
:1018200072095F094D093A09270915090209EF08EC
:10183000DD08CB08B808A6089408820870085E087E
:101840004C083B08290817080608F407E307D107E6
:10185000C007AF079E078D077C076B075A0749072C
:101860003907280718070707F706E606D606C6064B
:10187000B606A60696068606760667065706470645
:101880003806280619060A06FB05EB05DC05CD051A
:10189000BE05B005A10592058305750566055805C9
:1018A0004A053B052D051F0511050305F504E70451
:1018B000DA04CC04BE04B104A304960489047C04B5
:1018C0006E046104540447043B042E0421041404F0
:1018D0000804FB03EF03E303D603CA03BE03B2030A
:1018E000A6039A038F03830377036C0360035503F6
:1018F00049033E03330328031D0312030703FC02BD
:10190000F102E702DC02D102C702BD02B202A80264
:101910009E0294028A02800276026C0263025902DD
:101920004F0246023D0233022A02210218020F0230
:101930000602FD01F401EC01E301DA01D201C90163
:10194000C101B901B101A901A10199019101890167
:1019500081017A0172016B0163015C0155014D0146
:1019600046013F01380131012B0124011D011701FE
:1019700010010A010301FD00F700F100EB00E50092
:10198000DF00D900D300CE00C800C300BD00B800FE
:10199000B300AD00A800A3009E0099009500900040
:1019A0008B00870082007E007900750071006D0059
:1019B0006900650061005D005900560052004F004B
:1019C0004B004800440041003E003B003800350019
:1019D000320030002D002A002800260023002100BC
:1019E0001F001D001B001900170015001300110037
:1019F00010000E000D000C000A000900080007008E
:101A000006000500040004000300020002000100BB
:101A100001000100010001000100010001000100BE
:101A200001000100020002000300040004000500A0
:101A300006000700080009000A000C000D000E0057
:101A40001000110013001500170019001B001D00E5
:101A50001F0021002300260028002A002D0030004E
:101A60003200350038003B003E0041004400480091
:101A70004B004F005200560059005D0061006500A8
:101A800069006D007100750079007E00820087009A
:101A90008B009000950099009E00A300A800AD0067
:101AA000B300B800BD00C300C800CE00D300D90009
:101AB000DF00E500EB00F100F700FD0003010A0183
:101AC000100117011D0124012B01310138013F01D3
:101AD00046014D0155015C0163016B0172017A0100
:101AE0008101890191019901A101A901B101B90106
:101AF000C101C901D201DA01E301EC01F401FD01E8
:101B000006020F02180221022A0233023D02460297
:101B10004F02590263026C02760280028A0294022A
:101B20009E02A802B202BD02C702D102DC02E70295
:101B3000F102FC02070312031D03280333033E03D3
:101B40004903550360036C03770383038F039A03F0
:101B5000A603B203BE03CA03D603E303EF03FB03EA
:101B60000804140421042E043B04470454046104B3
:101B70006E047C0489049604A304B104BE04CC045E
:101B8000DA04E704F504030511051F052D053B05DF
:101B90004A0558056605750583059205A105B0053A
:101BA000BE05CD05DC05EB05FB050A061906280672
:101BB0003806470657066706760686069606A60680
:101BC000B606C606D606E606F7060707180728076C
:101BD000390749075A076B077C078D079E07AF0730
:101BE000C007D107E307F4070608170829083B08D0
:101BF0004C085E08700882089408A608B808CB084C
:101C0000DD08EF080209150927093A094D095F099E
:101C1000720985099809AC09BF09D209E509F909D2
:101C20000C0A200A330A470A5B0A6F0A830A970ADA
:101C3000AB0ABF0AD30AE70AFC0A100B240B390BC4
:101C40004E0B620B770B8C0BA10BB60BCB0BE00B87
:101C5000F50B0A0C200C350C4A0C600C760C8B0C26
:101C6000A10CB70CCD0CE30CF90C0F0D250D3B0DA1
:101C7000510D680D7E0D950DAB0DC20DD90DEF0DFB
:101C8000060E1D0E340E4B0E620E790E910EA80E2E
:101C9000BF0ED70EEE0E060F1E0F350F4D0F650F40
:101CA0007D0F950FAD0FC50FDD0FF60F0E1026102F
:101CB0003F10571070108910A110BA10D310EC10FB
:101CC00005111E11371150116A1183119C11B611A3
:101CD000CF11E91103121C12361250126A1284122B
:101CE0009E12B812D312ED12071322133C1357138E
:101CF00071138C13A713C113DC13F71312142D14D3
:101D0000481463147F149A14B514D114EC140815F4
:101D100024153F155B1577159315AF15CB15E715F2
:101D200003161F163B16581674169116AD16CA16D2
:101D3000E616031720173D175A1777179417B11790
:101D4000CE17EB1708182618431861187E189C1830
:101D5000BA18D718F518131931194F196D198B19AD
:101D6000A919C719E619041A221A411A5F1A7E1A0C
:101D70009D1ABB1ADA1AF91A181B371B561B751B4A
:101D8000941BB31BD21BF21B111C311C501C701C6A
:101D90008F1CAF1CCF1CEE1C0E1D2E1D4E1D6E1D6C
:101DA0008E1DAE1DCF1DEF1D0F1E301E501E711E4D
:101DB000911EB21ED21EF31E141F351F561F771F11
:101DC000981FB91FDA1FFB1F1D203E205F208120B6
:101DD000A220C420E520072129214B216C218E213E
:101DE000B021D221F421162239225B227D22A022A9
:101DF000C222E422072329234C236F239223B423F6
:101E0000D723FA231D24402463248624A924CD2427
:101E1000F024132537255A257E25A125C525E9253A
:101E20000C263026542678269C26C026E426082731
:101E30002C27502775279927BD27E22706282B280E
:101E40004F2874289928BD28E22807292C295129D0
:101E500076299B29C029E5290B2A302A552A7A2A76
:101E6000A02AC52AEB2A102B362B5C2B822BA72B02
:101E7000CD2BF32B192C3F2C652C8B2CB12CD72C74
:101E8000FE2C242D4A2D712D972DBE2DE42D0B2EC9
:101E9000312E582E7F2EA62ECC2EF32E1A2F412F08
:101EA000682F8F2FB62FDE2F05302C3053307B302C
:101EB000A230CA30F1301931403168319031B73138
:101EC000DF3107322F3257327F32A732CF32F7322B
:101ED0001F33473370339833C033E93311343A3406
:101EE00062348B34B334DC3405352D3556357F35CB
:101EF000A835D135FA3523364C3675369E36C73679
:101F0000F1361A3743376D379637C037E93713380C
:101F10003C3866389038B938E3380D39373961398B
:101F20008B39B539DF39093A333A5D3A873AB13AF4
:101F3000DC3A063B303B5B3B853BB03BDA3B053C48
:101F40002F3C5A3C853CAF3CDA3C053D303D5B3D87
:101F5000863DB13DDC3D073E323E5D3E883EB33EB0
:101F6000DF3E0A3F353F613F8C3FB83FE33F0F40C4
:101F70003A4066409140BD40E940144140416C41C7
:101F80009841C441F0411C4248427442A042CC42B4
:101F9000F842244351437D43A943D64302442E448F
:101FA0005B448744B444E0440D453A456645934557
:101FB000C045ED45194646467346A046CD46FA460D
:101FC000274754478147AE47DB47094836486348AF
:101FD0009048BE48EB48184946497349A149CE4943
:101FE000FC49294A574A854AB24AE04A0E4B3C4BC3
:101FF000694B974BC54BF34B214C4F4C7D4CAB4C35
:10200000D94C074D354D634D924DC04DEE4D1C4E94
:102010004B4E794EA74ED64E044F334F614F904FE3
:10202000BE4FED4F1B504A507950A750D650055126
:10203000335162519151C051EF511E524D527C5259
:10204000AB52DA520953385367539653C553F4537E
:10205000245453548254B154E15410553F556F5594
:102060009E55CE55FD552D565C568C56BB56EB569F
:102070001A574A577A57A957D9570958395868589B
:102080009858C858F858285958598859B859E8598B
:10209000185A485A785AA85AD85A085B385B685B6D
:1020A000985BC95BF95B295C595C8A5CBA5CEA5C49
:1020B0001B5D4B5D7B5DAC5DDC5D0D5E3D5E6E5E14
:1020C0009E5ECF5EFF5E305F605F915FC25FF25FDA
:1020D000236054608460B560E66017614761786191
:1020E000A961DA610B623C626C629D62CE62FF6242
:1020F000306361639263C363F463256456648764E9
:10210000B964EA641B654C657D65AE65DF65116683
:1021100042667366A466D666076738676A679B6718
:10212000CC67FE672F6860689268C368F5682669A7
:1021300058698969BB69EC691E6A4F6A816AB26A2B
:10214000E46A156B476B796BAA6BDC6B0D6C3F6CAB
:10215000716CA26CD46C066D386D696D9B6DCD6D24
:10216000FF6D306E626E946EC66EF86E296F5B6F97
:102170008D6FBF6FF16F237054708670B870EA7006
:102180001C714E718071B271E471167248727A726C
:10219000AC72DE72107342737473A673D8730A74D0
:1021A0003C746E74A074D2740475367568759A7533
:1021B000CD75FF75317663769576C776F9762B7790
:1021C0005E779077C277F477267858788B78BD78E9
:1021D000EF78217953798579B879EA791C7A4E7A42
:1021E000817AB37AE57A177B497B7C7BAE7BE07B97
:1021F000127C457C777CA97CDB7C0E7D407D727DEA
:10220000A47DD77D097E3B7E6D7EA07ED27E047F3D
:10221000367F697F9B7FCD7F11241FBECFEFCDBF5F
:10222000DFE5DEBF00E00CBF11E2A0E0B0E2E6EACD
:10223000F3E800E00BBF02C007900D92A435B10790
:10224000D9F725E2A4E5B1E201C01D92AB3EB20789
:10225000E1F70E94332E0C94D1410C940000CF93EF
:10226000DF93482F50E0FA017196E295F295F07FE6
:10227000FE27E07FFE27A0E0B1E014969C91149722
:1022800013966C91DA01149621E030E0E901082EF2
:1022900002C0CC0FDD1F0A94E2F70A2E02C0220F03
:1022A000331F0A94E2F72C2B622370E0EB010A2E15
:1022B00002C0D595C7950A94E2F7C0FD1AC0082E52
:1022C00002C0759567950A94E2F760FD14C0292352
:1022D00030E0B90102C075956795AA95E2F760FDF7
:1022E0000CC002C0359527958A95E2F7822F817040
:1022F00005C084E003C083E001C082E09181906367
:102300009183440F551FFA01E954FA4D0190F08171
:10231000E02D309709F01995DF91CF910895CF9373
:10232000DF931F92CDB7DEB761E080E00E94843278
:102330008091D6258F3F09F4FFCF8FB78983F8941A
:102340009981E5EDF5E281818F5F81839FBFE0E0B8
:10235000F1E080E4808380E880830F90DF91CF916B
:102360000895E82FF0E0EE0FFF1FE954FA4D608367
:10237000718308951F920F920FB60F9211240BB61E
:102380000F922F933F934F935F936F937F938F930E
:102390009F93AF93BF93EF93FF9380E060DFFF9134
:1023A000EF91BF91AF919F918F917F916F915F91CD
:1023B0004F913F912F910F900BBE0F900FBE0F903A
:1023C0001F9018951F920F920FB60F9211240BB603
:1023D0000F922F933F934F935F936F937F938F93BE
:1023E0009F93AF93BF93EF93FF9381E038DFFF910B
:1023F000EF91BF91AF919F918F917F916F915F917D
:102400004F913F912F910F900BBE0F900FBE0F90E9
:102410001F9018951F920F920FB60F9211240BB6B2
:102420000F922F933F934F935F936F937F938F936D
:102430009F93AF93BF93EF93FF9382E010DFFF91E1
:10244000EF91BF91AF919F918F917F916F915F912C
:102450004F913F912F910F900BBE0F900FBE0F9099
:102460001F9018951F920F920FB60F9211240BB662
:102470000F922F933F934F935F936F937F938F931D
:102480009F93AF93BF93EF93FF9383E0E8DEFF91B9
:10249000EF91BF91AF919F918F917F916F915F91DC
:1024A0004F913F912F910F900BBE0F900FBE0F9049
:1024B0001F901895CF93DF931F92CDB7DEB7DB0146
:1024C000E82FF0E07196E295F295F07FFE27E07F2D
:1024D000FE278FB78983F894998119968C91199763
:1024E00084871A968C911A978587168617968C91F1
:1024F0001797808718968C91189781871286129665
:102500008C911297828313968C91139783831496E0
:102510002D913C9115972483358316968C911697AF
:10252000868311968C91119781838C918F7780830C
:102530009FBF0F90DF91CF91089504C06150710942
:10254000810991096115710581059105B9F7089512
:1025500080E180932104E0E2F4E0818184FDFDCFFD
:1025600060912404709125048091260490912704A1
:1025700008958093BF259093C0250895CF93DF934E
:1025800064E080E00E948432C0EFD0E08881826005
:10259000888361E080EF90E00E94963A88818460B1
:1025A000888369EE73E080E090E0C7DF888188610E
:1025B0008883E0EFF0E0818183FFFDCF109220045B
:1025C000E0E2F4E0818180FDFDCFE0E2F4E08FEF16
:1025D0009FEFDC0180879187A287B38714821582E1
:1025E00016821782818180FDFDCFE0E2F4E0128245
:1025F00081E08083818180FDFDCFDF91CF910895BF
:102600001F920F920FB60F9211240BB60F922F93B9
:102610003F934F935F936F937F938F939F93AF936A
:10262000BF93CF93DF93EF93FF9310922204C09157
:10263000BF25D091C025209719F08ADFFE0119959A
:10264000FF91EF91DF91CF91BF91AF919F918F91CA
:102650007F916F915F914F913F912F910F900BBEA2
:102660000F900FBE0F901F901895FC01F295E29508
:10267000EF70EF27FF70EF27EE0FFF1FE85EFD4FB3
:10268000259134913058FC017096F295E295EF70E7
:10269000EF27FF70EF27EE0FFF1FE85EFD4F45911C
:1026A00054915058421B530B8F709927489FB0018B
:1026B000499F700D589F700D1124CB0195958795FA
:1026C000959587959595879595958795820F931FF5
:1026D0009058089504C061507109810991096115EC
:1026E000710581059105B9F70895CF92DF92EF92B8
:1026F000FF920F931F93CF93E6E0F0E283E0818394
:1027000081E090E0848395838F01CC24C394D12C05
:102710000F2EF1E1EF2EF4E2FF2EF02DF801C0862E
:10272000D18641E0B80180E894E00E941C21F701C5
:10273000C0819C2F907881110DC091F08C2F8178F1
:10274000813829F465EF71E080E090E0C3DFC0FDDF
:10275000E5CF0CC065E070E080E090E0BBDFDECF4D
:1027600065E070E080E090E0B5DFD8CFCF911F91B9
:102770000F91FF90EF90DF90CF900895E0E8F6E0A2
:1027800088E3808B818BE0E4F6E0808B818B089579
:10279000EF92FF920F931F93CF93DF93E6E0F0E267
:1027A00081E0818381E090E08483958380879187B5
:1027B00041E0BF0180E894E00E941C218091112437
:1027C00080937C24813178F1C6E0D0E282E0898375
:1027D0000F2EF1E1EF2EF4E2FF2EF02D80E1F70154
:1027E000808301E010E00887198740E0BE0180E89F
:1027F00094E00E941C2165E070E080E090E06ADFD8
:1028000074DF84E1898381E0F70180830887198779
:1028100040E0BE0180E894E00E941C2165E070E089
:1028200080E090E057DFDF91CF911F910F91FF90F3
:10283000EF90089560E485E00E9484326AE170E2DE
:1028400080EA94E00E940721E0EAF4E08181886058
:10285000818360E483E00E94843261E170E280E879
:1028600094E00E940721E0E8F4E0818188608183A0
:1028700061ED72E183E190E02DDF8ACF0895089544
:10288000DF92EF92FF920F931F93CF93DF9380918C
:102890007C24813108F4B2C028DF06E010E268949D
:1028A000DD24D5F8F801D18280915421805FC1E107
:1028B000D4E2888389836894EE24E1F8F12CE086E1
:1028C000F18640E0B80180E894E00E941C2165E0B8
:1028D00070E080E090E0FEDE08DF82E3F8018183B3
:1028E0008091542196E9980F9883845C8983E086CF
:1028F000F18640E0B80180E894E00E941C2165E088
:1029000070E080E090E0E6DEF0DE84E3F8018183B1
:102910008EE188838983E086F18640E0B80180E813
:1029200094E00E941C2165E070E080E090E0D2DE3F
:10293000DCDE88E3F801818384E1888381E090E034
:102940008087918740E0B80180E894E00E941C21D4
:1029500065E070E080E090E0BDDEC7DEF801D18286
:102960008091542194E7980F9883805F8983E08653
:10297000F18640E0B80180E894E00E941C2165E007
:1029800070E080E090E0A6DEB0DE80E3F8018183B5
:1029900084E0888381E4898382E48A8383E48B836F
:1029A00084E48C8385E090E08087918740E0B801E3
:1029B00080E894E00E941C2165E070E080E090E0F7
:1029C00089DE809154218F5F813418F480935421E3
:1029D00032C01092542189DEE6E0F0E280E181838A
:1029E0001086118640E0BF0180E894E00E941C211F
:1029F00065E070E080E090E06DDE1DC08031D9F4CC
:102A000074DEE6E0F0E284E88183A1E1B4E281E0F3
:102A10008C9380E811968C9382E090E08087918778
:102A200040E0BF0180E894E00E941C2169E873E166
:102A300080E090E04FDEDF91CF911F910F91FF90EA
:102A4000EF90DF9008950895CF93DF931F92CDB755
:102A5000DEB72FB72983F8944981282F392F211504
:102A600082E0380729F46093C3257093C42507C01A
:102A70002034324021F46093C1257093C2254FBFAA
:102A80000F90DF91CF910895811522E0920769F4AC
:102A90008091562191E0980F90935621811114C096
:102AA00062E081E00C94843208958034924061F4B5
:102AB0008091552191E0980F90935521811104C088
:102AC00062E082E00C9484320895811522E092073E
:102AD00061F480915621815080935621811113C059
:102AE00062E081E00C949A3208958034924059F467
:102AF00080915521815080935521811104C062E05D
:102B000082E00C949A320895EF92FF921F93CF9334
:102B1000DF931F921F92CDB7DEB77C018FB78983F9
:102B2000F8941981C701B0DFF7018081816080834B
:102B30001FBF8091D6258F3F09F4FFCF8FB78A83BF
:102B4000F8949A81E5EDF5E281818F5F81839FBFE3
:102B50000F900F90DF91CF911F91FF90EF9008950C
:102B60001F920F920FB60F9211240BB60F922F9354
:102B70003F934F935F936F937F938F939F93AF9305
:102B8000BF93EF93FF934091240250912502E0916F
:102B9000C325F091C42561E080E092E01995FF9192
:102BA000EF91BF91AF919F918F917F916F915F91C5
:102BB0004F913F912F910F900BBE0F900FBE0F9032
:102BC0001F9018951F920F920FB60F9211240BB6FB
:102BD0000F922F933F934F935F936F937F938F93B6
:102BE0009F93AF93BF93EF93FF9340912C0250912B
:102BF0002D02E091C325F091C42562E080E092E0CF
:102C00001995FF91EF91BF91AF919F918F917F9116
:102C10006F915F914F913F912F910F900BBE0F904D
:102C20000FBE0F901F9018951F920F920FB60F9224
:102C300011240BB60F922F933F934F935F936F9393
:102C40007F938F939F93AF93BF93EF93FF934091A5
:102C5000340250913502E091C325F091C42564E01F
:102C600080E092E01995FF91EF91BF91AF919F9114
:102C70008F917F916F915F914F913F912F910F9025
:102C80000BBE0F900FBE0F901F9018951F920F92C2
:102C90000FB60F9211240BB60F922F933F934F93C1
:102CA0005F936F937F938F939F93AF93BF93EF93B4
:102CB000FF9340913C0250913D02E091C325F09179
:102CC000C42568E080E092E01995FF91EF91BF91F3
:102CD000AF919F918F917F916F915F914F913F91B4
:102CE0002F910F900BBE0F900FBE0F901F90189555
:102CF0001F920F920FB60F9211240BB60F922F93C3
:102D00003F934F935F936F937F938F939F93AF9373
:102D1000BF93EF93FF934091640250916502E0915D
:102D2000C125F091C22561E080E492E01995FF9100
:102D3000EF91BF91AF919F918F917F916F915F9133
:102D40004F913F912F910F900BBE0F900FBE0F90A0
:102D50001F9018951F920F920FB60F9211240BB669
:102D60000F922F933F934F935F936F937F938F9324
:102D70009F93AF93BF93EF93FF9340916C02509159
:102D80006D02E091C125F091C22562E080E492E0FD
:102D90001995FF91EF91BF91AF919F918F917F9185
:102DA0006F915F914F913F912F910F900BBE0F90BC
:102DB0000FBE0F901F9018951F920F920FB60F9293
:102DC00011240BB60F922F933F934F935F936F9302
:102DD0007F938F939F93AF93BF93EF93FF93409114
:102DE000740250917502E091C125F091C22564E012
:102DF00080E492E01995FF91EF91BF91AF919F917F
:102E00008F917F916F915F914F913F912F910F9093
:102E10000BBE0F900FBE0F901F9018951F920F9230
:102E20000FB60F9211240BB60F922F933F934F932F
:102E30005F936F937F938F939F93AF93BF93EF9322
:102E4000FF9340917C0250917D02E091C125F09169
:102E5000C22568E080E492E01995FF91EF91BF915F
:102E6000AF919F918F917F916F915F914F913F9122
:102E70002F910F900BBE0F900FBE0F901F901895C3
:102E8000BF92CF92DF92EF92FF920F931F93CF9357
:102E9000DF931F92CDB7DEB78C017B01811522E055
:102EA000920781F461E270E082E00E948C3AC82EC1
:102EB000D12C60E270E082E00E948C3ADC2CCC24C1
:102EC000C82A12C080349240D1F565E270E082E0F9
:102ED0000E948C3AC82ED12C64E270E082E00E94FD
:102EE0008C3ADC2CCC24C82A8FB78983F894B9801B
:102EF000C801CADDF801808192E09083C486D5863E
:102F0000F70125813681F801208F318FF7019281F9
:102F1000F8019283F7019481F8019483F70193817A
:102F2000F8019383F7019181F80191838170F70192
:102F30009081892BF8018083C801C7DDBFBE0F9047
:102F4000DF91CF911F910F91FF90EF90DF90CF9085
:102F5000BF900895DF92EF92FF920F931F93CF934C
:102F6000DF931F92CDB7DEB78C017B018FB78983CA
:102F7000F894D980C80188DDF8018081807CF70150
:102F80008083F801808D918DF70185839683F80108
:102F90008281F7018283F8018481F7018483F8013B
:102FA0008381F7018383F8018181F7018183C8015F
:102FB0008CDDDFBE0F90DF91CF911F910F91FF90BD
:102FC000EF90DF900895AF92BF92CF92DF92EF9291
:102FD000FF920F931F93CF93DF931F92CDB7DEB76E
:102FE0006C01B62E7A01862F837029F4962F969560
:102FF000969582E002C0962F80E090FF8F5F860159
:10300000005E1F4F98E0899F000D111D11248FB79E
:103010008983F894A980C60137DDF7018081F80122
:103020008083F7018281F8018283F7018181F801B1
:103030008183B0FE04C0F7018381F8018683C60155
:1030400044DDAFBE0F90DF91CF911F910F91FF90A4
:10305000EF90DF90CF90BF90AF900895AF92BF9266
:10306000CF92DF92EF92FF920F931F93CF93DF9354
:103070001F92CDB7DEB76C01B62E7A01862F837012
:1030800029F4962F9695969582E002C0962F80E0BF
:1030900090FF8F5F8601005E1F4F98E0899F000DB3
:1030A000111D11248FB78983F894A980C601ECDC27
:1030B000F8018081F7018083F8018281F701828322
:1030C000F8018181F7018183B0FE04C0F801868197
:1030D000F7018383C601F9DCAFBE0F90DF91CF917A
:1030E0001F910F91FF90EF90DF90CF90BF90AF9026
:1030F00008958032934061F48091572191E0980FB8
:1031000090935721811104C064E082E00C948432D2
:1031100008958032934059F48091572181508093D3
:103120005721811104C064E082E00C949A32089522
:10313000EF92FF921F93CF93DF931F921F92CDB711
:10314000DEB72FB72983F89419812091D6252F3F18
:1031500009F4FFCF7C018FB78A83F8949A81E5ED5B
:10316000F5E281818F5F81839FBFC701C2DFF701D5
:103170008081816080831FBF0F900F90DF91CF917E
:103180001F91FF90EF9008959F92AF92BF92CF92C0
:10319000DF92EF92FF920F931F93CF93DF931F92D3
:1031A000CDB7DEB7803223E0920709F03CC07B0147
:1031B0008C0163E370E082E00E948C3A982E62E317
:1031C00070E082E00E948C3AA82E67E370E082E013
:1031D0000E948C3AB82E66E370E082E00E948C3A3E
:1031E000C82E8FB78983F894D980C80182DFF8018F
:1031F00080811082F7019181F8019183F70192811A
:10320000F8019283F7019381F80193839086A18658
:10321000B286C3868170F7019081892BF801808383
:10322000C80177DFDFBE0F90DF91CF911F910F9123
:10323000FF90EF90DF90CF90BF90AF909F90089558
:10324000DF92EF92FF920F931F93CF93DF931F9222
:10325000CDB7DEB78C017B018FB78983F894D98015
:10326000C80147DFF80180818E7FF7018083F80174
:103270008181F7018183F8018281F7018283F8015E
:103280008381F7018383C80144DFDFBE0F90DF91A4
:10329000CF911F910F91FF90EF90DF9008951F92B3
:1032A0000F920FB60F9211240BB60F922F933F93EC
:1032B0004F935F936F937F938F939F93AF93BF933E
:1032C000EF93FF93E0919E21F0919F21309709F0B9
:1032D0001995FF91EF91BF91AF919F918F917F9140
:1032E0006F915F914F913F912F910F900BBE0F9077
:1032F0000FBE0F901F9018951F920F920FB60F924E
:1033000011240BB60F922F933F934F935F936F93BC
:103310007F938F939F93AF93BF93EF93FF93E0912E
:103320009C21F0919D21309709F01995FF91EF9123
:10333000BF91AF919F918F917F916F915F914F91CD
:103340003F912F910F900BBE0F900FBE0F901F90CB
:1033500018951F920F920FB60F9211240BB60F9271
:103360002F933F934F935F936F937F938F939F938D
:10337000AF93BF93EF93FF93E0919A21F0919B213C
:10338000309709F01995FF91EF91BF91AF919F91FF
:103390008F917F916F915F914F913F912F910F90FE
:1033A0000BBE0F900FBE0F901F9018951F920F929B
:1033B0000FB60F9211240BB60F922F933F934F939A
:1033C0005F936F937F938F939F93AF93BF93EF938D
:1033D000FF93E0919821F0919921309709F0199588
:1033E000FF91EF91BF91AF919F918F917F916F91DD
:1033F0005F914F913F912F910F900BBE0F900FBE99
:103400000F901F9018951F920F920FB60F921124D4
:103410000BB60F922F933F934F935F936F937F93CE
:103420008F939F93AF93BF93EF93FF93E091962178
:10343000F0919721309709F01995FF91EF91BF9185
:10344000AF919F918F917F916F915F914F913F913C
:103450002F910F900BBE0F900FBE0F901F901895DD
:103460001F920F920FB60F9211240BB60F922F934B
:103470003F934F935F936F937F938F939F93AF93FC
:10348000BF93EF93FF93E0919421F09195213097B2
:1034900009F01995FF91EF91BF91AF919F918F9195
:1034A0007F916F915F914F913F912F910F900BBE44
:1034B0000F900FBE0F901F9018951F920F920FB68E
:1034C0000F9211240BB60F922F933F934F935F935C
:1034D0006F937F938F939F93AF93BF93EF93FF93DC
:1034E000E0919221F0919321309709F01995FF9185
:1034F000EF91BF91AF919F918F917F916F915F916C
:103500004F913F912F910F900BBE0F900FBE0F90D8
:103510001F9018951F920F920FB60F9211240BB6A1
:103520000F922F933F934F935F936F937F938F935C
:103530009F93AF93BF93EF93FF93E0919021F0910E
:103540009121309709F01995FF91EF91BF91AF91BB
:103550009F918F917F916F915F914F913F912F91AB
:103560000F900BBE0F900FBE0F901F9018951F92DB
:103570000F920FB60F9211240BB60F922F933F9319
:103580004F935F936F937F938F939F93AF93BF936B
:10359000EF93FF93E0918E21F0918F21309709F006
:1035A0001995FF91EF91BF91AF919F918F917F916D
:1035B0006F915F914F913F912F910F900BBE0F90A4
:1035C0000FBE0F901F9018951F920F920FB60F927B
:1035D00011240BB60F922F933F934F935F936F93EA
:1035E0007F938F939F93AF93BF93EF93FF93E0915C
:1035F0008C21F0918D21309709F01995FF91EF9171
:10360000BF91AF919F918F917F916F915F914F91FA
:103610003F912F910F900BBE0F900FBE0F901F90F8
:1036200018951F920F920FB60F9211240BB60F929E
:103630002F933F934F935F936F937F938F939F93BA
:10364000AF93BF93EF93FF93E0918A21F0918B2189
:10365000309709F01995FF91EF91BF91AF919F912C
:103660008F917F916F915F914F913F912F910F902B
:103670000BBE0F900FBE0F901F9018951F920F92C8
:103680000FB60F9211240BB60F922F933F934F93C7
:103690005F936F937F938F939F93AF93BF93EF93BA
:1036A000FF93E0918821F0918921309709F01995D5
:1036B000FF91EF91BF91AF919F918F917F916F910A
:1036C0005F914F913F912F910F900BBE0F900FBEC6
:1036D0000F901F9018951F920F920FB60F92112402
:1036E0000BB60F922F933F934F935F936F937F93FC
:1036F0008F939F93AF93BF93EF93FF93E0918621B6
:10370000F0918721309709F01995FF91EF91BF91C2
:10371000AF919F918F917F916F915F914F913F9169
:103720002F910F900BBE0F900FBE0F901F9018950A
:103730001F920F920FB60F9211240BB60F922F9378
:103740003F934F935F936F937F938F939F93AF9329
:10375000BF93EF93FF93E0918421F09185213097FF
:1037600009F01995FF91EF91BF91AF919F918F91C2
:103770007F916F915F914F913F912F910F900BBE71
:103780000F900FBE0F901F9018951F920F920FB6BB
:103790000F9211240BB60F922F933F934F935F9389
:1037A0006F937F938F939F93AF93BF93EF93FF9309
:1037B000E0918221F0918321309709F01995FF91D2
:1037C000EF91BF91AF919F918F917F916F915F9199
:1037D0004F913F912F910F900BBE0F900FBE0F9006
:1037E0001F9018951F920F920FB60F9211240BB6CF
:1037F0000F922F933F934F935F936F937F938F938A
:103800009F93AF93BF93EF93FF93E0918021F0914B
:103810008121309709F01995FF91EF91BF91AF91F8
:103820009F918F917F916F915F914F913F912F91D8
:103830000F900BBE0F900FBE0F901F9018951F9208
:103840000F920FB60F9211240BB60F922F933F9346
:103850004F935F936F937F938F939F93AF93BF9398
:10386000EF93FF93E0917E21F0917F21309709F053
:103870001995FF91EF91BF91AF919F918F917F919A
:103880006F915F914F913F912F910F900BBE0F90D1
:103890000FBE0F901F9018951F920F920FB60F92A8
:1038A00011240BB60F922F933F934F935F936F9317
:1038B0007F938F939F93AF93BF93EF93FF93E09189
:1038C0007C21F0917D21309709F01995FF91EF91BE
:1038D000BF91AF919F918F917F916F915F914F9128
:1038E0003F912F910F900BBE0F900FBE0F901F9026
:1038F00018951F920F920FB60F9211240BB60F92CC
:103900002F933F934F935F936F937F938F939F93E7
:10391000AF93BF93EF93FF93E0917A21F0917B21D6
:10392000309709F01995FF91EF91BF91AF919F9159
:103930008F917F916F915F914F913F912F910F9058
:103940000BBE0F900FBE0F901F9018951F920F92F5
:103950000FB60F9211240BB60F922F933F934F93F4
:103960005F936F937F938F939F93AF93BF93EF93E7
:10397000FF93E0917821F0917921309709F0199522
:10398000FF91EF91BF91AF919F918F917F916F9137
:103990005F914F913F912F910F900BBE0F900FBEF3
:1039A0000F901F9018951F920F920FB60F9211242F
:1039B0000BB60F922F933F934F935F936F937F9329
:1039C0008F939F93AF93BF93EF93FF93E0917621F3
:1039D000F0917721309709F01995FF91EF91BF9100
:1039E000AF919F918F917F916F915F914F913F9197
:1039F0002F910F900BBE0F900FBE0F901F90189538
:103A00001F920F920FB60F9211240BB60F922F93A5
:103A10003F934F935F936F937F938F939F93AF9356
:103A2000BF93EF93FF93E0917421F091752130974C
:103A300009F01995FF91EF91BF91AF919F918F91EF
:103A40007F916F915F914F913F912F910F900BBE9E
:103A50000F900FBE0F901F9018951F920F920FB6E8
:103A60000F9211240BB60F922F933F934F935F93B6
:103A70006F937F938F939F93AF93BF93EF93FF9336
:103A8000E0917221F0917321309709F01995FF911F
:103A9000EF91BF91AF919F918F917F916F915F91C6
:103AA0004F913F912F910F900BBE0F900FBE0F9033
:103AB0001F9018951F920F920FB60F9211240BB6FC
:103AC0000F922F933F934F935F936F937F938F93B7
:103AD0009F93AF93BF93EF93FF93E0917021F09189
:103AE0007121309709F01995FF91EF91BF91AF9136
:103AF0009F918F917F916F915F914F913F912F9106
:103B00000F900BBE0F900FBE0F901F9018951F9235
:103B10000F920FB60F9211240BB60F922F933F9373
:103B20004F935F936F937F938F939F93AF93BF93C5
:103B3000EF93FF93E0916E21F0916F21309709F0A0
:103B40001995FF91EF91BF91AF919F918F917F91C7
:103B50006F915F914F913F912F910F900BBE0F90FE
:103B60000FBE0F901F9018951F920F920FB60F92D5
:103B700011240BB60F922F933F934F935F936F9344
:103B80007F938F939F93AF93BF93EF93FF93E091B6
:103B90006C21F0916D21309709F01995FF91EF910B
:103BA000BF91AF919F918F917F916F915F914F9155
:103BB0003F912F910F900BBE0F900FBE0F901F9053
:103BC00018951F920F920FB60F9211240BB60F92F9
:103BD0002F933F934F935F936F937F938F939F9315
:103BE000AF93BF93EF93FF93E0916A21F0916B2124
:103BF000309709F01995FF91EF91BF91AF919F9187
:103C00008F917F916F915F914F913F912F910F9085
:103C10000BBE0F900FBE0F901F9018951F920F9222
:103C20000FB60F9211240BB60F922F933F934F9321
:103C30005F936F937F938F939F93AF93BF93EF9314
:103C4000FF93E0916821F0916921309709F019956F
:103C5000FF91EF91BF91AF919F918F917F916F9164
:103C60005F914F913F912F910F900BBE0F900FBE20
:103C70000F901F9018951F920F920FB60F9211245C
:103C80000BB60F922F933F934F935F936F937F9356
:103C90008F939F93AF93BF93EF93FF93E091662130
:103CA000F0916721309709F01995FF91EF91BF913D
:103CB000AF919F918F917F916F915F914F913F91C4
:103CC0002F910F900BBE0F900FBE0F901F90189565
:103CD0001F920F920FB60F9211240BB60F922F93D3
:103CE0003F934F935F936F937F938F939F93AF9384
:103CF000BF93EF93FF93E0916421F091652130979A
:103D000009F01995FF91EF91BF91AF919F918F911C
:103D10007F916F915F914F913F912F910F900BBECB
:103D20000F900FBE0F901F9018951F920F920FB615
:103D30000F9211240BB60F922F933F934F935F93E3
:103D40006F937F938F939F93AF93BF93EF93FF9363
:103D5000E0916221F0916321309709F01995FF916C
:103D6000EF91BF91AF919F918F917F916F915F91F3
:103D70004F913F912F910F900BBE0F900FBE0F9060
:103D80001F9018951F920F920FB60F9211240BB629
:103D90000F922F933F934F935F936F937F938F93E4
:103DA0009F93AF93BF93EF93FF93E0916021F091C6
:103DB0006121309709F01995FF91EF91BF91AF9173
:103DC0009F918F917F916F915F914F913F912F9133
:103DD0000F900BBE0F900FBE0F901F9018951F9263
:103DE0000F920FB60F9211240BB60F922F933F93A1
:103DF0004F935F936F937F938F939F93AF93BF93F3
:103E0000EF93FF93E0915E21F0915F21309709F0ED
:103E10001995FF91EF91BF91AF919F918F917F91F4
:103E20006F915F914F913F912F910F900BBE0F902B
:103E30000FBE0F901F9018951F920F920FB60F9202
:103E400011240BB60F922F933F934F935F936F9371
:103E50007F938F939F93AF93BF93EF93FF93E091E3
:103E60005C21F0915D21309709F01995FF91EF9158
:103E7000BF91AF919F918F917F916F915F914F9182
:103E80003F912F910F900BBE0F900FBE0F901F9080
:103E900018951F920F920FB60F9211240BB60F9226
:103EA0002F933F934F935F936F937F938F939F9342
:103EB000AF93BF93EF93FF93E0915A21F0915B2171
:103EC000309709F01995FF91EF91BF91AF919F91B4
:103ED0008F917F916F915F914F913F912F910F90B3
:103EE0000BBE0F900FBE0F901F9018951F920F9250
:103EF0000FB60F9211240BB60F922F933F934F934F
:103F00005F936F937F938F939F93AF93BF93EF9341
:103F1000FF93E0915821F0915921309709F01995BC
:103F2000FF91EF91BF91AF919F918F917F916F9191
:103F30005F914F913F912F910F900BBE0F900FBE4D
:103F40000F901F9018951F93CF93DF931F921F928E
:103F5000CDB7DEB72FB72A83F8941A81282F392FCF
:103F6000211588E0380749F461E083E00E9484323B
:103F700064E083E00E9484324FC0203488E0380738
:103F800049F462E083E00E94843264E083E00E94AE
:103F9000843242C0211589E0380749F461E084E0A9
:103FA0000E94843264E084E00E94843235C0203470
:103FB00089E0380749F462E084E00E94843264E0DA
:103FC00084E00E94843228C021158AE0380749F431
:103FD00061E085E00E94843264E085E00E948432E2
:103FE0001BC020348AE0380749F462E085E00E9473
:103FF000843264E085E00E9484320EC021153B408B
:1040000049F461E086E00E94843264E086E00E9428
:10401000843202C01FBF10C08091D6258F3F09F4A3
:10402000FFCF8FB78983F8949981E5EDF5E281811F
:104030008F5F81839FBF1FBF0F900F90DF91CF9144
:104040001F910895CF93DF93E091A021F091A121DA
:10405000848183FF08C08860848383E0838386EF44
:104060008093AA2183C0982F947131F083E08383D9
:104070008FEF8093AA217AC086FF43C0C0EAD1E2C5
:10408000AA81BB818C819D8114962D913C911597BD
:10409000821793076CF49C012F5F3F4F2093A4215C
:1040A0003093A521A80FB91F11968C9187835EC00C
:1040B0008091A6219091A72118962D913C91199756
:1040C00082179307C8F42091A821222321F086812A
:1040D000816086834BC016962D913C911797AC0159
:1040E0004F5F5F4F4093A6215093A721D901A80F9E
:1040F000B91F8C9187833AC083E083831092AA21F1
:1041000035C0882384F5A0EAB1E21296CD91DC9106
:10411000139716968D919C9117972885398582174C
:104120009307D8F46E817F819C012F5F3F4F2093CE
:10413000A6213093A7214781DB01A80FB91F4C931B
:10414000888599852817390718F482E083830EC083
:1041500087E083831092AA2109C083E0838389EFDB
:104160008093AA2103C08BEF8093AA21DF91CF9186
:1041700008951F920F920FB60F9211240BB60F9253
:104180002F933F934F935F936F937F938F939F935F
:10419000AF93BF93EF93FF9355DFFF91EF91BF91E3
:1041A000AF919F918F917F916F915F914F913F91CF
:1041B0002F910F900BBE0F900FBE0F901F90189570
:1041C0001F920F920FB60F9211240BB60F922F93DE
:1041D0003F934F935F936F937F938F939F93AF938F
:1041E000BF93EF93FF932EDFFF91EF91BF91AF91BC
:1041F0009F918F917F916F915F914F913F912F91FF
:104200000F900BBE0F900FBE0F901F901895FC01E2
:10421000DB0114968C91858388EB818381E0848314
:10422000E0EAF1E211861286E0EAF0E08281826043
:104230008283789480E00895CF93DF931F92CDB767
:10424000DEB79C01FB01892B09F451C0309709F4BA
:1042500050C092858091A921882319F09923F1F308
:104260004AC08FB78983F8948981A0EAB1E291E0CE
:1042700019969C93199790E81A969C931A978FBF5A
:104280002D933C93119712966D937C9313971496EC
:104290001D921C92159716961D921C9217971896B0
:1042A0004C938081880F64817581672B11F44111D3
:1042B00003C0F901868303C08160F9018683E0EAC7
:1042C000F1E292859038E9F3F901848183708130BD
:1042D00049F0A0EAB1E2ED91FC91119784818370DD
:1042E0008130C9F7E0EAF1E28285118605C088EFE6
:1042F00003C088EF01C086EF0F90DF91CF91089542
:10430000CF93DF931F921F92CDB7DEB7811126C0E6
:104310009091D8229923F9F09091D625911101C05E
:10432000FFCF9FB79A83F8942A81E5EDF5E291815A
:10433000915091832FBF0FC09091D6259F3F09F4D4
:10434000FFCF9FB79983F8942981E5EDF5E291813C
:104350009F5F91832FBF8093D82205C09091D82270
:10436000992351F3F8CF0F900F90DF91CF910895DB
:104370000F93E8ECF4E080818F7D808380818F7DD6
:104380008083ECEAF2E202E005931092AE221092F2
:10439000AF2200E2069300E40693E4EAF2E200E4CE
:1043A0000693E5ECF5E214861586168617861286C6
:1043B0001386109294220F9108950F9385E08093B5
:1043C0009422EDEAF2E204E00593E5EAF2E204E089
:1043D00005930F9108950F9383E080939422109298
:1043E000AE221092AF22ECEAF2E202E006930F91C5
:1043F0000895E091D125F091D225309709F01995D3
:1044000008950F93CF93DF9380919422833019F412
:10441000F0DFAEDF5EC08091902290919122C0913A
:10442000CF25D091D025C81BD90B71F520919222B0
:1044300030919322820F931F809392229093932224
:104440002091CB253091CC258217930721F08091C4
:10445000AB21882341F084E080939422E4EAF2E2E5
:1044600002E0069336C0E091D325F091D425309731
:1044700099F01995882381F0109290221092912240
:10448000C091CF25D091D025C034D10528F010920D
:10449000AB21C0E4D0E003C081E08093AB21E8E928
:1044A000F2E2C68BD78B809190229091912220913D
:1044B000CD253091CE25280F391F208F318FC80F81
:1044C000D91FC0939022D0939122ECEAF2E202E04D
:1044D0000693DF91CF910F910895FC018181E82F20
:1044E000E7708E2F90E0FC013197E730F105D8F4AA
:1044F0008827E250FF4F8F4F0C94D23A80E190E032
:10450000089580E290E0089580E490E0089580E8C6
:1045100090E0089580E091E0089580E092E00895B1
:104520008FEF93E0089588E090E00895282F2F7092
:1045300030E0220F331F082E000C990B8827990FAB
:10454000881F9927820F931F02979C01220F331F08
:10455000220F331F220F331F820F931F845D9D4D47
:1045600008950F93CF938091CC0480FF65C081E0C4
:104570008093CC04E4EAF2E200E80693ECEAF2E28B
:1045800000E806938093CA04E4EAF2E200E10693AD
:1045900080919422882329F08350823008F429DF07
:1045A000E7DE8091A6229091A722089709F046C0E5
:1045B00088E0E0E5F2E2A5ECB5E201900D928A9583
:1045C000E1F7E8ECF4E080818062808380818062A2
:1045D00080830E946C37C82F811103C0EEDEC1E0DA
:1045E0002EC08091C52588236CF4109292221092DF
:1045F0009322109290221092912282E08093942232
:1046000000DF1DC08091CB259091CC25892B11F422
:10461000E2DE15C010929222109293221092902204
:104620001092912281E080939422E4EAF2E202E087
:10463000069300E2069303C0C0E001C0C1E08C2FE6
:10464000CF910F9108958F929F92AF92BF92DF9278
:10465000EF92FF920F931F93CF93DF93D82E66DFD5
:104660008C01CD2DCF70D0E0CE01880F991FCD2DBC
:104670000D2C000CDD0BCC27DD0FCC1FDD27C80F68
:10468000D91FCE01880F991F880F991F880F991F76
:104690009C012C553D4D7901C9011FDF4C01DD20E6
:1046A0000CF07BC0FE01EE0FFF1FEE0FFF1FEE0FA1
:1046B000FF1FE856FD4D22893389D80115968D914B
:1046C0009C911697820F931F15968D939C93169726
:1046D00013962D913C9114978217930709F447C0C4
:1046E000281B390B2115B4E03B0740F02FEF33E0D6
:1046F000C901B4010E949C3A281B390BF801808142
:1047000081FF0AC0C901B4010E949C3A41E0892B93
:1047100009F040E0842F01C080E0D8019C9180FB2B
:1047200091F99C93FE01EE0FFF1FEE0FFF1FEE0F9E
:10473000FF1FE856FD4D128A138A26873787119688
:104740002D913C91129715968D919C911697820F01
:10475000931FCC0FDD1FCC0FDD1FCC0FDD1FC85505
:10476000DD4D88839983F70102E00693E4C0D80108
:104770008C9181FFCDC08D7F8C93CC0FDD1FCC0F32
:10478000DD1FCC0FDD1FC856DD4D1A8A1B8A1E8621
:104790001F86F70102E00693CEC0FE01EE0FFF1F59
:1047A000EE0FFF1FEE0FFF1FE856FD4DA684B784E6
:1047B000D8018C9182FF1BC01196ED91FC9112974C
:1047C00015962D913C91169713968D919C91149767
:1047D000B4010E949C3AB0E4DB9EB00111246459FC
:1047E0007E4DAC01CF01820F931F0E94823DF801E4
:1047F000258136812A0D3B1D258336838381948153
:104800008217930768F485839683CC0FDD1FCC0F46
:10481000DD1FCC0FDD1FC856DD4D8A899B8978C00E
:10482000FE01EE0FFF1FEE0FFF1FEE0FFF1FE856FA
:10483000FD4D42895389A416B50609F069C02817B1
:10484000390709F465C0AC01421B530B9A012115CD
:1048500054E0350748F02FEF33E0C901B4010E945E
:104860009C3A281B390B06C0C901B4010E949C3A2E
:10487000281B390BFE01EE0FFF1FEE0FFF1FEE0F7F
:10488000FF1FE856FD4D168617862815390500F5D9
:10489000D8018C9184608C93B0E4DB9EC00111241C
:1048A00084599E4DFE01EE0FFF1FEE0FFF1FEE0F0E
:1048B000FF1FE855FD4D80839183CC0FDD1FCC0F8A
:1048C000DD1FCC0FDD1FC856DD4D8A8A9B8A1CC0B8
:1048D000F8014181528185819681840F951FFE01E7
:1048E000EE0FFF1FEE0FFF1FEE0FFF1FE855FD4DF0
:1048F00080839183CC0FDD1FCC0FDD1FCC0FDD1F1C
:10490000C856DD4D2A8B3B8BF70102E0069313C09E
:10491000D8018C9180FF0FC08E7F8C931796ED91FC
:10492000FC911897309739F015966D917C911697F8
:104930004D2D80E01995DF91CF911F910F91FF9040
:10494000EF90DF90BF90AF909F908F9008951F934E
:10495000CF93DF931F92CDB7DEB78FB78983F894DB
:10496000198181E0CDDCEAECF4E080E4808380E230
:104970008083E1ECF4E0808181608083A9ECB4E085
:104980008C9182608C93E8ECF4E080818064808379
:104990008C9181608C938081806880831FBF0F9091
:1049A000DF91CF911F9108950F931F93CF93DF93C2
:1049B0001F921F92CDB7DEB700E610E0F80110821B
:1049C00080E30E94AF32E0ECF4E080818064808379
:1049D00081E0F80180838FB78A83F8941A81E8E92F
:1049E000F2E21586158A158E15A215A615AAECE217
:1049F000F2E280818E7F8083E5E3F2E280818E7F28
:104A00008083EEE3F2E280818E7F8083E7E4F2E24E
:104A100080818E7F80836AE170E082E00E948C3A20
:104A20008F3F19F08093FA0403C08FE18093FA045A
:104A30006BE170E082E00E948C3A8F3F19F0809326
:104A4000FB0403C08FE18093FB04E0ECF4E0808181
:104A500082608083808180688083808180618083A0
:104A600084EA92E2868397838081806280838FEFDD
:104A70008093C504E8ECF4E080818160808310922B
:104A8000D8228091DA258F3F09F4FFCF8FB7898331
:104A9000F8949981E5EDF5E285818F5F85839FBF6D
:104AA00056DF1FBF0F900F90DF91CF911F910F9195
:104AB000089580E008958093C30408958091C3040D
:104AC00008958091D4229091D522089580E090E0BD
:104AD0000895E5ECF5E280879187628773870895F2
:104AE000282F2F7030E0220F331F082E000C990B57
:104AF0008827990F881F9927820F931FFC01EE0FBB
:104B0000FF1FEE0FFF1FEE0FFF1FE856FD4D25851F
:104B1000207C09F069C06370613011F018F404C0A2
:104B200060EC03C060E801C060E440385105E9F082
:104B300050F440325105A9F040345105A1F0403104
:104B40005105D9F40CC0411522E0520791F04F3FB6
:104B500023E0520781F04115514079F408C021E06B
:104B60000DC022E00BC023E009C024E007C025E00F
:104B700005C026E003C027E001C020E0FC01EE0FE5
:104B8000FF1FEE0FFF1FEE0FFF1FE856FD4D1586AE
:104B900036E03487262B2587FC01EE0FFF1FEE0F32
:104BA000FF1FEE0FFF1FE856FD4D2585207C203CA2
:104BB00069F4FC01EE0FFF1FEE0FFF1FEE0FFF1F4A
:104BC000E856FD4D25852770273081F0880F991F05
:104BD000880F991F880F991FFC01E856FD4D8585A8
:104BE0008062858781E0089580E0089581E00895DE
:104BF000E82FEF70F0E0EE0FFF1F082E000C990B6E
:104C00008827990F881F9927E80FF91FEE0FFF1FBC
:104C1000EE0FFF1FEE0FFF1FE856FD4D858582FB4F
:104C2000882780F908950F93282F2F7030E0A9016D
:104C3000440F551F282F082E000C330B2227330F4B
:104C4000221F3327240F351FA901440F551F440F7E
:104C5000551F440F551FFA01EC55FD4D01E0069319
:104C6000FA01E856FD4D958592FF11C0FA01E8560C
:104C7000FD4D95859B7F958759DCFC01808180FFE8
:104C800006C08E7F80830780F085E02D199581E036
:104C90000F9108956F927F928F929F92AF92BF92E1
:104CA000CF92DF92EF92FF920F931F93CF93DF93F8
:104CB0001F92CDB7DEB7782E662E4A01590136DC39
:104CC0006C01272D872D8F70E82EF12CC701880FDE
:104CD000991FE72C072C000CFF08EE24FF0CEE1C9C
:104CE000FF24E80EF91EF701EE0FFF1FEE0FFF1F66
:104CF000EE0FFF1FE856FD4D8585807C09F482C0CC
:104D0000F701EE0FFF1FEE0FFF1FEE0FFF1FE8561C
:104D1000FD4D8585807C803C61F0F701EE0FFF1F23
:104D2000EE0FFF1FEE0FFF1FE856FD4D858582FD3C
:104D30006BC08FB78983F8948981F601908190FFC9
:104D400003C08FBF80E061C0F601908191609083C5
:104D50008FBF81829282A382B482158216820783DA
:104D60001087611006C091E0A114B10419F090E021
:104D700001C091E0F601808190FB81F98B7F8083F7
:104D8000222364F4F701EE0FFF1FEE0FFF1FEE0F5B
:104D9000FF1FE856FD4D128A138A30C0F701EE0F4F
:104DA000FF1FEE0FFF1FEE0FFF1FE856FD4D85851D
:104DB000807C803CB1F4C701880F991F880F991F30
:104DC000880F991F8C559D4D88DBBC01C5010E9441
:104DD0009C3A892B31F0F60180818E7F808380E0C0
:104DE00014C0F701EE0FFF1FEE0FFF1FEE0FFF1FA6
:104DF000E856FD4D16861786128A138A872D23DC06
:104E000081E003C080E001C080E00F90DF91CF918E
:104E10001F910F91FF90EF90DF90CF90BF90AF90D8
:104E20009F908F907F906F900895FF920F931F93A4
:104E3000CF93DF93182FC82FCF70D0E0CE01880F0B
:104E4000991FC12F012E000CDD0BCC27DD0FCC1FCD
:104E5000DD27C80FD91F812F69DBDC01FE01EE0FB2
:104E6000FF1FEE0FFF1FEE0FFF1FEC55FD4D02E081
:104E700005938C9180FF22C08E7F8C931796ED91C5
:104E8000FC9118973097D1F011235CF4CC0FDD1F03
:104E9000CC0FDD1FCC0FDD1FC856DD4D6A897B8925
:104EA0000AC0CC0FDD1FCC0FDD1FCC0FDD1FC85695
:104EB000DD4D6E857F85412F81E01995DF91CF9182
:104EC0001F910F91FF900895CF93C82FAEDFEC2F65
:104ED000EF70F0E0EE0FFF1F8C2FCC0F990B88279F
:104EE000990F881F9927E80FF91FEE0FFF1FEE0F8C
:104EF000FF1FEE0FFF1FE856FD4D1586CF91089559
:104F0000E82FEF70F0E0EE0FFF1F282F082E000CA7
:104F1000330B2227330F221F3327E20FF31FEE0F2D
:104F2000FF1FEE0FFF1FEE0FFF1FE856FD4D95858B
:104F3000946095877ADF81E008951F920F920FB6F3
:104F40000F9211240BB60F920F932F933F934F9311
:104F50005F936F937F938F939F93AF93BF93EF93E1
:104F6000FF938091CB04882334F480E88093CA04B3
:104F70000E943C3788C08091CB0482FF20C084E02F
:104F80008093CA048091AC2286FF7DC08091CC04BE
:104F900081FD79C0E6DA811176C08091942281305A
:104FA00011F419DA70C0843009F06DC0EDEAF2E254
:104FB00004E00593E5EAF2E204E0059364C0809121
:104FC000CB0481FF5BC082E08093CA048091A4225D
:104FD00086FF59C08091CC0481FD55C0C2DA811191
:104FE00052C080919422823041F484E080939422D4
:104FF000E4EAF2E202E0069346C0833009F043C0DF
:10500000EDEAF2E204E00593E5EAF2E204E005935A
:105010003AC080E18093CA0481E007DF81E805DFC0
:1050200082E003DF82E801DF0E9412371092C3049E
:10503000E8E9F2E2158696E0948783E48587158A8D
:10504000948B858B80E592E2808B918B91D91BC0EC
:105050008091CB0486FF07C080E48093CA0480E07F
:105060004FD9F1D510C08091CB0485FF0CC080E2F0
:105070008093CA0481E044D9E7D505C08091CB0470
:1050800084FDC7CFE5CFFF91EF91BF91AF919F9185
:105090008F917F916F915F914F913F912F910F91E0
:1050A0000F900BBE0F900FBE0F901F9018951F9280
:1050B0000F920FB60F9211240BB60F920F931F93FE
:1050C0002F933F934F935F936F937F938F939F9310
:1050D000AF93BF93CF93DF93EF93FF938091CC0473
:1050E00081FD03C03EDA8111C4C082E08093CC040C
:1050F0008091C5048195880FE4EAF2E2E81BF1098A
:1051000020813181245A324236952795369527954C
:1051100036952795822F869520FD02C090E001C02C
:1051200090E8890FE82FEF70F0E0EE0FFF1F282FB7
:10513000082E000C330B2227330F221F3327E20FD8
:10514000F31FDF01AA0FBB1FAA0FBB1FAA0FBB1FB4
:10515000A856BD4D1C969C9195FF8BC0EE0FFF1F6E
:10516000EE0FFF1FEE0FFF1FEC55FD4D00E2069303
:1051700081117AC080919422843019F43AD9F8D8F8
:1051800078C00091A6221091A7228091CF259091FE
:10519000D025C0919022D091912298012C0F3D1FD3
:1051A0008217930718F48C010C1B1D0B8091CD25E1
:1051B0009091CE25A80160E572E28C0F9D1F0E94A0
:1051C000823DC00FD11FC0939022D0939122003412
:1051D000110569F480919222909193228C0F9D1F6A
:1051E0002091CB253091CC258217930780F0E5ECF8
:1051F000F5E2C287D3870684F785E02D309729F042
:105200001995811102C0D9D834C0E5D832C0809137
:10521000CF259091D025C817D907F9F4E091D3256F
:10522000F091D425309711F4C8D823C01995811175
:1052300002C0C3D81EC02091922230919322809147
:10524000902290919122820F931F809392229093AB
:1052500093221092902210929122E4EAF2E202E06C
:10526000069300E2069305C0803811F4CAD801C045
:10527000EAD9FF91EF91DF91CF91BF91AF919F91CB
:105280008F917F916F915F914F913F912F911F91DE
:105290000F910F900BBE0F900FBE0F901F9018959F
:1052A000CF92DF92EF92FF92CF93DF93EC016B01ED
:1052B000E12CF12C60E873EC89EC91E0A7019601F8
:1052C0000E94B03ACA01B9012FEF3FEF40E050E031
:1052D0000E94B03A2115310529F481E08C8321E048
:1052E00030E02DC02230310528F482E08C8322E0AA
:1052F00030E025C02430310528F483E08C8324E09D
:1053000030E01DC02830310528F484E08C8328E08B
:1053100030E015C02034310528F485E08C8320E48A
:1053200030E00DC02F3F310509F028F486E08C8372
:1053300020E031E004C087E08C8320E034E040E0EE
:1053400050E060E873EC89EC91E00E94B03ACA0149
:10535000B901A70196010E94B03A2D833E832436FD
:10536000310518F41C821D821E82DF91CF91FF90BF
:10537000EF90DF90CF9008950F931F93CF93DF931B
:10538000EC018901862F90E08730910508F08BC0F1
:10539000FC018827EB5FFE4F8F4F0C94D23A80E0E0
:1053A00098E088839983E0E4F6E0308181E090E042
:1053B0002FEF240F02C0880F991F2A95E2F7832B45
:1053C000808371C080E498E088839983E0E4F6E00C
:1053D000308181E090E023E0240F02C0880F991F04
:1053E0002A95E2F7832B80835EC080E099E0888372
:1053F0009983E0E6F6E0308181E090E02FEF240F22
:1054000002C0880F991F2A95E2F7832B80834BC037
:1054100080E499E088839983E0E6F6E0308181E0DA
:1054200090E023E0240F02C0880F991F2A95E2F72D
:10543000832B808338C080E09AE088839983E0E8FA
:10544000F6E0308181E090E02FEF240F02C0880F5A
:10545000991F2A95E2F7832B808325C080E49AE088
:1054600088839983E0E8F6E0308181E090E023E0F2
:10547000240F02C0880F991F2A95E2F7832B80839F
:1054800012C080E09BE088839983E0EAF6E03081F7
:1054900081E090E02FEF240F02C0880F991F2A951A
:1054A000E2F7832B80834A83423061F018F4413065
:1054B00031F010C0433049F0443051F00BC080E16E
:1054C0008B8308C080E28B8305C080E48B8302C09D
:1054D00080E88B83888199810E94A31FE881F981EC
:1054E0008181887F836081831D821E821C82E88186
:1054F000F9818081807F8083B801CE01D1DEDF9188
:10550000CF911F910F910895CF93DF93EC012D81DF
:105510003E81A62FB0E00E94DA3A24E630E040E077
:1055200050E00E94B03A8A81E881F981E6FD17C017
:10553000823061F018F4813031F01BC0833049F0C3
:10554000843051F016C020AF31AF13C022AF33AF5B
:1055500010C024AF35AF0DC026AF37AF0AC08130C1
:1055600019F0823021F005C020AF31AF02C022AF68
:1055700033AF8D819E81E881F98186A397A38B81CA
:10558000E881F981E6FD04C09181892B818304C003
:1055900091818073892B8183E881F9818081807F6B
:1055A0009C81892B8083DF91CF910895089580910C
:1055B00026024E5B510960FFD3C082958F70813007
:1055C00031F008F48AC0823009F444C00895052EF1
:1055D000000C660B770B80915D2490915E24A09166
:1055E0005F24B0916024480F591F6A1F7B1F4093AE
:1055F0005D2450935E2460935F24709360248091B7
:105600005B2490915C24019680935B2490935C24AE
:105610008F3F910509F008F470C1689416F87595EC
:105620006795579547951694D1F740936124509309
:105630006224609363247093642410925B2410921C
:105640005C2410925D2410925E2410925F241092CC
:1056500060240895052E000C660B770B809153246F
:1056600090915424A0915524B0915624480F591F6D
:105670006A1F7B1F409353245093542460935524F6
:1056800070935624809151249091522401968093D6
:105690005124909352248F3F910509F008F42DC1B5
:1056A000689416F875956795579547951694D1F7B0
:1056B00040935724509358246093592470935A244C
:1056C0001092512410925224109253241092542478
:1056D00010925524109256240895052E000C660B46
:1056E000770B8091492490914A24A0914B24B0914A
:1056F0004C24480F591F6A1F7B1F40934924509325
:105700004A2460934B2470934C24809147249091B9
:105710004824019680934724909348248F3F910515
:1057200009F008F4EAC0689416F8759567955795DE
:1057300047951694D1F740934D2450934E2460938F
:105740004F247093502410924724109248241092B2
:10575000492410924A2410924B2410924C2408950C
:1057600061FF43C0052E000C660B770B80913F2430
:1057700090914024A0914124B0914224480F591F98
:105780006A1F7B1F40933F24509340246093412421
:105790007093422480913D2490913E240196809301
:1057A0003D2490933E248F3F910509F008F4A5C055
:1057B000689416F875956795579547951694D1F79F
:1057C000409343245093442460934524709346248B
:1057D00010923D2410923E2410923F2410924024B7
:1057E0001092412410924224089562FF43C0052E76
:1057F000000C660B770B8091352490913624A09194
:105800003724B0913824480F591F6A1F7B1F4093DB
:105810003524509336246093372470933824809134
:10582000332490913424019680933324909334242C
:105830008F3F910509F008F460C0689416F87595DB
:105840006795579547951694D1F74093392450930F
:105850003A2460933B2470933C241092332410929A
:10586000342410923524109236241092372410924A
:105870003824089563FF41C0052E000C660B770B9A
:1058800080912B2490912C24A0912D24B0912E2432
:10589000480F591F6A1F7B1F40932B2450932C24C1
:1058A00060932D2470932E248091292490912A2492
:1058B00001968093292490932A248F3F9105E9F043
:1058C000E0F0689416F87595679557954795169486
:1058D000D1F740932F245093302460933124709358
:1058E00032241092292410922A2410922B241092F0
:1058F0002C2410922D2410922E2408952F923F9242
:105900004F925F926F927F928F929F92AF92BF92CF
:10591000CF92DF92EF92FF920F931F93CF93DF937B
:10592000CDB7DEB72E97CDBFDEBF8FB78A83F89491
:105930008A8140902B2050902C2060902D207090D8
:105940002E2000912720109128202091292030918D
:105950002A200B871C872D873E878FBF8091E122ED
:105960009091E222A091E322B091E42248165906D8
:105970006A067B0671F48091DD229091DE22A0916F
:10598000DF22B091E022081719072A073B0709F424
:10599000A3C080912B2090912C20A0912D20B0911C
:1059A0002E208C019D0140E050E0BA018B831C83C6
:1059B0002D833E834F83588769877A87AA24AA94C8
:1059C000BB24BA94CC24CA94DD24DA94E12CF12CC3
:1059D00000E010E02B813C814D815E8160E070E051
:1059E00080E090E00E94E93AA12C0F2EF1EEBF2E4C
:1059F000F02D0F2EF5EFCF2EF02D0F2EF5E0DF2E30
:105A0000F02D0E943C3B922E832E342E252E809129
:105A1000272090912820A0912920B0912A208C0144
:105A20009D0140E050E0BA018B831C832D833E83AF
:105A30004F83588769877A87AA24AA94BB24BA948B
:105A4000CC24CA94DD24DA9400E010E02B813C8160
:105A50004D815E8160E070E080E090E00E94E93A74
:105A6000A12C0F2EF1EEBF2EF02D0F2EF5EFCF2E25
:105A7000F02D0F2EF5E0DF2EF02D0E943C3B722F13
:105A8000632F942F852F4092E1225092E222609260
:105A9000E3227092E4222B853C854D855E85209320
:105AA000DD223093DE224093DF225093E0222FB795
:105AB0002983F89429819092212480922224309283
:105AC0002324209224247093192460931A24909301
:105AD0001B2480931C242FBF2E96CDBFDEBFDF91E9
