:100000000BC100002AC1000028C1000026C1000069
:1000100024C1000022C1000020C100001EC1000058
:100020001CC100001AC1000018C100007AC1000004
:1000300014C100000C949D0E16C7000041C70000BB
:100040006CC7000097C70000C2C70000EDC70000E2
:100050000C9441080C946E080C949B080C94C808EE
:10006000FCC00000FAC00000F8C00000F6C00000AC
:10007000F4C00000F2C00000F0C00000EEC00000BC
:10008000ECC00000EAC00000E8C00000E6C00000CC
:10009000E4C00000E2C00000E0C0000039C400007D
:1000A00069C4000099C40000C9C40000D6C00000A3
:1000B000D4C00000D2C000000C94C40E0C94B70A47
:1000C0000C94E40A0C94110B0C943E0B0C946B0BE7
:1000D0000C94980B0C94C50B0C94F20B0C941F0C05
:1000E0000C944C0CBAC00000B8C00000B6C00000B0
:1000F000B4C00000B2C00000B0C00000AEC000003C
:10010000ACC00000AAC00000A8C00000A6C000004B
:10011000A4C00000A2C00000A0C0000031C30000C5
:1001200061C3000091C30000C1C3000096C000007D
:1001300094C000000C94F5080C9422090C944F090B
:100140000C947C090C94A9090C94D6090C94030A0C
:100150000C94300A0C945D0A0C948A0A7EC000004C
:100160007CC000007AC0000078C0000076C00000AB
:1001700074C0000072C0000070C000006EC00000BB
:100180006CC000006AC0000068C0000066C00000CB
:1001900064C0000062C0000060C000005EC00000DB
:1001A0005CC000005AC0000058C0000056C00000EB
:1001B0000C94790C0C94A60C0C94D30C0C94000D9C
:1001C0000C942D0D0C945A0D48C0000046C0000040
:1001D00044C0000042C0000040C000003EC000001B
:1001E0003CC000003AC0000038C0000036C000002B
:1001F00034C000000C9481150C943B1662106510FD
:1002000068106B106E1071107410B317C617D917E1
:10021000EC17FF171218251811241FBECFEFCDBF02
:10022000DFE5DEBF00E00CBF11E2A0E0B0E2E4EBEE
:10023000FBE400E00BBF02C007900D92A832B107AB
:10024000D9F724E2A8E2B1E201C01D92A332B207BD
:10025000E1F70E94CB180C94D825D2CE04C061508F
:100260007109810991096115710581059105B9F738
:10027000089580E180932104E0E2F4E0818184FD2F
:10028000FDCF609124047091250480912604909103
:10029000270408958093F7239093F8230895CF932C
:1002A000DF9364E080E00E94DF1BC0EFD0E0888134
:1002B0008260888361E080EF90E00E94F023888173
:1002C0008460888369EE73E080E090E0C7DF888116
:1002D00088618883E0EFF0E0818183FFFDCF109299
:1002E0002004E0E2F4E0818180FDFDCFE0E2F4E073
:1002F0008FEF9FEFDC0180879187A287B3871482FD
:10030000158216821782818180FDFDCFE0E2F4E044
:10031000128281E08083818180FDFDCFDF91CF91CA
:1003200008951F920F920FB60F9211240BB60F92E1
:100330002F933F934F935F936F937F938F939F93ED
:10034000AF93BF93CF93DF93EF93FF931092220469
:10035000C091F723D091F823209719F08ADFFE018E
:100360001995FF91EF91DF91CF91BF91AF919F913F
:100370008F917F916F915F914F913F912F910F904E
:100380000BBE0F900FBE0F901F90189504C06150C8
:100390007109810991096115710581059105B9F707
:1003A0000895CF92DF92EF92FF920F931F93CF9316
:1003B000E6E0F0E283E0818381E090E0848395834E
:1003C0008F01CC24C394D12C0F2EF3EBEF2EF2E24D
:1003D000FF2EF02DF801C086D18641E0B80180E8FB
:1003E00094E00E94000FF701C0819C2F907881114A
:1003F0000DC091F08C2F8178813829F465EF71E080
:1004000080E090E0C3DFC0FDE5CF0CC065E070E0A8
:1004100080E090E0BBDFDECF65E070E080E090E060
:10042000B5DFD8CFCF911F910F91FF90EF90DF9064
:10043000CF900895E0E8F6E088E3808B818BE0E4DC
:10044000F6E0808B818B0895EF92FF920F931F93BC
:10045000CF93DF93E6E0F0E281E0818381E090E0FA
:10046000848395838087918741E0BF0180E894E091
:100470000E94000F8091B3228093BB22813178F1DA
:10048000C6E0D0E282E089830F2EF3EBEF2EF2E29A
:10049000FF2EF02D80E1F701808301E010E0088756
:1004A000198740E0BE0180E894E00E94000F65E0FB
:1004B00070E080E090E06ADF74DF84E1898381E0AE
:1004C000F70180830887198740E0BE0180E894E047
:1004D0000E94000F65E070E080E090E057DFDF9160
:1004E000CF911F910F91FF90EF90089560E485E008
:1004F0000E94DF1B6AE170E280EA94E00E94EB0E4A
:10050000E0EAF4E081818860818360E483E00E9416
:10051000DF1B61E170E280E894E00E94EB0EE0E80E
:10052000F4E081818860818361E876E988E990E080
:100530002DDF8ACF08950895DF92EF92FF920F93F7
:100540001F93CF93DF938091BB22813108F4B2C017
:1005500028DF06E010E26894DD24D5F8F801D182A6
:1005600080912821805FC3EBD2E2888389836894DD
:10057000EE24E1F8F12CE086F18640E0B80180E855
:1005800094E00E94000F65E070E080E090E0FEDE05
:1005900008DF82E3F80181838091282196E9980F92
:1005A0009883845C8983E086F18640E0B80180E826
:1005B00094E00E94000F65E070E080E090E0E6DEED
:1005C000F0DE84E3F80181838EE188838983E0860D
:1005D000F18640E0B80180E894E00E94000F65E0F9
:1005E00070E080E090E0D2DEDCDE88E3F801818319
:1005F00084E1888381E090E08087918740E0B801C2
:1006000080E894E00E94000F65E070E080E090E0F8
:10061000BDDEC7DEF801D1828091282194E7980FD2
:100620009883805F8983E086F18640E0B80180E8A6
:1006300094E00E94000F65E070E080E090E0A6DEAC
:10064000B0DE80E3F801818384E0888381E48983DC
:1006500082E48A8383E48B8384E48C8385E090E066
:100660008087918740E0B80180E894E00E94000F05
:1006700065E070E080E090E089DE809128218F5F66
:10068000813418F48093282132C01092282189DE09
:10069000E6E0F0E280E181831086118640E0BF0150
:1006A00080E894E00E94000F65E070E080E090E058
:1006B0006DDE1DC08031D9F474DEE6E0F0E284E83E
:1006C0008183A3EBB2E281E08C9380E811968C9356
:1006D00082E090E08087918740E0BF0180E894E06D
:1006E0000E94000F69E873E180E090E04FDEDF9147
:1006F000CF911F910F91FF90EF90DF900895089593
:10070000811522E0920769F480912A2191E0980FE7
:1007100090932A21811114C062E081E00C94DF1BC8
:1007200008958034924061F48091292191E0980FDE
:1007300090932921811104C062E082E00C94DF1BB8
:100740000895811522E0920761F480912A21815059
:1007500080932A21811113C062E081E00C94F51B83
:1007600008958034924059F48091292181508093DA
:100770002921811104C062E082E00C94F51B0895E8
:100780001F920F920FB60F9211240BB60F922F9358
:100790003F934F935F936F937F938F939F93AF9309
:1007A000BF93EF93FF934091240250912502E09173
:1007B000FB23F091FC2361E080E092E01995FF912A
:1007C000EF91BF91AF919F918F917F916F915F91C9
:1007D0004F913F912F910F900BBE0F900FBE0F9036
:1007E0001F9018951F920F920FB60F9211240BB6FF
:1007F0000F922F933F934F935F936F937F938F93BA
:100800009F93AF93BF93EF93FF9340912C0250912E
:100810002D02E091FB23F091FC2362E080E092E066
:100820001995FF91EF91BF91AF919F918F917F911A
:100830006F915F914F913F912F910F900BBE0F9051
:100840000FBE0F901F9018951F920F920FB60F9228
:1008500011240BB60F922F933F934F935F936F9397
:100860007F938F939F93AF93BF93EF93FF934091A9
:10087000340250913502E091FB23F091FC2364E0B7
:1008800080E092E01995FF91EF91BF91AF919F9118
:100890008F917F916F915F914F913F912F910F9029
:1008A0000BBE0F900FBE0F901F9018951F920F92C6
:1008B0000FB60F9211240BB60F922F933F934F93C5
:1008C0005F936F937F938F939F93AF93BF93EF93B8
:1008D000FF9340913C0250913D02E091FB23F09147
:1008E000FC2368E080E092E01995FF91EF91BF91C1
:1008F000AF919F918F917F916F915F914F913F91B8
:100900002F910F900BBE0F900FBE0F901F90189558
:100910001F920F920FB60F9211240BB60F922F93C6
:100920003F934F935F936F937F938F939F93AF9377
:10093000BF93EF93FF934091640250916502E09161
:10094000F923F091FA2361E080E492E01995FF9198
:10095000EF91BF91AF919F918F917F916F915F9137
:100960004F913F912F910F900BBE0F900FBE0F90A4
:100970001F9018951F920F920FB60F9211240BB66D
:100980000F922F933F934F935F936F937F938F9328
:100990009F93AF93BF93EF93FF9340916C0250915D
:1009A0006D02E091F923F091FA2362E080E492E095
:1009B0001995FF91EF91BF91AF919F918F917F9189
:1009C0006F915F914F913F912F910F900BBE0F90C0
:1009D0000FBE0F901F9018951F920F920FB60F9297
:1009E00011240BB60F922F933F934F935F936F9306
:1009F0007F938F939F93AF93BF93EF93FF93409118
:100A0000740250917502E091F923F091FA2364E0A9
:100A100080E492E01995FF91EF91BF91AF919F9182
:100A20008F917F916F915F914F913F912F910F9097
:100A30000BBE0F900FBE0F901F9018951F920F9234
:100A40000FB60F9211240BB60F922F933F934F9333
:100A50005F936F937F938F939F93AF93BF93EF9326
:100A6000FF9340917C0250917D02E091F923F09137
:100A7000FA2368E080E492E01995FF91EF91BF912D
:100A8000AF919F918F917F916F915F914F913F9126
:100A90002F910F900BBE0F900FBE0F901F901895C7
:100AA000BF92CF92DF92EF92FF920F931F93CF935B
:100AB000DF931F92CDB7DEB78C017B01811522E059
:100AC000920781F461E270E082E00E94E623C82E82
:100AD000D12C60E270E082E00E94E623DC2CCC2482
:100AE000C82A12C080349240D1F565E270E082E0FD
:100AF0000E94E623C82ED12C64E270E082E00E94BE
:100B0000E623DC2CCC24C82A8FB78983F894B980DB
:100B1000C801F6DDF801808192E09083C486D58615
:100B2000F70125813681F801208F318FF7019281FD
:100B3000F8019283F7019481F8019483F70193817E
:100B4000F8019383F7019181F80191838170F70196
:100B50009081892BF8018083C801F3DDBFBE0F901F
:100B6000DF91CF911F910F91FF90EF90DF90CF9089
:100B7000BF900895DF92EF92FF920F931F93CF9350
:100B8000DF931F92CDB7DEB78C017B018FB78983CE
:100B9000F894D980C801B4DDF8018081807CF70128
:100BA0008083F801808D918DF70185839683F8010C
:100BB0008281F7018283F8018481F7018483F8013F
:100BC0008381F7018383F8018181F7018183C80163
:100BD000B8DDDFBE0F90DF91CF911F910F91FF9095
:100BE000EF90DF900895AF92BF92CF92DF92EF9295
:100BF000FF920F931F93CF93DF931F92CDB7DEB772
:100C00006C01B62E7A01862F837029F4962F969563
:100C1000969582E002C0962F80E090FF8F5F86015C
:100C2000005E1F4F98E0899F000D111D11248FB7A2
:100C30008983F894A980C60163DDF7018081F801FA
:100C40008083F7018281F8018283F7018181F801B5
:100C50008183B0FE04C0F7018381F8018683C60159
:100C600070DDAFBE0F90DF91CF911F910F91FF907C
:100C7000EF90DF90CF90BF90AF900895AF92BF926A
:100C8000CF92DF92EF92FF920F931F93CF93DF9358
:100C90001F92CDB7DEB76C01B62E7A01862F837016
:100CA00029F4962F9695969582E002C0962F80E0C3
:100CB00090FF8F5F8601005E1F4F98E0899F000DB7
:100CC000111D11248FB78983F894A980C60118DDFE
:100CD000F8018081F7018083F8018281F701828326
:100CE000F8018181F7018183B0FE04C0F80186819B
:100CF000F7018383C60125DDAFBE0F90DF91CF9151
:100D00001F910F91FF90EF90DF90CF90BF90AF9029
:100D100008958032934061F480912B2191E0980FE7
:100D200090932B21811104C064E082E00C94DF1BBE
:100D300008958032934059F480912B218150809303
:100D40002B21811104C064E082E00C94F51B08950E
:100D50009F92AF92BF92CF92DF92EF92FF920F934A
:100D60001F93CF93DF931F92CDB7DEB7803223E07E
:100D7000920709F03CC07B018C0163E370E082E0E4
:100D80000E94E623982E62E370E082E00E94E62350
:100D9000A82E67E370E082E00E94E623B82E66E3A7
:100DA00070E082E00E94E623C82E8FB78983F89412
:100DB000D980C801AEDFF80180811082F7019181EE
:100DC000F8019183F7019281F8019283F7019381F1
:100DD000F80193839086A186B286C3868170F7015D
:100DE0009081892BF8018083C801A3DFDFBE0F90BB
:100DF000DF91CF911F910F91FF90EF90DF90CF90F7
:100E0000BF90AF909F900895DF92EF92FF920F9363
:100E10001F93CF93DF931F92CDB7DEB78C017B0179
:100E20008FB78983F894D980C80173DFF801808176
:100E30008E7FF7018083F8018181F7018183F801BA
:100E40008281F7018283F8018381F7018383C801DE
:100E500070DFDFBE0F90DF91CF911F910F91FF9058
:100E6000EF90DF9008951F920F920FB60F9211240A
:100E70000BB60F922F933F934F935F936F937F9394
:100E80008F939F93AF93BF93EF93FF93E091722162
:100E9000F0917321309709F01995FF91EF91BF916F
:100EA000AF919F918F917F916F915F914F913F9102
:100EB0002F910F900BBE0F900FBE0F901F901895A3
:100EC0001F920F920FB60F9211240BB60F922F9311
:100ED0003F934F935F936F937F938F939F93AF93C2
:100EE000BF93EF93FF93E0917021F09171213097C0
:100EF00009F01995FF91EF91BF91AF919F918F915B
:100F00007F916F915F914F913F912F910F900BBE09
:100F10000F900FBE0F901F9018951F920F920FB653
:100F20000F9211240BB60F922F933F934F935F9321
:100F30006F937F938F939F93AF93BF93EF93FF93A1
:100F4000E0916E21F0916F21309709F01995FF9192
:100F5000EF91BF91AF919F918F917F916F915F9131
:100F60004F913F912F910F900BBE0F900FBE0F909E
:100F70001F9018951F920F920FB60F9211240BB667
:100F80000F922F933F934F935F936F937F938F9322
:100F90009F93AF93BF93EF93FF93E0916C21F091F8
:100FA0006D21309709F01995FF91EF91BF91AF91A5
:100FB0009F918F917F916F915F914F913F912F9171
:100FC0000F900BBE0F900FBE0F901F9018951F92A1
:100FD0000F920FB60F9211240BB60F922F933F93DF
:100FE0004F935F936F937F938F939F93AF93BF9331
:100FF000EF93FF93E0916A21F0916B21309709F014
:101000001995FF91EF91BF91AF919F918F917F9132
:101010006F915F914F913F912F910F900BBE0F9069
:101020000FBE0F901F9018951F920F920FB60F9240
:1010300011240BB60F922F933F934F935F936F93AF
:101040007F938F939F93AF93BF93EF93FF93E09121
:101050006821F0916921309709F01995FF91EF917E
:10106000BF91AF919F918F917F916F915F914F91C0
:101070003F912F910F900BBE0F900FBE0F901F90BE
:1010800018951F920F920FB60F9211240BB60F9264
:101090002F933F934F935F936F937F938F939F9380
:1010A000AF93BF93EF93FF93E0916621F091672197
:1010B000309709F01995FF91EF91BF91AF919F91F2
:1010C0008F917F916F915F914F913F912F910F90F1
:1010D0000BBE0F900FBE0F901F9018951F920F928E
:1010E0000FB60F9211240BB60F922F933F934F938D
:1010F0005F936F937F938F939F93AF93BF93EF9380
:10110000FF93E0916421F0916521309709F01995E2
:10111000FF91EF91BF91AF919F918F917F916F91CF
:101120005F914F913F912F910F900BBE0F900FBE8B
:101130000F901F9018951F920F920FB60F921124C7
:101140000BB60F922F933F934F935F936F937F93C1
:101150008F939F93AF93BF93EF93FF93E09162219F
:10116000F0916321309709F01995FF91EF91BF91AC
:10117000AF919F918F917F916F915F914F913F912F
:101180002F910F900BBE0F900FBE0F901F901895D0
:101190001F920F920FB60F9211240BB60F922F933E
:1011A0003F934F935F936F937F938F939F93AF93EF
:1011B000BF93EF93FF93E0916021F091612130970D
:1011C00009F01995FF91EF91BF91AF919F918F9188
:1011D0007F916F915F914F913F912F910F900BBE37
:1011E0000F900FBE0F901F9018951F920F920FB681
:1011F0000F9211240BB60F922F933F934F935F934F
:101200006F937F938F939F93AF93BF93EF93FF93CE
:10121000E0915E21F0915F21309709F01995FF91DF
:10122000EF91BF91AF919F918F917F916F915F915E
:101230004F913F912F910F900BBE0F900FBE0F90CB
:101240001F9018951F920F920FB60F9211240BB694
:101250000F922F933F934F935F936F937F938F934F
:101260009F93AF93BF93EF93FF93E0915C21F09135
:101270005D21309709F01995FF91EF91BF91AF91E2
:101280009F918F917F916F915F914F913F912F919E
:101290000F900BBE0F900FBE0F901F9018951F92CE
:1012A0000F920FB60F9211240BB60F922F933F930C
:1012B0004F935F936F937F938F939F93AF93BF935E
:1012C000EF93FF93E0915A21F0915B21309709F061
:1012D0001995FF91EF91BF91AF919F918F917F9160
:1012E0006F915F914F913F912F910F900BBE0F9097
:1012F0000FBE0F901F9018951F920F920FB60F926E
:1013000011240BB60F922F933F934F935F936F93DC
:101310007F938F939F93AF93BF93EF93FF93E0914E
:101320005821F0915921309709F01995FF91EF91CB
:10133000BF91AF919F918F917F916F915F914F91ED
:101340003F912F910F900BBE0F900FBE0F901F90EB
:1013500018951F920F920FB60F9211240BB60F9291
:101360002F933F934F935F936F937F938F939F93AD
:10137000AF93BF93EF93FF93E0915621F0915721E4
:10138000309709F01995FF91EF91BF91AF919F911F
:101390008F917F916F915F914F913F912F910F901E
:1013A0000BBE0F900FBE0F901F9018951F920F92BB
:1013B0000FB60F9211240BB60F922F933F934F93BA
:1013C0005F936F937F938F939F93AF93BF93EF93AD
:1013D000FF93E0915421F0915521309709F0199530
:1013E000FF91EF91BF91AF919F918F917F916F91FD
:1013F0005F914F913F912F910F900BBE0F900FBEB9
:101400000F901F9018951F920F920FB60F921124F4
:101410000BB60F922F933F934F935F936F937F93EE
:101420008F939F93AF93BF93EF93FF93E0915221DC
:10143000F0915321309709F01995FF91EF91BF91E9
:10144000AF919F918F917F916F915F914F913F915C
:101450002F910F900BBE0F900FBE0F901F901895FD
:101460001F920F920FB60F9211240BB60F922F936B
:101470003F934F935F936F937F938F939F93AF931C
:10148000BF93EF93FF93E0915021F091512130975A
:1014900009F01995FF91EF91BF91AF919F918F91B5
:1014A0007F916F915F914F913F912F910F900BBE64
:1014B0000F900FBE0F901F9018951F920F920FB6AE
:1014C0000F9211240BB60F922F933F934F935F937C
:1014D0006F937F938F939F93AF93BF93EF93FF93FC
:1014E000E0914E21F0914F21309709F01995FF912D
:1014F000EF91BF91AF919F918F917F916F915F918C
:101500004F913F912F910F900BBE0F900FBE0F90F8
:101510001F9018951F920F920FB60F9211240BB6C1
:101520000F922F933F934F935F936F937F938F937C
:101530009F93AF93BF93EF93FF93E0914C21F09172
:101540004D21309709F01995FF91EF91BF91AF911F
:101550009F918F917F916F915F914F913F912F91CB
:101560000F900BBE0F900FBE0F901F9018951F92FB
:101570000F920FB60F9211240BB60F922F933F9339
:101580004F935F936F937F938F939F93AF93BF938B
:10159000EF93FF93E0914A21F0914B21309709F0AE
:1015A0001995FF91EF91BF91AF919F918F917F918D
:1015B0006F915F914F913F912F910F900BBE0F90C4
:1015C0000FBE0F901F9018951F920F920FB60F929B
:1015D00011240BB60F922F933F934F935F936F930A
:1015E0007F938F939F93AF93BF93EF93FF93E0917C
:1015F0004821F0914921309709F01995FF91EF9119
:10160000BF91AF919F918F917F916F915F914F911A
:101610003F912F910F900BBE0F900FBE0F901F9018
:1016200018951F920F920FB60F9211240BB60F92BE
:101630002F933F934F935F936F937F938F939F93DA
:10164000AF93BF93EF93FF93E0914621F091472131
:10165000309709F01995FF91EF91BF91AF919F914C
:101660008F917F916F915F914F913F912F910F904B
:101670000BBE0F900FBE0F901F9018951F920F92E8
:101680000FB60F9211240BB60F922F933F934F93E7
:101690005F936F937F938F939F93AF93BF93EF93DA
:1016A000FF93E0914421F0914521309709F019957D
:1016B000FF91EF91BF91AF919F918F917F916F912A
:1016C0005F914F913F912F910F900BBE0F900FBEE6
:1016D0000F901F9018951F920F920FB60F92112422
:1016E0000BB60F922F933F934F935F936F937F931C
:1016F0008F939F93AF93BF93EF93FF93E09142211A
:10170000F0914321309709F01995FF91EF91BF9126
:10171000AF919F918F917F916F915F914F913F9189
:101720002F910F900BBE0F900FBE0F901F9018952A
:101730001F920F920FB60F9211240BB60F922F9398
:101740003F934F935F936F937F938F939F93AF9349
:10175000BF93EF93FF93E0914021F09141213097A7
:1017600009F01995FF91EF91BF91AF919F918F91E2
:101770007F916F915F914F913F912F910F900BBE91
:101780000F900FBE0F901F9018951F920F920FB6DB
:101790000F9211240BB60F922F933F934F935F93A9
:1017A0006F937F938F939F93AF93BF93EF93FF9329
:1017B000E0913E21F0913F21309709F01995FF917A
:1017C000EF91BF91AF919F918F917F916F915F91B9
:1017D0004F913F912F910F900BBE0F900FBE0F9026
:1017E0001F9018951F920F920FB60F9211240BB6EF
:1017F0000F922F933F934F935F936F937F938F93AA
:101800009F93AF93BF93EF93FF93E0913C21F091AF
:101810003D21309709F01995FF91EF91BF91AF915C
:101820009F918F917F916F915F914F913F912F91F8
:101830000F900BBE0F900FBE0F901F9018951F9228
:101840000F920FB60F9211240BB60F922F933F9366
:101850004F935F936F937F938F939F93AF93BF93B8
:10186000EF93FF93E0913A21F0913B21309709F0FB
:101870001995FF91EF91BF91AF919F918F917F91BA
:101880006F915F914F913F912F910F900BBE0F90F1
:101890000FBE0F901F9018951F920F920FB60F92C8
:1018A00011240BB60F922F933F934F935F936F9337
:1018B0007F938F939F93AF93BF93EF93FF93E091A9
:1018C0003821F0913921309709F01995FF91EF9166
:1018D000BF91AF919F918F917F916F915F914F9148
:1018E0003F912F910F900BBE0F900FBE0F901F9046
:1018F00018951F920F920FB60F9211240BB60F92EC
:101900002F933F934F935F936F937F938F939F9307
:10191000AF93BF93EF93FF93E0913621F09137217E
:10192000309709F01995FF91EF91BF91AF919F9179
:101930008F917F916F915F914F913F912F910F9078
:101940000BBE0F900FBE0F901F9018951F920F9215
:101950000FB60F9211240BB60F922F933F934F9314
:101960005F936F937F938F939F93AF93BF93EF9307
:10197000FF93E0913421F0913521309709F01995CA
:10198000FF91EF91BF91AF919F918F917F916F9157
:101990005F914F913F912F910F900BBE0F900FBE13
:1019A0000F901F9018951F920F920FB60F9211244F
:1019B0000BB60F922F933F934F935F936F937F9349
:1019C0008F939F93AF93BF93EF93FF93E091322157
:1019D000F0913321309709F01995FF91EF91BF9164
:1019E000AF919F918F917F916F915F914F913F91B7
:1019F0002F910F900BBE0F900FBE0F901F90189558
:101A00001F920F920FB60F9211240BB60F922F93C5
:101A10003F934F935F936F937F938F939F93AF9376
:101A2000BF93EF93FF93E0913021F09131213097F4
:101A300009F01995FF91EF91BF91AF919F918F910F
:101A40007F916F915F914F913F912F910F900BBEBE
:101A50000F900FBE0F901F9018951F920F920FB608
:101A60000F9211240BB60F922F933F934F935F93D6
:101A70006F937F938F939F93AF93BF93EF93FF9356
:101A8000E0912E21F0912F21309709F01995FF91C7
:101A9000EF91BF91AF919F918F917F916F915F91E6
:101AA0004F913F912F910F900BBE0F900FBE0F9053
:101AB0001F9018951F920F920FB60F9211240BB61C
:101AC0000F922F933F934F935F936F937F938F93D7
:101AD0009F93AF93BF93EF93FF93E0912C21F091ED
:101AE0002D21309709F01995FF91EF91BF91AF919A
:101AF0009F918F917F916F915F914F913F912F9126
:101B00000F900BBE0F900FBE0F901F9018951F9354
:101B1000CF93DF931F921F92CDB7DEB72FB72A83E3
:101B2000F8941A81282F392F211588E0380749F4B5
:101B300061E083E00E94DF1B64E083E00E94DF1B22
:101B40004FC0203488E0380749F462E083E00E9407
:101B5000DF1B64E083E00E94DF1B42C0211589E0A7
:101B6000380749F461E084E00E94DF1B64E084E010
:101B70000E94DF1B35C0203489E0380749F462E059
:101B800084E00E94DF1B64E084E00E94DF1B28C029
:101B900021158AE0380749F461E085E00E94DF1BE7
:101BA00064E085E00E94DF1B1BC020348AE0380718
:101BB00049F462E085E00E94DF1B64E085E00E945A
:101BC000DF1B0EC021153B4049F461E086E00E9416
:101BD000DF1B64E086E00E94DF1B02C01FBF10C055
:101BE00080910E248F3F09F4FFCF8FB78983F8943B
:101BF0009981EDE0F4E281818F5F81839FBF1FBFF8
:101C00000F900F90DF91CF911F910895CF93DF93A5
:101C1000E0917421F0917521848183FF08C0886070
:101C2000848383E0838386EF80937E2183C0982F13
:101C3000947131F083E083838FEF80937E217AC0AB
:101C400086FF43C0C4E7D1E2AA81BB818C819D811C
:101C500014962D913C911597821793076CF49C0173
:101C60002F5F3F4F2093782130937921A80FB91F20
:101C700011968C9187835EC080917A2190917B210F
:101C800018962D913C91199782179307C8F42091CB
:101C90007C21222321F08681816086834BC01696A9
:101CA0002D913C911797AC014F5F5F4F40937A2184
:101CB00050937B21D901A80FB91F8C9187833AC01B
:101CC00083E0838310927E2135C0882384F5A4E7C6
:101CD000B1E21296CD91DC91139716968D919C915D
:101CE00017972885398582179307D8F46E817F81ED
:101CF0009C012F5F3F4F20937A2130937B214781B6
:101D0000DB01A80FB91F4C938885998528173907DF
:101D100018F482E083830EC087E0838310927E21D3
:101D200009C083E0838389EF80937E2103C08BEF1A
:101D300080937E21DF91CF9108951F920F920FB66D
:101D40000F9211240BB60F922F933F934F935F93F3
:101D50006F937F938F939F93AF93BF93EF93FF9373
:101D600055DFFF91EF91BF91AF919F918F917F913F
:101D70006F915F914F913F912F910F900BBE0F90FC
:101D80000FBE0F901F9018951F920F920FB60F92D3
:101D900011240BB60F922F933F934F935F936F9342
:101DA0007F938F939F93AF93BF93EF93FF932EDF18
:101DB000FF91EF91BF91AF919F918F917F916F9123
:101DC0005F914F913F912F910F900BBE0F900FBEDF
:101DD0000F901F901895FC01DB0114968C91858360
:101DE00088EB818381E08483E4E7F1E21186128647
:101DF000E0EAF0E0828182608283789480E0089556
:101E0000CF93DF931F92CDB7DEB79C01FB01892BE7
:101E100009F451C0309709F450C0928580917D211A
:101E2000882319F09923F1F34AC08FB78983F89476
:101E30008981A4E7B1E291E019969C93199790E803
:101E40001A969C931A978FBF2D933C9311971296D5
:101E50006D937C93139714961D921C92159716966A
:101E60001D921C92179718964C938081880F64815D
:101E70007581672B11F4411103C0F901868303C0FA
:101E80008160F9018683E4E7F1E292859038E9F315
:101E9000F90184818370813049F0A4E7B1E2ED91CA
:101EA000FC911197848183708130C9F7E4E7F1E2F6
:101EB0008285118605C088EF03C088EF01C086EFD8
:101EC0000F90DF91CF910895CF93DF931F921F92D0
:101ED000CDB7DEB7811126C09091AC229923F9F0DD
:101EE00090910E24911101C0FFCF9FB79A83F8946F
:101EF0002A81EDE0F4E29181915091832FBF0FC0D0
:101F000090910E249F3F09F4FFCF9FB79983F894D7
:101F10002981EDE0F4E291819F5F91832FBF80934F
:101F2000AC2205C09091AC22992351F3F8CF0F90C9
:101F30000F90DF91CF9108950F93E8ECF4E080814A
:101F40008F7D808380818F7D8083E0E8F2E202E0F4
:101F50000593109282221092832200E2069300E4FD
:101F60000693E8E7F2E200E40693EDEFF3E214866D
:101F700015861686178612861386109268220F9190
:101F800008950F9385E080936822E1E8F2E204E08F
:101F90000593E9E7F2E204E005930F9108950F93AA
:101FA00083E0809368221092822210928322E0E8DC
:101FB000F2E202E006930F910895E0910924F09176
:101FC0000A24309709F0199508950F93CF93DF9362
:101FD00080916822833019F4F0DFAEDF5EC080911B
:101FE000642290916522C0910724D0910824C81BD7
:101FF000D90B71F52091662230916722820F931FD1
:1020000080936622909367222091032430910424C8
:102010008217930721F080917F21882341F084E08B
:1020200080936822E8E7F2E202E0069336C0E0918E
:102030000B24F0910C24309799F01995882381F0A6
:102040001092642210926522C0910724D091082436
:10205000C034D10528F010927F21C0E4D0E003C045
:1020600081E080937F21ECE6F2E2C68BD78B8091F2
:102070006422909165222091052430910624280F36
:10208000391F208F318FC80FD91FC0936422D0937E
:102090006522E0E8F2E202E00693DF91CF910F9132
:1020A0000895FC018181E82FE7708E2F90E0FC01FC
:1020B0003197E730F105D8F48827E250FF4F8F4F72
:1020C0000C942C2480E190E0089580E290E0089543
:1020D00080E490E0089580E890E0089580E091E049
:1020E000089580E092E008958FEF93E0089588E0EE
:1020F00090E00895282F2F7030E0220F331F082E14
:10210000000C990B8827990F881F9927820F931F1E
:1021100002979C01220F331F220F331F220F331F00
:10212000820F931F80509E4D08950F93CF938091FF
:10213000CC0480FF65C081E08093CC04E8E7F2E244
:1021400000E80693E0E8F2E200E806938093CA0410
:10215000E8E7F2E200E1069380916822882329F003
:102160008350823008F429DFE7DE80917A22909153
:102170007B22089709F046C088E0E4E2F2E2ADEF86
:10218000B3E201900D928A95E1F7E8ECF4E08081EA
:10219000806280838081806280830E94C620C82FF5
:1021A000811103C0EEDEC1E02EC08091FD238823A3
:1021B0006CF41092662210926722109264221092A0
:1021C000652282E08093682200DF1DC08091032495
:1021D00090910424892B11F4E2DE15C0109266223E
:1021E00010926722109264221092652281E08093FF
:1021F0006822E8E7F2E202E0069300E2069303C0F9
:10220000C0E001C0C1E08C2FCF910F9108958F9253
:102210009F92AF92BF92DF92EF92FF920F931F9324
:10222000CF93DF93D82E66DF8C01CD2DCF70D0E019
:10223000CE01880F991FCD2D0D2C000CDD0BCC2766
:10224000DD0FCC1FDD27C80FD91FCE01880F991FC6
:10225000880F991F880F991F9C0128583D4D7901BF
:10226000C9011FDF4C01DD200CF07BC0FE01EE0F29
:10227000FF1FEE0FFF1FEE0FFF1FE459FD4D2289D8
:102280003389D80115968D919C911697820F931FD3
:1022900015968D939C93169713962D913C911497B8
:1022A0008217930709F447C0281B390B2115B4E0A6
:1022B0003B0740F02FEF33E0C901B4010E94F62341
:1022C000281B390BF801808181FF0AC0C901B401C4
:1022D0000E94F62341E0892B09F040E0842F01C0E1
:1022E00080E0D8019C9180FB91F99C93FE01EE0F58
:1022F000FF1FEE0FFF1FEE0FFF1FE459FD4D128A67
:10230000138A2687378711962D913C91129715963F
:102310008D919C911697820F931FCC0FDD1FCC0FD0
:10232000DD1FCC0FDD1FC458DD4D88839983F70175
:1023300002E00693E4C0D8018C9181FFCDC08D7F6F
:102340008C93CC0FDD1FCC0FDD1FCC0FDD1FC459CC
:10235000DD4D1A8A1B8A1E861F86F70102E006934E
:10236000CEC0FE01EE0FFF1FEE0FFF1FEE0FFF1F8F
:10237000E459FD4DA684B784D8018C9182FF1BC01F
:102380001196ED91FC91129715962D913C9116970F
:1023900013968D919C911497B4010E94F623B0E49A
:1023A000DB9EB0011124605C7E4DAC01CF01820F39
:1023B000931F0E944324F801258136812A0D3B1D7D
:1023C00025833683838194818217930768F48583FC
:1023D0009683CC0FDD1FCC0FDD1FCC0FDD1FC45942
:1023E000DD4D8A899B8978C0FE01EE0FFF1FEE0F3D
:1023F000FF1FEE0FFF1FE459FD4D42895389A416BC
:10240000B50609F069C02817390709F465C0AC01A1
:10241000421B530B9A01211554E0350748F02FEF6A
:1024200033E0C901B4010E94F623281B390B06C012
:10243000C901B4010E94F623281B390BFE01EE0FDF
:10244000FF1FEE0FFF1FEE0FFF1FE459FD4D168615
:1024500017862815390500F5D8018C9184608C9376
:10246000B0E4DB9EC0011124805C9E4DFE01EE0FA6
:10247000FF1FEE0FFF1FEE0FFF1FE458FD4D80837F
:102480009183CC0FDD1FCC0FDD1FCC0FDD1FC45996
:10249000DD4D8A8A9B8A1CC0F80141815281858169
:1024A0009681840F951FFE01EE0FFF1FEE0FFF1F99
:1024B000EE0FFF1FE458FD4D80839183CC0FDD1F8D
:1024C000CC0FDD1FCC0FDD1FC459DD4D2A8B3B8B9C
:1024D000F70102E0069313C0D8018C9180FF0FC072
:1024E0008E7F8C931796ED91FC911897309739F069
:1024F00015966D917C9116974D2D80E01995DF9181
:10250000CF911F910F91FF90EF90DF90BF90AF9010
:102510009F908F9008951F93CF93DF931F92CDB715
:10252000DEB78FB78983F894198181E0CDDCEAECBE
:10253000F4E080E4808380E28083E1ECF4E0808159
:1025400081608083A9ECB4E08C9182608C93E8EC8C
:10255000F4E08081806480838C9181608C938081A1
:10256000806880831FBF0F90DF91CF911F910895E6
:102570000F931F93CF93DF931F921F92CDB7DEB7B8
:1025800000E610E0F801108280E30E940A1CE0ECF3
:10259000F4E080818064808381E0F80180838FB7DC
:1025A0008A83F8941A81ECE6F2E21586158A158E74
:1025B00015A215A615AAE0E0F2E280818E7F808345
:1025C000E9E0F2E280818E7F8083E2E1F2E28081C5
:1025D0008E7F8083EBE1F2E280818E7F80836AE1EF
:1025E00070E082E00E94E6238F3F19F08093FA04A6
:1025F00003C08FE18093FA046BE170E082E00E94F7
:10260000E6238F3F19F08093FB0403C08FE1809392
:10261000FB04E0ECF4E0808182608083808180684C
:10262000808380818061808388E792E286839783BC
:102630008081806280838FEF8093C504E8ECF4E0B2
:102640008081816080831092AC22809112248F3F20
:1026500009F4FFCF8FB78983F8949981EDE0F4E214
:1026600085818F5F85839FBF56DF1FBF0F900F90BF
:10267000DF91CF911F910F91089580E0089580938D
:10268000C30408958091C30408958091A822909175
:10269000A922089580E090E00895EDEFF3E28087AD
:1026A0009187628773870895282F2F7030E0220F5B
:1026B000331F082E000C990B8827990F881F992724
:1026C000820F931FFC01EE0FFF1FEE0FFF1FEE0F97
:1026D000FF1FE459FD4D2585207C09F069C063701A
:1026E000613011F018F404C060EC03C060E801C070
:1026F00060E440385105E9F050F440325105A9F04A
:1027000040345105A1F040315105D9F40CC04115B8
:1027100022E0520791F04F3F23E0520781F041152C
:10272000514079F408C021E00DC022E00BC023E045
:1027300009C024E007C025E005C026E003C027E06B
:1027400001C020E0FC01EE0FFF1FEE0FFF1FEE0F98
:10275000FF1FE459FD4D158636E03487262B25876B
:10276000FC01EE0FFF1FEE0FFF1FEE0FFF1FE459DE
:10277000FD4D2585207C203C69F4FC01EE0FFF1FF8
:10278000EE0FFF1FEE0FFF1FE459FD4D258527704B
:10279000273081F0880F991F880F991F880F991F84
:1027A000FC01E459FD4D85858062858781E00895AF
:1027B00080E0089581E00895E82FEF70F0E0EE0FDB
:1027C000FF1F082E000C990B8827990F881F992747
:1027D000E80FF91FEE0FFF1FEE0FFF1FEE0FFF1F99
:1027E000E459FD4D858582FB882780F908950F9374
:1027F000282F2F7030E0A901440F551F282F082ED5
:10280000000C330B2227330F221F3327240F351FD1
:10281000A901440F551F440F551F440F551FFA01BE
:10282000E858FD4D01E00693FA01E459FD4D958508
:1028300092FF11C0FA01E459FD4D95859B7F958764
:1028400059DCFC01808180FF06C08E7F8083078079
:10285000F085E02D199581E00F9108956F927F9298
:102860008F929F92AF92BF92CF92DF92EF92FF92A0
:102870000F931F93CF93DF931F92CDB7DEB7782EC0
:10288000662E4A01590136DC6C01272D872D8F7089
:10289000E82EF12CC701880F991FE72C072C000C9C
:1028A000FF08EE24FF0CEE1CFF24E80EF91EF701D2
:1028B000EE0FFF1FEE0FFF1FEE0FFF1FE459FD4D40
:1028C0008585807C09F482C0F701EE0FFF1FEE0FB3
:1028D000FF1FEE0FFF1FE459FD4D8585807C803C76
:1028E00061F0F701EE0FFF1FEE0FFF1FEE0FFF1F4E
:1028F000E459FD4D858582FD6BC08FB78983F894BF
:102900008981F601908190FF03C08FBF80E061C094
:10291000F6019081916090838FBF81829282A38221
:10292000B4821582168207831087611006C091E079
:10293000A114B10419F090E001C091E0F60180818A
:1029400090FB81F98B7F8083222364F4F701EE0FE3
:10295000FF1FEE0FFF1FEE0FFF1FE459FD4D128A00
:10296000138A30C0F701EE0FFF1FEE0FFF1FEE0FAF
:10297000FF1FE459FD4D8585807C803CB1F4C70183
:10298000880F991F880F991F880F991F88589D4D90
:1029900088DBBC01C5010E94F623892B31F0F601CA
:1029A00080818E7F808380E014C0F701EE0FFF1FCF
:1029B000EE0FFF1FEE0FFF1FE459FD4D1686178621
:1029C000128A138A872D23DC81E003C080E001C0D6
:1029D00080E00F90DF91CF911F910F91FF90EF90CA
:1029E000DF90CF90BF90AF909F908F907F906F902F
:1029F0000895FF920F931F93CF93DF93182FC82F43
:102A0000CF70D0E0CE01880F991FC12F012E000C8E
:102A1000DD0BCC27DD0FCC1FDD27C80FD91F812F81
:102A200069DBDC01FE01EE0FFF1FEE0FFF1FEE0F53
:102A3000FF1FE858FD4D02E005938C9180FF22C0F6
:102A40008E7F8C931796ED91FC9118973097D1F06B
:102A500011235CF4CC0FDD1FCC0FDD1FCC0FDD1F6D
:102A6000C459DD4D6A897B890AC0CC0FDD1FCC0FAC
:102A7000DD1FCC0FDD1FC459DD4D6E857F85412FD5
:102A800081E01995DF91CF911F910F91FF900895EB
:102A9000CF93C82FAEDFEC2FEF70F0E0EE0FFF1FEB
:102AA0008C2FCC0F990B8827990F881F9927E80F37
:102AB000F91FEE0FFF1FEE0FFF1FEE0FFF1FE45970
:102AC000FD4D1586CF910895E82FEF70F0E0EE0FE1
:102AD000FF1F282F082E000C330B2227330F221F35
:102AE0003327E20FF31FEE0FFF1FEE0FFF1FEE0F56
:102AF000FF1FE459FD4D9585946095877ADF81E04D
:102B000008951F920F920FB60F9211240BB60F92D9
:102B10000F932F933F934F935F936F937F938F9375
:102B20009F93AF93BF93EF93FF938091CB04882340
:102B300034F480E88093CA040E94962088C0809173
:102B4000CB0482FF20C084E08093CA04809180225D
:102B500086FF7DC08091CC0481FD79C0E6DA8111C9
:102B600076C080916822813011F419DA70C0843007
:102B700009F06DC0E1E8F2E204E00593E9E7F2E272
:102B800004E0059364C08091CB0481FF5BC082E0C8
:102B90008093CA048091782286FF59C08091CC042A
:102BA00081FD55C0C2DA811152C080916822823005
:102BB00041F484E080936822E8E7F2E202E00693C1
:102BC00046C0833009F043C0E1E8F2E204E0059337
:102BD000E9E7F2E204E005933AC080E18093CA0499
:102BE00081E007DF81E805DF82E003DF82E801DFC3
:102BF0000E946D201092C304ECE6F2E2158696E086
:102C0000948783E48587158A948B858B84E292E28E
:102C1000808B918B91D91BC08091CB0486FF07C01C
:102C200080E48093CA0480E04FD9A5D210C080917F
:102C3000CB0485FF0CC080E28093CA0481E044D9B4
:102C40009BD205C08091CB0484FDC7CFE5CFFF9117
:102C5000EF91BF91AF919F918F917F916F915F9114
:102C60004F913F912F910F910F900BBE0F900FBE80
:102C70000F901F9018951F920F920FB60F9211246C
:102C80000BB60F920F931F932F933F934F935F9326
:102C90006F937F938F939F93AF93BF93CF93DF9364
:102CA000EF93FF938091CC0481FD03C03EDA811144
:102CB000C4C082E08093CC048091C5048195880FC4
:102CC000E8E7F2E2E81BF10920813181285732421E
:102CD000369527953695279536952795822F869593
:102CE00020FD02C090E001C090E8890FE82FEF704E
:102CF000F0E0EE0FFF1F282F082E000C330B2227C9
:102D0000330F221F3327E20FF31FDF01AA0FBB1F70
:102D1000AA0FBB1FAA0FBB1FA459BD4D1C969C91A7
:102D200095FF8BC0EE0FFF1FEE0FFF1FEE0FFF1F73
:102D3000E858FD4D00E2069381117AC08091682227
:102D4000843019F43AD9F8D878C000917A221091D9
:102D50007B228091072490910824C0916422D09115
:102D6000652298012C0F3D1F8217930718F48C01E0
:102D70000C1B1D0B8091052490910624A80164E290
:102D800072E28C0F9D1F0E944324C00FD11FC0937D
:102D90006422D09365220034110569F48091662283
:102DA000909167228C0F9D1F209103243091042461
:102DB0008217930780F0EDEFF3E2C287D387068492
:102DC000F785E02D309729F01995811102C0D9D8E7
:102DD00034C0E5D832C08091072490910824C817E8
:102DE000D907F9F4E0910B24F0910C24309711F4F9
:102DF000C8D823C01995811102C0C3D81EC0209124
:102E00006622309167228091642290916522820F20
:102E1000931F8093662290936722109264221092EF
:102E20006522E8E7F2E202E0069300E2069305C0BD
:102E3000803811F4CAD801C0EAD9FF91EF91DF912F
:102E4000CF91BF91AF919F918F917F916F915F9142
:102E50004F913F912F911F910F910F900BBE0F90AB
:102E60000FBE0F901F901895CF92DF92EF92FF92B6
:102E7000CF93DF93EC016B01E12CF12C60E873EC54
:102E800089EC91E0A70196010E940A24CA01B901C8
:102E90002FEF3FEF40E050E00E940A24211531055A
:102EA00029F481E08C8321E030E02DC0223031050F
:102EB00028F482E08C8322E030E025C02430310504
:102EC00028F483E08C8324E030E01DC028303105F5
:102ED00028F484E08C8328E030E015C020343105EC
:102EE00028F485E08C8320E430E00DC02F3F3105CD
:102EF00009F028F486E08C8320E031E004C087E00C
:102F00008C8320E034E040E050E060E873EC89EC32
:102F100091E00E940A24CA01B901A70196010E940A
:102F20000A242D833E832436310518F41C821D8229
:102F30001E82DF91CF91FF90EF90DF90CF900895A8
:102F40000F931F93CF93DF93EC018901862F90E0BD
:102F50008730910508F08BC0FC018827EB5FFE4F9E
:102F60008F4F0C942C2480E098E088839983E0E4D0
:102F7000F6E0308181E090E02FEF240F02C0880F4F
:102F8000991F2A95E2F7832B808371C080E498E033
:102F900088839983E0E4F6E0308181E090E023E0EB
:102FA000240F02C0880F991F2A95E2F7832B808394
:102FB0005EC080E099E088839983E0E6F6E03081A6
:102FC00081E090E02FEF240F02C0880F991F2A950F
:102FD000E2F7832B80834BC080E499E08883998358
:102FE000E0E6F6E0308181E090E023E0240F02C0CB
:102FF000880F991F2A95E2F7832B808338C080E0E1
:103000009AE088839983E0E8F6E0308181E090E0FF
:103010002FEF240F02C0880F991F2A95E2F7832B08
:10302000808325C080E49AE088839983E0E8F6E015
:10303000308181E090E023E0240F02C0880F991FC7
:103040002A95E2F7832B808312C080E09BE088837F
:103050009983E0EAF6E0308181E090E02FEF240FE1
:1030600002C0880F991F2A95E2F7832B80834A8339
:10307000423061F018F4413031F010C0433049F073
:10308000443051F00BC080E18B8308C080E28B8319
:1030900005C080E48B8302C080E88B83888199819E
:1030A0000E94870DE881F9818181887F8360818317
:1030B0001D821E821C82E881F9818081807F80834D
:1030C000B801CE01D1DEDF91CF911F910F9108950C
:1030D000CF93DF93EC012D813E81A62FB0E00E94BB
:1030E000342424E630E040E050E00E940A248A8143
:1030F000E881F981E6FD17C0823061F018F4813073
:1031000031F01BC0833049F0843051F016C020AF3D
:1031100031AF13C022AF33AF10C024AF35AF0DC0F5
:1031200026AF37AF0AC0813019F0823021F005C0D8
:1031300020AF31AF02C022AF33AF8D819E81E881D5
:10314000F98186A397A38B81E881F981E6FD04C00C
:103150009181892B818304C091818073892B818324
:10316000E881F9818081807F9C81892B8083DF9138
:10317000CF9108950895089508950895089581E0E0
:103180008093BC2208951092BC220895089508955A
:103190000895089508952F923F924F925F926F92F3
:1031A0007F928F929F92AF92BF92CF92DF92EF92D7
:1031B000FF920F931F93CF93DF93CDB7DEB7C25427
:1031C000D109CDBFDEBF0F2EF0EAAF2EB12CF02D0E
:1031D00007E0D50112960C9371D2EDE0F4E2108273
:1031E000118212821382148211E015830E944F0112
:1031F0008AEB98E10E944A0162E080E0E0D2E0E8D8
:10320000F1E080EC878388EE868380E49AE00E9478
:10321000870D0F2EF0E4EF2EFAE0FF2EF02DF701D0
:103220008181887F818380E792E086A397A324EF42
:1032300031E043E060E0CE01019682DE6DE2CE0136
:10324000019646DFC12C6894DD24D3F88DE594E720
:10325000D601DC968D939C93DD97BE016C5D7F4F0C
:1032600080E092E00E94BA05AE01415C5F4F61E0F0
:1032700080E092E00E943E06BE01635E7F4F80E0E8
:1032800092E00E94BA05AE01455C5F4F61E080E0CC
:1032900092E00E943E06BE016A5E7F4F80E092E0AF
:1032A0000E94BA05AE01495C5F4F61E080E092E0A8
:1032B0000E943E06BE01615F7F4F80E092E00E9467
:1032C000BA05AE014D5C5F4F62E080E092E00E9483
:1032D0003E06BE01685F7F4F80E092E00E94BA0523
:1032E000AE01415D5F4F64E080E092E00E943E06E7
:1032F000BE016F5F7F4F80E092E00E94BA05AE0191
:10330000455D5F4F68E080E092E00E943E066DA15F
:103310008EA18F788EA35E8D8F8D8F788F8F4F8942
:10332000888D8F78888F388989898F78898B2985CE
:103330008A858F788A879A818B818F788B8386ECB8
:103340008FA31B871C8383E088A789A38A8F8B8B1D
:103350008C878D83617060646DA3597050645E8F3B
:10336000497040644F8B39703064388B2170206411
:103370002987917090649A831FAF90E121969FAF47
:1033800021971BAF1CAE1FAB98E198AF1BAB6894A5
:10339000992493F89CAA1FA790E298AB1BA798E2E8
:1033A0009CA722969FAD2297937F22969FAF22974C
:1033B0009DAD937F9DAF99AD937F99AF9DA9937F6D
:1033C0009DAB99A9937F99AB9DA5937F9DA72396CC
:1033D0008FAF23978EAF8AAFBE016C5D7F4F80E0C9
:1033E00092E00E945005AE01415C5F4F61E080E0D9
:1033F00092E00E94F305BE01635E7F4F80E092E0A1
:103400000E945005AE01455C5F4F61E080E092E0B4
:103410000E94F305BE016A5E7F4F80E092E00E9449
:103420005005AE01495C5F4F61E080E092E00E9490
:10343000F305BE01615F7F4F80E092E00E9450057E
:10344000AE014D5C5F4F62E080E092E00E94F305C8
:10345000BE01615F7F4F80E092E00E945005AE01A7
:103460004D5C5F4F64E080E092E00E94F305BE0196
:10347000615F7F4F80E092E00E945005AE014D5C9D
:103480005F4F68E080E092E00E94F305BE01685F54
:103490007F4F80E293E00E940407BE016F5F7F4F81
:1034A00080E293E00E9404071A871B8384E08887E8
:1034B000998599828A819C799160998796E09B870A
:1034C0008C7982608A839C83BE01685F7F4F80E233
:1034D00093E00E94A806BE016F5F7F4F80E293E0F9
:1034E0000E94A8060E941A020E947F03F50102832F
:1034F0007894D6018C91807F81608C93F7018081D4
:10350000807F81608083E6D50E94BD230E94B9231D
:103510000E9476021093BD220F2EF0E2AF2EF3E050
:10352000BF2EF02D0F2EFAE32F2EF3E03F2EF02DBD
:103530000F2EFDE08F2EF4E29F2EF02D08E410E018
:103540000E9439016B017C01D50115968C91837025
:103550008330A9F5E091AD22F091AE22EE0FFF1F6E
:10356000EA51FF4D208131818FB78887F894888593
:10357000F501208F318F8FBFE091AD22F091AE2207
:10358000EE0FFF1FEA51FF4D208131818FB78983F4
:10359000F8948981D1012D933C938FBF8091AD2206
:1035A0009091AE2201968F719078992324F401971F
:1035B000806E9F6F01968093AD229093AE224090D3
:1035C000AF225090B0226090B1227090B222A3013D
:1035D0009201C701B6010E949B02A3019201C7019B
:1035E000B6010E949C02C092AF22D092B022E0921B
:1035F000B122F092B222F894F4018081811109C0C5
:10360000AEE0B4E2E0E0EF5F8D918823E1F3E111F9
:1036100002C0789412C0D8018C91F0E0EE5DFF4DAD
:10362000817F9081892B8C938C9181608C9378948D
:103630008895F80180818E7F80838091BD228111E1
:103640007FCFF894F89480910D24811109C0AEE0E9
:10365000B4E2E0E0EF5F8D918823E1F3E11102C075
:10366000789413C0A8E4B0E08C91F0E0EE5DFF4DDB
:10367000982F917F8081892B8C938C9181608C9382
:10368000789488958C918E7F8C9380E090E0CE5BCF
:10369000DF4FCDBFDEBFDF91CF911F910F91FF9024
:1036A000EF90DF90CF90BF90AF909F908F907F90E2
:1036B0006F905F904F903F902F900895CF93DF933E
:1036C000CDB7DEB72897CDBFDEBF8FEF80937000F8
:1036D00080937100809372008093730080937400D4
:1036E000809375008093760061E081E490E00E9411
:1036F000F0236CE170E082E00E94E6238A836DE1B2
:1037000070E082E00E94E623898389819A81019694
:1037100021F480E493E289839A8389819A818B835F
:103720009C83E0E6F0E082838C818383809151006A
:1037300084FD21C08091510083FD0EC0E0E5F0E0E2
:1037400012828FB78D83F8949D81808188608083F9
:103750009FBF818183FFFDCF8FB78E83F8949E81B9
:10376000E0E5F0E083EC85838081806180839FBF0A
:10377000818184FFFDCF64E080E490E00E94F0232B
:103780008FB78887F8949885E0E5F0E080818E7F98
:1037900080839FBF12828FB78F83F8949F8180812F
:1037A000886080839FBF818183FFFDCF8BE0809302
:1037B00043002896CDBFDEBFDF91CF910895CF9310
:1037C000DF931F92CDB7DEB79FB79983F8949981A5
:1037D000E82FF0E0E059FF4F609580816823608317
:1037E0009FBF0F90DF91CF910895CF93DF931F92EA
:1037F000CDB7DEB79FB79983F8949981E82FF0E0B1
:10380000E059FF4F8081682B60839FBF0F90DF914D
:10381000CF910895CF93DF931F921F92CDB7DEB75C
:10382000863011F060E001C068E18091510081FDB7
:103830002AC08FB78983F8949981E0E5F0E0808110
:10384000826080839FBF818181FFFDCF8FB78A8394
:10385000F8949A81A0E5B0E016968C911697897F2E
:1038600016968C931697E0E6F0E080E885838BEB64
:10387000868316968C911697846016968C93808119
:10388000816080839FBF636084E490E0A9D760E497
:1038900080E095DF0F900F90DF91CF910895809198
:1038A000D42381508093D423089580E0089580E04C
:1038B000089562EE73E280E069CC08951092D423FB
:1038C0001092E0231092E123E6EDF3E281EA808397
:1038D00080E28183128213821482158282E090E05A
:1038E0008683978310861186E2EEF3E280E092EC05
:1038F000A1E0B0E080839183A283B3831482158218
:1039000088E08683BF0180E041DC39DC882329F030
:103910009091D4239F5F9093D4230895FF920F93A7
:103920001F93CF93DF931F92CDB7DEB78091C12253
:1039300081119FC00E943D13882351F00091C22243
:103940001091C3220E944A130817190759F491C015
:103950000091C2221091C3220E9445130817190733
:1039600009F487C08FB78983F89419810091C42224
:10397000E02FF0E0EE0FFF1FEB53FD4D80819181B2
:10398000892B09F58091BE229091BF2201968093E8
:10399000BE229093BF220E943D13811107C08091E7
:1039A000BE229091BF228436910558F00E943D13AB
:1039B000882349F08091BE229091BF2280329340AB
:1039C00010F41FBF56C01092BE221092BF228091E9
:1039D000C022811106C081E0011180E08093C422E1
:1039E00004C081E0011180E0082F81E08093C122B2
:1039F0001FBF10E0F801EE0FFF1FEB53FD4D80815C
:103A00009181FF24F3948034910509F4F12C8034E2
:103A1000910591F00E943D13882339F00E944A13CA
:103A20008093C2229093C3220BC00E9445138093BF
:103A3000C2229093C32204C01092C2221092C322C9
:103A4000F801EE0FFF1FEB53FD4D20813181A801DE
:103A50000024569547950794569547950794542FFB
:103A6000402D46535D4D03E41DE16F2D81E80E941A
:103A70002E140F90DF91CF911F910F91FF90089519
:103A800080E04CCF0895811119C02091C42281E0BB
:103A900090E0222311F080E090E0880F991FFC0154
:103AA000EB53FD4D108211821092C0221092C12260
:103AB000672B11F080E06EDB80E030CF08958091BD
:103AC000D32381508093D3238091D3235CDB109246
:103AD000D2230895CF93DF938091FD238823E4F4CC
:103AE0008076803209F047C08091FE23813209F050
:103AF00044C08091032490910424079709F03FC0AB
:103B0000EDEFF3E282EE93E28087918787E090E029
:103B10008287938781E03AC08076803291F58091E8
:103B2000FE23803219F08232B9F02DC08091032437
:103B300090910424079749F5EDEFF3E289E59CE1C4
:103B40008487958782EE93E28087918787E090E073
:103B50008287938781E01AC0CDEFD3E26A816170DA
:103B600080E015DB6A817B8176956795617080E0E6
:103B70000FDB81E00BC080E009C080E007C080E07F
:103B800005C080E003C080E001C080E0DF91CF91FC
:103B90000895CF93DF931F92CDB7DEB78FB7898398
:103BA000F894498120914B2330914C23E0914D238F
:103BB000F0E0EE0FFF1FE25BFC4D808191814FBF73
:103BC000821B930B0F90DF91CF910895E2DF21E0EC
:103BD000892B09F420E0822F08950F931F93CF9330
:103BE000DF931F92CDB7DEB78FB78983F8949981A1
:103BF00020914D2380914A23811110C060914B2365
:103C000070914C23022F10E0F801EE0FFF1FE25BD2
:103C1000FC4D408151816417750718F49FBF80E007
:103C200027C010924B2310924C2381E0211180E099
:103C300080934D2381E080934A239FBF80E0C6DFBD
:103C4000882311F080E0A5DAA80100245695479555
:103C50000794569547950794542F402D4E5A5C4D26
:103C600000E71EE120E430E061E082E00E942E14D3
:103C70000F90DF91CF911F910F9108951092D32350
:103C80001092C1221092C0221092C422E5ECF2E2FE
:103C900010821182128213821092C2221092C322C9
:103CA00080E03CDE10924A2310924D23EEE4F3E2D2
:103CB000108211821282138210924B2310924C2395
:103CC00080E08BDF882359F09091D3239F5F9093FE
:103CD000D3239091D323913011F49093D22308955C
:103CE0000F931F93811129C080914D23E1E0811131
:103CF000E0E0842F61157105A9F44E2F50E00024F7
:103D0000569547950794569547950794542F402DFF
:103D10004E5A5C4D00E71EE120E430E061E00E9475
:103D20002E140BC0F0E0EE0FFF1FE25BFC4D608332
:103D3000718310924A2380E050DF1F910F91089504
:103D4000EF92FF921F93CF93DF931F92CDB7DEB711
:103D500011E08091E823893009F010E040E050E064
:103D60008FB78983F894A98120914B2330914C23FC
:103D700080914D2390E0FC01EE0FFF1FE25BFC4DB4
:103D800060817181AFBF2617370730F08091D22351
:103D90008111E6CF90E021C0FC010024F695E79563
:103DA0000794F695E7950794FE2FE02DEE5AFC4D0B
:103DB000E20FF31F80817A01E82A2F5F3F4F2093A3
:103DC0004B2330934C2380E008DF112321F05E2D3C
:103DD000442710E0C5CF8E2D9F2D0F90DF91CF91FE
:103DE0001F91FF90EF90089580E0AACF0895CF93A0
:103DF000DF931F92CDB7DEB78FB78983F89499818F
:103E00008091C422E82FF0E0EE0FFF1FEB53FD4D31
:103E1000208131812034310589F44091C122411142
:103E20000DC04091C022411109C021E02093C02261
:103E3000811120E02093C42220E030E09FBF80E485
:103E400090E0821B930B0F90DF91CF910895CFDF0D
:103E500021E0892B09F420E0822F0895FF920F932F
:103E60001F93CF93DF931F92CDB7DEB7F62E172F98
:103E700001E08091E823893009F000E080E0E7DF8D
:103E8000811107C08091D2238111F8CF80E090E0AA
:103E90002CC08FB78983F89449818091C42290E027
:103EA000FC01EE0FFF1FEB53FD4D20813181B90165
:103EB0006F5F7F4F60837183002496958795079489
:103EC000969587950794982F802D86539D4DFC01DC
:103ED000E20FF31FF0824FBF002329F0F12E110FE4
:103EE000110B00E0CBCF81E090E00F90DF91CF91FC
:103EF0001F910F91FF900895BC0180E0AFCF08950E
:103F0000E091EE23F091EF230190F081E02D2281EA
:103F100033812E0F3F1FFC014081E40FF11DE2179A
:103F2000F307A0F481818430A1F0861306C014C089
:103F300081818430A1F08617A9F08081E80FF11DFE
:103F4000E217F307A8F380E090E0089580E090E0A6
:103F5000089580E090E008958E2F9F2F089580E0CF
:103F600090E008958E2F9F2F08958091FF238F77E3
:103F70000C943F1308959091F023992381F1E091DF
:103F8000EE23F091EF230190F081E02D94818917C9
:103F900040F5E093EC23F093ED23228133812E0F43
:103FA0003F1FE217F307F8F49181943061F4928196
:103FB000891309C09381961306C0E093EC23F09314
:103FC000ED2381E008959081E90FF11DE217F307D9
:103FD00058F3E093EC23F093ED2380E0089580E024
:103FE000089580E0089580E00895EF92FF921F9376
:103FF000CF93DF93C82F60E0BEDF182F882381F1B5
:10400000A091EE23B091EF23EC2FF0E0EE0FFF1F15
:1040100012968D919C911397E80FF91FE080F18023
:10402000D7011696ED91FC9117971995682F8C2F53
:10403000A2DF182F8823A1F0C091EC23D091ED23AB
:1040400065E0CE015DDFEC01892B21F08A810E94C1
:104050004815F6CFD7011296ED91FC91139719955B
:10406000812FDF91CF911F91FF90EF9008951F93C3
:10407000CF93DF93182F7FDF882341F1C091EC238A
:10408000D091ED2365E0CE013BDFEC01892B49F0B7
:104090004C815D816B818A810E9454138111F2CF22
:1040A00015C0A091EE23B091EF23E12FF0E0EE0FC9
:1040B000FF1F12968D919C911397E80FF91F0190A5
:1040C000F081E02D0190F081E02D1995DF91CF91E5
:1040D0001F9108950C94B8120895CF938091F02306
:1040E0008823C1F0E091EE23F091EF230190F0815D
:1040F000E02D8481882371F0C0E08C2F76DFCF5FC4
:10410000E091EE23F091EF230190F081E02D848186
:10411000C81798F31092F0238091F42381FD2ED8D4
:104120001092F4231092F523CF910895CF938091AC
:10413000F023882349F1A091EE23B091EF23ED9174
:10414000FC91119784818823F9F0C0E0EC2FF0E016
:10415000EE0FFF1F12968D919C911397E80FF91F98
:104160000190F081E02D0084F185E02D309709F079
:104170001995CF5FA091EE23B091EF23ED91FC91C3
:1041800011978481C81710F3CF9108950F931F934F
:10419000CF93DF93EDEFF3E2128613861486158634
:1041A00016861786808188230CF095C220910324FF
:1041B000309104242115310509F088C27FC28F7126
:1041C00009F0ABC09091FE23963081F0983009F44D
:1041D00099C09111A2C02230310509F02BC262E0D2
:1041E00070E084EF93E20E944D137EC28091FF2322
:1041F00090910024292F332722303105B1F020F48B
:104200002130310541F0D8C123303105F1F12F3093
:10421000310561F1D1C180913D2090913E20DC01BA
:104220006C9170E00E944D135EC0E0913D20F091D2
:104230003E202189821708F0FDC19927880F991F18
:10424000880F991FE0913F20F0914020E80FF91F5F
:1042500080819181FC01628173810E944D13E09104
:104260000524F091062482E081833DC080914120A5
:1042700090914220009709F4DDC1DC0112966D9106
:104280007C9113970E944D132EC099278130910580
:1042900099F058F08230910509F422C2039709F091
:1042A00094C131E0E6E2F1E20AC064E070E082EE3F
:1042B00090E20E944D1317C0E1EDF0E230E1A4EA74
:1042C000B0E220E0819190E08D939D932F5F2317C2
:1042D000C8F3632F660F6E5F6093A22070E082EADE
:1042E00090E20E944D13EDEFF3E2868197812285E3
:1042F00033858217930708F0F7C1809307249093C2
:104300000824F2C12130310509F094C161E070E068
:1043100080EF93E20E944D13E7C18130E9F590915F
:10432000FE239A30C9F52130310509F053C180913F
:10433000F023882309F44EC1C0910124D0910224B6
:104340000091EE231091EF23D801ED91FC9184812F
:10435000C81708F03FC160E08C2F0DDE882309F4F8
:1043600034C1CE019927880F991FD8011296ED917B
:10437000FC911397E80FF91F0190F081E02D8681E1
:104380009781FC0119958093F22361E070E082EF40
:1043900093E20E944D13A8C1823009F016C18091AA
:1043A000FE2381110BC12230310509F043C18091F8
:1043B00001240E94DC1390E08093EA239093EB2386
:1043C00062E070E08AEE93E20E944D138DC18F711E
:1043D00009F0A0C09091FE23933091F118F4913030
:1043E000A9F098C0953021F0993009F443C092C0EB
:1043F0008091032490910424892B09F01BC185EB43
:104400009FE18093092490930A246EC18091032434
:1044100090910424892B09F00DC18091FF23909184
:104420000024019709F006C18091F4239091F523AF
:104430008D7F8093F4239093F5230E94BE1854C17E
:104440008091032490910424892B09F0F3C080917A
:10445000FF2390910024019709F0B2C08091F423CA
:104460009091F52382608093F4239093F5230E942A
:10447000BD183AC18091032490910424892B09F03E
:10448000D9C00E944213882309F49FC02091FF23C2
:10449000309100243327E0913D20F0913E20818926
:1044A00090E08217930708F490C017DE8091FF23F5
:1044B000909100248093F023882309F415C1992753
:1044C0008150904C880F991F880F991FE0913F20D1
:1044D000F0914020E80FF91FE093EE23F093EF23D3
:1044E0000190F081E02D8481882309F4FDC0C0E0B3
:1044F00060E08C2FBCDD882309F467C0CF5FE091BA
:10450000EE23F091EF230190F081E02D8481C81714
:1045100078F3EAC08130E9F49091FE239B30C9F42E
:104520008091032490910424892B09F053C0809139
:10453000F023882309F44EC0EDEFF3E2C481D28169
:104540008C2F53DD882309F440C06D2F8C2F8FDD15
:104550003AC08230D1F58091FE23813019F083304A
:10456000A1F030C08091032490910424892B09F09C
:1045700061C08091FF2390910024892B09F05AC0DB
:10458000809101240E94F7131EC080910324909112
:104590000424892B09F04EC08091FF2390910024C0
:1045A000892B09F047C0CDEFD3E28C810E94F9142A
:1045B0008C810E94641507C080E005C080E003C0C4
:1045C00080E001C080E0811190C08091FD238F7157
:1045D000813081F58091F023882309F471C0009126
:1045E000012410910224C091EE23D091EF23E881A1
:1045F000F9818481081708F065C060E0802FBBDC7A
:104600008823C1F0F801FF27CF01880F991FEA81A5
:10461000FB81E80FF91FC081D181EE81FF811995DF
:10462000682F802FA8DC882329F0EC81FD81199563
:1046300081115BC08091FD238F71823009F044C0ED
:104640008091F0238823B1F1A091EE23B091EF2364
:10465000ED91FC9111978481882371F1C0E0EC2FDA
:10466000F0E0EE0FFF1F12968D919C911397E80FCB
:10467000F91F00811181D8011696ED91FC911797D1
:104680001995682F8C2F77DC882379F1D80114963F
:10469000ED91FC9115971995811127C0CF5FA091DD
:1046A000EE23B091EF23ED91FC9111979481C917FE
:1046B000B0F21BC080E019C080E017C080E015C0D8
:1046C00080E013C080E011C080E00FC0982F90768A
:1046D00009F07BCF74CD982F907609F076CF77CE06
:1046E0003CE0E4ECF0E2EBCD81E0DF91CF911F9173
:1046F0000F910895CF93DF931F92CDB7DEB78091CE
:10470000172490911824E0911324F0911424BE01F1
:104710006F5F7F4F19958981082E000C990B0F90C0
:10472000DF91CF9108958091F623882381F0862F21
:10473000082E000C990BE0DB21E030E0892B11F012
:1047400020E030E088279927821B930B089580E0B2
:1047500090E00895CF93DF938091F623811103C0F9
:10476000FB01108203C0EB013FDB8883DF91CF9117
:10477000089581E08093F6230895109217241092F3
:10478000182483E993E280931524909316248AEAEF
:1047900093E280931324909314249CDC6AE773E2E1
:1047A00084ED93E279C00895682F80911724909149
:1047B0001824E0911524F0911624199599231CF0E2
:1047C00081E090E008958FEF9FEF08954091CA0136
:1047D000E62FF72F8093CA0184914093CA01089570
:1047E0001BBEFC0128ED24BF60830895AA1BBB1BE0
:1047F00051E107C0AA1FBB1FA617B70710F0A61BE1
:10480000B70B881F991F5A95A9F780959095BC0101
:10481000CD010895A1E21A2EAA1BBB1BFD010DC0FC
:10482000AA1FBB1FEE1FFF1FA217B307E407F50760
:1048300020F0A21BB30BE40BF50B661F771F881F3C
:10484000991F1A9469F760957095809590959B01D2
:10485000AC01BD01CF010895EE0FFF1F881F8BBF74
:104860000790F691E02D1994A29FB001B39FC0016B
:10487000A39F700D811D1124911DB29F700D811D8C
:104880001124911D0895FB01DC0102C001900D92DD
:1048900041505040D8F708950F931F93CF93DF9363
:1048A000009731F46115710519F480E090E039C08A
:1048B0008B01EC016EE070E081E090E037D0FC010C
:1048C000892B99F380E883830115110571F0028724
:1048D000138781E883838091192490911A24892B6E
:1048E00021F4E0931924F0931A242097C9F0C0878B
:1048F000D18783818260838380911B2490911C24C3
:10490000892B71F4E0931B24F0931C2480911D24C7
:1049100090911E24892B21F4E0931D24F0931E24F2
:10492000CF01DF91CF911F910F9108950F931F93A6
:10493000CF93DF93869F8001879F100D969F100D68
:104940001124C8010DD0EC01009721F0A80160E00E
:1049500070E027D1CE01DF91CF911F910F91089583
:104960000F931F93CF93DF938230910510F482E071
:1049700090E0E0912124F091222420E030E0A0E0BA
:10498000B0E0309719F140815181028113814817BD
:104990005907C8F08417950769F4109731F01296FB
:1049A0000C93129713961C9327C000932124109305
:1049B000222422C02115310519F04217530718F49B
:1049C0009A01BD01EF01DF01F801DBCF21153105AF
:1049D000F9F0281B390B2430310580F48A819B8142
:1049E0006115710521F0FB018283938304C08093DC
:1049F000212490932224FE01329644C0FE01E20F4E
:104A0000F31F8193919322503109288339833AC04F
:104A100020911F2430912024232B41F42091022047
:104A20003091032020931F243093202420910020D4
:104A3000309101202115310541F42DB73EB7409149
:104A4000042050910520241B350BE0911F24F09188
:104A50002024E217F307A0F42E1B3F0B2817390779
:104A600078F0AC014E5F5F4F2417350748F04E0FCA
:104A70005F1F40931F24509320248193919302C081
:104A8000E0E0F0E0CF01DF91CF911F910F91089509
:104A9000CF93DF93009709F481C0FC013297128213
:104AA0001382A0912124B0912224109781F42081B7
:104AB0003181820F931F20911F24309120242817C9
:104AC000390751F5E0931F24F093202467C0ED01CE
:104AD00020E030E0CE17DF0740F44A815B819E0181
:104AE00041155105F1F0EA01F5CFC283D38340812E
:104AF0005181840F951FC817D90759F4888199816E
:104B0000840F951F0296808391838A819B81828383
:104B100093832115310529F4E0932124F093222475
:104B20003DC0E901EA83FB8349915991C40FD51F28
:104B3000EC17FD0761F480819181840F951F029627
:104B4000E90188839983828193818A839B83E0E052
:104B5000F0E012968D919C911397009719F0FD014A
:104B6000DC01F7CF8D919C9111979D012E5F3F4FF6
:104B7000820F931F20911F2430912024281739077A
:104B800069F4309729F4109221241092222402C053
:104B900012821382A0931F24B0932024DF91CF911F
:104BA0000895DC0101C06D9341505040E0F7089535
:044BB000F894FFCFA7
:104BB400000023242000220000000000B322000093
:104BC40000801A06002000000020801A0600200041
:104BD400000010000E060C04003E1E5F1D551C57FD
:104BE4001C401D5E1C4F1C6A1D571C000090204376
:104BF4002000004C204720332029200009024300D4
:104C0400020100A0C80904000001020201000524F9
:104C140000100104240202052406000105240103F6
:104C2400010705820340001009040100020A000084
:104C34000007058102400000070502024000000051
:104C44001201000202000040EB03012700010102EF
:104C54000301000300000000000000000000000049
:104C64000000000000000000000000000000000040
:104C74000000000046696E644D655341542056316E
:104C84000044463449414820536F6C7574696F6E13
:104C94007300040309040080FD899893729C34A472
:104CA40092AA4DAF37B233B337B24DAF92AA34A400
:104CB400729C9893FD8900800376686C8E63CC5B4C
:104CC4006E55B350C94DCD4CC94DB3506E55CC5BE8
:084CD4008E63686C037630006A
:00000001FF
