S011000046696E644D655341542E73726563F8
S2140000000C94451E0C94661E0C94661E0C94661E7C
S2140000100C941FF40C94661E0C94AE4E0C94E14E99
S2140000200C94144F0C94474F0C94661E0C94E65296
S2140000300C94661E0C945AB80C94C6AE0C9403AF7F
S2140000400C9440AF0C947DAF0C94BAAF0C94F7AF01
S2140000500C9434B00C9471B00C94AEB00C94EBB01D
S2140000600C94661E0C94661E0C94661E0C94661EFB
S2140000700C94661E0C94661E0C94661E0C94661EEB
S2140000800C94661E0C94661E0C94661E0C94661EDB
S2140000900C94661E0C94661E0C94661E0C944AA95C
S2140000A00C94BCA90C942EAA0C94A0AA0C94661EC0
S2140000B00C94661E0C94661E0C948CB80C948AB332
S2140000C00C94C7B30C9404B40C9441B40C947EB452
S2140000D00C94BBB40C94F8B40C9435B50C9472B56F
S2140000E00C94AFB50C94661E0C94661E0C94661E9B
S2140000F00C94661E0C94661E0C94661E0C94661E6B
S2140001000C94661E0C94661E0C94661E0C94661E5A
S2140001100C94661E0C94661E0C94661E0C9482A7A5
S2140001200C94F4A70C9466A80C94D8A80C94661E9D
S2140001300C94661E0C9428B10C9465B10C94A2B174
S2140001400C94DFB10C941CB20C9459B20C9496B279
S2140001500C94D3B20C9410B30C944DB30C94661E4E
S2140001600C94661E0C94661E0C94661E0C94661EFA
S2140001700C94661E0C94661E0C94661E0C94661EEA
S2140001800C94661E0C94661E0C94661E0C94661EDA
S2140001900C94661E0C94661E0C94661E0C94661ECA
S2140001A00C94661E0C94661E0C94661E0C94661EBA
S2140001B00C94ECB50C9429B60C9466B60C94A3B6C5
S2140001C00C94E0B60C941DB70C94661E0C94661E38
S2140001D00C94661E0C94661E0C94661E0C94F925F0
S2140001E00C94661E0C94661E0C94661E0C94661E7A
S2140001F00C94661E0C9409BF0C94ADBFF937F93702
S21400020040388A3B8A3B8A3B8A3B8A3BF937603CCC
S2140002108A3B8A3B8A3B603CF937F937603C603C56
S214000220F93739C43CC43FC442C445C448C44BC46F
S21400023055C976C997C9B8C9D9C9FAC91BCA05A884
S2140002404CCDB2D44EB93836A9020C50B991868836
S214000250083CA6AAAA2ABE000000803F08000000AC
S214000260BE922449123EABAAAA2ABECDCCCC4C3EA6
S21400027000000080BEABAAAAAA3E00000000BF0095
S2140002800000803F0000000000084178D3BB438791
S214000290D1133D190E3CC3BD4282AD2B3E68EC82A5
S2140002A076BED98FE1A93E4C80EFFFBE01C4FF7F2A
S2140002B03F000000000007634236B79BD8A71A39F4
S2140002C0685618AEBAAB558C1D3CB7CC5763BD6D9F
S2140002D0EDFD753EF6177231BF000000803F0D94AD
S2140002E0A4160D9408220D9443150D947A140D94BB
S2140002F02B160D946B150D9482220D949D140D945F
S214000300F9120D94151E0D94E9210D94EF130D941A
S2140003102C220D9487140D9419300D943B150D94D2
S2140003204B156E616E00696E660000407A10F35AD7
S21400033000A0724E18090010A5D4E80000E8764820
S214000340170000E40B54020000CA9A3B000000E1CC
S214000350F505000080969800000040420F0000005F
S214000360A08601000000102700000000E80300003F
S21400037000006400000000000A0000000000010009
S214000380000000002C76D888DC674F0823DFC1DF2A
S214000390AE59E1B1B796E5E3E453C63AE65199762D
S2140003A096E8E6C28426EB898C9B62ED407C6FFC67
S2140003B0EFBC9C9F40F2BAA56FA5F490055A2AF7A9
S2140003C05C936B6CF9676DC11BFCE0E40D47FEF5B2
S2140003D020E6B500D0ED902E03009435770500801A
S2140003E0841E080000204E0A000000C80C33333379
S2140003F0330F986E12831141EF8D2114893BE65519
S21400040016CFFEE6DB18D1844B381BF77C1D901DFB
S214000410A4BBE424203284725E228100C9F124EC5D
S214000420A1E53D274E414E494E495459494E46CDC9
S214000430CCCC3D0AD7233C17B7D13877CC2B329596
S21400044095E6241FB14F0A000020410000C8420074
S214000450401C4620BCBE4CCA1B0E5AAEC59D7449F5
S2140004606E69743A2053494D38303820537461729F
S21400047074696E6720202E2E2E00496E69743A200D
S21400048053494D3830382052657374617274696E02
S214000490672E2E2E00496E69743A2053494D383027
S2140004A038202D20696E6974276564202E2E2E0054
S2140004B0496E69743A2053494D383038202D20470C
S2140004C0505253207570202E2E2E00496E69743AB5
S2140004D02053494D383038202D2052454144592E5E
S2140004E00053494D38303820736572313A20205316
S2140004F074617274696E67207468652064657669D5
S2140005006365202E2E2E0D0A0053494D38303820B4
S214000510736572313A202052657374617274696E25
S214000520672074686520646576696365202E2E2EC4
S2140005300D0A0053494D38303820736572313A2021
S214000540202D2D3E206E6F772073796E63656420B4
S2140005502E2E2E2E0D0A0053494D38303820736546
S21400056072313A20202D2D3E206465766963652021
S2140005707265676973746572696E6720616E642060
S214000580656E61626C696E67204750525320636FD8
S2140005906E6E656374696F6E202E2E2E0D0A0053E4
S2140005A0494D38303820736572313A20202D2D3E63
S2140005B02052454144592E0D0A0D0A0041542B4342
S2140005C046554E3D25640D0A0041542B4350494E76
S2140005D03D22252E313473220D0A0041542B435000
S2140005E04F57443D25640D0A0041542B4950523D57
S2140005F0256C640D0A0041542B4946433D25642C66
S21400060025640D0A0041544525640D0A0041542B0B
S214000610434D45453D25640D0A0041542B43524544
S214000620473D25640D0A0041542B43474E5350570F
S214000630523D25640D0A0041542B43474E53494E04
S214000640460D0A0041542B43474E535552433D2511
S214000650640D0A0041542B435245473F0D0A0041A2
S214000660542B43474154543F0D0A0041542B4353E7
S21400067054543D222573222C222573222C222573C6
S214000680220D0A0041542B43494943520D0A0041AA
S214000690542B43494653520D0A0041542B434950AC
S2140006A053544152543D222573222C222573222C6A
S2140006B0222564220D0A0041542B43495053454ECF
S2140006C0440D0A001A0D0A0041542B434950434C6E
S2140006D04F53450D0A0041542B434950534552563B
S2140006E045523D25640D0A0041542B43495053485A
S2140006F055540D0A004F4B002B55474E53494E4656
S2140007003A002B435245473A20002B434741545466
S2140007103A200052494E47000D0A0D0A0D0A0025E0
S214000720630D0A3D3D3D3D3D3D3D3D3D3D3D3D3D31
S2140007303D3D3D3D3D3D3D3D3D3D3D3D3D3D3D3DE4
S2140007403D3D0D0A0046696E644D65534154202DAB
S21400075020555342206C6F6767696E67207374611B
S214000760727465640D0A003D3D3D3D3D3D3D3D3D99
S2140007703D3D3D3D3D3D3D3D3D3D3D3D3D3D3D3DA4
S2140007803D3D3D3D3D3D0D0A0D0A0054696D652019
S2140007903D202530366C643A205576636F3D25340F
S2140007A064206D562C205535763D253464206D56D4
S2140007B02C20556261743D253464206D562C200033
S2140007C055616463343D253464206D562C20556194
S2140007D06463353D253464206D562C205573696C52
S2140007E03D253464206D562C20006D505F54656D99
S2140007F0703D252B30362E326643092009004261B3
S214000800726F5F54656D703D252B30362E32664311
S2140008102C204261726F5F503D25372E326668503D
S214000820612C20004261726F5F514E483D25372E85
S214000830326668506109200900487967726F5F5414
S214000840656D703D252B30362E3266432C20487958
S21400085067726F5F52656C483D2530352E326625CF
S214000860252C2000487967726F5F446577506F6962
S2140008706E745F54656D703D252B30362E326643A0
S21400088009200900456E765F54656D703D252B3056
S214000890362E3266432C20456E765F52656C483D98
S2140008A02530352E326625250D0A000941783D256E
S2140008B02B30352E3366672028252B303664292CBE
S2140008C02041793D252B30352E3366672028252B91
S2140008D0303664292C2000417A3D252B30352E33C6
S2140008E066672028252B30366429092009004778BA
S2140008F03D252B30372E32666470732028252B302A
S2140009003664292C2047793D252B30372E326664F5
S21400091070732028252B303664292C2000477A3D1A
S214000920252B30372E3266647073202825303664C7
S21400093029092009004D783D252B30372E33667562
S214000940542028252B303664292C204D793D252B24
S21400095030372E336675542028252B303664292CE4
S21400096020004D7A3D252B30372E336675542028CF
S214000970252B30366429092009004779726F5F54A9
S214000980656D703D252B30362E3266432028252B8C
S214000990303664290D0A0D0A00504C4C3A20746912
S2140009A06D653D25366C642E2530336C64202B2017
S2140009B0253035642F3330452B36207365632C2065
S2140009C000317070735F646576696174696F6E3D3F
S2140009D0252B3130662C2000584F5F50574D3D2553
S2140009E030356C6464203A203078253032780D0A31
S2140009F00D0A000080328064809680C980FB802DBE
S214000A00815F819281C481F68128825B828D82BF5C
S214000A1082F182248356838883BA83ED831F8451B0
S214000A20848384B684E8841A854C857E85B185E304
S214000A3085158647867A86AC86DE8610874287745A
S214000A4087A787D9870B883D886F88A188D48806B2
S214000A508938896A899C89CE89008A328A658A970C
S214000A608AC98AFB8A2D8B5F8B918BC38BF58B276C
S214000A708C598C8B8CBD8CEF8C218D538D858DB7CE
S214000A808DE98D1B8E4D8E7F8EB18EE38E158F4732
S214000A908F798FAB8FDC8F0E9040907290A490D69B
S214000AA090079139916B919D91CF9100923292640B
S214000AB0929692C792F9922B935D938E93C093F27F
S214000AC093239455948694B894EA941B954D957EFA
S214000AD095B095E195139644967696A796D9960A7C
S214000AE0973C976D979F97D0970198339864989501
S214000AF098C798F89829995B998C99BD99EE992092
S214000B009A519A829AB39AE49A159B469B789BA927
S214000B109BDA9B0B9C3C9C6D9C9E9CCF9C009D31C5
S214000B209D629D939DC39DF49D259E569E879EB86F
S214000B309EE89E199F4A9F7B9FAB9FDC9F0DA03D22
S214000B40A06EA09FA0CFA000A130A161A191A1C2DC
S214000B50A1F2A123A253A284A2B4A2E4A215A345A3
S214000B60A375A3A6A3D6A306A436A467A497A4C772
S214000B70A4F7A427A557A587A5B7A5E7A517A64751
S214000B80A677A6A7A6D7A607A737A767A797A7C635
S214000B90A7F6A726A856A885A8B5A8E5A814A94428
S214000BA0A973A9A3A9D2A902AA31AA61AA90AAC028
S214000BB0AAEFAA1EAB4EAB7DABACABDBAB0BAC3A35
S214000BC0AC69AC98ACC7ACF6AC25AD54AD83ADB251
S214000BD0ADE1AD10AE3FAE6EAE9DAECCAEFAAE2978
S214000BE0AF58AF86AFB5AFE4AF12B041B06FB09EAE
S214000BF0B0CCB0FBB029B158B186B1B4B1E3B111F5
S214000C00B23FB26DB29CB2CAB2F8B226B354B38247
S214000C10B3B0B3DEB30CB43AB468B496B4C3B4F1AC
S214000C20B41FB54DB57AB5A8B5D6B503B631B65E20
S214000C30B68CB6B9B6E7B614B741B76FB79CB7C9A6
S214000C40B7F6B724B851B87EB8ABB8D8B805B9323D
S214000C50B95FB98CB9B9B9E6B912BA3FBA6CBA99E4
S214000C60BAC5BAF2BA1FBB4BBB78BBA4BBD1BBFD9F
S214000C70BB29BC56BC82BCAEBCDBBC07BD33BD5F6B
S214000C80BD8BBDB7BDE3BD0FBE3BBE67BE93BEBF4B
S214000C90BEEBBE16BF42BF6EBF99BFC5BFF0BF1C3E
S214000CA0C047C073C09EC0CAC0F5C020C14CC17743
S214000CB0C1A2C1CDC1F8C123C24EC279C2A4C2CF5F
S214000CC0C2FAC225C350C37AC3A5C3D0C3FAC3258C
S214000CD0C44FC47AC4A4C4CFC4F9C423C54EC578CF
S214000CE0C5A2C5CCC5F6C520C64AC674C69EC6C82B
S214000CF0C6F2C61CC746C76FC799C7C3C7ECC71698
S214000D00C83FC869C892C8BCC8E5C80EC938C9611A
S214000D10C98AC9B3C9DCC905CA2ECA57CA80CAA9B6
S214000D20CAD2CAFACA23CB4CCB74CB9DCBC5CBEE6A
S214000D30CB16CC3FCC67CC8FCCB8CCE0CC08CD3033
S214000D40CD58CD80CDA8CDD0CDF8CD20CE48CE6F15
S214000D50CE97CEBFCEE6CE0ECF35CF5DCF84CFAC0E
S214000D60CFD3CFFACF21D049D070D097D0BED0E520
S214000D70D00CD133D159D180D1A7D1CED1F4D11B4B
S214000D80D241D268D28ED2B5D2DBD201D328D34E8E
S214000D90D374D39AD3C0D3E6D30CD432D458D47DEC
S214000DA0D4A3D4C9D4EFD414D53AD55FD585D5AA63
S214000DB0D5CFD5F4D51AD63FD664D689D6AED6D3F7
S214000DC0D6F8D61DD742D766D78BD7B0D7D4D7F9A3
S214000DD0D71DD842D866D88AD8AFD8D3D8F7D81B6C
S214000DE0D93FD963D987D9ABD9CFD9F3D916DA3A4F
S214000DF0DA5EDA81DAA5DAC8DAECDA0FDB32DB564D
S214000E00DB79DB9CDBBFDBE2DB05DC28DC4BDC6D67
S214000E10DC90DCB3DCD6DCF8DC1BDD3DDD5FDD82A0
S214000E20DDA4DDC6DDE9DD0BDE2DDE4FDE71DE93F3
S214000E30DEB4DED6DEF8DE1ADF3BDF5DDF7EDFA067
S214000E40DFC1DFE2DF04E025E046E067E088E0A9F6
S214000E50E0CAE0EBE00CE12DE14DE16EE18EE1AFA2
S214000E60E1CFE1F0E110E230E251E271E291E2B16D
S214000E70E2D1E2F1E211E330E350E370E38FE3AF57
S214000E80E3CEE3EEE30DE42DE44CE46BE48AE4A960
S214000E90E4C8E4E7E406E525E544E562E581E5A087
S214000EA0E5BEE5DDE5FBE519E638E656E674E692CE
S214000EB0E6B0E6CEE6ECE60AE728E745E763E78134
S214000EC0E79EE7BCE7D9E7F7E714E831E84EE86BBA
S214000ED0E888E8A5E8C2E8DFE8FCE819E935E95261
S214000EE0E96EE98BE9A7E9C4E9E0E9FCE918EA3428
S214000EF0EA50EA6CEA88EAA4EAC0EADBEAF7EA1310
S214000F00EB2EEB4AEB65EB80EB9CEBB7EBD2EBED15
S214000F10EB08EC23EC3EEC58EC73EC8EECA8ECC340
S214000F20ECDDECF8EC12ED2CED47ED61ED7BED958C
S214000F30EDAFEDC9EDE3EDFCED16EE30EE49EE63F8
S214000F40EE7CEE95EEAFEEC8EEE1EEFAEE13EF2C89
S214000F50EF45EF5EEF76EF8FEFA8EFC0EFD9EFF13A
S214000F60EF09F022F03AF052F06AF082F09AF0B20E
S214000F70F0CAF0E1F0F9F011F128F140F157F16E06
S214000F80F186F19DF1B4F1CBF1E2F1F9F110F22620
S214000F90F23DF254F26AF281F297F2AEF2C4F2DA5D
S214000FA0F2F0F206F31CF332F348F35EF374F389BF
S214000FB0F39FF3B5F3CAF3DFF3F5F30AF41FF43443
S214000FC0F449F45EF473F488F49DF4B1F4C6F4DBEB
S214000FD0F4EFF403F518F52CF540F554F568F57CB8
S214000FE0F590F5A4F5B8F5CCF5DFF5F3F506F61AA9
S214000FF0F62DF640F653F667F67AF68DF6A0F6B2BC
S214001000F6C5F6D8F6EAF6FDF610F722F734F747F7
S214001010F759F76BF77DF78FF7A1F7B3F7C4F7D655
S214001020F7E8F7F9F70BF81CF82EF83FF850F861D8
S214001030F872F883F894F8A5F8B6F8C6F8D7F8E783
S214001040F8F8F808F919F929F939F949F959F9694F
S214001050F979F989F998F9A8F9B8F9C7F9D7F9E645
S214001060F9F5F904FA14FA23FA32FA41FA4FFA5E5D
S214001070FA6DFA7CFA8AFA99FAA7FAB5FAC4FAD29D
S214001080FAE0FAEEFAFCFA0AFB18FB25FB33FB4102
S214001090FB4EFB5CFB69FB76FB83FB91FB9EFBAB8D
S2140010A0FBB8FBC4FBD1FBDEFBEBFBF7FB04FC1041
S2140010B0FC1CFC29FC35FC41FC4DFC59FC65FC7015
S2140010C0FC7CFC88FC93FC9FFCAAFCB6FCC1FCCC18
S2140010D0FCD7FCE2FCEDFCF8FC03FD0EFD18FD233E
S2140010E0FD2EFD38FD42FD4DFD57FD61FD6BFD7586
S2140010F0FD7FFD89FD93FD9CFDA6FDB0FDB9FDC2FB
S214001100FDCCFDD5FDDEFDE7FDF0FDF9FD02FE0B95
S214001110FE13FE1CFE25FE2DFE36FE3EFE46FE4E51
S214001120FE56FE5EFE66FE6EFE76FE7EFE85FE8D3C
S214001130FE94FE9CFEA3FEAAFEB2FEB9FEC0FEC74B
S214001140FECEFED4FEDBFEE2FEE8FEEFFEF5FEFC83
S214001150FE02FF08FF0EFF14FF1AFF20FF26FF2CDB
S214001160FF31FF37FF3CFF42FF47FF4CFF52FF5760
S214001170FF5CFF61FF66FF6AFF6FFF74FF78FF7D0D
S214001180FF81FF86FF8AFF8EFF92FF96FF9AFF9EE3
S214001190FFA2FFA6FFA9FFADFFB0FFB4FFB7FFBBDE
S2140011A0FFBEFFC1FFC4FFC7FFCAFFCDFFCFFFD200
S2140011B0FFD5FFD7FFD9FFDCFFDEFFE0FFE2FFE44D
S2140011C0FFE6FFE8FFEAFFECFFEEFFEFFFF1FFF2BE
S2140011D0FFF3FFF5FFF6FFF7FFF8FFF9FFFAFFFB57
S2140011E0FFFBFFFCFFFDFFFDFFFEFFFEFFFEFFFE19
S2140011F0FFFEFFFFFFFEFFFEFFFEFFFEFFFEFFFD02
S214001200FFFDFFFCFFFBFFFBFFFAFFF9FFF8FFF710
S214001210FFF6FFF5FFF3FFF2FFF1FFEFFFEEFFEC47
S214001220FFEAFFE8FFE6FFE4FFE2FFE0FFDEFFDCA9
S214001230FFD9FFD7FFD5FFD2FFCFFFCDFFCAFFC72D
S214001240FFC4FFC1FFBEFFBBFFB7FFB4FFB0FFADDB
S214001250FFA9FFA6FFA2FF9EFF9AFF96FF92FF8EB2
S214001260FF8AFF86FF81FF7DFF78FF74FF6FFF6AAE
S214001270FF66FF61FF5CFF57FF52FF4CFF47FF42D0
S214001280FF3CFF37FF31FF2CFF26FF20FF1AFF141D
S214001290FF0EFF08FF02FFFCFEF5FEEFFEE8FEE293
S2140012A0FEDBFED4FECEFEC7FEC0FEB9FEB2FEAA30
S2140012B0FEA3FE9CFE94FE8DFE85FE7EFE76FE6EF2
S2140012C0FE66FE5EFE56FE4EFE46FE3EFE36FE2DDA
S2140012D0FE25FE1CFE13FE0BFE02FEF9FDF0FDE7EA
S2140012E0FDDEFDD5FDCCFDC2FDB9FDB0FDA6FD9C25
S2140012F0FD93FD89FD7FFD75FD6BFD61FD57FD4D81
S214001300FD42FD38FD2EFD23FD18FD0EFD03FDF804
S214001310FCEDFCE2FCD7FCCCFCC1FCB6FCAAFC9FB6
S214001320FC93FC88FC7CFC70FC65FC59FC4DFC4185
S214001330FC35FC29FC1CFC10FC04FCF7FBEBFBDE7C
S214001340FBD1FBC4FBB8FBABFB9EFB91FB83FB76A0
S214001350FB69FB5CFB4EFB41FB33FB25FB18FB0AE2
S214001360FBFCFAEEFAE0FAD2FAC4FAB5FAA7FA9952
S214001370FA8AFA7CFA6DFA5EFA4FFA41FA32FA23E2
S214001380FA14FA04FAF5F9E6F9D7F9C7F9B8F9A89C
S214001390F998F989F979F969F959F949F939F92979
S2140013A0F919F908F9F8F8E7F8D7F8C6F8B6F8A57D
S2140013B0F894F883F872F861F850F83FF82EF81CA5
S2140013C0F80BF8F9F7E8F7D6F7C4F7B3F7A1F78FF5
S2140013D0F77DF76BF759F747F734F722F710F7FD65
S2140013E0F6EAF6D8F6C5F6B2F6A0F68DF67AF66701
S2140013F0F653F640F62DF61AF606F6F3F5DFF5CCBC
S214001400F5B8F5A4F590F57CF568F554F540F52C9F
S214001410F518F503F5EFF4DBF4C6F4B1F49DF488A3
S214001420F473F45EF449F434F41FF40AF4F5F3DFCD
S214001430F3CAF3B5F39FF389F374F35EF348F3321C
S214001440F31CF306F3F0F2DAF2C4F2AEF297F2818E
S214001450F26AF254F23DF226F210F2F9F1E2F1CB22
S214001460F1B4F19DF186F16EF157F140F128F111DA
S214001470F1F9F0E1F0CAF0B2F09AF082F06AF052B8
S214001480F03AF022F009F0F1EFD9EFC0EFA8EF8FB5
S214001490EF76EF5EEF45EF2CEF13EFFAEEE1EEC8D6
S2140014A0EEAFEE95EE7CEE63EE49EE30EE16EEFC19
S2140014B0EDE3EDC9EDAFED95ED7BED61ED47ED2C80
S2140014C0ED12EDF8ECDDECC3ECA8EC8EEC73EC580A
S2140014D0EC3EEC23EC08ECEDEBD2EBB7EB9CEB80B0
S2140014E0EB65EB4AEB2EEB13EBF7EADBEAC0EAA47C
S2140014F0EA88EA6CEA50EA34EA18EAFCE9E0E9C469
S214001500E9A7E98BE96EE952E935E919E9FCE8DF74
S214001510E8C2E8A5E888E86BE84EE831E814E8F7A2
S214001520E7D9E7BCE79EE781E763E745E728E70AF0
S214001530E7ECE6CEE6B0E692E674E656E638E6195E
S214001540E6FBE5DDE5BEE5A0E581E562E544E525EB
S214001550E506E5E7E4C8E4A9E48AE46BE44CE42D98
S214001560E40DE4EEE3CEE3AFE38FE370E350E33065
S214001570E311E3F1E2D1E2B1E291E271E251E2304D
S214001580E210E2F0E1CFE1AFE18EE16EE14DE12D58
S214001590E10CE1EBE0CAE0A9E088E067E046E02580
S2140015A0E004E0E2DFC1DFA0DF7EDF5DDF3BDF1AC5
S2140015B0DFF8DED6DEB4DE93DE71DE4FDE2DDE0B28
S2140015C0DEE9DDC6DDA4DD82DD5FDD3DDD1BDDF8A9
S2140015D0DCD6DCB3DC90DC6DDC4BDC28DC05DCE246
S2140015E0DBBFDB9CDB79DB56DB32DB0FDBECDAC800
S2140015F0DAA5DA81DA5EDA3ADA16DAF3D9CFD9ABD7
S214001600D987D963D93FD91BD9F7D8D3D8AFD88AC9
S214001610D866D842D81DD8F9D7D4D7B0D78BD766D6
S214001620D742D71DD7F8D6D3D6AED689D664D63FFE
S214001630D61AD6F4D5CFD5AAD585D55FD53AD51442
S214001640D5EFD4C9D4A3D47DD458D432D40CD4E6A0
S214001650D3C0D39AD374D34ED328D301D3DBD2B519
S214001660D28ED268D241D21BD2F4D1CED1A7D180AD
S214001670D159D133D10CD1E5D0BED097D070D04956
S214001680D021D0FACFD3CFACCF84CF5DCF35CF0E1D
S214001690CFE6CEBFCE97CE6FCE48CE20CEF8CDD0FA
S2140016A0CDA8CD80CD58CD30CD08CDE0CCB8CC8FF0
S2140016B0CC67CC3FCC16CCEECBC5CB9DCB74CB4CFD
S2140016C0CB23CBFACAD2CAA9CA80CA57CA2ECA0521
S2140016D0CADCC9B3C98AC961C938C90EC9E5C8BC5C
S2140016E0C892C869C83FC816C8ECC7C3C799C76FB1
S2140016F0C746C71CC7F2C6C8C69EC674C64AC6201A
S214001700C6F6C5CCC5A2C578C54EC523C5F9C4CF97
S214001710C4A4C47AC44FC425C4FAC3D0C3A5C37A2C
S214001720C350C325C3FAC2CFC2A4C279C24EC223D5
S214001730C2F8C1CDC1A2C177C14CC120C1F5C0CA93
S214001740C09EC073C047C01CC0F0BFC5BF99BF6E67
S214001750BF42BF16BFEBBEBFBE93BE67BE3BBE0F4B
S214001760BEE3BDB7BD8BBD5FBD33BD07BDDBBCAE45
S214001770BC82BC56BC29BCFDBBD1BBA4BB78BB4B52
S214001780BB1FBBF2BAC5BA99BA6CBA3FBA12BAE670
S214001790B9B9B98CB95FB932B905B9D8B8ABB87EA2
S2140017A0B851B824B8F6B7C9B79CB76FB741B714E5
S2140017B0B7E7B6B9B68CB65EB631B603B6D6B5A838
S2140017C0B57AB54DB51FB5F1B4C3B496B468B43A9E
S2140017D0B40CB4DEB3B0B382B354B326B3F8B2CA13
S2140017E0B29CB26DB23FB211B2E3B1B4B186B15899
S2140017F0B129B1FBB0CCB09EB06FB041B012B0E42E
S214001800AFB5AF86AF58AF29AFFAAECCAE9DAE6ED1
S214001810AE3FAE10AEE1ADB2AD83AD54AD25ADF684
S214001820ACC7AC98AC69AC3AAC0BACDBABACAB7D44
S214001830AB4EAB1EABEFAAC0AA90AA61AA31AA0211
S214001840AAD2A9A3A973A944A914A9E5A8B5A885ED
S214001850A856A826A8F6A7C6A797A767A737A707D4
S214001860A7D7A6A7A677A647A617A6E7A5B7A587CC
S214001870A557A527A5F7A4C7A497A467A436A406CA
S214001880A4D6A3A6A375A345A315A3E4A2B4A284D5
S214001890A253A223A2F2A1C2A191A161A130A100EC
S2140018A0A1CFA09FA06EA03DA00DA0DC9FAB9F7B0C
S2140018B09F4A9F199FE89EB89E879E569E259EF437
S2140018C09DC39D939D629D319D009DCF9C9E9C6D6A
S2140018D09C3C9C0B9CDA9BA99B789B469B159BE4A7
S2140018E09AB39A829A519A209AEE99BD998C995BEE
S2140018F0992999F898C7989598649833980198D03C
S214001900979F976D973C970A97D996A79676964491
S214001910961396E195B0957E954D951B95EA94B8ED
S21400192094869455942394F293C0938E935D932B50
S21400193093F992C7929692649232920092CF919DBA
S214001940916B9139910791D690A490729040900E29
S21400195090DC8FAB8F798F478F158FE38EB18E7F9C
S2140019608E4D8E1B8EE98DB78D858D538D218DEF17
S2140019708CBD8C8B8C598C278CF58BC38B918B5F95
S2140019808B2D8BFB8AC98A978A658A328A008ACE13
S214001990899C896A8938890689D488A1886F883D98
S2140019A0880B88D987A787748742871087DE86AC1E
S2140019B0867A8647861586E385B1857E854C851AA8
S2140019C085E884B684838451841F84ED83BA838833
S2140019D08356832483F182BF828D825B822882F6BF
S2140019E081C48192815F812D81FB80C9809680644D
S2140019F08032800080CD7F9B7F697F367F047FD2D8
S214001A007EA07E6D7E3B7E097ED77DA47D727D4066
S214001A107D0E7DDB7CA97C777C457C127CE07BAEF2
S214001A207B7C7B497B177BE57AB37A817A4E7A1C7E
S214001A307AEA79B879857953792179EF78BD788B08
S214001A407858782678F477C27790775E772B77F990
S214001A5076C776957663763176FF75CD759A756816
S214001A607536750475D274A0746E743C740A74D896
S214001A7073A673747342731073DE72AC727A724814
S214001A80721672E471B27180714E711C71EA70B890
S214001A9070867054702370F16FBF6F8D6F5B6F2907
S214001AA06FF86EC66E946E626E306EFF6DCD6D9B77
S214001AB06D696D386D066DD46CA26C716C3F6C0DE3
S214001AC06CDC6BAA6B796B476B156BE46AB26A8148
S214001AD06A4F6A1E6AEC69BB69896958692669F5A6
S214001AE068C368926860682F68FE67CC679B676A01
S214001AF06738670767D666A466736642661166DF50
S214001B0065AE657D654C651B65EA64B96487645699
S214001B10642564F463C363926361633063FF62CEDB
S214001B20629D626C623C620B62DA61A96178614711
S214001B30611761E660B560846054602360F25FC23E
S214001B405F915F605F305FFF5ECF5E9E5E6E5E3D64
S214001B505E0D5EDC5DAC5D7B5D4B5D1B5DEA5CBA7D
S214001B605C8A5C595C295CF95BC95B985B685B388E
S214001B705B085BD85AA85A785A485A185AE859B88F
S214001B8059885958592859F858C85898586858398B
S214001B90580958D957A9577A574A571A57EB56BB78
S214001BA0568C565C562D56FD55CE559E556F553F58
S214001BB0551055E154B154825453542454F453C52B
S214001BC0539653675338530953DA52AB527C524DEF
S214001BD0521E52EF51C0519151625133510551D6A8
S214001BE050A75079504A501B50ED4FBE4F904F6152
S214001BF04F334F044FD64EA74E794E4B4E1C4EEEEB
S214001C004DC04D924D634D354D074DD94CAB4C7D77
S214001C104C4F4C214CF34BC54B974B694B3C4B0EF2
S214001C204BE04AB24A854A574A294AFC49CE49A15E
S214001C3049734946491849EB48BE489048634836B8
S214001C40480948DB47AE47814754472747FA46CD01
S214001C5046A046734646461946ED45C0459345663A
S214001C60453A450D45E044B44487445B442E44025F
S214001C7044D643A9437D4351432443F842CC42A073
S214001C8042744248421C42F041C44198416C414073
S214001C90411441E940BD40914066403A400F40E360
S214001CA03FB83F8C3F613F353F0A3FDF3EB33E883B
S214001CB03E5D3E323E073EDC3DB13D863D5B3D30FF
S214001CC03D053DDA3CAF3C853C5A3C2F3C053CDAB2
S214001CD03BB03B853B5B3B303B063BDC3AB13A874F
S214001CE03A5D3A333A093ADF39B5398B39613937D3
S214001CF0390D39E338B938903866383C381338E946
S214001D0037C03796376D3743371A37F136C7369EA2
S214001D103675364C362336FA35D135A8357F3556E6
S214001D20352D350535DC34B3348B3462343A341112
S214001D3034E933C0339833703347331F33F732CF29
S214001D4032A7327F3257322F320732DF31B7319027
S214001D5031683140311931F130CA30A2307B30530E
S214001D60302C300530DE2FB62F8F2F682F412F1ADC
S214001D702FF32ECC2EA62E7F2E582E312E0B2EE491
S214001D802DBE2D972D712D4A2D242DFE2CD72CB12E
S214001D902C8B2C652C3F2C192CF32BCD2BA72B82B0
S214001DA02B5C2B362B102BEB2AC52AA02A7A2A5519
S214001DB02A302A0B2AE529C0299B29762951292C65
S214001DC0290729E228BD28992874284F282B280699
S214001DD028E227BD279927752750272C270827E4B0
S214001DE026C0269C267826542630260C26E925C5AD
S214001DF025A1257E255A2537251325F024CD24A98F
S214001E00248624632440241D24FA23D723B4239253
S214001E10236F234C2329230723E422C222A0227DFA
S214001E20225B2239221622F421D221B0218E216C87
S214001E30214B2129210721E520C420A22081205FF3
S214001E40203E201D20FB1FDA1FB91F981F771F5644
S214001E501F351F141FF31ED21EB21E911E711E5078
S214001E601E301E0F1EEF1DCF1DAE1D8E1D6E1D4E8D
S214001E701D2E1D0E1DEE1CCF1CAF1C8F1C701C5083
S214001E801C311C111CF21BD21BB31B941B751B565A
S214001E901B371B181BF91ADA1ABB1A9D1A7E1A5F13
S214001EA01A411A221A041AE619C719A9198B196DAC
S214001EB0194F1931191319F518D718BA189C187E26
S214001EC0186118431826180818EB17CE17B1179480
S214001ED01777175A173D1720170317E616CA16ADB9
S214001EE0169116741658163B161F160316E715CBD2
S214001EF015AF15931577155B153F1524150815ECCA
S214001F0014D114B5149A147F14631448142D1412A3
S214001F1014F713DC13C113A7138C13711357133C58
S214001F201322130713ED12D312B8129E1284126AEC
S214001F3012501236121C120312E911CF11B6119C60
S214001F401183116A11501137111E110511EC10D3AF
S214001F5010BA10A1108910701057103F1026100EDE
S214001F6010F60FDD0FC50FAD0F950F7D0F650F4DEA
S214001F700F350F1E0F060FEE0ED70EBF0EA80E91D2
S214001F800E790E620E4B0E340E1D0E060EEF0DD998
S214001F900DC20DAB0D950D7E0D680D510D3B0D253B
S214001FA00D0F0DF90CE30CCD0CB70CA10C8B0C76B9
S214001FB00C600C4A0C350C200C0A0CF50BE00BCB15
S214001FC00BB60BA10B8C0B770B620B4E0B390B244D
S214001FD00B100BFC0AE70AD30ABF0AAB0A970A8360
S214001FE00A6F0A5B0A470A330A200A0C0AF909E54F
S214001FF009D209BF09AC099809850972095F094D1C
S214002000093A09270915090209EF08DD08CB08B8BF
S21400201008A6089408820870085E084C083B082941
S2140020200817080608F407E307D107C007AF079E9E
S214002030078D077C076B075A0749073907280718D3
S214002040070707F706E606D606C606B606A60696E7
S21400205006860676066706570647063806280619D1
S214002060060A06FB05EB05DC05CD05BE05B005A199
S21400207005920583057505660558054A053B052D39
S214002080051F0511050305F504E704DA04CC04BEB4
S21400209004B104A304960489047C046E0461045409
S2140020A00447043B042E04210414040804FB03EF35
S2140020B003E303D603CA03BE03B203A6039A038F41
S2140020C003830377036C036003550349033E03331E
S2140020D00328031D0312030703FC02F102E702DCD8
S2140020E002D102C702BD02B202A8029E0294028A70
S2140020F002800276026C02630259024F0246023DDB
S2140021000233022A02210218020F020602FD01F41F
S21400211001EC01E301DA01D201C901C101B901B143
S21400212001A901A10199019101890181017A017238
S214002130016B0163015C0155014D0146013F013809
S2140021400131012B0124011D01170110010A0103B1
S21400215001FD00F700F100EB00E500DF00D900D339
S21400216000CE00C800C300BD00B800B300AD00A894
S21400217000A3009E009900950090008B00870082C7
S214002180007E007900750071006D006900650061D1
S214002190005D005900560052004F004B00480044B6
S2140021A00041003E003B0038003500320030002D74
S2140021B0002A0028002600230021001F001D001B07
S2140021C0001900170015001300110010000E000D76
S2140021D0000C000A000900080007000600050004BD
S2140021E000040003000200020001000100010001DB
S2140021F000010001000100010001000100010002D1
S21400220000020003000400040005000600070008A2
S2140022100009000A000C000D000E0010001100134B
S214002220001500170019001B001D001F00210023C9
S21400223000260028002A002D003000320035003825
S214002240003B003E004100440048004B004F005257
S21400225000560059005D006100650069006D007160
S21400226000750079007E00820087008B0090009544
S2140022700099009E00A300A800AD00B300B800BD02
S21400228000C300C800CE00D300D900DF00E500EB95
S21400229000F100F700FD0003010A01100117011DFF
S2140022A00124012B01310138013F0146014D015542
S2140022B0015C0163016B0172017A01810189019160
S2140022C0019901A101A901B101B901C101C901D258
S2140022D001DA01E301EC01F401FD0106020F021828
S2140022E00221022A0233023D0246024F02590263CD
S2140022F0026C02760280028A0294029E02A802B251
S21400230002BD02C702D102DC02E702F102FC0207AC
S2140023100312031D03280333033E034903550360DA
S214002320036C03770383038F039A03A603B203BEEB
S21400233003CA03D603E303EF03FB030804140421D4
S214002340042E043B044704540461046E047C048990
S214002350049604A304B104BE04CC04DA04E704F52E
S21400236004030511051F052D053B054A055805669E
S21400237005750583059205A105B005BE05CD05DCEE
S21400238005EB05FB050A0619062806380647065714
S214002390066706760686069606A606B606C606D617
S2140023A006E606F706070718072807390749075AF3
S2140023B0076B077C078D079E07AF07C007D107E3AB
S2140023C007F4070608170829083B084C085E08703B
S2140023D00882089408A608B808CB08DD08EF0802AB
S2140023E009150927093A094D095F097209850998EF
S2140023F009AC09BF09D209E509F9090C0A200A3314
S2140024000A470A5B0A6F0A830A970AAB0ABF0AD30F
S2140024100AE70AFC0A100B240B390B4E0B620B77EB
S2140024200B8C0BA10BB60BCB0BE00BF50B0A0C20A1
S2140024300C350C4A0C600C760C8B0CA10CB70CCD32
S2140024400CE30CF90C0F0D250D3B0D510D680D7EA0
S2140024500D950DAB0DC20DD90DEF0D060E1D0E34EC
S2140024600E4B0E620E790E910EA80EBF0ED70EEE14
S2140024700E060F1E0F350F4D0F650F7D0F950FAD16
S2140024800FC50FDD0FF60F0E1026103F10571070F9
S214002490108910A110BA10D310EC1005111E1137B8
S2140024A01150116A1183119C11B611CF11E9110355
S2140024B0121C12361250126A1284129E12B812D3CE
S2140024C012ED12071322133C13571371138C13A724
S2140024D013C113DC13F71312142D14481463147F5E
S2140024E0149A14B514D114EC14081524153F155B72
S2140024F01577159315AF15CB15E71503161F163B65
S21400250016581674169116AD16CA16E61603172038
S214002510173D175A1777179417B117CE17EB1708EA
S214002520182618431861187E189C18BA18D718F57C
S21400253018131931194F196D198B19A919C719E6EE
S21400254019041A221A411A5F1A7E1A9D1ABB1ADA41
S2140025501AF91A181B371B561B751B941BB31BD274
S2140025601BF21B111C311C501C701C8F1CAF1CCF87
S2140025701CEE1C0E1D2E1D4E1D6E1D8E1DAE1DCF7F
S2140025801DEF1D0F1E301E501E711E911EB21ED254
S2140025901EF31E141F351F561F771F981FB91FDA0C
S2140025A01FFB1F1D203E205F208120A220C420E5A7
S2140025B020072129214B216C218E21B021D221F424
S2140025C021162239225B227D22A022C222E4220783
S2140025D02329234C236F239223B423D723FA231DC6
S2140025E024402463248624A924CD24F024132537EC
S2140025F0255A257E25A125C525E9250C26302654F5
S2140026002678269C26C026E42608272C27502775E1
S214002610279927BD27E22706282B284F28742899B4
S21400262028BD28E22807292C29512976299B29C06C
S21400263029E5290B2A302A552A7A2AA02AC52AEB08
S2140026402A102B362B5C2B822BA72BCD2BF32B198A
S2140026502C3F2C652C8B2CB12CD72CFE2C242D4AF1
S2140026602D712D972DBE2DE42D0B2E312E582E7F3D
S2140026702EA62ECC2EF32E1A2F412F682F8F2FB674
S2140026802FDE2F05302C3053307B30A230CA30F18D
S214002690301931403168319031B731DF3107322F90
S2140026A03257327F32A732CF32F7321F334733707A
S2140026B0339833C033E93311343A3462348B34B34D
S2140026C034DC3405352D3556357F35A835D135FA09
S2140026D03523364C3675369E36C736F1361A3743AE
S2140026E0376D379637C037E93713383C3866389039
S2140026F038B938E3380D39373961398B39B539DFB0
S21400270039093A333A5D3A873AB13ADC3A063B3011
S2140027103B5B3B853BB03BDA3B053C2F3C5A3C855C
S2140027203CAF3CDA3C053D303D5B3D863DB13DDC93
S2140027303D073E323E5D3E883EB33EDF3E0A3F35B5
S2140027403F613F8C3FB83FE33F0F403A40664091C1
S21400275040BD40E940144140416C419841C441F0BD
S214002760411C4248427442A042CC42F842244351A3
S214002770437D43A943D64302442E445B448744B476
S21400278044E0440D453A4566459345C045ED451938
S2140027904646467346A046CD46FA462747544781E6
S2140027A047AE47DB470948364863489048BE48EB83
S2140027B048184946497349A149CE49FC49294A5710
S2140027C04A854AB24AE04A0E4B3C4B694B974BC58A
S2140027D04BF34B214C4F4C7D4CAB4CD94C074D35F5
S2140027E04D634D924DC04DEE4D1C4E4B4E794EA74F
S2140027F04ED64E044F334F614F904FBE4FED4F1B9A
S214002800504A507950A750D65005513351625191D5
S21400281051C051EF511E524D527C52AB52DA520902
S21400282053385367539653C553F453245453548222
S21400283054B154E15410553F556F559E55CE55FD35
S214002840552D565C568C56BB56EB561A574A577A39
S21400285057A957D9570958395868589858C858F832
S21400286058285958598859B859E859185A485A781A
S2140028705AA85AD85A085B385B685B985BC95BF9FC
S2140028805B295C595C8A5CBA5CEA5C1B5D4B5D7BD1
S2140028905DAC5DDC5D0D5E3D5E6E5E9E5ECF5EFF9A
S2140028A05E305F605F915FC25FF25F23605460845A
S2140028B060B560E660176147617861A961DA610B0F
S2140028C0623C626C629D62CE62FF623063616392BC
S2140028D063C363F463256456648764B964EA641B5F
S2140028E0654C657D65AE65DF65116642667366A4F8
S2140028F066D666076738676A679B67CC67FE672F8A
S2140029006860689268C368F568266958698969BB13
S21400291069EC691E6A4F6A816AB26AE46A156B4797
S2140029206B796BAA6BDC6B0D6C3F6C716CA26CD414
S2140029306C066D386D696D9B6DCD6DFF6D306E628A
S2140029406E946EC66EF86E296F5B6F8D6FBF6FF1FB
S2140029506F237054708670B870EA701C714E718068
S21400296071B271E471167248727A72AC72DE7210CD
S2140029707342737473A673D8730A743C746E74A02F
S21400298074D2740475367568759A75CD75FF753191
S2140029907663769576C776F9762B775E779077C2EC
S2140029A077F477267858788B78BD78EF7821795346
S2140029B0798579B879EA791C7A4E7A817AB37AE59C
S2140029C07A177B497B7C7BAE7BE07B127C457C77F1
S2140029D07CA97CDB7C0E7D407D727DA47DD77D0945
S2140029E07E3B7E6D7EA07ED27E047F367F697F9B97
S2140029F07FCD7F00FDF9F6F3F0ECE9E6E3DFDCD906
S214002A00D6D2CF00FDFAF6F3F0EDEAE6E3E0DDDA43
S214002A10D7D3D000FDFAF7F3F0EDEAE7E4E1DEDA2B
S214002A20D7D4D100FDFAF7F4F1EEEBE7E4E1DEDB14
S214002A30D8D5D200FDFAF7F4F1EEEBE8E5E2DFDCFC
S214002A40D9D6D300FDFAF7F4F1EEEBE8E6E3E0DDE5
S214002A50DAD7D400FDFAF7F4F2EFECE9E6E3E0DDCE
S214002A60DBD8D500FDFAF8F5F2EFECE9E7E4E1DEB5
S214002A70DBD9D600FDFAF8F5F2EFEDEAE7E4E2DF9F
S214002A80DCD9D700FDFBF8F5F3F0EDEAE8E5E2E087
S214002A90DDDAD800FDFBF8F5F3F0EEEBE8E6E3E070
S214002AA0DEDBD900FDFBF8F6F3F1EEEBE9E6E4E158
S214002AB0DFDCDA00FDFBF8F6F3F1EEECE9E7E4E242
S214002AC0DFDDDA00FEFBF9F6F4F1EFECEAE8E5E329
S214002AD0E0DEDB00FEFBF9F6F4F2EFEDEBE8E6E312
S214002AE0E1DFDC00FEFBF9F7F4F2F0EDEBE9E7E4FA
S214002AF0E2E0DD00FEFBF9F7F5F2F0EEECE9E7E5E3
S214002B00E3E0DE00FEFCF9F7F5F3F1EEECEAE8E6CA
S214002B10E4E1DF00FEFCFAF7F5F3F1EFEDEBE9E6B2
S214002B20E4E2E000FEFCFAF8F6F4F2EFEDEBE9E79B
S214002B30E5E3E100FEFCFAF8F6F4F2F0EEECEAE883
S214002B40E6E4E200FEFCFAF8F6F4F2F0EFEDEBE96C
S214002B50E7E5E300FEFCFAF8F7F5F3F1EFEDEBE955
S214002B60E8E6E400FEFCFBF9F7F5F3F1F0EEECEA3C
S214002B70E8E7E500FEFCFBF9F7F5F4F2F0EEEDEB26
S214002B80E9E7E600FEFDFBF9F8F6F4F2F1EFEDEC0E
S214002B90EAE8E700FEFDFBF9F8F6F5F3F1F0EEECF7
S214002BA0EBE9E800FEFDFBFAF8F7F5F3F2F0EFEDDF
S214002BB0ECEAE900FEFDFBFAF8F7F5F4F2F1EFEEC9
S214002BC0ECEBE900FFFDFCFAF9F7F6F4F3F2F0EFB0
S214002BD0EDECEA00FFFDFCFAF9F8F6F5F4F2F1EF99
S214002BE0EEEDEB00FFFDFCFBF9F8F7F5F4F3F2F081
S214002BF0EFEEEC00FFFDFCFBFAF8F7F6F5F3F2F16A
S214002C00F0EEED00FFFEFCFBFAF9F8F6F5F4F3F251
S214002C10F1EFEE00FFFEFDFBFAF9F8F7F6F5F4F239
S214002C20F1F0EF00FFFEFDFCFBFAF9F7F6F5F4F322
S214002C30F2F1F000FFFEFDFCFBFAF9F8F7F6F5F40A
S214002C40F3F2F100FFFEFDFCFBFAF9F8F8F7F6F5F3
S214002C50F4F3F200FFFEFDFCFCFBFAF9F8F7F6F5DC
S214002C60F5F4F300FFFEFEFDFCFBFAF9F9F8F7F6C3
S214002C70F5F5F400FFFEFEFDFCFBFBFAF9F8F8F7AD
S214002C80F6F5F500FFFFFEFDFDFCFBFAFAF9F8F895
S214002C90F7F6F600FFFFFEFDFDFCFCFBFAFAF9F87E
S214002CA0F8F7F700FFFFFEFEFDFDFCFBFBFAFAF966
S214002CB0F9F8F800FFFFFEFEFDFDFCFCFBFBFAFA50
S214002CC0F9F9F80000FFFFFEFEFDFDFCFCFCFBFB37
S214002CD0FAFAF90000FFFFFEFEFEFDFDFDFCFCFB20
S214002CE0FBFBFA0000FFFFFFFEFEFEFDFDFDFDFC08
S214002CF0FCFCFB0000FFFFFFFFFEFEFEFEFDFDFDF1
S214002D00FDFCFC000000FFFFFFFFFFFEFEFEFEFED8
S214002D10FEFDFD00000000FFFFFFFFFFFFFFFFFEC0
S214002D20FEFEFE0000000000000000FFFFFFFFFFA9
S214002D30FFFFFF0000000000000000000000000091
S214002D400000000000000000000000010101010179
S214002D500101010000000001010101010101010261
S214002D600202020000000101010101020202020249
S214002D700203030000010101010202020203030331
S214002D80030404000001010102020203030303041A
S214002D900404050000010102020203030304040503
S214002DA005050600000101020203030404040505EC
S214002DB006060700010102020303040405050606D1
S214002DC007070800010102020303040505060607BB
S214002DD007080800010102030304040506060708A5
S214002DE0080909000101020303040506060708088E
S214002DF0090A0A0001020203040505060708080975
S214002E000A0B0B0001020203040506070708090A5D
S214002E100B0B0C00010203040405060708090A0B45
S214002E200B0C0D00010203040506070808090A0B2F
S214002E300C0D0E000102030405060708090A0B0C18
S214002E400D0E0F0001020304050607090A0B0C0D00
S214002E500E0F100001020305060708090A0B0C0EE8
S214002E600F101100010204050607080A0B0C0D0ED0
S214002E700F111200010304050608090A0B0D0E0FB8
S214002E8010121300010304050708090B0C0D0E10A1
S214002E90111214000103040607080A0B0C0E0F118A
S214002EA0121315000103040607090A0C0D0E101173
S214002EB0131416000203050608090B0C0E0F111258
S214002EC0141517000203050608090B0D0E10111342
S214002ED01416170002030507080A0B0D0F1012142C
S214002EE01517180002030507080A0C0E0F11131415
S214002EF01618190002040507090B0C0E10121315FC
S214002F0017191A0002040507090B0D0F10121416E4
S214002F1018191B0002040608090B0D0F11131517CC
S214002F20181A1C00020406080A0C0E1011131517B6
S214002F30191B1D00020406080A0C0E10121416189F
S214002F401A1C1E00020406080A0C0E111315171987
S214002F501B1D1F00020406090B0D0F111315171A6F
S214002F601C1E2000020407090B0D0F121416181A57
S214002F701C1F2100020507090B0E10121417191B3F
S214002F801D202200020507090C0E10131517191C28
S214002F901E2023000205070A0C0E111315181A1D11
S214002FA01F2124000205070A0C0F111416181B1DFA
S214002FB0202225000305080A0D0F121417191C1EDF
S214002FC0212326000305080A0D0F1215171A1C1FC9
S214002FD0212426000305080B0D101215181A1D20B3
S214002FE0222527000305080B0D101316181B1E209C
S214002FF0232628000306080B0E111316191C1E2183
S214003000242729000306080B0E111417191C1F226B
S21400301025272A000306090C0E1114171A1D202353
S21400302025282B000306090C0F1215181A1D20233D
S21400303026292C000306090C0F1215181B1E212426
S214003040272A2D000306090C0F1215191C1F22250E
S214003050282B2E000306090D101316191C1F2226F6
S214003060292C2F0003060A0D1013161A1D202326DE
S214003070292D300D0A0D0A0D0A2A2A2A2A2A2A2A5A
S2140030802A2A2A2A2A0D0A002A20434F4D4D414E4D
S2140030904453202A0D0A2A2A2A2A2A2A2A2A2A2A8F
S2140030A02A2A0D0A0D0A006164633D0909303A2098
S2140030B07475726E204144434120616E6420414421
S2140030C04342206F66662C2000313A207475726E7B
S2140030D0204144434120616E642041444342206FB6
S2140030E06E0D0A00617072733D0909303A204F4632
S2140030F0462C20313A204F4E0D0A00090963616CB8
S2140031006C3D3C7374723E3A2063616C6C73696705
S2140031106E0D0A000909737369643D5B2D5D302DE1
S21400312031353A20535349440D0A00090975736531
S214003130723D3C7374723E3A2075736572206C6FF4
S21400314067696E0D0A0009097077643D3C737472F6
S2140031503E3A2070617373776F72640D0A004154B3
S2140031600909434D4420746F2073656E6420746FA4
S214003170207468652053494D3830380D0A0062695E
S21400318061733D0909302D36333A20626961732038
S214003190766F6C746167652000666F72204C4344DE
S2140031A020636F6E74726173740D0A00626C3D0961
S2140031B009302D3235353A206261636B6C69676879
S2140031C0742050574D2C20002D313A204155544F35
S2140031D02C202D323A205455524E4C494748542004
S2140031E07370656369616C0D0A0063616C3D090963
S2140031F064656661756C74733A20736176652064E5
S214003200656661756C742076616C756573200074F4
S2140032106F20454550524F4D0D0A00090961636302
S214003220656C783A20582D6178697320316720667E
S2140032306163742D63616C2C20592F5A206F66666B
S2140032407365742D63616C0D0A000909616363651B
S2140032506C793A20592D6178697320316720666150
S21400326063742D63616C2C20582F5A206F6666732A
S21400327065742D63616C0D0A000909616363656CF2
S2140032807A3A205A2D617869732031672066616327
S214003290742D63616C2C20582F59206F66667365F9
S2140032A0742D63616C0D0A0009096779726F3A2004
S2140032B0726564756365204759524F206F66667362
S2140032C06574206572726F72730D0A006461633DE7
S2140032D00909303A207475726E2044414342206FCB
S2140032E066662C2000313A207475726E2044414385
S2140032F042206F6E0D0A006464733D612C622C637D
S21400330009613A2044445330206672657175656ED3
S2140033106379206D487A2C2000623A204444533169
S214003320206D487A2C2000633A20737461727469A9
S2140033306E67207068617365206F66204444533161
S2140033402D44445330206465670D0A0065623D09CC
S21400335009303A206572726F722062656570204F80
S21400336046462C20313A204F4E0D0A00656E765F99
S214003370743D090974656D703A206F6620656E7637
S21400338069726F6E6D656E7420696E206465674342
S2140033900D0A0067736D3D0909303A204F46462CEA
S2140033A020313A204F4E0D0A000909617072733DB4
S2140033B0303A2041505253207669612047534D20C1
S2140033C04F46462C20313A204F4E0D0A0009097010
S2140033D0696E3D3C70696E3E3A20746865205049BF
S2140033E04E206F66207468652047534D20736D61CC
S2140033F0727420636172640D0A0068656C70090956
S2140034005468697320696E666F726D6174696F6E59
S2140034102070616765200061626F757420616C6C56
S21400342020617661696C61626C6520636F6D6D61A9
S2140034306E64730D0A00696E666F3D0909303A20A6
S2140034404F46462C20307830313A204154786D650E
S21400345067612C2000307830323A2053494D38309E
S214003460382C2000307830343A20315050532F50CA
S2140034704C4C0D0A006B623D0909303A206B6579A9
S2140034802062656570204F46462C20313A204F4E0C
S2140034900D0A0070743D0909303A2070697463683B
S2140034A020746F6E65204F46462C2000313A2074FB
S2140034B075726E2073706565642C20323A207661D2
S2140034C072696F6D657465720D0A00716E683D09EC
S2140034D0096175746F3A2068656967687420697356
S2140034E02074616B656E2066726F6D204750530DB9
S2140034F00A00716E685F6D3D0909686569676874E2
S2140035003A2066697865642076616C756520696E18
S214003510206D65746572730D0A0072657365743D7F
S2140035200909313A207265626F6F7420414C4C0D68
S2140035300A0073687574090953687574646F776E4A
S2140035402074686973206465766963650D0A00787F
S2140035506F3D0909302D36353533353A20564354FC
S21400356043584F2070756C6C20766F6C746167657D
S2140035702C20002D313A20504C4C204F4E0D0A0086
S2140035800D0A000D0A3E20006164633D0061707202
S214003590733D00617072733D63616C6C3D006170D9
S2140035A072733D737369643D00617072733D757329
S2140035B065723D00617072733D7077643D004154E2
S2140035C000412F00626961733D00626C3D006361DB
S2140035D06C3D616363656C780063616C3D61636339
S2140035E0656C790063616C3D616363656C7A00634A
S2140035F0616C3D64656661756C74730063616C3DF7
S2140036006779726F006461633D006464733D0065B2
S214003610623D00656E765F743D0067736D3D0067C2
S214003620736D3D617072733D0067736D3D70696EBA
S2140036303D0068656C7000696E666F3D006B623DAC
S2140036400070743D00716E683D6175746F00716E38
S214003650685F6D3D0072657365743D0073687574D0
S21400366000786F3D000D0A3F3F3F20756E6B6E6F12
S214003670776E20636F6D6D616E64202D20666F72AD
S21400368020617373697374616E636520656E74651B
S21400369072202068656C700D0A002530326C64005C
S2140036A02530336C640025346C640025342E316676
S2140036B00025352E31660025352E3366002530353B
S2140036C06C64002530352E3266002530372E326683
S2140036D0006B6D68000D0A5457492D6F6E626F615E
S2140036E072643A20487967726F2053485433312DFC
S2140036F0444953202D204932432061646472657327
S214003700733A203078253032580D0A005457492D28
S2140037106F6E626F6172643A20487967726F2053E9
S214003720485433312D444953202D202020616464B1
S21400373072657373204E41434B202F2027627265BB
S214003740616B272062616420726573706F6E7365AB
S2140037500D0A005457492D6F6E626F6172643A20ED
S214003760487967726F2053485433312D44495320AB
S2140037702D2020207374617475733A2030782530BC
S21400378032580D0A005457492D6F6E626F6172648D
S2140037903A2020494E495420737563636573732E2F
S2140037A00D0A005457492D6F6E626F6172643A209D
S2140037B0202E2E2E20646576696365206E6F742039
S2140037C06F6E20626F6172642E202873633D2564DD
S2140037D0290D0A00496E69743A20487967726F208D
S2140037E073756363657373000D0A5457492D6F6EC6
S2140037F0626F6172643A204779726F204D50552D82
S21400380039323530202D2049324320616464726598
S21400381073733A203078253032582C203078253093
S21400382032580D0A005457492D6F6E626F617264EC
S2140038303A204779726F204D50552D393235302059
S21400384020202D20202027726573657420312720C4
S21400385062616420726573706F6E73650D0A005442
S21400386057492D6F6E626F6172643A204779726FA6
S214003870204D50552D39323530202D202020202047
S21400388076657273696F6E3A203078253032582C20
S214003890203078253032580D0A005457492D6F6E67
S2140038A0626F6172643A2020494E495420737563F2
S2140038B0636573732E0D0A005457492D6F6E626F41
S2140038C06172643A20202E2E2E2064657669636528
S2140038D0206E6F74206F6E20626F6172642E2028D7
S2140038E073633D2564290D0A00496E69743A2047C2
S2140038F079726F202073756363657373000D0A54C5
S21400390057492D6F6E626F6172643A204261726F22
S214003910204D53353630373032424130332D353036
S214003920202D2049324320616464726573733A2007
S2140039303078253032580D0A005457492D6F6E6284
S2140039406F6172643A202042414420726561646966
S2140039506E672073657269616C2F43524320776FE0
S21400396072642E202873633D2564290D0A0054577F
S214003970492D6F6E626F6172643A204261726F20E9
S2140039804D53353630373032424130332D353020C6
S2140039902D202020202073657269616C233A202533
S2140039A0640D0A005457492D6F6E626F6172643A57
S2140039B020204241442072656164696E672050523F
S2140039C04F4D20616464726573732025642E202831
S2140039D073633D2564290D0A005457492D6F6E62A6
S2140039E06F6172643A2020494E49542073756363B0
S2140039F06573732E0D0A005457492D6F6E626F6102
S214003A0072643A20202E2E2E206465766963652027
S214003A106E6F74206F6E20626F6172642E20287342
S214003A20633D2564290D0A00496E69743A20426197
S214003A30726F202073756363657373002D2D2D2DB3
S214003A402D2D2D2D2D2D2D0D0A0D0A0046696E6487
S214003A504D6553415400627920444634494148003C
S214003A60202020202D20202D20202020203A20201D
S214003A703A202020555443006D502054656D702028
S214003A803D0055757362203D0055626174203D000F
S214003A905576637463786F203D00456E7654656D89
S214003AA070203D00456E7652656C48203D004450BF
S214003AB05F54656D70203D00514E4820685061206F
S214003AC03D00430056002500477800477900477AB6
S214003AD0004D61676E657469637300416363656C6E
S214003AE02E00504F5354202F20485454502F312E20
S214003AF0310D0A00436F6E74656E742D4C656E67EB
S214003B0074683A2025640D0A00436F6E74656E74FF
S214003B102D547970653A206170706C6963617469C0
S214003B206F6E2F6F637465742D73747265616D0D9F
S214003B300A004163636570742D547970653A207489
S214003B406578742F706C61696E0D0A0D0A007573C6
S214003B506572202573207061737320257320766547
S214003B6072732025732025730D0A00257325733E76
S214003B70415052532C54435049502A3A0021253084
S214003B80326425352E326625632563253033642559
S214003B90352E326625632563253033642F25303372
S214003BA06400256347783D252B30362E3166642029
S214003BB047793D252B30362E31666420477A3D25E1
S214003BC02B30362E31666400256341783D252B3632
S214003BD02E3366672041793D252B362E33666720C7
S214003BE0417A3D252B362E3366670025634D783D9A
S214003BF0252B362E31667554204D793D252B362ED5
S214003C0031667554204D7A3D252B362E3166755417
S214003C100025632F413D2530366C642044503D25F9
S214003C202B352E32664320514E483D25372E3266C0
S214003C306850610044454255475F4D41494E5F31EB
S214003C405050533A20646966663D252B3034642C08
S214003C50206C6173745F61646A7573743D25642CAF
S214003C6020696E5370616E3D25642C2000646F558C
S214003C7070646174653D25642C206F75744F6653BF
S214003C80796E633D25640D0A000011241FBECFEF38
S214003C90CDBFDFE5DEBF00E00CBF12E2A0E0B0E281
S214003CA0E6E9F0E702E00BBF02C007900D92AC3ADF
S214003CB0B107D9F721E3ACEAB2E201C01D92AF3EEC
S214003CC0B207E1F70F94D60E0D9427380C94000037
S214003CD0CF93DF9300D0CDB7DEB789839A836B830B
S214003CE089819A816B811AD32396CDBFDEBFDF917F
S214003CF0CF910895CF93DF9300D000D0CDB7DEB735
S214003D0089839A836B837C834D835E8312C08B8109
S214003D109C81FC01208189819A81622FD9DF8D8167
S214003D209E8101978D839E838B819C8101968B83D8
S214003D309C838D819E81892B51F780E02696CDBF8E
S214003D40DEBFDF91CF910895CF93DF931F921F922E
S214003D50CDB7DEB789839A8389819A81FC018481F5
S214003D60282F206189819A81FC01248300000F900E
S214003D700F90DF91CF910895CF93DF93CDB7DEB745
S214003D802597CDBFDEBF89839A836B834C832D83B3
S214003D909B818C81892B982F8D81882311F088E058
S214003DA001C080E0892B282F89819A81FC01258318
S214003DB000002596CDBFDEBFDF91CF910895CF934B
S214003DC0DF931F921F92CDB7DEB789839A838981CE
S214003DD09A81FC018481282F286089819A81FC01C0
S214003DE0248300000F900F90DF91CF910895CF931A
S214003DF0DF9300D0CDB7DEB789839A836B83898142
S214003E009A81FC018581982F9F738B81892B282F9F
S214003E1089819A81FC01258300002396CDBFDEBFF1
S214003E20DF91CF910895CF93DF931F921F92CDB766
S214003E30DEB789839A8389819A81FC018181882FE4
S214003E4090E08072992721E0892B09F420E0822FE8
S214003E500F900F90DF91CF910895CF93DF931F922D
S214003E601F92CDB7DEB789839A8389819A81FC0138
S214003E708181882F90E08078992721E0892B09F4AA
S214003E8020E0822F0F900F90DF91CF910895CF936F
S214003E90DF931F92CDB7DEB789838981882F90E0A4
S214003EA08230910589F0833091051CF4019739F032
S214003EB01AC08430910569F0089781F014C080E834
S214003EC094E8AEE1B0E012C080E09CE6ACEDB2E073
S214003ED00DC080E090E8A0E0B0E008C080E09DE281
S214003EE0A1E3B1E003C080E090E0DC01BC01CD01BD
S214003EF00F90DF91CF910895CF93DF93CDB7DEB7C4
S214003F002997CDBFDEBF8D836E837F834887598711
S214003F108D81882F90E08038910579F0803C91055E
S214003F20A9F0892B09F01BC080E894E8AEE1B0E068
S214003F3089839A83AB83BC8312C080E09BE1A7EBA6
S214003F40B0E089839A83AB83BC8309C088E09FDF97
S214003F50DC01CB0189839A83AB83BC8300008E810E
S214003F609F81CC01A0E0B0E029813A814B815C8141
S214003F70BC01CD010F94272FDC01CB0189839A83E6
S214003F80AB83BC8389819A81AB81BC81BC01CD01A6
S214003F902996CDBFDEBFDF91CF910895CF93DF93F3
S214003FA0CDB7DEB741E050E063E070E080ECA4DF20
S214003FB0DC01CB01BC01CD01DF91CF910895CF93F9
S214003FC0DF931F92CDB7DEB71982E8DFDC01CB01A5
S214003FD02981222F30E004C0B695A795979587953E
S214003FE02A95D2F7BC01CD010F90DF91CF910895AD
S214003FF0CF93DF93CDB7DEB7E2DFDC01CB01BC01A8
S214004000CD01DF91CF910895CF93DF93CDB7DEB783
S214004010EFDFDC01CB01B695A79597958795BC0198
S214004020CD01DF91CF910895CF93DF931F921F921A
S214004030CDB7DEB789839A8389819A81892B09F463
S21400404021C189819A81803C910529F460E180E054
S2140040500F94561217C189819A818038914029F4AD
S21400406062E080E00F9456120DC189819A81811515
S214004070914029F461E080E00F94561203C18981D3
S2140040809A818038934029F461E081E00F945612BB
S214004090F9C089819A818039934029F461E082E0F1
S2140040A00F945612EFC089819A818115924029F4A7
S2140040B062E081E00F945612E5C089819A818034CF
S2140040C0924029F462E082E00F945612DBC08981A8
S2140040D09A818032934029F464E082E00F9456126D
S2140040E0D1C089819A818115984029F461E083E0E6
S2140040F00F945612C7C089819A818115994029F478
S21400410061E084E00F945612BDC089819A818115C2
S2140041109A4029F461E085E00F945612B3C0898175
S2140041209A8181159B4029F461E086E00F9456122F
S214004130A9C089819A818034984029F462E083E09E
S2140041400F9456129FC089819A818034994029F431
S21400415062E084E00F94561295C089819A8180347B
S2140041609A4029F462E085E00F9456128BC089814C
S2140041709A818039984029F464E083E00F945612BF
S21400418081C089819A818039994029F464E084E06D
S2140041900F94561277C089819A8180399A4029F403
S2140041A064E085E00F9456126DC089819A8180394B
S2140041B09B4029F464E086E00F94561263C0898120
S2140041C09A81803C984029F468E083E00F94561268
S2140041D059C089819A81803C994029F468E084E03E
S2140041E00F9456124FC089819A81803A984029F4DC
S2140041F060E183E00F94561245C089819A81803A27
S214004200994029F460E184E00F9456123BC08981FE
S2140042109A81803A9A4029F460E185E00F9456121C
S21400422031C089819A81803A9B4029F460E186E01A
S2140042300F94561227C089819A81803B984029F4B2
S21400424060E283E00F9456121DC089819A81803BFC
S214004250994029F460E284E00F94561213C08981D5
S2140042609A818038944029F460E483E00F945612D3
S21400427009C089819A81803A944021F460E485E0FF
S2140042800F94561200000F900F90DF91CF91089573
S2140042900F931F93CF93DF93CDB7DEB72597CDBF90
S2140042A0DEBF8A839B836C837D838A819B81BCDE91
S2140042B08A819B8160E09BDD8C819D81FC0126814B
S2140042C08C819D81FC0145818C819D81FC0134811E
S2140042D08A819B81632F50DD97DE9B01AC018C8128
S2140042E09D81FC0180819181A281B381EA81FB815D
S2140042F089019A01AC01BD01CF0148D089838A812A
S2140043009B815DDD8A819B811FDD89812596CDBFDE
S214004310DEBFDF91CF911F910F910895CF93DF936A
S21400432000D0CDB7DEB789839A836B83000089817E
S2140043309A8179DD982F81E089278823C1F78981C2
S2140043409A812B81FC01208380E090E02396CDBFEC
S214004350DEBFDF91CF910895CF93DF931F921F9218
S214004360CDB7DEB789839A83000089819A8175DD8F
S214004370982F81E089278823C1F789819A81FC01DB
S21400438080810F900F90DF91CF910895EF92FF926A
S2140043900F931F93CF93DF93CDB7DEB76F97CDBF45
S2140043A0DEBF8E8B9F8B488F598F6A8F7B8F0C8FCB
S2140043B01D8F2E8F3F8F8C8D9D8DAE8DBF8D6894FB
S2140043C012F8B695A795979587951694D1F78E8788
S2140043D09F87A88BB98B8C8D9D8DAE8DBF8D072E3C
S2140043E076E1B695A795979587957A95D1F7702D2E
S2140043F08A879B87AC87BD878E899F89FC018481CD
S214004400882F90E084709927892BC1F48E859F852C
S214004410A889B989B695A795979587958E879F871A
S214004420A88BB98B8A859B85AC85BD85B695A795E7
S214004430979587958A879B87AC87BD87288D398D0A
S2140044404A8D5B8D8E859F85A889B98982179307CB
S214004450A407B50768F0288D398D4A8D5B8D8A854F
S2140044609B85AC85BD85281739074A075B0710F47E
S21400447080E040C18E899F89FC018481882F90E06E
S21400448084709927892B61F4888D998DAA8DBB8DB0
S214004490880F991FAA1FBB1F888F998FAA8FBB8F63
S2140044A08FEF90E0A0E0B0E08E839F83A887B98767
S2140044B08C8D9D8DAE8DBF8D288D398D4A8D5B8DF3
S2140044C0BC01CD010F945D2FDA01C9018A8B9B8B4D
S2140044D0AC8BBD8B89EF898328C02A893B894C89A0
S2140044E05D898E819F81A885B985281739074A0777
S2140044F05B07F8F08E819F81A885B985880F991F84
S214004500AA1FBB1F8E839F83A887B98789818D3F8B
S2140045104CF48E819F81A885B98581608E839F83A8
S214004520A887B98789818F5F898389818730ACF2B4
S21400453001C00000898188230CF08AC0888D998D7F
S214004540AA8DBB8D880F991FAA1FBB1F880F991FA6
S214004550AA1FBB1F880F991FAA1FBB1F9C01AD0176
S2140045608C8D9D8DAE8DBF8D821B930BA40BB50BD2
S2140045708C8F9D8FAE8FBF8F89818E3F94F58981FA
S214004580082E000C990B2DEF3FEF281B390B8C8D56
S2140045909D8DAE8DBF8D7C018D0104C0EE0CFF1C81
S2140045A0001F111F2A95D2F7A8019701888D998DB3
S2140045B0AA8DBB8DB695A79597958795820F931F65
S2140045C0A41FB51F288D398D4A8D5B8DBC01CD018A
S2140045D00F945D2FDA01C9018A839B83AC83BD8368
S2140045E070C08981082E000C990B9C012D5F3F4FEF
S2140045F0888D998DAA8DBB8D04C0880F991FAA1F20
S214004600BB1F2A95D2F7888F998FAA8FBB8F888D6C
S214004610998DAA8DBB8D9C01AD0156954795379512
S21400462027958C8D9D8DAE8DBF8D820F931FA41FF9
S214004630B51F288D398D4A8D5B8DBC01CD010F9439
S2140046405D2FDA01C9018A839B83AC83BD8339C0A1
S2140046508981082E000C990B9C012D5F3F4F888D99
S214004660998DAA8DBB8D04C0880F991FAA1FBB1FEA
S2140046702A95D2F7888F998FAA8FBB8F888D998DB0
S214004680AA8DBB8D9C01AD0156954795379527950C
S2140046908C8D9D8DAE8DBF8D820F931FA41FB51F71
S2140046A0288D398D4A8D5B8DBC01CD010F945D2F11
S2140046B0DA01C9010197A109B1098A839B83AC83FA
S2140046C0BD838A819B81AC81BD81892F9A2FAB2FB8
S2140046D0BB27982F9F7089818295807F292F282B52
S2140046E08E899F89FC0127832A818E899F89FC01F8
S2140046F0268381E06F96CDBFDEBFDF91CF911F91FD
S2140047000F91FF90EF900895CF93DF931F92CDB750
S214004710DEB78FE390E0FC0180818983F89489817D
S2140047200F90DF91CF910895CF93DF931F92CDB76F
S214004730DEB789838FE390E02981FC0120830000A7
S2140047400F90DF91CF910895CF93DF931F92CDB74F
S214004750DEB789838981882F90E08230910589F0C1
S214004760833091051CF4019739F01AC08430910506
S21400477069F0089781F014C080E894E8AEE1B0E0F4
S21400478012C080E09CE6ACEDB2E00DC080E090E8A0
S214004790A0E0B0E008C080E09DE2A1E3B1E003C085
S2140047A080E090E0DC01BC01CD010F90DF91CF915D
S2140047B00895CF93DF93CDB7DEB72997CDBFDEBF81
S2140047C08D836E837F83488759878D81882F90E0FD
S2140047D08038910579F0803C9105A9F0892B09F085
S2140047E01BC080E894E8AEE1B0E089839A83AB838F
S2140047F0BC8312C080E09BE1A7EBB0E089839A837C
S214004800AB83BC8309C088E09FDFDC01CB018983D2
S2140048109A83AB83BC8300008E819F81CC01A0E08D
S214004820B0E029813A814B815C81BC01CD010F94B7
S214004830272FDC01CB0189839A83AB83BC838981D4
S2140048409A81AB81BC81BC01CD012996CDBFDEBF6C
S214004850DF91CF910895CF93DF93CDB7DEB741E0D8
S21400486050E063E070E080ECA4DFDC01CB01BC012B
S214004870CD01DF91CF910895CF93DF931F92CDB7EF
S214004880DEB71982E8DFDC01CB012981222F30E078
S21400489004C0B695A795979587952A95D2F7BC013B
S2140048A0CD010F90DF91CF910895CF93DF93CDB7D1
S2140048B0DEB7E2DFDC01CB01BC01CD01DF91CF9199
S2140048C00895CF93DF93CDB7DEB7EFDFDC01CB01E2
S2140048D0B695A79597958795BC01CD01DF91CF91A9
S2140048E00895CF93DF93CDB7DEB7EBDFDC01CB01C6
S2140048F0BC01CD01DF91CF91089504C061507109CC
S214004900810991096115710581059105B9F7089529
S214004910CF93DF93CDB7DEB72D97CDBFDEBF8C87A5
S2140049206D878C8589838D858A8389818B838B812E
S2140049308C838C818695869586958D838D81882F30
S21400494090E0880F991F82959295907F9827807F98
S21400495098279A5F8E839F838E819F819C01205F1C
S2140049603F4F8981888788858770882F90E0820FDF
S214004970931F89879A87C8DE8B8789859A85FC016D
S2140049808081282F277089859A85FC012083898558
S2140049909A85FC0190818A81292F282B89859A8502
S2140049A0FC0120838B85C0DE00002D96CDBFDEBFC8
S2140049B0DF91CF910895CF93DF93CDB7DEB72B97D6
S2140049C0CDBFDEBF8A876B878A8589838B858A837E
S2140049D089818B838B818C838C8186958695869541
S2140049E08D838D81882F90E0880F991F82959295F0
S2140049F0907F9827807F98279A5F8E839F838A81EF
S214004A008130A9F4898188878885882F90E09C0169
S214004A102770332781E090E002C0880F991F2A95FF
S214004A20E2F7282F8E819F81FC01218317C08A819F
S214004A308823A1F4898189878985882F90E09C0145
S214004A402770332781E090E002C0880F991F2A95CF
S214004A50E2F7282F8E819F81FC01228300002B968F
S214004A60CDBFDEBFDF91CF910895CF93DF93CDB753
S214004A70DEB72B97CDBFDEBF8A876B878A85898393
S214004A808B858A8389818B838B818C838C818695A9
S214004A90869586958D838D81882F90E0880F991F47
S214004AA082959295907F9827807F98279A5F8E832D
S214004AB09F838A818823A9F0898188878885882FA3
S214004AC090E09C012770332781E090E002C0880FB9
S214004AD0991F2A95E2F7282F8E819F81FC01258356
S214004AE014C0898189878985882F90E09C0127706A
S214004AF0332781E090E002C0880F991F2A95E2F7DD
S214004B00282F8E819F81FC01268300002B96CDBF27
S214004B10DEBFDF91CF910895CF93DF93CDB7DEB799
S214004B202B97CDBFDEBF888799876A877B878A8564
S214004B309B85FC0184818D838A859B85FC0185810C
S214004B408E838A859B85FC0186818F838A859B85DB
S214004B50FC0180819181A281B38189839A83AB8392
S214004B60BC8388859985803A984021F460E183E08B
S214004B700F94561288859985803B984021F460E210
S214004B8083E00F94561288859985803A994021F4DF
S214004B9060E184E00F94561288859985803B9940A1
S214004BA021F460E284E00F94561288859985803A55
S214004BB09A4021F460E185E00F9456128885998525
S214004BC0803A9B4021F460E186E00F945612888577
S214004BD099859E012F5F3F4FB9015ADB882311F05C
S214004BE081E001C080E02B96CDBFDEBFDF91CF9184
S214004BF008951F920F9200903F000F92112400908C
S214004C003B000F922F933F934F935F936F937F9347
S214004C108F939F93AF93BF93EF93FF93CF93DF93BF
S214004C201F92CDB7DEB780EA9BE096DB8983809142
S214004C307426909175268F3F9140C0F4809174261B
S214004C40909175269C012F5F3F4F209374263093DA
S214004C50752629818A58994DFC01208380917426F7
S214004C60909175268A58994DFC0110828091742681
S214004C7090917526813F914018F061E08FE2F5DE55
S214004C8081E08093722600000F90DF91CF91FF9114
S214004C90EF91BF91AF919F918F917F916F915F91AF
S214004CA04F913F912F910F9000923B000F900092F2
S214004CB03F000F901F901895CF93DF93CDB7DEB7C8
S214004CC0C558D109CDBFDEBF9E012D573F4FF90114
S214004CD080839183CE018B579F4FFC016083CE016A
S214004CE08B579F4FFC0180818983CE018B579F4F46
S214004CF0FC01808181508A831DC08A81882F90E0C4
S214004D002A81222F30E0AE014D575F4FFA014081D5
S214004D105181240F351FF90140819E012D5F3F4FC1
S214004D20820F931FFC0140838981815089838A8189
S214004D3081508A838981882301F7CE018B579F4F44
S214004D40FC018081882F90E09E012D5F3F4F820FEF
S214004D50931F2DE0FC012083CE018B579F4FFC0153
S214004D608081882F90E001969E012D5F3F4F820F35
S214004D70931FFC01108210927326CE018B579F4F13
S214004D80FC018081282F30E0CE010396A901BC01EA
S214004D9080EA9BE00E947A1E0000CB57DF4FCDBF13
S214004DA0DEBFDF91CF910895CF93DF9300D000D080
S214004DB0CDB7DEB78B839C836D834E8382E0898379
S214004DC033C08E81882329F08B819C816D8174DFAE
S214004DD00DC0109273268D81282F30E08B819C8128
S214004DE0A901BC0180EA9BE00E947A1E88E28A83C1
S214004DF015C082E390E00E94BBF30E9426F7DC0118
S214004E00CB01BC01CD010E949D3C80917326882376
S214004E1011F081E00DC08A8181508A838A818823BF
S214004E2041F78981815089838981882351F680E002
S214004E302696CDBFDEBFDF91CF910895CF93DF9347
S214004E4000D0CDB7DEB78B838B81882F90E0292FDB
S214004E502F938F938CEB95E0892F8F938CEB95E0B7
S214004E608F931F9280E88F9380E39BE2892F8F9326
S214004E7080E39BE28F930F94D4342DB73EB7285F20
S214004E803F4FCDBFDEBF89839A8389819A81892B64
S214004E9031F0898140E0682F80E39BE285DF0000E7
S214004EA02396CDBFDEBFDF91CF910895CF93DF93DA
S214004EB000D01F92CDB7DEB78B839C838C818F93F7
S214004EC08B818F9389EC95E0892F8F9389EC95E001
S214004ED08F931F9280E88F9380E39BE2892F8F93B6
S214004EE080E39BE28F930F94D4342DB73EB7285FB0
S214004EF03F4FCDBFDEBF89839A8389819A81892BF4
S214004F0031F0898140E0682F80E39BE24DDF0000AE
S214004F102496CDBFDEBFDF91CF910895CF93DF9368
S214004F201F92CDB7DEB789838981882351F080919F
S214004F307628882381F081E081DF89E798E2B6DF72
S214004F400AC01092782880917728882311F080E094
S214004F5093D280E073DF00000F90DF91CF91089529
S214004F60CF93DF931F921F92CDB7DEB7909176282E
S214004F7081E08927882331F49091772881E089277A
S214004F80882319F01092782882C081E080937126D9
S214004F908BEC94E0892F8F938BEC94E08F931F9289
S214004FA080E88F9380E39BE2892F8F9380E39BE2D8
S214004FB08F930F94D4340F900F900F900F900F9004
S214004FC00F9089839A8340E35BE264E688E00E9460
S214004FD0958B8FE995E0892F8F938FE995E08F93D6
S214004FE01F9280E88F9380E39BE2892F8F9380E364
S214004FF09BE28F930F94D4340F900F900F900F90E6
S2140050000F900F9089839A83898140E0682F80E310
S2140050109BE20E94E53D80E2EEE2F1E2A0E3BBE225
S21400502001900D928A95E1F78FE190E089839A834B
S214005030898140E0682F80E39BE20E94E53D84E59D
S21400504096E0892F8F9384E596E08F931F9280E8F1
S2140050508F9380E39BE2892F8F9380E39BE28F936D
S2140050600F94D4340F900F900F900F900F900F90D6
S21400507089839A8389819A81AC0160E37BE280EA26
S2140050809BE00E947A1E84EF91E00E94BBF30F9093
S2140050900F90DF91CF910895CF93DF9300D0CDB7D7
S2140050A0DEB78B839091762881E08927882309F0E4
S2140050B0B5C09091772881E08927882309F0AEC093
S2140050C08091AC22882309F0A9C08091AD22882364
S2140050D009F0A4C080917126813009F09FC081E05C
S2140050E08093AD228B81882309F459C08B8183304D
S2140050F008F055C081E08093AC2280E2EEE4F1E255
S214005100A0E3BBE201900D928A95E1F78FE190E073
S21400511089839A83898140E0682F80E39BE20E941E
S214005120E53D82E08093712681E2EEE6F1E2A0E3BF
S214005130BBE201900D928A95E1F780E290E08983C8
S2140051409A83898140E0682F80E39BE20E94E53DD8
S2140051508FE596E0892F8F938FE596E08F931F92C9
S21400516080E88F9380E39BE2892F8F9380E39BE216
S2140051708F930F94D4340F900F900F900F900F9042
S2140051800F9089839A831092AD2289819A81AC010F
S21400519060E37BE280EA9BE00E947A1E40C084ECDB
S2140051A099E00E94BBF389E2EFE8F1E2A0E3BBE2FC
S2140051B001900D928A95E1F788E290E089839A83C0
S2140051C0898140E0682F80E39BE20E94E53D84E50C
S2140051D096E0892F8F9384E596E08F931F9280E860
S2140051E08F9380E39BE2892F8F9380E39BE28F93DC
S2140051F00F94D4340F900F900F900F900F900F9045
S21400520089839A831092AD2289819A81AC0160E3EA
S2140052107BE280EA9BE00E947A1E01C00000239693
S214005220CDBFDEBFDF91CF910895CF93DF9300D03F
S214005230CDB7DEB78B839091762881E089278823C7
S21400524009F013C19091772881E08927882309F017
S2140052500CC18091AE22882309F007C18091AF224D
S214005260882309F002C180917126823009F0FDC0C2
S21400527081E08093AF228B81882309F4B7C081E058
S2140052808093AE2281E2E8EBF1E2A0E3BBE201907C
S2140052900D928A95E1F780E290E089839A8389816E
S2140052A040E0682F80E39BE20E94E53D8FE1E9ED58
S2140052B0F1E2A0E3BBE201900D928A95E1F78EE160
S2140052C090E089839A83898140E0682F80E39BE29F
S2140052D00E94E53D8DE491E2892F8F938DE491E263
S2140052E08F938DE491E2892F8F938DE491E28F93D3
S2140052F088EF91E2892F8F9388EF91E28F938BE668
S21400530096E0892F8F938BE696E08F931F9280E826
S2140053108F9380E39BE2892F8F9380E39BE28F93AA
S2140053200F94D4342DB73EB7245F3F4FCDBFDEBFBA
S21400533089839A83898140E0682F80E39BE234DD8D
S21400534084EF91E00E94BBF384E896E0892F8F9368
S21400535084E896E08F931F9280E88F9380E39BE229
S214005360892F8F9380E39BE28F930F94D4340F9012
S2140053700F900F900F900F900F9089839A838981DA
S21400538040E0682F80E39BE20FDD8CED95E00E9405
S214005390BBF38FE896E0892F8F938FE896E08F9384
S2140053A01F9280E88F9380E39BE2892F8F9380E3A0
S2140053B09BE28F930F94D4340F900F900F900F9022
S2140053C00F900F9089839A83898140E0682F80E34D
S2140053D09BE2EADC109271261092AF228CED95E0EB
S2140053E00E94BBF381E08093782840C084EC99E06B
S2140053F00E94BBF38AE2E8E0F2E2A0E3BBE201909F
S2140054000D928A95E1F789E290E089839A838981F3
S21400541040E0682F80E39BE20E94E53D8FE596E042
S214005420892F8F938FE596E08F931F9280E88F9356
S21400543080E39BE2892F8F9380E39BE28F930F9408
S214005440D4340F900F900F900F900F900F90898389
S2140054509A831092AF2289819A81AC0160E37BE245
S21400546080EA9BE00E947A1E01C000002396CDBF12
S214005470DEBFDF91CF910895CF93DF93CDB7DEB730
S214005480C358D109CDBFDEBF9E012D573F4FF9014E
S21400549080839091762881E08927882331F4909143
S2140054A0772881E08927882319F01092782800C190
S2140054B080917126882309F0FBC0CE018D579F4F3F
S2140054C0FC018081882309F481C09091B02281E09C
S2140054D08927882309F47AC0CE01039628E2E2E3FE
S2140054E0F2E2DC0101900D922A95E1F787E290E066
S2140054F089839A832981CE01039640E0622F0E9419
S214005500E53D80E99FE1292F2F938F938AE191E271
S214005510892F8F938AE191E28F9386E191E2892F1A
S2140055208F9386E191E28F938AE996E0892F8F9395
S2140055308AE996E08F931F9280E88F93CE010396B8
S214005540292F2F938F930F94D4342DB73EB7245F13
S2140055503F4FCDBFDEBF89839A8329813A81CE0132
S2140055600396A901BC0180EA9BE00E947A1E8EEB9E
S2140055709AE00E94BBF387EB96E0892F8F9387EB28
S21400558096E08F931F9280E88F93CE010396292F83
S2140055902F938F930F94D4340F900F900F900F90FB
S2140055A00F900F9089839A8329813A81CE010396C2
S2140055B0A901BC0180EA9BE00E947A1E8AEF90E077
S2140055C00E94BBF381E08093B02272C0CE018D575B
S2140055D09F4FFC01908181E08927882309F468C0E9
S2140055E08091B022882309F463C01092782884EC56
S2140055F096E0892F8F9384EC96E08F931F9280E835
S2140056008F93CE010396292F2F938F930F94D43424
S2140056100F900F900F900F900F900F9089839A83A2
S21400562029813A81CE010396A901BC0180EA9BE05C
S2140056300E947A1E84EF91E00E94BBF3CE0103968F
S21400564028E2EAE5F2E2DC0101900D922A95E1F704
S21400565087E290E089839A832981CE01039640E011
S214005660622F0E94E53D88EC96E0892F8F9388ECA8
S21400567096E08F931F9280E88F93CE010396292F92
S2140056802F938F930F94D4340F900F900F900F900A
S2140056900F900F9089839A8329813A81CE010396D1
S2140056A0A901BC0180EA9BE00E947A1E1092B022FB
S2140056B0CD57DF4FCDBFDEBFDF91CF910895CF939B
S2140056C0DF9300D01F92CDB7DEB710927828809176
S2140056D07628882309F44BC080917728882309F41C
S2140056E046C080E0C9DE1F921F9286ED96E0892FA5
S2140056F08F9386ED96E08F931F9280E88F9380E3DA
S2140057009BE2892F8F9380E39BE28F930F94D43490
S2140057102DB73EB7285F3F4FCDBFDEBF89839A8344
S214005720898140E0682F80E39BE23EDB88EE96E0CE
S214005730892F8F9388EE96E08F931F9280E88F9341
S21400574080E39BE2892F8F9380E39BE28F930F94F5
S214005750D4340F900F900F900F900F900F90898376
S2140057609A83898140E0682F80E39BE21DDB1F92CD
S21400577081E08F938BED95E0892F8F938BED95E0ED
S2140057808F931F9280E88F9380E39BE2892F8F93FD
S21400579080E39BE28F930F94D4342DB73EB7285FF7
S2140057A03F4FCDBFDEBF8B839C838B8140E0682F4D
S2140057B080E39BE2F9DA00002496CDBFDEBFDF91DE
S2140057C0CF910895CF93DF93CDB7DEB761E089E23E
S2140057D04CD961E08BE249D961E08FE246D960E0BE
S2140057E085E243D960E084E240D960E089E13DD9B2
S2140057F060E08BE13AD960E889E28AD860E88BE21B
S21400580087D860E88FE284D860E985E281D860E9CD
S21400581084E27ED860E989E17BD860E98BE178D8BC
S21400582061E089E2C8D861E08BE2C5D860E08AE230
S214005830C2D861E08FE2BFD860E08EE2BCD860E0FC
S2140058408CE2B9D860E088E2B6D861E085E2B3D8E9
S21400585061E084E2B0D860E083E2ADD860E087E043
S214005860AAD860E086E0A7D861E089E1A4D861E024
S2140058708BE1A1D860E08AE19ED860E088E19BD801
S21400588060E088E798D880E895E2A0E0B0E08093F2
S2140058906A2690936B26A0936C26B0936D2683E0C1
S2140058A080936E2610926F26109270260000DF916D
S2140058B0CF9108952F923F924F925F926F927F9270
S2140058C08F929F92AF92BF92CF92DF92EF92FF920B
