:100000000BC100002AC1000028C1000026C1000069
:1000100024C1000022C1000020C100001EC1000058
:100020001CC100001AC1000018C100007AC1000004
:1000300014C100000C94E40D5DC6000088C60000E9
:10004000B3C60000DEC6000009C7000034C70000C8
:100050005FC700008AC70000B5C70000E0C7000006
:10006000FCC00000FAC00000F8C00000F6C00000AC
:10007000F4C00000F2C00000F0C00000EEC00000BC
:10008000ECC00000EAC00000E8C00000E6C00000CC
:10009000E4C00000E2C00000E0C0000080C3000037
:1000A000B0C30000E0C3000010C40000D6C00000D0
:1000B000D4C00000D2C000000C940B0E0C94FE09BA
:1000C0000C942B0A0C94580A0C94850A0C94B20ACE
:1000D0000C94DF0A0C940C0B0C94390B0C94660BEB
:1000E0000C94930BBAC00000B8C00000B6C000006A
:1000F000B4C00000B2C00000B0C00000AEC000003C
:10010000ACC00000AAC00000A8C00000A6C000004B
:10011000A4C00000A2C00000A0C0000078C200007F
:10012000A8C20000D8C2000008C3000096C00000AA
:1001300094C00000A1C70000CCC70000F7C70000B2
:100140000C94C3080C94F0080C941D090C944A09F3
:100150000C9477090C94A4090C94D1097EC000007A
:100160007CC000007AC0000078C0000076C00000AB
:1001700074C0000072C0000070C000006EC00000BB
:100180006CC000006AC0000068C0000066C00000CB
:1001900064C0000062C0000060C000005EC00000DB
:1001A0005CC000005AC0000058C0000056C00000EB
:1001B0000C94C00B0C94ED0B0C941A0C0C94470C83
:1001C0000C94740C0C94A10C48C0000046C00000B4
:1001D00044C0000042C0000040C000003EC000001B
:1001E0003CC000003AC0000038C0000036C000002B
:1001F00034C000000C94C8140C948215A90FAC0FE5
:10020000AF0FB20FB50FB80FBB0FFA160D172017AF
:100210003317461759176C1711241FBECFEFCDBFE8
:10022000DFE5DEBF00E00CBF11E2A0E0B0E2E8E7EE
:10023000F0E500E00BBF02C007900D92A83AB107AD
:10024000D9F724E2A8EAB1E201C01D92AF39B207A2
:10025000E1F70E9412180C943A28D2CE04C06150E3
:100260007109810991096115710581059105B9F738
:10027000089580E180932104E0E2F4E0818184FD2F
:10028000FDCF609124047091250480912604909103
:100290002704089580937324909374240895CF9332
:1002A000DF9364E080E00E94561BC0EFD0E08881BD
:1002B0008260888361E080EF90E00E9468238881FB
:1002C0008460888369EE73E080E090E0C7DF888116
:1002D00088618883E0EFF0E0818183FFFDCF109299
:1002E0002004E0E2F4E0818180FDFDCFE0E2F4E073
:1002F0008FEF9FEFDC0180879187A287B3871482FD
:10030000158216821782818180FDFDCFE0E2F4E044
:10031000128281E08083818180FDFDCFDF91CF91CA
:1003200008951F920F920FB60F9211240BB60F92E1
:100330002F933F934F935F936F937F938F939F93ED
:10034000AF93BF93CF93DF93EF93FF931092220469
:10035000C0917324D0917424209719F08ADFFE0194
:100360001995FF91EF91DF91CF91BF91AF919F913F
:100370008F917F916F915F914F913F912F910F904E
:100380000BBE0F900FBE0F901F90189504C06150C8
:100390007109810991096115710581059105B9F707
:1003A0000895E0E8F6E088E3808B818BE0E4F6E0F6
:1003B000808B818B08950F931F93CF93DF9386EEED
:1003C00090E20E942124E6E0F0E281E0818381E076
:1003D00090E0848395838087918741E0BF0180E826
:1003E00094E00E94470E80912F23809337238EEE56
:1003F00090E20E94212480913723813138F186EFE9
:1004000090E20E942124C6E0D0E282E0898380E16C
:1004100080932F2301E010E00887198740E0BE0198
:1004200080E894E00E94470E8EEF90E20E94212423
:1004300081E089830887198741E0BE0180E894E064
:100440000E94470E86E091E20E942124DF91CF9125
:100450001F910F91089560E485E00E94561B6AE1A8
:1004600070E280EA94E00E94320EE0EAF4E08181DA
:100470008860818360E483E00E94561B61E170E242
:1004800080E894E00E94320EE0E8F4E08181886028
:10049000818361EA75E286E290E078DF8CCF08958F
:1004A0000895EF92FF920F931F93CF93DF93809164
:1004B0003723813108F444C08EE091E20E94212468
:1004C000C6E0D0E284E189830FE213E281E0F80123
:1004D000808381E090E08887998740E0BE0180E8D2
:1004E00094E00E94470E86E191E20E94212480E27E
:1004F0008983F801808380E181836894EE24E1F8A8
:10050000F12CE886F98640E0BE0180E894E00E9484
:10051000470E8EE191E20E94212482E3898396E9CD
:10052000F80190838183E886F98640E0BE0180E887
:1005300094E00E94470E86E291E20E9421241FC0AF
:100540008031E9F48EE291E20E942124E6E0F0E2BB
:1005500084E88183AFE2B3E281E08C9380E8119676
:100560008C9382E090E08087918740E0BF0180E833
:1005700094E00E94470E86E391E20E942124DF91DD
:10058000CF911F910F91FF90EF90089508958115DD
:1005900022E0920769F48091A92191E0980F90934D
:1005A000A921811114C062E081E00C94561B0895CA
:1005B0008034924061F48091A82191E0980F90934B
:1005C000A821811104C062E082E00C94561B0895BA
:1005D000811522E0920761F48091A92181508093D6
:1005E000A921811113C062E081E00C946C1B089575
:1005F0008034924059F48091A82181508093A821A1
:10060000811104C062E082E00C946C1B08951F927B
:100610000F920FB60F9211240BB60F922F933F93A8
:100620004F935F936F937F938F939F93AF93BF93FA
:10063000EF93FF934091240250912502E09177249B
:10064000F091782461E080E092E01995FF91EF91BC
:10065000BF91AF919F918F917F916F915F914F91DA
:100660003F912F910F900BBE0F900FBE0F901F90D8
:1006700018951F920F920FB60F9211240BB60F927E
:100680002F933F934F935F936F937F938F939F939A
:10069000AF93BF93EF93FF9340912C0250912D02A3
:1006A000E0917724F091782462E080E092E019955F
:1006B000FF91EF91BF91AF919F918F917F916F913A
:1006C0005F914F913F912F910F900BBE0F900FBEF6
:1006D0000F901F9018951F920F920FB60F92112432
:1006E0000BB60F922F933F934F935F936F937F932C
:1006F0008F939F93AF93BF93EF93FF9340913402F7
:1007000050913502E0917724F091782464E080E004
:1007100092E01995FF91EF91BF91AF919F918F91C9
:100720007F916F915F914F913F912F910F900BBEF1
:100730000F900FBE0F901F9018951F920F920FB63B
:100740000F9211240BB60F922F933F934F935F9309
:100750006F937F938F939F93AF93BF93EF93FF9389
:1007600040913C0250913D02E0917724F091782431
:1007700068E080E092E01995FF91EF91BF91AF9111
:100780009F918F917F916F915F914F913F912F91A9
:100790000F900BBE0F900FBE0F901F9018951F92D9
:1007A0000F920FB60F9211240BB60F922F933F9317
:1007B0004F935F936F937F938F939F93AF93BF9369
:1007C000EF93FF934091640250916502E09175248C
:1007D000F091762461E080E492E01995FF91EF9129
:1007E000BF91AF919F918F917F916F915F914F9149
:1007F0003F912F910F900BBE0F900FBE0F901F9047
:1008000018951F920F920FB60F9211240BB60F92EC
:100810002F933F934F935F936F937F938F939F9308
:10082000AF93BF93EF93FF9340916C0250916D0291
:10083000E0917524F091762462E080E492E01995CD
:10084000FF91EF91BF91AF919F918F917F916F91A8
:100850005F914F913F912F910F900BBE0F900FBE64
:100860000F901F9018951F920F920FB60F921124A0
:100870000BB60F922F933F934F935F936F937F939A
:100880008F939F93AF93BF93EF93FF934091740225
:1008900050917502E0917524F091762464E080E433
:1008A00092E01995FF91EF91BF91AF919F918F9138
:1008B0007F916F915F914F913F912F910F900BBE60
:1008C0000F900FBE0F901F9018951F920F920FB6AA
:1008D0000F9211240BB60F922F933F934F935F9378
:1008E0006F937F938F939F93AF93BF93EF93FF93F8
:1008F00040917C0250917D02E0917524F091762424
:1009000068E080E492E01995FF91EF91BF91AF917B
:100910009F918F917F916F915F914F913F912F9117
:100920000F900BBE0F900FBE0F901F901895BF92A7
:10093000CF92DF92EF92FF920F931F93CF93DF93AB
:100940001F92CDB7DEB78C017B01811522E09207A3
:1009500081F461E270E082E00E945E23C82ED12C17
:1009600060E270E082E00E945E23DC2CCC24C82A86
:1009700012C080349240D1F565E270E082E00E94BE
:100980005E23C82ED12C64E270E082E00E945E23D8
:10099000DC2CCC24C82A8FB78983F894B980C8018D
:1009A000F6DDF801808192E09083C486D586F70158
:1009B00025813681F801208F318FF7019281F8016E
:1009C0009283F7019481F8019483F7019381F801F0
:1009D0009383F7019181F80191838170F7019081F0
:1009E000892BF8018083C801F3DDBFBE0F90DF9132
:1009F000CF911F910F91FF90EF90DF90CF90BF901C
:100A00000895DF92EF92FF920F931F93CF93DF939E
:100A10001F92CDB7DEB78C017B018FB78983F89425
:100A2000D980C801B4DDF8018081807CF701808322
:100A3000F801808D918DF70185839683F80182817D
:100A4000F7018283F8018481F7018483F8018381AF
:100A5000F7018383F8018181F7018183C801B8DD43
:100A6000DFBE0F90DF91CF911F910F91FF90EF901C
:100A7000DF900895AF92BF92CF92DF92EF92FF92F4
:100A80000F931F93CF93DF931F92CDB7DEB76C0107
:100A9000B62E7A01862F837029F4962F9695969517
:100AA00082E002C0962F80E090FF8F5F8601005E9B
:100AB0001F4F98E0899F000D111D11248FB7898366
:100AC000F894A980C60163DDF7018081F801808375
:100AD000F7018281F8018283F7018181F801818326
:100AE000B0FE04C0F7018381F8018683C60170DD82
:100AF000AFBE0F90DF91CF911F910F91FF90EF90BC
:100B0000DF90CF90BF90AF900895AF92BF92CF92F9
:100B1000DF92EF92FF920F931F93CF93DF931F9279
:100B2000CDB7DEB76C01B62E7A01862F837029F41B
:100B3000962F9695969582E002C0962F80E090FFC2
:100B40008F5F8601005E1F4F98E0899F000D111D89
:100B500011248FB78983F894A980C60118DDF801A4
:100B60008081F7018083F8018281F7018283F80197
:100B70008181F7018183B0FE04C0F8018681F7010D
:100B80008383C60125DDAFBE0F90DF91CF911F910A
:100B90000F91FF90EF90DF90CF90BF90AF900895AE
:100BA0008032934061F48091AA2191E0980F909354
:100BB000AA21811104C064E082E00C94561B0895C0
:100BC0008032934059F48091AA2181508093AA21C8
:100BD000811104C064E082E00C946C1B08959F9224
:100BE000AF92BF92CF92DF92EF92FF920F931F933B
:100BF000CF93DF931F92CDB7DEB7803223E0920709
:100C000009F03CC07B018C0163E370E082E00E944C
:100C10005E23982E62E370E082E00E945E23A82E9D
:100C200067E370E082E00E945E23B82E66E370E026
:100C300082E00E945E23C82E8FB78983F894D98002
:100C4000C801AEDFF80180811082F7019181F801BF
:100C50009183F7019281F8019283F7019381F80162
:100C600093839086A186B286C3868170F7019081B6
:100C7000892BF8018083C801A3DFDFBE0F90DF91CD
:100C8000CF911F910F91FF90EF90DF90CF90BF9089
:100C9000AF909F900895DF92EF92FF920F931F9372
:100CA000CF93DF931F92CDB7DEB78C017B018FB757
:100CB0008983F894D980C80173DFF80180818E7F21
:100CC000F7018083F8018181F7018183F801828136
:100CD000F7018283F8018381F7018383C80170DF04
:100CE000DFBE0F90DF91CF911F910F91FF90EF909A
:100CF000DF9008951F920F920FB60F9211240BB63A
:100D00000F922F933F934F935F936F937F938F93A4
:100D10009F93AF93BF93EF93FF93E091F121F091F5
:100D2000F221309709F01995FF91EF91BF91AF91A2
:100D30009F918F917F916F915F914F913F912F91F3
:100D40000F900BBE0F900FBE0F901F9018951F9223
:100D50000F920FB60F9211240BB60F922F933F9361
:100D60004F935F936F937F938F939F93AF93BF93B3
:100D7000EF93FF93E091EF21F091F021309709F08C
:100D80001995FF91EF91BF91AF919F918F917F91B5
:100D90006F915F914F913F912F910F900BBE0F90EC
:100DA0000FBE0F901F9018951F920F920FB60F92C3
:100DB00011240BB60F922F933F934F935F936F9332
:100DC0007F938F939F93AF93BF93EF93FF93E091A4
:100DD000ED21F091EE21309709F01995FF91EF91F7
:100DE000BF91AF919F918F917F916F915F914F9143
:100DF0003F912F910F900BBE0F900FBE0F901F9041
:100E000018951F920F920FB60F9211240BB60F92E6
:100E10002F933F934F935F936F937F938F939F9302
:100E2000AF93BF93EF93FF93E091EB21F091EC210F
:100E3000309709F01995FF91EF91BF91AF919F9174
:100E40008F917F916F915F914F913F912F910F9073
:100E50000BBE0F900FBE0F901F9018951F920F9210
:100E60000FB60F9211240BB60F922F933F934F930F
:100E70005F936F937F938F939F93AF93BF93EF9302
:100E8000FF93E091E921F091EA21309709F019955B
:100E9000FF91EF91BF91AF919F918F917F916F9152
:100EA0005F914F913F912F910F900BBE0F900FBE0E
:100EB0000F901F9018951F920F920FB60F9211244A
:100EC0000BB60F922F933F934F935F936F937F9344
:100ED0008F939F93AF93BF93EF93FF93E091E7219D
:100EE000F091E821309709F01995FF91EF91BF91AA
:100EF000AF919F918F917F916F915F914F913F91B2
:100F00002F910F900BBE0F900FBE0F901F90189552
:100F10001F920F920FB60F9211240BB60F922F93C0
:100F20003F934F935F936F937F938F939F93AF9371
:100F3000BF93EF93FF93E091E521F091E621309785
:100F400009F01995FF91EF91BF91AF919F918F910A
:100F50007F916F915F914F913F912F910F900BBEB9
:100F60000F900FBE0F901F9018951F920F920FB603
:100F70000F9211240BB60F922F933F934F935F93D1
:100F80006F937F938F939F93AF93BF93EF93FF9351
:100F9000E091E321F091E421309709F01995FF9158
:100FA000EF91BF91AF919F918F917F916F915F91E1
:100FB0004F913F912F910F900BBE0F900FBE0F904E
:100FC0001F9018951F920F920FB60F9211240BB617
:100FD0000F922F933F934F935F936F937F938F93D2
:100FE0009F93AF93BF93EF93FF93E091E121F09133
:100FF000E221309709F01995FF91EF91BF91AF91E0
:101000009F918F917F916F915F914F913F912F9120
:101010000F900BBE0F900FBE0F901F9018951F9250
:101020000F920FB60F9211240BB60F922F933F938E
:101030004F935F936F937F938F939F93AF93BF93E0
:10104000EF93FF93E091DF21F091E021309709F0D9
:101050001995FF91EF91BF91AF919F918F917F91E2
:101060006F915F914F913F912F910F900BBE0F9019
:101070000FBE0F901F9018951F920F920FB60F92F0
:1010800011240BB60F922F933F934F935F936F935F
:101090007F938F939F93AF93BF93EF93FF93E091D1
:1010A000DD21F091DE21309709F01995FF91EF9144
:1010B000BF91AF919F918F917F916F915F914F9170
:1010C0003F912F910F900BBE0F900FBE0F901F906E
:1010D00018951F920F920FB60F9211240BB60F9214
:1010E0002F933F934F935F936F937F938F939F9330
:1010F000AF93BF93EF93FF93E091DB21F091DC215D
:10110000309709F01995FF91EF91BF91AF919F91A1
:101110008F917F916F915F914F913F912F910F90A0
:101120000BBE0F900FBE0F901F9018951F920F923D
:101130000FB60F9211240BB60F922F933F934F933C
:101140005F936F937F938F939F93AF93BF93EF932F
:10115000FF93E091D921F091DA21309709F01995A8
:10116000FF91EF91BF91AF919F918F917F916F917F
:101170005F914F913F912F910F900BBE0F900FBE3B
:101180000F901F9018951F920F920FB60F92112477
:101190000BB60F922F933F934F935F936F937F9371
:1011A0008F939F93AF93BF93EF93FF93E091D721DA
:1011B000F091D821309709F01995FF91EF91BF91E7
:1011C000AF919F918F917F916F915F914F913F91DF
:1011D0002F910F900BBE0F900FBE0F901F90189580
:1011E0001F920F920FB60F9211240BB60F922F93EE
:1011F0003F934F935F936F937F938F939F93AF939F
:10120000BF93EF93FF93E091D521F091D6213097D2
:1012100009F01995FF91EF91BF91AF919F918F9137
:101220007F916F915F914F913F912F910F900BBEE6
:101230000F900FBE0F901F9018951F920F920FB630
:101240000F9211240BB60F922F933F934F935F93FE
:101250006F937F938F939F93AF93BF93EF93FF937E
:10126000E091D321F091D421309709F01995FF91A5
:10127000EF91BF91AF919F918F917F916F915F910E
:101280004F913F912F910F900BBE0F900FBE0F907B
:101290001F9018951F920F920FB60F9211240BB644
:1012A0000F922F933F934F935F936F937F938F93FF
:1012B0009F93AF93BF93EF93FF93E091D121F09170
:1012C000D221309709F01995FF91EF91BF91AF911D
:1012D0009F918F917F916F915F914F913F912F914E
:1012E0000F900BBE0F900FBE0F901F9018951F927E
:1012F0000F920FB60F9211240BB60F922F933F93BC
:101300004F935F936F937F938F939F93AF93BF930D
:10131000EF93FF93E091CF21F091D021309709F026
:101320001995FF91EF91BF91AF919F918F917F910F
:101330006F915F914F913F912F910F900BBE0F9046
:101340000FBE0F901F9018951F920F920FB60F921D
:1013500011240BB60F922F933F934F935F936F938C
:101360007F938F939F93AF93BF93EF93FF93E091FE
:10137000CD21F091CE21309709F01995FF91EF9191
:10138000BF91AF919F918F917F916F915F914F919D
:101390003F912F910F900BBE0F900FBE0F901F909B
:1013A00018951F920F920FB60F9211240BB60F9241
:1013B0002F933F934F935F936F937F938F939F935D
:1013C000AF93BF93EF93FF93E091CB21F091CC21AA
:1013D000309709F01995FF91EF91BF91AF919F91CF
:1013E0008F917F916F915F914F913F912F910F90CE
:1013F0000BBE0F900FBE0F901F9018951F920F926B
:101400000FB60F9211240BB60F922F933F934F9369
:101410005F936F937F938F939F93AF93BF93EF935C
:10142000FF93E091C921F091CA21309709F01995F5
:10143000FF91EF91BF91AF919F918F917F916F91AC
:101440005F914F913F912F910F900BBE0F900FBE68
:101450000F901F9018951F920F920FB60F921124A4
:101460000BB60F922F933F934F935F936F937F939E
:101470008F939F93AF93BF93EF93FF93E091C72117
:10148000F091C821309709F01995FF91EF91BF9124
:10149000AF919F918F917F916F915F914F913F910C
:1014A0002F910F900BBE0F900FBE0F901F901895AD
:1014B0001F920F920FB60F9211240BB60F922F931B
:1014C0003F934F935F936F937F938F939F93AF93CC
:1014D000BF93EF93FF93E091C521F091C621309720
:1014E00009F01995FF91EF91BF91AF919F918F9165
:1014F0007F916F915F914F913F912F910F900BBE14
:101500000F900FBE0F901F9018951F920F920FB65D
:101510000F9211240BB60F922F933F934F935F932B
:101520006F937F938F939F93AF93BF93EF93FF93AB
:10153000E091C321F091C421309709F01995FF91F2
:10154000EF91BF91AF919F918F917F916F915F913B
:101550004F913F912F910F900BBE0F900FBE0F90A8
:101560001F9018951F920F920FB60F9211240BB671
:101570000F922F933F934F935F936F937F938F932C
:101580009F93AF93BF93EF93FF93E091C121F091AD
:10159000C221309709F01995FF91EF91BF91AF915A
:1015A0009F918F917F916F915F914F913F912F917B
:1015B0000F900BBE0F900FBE0F901F9018951F92AB
:1015C0000F920FB60F9211240BB60F922F933F93E9
:1015D0004F935F936F937F938F939F93AF93BF933B
:1015E000EF93FF93E091BF21F091C021309709F074
:1015F0001995FF91EF91BF91AF919F918F917F913D
:101600006F915F914F913F912F910F900BBE0F9073
:101610000FBE0F901F9018951F920F920FB60F924A
:1016200011240BB60F922F933F934F935F936F93B9
:101630007F938F939F93AF93BF93EF93FF93E0912B
:10164000BD21F091BE21309709F01995FF91EF91DE
:10165000BF91AF919F918F917F916F915F914F91CA
:101660003F912F910F900BBE0F900FBE0F901F90C8
:1016700018951F920F920FB60F9211240BB60F926E
:101680002F933F934F935F936F937F938F939F938A
:10169000AF93BF93EF93FF93E091BB21F091BC21F7
:1016A000309709F01995FF91EF91BF91AF919F91FC
:1016B0008F917F916F915F914F913F912F910F90FB
:1016C0000BBE0F900FBE0F901F9018951F920F9298
:1016D0000FB60F9211240BB60F922F933F934F9397
:1016E0005F936F937F938F939F93AF93BF93EF938A
:1016F000FF93E091B921F091BA21309709F0199543
:10170000FF91EF91BF91AF919F918F917F916F91D9
:101710005F914F913F912F910F900BBE0F900FBE95
:101720000F901F9018951F920F920FB60F921124D1
:101730000BB60F922F933F934F935F936F937F93CB
:101740008F939F93AF93BF93EF93FF93E091B72154
:10175000F091B821309709F01995FF91EF91BF9161
:10176000AF919F918F917F916F915F914F913F9139
:101770002F910F900BBE0F900FBE0F901F901895DA
:101780001F920F920FB60F9211240BB60F922F9348
:101790003F934F935F936F937F938F939F93AF93F9
:1017A000BF93EF93FF93E091B521F091B62130976D
:1017B00009F01995FF91EF91BF91AF919F918F9192
:1017C0007F916F915F914F913F912F910F900BBE41
:1017D0000F900FBE0F901F9018951F920F920FB68B
:1017E0000F9211240BB60F922F933F934F935F9359
:1017F0006F937F938F939F93AF93BF93EF93FF93D9
:10180000E091B321F091B421309709F01995FF913F
:10181000EF91BF91AF919F918F917F916F915F9168
:101820004F913F912F910F900BBE0F900FBE0F90D5
:101830001F9018951F920F920FB60F9211240BB69E
:101840000F922F933F934F935F936F937F938F9359
:101850009F93AF93BF93EF93FF93E091B121F091EA
:10186000B221309709F01995FF91EF91BF91AF9197
:101870009F918F917F916F915F914F913F912F91A8
:101880000F900BBE0F900FBE0F901F9018951F92D8
:101890000F920FB60F9211240BB60F922F933F9316
:1018A0004F935F936F937F938F939F93AF93BF9368
:1018B000EF93FF93E091AF21F091B021309709F0C1
:1018C0001995FF91EF91BF91AF919F918F917F916A
:1018D0006F915F914F913F912F910F900BBE0F90A1
:1018E0000FBE0F901F9018951F920F920FB60F9278
:1018F00011240BB60F922F933F934F935F936F93E7
:101900007F938F939F93AF93BF93EF93FF93E09158
:10191000AD21F091AE21309709F01995FF91EF912B
:10192000BF91AF919F918F917F916F915F914F91F7
:101930003F912F910F900BBE0F900FBE0F901F90F5
:1019400018951F920F920FB60F9211240BB60F929B
:101950002F933F934F935F936F937F938F939F93B7
:10196000AF93BF93EF93FF93E091AB21F091AC2144
:10197000309709F01995FF91EF91BF91AF919F9129
:101980008F917F916F915F914F913F912F910F9028
:101990000BBE0F900FBE0F901F9018951F93CF9303
:1019A000DF931F921F92CDB7DEB72FB72A83F8942B
:1019B0001A81282F392F211588E0380749F461E072
:1019C00083E00E94561B64E083E00E94561B4FC0D8
:1019D000203488E0380749F462E083E00E94561B17
:1019E00064E083E00E94561B42C0211589E038075D
:1019F00049F461E084E00E94561B64E084E00E94A8
:101A0000561B35C0203489E0380749F462E084E091
:101A10000E94561B64E084E00E94561B28C02115DA
:101A20008AE0380749F461E085E00E94561B64E0D3
:101A300085E00E94561B1BC020348AE0380749F419
:101A400062E085E00E94561B64E085E00E94561B20
:101A50000EC021153B4049F461E086E00E94561B10
:101A600064E086E00E94561B02C01FBF10C0809138
:101A70008A248F3F09F4FFCF8FB78983F894998127
:101A8000E9E8F4E281818F5F81839FBF1FBF0F90E0
:101A90000F90DF91CF911F910895CF93DF93E09145
:101AA000F321F091F421848183FF08C0886084834E
:101AB00083E0838386EF8093FD2183C0982F947108
:101AC00031F083E083838FEF8093FD217AC086FF1E
:101AD00043C0C3EFD1E2AA81BB818C819D81149662
:101AE0002D913C911597821793076CF49C012F5F01
:101AF0003F4F2093F7213093F821A80FB91F11967B
:101B00008C9187835EC08091F9219091FA2118967B
:101B10002D913C91199782179307C8F42091FB21CE
:101B2000222321F08681816086834BC016962D91F9
:101B30003C911797AC014F5F5F4F4093F921509351
:101B4000FA21D901A80FB91F8C9187833AC083E08D
:101B500083831092FD2135C0882384F5A3EFB1E281
:101B60001296CD91DC91139716968D919C911797B3
:101B70002885398582179307D8F46E817F819C016F
:101B80002F5F3F4F2093F9213093FA214781DB01EA
:101B9000A80FB91F4C93888599852817390718F421
:101BA00082E083830EC087E083831092FD2109C009
:101BB00083E0838389EF8093FD2103C08BEF8093C3
:101BC000FD21DF91CF9108951F920F920FB60F92D2
:101BD00011240BB60F922F933F934F935F936F9304
:101BE0007F938F939F93AF93BF93EF93FF9355DFB3
:101BF000FF91EF91BF91AF919F918F917F916F91E5
:101C00005F914F913F912F910F900BBE0F900FBEA0
:101C10000F901F9018951F920F920FB60F921124DC
:101C20000BB60F922F933F934F935F936F937F93D6
:101C30008F939F93AF93BF93EF93FF932EDFFF910B
:101C4000EF91BF91AF919F918F917F916F915F9134
:101C50004F913F912F910F900BBE0F900FBE0F90A1
:101C60001F901895FC01DB0114968C91858388EBFD
:101C7000818381E08483E3EFF1E211861286E0EA5A
:101C8000F0E0828182608283789480E00895CF932F
:101C9000DF931F92CDB7DEB79C01FB01892B09F4BE
:101CA00051C0309709F450C092858091FC2188235F
:101CB00019F09923F1F34AC08FB78983F894898189
:101CC000A3EFB1E291E019969C93199790E81A96C8
:101CD0009C931A978FBF2D933C93119712966D93F7
:101CE0007C93139714961D921C92159716961D922D
:101CF0001C92179718964C938081880F6481758188
:101D0000672B11F4411103C0F901868303C0816080
:101D1000F9018683E3EFF1E292859038E9F3F90166
:101D200084818370813049F0A3EFB1E2ED91FC91A1
:101D30001197848183708130C9F7E3EFF1E28285E6
:101D4000118605C088EF03C088EF01C086EF0F90B1
:101D5000DF91CF910895CF93DF931F921F92CDB75C
:101D6000DEB7811126C0909128239923F9F0909134
:101D70008A24911101C0FFCF9FB79A83F8942A81DA
:101D8000E9E8F4E29181915091832FBF0FC09091C7
:101D90008A249F3F09F4FFCF9FB79983F894298144
:101DA000E9E8F4E291819F5F91832FBF809328231C
:101DB00005C090912823992351F3F8CF0F900F90ED
:101DC000DF91CF9108950F93E8ECF4E080818F7D4F
:101DD000808380818F7D8083ECEFF2E202E00593C7
:101DE0001092FE221092FF2200E2069300E4069376
:101DF000E4EFF2E200E40693E9E7F4E214861586E4
:101E000016861786128613861092E7220F91089580
:101E10000F9385E08093E722EDEFF2E204E0059373
:101E2000E5EFF2E204E005930F9108950F9383E04C
:101E30008093E7221092FE221092FF22ECEFF2E252
:101E400002E006930F910895E0918524F091862495
:101E5000309709F0199508950F93CF93DF938091F0
:101E6000E722833019F4F0DFAEDF5EC08091E32219
:101E70009091E422C0918324D0918424C81BD90B73
:101E800071F52091E5223091E622820F931F809315
:101E9000E5229093E62220917F24309180248217BE
:101EA000930721F08091FE21882341F084E0809304
:101EB000E722E4EFF2E202E0069336C0E0918724E5
:101EC000F0918824309799F01995882381F0109229
:101ED000E3221092E422C0918324D0918424C03460
:101EE000D10528F01092FE21C0E4D0E003C081E0CB
:101EF0008093FE21E8EEF2E2C68BD78B8091E3223D
:101F00009091E4222091812430918224280F391F5E
:101F1000208F318FC80FD91FC093E322D093E422C2
:101F2000ECEFF2E202E00693DF91CF910F9108957A
:101F3000FC018181E82FE7708E2F90E0FC01319742
:101F4000E730F105D8F48827E250FF4F8F4F0C940B
:101F5000A42380E190E0089580E290E0089580E479
:101F600090E0089580E890E0089580E091E0089581
:101F700080E092E008958FEF93E0089588E090E08C
:101F80000895282F2F7030E0220F331F082E000CE9
:101F9000990B8827990F881F9927820F931F029703
:101FA0009C01220F331F220F331F220F331F820F7A
:101FB000931F81589D4D08950F93CF938091CC042A
:101FC00080FF65C081E08093CC04E4EFF2E200E89A
:101FD0000693ECEFF2E200E806938093CA04E4EF84
:101FE000F2E200E106938091E722882329F08350F2
:101FF000823008F429DFE7DE8091F6229091F72203
:10200000089709F046C088E0E3EAF2E2A9E7B4E203
:1020100001900D928A95E1F7E8ECF4E0808180620E
:1020200080838081806280830E943E20C82F81113E
:1020300003C0EEDEC1E02EC08091792488236CF4C9
:102040001092E5221092E6221092E3221092E422EE
:1020500082E08093E72200DF1DC080917F24909171
:102060008024892B11F4E2DE15C01092E522109233
:10207000E6221092E3221092E42281E08093E7228C
:10208000E4EFF2E202E0069300E2069303C0C0E050
:1020900001C0C1E08C2FCF910F9108958F929F9234
:1020A000AF92BF92DF92EF92FF920F931F93CF9365
:1020B000DF93D82E66DF8C01CD2DCF70D0E0CE011E
:1020C000880F991FCD2D0D2C000CDD0BCC27DD0FBB
:1020D000CC1FDD27C80FD91FCE01880F991F880F8D
:1020E000991F880F991F9C012C503D4D7901C90102
:1020F0001FDF4C01DD200CF07BC0FE01EE0FFF1F47
:10210000EE0FFF1FEE0FFF1FE851FD4D22893389AF
:10211000D80115968D919C911697820F931F159655
:102120008D939C93169713962D913C91149782173B
:10213000930709F447C0281B390B2115B4E03B076E
:1021400040F02FEF33E0C901B4010E946E23281B39
:10215000390BF801808181FF0AC0C901B4010E94D6
:102160006E2341E0892B09F040E0842F01C080E01C
:10217000D8019C9180FB91F99C93FE01EE0FFF1F0B
:10218000EE0FFF1FEE0FFF1FE851FD4D128A138A5D
:102190002687378711962D913C91129715968D9130
:1021A0009C911697820F931FCC0FDD1FCC0FDD1F64
:1021B000CC0FDD1FC850DD4D88839983F70102E005
:1021C0000693E4C0D8018C9181FFCDC08D7F8C93A4
:1021D000CC0FDD1FCC0FDD1FCC0FDD1FC851DD4D37
:1021E0001A8A1B8A1E861F86F70102E00693CEC05C
:1021F000FE01EE0FFF1FEE0FFF1FEE0FFF1FE85156
:10220000FD4DA684B784D8018C9182FF1BC0119626
:10221000ED91FC91129715962D913C91169713967E
:102220008D919C911497B4010E946E23B0E4DB9EC3
:10223000B001112461547E4DAC01CF01820F931F78
:102240000E94BB23F801258136812A0D3B1D258381
:102250003683838194818217930768F485839683FC
:10226000CC0FDD1FCC0FDD1FCC0FDD1FC851DD4DA6
:102270008A899B8978C0FE01EE0FFF1FEE0FFF1FBA
:10228000EE0FFF1FE851FD4D42895389A416B50694
:1022900009F069C02817390709F465C0AC01421B71
:1022A000530B9A01211554E0350748F02FEF33E026
:1022B000C901B4010E946E23281B390B06C0C90155
:1022C000B4010E946E23281B390BFE01EE0FFF1F85
:1022D000EE0FFF1FEE0FFF1FE851FD4D168617860C
:1022E0002815390500F5D8018C9184608C93B0E4F1
:1022F000DB9EC001112481549E4DFE01EE0FFF1F95
:10230000EE0FFF1FEE0FFF1FE850FD4D80839183FE
:10231000CC0FDD1FCC0FDD1FCC0FDD1FC851DD4DF5
:102320008A8A9B8A1CC0F8014181528185819681ED
:10233000840F951FFE01EE0FFF1FEE0FFF1FEE0F24
:10234000FF1FE850FD4D80839183CC0FDD1FCC0F24
:10235000DD1FCC0FDD1FC851DD4D2A8B3B8BF701F4
:1023600002E0069313C0D8018C9180FF0FC08E7FCE
:102370008C931796ED91FC911897309739F015963C
:102380006D917C9116974D2D80E01995DF91CF913D
:102390001F910F91FF90EF90DF90BF90AF909F90B3
:1023A0008F9008951F93CF93DF931F92CDB7DEB721
:1023B0008FB78983F894198181E0CDDCEAECF4E0F1
:1023C00080E4808380E28083E1ECF4E080818160BE
:1023D0008083A9ECB4E08C9182608C93E8ECF4E00B
:1023E0008081806480838C9181608C9380818068FF
:1023F00080831FBF0F90DF91CF911F9108950F939E
:102400001F93CF93DF931F921F92CDB7DEB700E6E5
:1024100010E0F801108280E30E94811BE0ECF4E000
:1024200080818064808381E0F80180838FB78A8314
:10243000F8941A81E8EEF2E21586158A158E15A237
:1024400015A615AAEFE7F2E280818E7F8083E8E887
:10245000F2E280818E7F8083E1E9F2E280818E7FEB
:102460008083EAE9F2E280818E7F80836AE170E016
:1024700082E00E945E238F3F19F08093FA0403C02C
:102480008FE18093FA046BE170E082E00E945E23AA
:102490008F3F19F08093FB0403C08FE18093FB040E
:1024A000E0ECF4E0808182608083808180688083BA
:1024B00080818061808384EF92E28683978380812C
:1024C000806280838FEF8093C504E8ECF4E0808124
:1024D000816080831092282380918E248F3F09F49D
:1024E000FFCF8FB78983F8949981E9E8F4E2858179
:1024F0008F5F85839FBF56DF1FBF0F900F90DF91C7
:10250000CF911F910F91089580E008958093C304A7
:1025100008958091C30408958091242390912523E8
:10252000089580E090E00895E9E7F4E280879187DC
:10253000628773870895282F2F7030E0220F331F92
:10254000082E000C990B8827990F881F9927820F56
:10255000931FFC01EE0FFF1FEE0FFF1FEE0FFF1F7B
:10256000E851FD4D2585207C09F069C0637061301C
:1025700011F018F404C060EC03C060E801C060E42E
:1025800040385105E9F050F440325105A9F040348B
:102590005105A1F040315105D9F40CC0411522E09C
:1025A000520791F04F3F23E0520781F0411551400F
:1025B00079F408C021E00DC022E00BC023E009C07F
:1025C00024E007C025E005C026E003C027E001C0E5
:1025D00020E0FC01EE0FFF1FEE0FFF1FEE0FFF1FAD
:1025E000E851FD4D158636E03487262B2587FC0102
:1025F000EE0FFF1FEE0FFF1FEE0FFF1FE851FD4D07
:102600002585207C203C69F4FC01EE0FFF1FEE0FB6
:10261000FF1FEE0FFF1FE851FD4D25852770273066
:1026200081F0880F991F880F991F880F991FFC014F
:10263000E851FD4D85858062858781E0089580E0C1
:10264000089581E00895E82FEF70F0E0EE0FFF1F8E
:10265000082E000C990B8827990F881F9927E80FDF
:10266000F91FEE0FFF1FEE0FFF1FEE0FFF1FE851C8
:10267000FD4D858582FB882780F908950F93282FCB
:102680002F7030E0A901440F551F282F082E000C91
:10269000330B2227330F221F3327240F351FA901A5
:1026A000440F551F440F551F440F551FFA01EC509E
:1026B000FD4D01E00693FA01E851FD4D958592FF2D
:1026C00011C0FA01E851FD4D95859B7F958759DC36
:1026D000FC01808180FF06C08E7F80830780F085AB
:1026E000E02D199581E00F9108956F927F928F925E
:1026F0009F92AF92BF92CF92DF92EF92FF920F9391
:102700001F93CF93DF931F92CDB7DEB7782E662E3F
:102710004A01590136DC6C01272D872D8F70E82E78
:10272000F12CC701880F991FE72C072C000CFF081C
:10273000EE24FF0CEE1CFF24E80EF91EF701EE0F4D
:10274000FF1FEE0FFF1FEE0FFF1FE851FD4D8585A8
:10275000807C09F482C0F701EE0FFF1FEE0FFF1F10
:10276000EE0FFF1FE851FD4D8585807C803C61F0B8
:10277000F701EE0FFF1FEE0FFF1FEE0FFF1FE851D7
:10278000FD4D858582FD6BC08FB78983F894898163
:10279000F601908190FF03C08FBF80E061C0F60119
:1027A0009081916090838FBF81829282A382B48254
:1027B0001582168207831087611006C091E0A1146C
:1027C000B10419F090E001C091E0F601808190FB26
:1027D00081F98B7F8083222364F4F701EE0FFF1FC2
:1027E000EE0FFF1FEE0FFF1FE851FD4D128A138AF7
:1027F00030C0F701EE0FFF1FEE0FFF1FEE0FFF1FA0
:10280000E851FD4D8585807C803CB1F4C701880F7F
:10281000991F880F991F880F991F8C509D4D88DB39
:10282000BC01C5010E946E23892B31F0F601808125
:102830008E7F808380E014C0F701EE0FFF1FEE0F44
:10284000FF1FEE0FFF1FE851FD4D16861786128AF7
:10285000138A872D23DC81E003C080E001C080E083
:102860000F90DF91CF911F910F91FF90EF90DF902C
:10287000CF90BF90AF909F908F907F906F90089572
:10288000FF920F931F93CF93DF93182FC82FCF7012
:10289000D0E0CE01880F991FC12F012E000CDD0B57
:1028A000CC27DD0FCC1FDD27C80FD91F812F69DB97
:1028B000DC01FE01EE0FFF1FEE0FFF1FEE0FFF1FEB
:1028C000EC50FD4D02E005938C9180FF22C08E7F7D
:1028D0008C931796ED91FC9118973097D1F01123B6
:1028E0005CF4CC0FDD1FCC0FDD1FCC0FDD1FC851FA
:1028F000DD4D6A897B890AC0CC0FDD1FCC0FDD1F3F
:10290000CC0FDD1FC851DD4D6E857F85412F81E0E5
:102910001995DF91CF911F910F91FF900895CF935B
:10292000C82FAEDFEC2FEF70F0E0EE0FFF1F8C2F03
:10293000CC0F990B8827990F881F9927E80FF91F4B
:10294000EE0FFF1FEE0FFF1FEE0FFF1FE851FD4DB3
:102950001586CF910895E82FEF70F0E0EE0FFF1F7E
:10296000282F082E000C330B2227330F221F33276A
:10297000E20FF31FEE0FFF1FEE0FFF1FEE0FFF1F03
:10298000E851FD4D9585946095877ADF81E0089543
:102990001F920F920FB60F9211240BB60F920F9346
:1029A0002F933F934F935F936F937F938F939F9357
:1029B000AF93BF93EF93FF938091CB04882334F4BC
:1029C00080E88093CA040E940E2088C08091CB04C6
:1029D00082FF20C084E08093CA048091FC2286FF9D
:1029E0007DC08091CC0481FD79C0E6DA811176C08A
:1029F0008091E722813011F419DA70C0843009F037
:102A00006DC0EDEFF2E204E00593E5EFF2E204E0E1
:102A1000059364C08091CB0481FF5BC082E080930A
:102A2000CA048091F42286FF59C08091CC0481FDB4
:102A300055C0C2DA811152C08091E722823041F440
:102A400084E08093E722E4EFF2E202E0069346C0DE
:102A5000833009F043C0EDEFF2E204E00593E5EFC7
:102A6000F2E204E005933AC080E18093CA0481E079
:102A700007DF81E805DF82E003DF82E801DF0E94F3
:102A8000E41F1092C304E8EEF2E2158696E0948704
:102A900083E48587158A948B858B83EA92E2808B09
:102AA000918B91D91BC08091CB0486FF07C080E435
:102AB0008093CA0480E04FD9A5D210C08091CB0486
:102AC00085FF0CC080E28093CA0481E044D99BD288
:102AD00005C08091CB0484FDC7CFE5CFFF91EF9176
:102AE000BF91AF919F918F917F916F915F914F9126
:102AF0003F912F910F910F900BBE0F900FBE0F9033
:102B00001F9018951F920F920FB60F9211240BB6BB
:102B10000F920F931F932F933F934F935F936F9356
:102B20007F938F939F93AF93BF93CF93DF93EF9355
:102B3000FF938091CC0481FD03C03EDA8111C4C0B3
:102B400082E08093CC048091C5048195880FE4EFE6
:102B5000F2E2E81BF10920813181245F324236958F
:102B600027953695279536952795822F869520FDB2
:102B700002C090E001C090E8890FE82FEF70F0E00C
:102B8000EE0FFF1F282F082E000C330B2227330FC8
:102B9000221F3327E20FF31FDF01AA0FBB1FAA0F6B
:102BA000BB1FAA0FBB1FA851BD4D1C969C9195FF42
:102BB0008BC0EE0FFF1FEE0FFF1FEE0FFF1FEC503D
:102BC000FD4D00E2069381117AC08091E7228430A6
:102BD00019F43AD9F8D878C00091F6221091F7226A
:102BE0008091832490918424C091E322D091E422A7
:102BF00098012C0F3D1F8217930718F48C010C1BB2
:102C00001D0B8091812490918224A80163EA72E2D5
:102C10008C0F9D1F0E94BB23C00FD11FC093E322C6
:102C2000D093E4220034110569F48091E52290915B
:102C3000E6228C0F9D1F20917F24309180248217E3
:102C4000930780F0E9E7F4E2C287D3870684F7852B
:102C5000E02D309729F01995811102C0D9D834C0E0
:102C6000E5D832C08091832490918424C817D90775
:102C7000F9F4E0918724F0918824309711F4C8D8B2
:102C800023C01995811102C0C3D81EC02091E5222E
:102C90003091E6228091E3229091E422820F931FEB
:102CA0008093E5229093E6221092E3221092E42290
:102CB000E4EFF2E202E0069300E2069305C08038FA
:102CC00011F4CAD801C0EAD9FF91EF91DF91CF91F9
:102CD000BF91AF919F918F917F916F915F914F9134
:102CE0003F912F911F910F910F900BBE0F900FBE30
:102CF0000F901F901895CF92DF92EF92FF92CF9393
:102D0000DF93EC016B01E12CF12C60E873EC89ECB2
:102D100091E0A70196010E948223CA01B9012FEF19
:102D20003FEF40E050E00E9482232115310529F455
:102D300081E08C8321E030E02DC02230310528F481
:102D400082E08C8322E030E025C02430310528F475
:102D500083E08C8324E030E01DC02830310528F466
:102D600084E08C8328E030E015C02034310528F45D
:102D700085E08C8320E430E00DC02F3F310509F061
:102D800028F486E08C8320E031E004C087E08C8367
:102D900020E034E040E050E060E873EC89EC91E042
:102DA0000E948223CA01B901A70196010E948223D1
:102DB0002D833E832436310518F41C821D821E8229
:102DC000DF91CF91FF90EF90DF90CF9008950F9318
:102DD0001F93CF93DF93EC018901862F90E087301A
:102DE000910508F08BC0FC018827EB5FFE4F8F4FE9
:102DF0000C94A42380E098E088839983E0E4F6E0D3
:102E0000308181E090E02FEF240F02C0880F991FDE
:102E10002A95E2F7832B808371C080E498E0888351
:102E20009983E0E4F6E0308181E090E023E0240F34
:102E300002C0880F991F2A95E2F7832B80835EC01A
:102E400080E099E088839983E0E6F6E0308181E0D4
:102E500090E02FEF240F02C0880F991F2A95E2F708
:102E6000832B80834BC080E499E088839983E0E6DC
:102E7000F6E0308181E090E023E0240F02C0880F6B
:102E8000991F2A95E2F7832B808338C080E09AE06F
:102E900088839983E0E8F6E0308181E090E02FEFCD
:102EA000240F02C0880F991F2A95E2F7832B808395
:102EB00025C080E49AE088839983E0E8F6E03081D9
:102EC00081E090E023E0240F02C0880F991F2A952B
:102ED000E2F7832B808312C080E09BE08883998394
:102EE000E0EAF6E0308181E090E02FEF240F02C0AD
:102EF000880F991F2A95E2F7832B80834A834230FB
:102F000061F018F4413031F010C0433049F04430E2
:102F100051F00BC080E18B8308C080E28B8305C039
:102F200080E48B8302C080E88B83888199810E9432
:102F3000CE0CE881F9818181887F836081831D8245
:102F40001E821C82E881F9818081807F8083B801A4
:102F5000CE01D1DEDF91CF911F910F910895CF93D4
:102F6000DF93EC012D813E81A62FB0E00E94AC23BF
:102F700024E630E040E050E00E9482238A81E8812C
:102F8000F981E6FD17C0823061F018F4813031F02C
:102F90001BC0833049F0843051F016C020AF31AFF0
:102FA00013C022AF33AF10C024AF35AF0DC026AF72
:102FB00037AF0AC0813019F0823021F005C020AF50
:102FC00031AF02C022AF33AF8D819E81E881F9819C
:102FD00086A397A38B81E881F981E6FD04C09181E6
:102FE000892B818304C091818073892B8183E8813F
:102FF000F9818081807F9C81892B8083DF91CF91B3
:1030000008950895089508950895089581E080939E
:103010003823089510923823089508950895089547
:10302000089508952F923F924F925F926F927F92F0
:103030008F929F92AF92BF92CF92DF92EF92FF92C8
:103040000F931F93CF93DF93CDB7DEB7C254D1094F
:10305000CDBFDEBF0F2EF0EAAF2EB12CF02D07E072
:10306000D50112960C93A1D2E9E8F4E21082118204
:1030700012821382148211E015830E944F0181E0B5
:1030800098E10E944A0162E080E010D3E0E8F1E0BC
:1030900080EC878388EE868380E49AE00E94CE0CE1
:1030A0000F2EF0E4EF2EFAE0FF2EF02DF7018181D4
:1030B000887F818380E792E086A397A324EF31E0A5
:1030C00043E060E0CE01019682DE6DE2CE01019622
:1030D00046DFC12C6894DD24D3F88DE594E7D60152
:1030E000DC968D939C93DD97BE016C5D7F4F80E0F5
:1030F00092E00E940105AE01415C5F4F61E080E01B
:1031000092E00E948505BE01635E7F4F80E092E001
:103110000E940105AE01455C5F4F61E080E092E0F6
:103120000E948505BE016A5E7F4F80E092E00E94AA
:103130000105AE01495C5F4F61E080E092E00E94D2
:103140008505BE01615F7F4F80E092E00E9401052E
:10315000AE014D5C5F4F62E080E092E00E94850529
:10316000BE01685F7F4F80E092E00E940105AE01E2
:10317000415D5F4F64E080E092E00E948505BE0102
:103180006F5F7F4F80E092E00E940105AE01455DD8
:103190005F4F68E080E092E00E9485056DA18EA1FE
:1031A0008F788EA35E8D8F8D8F788F8F4F89888DCE
:1031B0008F78888F388989898F78898B29858A8546
:1031C0008F788A879A818B818F788B8386EC8FA307
:1031D0001B871C8383E088A789A38A8F8B8B8C87AE
:1031E0008D83617060646DA3597050645E8F497007
:1031F00040644F8B39703064388B2170206429878C
:10320000917090649A831FAF90E121969FAF2197B0
:103210001BAF1CAE1FAB98E198AF1BAB6894992411
:1032200093F89CAA1FA790E298AB1BA798E29CA7D3
:1032300022969FAD2297937F22969FAF22979DADB6
:10324000937F9DAF99AD937F99AF9DA9937F9DABE0
:1032500099A9937F99AB9DA5937F9DA723968FAF47
:1032600023978EAF8AAFBE016C5D7F4F80E092E006
:103270000E949704AE01415C5F4F61E080E092E004
:103280000E943A05BE01635E7F4F80E092E00E949B
:103290009704AE01455C5F4F61E080E092E00E94E0
:1032A0003A05BE016A5E7F4F80E092E00E9497047B
:1032B000AE01495C5F4F61E080E092E00E943A0518
:1032C000BE01615F7F4F80E092E00E949704AE01F3
:1032D0004D5C5F4F62E080E092E00E943A05BE01E3
:1032E000615F7F4F80E092E00E949704AE014D5CE9
:1032F0005F4F64E080E092E00E943A05BE01615FAA
:103300007F4F80E092E00E949704AE014D5C5F4FDA
:1033100068E080E092E00E943A05BE01685F7F4F5E
:1033200080E293E00E944B06BE016F5F7F4F80E218
:1033300093E00E944B061A871B8384E08887998557
:1033400099828A819C799160998796E09B878C7994
:1033500082608A839C83BE01685F7F4F80E293E036
:103360000E94EF05BE016F5F7F4F80E293E00E94F5
:10337000EF050E94D1010E94C602F50102837894F4
:10338000D6018C91807F81608C93F7018081807F52
:103390008160808316D60E9435230E9431230E94CB
:1033A0002B02109339230F2EF0E28F2EF3E09F2E85
:1033B000F02D0F2EFEE3AF2EF1E2BF2EF02D0F2EDB
:1033C000F9E82F2EF4E23F2EF02D08E410E00E94E1
:1033D00039016B017C01D40115968C918370833087
:1033E000B1F5E0912923F0912A23EE0FFF1FEB594D
:1033F000FE4D208131818FB78887F8948885F4014C
:10340000208F318F8FBFE0912923F0912A23EE0F77
:10341000FF1FEB59FE4D208131818FB78983F894CE
:103420008981AAE3B3E02D933C938FBF8091292338
:1034300090912A2301968F719078992324F4019713
:10344000806E9F6F01968093292390932A2340904A
:103450002B2350902C2360902D2370902E23A301BA
:103460009201C701B6010E945002A3019201C70157
:10347000B6010E945102D701C601072E7AE0B69527
:10348000A795979587957A95D1F7702D40912B2325
:1034900050912C2360912D2370912E23032E3AE01E
:1034A00076956795579547953A95D1F7302D8417BE
:1034B0009507A607B70771F0BF93AF939F938F93BC
:1034C000BF92AF920E940E240F900F900F900F901A
:1034D0000F900F90C0922B23D0922C23E0922D239B
:1034E000F0922E23F894F1018081811109C0AAE89D
:1034F000B4E2E0E0EF5F8D918823E1F3E11102C0D7
:10350000789412C0D8018C91F0E0EE5DFF4D817F80
:103510009081892B8C938C9181608C937894889581
:10352000F80180818E7F80838091392381114FCF74
:10353000F894F89480918924811109C0AAE8B4E232
:10354000E0E0EF5F8D918823E1F3E11102C0789410
:1035500013C0A8E4B0E08C91F0E0EE5DFF4D982F31
:10356000917F8081892B8C938C9181608C9378944E
:1035700088958C918E7F8C9380E090E0CE5BDF4FBE
:10358000CDBFDEBFDF91CF911F910F91FF90EF90E4
:10359000DF90CF90BF90AF909F908F907F906F9073
:1035A0005F904F903F902F900895CF93DF93CDB7CA
:1035B000DEB72897CDBFDEBF8FEF8093700080937A
:1035C00071008093720080937300809374008093E5
:1035D00075008093760061E081E490E00E946823AA
:1035E0006CE170E082E00E945E238A836DE170E00E
:1035F00082E00E945E23898389819A81019621F469
:1036000080E493E289839A8389819A818B839C8366
:10361000E0E6F0E082838C8183838091510084FD19
:1036200021C08091510083FD0EC0E0E5F0E01282E0
:103630008FB78D83F8949D818081886080839FBF40
:10364000818183FFFDCF8FB78E83F8949E81E0E563
:10365000F0E083EC85838081806180839FBF8181DE
:1036600084FFFDCF64E080E490E00E9468238FB780
:103670008887F8949885E0E5F0E080818E7F8083EC
:103680009FBF12828FB78F83F8949F81808188605B
:1036900080839FBF818183FFFDCF8BE080934300B8
:1036A0002896CDBFDEBFDF91CF910895CF93DF93F2
:1036B0001F92CDB7DEB79FB79983F8949981E82F11
:1036C000F0E0E059FF4F60958081682360839FBFE1
:1036D0000F90DF91CF910895CF93DF931F92CDB7D5
:1036E000DEB79FB79983F8949981E82FF0E0E0590D
:1036F000FF4F8081682B60839FBF0F90DF91CF9138
:103700000895CF93DF931F921F92CDB7DEB7863017
:1037100011F060E001C068E18091510081FD2AC094
:103720008FB78983F8949981E0E5F0E08081826029
:1037300080839FBF818181FFFDCF8FB78A83F894FB
:103740009A81A0E5B0E016968C911697897F16961F
:103750008C931697E0E6F0E080E885838BEB868318
:1037600016968C911697846016968C938081816052
:1037700080839FBF636084E490E0AAD760E480E028
:1037800095DF0F900F90DF91CF9108958091502495
:10379000815080935024089580E0089580E008953A
:1037A0006EE574E280E039CC0895109250241092B6
:1037B0005C2410925D24E2E5F4E281EA808380E2F9
:1037C0008183128213821482158282E090E08683C4
:1037D000978310861186EEE5F4E280E092ECA1E09A
:1037E000B0E080839183A283B3831482158288E042
:1037F0008683BF0180E011DC09DC882329F09091E9
:1038000050249F5F909350240895FF920F931F932D
:10381000CF93DF931F92CDB7DEB780913D23811107
:103820009FC00E948412882351F000913E23109182
:103830003F230E9491120817190759F491C0009173
:103840003E2310913F230E948C120817190709F498
:1038500087C08FB78983F894198100914023E02FA6
:10386000F0E0EE0FFF1FEF5BFC4D80819181892B13
:1038700009F580913A2390913B23019680933A2356
:1038800090933B230E948412811107C080913A23B8
:1038900090913B238436910558F00E94841288232E
:1038A00049F080913A2390913B238032934010F469
:1038B0001FBF56C010923A2310923B2380913C23A5
:1038C000811106C081E0011180E08093402304C093
:1038D00081E0011180E0082F81E080933D231FBF2C
:1038E00010E0F801EE0FFF1FEF5BFC4D808191812E
:1038F000FF24F3948034910509F4F12C8034910570
:1039000091F00E948412882339F00E9491128093D2
:103910003E2390933F230BC00E948C1280933E2342
:1039200090933F2304C010923E2310923F23F8014E
:10393000EE0FFF1FEF5BFC4D20813181A8010024B9
:10394000569547950794569547950794542F402DC3
:103950004A5B5C4D0AEB1CE16F2D81E80E947513F8
:103960000F90DF91CF911F910F91FF90089580E00C
:103970004CCF0895811119C02091402381E090E03F
:10398000222311F080E090E0880F991FFC01EF5B8B
:10399000FC4D1082118210923C2310923D23672B24
:1039A00011F080E03EDB80E030CF089580914F241D
:1039B000815080934F2480914F242CDB10924E2411
:1039C0000895CF93DF93809179248823E4F480765F
:1039D000803209F047C080917A24813209F044C0D6
:1039E00080917F2490918024079709F03FC0E9E7F8
:1039F000F4E28EE594E28087918787E090E0828709
:103A0000938781E03AC08076803291F580917A2464
:103A1000803219F08232B9F02DC080917F249091CC
:103A20008024079749F5E9E7F4E280ED9BE184877C
:103A300095878EE594E28087918787E090E0828782
:103A4000938781E01AC0C9E7D4E26A81617080E09F
:103A5000E5DA6A817B8176956795617080E0DFDACF
:103A600081E00BC080E009C080E007C080E005C0B5
:103A700080E003C080E001C080E0DF91CF91089535
:103A8000CF93DF931F92CDB7DEB78FB78983F894BA
:103A900049812091C7233091C823E091C923F0E0E8
:103AA000EE0FFF1FE653FC4D808191814FBF821BBB
:103AB000930B0F90DF91CF910895E2DF21E0892BE6
:103AC00009F420E0822F08950F931F93CF93DF9383
:103AD0001F92CDB7DEB78FB78983F8949981209173
:103AE000C9238091C623811110C06091C7237091B2
:103AF000C823022F10E0F801EE0FFF1FE653FC4D24
:103B0000408151816417750718F49FBF80E027C07A
:103B10001092C7231092C82381E0211180E0809386
:103B2000C92381E08093C6239FBF80E0C6DF88233E
:103B300011F080E075DAA8010024569547950794A6
:103B4000569547950794542F402D42535C4D07EEF0
:103B50001DE120E430E061E082E00E9475130F90E7
:103B6000DF91CF911F910F91089510924F241092E1
:103B70003D2310923C2310924023E1E4F3E21082B3
:103B800011821282138210923E2310923F2380E012
:103B90003CDE1092C6231092C923EAECF3E21082B5
:103BA0001182128213821092C7231092C82380E0E0
:103BB0008BDF882359F090914F249F5F90934F247F
:103BC00090914F24913011F490934E2408950F93C7
:103BD0001F93811129C08091C923E1E08111E0E0A8
:103BE000842F61157105A9F44E2F50E000245695DD
:103BF00047950794569547950794542F402D425367
:103C00005C4D07EE1DE120E430E061E00E94751399
:103C10000BC0F0E0EE0FFF1FE653FC4D6083718395
:103C20001092C62380E050DF1F910F910895EF920C
:103C3000FF921F93CF93DF931F92CDB7DEB711E0B2
:103C400080916424893009F010E040E050E08FB7A3
:103C50008983F894A9812091C7233091C82380914A
:103C6000C92390E0FC01EE0FFF1FE653FC4D60817D
:103C70007181AFBF2617370730F080914E24811134
:103C8000E6CF90E021C0FC010024F695E79507946B
:103C9000F695E7950794FE2FE02DE253FC4DE20FD9
:103CA000F31F80817A01E82A2F5F3F4F2093C723BB
:103CB0003093C82380E008DF112321F05E2D4427D4
:103CC00010E0C5CF8E2D9F2D0F90DF91CF911F91CA
:103CD000FF90EF90089580E0AACF0895CF93DF93EF
:103CE0001F92CDB7DEB78FB78983F8949981809101
:103CF0004023E82FF0E0EE0FFF1FEF5BFC4D20812B
:103D000031812034310589F440913D2341110DC0AA
:103D100040913C23411109C021E020933C238111B3
:103D200020E02093402320E030E09FBF80E490E03B
:103D3000821B930B0F90DF91CF910895CFDF21E08D
:103D4000892B09F420E0822F0895FF920F931F938F
:103D5000CF93DF931F92CDB7DEB7F62E172F01E07A
:103D600080916424893009F000E080E0E7DF811170
:103D700007C080914E248111F8CF80E090E02CC0E4
:103D80008FB78983F89449818091402390E0FC01AA
:103D9000EE0FFF1FEF5BFC4D20813181B9016F5F9A
:103DA0007F4F60837183002496958795079496953D
:103DB00087950794982F802D8A5B9C4DFC01E20F1C
:103DC000F31FF0824FBF002329F0F12E110F110BCA
:103DD00000E0CBCF81E090E00F90DF91CF911F9179
:103DE0000F91FF900895BC0180E0AFCF0895E0915E
:103DF0006A24F0916B240190F081E02D22813381BF
:103E00002E0F3F1FFC014081E40FF11DE217F30765
:103E1000A0F481818430A1F0861306C014C0818192
:103E20008430A1F08617A9F08081E80FF11DE21718
:103E3000F307A8F380E090E0089580E090E0089513
:103E400080E090E008958E2F9F2F089580E090E00D
:103E500008958E2F9F2F089580917B248F770C9447
:103E60008612089590916C24992381F1E0916A243F
:103E7000F0916B240190F081E02D9481891740F539
:103E8000E0936824F0936924228133812E0F3F1F31
:103E9000E217F307F8F49181943061F49281891369
:103EA00009C09381961306C0E0936824F0936924B7
:103EB00081E008959081E90FF11DE217F30758F3AF
:103EC000E0936824F093692480E0089580E00895E9
:103ED00080E0089580E00895EF92FF921F93CF93C2
:103EE000DF93C82F60E0BEDF182F882381F1A091F7
:103EF0006A24B0916B24EC2FF0E0EE0FFF1F1296B6
:103F00008D919C911397E80FF91FE080F180D70104
:103F10001696ED91FC9117971995682F8C2FA2DFBB
:103F2000182F8823A1F0C0916824D091692465E0FE
:103F3000CE015DDFEC01892B21F08A810E948F1474
:103F4000F6CFD7011296ED91FC9113971995812F19
:103F5000DF91CF911F91FF90EF9008951F93CF9322
:103F6000DF93182F7FDF882341F1C0916824D0911F
:103F7000692465E0CE013BDFEC01892B49F04C81DF
:103F80005D816B818A810E949B128111F2CF15C0E5
:103F9000A0916A24B0916B24E12FF0E0EE0FFF1F97
:103FA00012968D919C911397E80FF91F0190F08163
:103FB000E02D0190F081E02D1995DF91CF911F91B7
:103FC00008950C94FF110895CF9380916C24882359
:103FD000C1F0E0916A24F0916B240190F081E02D12
:103FE0008481882371F0C0E08C2F76DFCF5FE09171
:103FF0006A24F0916B240190F081E02D8481C81730
:1040000098F310926C248091702481FD0E94051811
:104010001092702410927124CF910895CF938091C3
:104020006C24882349F1A0916A24B0916B24ED910E
:10403000FC91119784818823F9F0C0E0EC2FF0E027
:10404000EE0FFF1F12968D919C911397E80FF91FA9
:104050000190F081E02D0084F185E02D309709F08A
:104060001995CF5FA0916A24B0916B24ED91FC91DA
:1040700011978481C81710F3CF9108950F931F9360
:10408000CF93DF93E9E7F4E2128613861486158650
:1040900016861786808188230CF095C220917F2494
:1040A000309180242115310509F088C27FC28F71BB
:1040B00009F0ABC090917A24963081F0983009F4E1
:1040C00099C09111A2C02230310509F02BC262E0E3
:1040D00070E080E794E20E9494127EC280917B247B
:1040E00090917C24292F332722303105B1F020F420
:1040F0002130310541F0D8C123303105F1F12F30A5
:10410000310561F1D1C180913D2090913E20DC01CB
:104110006C9170E00E9494125EC0E0913D20F0919D
:104120003E202189821708F0FDC19927880F991F29
:10413000880F991FE0913F20F0914020E80FF91F70
:1041400080819181FC01628173810E949412E091CF
:104150008124F091822482E081833DC080914120BE
:1041600090914220009709F4DDC1DC0112966D9117
:104170007C9113970E9494122EC09927813091054B
:1041800099F058F08230910509F422C2039709F0A2
:1041900094C131E0E5EAF1E20AC064E070E082EE49
:1041A00090E20E94941217C0E1EDF0E230E1A4EA3F
:1041B000B0E220E0819190E08D939D932F5F2317D3
:1041C000C8F3632F660F6E5F6093A22070E082EAEF
:1041D00090E20E949412E9E7F4E2868197812285B9
:1041E00033858217930708F0F7C180938324909357
:1041F0008424F2C12130310509F094C161E070E0FE
:104200008CE694E20E949412E7C18130E9F5909126
:104210007A249A30C9F52130310509F053C18091D3
:104220006C24882309F44EC1C0917D24D0917E2452
:1042300000916A2410916B24D801ED91FC91848146
:10424000C81708F03FC160E08C2F0CDE882309F40A
:1042500034C1CE019927880F991FD8011296ED918C
:10426000FC911397E80FF91F0190F081E02D8681F2
:104270009781FC01199580936E2461E070E08EE6D1
:1042800094E20E949412A8C1823009F016C1809174
:104290007A2481110BC12230310509F043C180918C
:1042A0007D240E94231390E08093662490936724DA
:1042B00062E070E086E694E20E9494128DC18F71F4
:1042C00009F0A0C090917A24933091F118F49130C4
:1042D000A9F098C0953021F0993009F443C092C0FC
:1042E00080917F2490918024892B09F01BC18CE25E
:1042F0009FE180938524909386246EC180917F24D2
:1043000090918024892B09F00DC180917B2490919C
:104310007C24019709F006C180917024909171244A
:104320008D7F80937024909371240E94051854C14E
:1043300080917F2490918024892B09F0F3C0809193
:104340007B2490917C24019709F0B2C08091702465
:1043500090917124826080937024909371240E94C4
:1043600004183AC180917F2490918024892B09F010
:10437000D9C00E948912882309F49FC020917B2410
:1043800030917C243327E0913D20F0913E208189BB
:1043900090E08217930708F490C016DE80917B248A
:1043A00090917C2480936C24882309F415C199276B
:1043B0008150904C880F991F880F991FE0913F20E2
:1043C000F0914020E80FF91FE0936A24F0936B24EA
:1043D0000190F081E02D8481882309F4FDC0C0E0C4
:1043E00060E08C2FBBDD882309F467C0CF5FE091CC
:1043F0006A24F0916B240190F081E02D8481C8172C
:1044000078F3EAC08130E9F490917A249B30C9F4C2
:1044100080917F2490918024892B09F053C0809152
:104420006C24882309F44EC0E9E7F4E2C481D28108
:104430008C2F52DD882309F440C06D2F8C2F8EDD28
:104440003AC08230D1F580917A24813019F08330DE
:10445000A1F030C080917F2490918024892B09F0B5
:1044600061C080917B2490917C24892B09F05AC0F3
:1044700080917D240E943E131EC080917F249091E4
:104480008024892B09F04EC080917B2490917C245C
:10449000892B09F047C0C9E7D4E28C810E944014FF
:1044A0008C810E94AB1407C080E005C080E003C08F
:1044B00080E001C080E0811190C0809179248F71EB
:1044C000813081F580916C24882309F471C00091BA
:1044D0007D2410917E24C0916A24D0916B24E881C0
:1044E000F9818481081708F065C060E0802FBADC8C
:1044F0008823C1F0F801FF27CF01880F991FEA81B7
:10450000FB81E80FF91FC081D181EE81FF811995F0
:10451000682F802FA7DC882329F0EC81FD81199575
:1045200081115BC0809179248F71823009F044C081
:1045300080916C248823B1F1A0916A24B0916B24FE
:10454000ED91FC9111978481882371F1C0E0EC2FEB
:10455000F0E0EE0FFF1F12968D919C911397E80FDC
:10456000F91F00811181D8011696ED91FC911797E2
:104570001995682F8C2F76DC882379F1D801149651
:10458000ED91FC9115971995811127C0CF5FA091EE
:104590006A24B0916B24ED91FC9111979481C91715
:1045A000B0F21BC080E019C080E017C080E015C0E9
:1045B00080E013C080E011C080E00FC0982F90769B
:1045C00009F07BCF74CD982F907609F076CF77CE17
:1045D0003CE0E4ECF0E2EBCD81E0DF91CF911F9184
:1045E0000F910895CF93DF931F92CDB7DEB78091DF
:1045F000932490919424E0918F24F0919024BE0113
:104600006F5F7F4F19958981082E000C990B0F90D1
:10461000DF91CF91089580917224882381F0862FB5
:10462000082E000C990BDFDB21E030E0892B11F024
:1046300020E030E088279927821B930B089580E0C3
:1046400090E00895CF93DF9380917224811103C08D
:10465000FB01108203C0EB013EDB8883DF91CF9129
:10466000089581E08093722408951092932410920B
:1046700094248BE093E2809391249093922482E29D
:1046800093E280938F24909390249BDC62EF72E2FC
:104690008CE493E279C00895682F809193249091DF
:1046A0009424E0919124F0919224199599231CF07F
:1046B00081E090E008958FEF9FEF08954091CA0147
:1046C000E62FF72F8093CA0184914093CA01089581
:1046D0001BBEFC0128ED24BF60830895AA1BBB1BF1
:1046E00051E107C0AA1FBB1FA617B70710F0A61BF2
:1046F000B70B881F991F5A95A9F780959095BC0113
:10470000CD010895A1E21A2EAA1BBB1BFD010DC00D
:10471000AA1FBB1FEE1FFF1FA217B307E407F50771
:1047200020F0A21BB30BE40BF50B661F771F881F4D
:10473000991F1A9469F760957095809590959B01E3
:10474000AC01BD01CF010895EE0FFF1F881F8BBF85
:104750000790F691E02D1994A29FB001B39FC0017C
:10476000A39F700D811D1124911DB29F700D811D9D
:104770001124911D0895FB01DC0102C001900D92EE
:1047800041505040D8F708950F931F93CF93DF9374
:10479000009731F46115710519F480E090E039C09B
:1047A0008B01EC016EE070E081E090E071D2FC01E1
:1047B000892B99F380E883830115110571F0028735
:1047C000138781E883838091952490919624892B87
:1047D00021F4E0939524F09396242097C9F0C087A4
:1047E000D1878381826083838091972490919824DC
:1047F000892B71F4E0939724F09398248091992465
:1048000090919A24892B21F4E0939924F0939A248F
:10481000CF01DF91CF911F910F910895CF93DF9337
:10482000CDB7DEB7AE014A5F5F4FFA01619171917A
:10483000AF01809197249091982433D0DF91CF914C
:1048400008950F931F93CF93DF93E0919724F091F6
:104850009824238121FF1BC08C01D0E0C0E0F80127
:1048600081918F016091972470919824DB011896B3
:10487000ED91FC911997882331F01995892B79F3E3
:10488000DFEFCFEFECCF8AE01995892B19F08FEF8E
:104890009FEF02C08D2F9C2FDF91CF911F910F9121
:1048A00008952F923F924F925F926F927F928F92D4
:1048B0009F92AF92BF92CF92DF92EF92FF920F93AF
:1048C0001F93CF93DF93CDB7DEB72B97CDBFDEBF5E
:1048D0006C017B018A01FC0116821782838181FFB2
:1048E000BFC1CE0101963C01F6019381F70193FD12
:1048F000859193FF81917F01882309F4ADC18532B1
:1049000039F493FD859193FF81917F01853221F4E4
:10491000B60190E015D3E8CF912C212C312CFFE18A
:10492000F315D8F08B3279F038F4803279F0833295
:10493000A1F4232D20611DC08D3261F0803369F414
:10494000232D216016C0832D8260382EE32DE46074
:104950003E2E2AC0F32DF8601DC037FC2DC020ED7F
:10496000280F2A3040F08E32B9F436FC75C1232D61
:104970002064322E19C036FE06C08AE0989E200DB3
:104980001124922E11C0EAE02E9E200D1124222E19
:10499000F32DF0623F2E08C08C3621F4832D806801
:1049A000382E02C0883641F4F70193FD859193FFBC
:1049B00081917F018111B3CF982F9F7D95549330C2
:1049C00028F40C5F1F4F9FE399830DC0833631F0AD
:1049D000833771F0833509F055C020C0F80180811C
:1049E00089830E5F1F4F88248394912C530112C03A
:1049F0002801F2E04F0E511CF801A080B18036FE74
:104A000003C0692D70E002C06FEF7FEFC5018DD24A
:104A10004C018201F32DFF773F2E15C0280122E0C3
:104A2000420E511CF801A080B18036FE03C0692DF2
:104A300070E002C06FEF7FEFC50165D24C01F32D2E
:104A4000F0683F2E820133FC19C0822D90E0881659
:104A50009906A0F4B60180E290E072D22A94F5CFD4
:104A6000F50137FC859137FE81915F01B60190E039
:104A700067D221102A9421E0821A910881149104AE
:104A800079F7E1C0843611F0893639F5F80137FE3F
:104A900007C060817181828193810C5F1F4F08C0C4
:104AA00060817181072E000C880B990B0E5F1F4FE0
:104AB000F32DFF763F2E97FF09C090958095709556
:104AC00061957F4F8F4F9F4FF0683F2E2AE030E077
:104AD000A30172D2882E861844C0853731F4232D65
:104AE0002F7EB22E2AE030E025C0932D997FB92E7B
:104AF0008F36C1F018F4883579F0AEC0803719F0E0
:104B0000883721F0A9C0E92FE061BE2EB4FE0DC0A8
:104B1000FB2DF460BF2E09C034FE0AC0292F266089
:104B2000B22E06C028E030E005C020E130E002C02F
:104B300020E132E0F801B7FE07C060817181828117
:104B400093810C5F1F4F06C06081718180E090E00F
:104B50000E5F1F4FA30130D2882E8618FB2DFF77E2
:104B60003F2E36FE0DC0232D2E7FA22E891458F421
:104B700034FE0BC032FC09C0832D8E7EA82E05C0EA
:104B8000B82CA32C03C0B82C01C0B92CA4FE0FC0B4
:104B9000FE01E80DF11D8081803321F49A2D997E6C
:104BA000A92E09C0A2FE06C0B394B39404C08A2DF6
:104BB000867809F0B394A3FC10C0A0FE06C0B2141E
:104BC00080F4280C922C9B180DC0B21458F4B60136
:104BD00080E290E0B5D1B394F8CFB21418F42B185A
:104BE00002C0982C212CA4FE0FC0B60180E390E0F7
:104BF000A7D1A2FE16C0A1FC03C088E790E002C0C6
:104C000088E590E0B6010CC08A2D867851F0A1FEAF
:104C100002C08BE201C080E2A7FC8DE2B60190E009
:104C20008FD1891430F4B60180E390E089D19A9451
:104C3000F8CF8A94F301E80DF11D8081B60190E070
:104C40007FD18110F6CF222009F44ECEB60180E24A
:104C500090E076D12A94F7CFF6018681978102C041
:104C60008FEF9FEF2B96CDBFDEBFDF91CF911F91CE
:104C70000F91FF90EF90DF90CF90BF90AF909F90FB
:104C80008F907F906F905F904F903F902F900895FE
:104C90000F931F93CF93DF93869F8001879F100D03
:104CA000969F100D1124C8010DD0EC01009721F042
:104CB000A80160E070E032D1CE01DF91CF911F9169
:104CC0000F9108950F931F93CF93DF938230910537
:104CD00010F482E090E0E0919D24F0919E2420E089
:104CE00030E0A0E0B0E0309719F1408151810281BD
:104CF000138148175907C8F08417950769F410976E
:104D000031F012960C93129713961C9327C00093C0
:104D10009D2410939E2422C02115310519F04217BD
:104D2000530718F49A01BD01EF01DF01F801DBCF51
:104D300021153105F9F0281B390B2430310580F499
:104D40008A819B816115710521F0FB018283938328
:104D500004C080939D2490939E24FE01329644C00B
:104D6000FE01E20FF31F81939193225031092883B2
:104D700039833AC020919B2430919C24232B41F409
:104D8000209102203091032020939B2430939C2477
:104D900020910020309101202115310541F42DB7DB
:104DA0003EB74091042050910520241B350BE09123
:104DB0009B24F0919C24E217F307A0F42E1B3F0BD9
:104DC0002817390778F0AC014E5F5F4F241735077D
:104DD00048F04E0F5F1F40939B2450939C24819377
:104DE000919302C0E0E0F0E0CF01DF91CF911F91FD
:104DF0000F910895CF93DF93009709F481C0FC01D0
:104E0000329712821382A0919D24B0919E24109714
:104E100081F420813181820F931F20919B24309156
:104E20009C242817390751F5E0939B24F0939C2488
:104E300067C0ED0120E030E0CE17DF0740F44A8183
:104E40005B819E0141155105F1F0EA01F5CFC28366
:104E5000D38340815181840F951FC817D90759F416
:104E600088819981840F951F0296808391838A811E
:104E70009B81828393832115310529F4E0939D243E
:104E8000F0939E243DC0E901EA83FB834991599147
:104E9000C40FD51FEC17FD0761F480819181840F49
:104EA000951F0296E90188839983828193818A8381
:104EB0009B83E0E0F0E012968D919C911397009710
:104EC00019F0FD01DC01F7CF8D919C9111979D01A7
:104ED0002E5F3F4F820F931F20919B2430919C2483
:104EE0002817390769F4309729F410929D241092FD
:104EF0009E2402C012821382A0939B24B0939C2410
:104F0000DF91CF910895FC01059061507040011030
:104F1000D8F7809590958E0F9F1F0895DC0101C0F2
:104F20006D9341505040E0F70895FC01615070408E
:104F300001900110D8F7809590958E0F9F1F0895CE
:104F40000F931F93CF93DF93FB01238121FD03C0B8
:104F50008FEF9FEF2CC022FF16C04681578124811E
:104F600035814217530744F4A081B1819D012F5F21
:104F70003F4F208331838C93268137812F5F3F4FB2
:104F80002683378314C08B01EC01FB010084F1857B
:104F9000E02D1995892BE1F6D80116968D919C91FB
:104FA0001797019616968D939C931797CE01DF91D4
:104FB000CF911F910F910895FA01AA27283051F13E
:104FC000203181F1E8946F936E7F6E5F7F4F8F4F3A
:104FD0009F4FAF4FB1E03ED0B4E03CD0670F781F99
:104FE000891F9A1FA11D680F791F8A1F911DA11D7E
:104FF0006A0F711D811D911DA11D20D009F46894B7
:105000003F912AE0269F11243019305D3193DEF65E
:10501000CF010895462F4770405D4193B3E00FD014
:10502000C9F7F6CF462F4F70405D4A3318F0495DFF
:1050300031FD4052419302D0A9F7EACFB4E0A695E2
:105040009795879577956795BA95C9F70097610504
:10505000710508959B01AC010A2E0694579547955A
:1050600037952795BA95C9F7620F731F841F951F4F
:08507000A01D0895F894FFCF84
:1050780000009F2420002200000000002F230000D1
:1050880000801A06002000000020801A0600200078
:10509800000010000E060C0400B51DD61CCC1BCE5B
:1050A8001BB71CD51BC61BE11CCE1B000090204360
:1050B8002000004C2047203320292000090243000B
:1050C800020100A0C8090400000102020100052431
:1050D800001001042402020524060001052401032E
:1050E800010705820340001009040100020A0000BC
:1050F8000007058102400000070502024000000089
:105108001201000202000040EB0301270001010226
:105118000301000300000000000000000000000080
:105128000000000000000000000000000000000077
:105138000000000046696E644D65534154205631A5
:105148000044463449414820536F6C7574696F6E4A
:105158007300040309044442473030310D004442CF
:10516800473030320D004442473031310D0044425F
:10517800473031320D004442473031330D0044424C
:10518800473032310D004442473032320D0044423C
:10519800473032330D004442473032340D00444228
:1051A800473039310D004442473039320D004669E5
:1051B8006E644D6553415420563120405553423A50
:1051C800205254433332203D202530366C642073FE
:1051D80065630D0A000080FD899893729C34A4923F
:1051E800AA4DAF37B233B337B24DAF92AA34A472D7
:1051F8009C9893FD8900800376686C8E63CC5B6E07
:1052080055B350C94DCD4CC94DB3506E55CC5B8E7E
:0852180063686C0376300000AE
:00000001FF
